{"abi":[{"type":"constructor","inputs":[],"stateMutability":"nonpayable"},{"type":"function","name":"canSlash","inputs":[{"name":"","type":"address","internalType":"address"},{"name":"","type":"address","internalType":"address"}],"outputs":[{"name":"","type":"bool","internalType":"bool"}],"stateMutability":"pure"},{"type":"function","name":"canWithdraw","inputs":[{"name":"","type":"address","internalType":"address"},{"name":"","type":"uint32","internalType":"uint32"},{"name":"","type":"uint256","internalType":"uint256"}],"outputs":[{"name":"","type":"bool","internalType":"bool"}],"stateMutability":"pure"},{"type":"function","name":"contractCanSlashOperatorUntilBlock","inputs":[{"name":"","type":"address","internalType":"address"},{"name":"","type":"address","internalType":"address"}],"outputs":[{"name":"","type":"uint32","internalType":"uint32"}],"stateMutability":"pure"},{"type":"function","name":"freezeOperator","inputs":[{"name":"","type":"address","internalType":"address"}],"outputs":[],"stateMutability":"nonpayable"},{"type":"function","name":"getCorrectValueForInsertAfter","inputs":[{"name":"","type":"address","internalType":"address"},{"name":"","type":"uint32","internalType":"uint32"}],"outputs":[{"name":"","type":"uint256","internalType":"uint256"}],"stateMutability":"pure"},{"type":"function","name":"initialize","inputs":[{"name":"initialOwner","type":"address","internalType":"address"}],"outputs":[],"stateMutability":"nonpayable"},{"type":"function","name":"isFrozen","inputs":[{"name":"","type":"address","internalType":"address"}],"outputs":[{"name":"","type":"bool","internalType":"bool"}],"stateMutability":"pure"},{"type":"function","name":"latestUpdateBlock","inputs":[{"name":"","type":"address","internalType":"address"},{"name":"","type":"address","internalType":"address"}],"outputs":[{"name":"","type":"uint32","internalType":"uint32"}],"stateMutability":"pure"},{"type":"function","name":"optIntoSlashing","inputs":[{"name":"","type":"address","internalType":"address"}],"outputs":[],"stateMutability":"nonpayable"},{"type":"function","name":"owner","inputs":[],"outputs":[{"name":"","type":"address","internalType":"address"}],"stateMutability":"view"},{"type":"function","name":"recordFirstStakeUpdate","inputs":[{"name":"","type":"address","internalType":"address"},{"name":"","type":"uint32","internalType":"uint32"}],"outputs":[],"stateMutability":"nonpayable"},{"type":"function","name":"recordLastStakeUpdateAndRevokeSlashingAbility","inputs":[{"name":"","type":"address","internalType":"address"},{"name":"","type":"uint32","internalType":"uint32"}],"outputs":[],"stateMutability":"nonpayable"},{"type":"function","name":"recordStakeUpdate","inputs":[{"name":"","type":"address","internalType":"address"},{"name":"","type":"uint32","internalType":"uint32"},{"name":"","type":"uint32","internalType":"uint32"},{"name":"","type":"uint256","internalType":"uint256"}],"outputs":[],"stateMutability":"nonpayable"},{"type":"function","name":"renounceOwnership","inputs":[],"outputs":[],"stateMutability":"nonpayable"},{"type":"function","name":"resetFrozenStatus","inputs":[{"name":"","type":"address[]","internalType":"address[]"}],"outputs":[],"stateMutability":"nonpayable"},{"type":"function","name":"slasher","inputs":[],"outputs":[{"name":"","type":"address","internalType":"contract ISlashManager"}],"stateMutability":"view"},{"type":"function","name":"strategyManager","inputs":[],"outputs":[{"name":"","type":"address","internalType":"contract IStrategyManager"}],"stateMutability":"view"},{"type":"function","name":"transferOwnership","inputs":[{"name":"newOwner","type":"address","internalType":"address"}],"outputs":[],"stateMutability":"nonpayable"},{"type":"event","name":"FrozenStatusReset","inputs":[{"name":"previouslySlashedAddress","type":"address","indexed":true,"internalType":"address"}],"anonymous":false},{"type":"event","name":"Initialized","inputs":[{"name":"version","type":"uint64","indexed":false,"internalType":"uint64"}],"anonymous":false},{"type":"event","name":"OperatorFrozen","inputs":[{"name":"slashedOperator","type":"address","indexed":true,"internalType":"address"},{"name":"slashingContract","type":"address","indexed":true,"internalType":"address"}],"anonymous":false},{"type":"event","name":"OptedIntoSlashing","inputs":[{"name":"operator","type":"address","indexed":true,"internalType":"address"},{"name":"contractAddress","type":"address","indexed":true,"internalType":"address"}],"anonymous":false},{"type":"event","name":"OwnershipTransferred","inputs":[{"name":"previousOwner","type":"address","indexed":true,"internalType":"address"},{"name":"newOwner","type":"address","indexed":true,"internalType":"address"}],"anonymous":false},{"type":"event","name":"SlashingAbilityRevoked","inputs":[{"name":"operator","type":"address","indexed":true,"internalType":"address"},{"name":"contractAddress","type":"address","indexed":true,"internalType":"address"},{"name":"contractCanSlashOperatorUntilBlock","type":"uint32","indexed":false,"internalType":"uint32"}],"anonymous":false},{"type":"error","name":"InvalidInitialization","inputs":[]},{"type":"error","name":"NotInitializing","inputs":[]},{"type":"error","name":"OwnableInvalidOwner","inputs":[{"name":"owner","type":"address","internalType":"address"}]},{"type":"error","name":"OwnableUnauthorizedAccount","inputs":[{"name":"account","type":"address","internalType":"address"}]}],"bytecode":{"object":"0x60c060405234801561001057600080fd5b5061001961001e565b6100d0565b7ff0c57e16840df040f15088dc2f81fe391c3923bec73e23a9662efc9c229c6a00805468010000000000000000900460ff161561006e5760405163f92ee8a960e01b815260040160405180910390fd5b80546001600160401b03908116146100cd5780546001600160401b0319166001600160401b0390811782556040519081527fc7f505b2f371ae2175ee4913f4499e1f2633a7b5936321eed1cdaeb6115181d29060200160405180910390a15b50565b60805160a0516105c46100f5600039600061023d0152600061014501526105c46000f3fe608060405234801561001057600080fd5b50600436106101165760003560e01c80638da5cb5b116100a2578063d98128c011610071578063d98128c014610286578063da16e29b14610184578063e58398361461029c578063f2fde38b146102b0578063f73b75191461012f57600080fd5b80638da5cb5b14610208578063b134427114610238578063c4d66de81461025f578063c747075b1461027257600080fd5b80636f0c2f74116100e95780636f0c2f7414610184578063715018a6146101af578063723e59c7146101b75780637cf72bba146101d35780638105e043146101e157600080fd5b80630ffabbce1461011b578063175d32051461011b57806338c8ee641461012f57806339b70e3814610140575b600080fd5b61012d610129366004610413565b5050565b005b61012d61013d366004610446565b50565b6101677f000000000000000000000000000000000000000000000000000000000000000081565b6040516001600160a01b0390911681526020015b60405180910390f35b61019a610192366004610468565b600092915050565b60405163ffffffff909116815260200161017b565b61012d6102c3565b6101c5610192366004610413565b60405190815260200161017b565b61012d610129366004610492565b6101f86101ef366004610507565b60019392505050565b604051901515815260200161017b565b7f9016d09d72d40fdae2fd8ceac6b6234c7706214fd39c1cd1e609a0528c199300546001600160a01b0316610167565b6101677f000000000000000000000000000000000000000000000000000000000000000081565b61012d61026d366004610446565b6102d7565b61012d610280366004610543565b50505050565b6101f8610294366004610468565b600192915050565b6101f86102aa366004610446565b50600190565b61012d6102be366004610446565b6102e0565b6102cb610317565b6102d56000610372565b565b61013d81610372565b6102e8610317565b6001600160a01b0381166102d757604051631e4fbdf760e01b8152600060048201526024015b60405180910390fd5b336103497f9016d09d72d40fdae2fd8ceac6b6234c7706214fd39c1cd1e609a0528c199300546001600160a01b031690565b6001600160a01b0316146102d55760405163118cdaa760e01b815233600482015260240161030e565b7f9016d09d72d40fdae2fd8ceac6b6234c7706214fd39c1cd1e609a0528c19930080546001600160a01b031981166001600160a01b03848116918217845560405192169182907f8be0079c531659141344cd1fd0a4f28419497f9722a3daafe3b4186f6b6457e090600090a3505050565b80356001600160a01b03811681146103fa57600080fd5b919050565b803563ffffffff811681146103fa57600080fd5b6000806040838503121561042657600080fd5b61042f836103e3565b915061043d602084016103ff565b90509250929050565b60006020828403121561045857600080fd5b610461826103e3565b9392505050565b6000806040838503121561047b57600080fd5b610484836103e3565b915061043d602084016103e3565b600080602083850312156104a557600080fd5b823567ffffffffffffffff808211156104bd57600080fd5b818501915085601f8301126104d157600080fd5b8135818111156104e057600080fd5b8660208260051b85010111156104f557600080fd5b60209290920196919550909350505050565b60008060006060848603121561051c57600080fd5b610525846103e3565b9250610533602085016103ff565b9150604084013590509250925092565b6000806000806080858703121561055957600080fd5b610562856103e3565b9350610570602086016103ff565b925061057e604086016103ff565b939692955092936060013592505056fea26469706673582212200e124f40adabf28df4640d0467e461619a01b6d077d3b4d0025c09683aaa5ddb64736f6c63430008180033","linkReferences":{}},"methodIdentifiers":{"canSlash(address,address)":"d98128c0","canWithdraw(address,uint32,uint256)":"8105e043","contractCanSlashOperatorUntilBlock(address,address)":"6f0c2f74","freezeOperator(address)":"38c8ee64","getCorrectValueForInsertAfter(address,uint32)":"723e59c7","initialize(address)":"c4d66de8","isFrozen(address)":"e5839836","latestUpdateBlock(address,address)":"da16e29b","optIntoSlashing(address)":"f73b7519","owner()":"8da5cb5b","recordFirstStakeUpdate(address,uint32)":"175d3205","recordLastStakeUpdateAndRevokeSlashingAbility(address,uint32)":"0ffabbce","recordStakeUpdate(address,uint32,uint32,uint256)":"c747075b","renounceOwnership()":"715018a6","resetFrozenStatus(address[])":"7cf72bba","slasher()":"b1344271","strategyManager()":"39b70e38","transferOwnership(address)":"f2fde38b"},"id":55}