{"abi":[{"type":"constructor","inputs":[],"stateMutability":"nonpayable"},{"type":"function","name":"canSlash","inputs":[{"name":"","type":"address","internalType":"address"},{"name":"","type":"address","internalType":"address"}],"outputs":[{"name":"","type":"bool","internalType":"bool"}],"stateMutability":"pure"},{"type":"function","name":"canWithdraw","inputs":[{"name":"","type":"address","internalType":"address"},{"name":"","type":"uint32","internalType":"uint32"},{"name":"","type":"uint256","internalType":"uint256"}],"outputs":[{"name":"","type":"bool","internalType":"bool"}],"stateMutability":"pure"},{"type":"function","name":"contractCanSlashOperatorUntilBlock","inputs":[{"name":"","type":"address","internalType":"address"},{"name":"","type":"address","internalType":"address"}],"outputs":[{"name":"","type":"uint32","internalType":"uint32"}],"stateMutability":"pure"},{"type":"function","name":"freezeOperator","inputs":[{"name":"","type":"address","internalType":"address"}],"outputs":[],"stateMutability":"nonpayable"},{"type":"function","name":"getCorrectValueForInsertAfter","inputs":[{"name":"","type":"address","internalType":"address"},{"name":"","type":"uint32","internalType":"uint32"}],"outputs":[{"name":"","type":"uint256","internalType":"uint256"}],"stateMutability":"pure"},{"type":"function","name":"initialize","inputs":[{"name":"initialOwner","type":"address","internalType":"address"}],"outputs":[],"stateMutability":"nonpayable"},{"type":"function","name":"isFrozen","inputs":[{"name":"","type":"address","internalType":"address"}],"outputs":[{"name":"","type":"bool","internalType":"bool"}],"stateMutability":"pure"},{"type":"function","name":"latestUpdateBlock","inputs":[{"name":"","type":"address","internalType":"address"},{"name":"","type":"address","internalType":"address"}],"outputs":[{"name":"","type":"uint32","internalType":"uint32"}],"stateMutability":"pure"},{"type":"function","name":"optIntoSlashing","inputs":[{"name":"","type":"address","internalType":"address"}],"outputs":[],"stateMutability":"nonpayable"},{"type":"function","name":"owner","inputs":[],"outputs":[{"name":"","type":"address","internalType":"address"}],"stateMutability":"view"},{"type":"function","name":"recordFirstStakeUpdate","inputs":[{"name":"","type":"address","internalType":"address"},{"name":"","type":"uint32","internalType":"uint32"}],"outputs":[],"stateMutability":"nonpayable"},{"type":"function","name":"recordLastStakeUpdateAndRevokeSlashingAbility","inputs":[{"name":"","type":"address","internalType":"address"},{"name":"","type":"uint32","internalType":"uint32"}],"outputs":[],"stateMutability":"nonpayable"},{"type":"function","name":"recordStakeUpdate","inputs":[{"name":"","type":"address","internalType":"address"},{"name":"","type":"uint32","internalType":"uint32"},{"name":"","type":"uint32","internalType":"uint32"},{"name":"","type":"uint256","internalType":"uint256"}],"outputs":[],"stateMutability":"nonpayable"},{"type":"function","name":"renounceOwnership","inputs":[],"outputs":[],"stateMutability":"nonpayable"},{"type":"function","name":"resetFrozenStatus","inputs":[{"name":"","type":"address[]","internalType":"address[]"}],"outputs":[],"stateMutability":"nonpayable"},{"type":"function","name":"slasher","inputs":[],"outputs":[{"name":"","type":"address","internalType":"contract ISlashManager"}],"stateMutability":"view"},{"type":"function","name":"strategyManager","inputs":[],"outputs":[{"name":"","type":"address","internalType":"contract IStrategyManager"}],"stateMutability":"view"},{"type":"function","name":"transferOwnership","inputs":[{"name":"newOwner","type":"address","internalType":"address"}],"outputs":[],"stateMutability":"nonpayable"},{"type":"event","name":"FrozenStatusReset","inputs":[{"name":"previouslySlashedAddress","type":"address","indexed":true,"internalType":"address"}],"anonymous":false},{"type":"event","name":"Initialized","inputs":[{"name":"version","type":"uint64","indexed":false,"internalType":"uint64"}],"anonymous":false},{"type":"event","name":"OperatorFrozen","inputs":[{"name":"slashedOperator","type":"address","indexed":true,"internalType":"address"},{"name":"slashingContract","type":"address","indexed":true,"internalType":"address"}],"anonymous":false},{"type":"event","name":"OptedIntoSlashing","inputs":[{"name":"operator","type":"address","indexed":true,"internalType":"address"},{"name":"contractAddress","type":"address","indexed":true,"internalType":"address"}],"anonymous":false},{"type":"event","name":"OwnershipTransferred","inputs":[{"name":"previousOwner","type":"address","indexed":true,"internalType":"address"},{"name":"newOwner","type":"address","indexed":true,"internalType":"address"}],"anonymous":false},{"type":"event","name":"SlashingAbilityRevoked","inputs":[{"name":"operator","type":"address","indexed":true,"internalType":"address"},{"name":"contractAddress","type":"address","indexed":true,"internalType":"address"},{"name":"contractCanSlashOperatorUntilBlock","type":"uint32","indexed":false,"internalType":"uint32"}],"anonymous":false},{"type":"error","name":"InvalidInitialization","inputs":[]},{"type":"error","name":"NotInitializing","inputs":[]},{"type":"error","name":"OwnableInvalidOwner","inputs":[{"name":"owner","type":"address","internalType":"address"}]},{"type":"error","name":"OwnableUnauthorizedAccount","inputs":[{"name":"account","type":"address","internalType":"address"}]}],"bytecode":{"object":"0x60c080604052346100ca577ff0c57e16840df040f15088dc2f81fe391c3923bec73e23a9662efc9c229c6a009081549060ff8260401c166100bb57506001600160401b036002600160401b031982821601610076575b60405161054f90816100d0823960805181610387015260a051816102030152f35b6001600160401b031990911681179091556040519081527fc7f505b2f371ae2175ee4913f4499e1f2633a7b5936321eed1cdaeb6115181d290602090a1388080610055565b63f92ee8a960e01b8152600490fd5b600080fdfe60806040818152600436101561001457600080fd5b600090813560e01c9283630ffabbce146103b6578363175d3205146103b657836338c8ee64146100ea57836339b70e3814610373575082636f0c2f741461016c578263715018a614610309578263723e59c7146102dd5782637cf72bba1461028b5782638105e043146102665782638da5cb5b14610232578263b1344271146101f0578263c4d66de8146101ce578263c747075b14610195578263d98128c014610171578263da16e29b1461016c578263e583983614610148578263f2fde38b146100ef57505063f73b7519146100ea57600080fd5b610423565b34610144576020366003190112610144576101086103bb565b9061011161046a565b6001600160a01b0382161561012d575061012a906104a3565b80f35b51631e4fbdf760e01b815260048101839052602490fd5b5080fd5b34610144576020366003190112610144576020906101646103bb565b505160018152f35b61043c565b3461014457806003193601126101445760209061018c6103bb565b506101646103d6565b50346101cb5760803660031901126101cb576101af6103bb565b506101b86103ec565b5060443563ffffffff8116036101cb5780f35b80fd5b50346101cb5760203660031901126101cb5761012a6101eb6103bb565b6104a3565b34610144578160031936011261014457517f00000000000000000000000000000000000000000000000000000000000000006001600160a01b03168152602090f35b346101445781600319360112610144576000805160206104fa8339815191525490516001600160a01b039091168152602090f35b34610144576060366003190112610144576020906102826103bb565b506101646103ec565b50346101cb5760203660031901126101cb5767ffffffffffffffff6004358181116102d957366023820112156102d95780600401359182116102d957602490369260051b0101116101cb5780f35b8280fd5b34610144578060031936011261014457906020916102f96103bb565b506103026103ec565b5051908152f35b50346101cb57806003193601126101cb5761032261046a565b6000805160206104fa83398151915280546001600160a01b0319811690915581906001600160a01b03167f8be0079c531659141344cd1fd0a4f28419497f9722a3daafe3b4186f6b6457e08280a380f35b9050346101445781600319360112610144577f00000000000000000000000000000000000000000000000000000000000000006001600160a01b03168152602090f35b6103ff565b600435906001600160a01b03821682036103d157565b600080fd5b602435906001600160a01b03821682036103d157565b6024359063ffffffff821682036103d157565b346103d15760403660031901126103d1576104186103bb565b506104216103ec565b005b346103d15760203660031901126103d1576104216103bb565b346103d15760403660031901126103d1576104556103bb565b5061045e6103d6565b50602060405160008152f35b6000805160206104fa833981519152546001600160a01b0316330361048b57565b60405163118cdaa760e01b8152336004820152602490fd5b6000805160206104fa83398151915280546001600160a01b039283166001600160a01b0319821681179092559091167f8be0079c531659141344cd1fd0a4f28419497f9722a3daafe3b4186f6b6457e0600080a356fe9016d09d72d40fdae2fd8ceac6b6234c7706214fd39c1cd1e609a0528c199300a26469706673582212204de6e799d25cf8290fc5bd03b5a8312bd038650df3ba3129e8e1355af138117c64736f6c63430008180033","linkReferences":{}},"methodIdentifiers":{"canSlash(address,address)":"d98128c0","canWithdraw(address,uint32,uint256)":"8105e043","contractCanSlashOperatorUntilBlock(address,address)":"6f0c2f74","freezeOperator(address)":"38c8ee64","getCorrectValueForInsertAfter(address,uint32)":"723e59c7","initialize(address)":"c4d66de8","isFrozen(address)":"e5839836","latestUpdateBlock(address,address)":"da16e29b","optIntoSlashing(address)":"f73b7519","owner()":"8da5cb5b","recordFirstStakeUpdate(address,uint32)":"175d3205","recordLastStakeUpdateAndRevokeSlashingAbility(address,uint32)":"0ffabbce","recordStakeUpdate(address,uint32,uint32,uint256)":"c747075b","renounceOwnership()":"715018a6","resetFrozenStatus(address[])":"7cf72bba","slasher()":"b1344271","strategyManager()":"39b70e38","transferOwnership(address)":"f2fde38b"},"id":68}