{"abi":[{"type":"constructor","inputs":[],"stateMutability":"nonpayable"},{"type":"function","name":"DEFAULT_ADMIN_ROLE","inputs":[],"outputs":[{"name":"","type":"bytes32","internalType":"bytes32"}],"stateMutability":"view"},{"type":"function","name":"ORACLE_MANAGER_ROLE","inputs":[],"outputs":[{"name":"","type":"bytes32","internalType":"bytes32"}],"stateMutability":"view"},{"type":"function","name":"ORACLE_MODIFIER_ROLE","inputs":[],"outputs":[{"name":"","type":"bytes32","internalType":"bytes32"}],"stateMutability":"view"},{"type":"function","name":"ORACLE_PENDING_UPDATE_RESOLVER_ROLE","inputs":[],"outputs":[{"name":"","type":"bytes32","internalType":"bytes32"}],"stateMutability":"view"},{"type":"function","name":"acceptPendingUpdate","inputs":[],"outputs":[],"stateMutability":"nonpayable"},{"type":"function","name":"aggregator","inputs":[],"outputs":[{"name":"","type":"address","internalType":"contract IReturnsAggregator"}],"stateMutability":"view"},{"type":"function","name":"finalizationBlockNumberDelta","inputs":[],"outputs":[{"name":"","type":"uint256","internalType":"uint256"}],"stateMutability":"view"},{"type":"function","name":"getRoleAdmin","inputs":[{"name":"role","type":"bytes32","internalType":"bytes32"}],"outputs":[{"name":"","type":"bytes32","internalType":"bytes32"}],"stateMutability":"view"},{"type":"function","name":"getRoleMember","inputs":[{"name":"role","type":"bytes32","internalType":"bytes32"},{"name":"index","type":"uint256","internalType":"uint256"}],"outputs":[{"name":"","type":"address","internalType":"address"}],"stateMutability":"view"},{"type":"function","name":"getRoleMemberCount","inputs":[{"name":"role","type":"bytes32","internalType":"bytes32"}],"outputs":[{"name":"","type":"uint256","internalType":"uint256"}],"stateMutability":"view"},{"type":"function","name":"grantRole","inputs":[{"name":"role","type":"bytes32","internalType":"bytes32"},{"name":"account","type":"address","internalType":"address"}],"outputs":[],"stateMutability":"nonpayable"},{"type":"function","name":"hasPendingUpdate","inputs":[],"outputs":[{"name":"","type":"bool","internalType":"bool"}],"stateMutability":"view"},{"type":"function","name":"hasRole","inputs":[{"name":"role","type":"bytes32","internalType":"bytes32"},{"name":"account","type":"address","internalType":"address"}],"outputs":[{"name":"","type":"bool","internalType":"bool"}],"stateMutability":"view"},{"type":"function","name":"initialize","inputs":[{"name":"init","type":"tuple","internalType":"struct OracleManager.Init","components":[{"name":"admin","type":"address","internalType":"address"},{"name":"manager","type":"address","internalType":"address"},{"name":"oracleUpdater","type":"address","internalType":"address"},{"name":"pendingResolver","type":"address","internalType":"address"},{"name":"aggregator","type":"address","internalType":"contract IReturnsAggregator"},{"name":"pauser","type":"address","internalType":"contract IL1Pauser"},{"name":"staking","type":"address","internalType":"contract IStakingManagerInitiationRead"}]}],"outputs":[],"stateMutability":"nonpayable"},{"type":"function","name":"latestRecord","inputs":[],"outputs":[{"name":"","type":"tuple","internalType":"struct OracleRecord","components":[{"name":"updateStartBlock","type":"uint64","internalType":"uint64"},{"name":"updateEndBlock","type":"uint64","internalType":"uint64"},{"name":"currentNumValidatorsNotWithdrawable","type":"uint64","internalType":"uint64"},{"name":"cumulativeNumValidatorsWithdrawable","type":"uint64","internalType":"uint64"},{"name":"windowWithdrawnPrincipalAmount","type":"uint128","internalType":"uint128"},{"name":"windowWithdrawnRewardAmount","type":"uint128","internalType":"uint128"},{"name":"currentTotalValidatorBalance","type":"uint128","internalType":"uint128"},{"name":"cumulativeProcessedDepositAmount","type":"uint128","internalType":"uint128"}]}],"stateMutability":"view"},{"type":"function","name":"maxConsensusLayerGainPerBlockPPT","inputs":[],"outputs":[{"name":"","type":"uint40","internalType":"uint40"}],"stateMutability":"view"},{"type":"function","name":"maxConsensusLayerLossPPM","inputs":[],"outputs":[{"name":"","type":"uint24","internalType":"uint24"}],"stateMutability":"view"},{"type":"function","name":"maxDepositPerValidator","inputs":[],"outputs":[{"name":"","type":"uint256","internalType":"uint256"}],"stateMutability":"view"},{"type":"function","name":"minConsensusLayerGainPerBlockPPT","inputs":[],"outputs":[{"name":"","type":"uint40","internalType":"uint40"}],"stateMutability":"view"},{"type":"function","name":"minDepositPerValidator","inputs":[],"outputs":[{"name":"","type":"uint256","internalType":"uint256"}],"stateMutability":"view"},{"type":"function","name":"minReportSizeBlocks","inputs":[],"outputs":[{"name":"","type":"uint16","internalType":"uint16"}],"stateMutability":"view"},{"type":"function","name":"modifyExistingRecord","inputs":[{"name":"idx","type":"uint256","internalType":"uint256"},{"name":"record","type":"tuple","internalType":"struct OracleRecord","components":[{"name":"updateStartBlock","type":"uint64","internalType":"uint64"},{"name":"updateEndBlock","type":"uint64","internalType":"uint64"},{"name":"currentNumValidatorsNotWithdrawable","type":"uint64","internalType":"uint64"},{"name":"cumulativeNumValidatorsWithdrawable","type":"uint64","internalType":"uint64"},{"name":"windowWithdrawnPrincipalAmount","type":"uint128","internalType":"uint128"},{"name":"windowWithdrawnRewardAmount","type":"uint128","internalType":"uint128"},{"name":"currentTotalValidatorBalance","type":"uint128","internalType":"uint128"},{"name":"cumulativeProcessedDepositAmount","type":"uint128","internalType":"uint128"}]}],"outputs":[],"stateMutability":"nonpayable"},{"type":"function","name":"numRecords","inputs":[],"outputs":[{"name":"","type":"uint256","internalType":"uint256"}],"stateMutability":"view"},{"type":"function","name":"oracleUpdater","inputs":[],"outputs":[{"name":"","type":"address","internalType":"address"}],"stateMutability":"view"},{"type":"function","name":"pauser","inputs":[],"outputs":[{"name":"","type":"address","internalType":"contract IL1Pauser"}],"stateMutability":"view"},{"type":"function","name":"pendingUpdate","inputs":[],"outputs":[{"name":"","type":"tuple","internalType":"struct OracleRecord","components":[{"name":"updateStartBlock","type":"uint64","internalType":"uint64"},{"name":"updateEndBlock","type":"uint64","internalType":"uint64"},{"name":"currentNumValidatorsNotWithdrawable","type":"uint64","internalType":"uint64"},{"name":"cumulativeNumValidatorsWithdrawable","type":"uint64","internalType":"uint64"},{"name":"windowWithdrawnPrincipalAmount","type":"uint128","internalType":"uint128"},{"name":"windowWithdrawnRewardAmount","type":"uint128","internalType":"uint128"},{"name":"currentTotalValidatorBalance","type":"uint128","internalType":"uint128"},{"name":"cumulativeProcessedDepositAmount","type":"uint128","internalType":"uint128"}]}],"stateMutability":"view"},{"type":"function","name":"receiveRecord","inputs":[{"name":"newRecord","type":"tuple","internalType":"struct OracleRecord","components":[{"name":"updateStartBlock","type":"uint64","internalType":"uint64"},{"name":"updateEndBlock","type":"uint64","internalType":"uint64"},{"name":"currentNumValidatorsNotWithdrawable","type":"uint64","internalType":"uint64"},{"name":"cumulativeNumValidatorsWithdrawable","type":"uint64","internalType":"uint64"},{"name":"windowWithdrawnPrincipalAmount","type":"uint128","internalType":"uint128"},{"name":"windowWithdrawnRewardAmount","type":"uint128","internalType":"uint128"},{"name":"currentTotalValidatorBalance","type":"uint128","internalType":"uint128"},{"name":"cumulativeProcessedDepositAmount","type":"uint128","internalType":"uint128"}]}],"outputs":[],"stateMutability":"nonpayable"},{"type":"function","name":"recordAt","inputs":[{"name":"idx","type":"uint256","internalType":"uint256"}],"outputs":[{"name":"","type":"tuple","internalType":"struct OracleRecord","components":[{"name":"updateStartBlock","type":"uint64","internalType":"uint64"},{"name":"updateEndBlock","type":"uint64","internalType":"uint64"},{"name":"currentNumValidatorsNotWithdrawable","type":"uint64","internalType":"uint64"},{"name":"cumulativeNumValidatorsWithdrawable","type":"uint64","internalType":"uint64"},{"name":"windowWithdrawnPrincipalAmount","type":"uint128","internalType":"uint128"},{"name":"windowWithdrawnRewardAmount","type":"uint128","internalType":"uint128"},{"name":"currentTotalValidatorBalance","type":"uint128","internalType":"uint128"},{"name":"cumulativeProcessedDepositAmount","type":"uint128","internalType":"uint128"}]}],"stateMutability":"view"},{"type":"function","name":"rejectPendingUpdate","inputs":[],"outputs":[],"stateMutability":"nonpayable"},{"type":"function","name":"renounceRole","inputs":[{"name":"role","type":"bytes32","internalType":"bytes32"},{"name":"callerConfirmation","type":"address","internalType":"address"}],"outputs":[],"stateMutability":"nonpayable"},{"type":"function","name":"revokeRole","inputs":[{"name":"role","type":"bytes32","internalType":"bytes32"},{"name":"account","type":"address","internalType":"address"}],"outputs":[],"stateMutability":"nonpayable"},{"type":"function","name":"sanityCheckUpdate","inputs":[{"name":"prevRecord","type":"tuple","internalType":"struct OracleRecord","components":[{"name":"updateStartBlock","type":"uint64","internalType":"uint64"},{"name":"updateEndBlock","type":"uint64","internalType":"uint64"},{"name":"currentNumValidatorsNotWithdrawable","type":"uint64","internalType":"uint64"},{"name":"cumulativeNumValidatorsWithdrawable","type":"uint64","internalType":"uint64"},{"name":"windowWithdrawnPrincipalAmount","type":"uint128","internalType":"uint128"},{"name":"windowWithdrawnRewardAmount","type":"uint128","internalType":"uint128"},{"name":"currentTotalValidatorBalance","type":"uint128","internalType":"uint128"},{"name":"cumulativeProcessedDepositAmount","type":"uint128","internalType":"uint128"}]},{"name":"newRecord","type":"tuple","internalType":"struct OracleRecord","components":[{"name":"updateStartBlock","type":"uint64","internalType":"uint64"},{"name":"updateEndBlock","type":"uint64","internalType":"uint64"},{"name":"currentNumValidatorsNotWithdrawable","type":"uint64","internalType":"uint64"},{"name":"cumulativeNumValidatorsWithdrawable","type":"uint64","internalType":"uint64"},{"name":"windowWithdrawnPrincipalAmount","type":"uint128","internalType":"uint128"},{"name":"windowWithdrawnRewardAmount","type":"uint128","internalType":"uint128"},{"name":"currentTotalValidatorBalance","type":"uint128","internalType":"uint128"},{"name":"cumulativeProcessedDepositAmount","type":"uint128","internalType":"uint128"}]}],"outputs":[{"name":"","type":"string","internalType":"string"},{"name":"","type":"uint256","internalType":"uint256"},{"name":"","type":"uint256","internalType":"uint256"}],"stateMutability":"view"},{"type":"function","name":"setFinalizationBlockNumberDelta","inputs":[{"name":"finalizationBlockNumberDelta_","type":"uint256","internalType":"uint256"}],"outputs":[],"stateMutability":"nonpayable"},{"type":"function","name":"setMaxConsensusLayerGainPerBlockPPT","inputs":[{"name":"maxConsensusLayerGainPerBlockPPT_","type":"uint40","internalType":"uint40"}],"outputs":[],"stateMutability":"nonpayable"},{"type":"function","name":"setMaxConsensusLayerLossPPM","inputs":[{"name":"maxConsensusLayerLossPPM_","type":"uint24","internalType":"uint24"}],"outputs":[],"stateMutability":"nonpayable"},{"type":"function","name":"setMaxDepositPerValidator","inputs":[{"name":"maxDepositPerValidator_","type":"uint256","internalType":"uint256"}],"outputs":[],"stateMutability":"nonpayable"},{"type":"function","name":"setMinConsensusLayerGainPerBlockPPT","inputs":[{"name":"minConsensusLayerGainPerBlockPPT_","type":"uint40","internalType":"uint40"}],"outputs":[],"stateMutability":"nonpayable"},{"type":"function","name":"setMinDepositPerValidator","inputs":[{"name":"minDepositPerValidator_","type":"uint256","internalType":"uint256"}],"outputs":[],"stateMutability":"nonpayable"},{"type":"function","name":"setMinReportSizeBlocks","inputs":[{"name":"minReportSizeBlocks_","type":"uint16","internalType":"uint16"}],"outputs":[],"stateMutability":"nonpayable"},{"type":"function","name":"setOracleUpdater","inputs":[{"name":"newUpdater","type":"address","internalType":"address"}],"outputs":[],"stateMutability":"nonpayable"},{"type":"function","name":"staking","inputs":[],"outputs":[{"name":"","type":"address","internalType":"contract IStakingManagerInitiationRead"}],"stateMutability":"view"},{"type":"function","name":"supportsInterface","inputs":[{"name":"interfaceId","type":"bytes4","internalType":"bytes4"}],"outputs":[{"name":"","type":"bool","internalType":"bool"}],"stateMutability":"view"},{"type":"function","name":"validateUpdate","inputs":[{"name":"prevRecordIndex","type":"uint256","internalType":"uint256"},{"name":"newRecord","type":"tuple","internalType":"struct OracleRecord","components":[{"name":"updateStartBlock","type":"uint64","internalType":"uint64"},{"name":"updateEndBlock","type":"uint64","internalType":"uint64"},{"name":"currentNumValidatorsNotWithdrawable","type":"uint64","internalType":"uint64"},{"name":"cumulativeNumValidatorsWithdrawable","type":"uint64","internalType":"uint64"},{"name":"windowWithdrawnPrincipalAmount","type":"uint128","internalType":"uint128"},{"name":"windowWithdrawnRewardAmount","type":"uint128","internalType":"uint128"},{"name":"currentTotalValidatorBalance","type":"uint128","internalType":"uint128"},{"name":"cumulativeProcessedDepositAmount","type":"uint128","internalType":"uint128"}]}],"outputs":[],"stateMutability":"view"},{"type":"event","name":"Initialized","inputs":[{"name":"version","type":"uint64","indexed":false,"internalType":"uint64"}],"anonymous":false},{"type":"event","name":"OraclePendingUpdateRejected","inputs":[{"name":"pendingUpdate","type":"tuple","indexed":false,"internalType":"struct OracleRecord","components":[{"name":"updateStartBlock","type":"uint64","internalType":"uint64"},{"name":"updateEndBlock","type":"uint64","internalType":"uint64"},{"name":"currentNumValidatorsNotWithdrawable","type":"uint64","internalType":"uint64"},{"name":"cumulativeNumValidatorsWithdrawable","type":"uint64","internalType":"uint64"},{"name":"windowWithdrawnPrincipalAmount","type":"uint128","internalType":"uint128"},{"name":"windowWithdrawnRewardAmount","type":"uint128","internalType":"uint128"},{"name":"currentTotalValidatorBalance","type":"uint128","internalType":"uint128"},{"name":"cumulativeProcessedDepositAmount","type":"uint128","internalType":"uint128"}]}],"anonymous":false},{"type":"event","name":"OracleRecordAdded","inputs":[{"name":"index","type":"uint256","indexed":true,"internalType":"uint256"},{"name":"record","type":"tuple","indexed":false,"internalType":"struct OracleRecord","components":[{"name":"updateStartBlock","type":"uint64","internalType":"uint64"},{"name":"updateEndBlock","type":"uint64","internalType":"uint64"},{"name":"currentNumValidatorsNotWithdrawable","type":"uint64","internalType":"uint64"},{"name":"cumulativeNumValidatorsWithdrawable","type":"uint64","internalType":"uint64"},{"name":"windowWithdrawnPrincipalAmount","type":"uint128","internalType":"uint128"},{"name":"windowWithdrawnRewardAmount","type":"uint128","internalType":"uint128"},{"name":"currentTotalValidatorBalance","type":"uint128","internalType":"uint128"},{"name":"cumulativeProcessedDepositAmount","type":"uint128","internalType":"uint128"}]}],"anonymous":false},{"type":"event","name":"OracleRecordFailedSanityCheck","inputs":[{"name":"reasonHash","type":"bytes32","indexed":true,"internalType":"bytes32"},{"name":"reason","type":"string","indexed":false,"internalType":"string"},{"name":"record","type":"tuple","indexed":false,"internalType":"struct OracleRecord","components":[{"name":"updateStartBlock","type":"uint64","internalType":"uint64"},{"name":"updateEndBlock","type":"uint64","internalType":"uint64"},{"name":"currentNumValidatorsNotWithdrawable","type":"uint64","internalType":"uint64"},{"name":"cumulativeNumValidatorsWithdrawable","type":"uint64","internalType":"uint64"},{"name":"windowWithdrawnPrincipalAmount","type":"uint128","internalType":"uint128"},{"name":"windowWithdrawnRewardAmount","type":"uint128","internalType":"uint128"},{"name":"currentTotalValidatorBalance","type":"uint128","internalType":"uint128"},{"name":"cumulativeProcessedDepositAmount","type":"uint128","internalType":"uint128"}]},{"name":"value","type":"uint256","indexed":false,"internalType":"uint256"},{"name":"bound","type":"uint256","indexed":false,"internalType":"uint256"}],"anonymous":false},{"type":"event","name":"OracleRecordModified","inputs":[{"name":"index","type":"uint256","indexed":true,"internalType":"uint256"},{"name":"record","type":"tuple","indexed":false,"internalType":"struct OracleRecord","components":[{"name":"updateStartBlock","type":"uint64","internalType":"uint64"},{"name":"updateEndBlock","type":"uint64","internalType":"uint64"},{"name":"currentNumValidatorsNotWithdrawable","type":"uint64","internalType":"uint64"},{"name":"cumulativeNumValidatorsWithdrawable","type":"uint64","internalType":"uint64"},{"name":"windowWithdrawnPrincipalAmount","type":"uint128","internalType":"uint128"},{"name":"windowWithdrawnRewardAmount","type":"uint128","internalType":"uint128"},{"name":"currentTotalValidatorBalance","type":"uint128","internalType":"uint128"},{"name":"cumulativeProcessedDepositAmount","type":"uint128","internalType":"uint128"}]}],"anonymous":false},{"type":"event","name":"ProtocolConfigChanged","inputs":[{"name":"setterSelector","type":"bytes4","indexed":true,"internalType":"bytes4"},{"name":"setterSignature","type":"string","indexed":false,"internalType":"string"},{"name":"value","type":"bytes","indexed":false,"internalType":"bytes"}],"anonymous":false},{"type":"event","name":"RoleAdminChanged","inputs":[{"name":"role","type":"bytes32","indexed":true,"internalType":"bytes32"},{"name":"previousAdminRole","type":"bytes32","indexed":true,"internalType":"bytes32"},{"name":"newAdminRole","type":"bytes32","indexed":true,"internalType":"bytes32"}],"anonymous":false},{"type":"event","name":"RoleGranted","inputs":[{"name":"role","type":"bytes32","indexed":true,"internalType":"bytes32"},{"name":"account","type":"address","indexed":true,"internalType":"address"},{"name":"sender","type":"address","indexed":true,"internalType":"address"}],"anonymous":false},{"type":"event","name":"RoleRevoked","inputs":[{"name":"role","type":"bytes32","indexed":true,"internalType":"bytes32"},{"name":"account","type":"address","indexed":true,"internalType":"address"},{"name":"sender","type":"address","indexed":true,"internalType":"address"}],"anonymous":false},{"type":"error","name":"AccessControlBadConfirmation","inputs":[]},{"type":"error","name":"AccessControlUnauthorizedAccount","inputs":[{"name":"account","type":"address","internalType":"address"},{"name":"neededRole","type":"bytes32","internalType":"bytes32"}]},{"type":"error","name":"CannotModifyInitialRecord","inputs":[]},{"type":"error","name":"CannotUpdateWhileUpdatePending","inputs":[]},{"type":"error","name":"InvalidConfiguration","inputs":[]},{"type":"error","name":"InvalidInitialization","inputs":[]},{"type":"error","name":"InvalidRecordModification","inputs":[]},{"type":"error","name":"InvalidUpdateEndBeforeStartBlock","inputs":[{"name":"end","type":"uint256","internalType":"uint256"},{"name":"start","type":"uint256","internalType":"uint256"}]},{"type":"error","name":"InvalidUpdateMoreDepositsProcessedThanSent","inputs":[{"name":"processed","type":"uint256","internalType":"uint256"},{"name":"sent","type":"uint256","internalType":"uint256"}]},{"type":"error","name":"InvalidUpdateMoreValidatorsThanInitiated","inputs":[{"name":"numValidatorsOnRecord","type":"uint256","internalType":"uint256"},{"name":"numInitiatedValidators","type":"uint256","internalType":"uint256"}]},{"type":"error","name":"InvalidUpdateStartBlock","inputs":[{"name":"wantUpdateStartBlock","type":"uint256","internalType":"uint256"},{"name":"gotUpdateStartBlock","type":"uint256","internalType":"uint256"}]},{"type":"error","name":"MathOverflowedMulDiv","inputs":[]},{"type":"error","name":"NoUpdatePending","inputs":[]},{"type":"error","name":"NotInitializing","inputs":[]},{"type":"error","name":"Paused","inputs":[]},{"type":"error","name":"RecordDoesNotExist","inputs":[{"name":"idx","type":"uint256","internalType":"uint256"}]},{"type":"error","name":"UnauthorizedOracleUpdater","inputs":[{"name":"sender","type":"address","internalType":"address"},{"name":"oracleUpdater","type":"address","internalType":"address"}]},{"type":"error","name":"UpdateEndBlockNumberNotFinal","inputs":[{"name":"updateFinalizingBlock","type":"uint256","internalType":"uint256"}]},{"type":"error","name":"ZeroAddress","inputs":[]}],"bytecode":{"object":"0x60806040523480156200001157600080fd5b506200001c62000022565b620000d6565b7ff0c57e16840df040f15088dc2f81fe391c3923bec73e23a9662efc9c229c6a00805468010000000000000000900460ff1615620000735760405163f92ee8a960e01b815260040160405180910390fd5b80546001600160401b0390811614620000d35780546001600160401b0319166001600160401b0390811782556040519081527fc7f505b2f371ae2175ee4913f4499e1f2633a7b5936321eed1cdaeb6115181d29060200160405180910390a15b50565b61355b80620000e66000396000f3fe608060405234801561001057600080fd5b50600436106102685760003560e01c806391d1485411610151578063c6b861b9116100c3578063e69e47df11610087578063e69e47df14610579578063f0402cbf1461058c578063f3a009a01461059f578063fb483fb1146105a7578063fb961583146105ba578063fdc482e8146105e157600080fd5b8063c6b861b91461051a578063ca15c8731461052d578063cec5afe714610540578063d547741f14610553578063e41beeda1461056657600080fd5b8063aa5180e811610115578063aa5180e8146104ac578063ac43459d146104b9578063b553cad7146104cc578063b5d1990d146104f4578063bf3b91ab146104fc578063bfc69e1c1461050557600080fd5b806391d148541461046d5780639f407aaa146104805780639fd0506d14610488578063a217fddf1461049b578063a78dce76146104a357600080fd5b8063491e0bd1116101ea57806367d5f337116101ae57806367d5f337146103e55780636e710e05146103f8578063771eb1041461041a578063805d64a01461042d5780638543d1a7146104405780639010d07c1461045a57600080fd5b8063491e0bd1146103875780634c62d42e146103905780634cf088d91461039857806357ab1703146103ab57806359d3005d146103be57600080fd5b806328e8f4001161023157806328e8f4001461030f5780632f2ff15d14610324578063303929171461033757806336568abe1461034a5780634253e0c01461035d57600080fd5b8062a4dcac1461026d57806301ffc9a71461028b57806315afe1f6146102ae578063245a7bfc146102d1578063248a9ca3146102fc575b600080fd5b6102756105f4565b604051610282919061272b565b60405180910390f35b61029e6102993660046127ca565b6106a0565b6040519015158152602001610282565b6102c36000805160206133de83398151915281565b604051908152602001610282565b603b546102e4906001600160a01b031681565b6040516001600160a01b039091168152602001610282565b6102c361030a3660046127f4565b6106cb565b61032261031d366004612826565b6106ed565b005b610322610332366004612869565b610afe565b610322610345366004612899565b610b20565b610322610358366004612869565b610bd3565b603e5461037390600160501b900462ffffff1681565b60405162ffffff9091168152602001610282565b6102c3603d5481565b610322610c06565b603a546102e4906001600160a01b031681565b6103226103b93660046127f4565b610c9a565b603e546103cf9064ffffffffff1681565b60405164ffffffffff9091168152602001610282565b6103226103f33660046128ce565b610d02565b61040b610406366004612aad565b610fa6565b60405161028293929190612b21565b610322610428366004612b46565b611498565b6038546102e4906001600160a01b031681565b603e546103cf9065010000000000900464ffffffffff1681565b6102e4610468366004612b6a565b611510565b61029e61047b366004612869565b61153f565b610322611577565b6039546102e4906001600160a01b031681565b6102c3600081565b6102c3603c5481565b60335461029e9060ff1681565b6103226104c7366004612b8c565b611656565b603e546104e190600160681b900461ffff1681565b60405161ffff9091168152602001610282565b6000546102c3565b6102c360375481565b6102c360008051602061350683398151915281565b610322610528366004612bb3565b6116f7565b6102c361053b3660046127f4565b61196c565b61032261054e366004612bd0565b611999565b610322610561366004612869565b611a44565b6103226105743660046127f4565b611a60565b610322610587366004612826565b611ae8565b61032261059a3660046127f4565b611dc3565b610275611e1f565b6102756105b53660046127f4565b611ee0565b6102c37ffdd95c635b6fde1e24676722ae45d4e9072f4947c3c68d69c7de01654c84050981565b6103226105ef366004612b8c565b611f95565b6105fc6126e7565b60335460ff1661061f5760405163e8907a5560e01b815260040160405180910390fd5b5060408051610100810182526034546001600160401b038082168352600160401b820481166020840152600160801b808304821694840194909452600160c01b9091041660608201526035546001600160801b03808216608084015290839004811660a083015260365480821660c08401529290920490911660e082015290565b60006001600160e01b03198216635a05180f60e01b14806106c557506106c582612046565b92915050565b60009081526000805160206134c6833981519152602052604090206001015490565b600080838154811061070157610701612bed565b6000918252602091829020600390910201915061072090830183612c03565b6001600160401b03166107396040840160208501612c03565b6001600160401b031611610795576107576040830160208401612c03565b6107646020840184612c03565b604051634ccf003d60e11b81526001600160401b039283166004820152911660248201526044015b60405180910390fd5b80546107b290600160401b90046001600160401b03166001612c36565b6001600160401b03166107c86020840184612c03565b6001600160401b03161461082c5780546107f390600160401b90046001600160401b03166001612c36565b6108006020840184612c03565b6040516356ae644360e01b81526001600160401b0392831660048201529116602482015260440161078c565b603a60009054906101000a90046001600160a01b03166001600160a01b03166360a0f6286040518163ffffffff1660e01b8152600401602060405180830381865afa15801561087f573d6000803e3d6000fd5b505050506040513d601f19601f820116820180604052508101906108a39190612c56565b6108b4610100840160e08501612c6f565b6001600160801b03161115610975576108d4610100830160e08401612c6f565b603a60009054906101000a90046001600160a01b03166001600160a01b03166360a0f6286040518163ffffffff1660e01b8152600401602060405180830381865afa158015610927573d6000803e3d6000fd5b505050506040513d601f19601f8201168201806040525081019061094b9190612c56565b604051638cf753bf60e01b81526001600160801b039092166004830152602482015260440161078c565b603a60009054906101000a90046001600160a01b03166001600160a01b031663bb635c656040518163ffffffff1660e01b8152600401602060405180830381865afa1580156109c8573d6000803e3d6000fd5b505050506040513d601f19601f820116820180604052508101906109ec9190612c56565b6109fc6080840160608501612c03565b6001600160401b0316610a156060850160408601612c03565b6001600160401b0316610a289190612c8c565b1115610af957610a3e6080830160608401612c03565b610a4e6060840160408501612c03565b610a589190612c36565b603a60009054906101000a90046001600160a01b03166001600160a01b031663bb635c656040518163ffffffff1660e01b8152600401602060405180830381865afa158015610aab573d6000803e3d6000fd5b505050506040513d601f19601f82011682018060405250810190610acf9190612c56565b604051635daed79d60e11b81526001600160401b039092166004830152602482015260440161078c565b505050565b610b07826106cb565b610b108161207b565b610b1a8383612085565b50505050565b600080516020613506833981519152610b388161207b565b62ffffff8216620f424080821115610b635760405163c52a9bd360e01b815260040160405180910390fd5b603e805462ffffff60501b1916600160501b62ffffff871690810291909117909155604080516020810192909252633039291760e01b916000805160206134e6833981519152910160408051601f1981840301815290829052610bc591612c9f565b60405180910390a250505050565b6001600160a01b0381163314610bfc5760405163334bd91960e11b815260040160405180910390fd5b610af982826120ca565b6000805160206133de833981519152610c1e8161207b565b60335460ff16610c415760405163e8907a5560e01b815260040160405180910390fd5b7f4b640a37d59363bc1349d416626728534e5c58049e5f64f50f1090cabf152ab16034604051610c719190612cf2565b60405180910390a1610c976000603481905560358190556036556033805460ff19169055565b50565b600080516020613506833981519152610cb28161207b565b603c82905560408051602081018490526357ab170360e01b916000805160206134e6833981519152910160408051601f1981840301815290829052610cf691612d61565b60405180910390a25050565b7ff0c57e16840df040f15088dc2f81fe391c3923bec73e23a9662efc9c229c6a008054600160401b810460ff1615906001600160401b0316600081158015610d475750825b90506000826001600160401b03166001148015610d635750303b155b905081158015610d71575080155b15610d8f5760405163f92ee8a960e01b815260040160405180910390fd5b845467ffffffffffffffff191660011785558315610db957845460ff60401b1916600160401b1785555b610dc1612106565b8551610dcf90600090612085565b50610dec6000805160206135068339815191528760200151612085565b50610e096000805160206133de8339815191528760600151612085565b506080860151603b80546001600160a01b03199081166001600160a01b039384161790915560408089015160388054841691851691909117905560a089015160398054841691851691909117905560c0890151603a805490931693169283179091556037819055603e80546801bc16d674ec800000603c819055603d556effffffffffffffffffffffffffffff19166d640003e8000002e72a000000076f179055805161010081018252600081528151635c8ac85960e11b81529151610f589391926020808501939263b91590b29260048181019392918290030181865afa158015610ef9573d6000803e3d6000fd5b505050506040513d601f19601f82011682018060405250810190610f1d9190612c56565b6001600160401b0316815260006020820181905260408201819052606082018190526080820181905260a0820181905260c090910152612110565b8315610f9e57845460ff60401b19168555604051600181527fc7f505b2f371ae2175ee4913f4499e1f2633a7b5936321eed1cdaeb6115181d29060200160405180910390a15b505050505050565b606060008080610fb96020860186612c03565b610fc96040870160208801612c03565b610fd39190612db3565b610fde906001612c36565b603e54909150600160681b900461ffff166001600160401b03821610156110465780603e600d9054906101000a900461ffff166040518060600160405280602181526020016133876021913995506001600160401b03909116935061ffff1691506114919050565b85606001516001600160401b03168560600160208101906110679190612c03565b6001600160401b031610156110bd576110866080860160608701612c03565b86606001516040518060600160405280603681526020016133a86036913995506001600160401b0391821694501691506114919050565b6000866060015187604001516110d39190612c36565b6001600160401b0316905060006110f06080880160608901612c03565b6111006060890160408a01612c03565b61110a9190612c36565b6001600160401b03169050818110156111485780826040518060600160405280602481526020016134a2602491399190955095509550505050611491565b50508560e001516001600160801b03168560e001602081019061116b9190612c6f565b6001600160801b031610156111c25761118b610100860160e08701612c6f565b8660e001516040518060600160405280602281526020016134546022913995506001600160801b0391821694501691506114919050565b60008660e001518660e00160208101906111dc9190612c6f565b6111e69190612dd3565b6001600160801b031690506000876060015188604001518860600160208101906112109190612c03565b61122060608b0160408c01612c03565b61122a9190612c36565b6112349190612db3565b61123e9190612db3565b6001600160401b03169050603c54816112579190612df3565b8210156112965781603c548261126d9190612df3565b6040518060600160405280602c8152602001613476602c91399190955095509550505050611491565b603d546112a39082612df3565b8211156112e25781603d54826112b99190612df3565b6040518060600160405280602c815260200161333b602c91399190955095509550505050611491565b505060008660e001518660e00160208101906112fe9190612c6f565b6113089190612dd3565b8760c001516113179190612e0a565b6001600160801b03169050600061133460c0880160a08901612c6f565b61134460a0890160808a01612c6f565b61135460e08a0160c08b01612c6f565b61135e9190612e0a565b6113689190612e0a565b603e546001600160801b039190911691506000906113a79061139290869064ffffffffff16612e2a565b6001600160401b03168464e8d4a510006122d3565b603e546113c490600160501b900462ffffff1685620f42406122d3565b6113ce9085612e55565b6113d89190612c8c565b90508082101561140e57818160405180606001604052806031815260200161342360319139919096509650965050505050611491565b50603e546000906114349061139290869065010000000000900464ffffffffff16612e2a565b61143e9084612c8c565b9050808211156114745781816040518060600160405280602581526020016133fe60259139919096509650965050505050611491565b505060408051602081019091526000808252909550935083925050505b9250925092565b6000805160206135068339815191526114b08161207b565b603e805461ffff60681b1916600160681b61ffff851690810291909117909155604080516020810192909252631dc7ac4160e21b916000805160206134e6833981519152910160408051601f1981840301815290829052610cf691612e68565b60008281526000805160206133678339815191526020819052604082206115379084612397565b949350505050565b60009182526000805160206134c6833981519152602090815260408084206001600160a01b0393909316845291905290205460ff1690565b6000805160206133de83398151915261158f8161207b565b60335460ff166115b25760405163e8907a5560e01b815260040160405180910390fd5b60408051610100810182526034546001600160401b038082168352600160401b820481166020840152600160801b808304821694840194909452600160c01b9091041660608201526035546001600160801b03808216608084015290839004811660a083015260365480821660c08401529290920490911660e082015261163890612110565b610c976000603481905560358190556036556033805460ff19169055565b60008051602061350683398151915261166e8161207b565b64ffffffffff821664e8d4a510008082111561169d5760405163c52a9bd360e01b815260040160405180910390fd5b603e805464ffffffffff191664ffffffffff861690811790915560408051602081019290925263ac43459d60e01b916000805160206134e6833981519152910160408051601f1981840301815290829052610bc591612eaf565b603960009054906101000a90046001600160a01b03166001600160a01b031663b4a550376040518163ffffffff1660e01b8152600401602060405180830381865afa15801561174a573d6000803e3d6000fd5b505050506040513d601f19601f8201168201806040525081019061176e9190612f0a565b1561178c576040516313d0ff5960e31b815260040160405180910390fd5b6038546001600160a01b031633146117cc57603854604051633096000d60e11b81523360048201526001600160a01b03909116602482015260440161078c565b60335460ff16156117f05760405163452d764960e01b815260040160405180910390fd5b6000546118099061180390600190612e55565b826106ed565b60375460009061181f6040840160208501612c03565b6001600160401b03166118329190612c8c565b905080431015611858576040516303f868a560e31b81526004810182905260240161078c565b600080600061186e611868611e1f565b86610fa6565b92509250925060008351111561194e5784603461188b8282612f46565b50506033805460ff19166001179055825160208401206040517fc51d8bb32a3937963ee762598769c0e402bdbed204707576884f84040cf542cf906118d790869089908790879061315e565b60405180910390a2603960009054906101000a90046001600160a01b03166001600160a01b031663595c6a676040518163ffffffff1660e01b8152600401600060405180830381600087803b15801561192f57600080fd5b505af1158015611943573d6000803e3d6000fd5b505050505050505050565b61196561196036879003870187613196565b612110565b5050505050565b6000818152600080516020613367833981519152602081905260408220611992906123a3565b9392505050565b6000805160206135068339815191526119b18161207b565b816001600160a01b0381166119d95760405163d92e233d60e01b815260040160405180910390fd5b603880546001600160a01b0319166001600160a01b03851690811790915560408051602081019290925263cec5afe760e01b916000805160206134e6833981519152910160408051601f1981840301815290829052611a37916131b3565b60405180910390a2505050565b611a4d826106cb565b611a568161207b565b610b1a83836120ca565b600080516020613506833981519152611a788161207b565b811580611a86575061080082115b15611aa45760405163c52a9bd360e01b815260040160405180910390fd5b6037829055604080516020810184905263720df76d60e11b916000805160206134e6833981519152910160408051601f1981840301815290829052610cf6916131fa565b7ffdd95c635b6fde1e24676722ae45d4e9072f4947c3c68d69c7de01654c840509611b128161207b565b82600003611b335760405163cab1c3df60e01b815260040160405180910390fd5b6000548310611b585760405163a2720e8360e01b81526004810184905260240161078c565b6000808481548110611b6c57611b6c612bed565b60009182526020918290206003909102019150611b8b90840184612c03565b81546001600160401b039081169116141580611bcb5750611bb26040840160208501612c03565b8154600160401b90046001600160401b03908116911614155b15611be9576040516330af5f6160e01b815260040160405180910390fd5b611bfd611bf7600186612e55565b846106ed565b60018101546000908190600160801b90046001600160801b0316611c2760c0870160a08801612c6f565b6001600160801b03161115611c71576001830154600160801b90046001600160801b0316611c5b60c0870160a08801612c6f565b611c659190612dd3565b6001600160801b031691505b60018301546001600160801b0316611c8f60a0870160808801612c6f565b6001600160801b03161115611cd25760018301546001600160801b0316611cbc60a0870160808801612c6f565b611cc69190612dd3565b6001600160801b031690505b8460008781548110611ce657611ce6612bed565b90600052602060002090600302018181611d009190612f46565b905050857fbf4fd4e67b3409061e5be46d3e4b2b7c8edfad56ccfc8131e0cc7ffd79e104a586604051611d339190613252565b60405180910390a26000821180611d4a5750600081115b15610f9e57603b54604051638846405d60e01b81526004810184905260248101839052600060448201526001600160a01b0390911690638846405d90606401600060405180830381600087803b158015611da357600080fd5b505af1158015611db7573d6000803e3d6000fd5b50505050505050505050565b600080516020613506833981519152611ddb8161207b565b603d829055604080516020810184905263f0402cbf60e01b916000805160206134e6833981519152910160408051601f1981840301815290829052610cf691613261565b611e276126e7565b60008054611e3790600190612e55565b81548110611e4757611e47612bed565b60009182526020918290206040805161010081018252600390930290910180546001600160401b038082168552600160401b8204811695850195909552600160801b808204861693850193909352600160c01b9004909316606083015260018301546001600160801b03808216608085015290829004811660a084015260029093015480841660c08401520490911660e0820152919050565b611ee86126e7565b60008281548110611efb57611efb612bed565b60009182526020918290206040805161010081018252600390930290910180546001600160401b038082168552600160401b8204811695850195909552600160801b808204861693850193909352600160c01b9004909316606083015260018301546001600160801b03808216608085015290829004811660a084015260029093015480841660c08401520490911660e082015292915050565b600080516020613506833981519152611fad8161207b565b64ffffffffff821664e8d4a5100080821115611fdc5760405163c52a9bd360e01b815260040160405180910390fd5b603e805469ffffffffff000000000019166501000000000064ffffffffff871690810291909117909155604080516020810192909252631fb8905d60e31b916000805160206134e6833981519152910160408051601f1981840301815290829052610bc5916132b3565b60006001600160e01b03198216637965db0b60e01b14806106c557506301ffc9a760e01b6001600160e01b03198316146106c5565b610c9781336123ad565b6000600080516020613367833981519152816120a185856123ea565b905080156115375760008581526020839052604090206120c19085612496565b50949350505050565b6000600080516020613367833981519152816120e685856124ab565b905080156115375760008581526020839052604090206120c19085612527565b61210e61253c565b565b6000546040517f3c2dada747e62514e16b7263ff08ee5566260a1a36eb50e2752f577f8f29974f9061214390849061272b565b60405180910390a2600080546001808201835591805282517f290decd9548b62a8d60345a988386fc84ba6bc95484008f6362f93160ef3e56360039092029182018054602086015160408088015160608901516001600160401b039687166001600160801b031990951694909417600160401b93871693909302929092176001600160801b03908116600160801b93871684026001600160c01b031617600160c01b969094169590950292909217909255608086015160a087015190841690841680840282177f290decd9548b62a8d60345a988386fc84ba6bc95484008f6362f93160ef3e56487015560c088015160e08901519086169516909302939093177f290decd9548b62a8d60345a988386fc84ba6bc95484008f6362f93160ef3e56590940193909355603b549251638846405d60e01b81526004810191909152602481019190915260448101929092526001600160a01b031690638846405d90606401600060405180830381600087803b1580156122bf57600080fd5b505af1158015611965573d6000803e3d6000fd5b600083830281600019858709828110838203039150508060000361230a578382816123005761230061330e565b0492505050611992565b80841161232a5760405163227bc15360e01b815260040160405180910390fd5b6000848688096000868103871696879004966002600389028118808a02820302808a02820302808a02820302808a02820302808a02820302808a02909103029181900381900460010186841190950394909402919094039290920491909117919091029150509392505050565b60006119928383612585565b60006106c5825490565b6123b7828261153f565b6123e65760405163e2517d3f60e01b81526001600160a01b03821660048201526024810183905260440161078c565b5050565b60006000805160206134c6833981519152612405848461153f565b612485576000848152602082815260408083206001600160a01b03871684529091529020805460ff1916600117905561243b3390565b6001600160a01b0316836001600160a01b0316857f2f8788117e7eff1d82e926ec794901d17c78024a50270940304540a733656f0d60405160405180910390a460019150506106c5565b60009150506106c5565b5092915050565b6000611992836001600160a01b0384166125af565b60006000805160206134c68339815191526124c6848461153f565b15612485576000848152602082815260408083206001600160a01b0387168085529252808320805460ff1916905551339287917ff6391f5c32d9c69d2a47ea670b442974b53935d1edc7fd64eb21e047a839171b9190a460019150506106c5565b6000611992836001600160a01b0384166125fe565b7ff0c57e16840df040f15088dc2f81fe391c3923bec73e23a9662efc9c229c6a0054600160401b900460ff1661210e57604051631afcd79f60e31b815260040160405180910390fd5b600082600001828154811061259c5761259c612bed565b9060005260206000200154905092915050565b60008181526001830160205260408120546125f6575081546001818101845560008481526020808220909301849055845484825282860190935260409020919091556106c5565b5060006106c5565b60008181526001830160205260408120548015612485576000612622600183612e55565b855490915060009061263690600190612e55565b905080821461269b57600086600001828154811061265657612656612bed565b906000526020600020015490508087600001848154811061267957612679612bed565b6000918252602080832090910192909255918252600188019052604090208390555b85548690806126ac576126ac613324565b6001900381819060005260206000200160009055905585600101600086815260200190815260200160002060009055600193505050506106c5565b6040805161010081018252600080825260208201819052918101829052606081018290526080810182905260a0810182905260c0810182905260e081019190915290565b6000610100820190506001600160401b03808451168352806020850151166020840152806040850151166040840152806060850151166060840152506001600160801b03608084015116608083015260a083015161279460a08401826001600160801b03169052565b5060c08301516127af60c08401826001600160801b03169052565b5060e083015161248f60e08401826001600160801b03169052565b6000602082840312156127dc57600080fd5b81356001600160e01b03198116811461199257600080fd5b60006020828403121561280657600080fd5b5035919050565b6000610100828403121561282057600080fd5b50919050565b600080610120838503121561283a57600080fd5b8235915061284b846020850161280d565b90509250929050565b6001600160a01b0381168114610c9757600080fd5b6000806040838503121561287c57600080fd5b82359150602083013561288e81612854565b809150509250929050565b6000602082840312156128ab57600080fd5b813562ffffff8116811461199257600080fd5b80356128c981612854565b919050565b600060e082840312156128e057600080fd5b60405160e081018181106001600160401b038211171561291057634e487b7160e01b600052604160045260246000fd5b604052823561291e81612854565b8152602083013561292e81612854565b6020820152604083013561294181612854565b6040820152606083013561295481612854565b6060820152612965608084016128be565b608082015261297660a084016128be565b60a082015261298760c084016128be565b60c08201529392505050565b6001600160401b0381168114610c9757600080fd5b80356128c981612993565b6001600160801b0381168114610c9757600080fd5b80356128c9816129b3565b60006101008083850312156129e757600080fd5b604051908101906001600160401b0382118183101715612a1757634e487b7160e01b600052604160045260246000fd5b8160405280925083359150612a2b82612993565b818152612a3a602085016129a8565b6020820152612a4b604085016129a8565b6040820152612a5c606085016129a8565b6060820152612a6d608085016129c8565b6080820152612a7e60a085016129c8565b60a0820152612a8f60c085016129c8565b60c0820152612aa060e085016129c8565b60e0820152505092915050565b6000806102008385031215612ac157600080fd5b612acb84846129d3565b915061284b84610100850161280d565b6000815180845260005b81811015612b0157602081850181015186830182015201612ae5565b506000602082860101526020601f19601f83011685010191505092915050565b606081526000612b346060830186612adb565b60208301949094525060400152919050565b600060208284031215612b5857600080fd5b813561ffff8116811461199257600080fd5b60008060408385031215612b7d57600080fd5b50508035926020909101359150565b600060208284031215612b9e57600080fd5b813564ffffffffff8116811461199257600080fd5b60006101008284031215612bc657600080fd5b611992838361280d565b600060208284031215612be257600080fd5b813561199281612854565b634e487b7160e01b600052603260045260246000fd5b600060208284031215612c1557600080fd5b813561199281612993565b634e487b7160e01b600052601160045260246000fd5b6001600160401b0381811683821601908082111561248f5761248f612c20565b600060208284031215612c6857600080fd5b5051919050565b600060208284031215612c8157600080fd5b8135611992816129b3565b808201808211156106c5576106c5612c20565b60408152602360408201527f7365744d6178436f6e73656e7375734c617965724c6f737350504d2875696e7460608201526232342960e81b608082015260a06020820152600061199260a0830184612adb565b81546001600160401b038082168352604082811c82166020850152608083811c9092169084015260c091821c606084015260018401546001600160801b038082168386015290821c60a085015260028501549081169284019290925281901c60e083015261010082019061248f565b60408152602260408201527f7365744d696e4465706f73697450657256616c696461746f722875696e743235606082015261362960f01b608082015260a06020820152600061199260a0830184612adb565b6001600160401b0382811682821603908082111561248f5761248f612c20565b6001600160801b0382811682821603908082111561248f5761248f612c20565b80820281158282048414176106c5576106c5612c20565b6001600160801b0381811683821601908082111561248f5761248f612c20565b6001600160401b03818116838216028082169190828114612e4d57612e4d612c20565b505092915050565b818103818111156106c5576106c5612c20565b60408152601e60408201527f7365744d696e5265706f727453697a65426c6f636b732875696e74313629000060608201526080602082015260006119926080830184612adb565b60408152602b60408201527f7365744d696e436f6e73656e7375734c617965724761696e506572426c6f636b60608201526a5050542875696e7434302960a81b608082015260a06020820152600061199260a0830184612adb565b600060208284031215612f1c57600080fd5b8151801515811461199257600080fd5b600081356106c581612993565b600081356106c5816129b3565b8135612f5181612993565b6001600160401b03811690508154816001600160401b031982161783556020840135612f7c81612993565b6fffffffffffffffff00000000000000008160401b16836001600160801b0319841617178455505050612fe0612fb460408401612f2c565b82805467ffffffffffffffff60801b191660809290921b67ffffffffffffffff60801b16919091179055565b613013612fef60608401612f2c565b8280546001600160c01b031660c09290921b6001600160c01b031916919091179055565b6001810161304361302660808501612f39565b82546001600160801b0319166001600160801b0391909116178255565b61307261305260a08501612f39565b82546001600160801b031660809190911b6001600160801b031916178255565b506002810161308661302660c08501612f39565b610af961305260e08501612f39565b80356130a081612993565b6001600160401b0390811683526020820135906130bc82612993565b90811660208401526040820135906130d382612993565b90811660408401526060820135906130ea82612993565b1660608301526130fc608082016129c8565b6001600160801b0316608083015261311660a082016129c8565b6001600160801b031660a083015261313060c082016129c8565b6001600160801b031660c083015261314a60e082016129c8565b6001600160801b03811660e0840152505050565b600061016080835261317281840188612adb565b9150506131826020830186613095565b610120820193909352610140015292915050565b600061010082840312156131a957600080fd5b61199283836129d3565b60408152601960408201527f7365744f7261636c65557064617465722861646472657373290000000000000060608201526080602082015260006119926080830184612adb565b60408152602860408201527f73657446696e616c697a6174696f6e426c6f636b4e756d62657244656c74612860608201526775696e743235362960c01b608082015260a06020820152600061199260a0830184612adb565b61010081016106c58284613095565b60408152602260408201527f7365744d61784465706f73697450657256616c696461746f722875696e743235606082015261362960f01b608082015260a06020820152600061199260a0830184612adb565b60408152602b60408201527f7365744d6178436f6e73656e7375734c617965724761696e506572426c6f636b60608201526a5050542875696e7434302960a81b608082015260a06020820152600061199260a0830184612adb565b634e487b7160e01b600052601260045260246000fd5b634e487b7160e01b600052603160045260246000fdfe4e6577206465706f736974732061626f7665206d6178206465706f736974207065722076616c696461746f72c1f6fe24621ce81ec5827caf0253cadb74709b061630e6b55e823717059320005265706f727420626c6f636b732062656c6f77206d696e696d756d20626f756e6443756d756c6174697665206e756d626572206f6620776974686472617761626c652076616c696461746f727320646563726561736564b8921042efede08ea4fb87c7cd34c42ab1e134df6d8ef481f71c91910346d835436f6e73656e737573206c61796572206368616e67652061626f7665206d6178206761696e436f6e73656e737573206c61796572206368616e67652062656c6f77206d696e206761696e206f72206d6178206c6f737350726f636573736564206465706f73697420616d6f756e74206465637265617365644e6577206465706f736974732062656c6f77206d696e206465706f736974207065722076616c696461746f72546f74616c206e756d626572206f662076616c696461746f72732064656372656173656402dd7bc7dec4dceedda775e58dd541e08a116c6c53815c0bd028192f7b62680001d854e8dde9402801a4c6f2840193465752abfad61e0bb7c4258d526ae42e74ced6982f480260bdd8ad5cb18ff2854f0306d78d904ad6cc107e8f3a0f526c18a2646970667358221220b6ec64173d372dec8851db2160191730633c5dbe8cda9427007d82e504b915b764736f6c63430008180033","linkReferences":{}},"methodIdentifiers":{"DEFAULT_ADMIN_ROLE()":"a217fddf","ORACLE_MANAGER_ROLE()":"bfc69e1c","ORACLE_MODIFIER_ROLE()":"fb961583","ORACLE_PENDING_UPDATE_RESOLVER_ROLE()":"15afe1f6","acceptPendingUpdate()":"9f407aaa","aggregator()":"245a7bfc","finalizationBlockNumberDelta()":"bf3b91ab","getRoleAdmin(bytes32)":"248a9ca3","getRoleMember(bytes32,uint256)":"9010d07c","getRoleMemberCount(bytes32)":"ca15c873","grantRole(bytes32,address)":"2f2ff15d","hasPendingUpdate()":"aa5180e8","hasRole(bytes32,address)":"91d14854","initialize((address,address,address,address,address,address,address))":"67d5f337","latestRecord()":"f3a009a0","maxConsensusLayerGainPerBlockPPT()":"8543d1a7","maxConsensusLayerLossPPM()":"4253e0c0","maxDepositPerValidator()":"491e0bd1","minConsensusLayerGainPerBlockPPT()":"59d3005d","minDepositPerValidator()":"a78dce76","minReportSizeBlocks()":"b553cad7","modifyExistingRecord(uint256,(uint64,uint64,uint64,uint64,uint128,uint128,uint128,uint128))":"e69e47df","numRecords()":"b5d1990d","oracleUpdater()":"805d64a0","pauser()":"9fd0506d","pendingUpdate()":"00a4dcac","receiveRecord((uint64,uint64,uint64,uint64,uint128,uint128,uint128,uint128))":"c6b861b9","recordAt(uint256)":"fb483fb1","rejectPendingUpdate()":"4c62d42e","renounceRole(bytes32,address)":"36568abe","revokeRole(bytes32,address)":"d547741f","sanityCheckUpdate((uint64,uint64,uint64,uint64,uint128,uint128,uint128,uint128),(uint64,uint64,uint64,uint64,uint128,uint128,uint128,uint128))":"6e710e05","setFinalizationBlockNumberDelta(uint256)":"e41beeda","setMaxConsensusLayerGainPerBlockPPT(uint40)":"fdc482e8","setMaxConsensusLayerLossPPM(uint24)":"30392917","setMaxDepositPerValidator(uint256)":"f0402cbf","setMinConsensusLayerGainPerBlockPPT(uint40)":"ac43459d","setMinDepositPerValidator(uint256)":"57ab1703","setMinReportSizeBlocks(uint16)":"771eb104","setOracleUpdater(address)":"cec5afe7","staking()":"4cf088d9","supportsInterface(bytes4)":"01ffc9a7","validateUpdate(uint256,(uint64,uint64,uint64,uint64,uint128,uint128,uint128,uint128))":"28e8f400"},"id":59}