{"abi":[{"type":"constructor","inputs":[],"stateMutability":"nonpayable"},{"type":"function","name":"DEFAULT_ADMIN_ROLE","inputs":[],"outputs":[{"name":"","type":"bytes32","internalType":"bytes32"}],"stateMutability":"view"},{"type":"function","name":"ORACLE_MANAGER_ROLE","inputs":[],"outputs":[{"name":"","type":"bytes32","internalType":"bytes32"}],"stateMutability":"view"},{"type":"function","name":"ORACLE_MODIFIER_ROLE","inputs":[],"outputs":[{"name":"","type":"bytes32","internalType":"bytes32"}],"stateMutability":"view"},{"type":"function","name":"ORACLE_PENDING_UPDATE_RESOLVER_ROLE","inputs":[],"outputs":[{"name":"","type":"bytes32","internalType":"bytes32"}],"stateMutability":"view"},{"type":"function","name":"acceptPendingUpdate","inputs":[{"name":"bridge","type":"address","internalType":"address"},{"name":"l2Strategy","type":"address","internalType":"address"},{"name":"sourceChainId","type":"uint256","internalType":"uint256"},{"name":"destChainId","type":"uint256","internalType":"uint256"}],"outputs":[],"stateMutability":"nonpayable"},{"type":"function","name":"aggregator","inputs":[],"outputs":[{"name":"","type":"address","internalType":"contract IReturnsAggregator"}],"stateMutability":"view"},{"type":"function","name":"finalizationBlockNumberDelta","inputs":[],"outputs":[{"name":"","type":"uint256","internalType":"uint256"}],"stateMutability":"view"},{"type":"function","name":"getRoleAdmin","inputs":[{"name":"role","type":"bytes32","internalType":"bytes32"}],"outputs":[{"name":"","type":"bytes32","internalType":"bytes32"}],"stateMutability":"view"},{"type":"function","name":"getRoleMember","inputs":[{"name":"role","type":"bytes32","internalType":"bytes32"},{"name":"index","type":"uint256","internalType":"uint256"}],"outputs":[{"name":"","type":"address","internalType":"address"}],"stateMutability":"view"},{"type":"function","name":"getRoleMemberCount","inputs":[{"name":"role","type":"bytes32","internalType":"bytes32"}],"outputs":[{"name":"","type":"uint256","internalType":"uint256"}],"stateMutability":"view"},{"type":"function","name":"grantRole","inputs":[{"name":"role","type":"bytes32","internalType":"bytes32"},{"name":"account","type":"address","internalType":"address"}],"outputs":[],"stateMutability":"nonpayable"},{"type":"function","name":"hasPendingUpdate","inputs":[],"outputs":[{"name":"","type":"bool","internalType":"bool"}],"stateMutability":"view"},{"type":"function","name":"hasRole","inputs":[{"name":"role","type":"bytes32","internalType":"bytes32"},{"name":"account","type":"address","internalType":"address"}],"outputs":[{"name":"","type":"bool","internalType":"bool"}],"stateMutability":"view"},{"type":"function","name":"initialize","inputs":[{"name":"init","type":"tuple","internalType":"struct OracleManager.Init","components":[{"name":"admin","type":"address","internalType":"address"},{"name":"manager","type":"address","internalType":"address"},{"name":"oracleUpdater","type":"address","internalType":"address"},{"name":"pendingResolver","type":"address","internalType":"address"},{"name":"aggregator","type":"address","internalType":"contract IReturnsAggregator"},{"name":"pauser","type":"address","internalType":"contract IL1Pauser"},{"name":"staking","type":"address","internalType":"contract IStakingManagerInitiationRead"}]}],"outputs":[],"stateMutability":"nonpayable"},{"type":"function","name":"latestRecord","inputs":[],"outputs":[{"name":"","type":"tuple","internalType":"struct OracleRecord","components":[{"name":"updateStartBlock","type":"uint64","internalType":"uint64"},{"name":"updateEndBlock","type":"uint64","internalType":"uint64"},{"name":"currentNumValidatorsNotWithdrawable","type":"uint64","internalType":"uint64"},{"name":"cumulativeNumValidatorsWithdrawable","type":"uint64","internalType":"uint64"},{"name":"windowWithdrawnPrincipalAmount","type":"uint128","internalType":"uint128"},{"name":"windowWithdrawnRewardAmount","type":"uint128","internalType":"uint128"},{"name":"currentTotalValidatorBalance","type":"uint128","internalType":"uint128"},{"name":"cumulativeProcessedDepositAmount","type":"uint128","internalType":"uint128"}]}],"stateMutability":"view"},{"type":"function","name":"maxConsensusLayerGainPerBlockPPT","inputs":[],"outputs":[{"name":"","type":"uint40","internalType":"uint40"}],"stateMutability":"view"},{"type":"function","name":"maxConsensusLayerLossPPM","inputs":[],"outputs":[{"name":"","type":"uint24","internalType":"uint24"}],"stateMutability":"view"},{"type":"function","name":"maxDepositPerValidator","inputs":[],"outputs":[{"name":"","type":"uint256","internalType":"uint256"}],"stateMutability":"view"},{"type":"function","name":"minConsensusLayerGainPerBlockPPT","inputs":[],"outputs":[{"name":"","type":"uint40","internalType":"uint40"}],"stateMutability":"view"},{"type":"function","name":"minDepositPerValidator","inputs":[],"outputs":[{"name":"","type":"uint256","internalType":"uint256"}],"stateMutability":"view"},{"type":"function","name":"minReportSizeBlocks","inputs":[],"outputs":[{"name":"","type":"uint16","internalType":"uint16"}],"stateMutability":"view"},{"type":"function","name":"modifyExistingRecord","inputs":[{"name":"idx","type":"uint256","internalType":"uint256"},{"name":"record","type":"tuple","internalType":"struct OracleRecord","components":[{"name":"updateStartBlock","type":"uint64","internalType":"uint64"},{"name":"updateEndBlock","type":"uint64","internalType":"uint64"},{"name":"currentNumValidatorsNotWithdrawable","type":"uint64","internalType":"uint64"},{"name":"cumulativeNumValidatorsWithdrawable","type":"uint64","internalType":"uint64"},{"name":"windowWithdrawnPrincipalAmount","type":"uint128","internalType":"uint128"},{"name":"windowWithdrawnRewardAmount","type":"uint128","internalType":"uint128"},{"name":"currentTotalValidatorBalance","type":"uint128","internalType":"uint128"},{"name":"cumulativeProcessedDepositAmount","type":"uint128","internalType":"uint128"}]},{"name":"bridge","type":"address","internalType":"address"},{"name":"l2Strategy","type":"address","internalType":"address"},{"name":"sourceChainId","type":"uint256","internalType":"uint256"},{"name":"destChainId","type":"uint256","internalType":"uint256"}],"outputs":[],"stateMutability":"nonpayable"},{"type":"function","name":"numRecords","inputs":[],"outputs":[{"name":"","type":"uint256","internalType":"uint256"}],"stateMutability":"view"},{"type":"function","name":"oracleUpdater","inputs":[],"outputs":[{"name":"","type":"address","internalType":"address"}],"stateMutability":"view"},{"type":"function","name":"pauser","inputs":[],"outputs":[{"name":"","type":"address","internalType":"contract IL1Pauser"}],"stateMutability":"view"},{"type":"function","name":"pendingUpdate","inputs":[],"outputs":[{"name":"","type":"tuple","internalType":"struct OracleRecord","components":[{"name":"updateStartBlock","type":"uint64","internalType":"uint64"},{"name":"updateEndBlock","type":"uint64","internalType":"uint64"},{"name":"currentNumValidatorsNotWithdrawable","type":"uint64","internalType":"uint64"},{"name":"cumulativeNumValidatorsWithdrawable","type":"uint64","internalType":"uint64"},{"name":"windowWithdrawnPrincipalAmount","type":"uint128","internalType":"uint128"},{"name":"windowWithdrawnRewardAmount","type":"uint128","internalType":"uint128"},{"name":"currentTotalValidatorBalance","type":"uint128","internalType":"uint128"},{"name":"cumulativeProcessedDepositAmount","type":"uint128","internalType":"uint128"}]}],"stateMutability":"view"},{"type":"function","name":"receiveRecord","inputs":[{"name":"newRecord","type":"tuple","internalType":"struct OracleRecord","components":[{"name":"updateStartBlock","type":"uint64","internalType":"uint64"},{"name":"updateEndBlock","type":"uint64","internalType":"uint64"},{"name":"currentNumValidatorsNotWithdrawable","type":"uint64","internalType":"uint64"},{"name":"cumulativeNumValidatorsWithdrawable","type":"uint64","internalType":"uint64"},{"name":"windowWithdrawnPrincipalAmount","type":"uint128","internalType":"uint128"},{"name":"windowWithdrawnRewardAmount","type":"uint128","internalType":"uint128"},{"name":"currentTotalValidatorBalance","type":"uint128","internalType":"uint128"},{"name":"cumulativeProcessedDepositAmount","type":"uint128","internalType":"uint128"}]},{"name":"bridge","type":"address","internalType":"address"},{"name":"l2Strategy","type":"address","internalType":"address"},{"name":"sourceChainId","type":"uint256","internalType":"uint256"},{"name":"destChainId","type":"uint256","internalType":"uint256"}],"outputs":[],"stateMutability":"nonpayable"},{"type":"function","name":"recordAt","inputs":[{"name":"idx","type":"uint256","internalType":"uint256"}],"outputs":[{"name":"","type":"tuple","internalType":"struct OracleRecord","components":[{"name":"updateStartBlock","type":"uint64","internalType":"uint64"},{"name":"updateEndBlock","type":"uint64","internalType":"uint64"},{"name":"currentNumValidatorsNotWithdrawable","type":"uint64","internalType":"uint64"},{"name":"cumulativeNumValidatorsWithdrawable","type":"uint64","internalType":"uint64"},{"name":"windowWithdrawnPrincipalAmount","type":"uint128","internalType":"uint128"},{"name":"windowWithdrawnRewardAmount","type":"uint128","internalType":"uint128"},{"name":"currentTotalValidatorBalance","type":"uint128","internalType":"uint128"},{"name":"cumulativeProcessedDepositAmount","type":"uint128","internalType":"uint128"}]}],"stateMutability":"view"},{"type":"function","name":"rejectPendingUpdate","inputs":[],"outputs":[],"stateMutability":"nonpayable"},{"type":"function","name":"renounceRole","inputs":[{"name":"role","type":"bytes32","internalType":"bytes32"},{"name":"callerConfirmation","type":"address","internalType":"address"}],"outputs":[],"stateMutability":"nonpayable"},{"type":"function","name":"revokeRole","inputs":[{"name":"role","type":"bytes32","internalType":"bytes32"},{"name":"account","type":"address","internalType":"address"}],"outputs":[],"stateMutability":"nonpayable"},{"type":"function","name":"sanityCheckUpdate","inputs":[{"name":"prevRecord","type":"tuple","internalType":"struct OracleRecord","components":[{"name":"updateStartBlock","type":"uint64","internalType":"uint64"},{"name":"updateEndBlock","type":"uint64","internalType":"uint64"},{"name":"currentNumValidatorsNotWithdrawable","type":"uint64","internalType":"uint64"},{"name":"cumulativeNumValidatorsWithdrawable","type":"uint64","internalType":"uint64"},{"name":"windowWithdrawnPrincipalAmount","type":"uint128","internalType":"uint128"},{"name":"windowWithdrawnRewardAmount","type":"uint128","internalType":"uint128"},{"name":"currentTotalValidatorBalance","type":"uint128","internalType":"uint128"},{"name":"cumulativeProcessedDepositAmount","type":"uint128","internalType":"uint128"}]},{"name":"newRecord","type":"tuple","internalType":"struct OracleRecord","components":[{"name":"updateStartBlock","type":"uint64","internalType":"uint64"},{"name":"updateEndBlock","type":"uint64","internalType":"uint64"},{"name":"currentNumValidatorsNotWithdrawable","type":"uint64","internalType":"uint64"},{"name":"cumulativeNumValidatorsWithdrawable","type":"uint64","internalType":"uint64"},{"name":"windowWithdrawnPrincipalAmount","type":"uint128","internalType":"uint128"},{"name":"windowWithdrawnRewardAmount","type":"uint128","internalType":"uint128"},{"name":"currentTotalValidatorBalance","type":"uint128","internalType":"uint128"},{"name":"cumulativeProcessedDepositAmount","type":"uint128","internalType":"uint128"}]}],"outputs":[{"name":"","type":"string","internalType":"string"},{"name":"","type":"uint256","internalType":"uint256"},{"name":"","type":"uint256","internalType":"uint256"}],"stateMutability":"view"},{"type":"function","name":"setFinalizationBlockNumberDelta","inputs":[{"name":"finalizationBlockNumberDelta_","type":"uint256","internalType":"uint256"}],"outputs":[],"stateMutability":"nonpayable"},{"type":"function","name":"setMaxConsensusLayerGainPerBlockPPT","inputs":[{"name":"maxConsensusLayerGainPerBlockPPT_","type":"uint40","internalType":"uint40"}],"outputs":[],"stateMutability":"nonpayable"},{"type":"function","name":"setMaxConsensusLayerLossPPM","inputs":[{"name":"maxConsensusLayerLossPPM_","type":"uint24","internalType":"uint24"}],"outputs":[],"stateMutability":"nonpayable"},{"type":"function","name":"setMaxDepositPerValidator","inputs":[{"name":"maxDepositPerValidator_","type":"uint256","internalType":"uint256"}],"outputs":[],"stateMutability":"nonpayable"},{"type":"function","name":"setMinConsensusLayerGainPerBlockPPT","inputs":[{"name":"minConsensusLayerGainPerBlockPPT_","type":"uint40","internalType":"uint40"}],"outputs":[],"stateMutability":"nonpayable"},{"type":"function","name":"setMinDepositPerValidator","inputs":[{"name":"minDepositPerValidator_","type":"uint256","internalType":"uint256"}],"outputs":[],"stateMutability":"nonpayable"},{"type":"function","name":"setMinReportSizeBlocks","inputs":[{"name":"minReportSizeBlocks_","type":"uint16","internalType":"uint16"}],"outputs":[],"stateMutability":"nonpayable"},{"type":"function","name":"setOracleUpdater","inputs":[{"name":"newUpdater","type":"address","internalType":"address"}],"outputs":[],"stateMutability":"nonpayable"},{"type":"function","name":"staking","inputs":[],"outputs":[{"name":"","type":"address","internalType":"contract IStakingManagerInitiationRead"}],"stateMutability":"view"},{"type":"function","name":"supportsInterface","inputs":[{"name":"interfaceId","type":"bytes4","internalType":"bytes4"}],"outputs":[{"name":"","type":"bool","internalType":"bool"}],"stateMutability":"view"},{"type":"function","name":"validateUpdate","inputs":[{"name":"prevRecordIndex","type":"uint256","internalType":"uint256"},{"name":"newRecord","type":"tuple","internalType":"struct OracleRecord","components":[{"name":"updateStartBlock","type":"uint64","internalType":"uint64"},{"name":"updateEndBlock","type":"uint64","internalType":"uint64"},{"name":"currentNumValidatorsNotWithdrawable","type":"uint64","internalType":"uint64"},{"name":"cumulativeNumValidatorsWithdrawable","type":"uint64","internalType":"uint64"},{"name":"windowWithdrawnPrincipalAmount","type":"uint128","internalType":"uint128"},{"name":"windowWithdrawnRewardAmount","type":"uint128","internalType":"uint128"},{"name":"currentTotalValidatorBalance","type":"uint128","internalType":"uint128"},{"name":"cumulativeProcessedDepositAmount","type":"uint128","internalType":"uint128"}]}],"outputs":[],"stateMutability":"view"},{"type":"event","name":"Initialized","inputs":[{"name":"version","type":"uint64","indexed":false,"internalType":"uint64"}],"anonymous":false},{"type":"event","name":"OraclePendingUpdateRejected","inputs":[{"name":"pendingUpdate","type":"tuple","indexed":false,"internalType":"struct OracleRecord","components":[{"name":"updateStartBlock","type":"uint64","internalType":"uint64"},{"name":"updateEndBlock","type":"uint64","internalType":"uint64"},{"name":"currentNumValidatorsNotWithdrawable","type":"uint64","internalType":"uint64"},{"name":"cumulativeNumValidatorsWithdrawable","type":"uint64","internalType":"uint64"},{"name":"windowWithdrawnPrincipalAmount","type":"uint128","internalType":"uint128"},{"name":"windowWithdrawnRewardAmount","type":"uint128","internalType":"uint128"},{"name":"currentTotalValidatorBalance","type":"uint128","internalType":"uint128"},{"name":"cumulativeProcessedDepositAmount","type":"uint128","internalType":"uint128"}]}],"anonymous":false},{"type":"event","name":"OracleRecordAdded","inputs":[{"name":"index","type":"uint256","indexed":true,"internalType":"uint256"},{"name":"record","type":"tuple","indexed":false,"internalType":"struct OracleRecord","components":[{"name":"updateStartBlock","type":"uint64","internalType":"uint64"},{"name":"updateEndBlock","type":"uint64","internalType":"uint64"},{"name":"currentNumValidatorsNotWithdrawable","type":"uint64","internalType":"uint64"},{"name":"cumulativeNumValidatorsWithdrawable","type":"uint64","internalType":"uint64"},{"name":"windowWithdrawnPrincipalAmount","type":"uint128","internalType":"uint128"},{"name":"windowWithdrawnRewardAmount","type":"uint128","internalType":"uint128"},{"name":"currentTotalValidatorBalance","type":"uint128","internalType":"uint128"},{"name":"cumulativeProcessedDepositAmount","type":"uint128","internalType":"uint128"}]}],"anonymous":false},{"type":"event","name":"OracleRecordFailedSanityCheck","inputs":[{"name":"reasonHash","type":"bytes32","indexed":true,"internalType":"bytes32"},{"name":"reason","type":"string","indexed":false,"internalType":"string"},{"name":"record","type":"tuple","indexed":false,"internalType":"struct OracleRecord","components":[{"name":"updateStartBlock","type":"uint64","internalType":"uint64"},{"name":"updateEndBlock","type":"uint64","internalType":"uint64"},{"name":"currentNumValidatorsNotWithdrawable","type":"uint64","internalType":"uint64"},{"name":"cumulativeNumValidatorsWithdrawable","type":"uint64","internalType":"uint64"},{"name":"windowWithdrawnPrincipalAmount","type":"uint128","internalType":"uint128"},{"name":"windowWithdrawnRewardAmount","type":"uint128","internalType":"uint128"},{"name":"currentTotalValidatorBalance","type":"uint128","internalType":"uint128"},{"name":"cumulativeProcessedDepositAmount","type":"uint128","internalType":"uint128"}]},{"name":"value","type":"uint256","indexed":false,"internalType":"uint256"},{"name":"bound","type":"uint256","indexed":false,"internalType":"uint256"}],"anonymous":false},{"type":"event","name":"OracleRecordModified","inputs":[{"name":"index","type":"uint256","indexed":true,"internalType":"uint256"},{"name":"record","type":"tuple","indexed":false,"internalType":"struct OracleRecord","components":[{"name":"updateStartBlock","type":"uint64","internalType":"uint64"},{"name":"updateEndBlock","type":"uint64","internalType":"uint64"},{"name":"currentNumValidatorsNotWithdrawable","type":"uint64","internalType":"uint64"},{"name":"cumulativeNumValidatorsWithdrawable","type":"uint64","internalType":"uint64"},{"name":"windowWithdrawnPrincipalAmount","type":"uint128","internalType":"uint128"},{"name":"windowWithdrawnRewardAmount","type":"uint128","internalType":"uint128"},{"name":"currentTotalValidatorBalance","type":"uint128","internalType":"uint128"},{"name":"cumulativeProcessedDepositAmount","type":"uint128","internalType":"uint128"}]}],"anonymous":false},{"type":"event","name":"ProtocolConfigChanged","inputs":[{"name":"setterSelector","type":"bytes4","indexed":true,"internalType":"bytes4"},{"name":"setterSignature","type":"string","indexed":false,"internalType":"string"},{"name":"value","type":"bytes","indexed":false,"internalType":"bytes"}],"anonymous":false},{"type":"event","name":"RoleAdminChanged","inputs":[{"name":"role","type":"bytes32","indexed":true,"internalType":"bytes32"},{"name":"previousAdminRole","type":"bytes32","indexed":true,"internalType":"bytes32"},{"name":"newAdminRole","type":"bytes32","indexed":true,"internalType":"bytes32"}],"anonymous":false},{"type":"event","name":"RoleGranted","inputs":[{"name":"role","type":"bytes32","indexed":true,"internalType":"bytes32"},{"name":"account","type":"address","indexed":true,"internalType":"address"},{"name":"sender","type":"address","indexed":true,"internalType":"address"}],"anonymous":false},{"type":"event","name":"RoleRevoked","inputs":[{"name":"role","type":"bytes32","indexed":true,"internalType":"bytes32"},{"name":"account","type":"address","indexed":true,"internalType":"address"},{"name":"sender","type":"address","indexed":true,"internalType":"address"}],"anonymous":false},{"type":"error","name":"AccessControlBadConfirmation","inputs":[]},{"type":"error","name":"AccessControlUnauthorizedAccount","inputs":[{"name":"account","type":"address","internalType":"address"},{"name":"neededRole","type":"bytes32","internalType":"bytes32"}]},{"type":"error","name":"CannotModifyInitialRecord","inputs":[]},{"type":"error","name":"CannotUpdateWhileUpdatePending","inputs":[]},{"type":"error","name":"InvalidConfiguration","inputs":[]},{"type":"error","name":"InvalidInitialization","inputs":[]},{"type":"error","name":"InvalidRecordModification","inputs":[]},{"type":"error","name":"InvalidUpdateEndBeforeStartBlock","inputs":[{"name":"end","type":"uint256","internalType":"uint256"},{"name":"start","type":"uint256","internalType":"uint256"}]},{"type":"error","name":"InvalidUpdateMoreDepositsProcessedThanSent","inputs":[{"name":"processed","type":"uint256","internalType":"uint256"},{"name":"sent","type":"uint256","internalType":"uint256"}]},{"type":"error","name":"InvalidUpdateMoreValidatorsThanInitiated","inputs":[{"name":"numValidatorsOnRecord","type":"uint256","internalType":"uint256"},{"name":"numInitiatedValidators","type":"uint256","internalType":"uint256"}]},{"type":"error","name":"InvalidUpdateStartBlock","inputs":[{"name":"wantUpdateStartBlock","type":"uint256","internalType":"uint256"},{"name":"gotUpdateStartBlock","type":"uint256","internalType":"uint256"}]},{"type":"error","name":"MathOverflowedMulDiv","inputs":[]},{"type":"error","name":"NoUpdatePending","inputs":[]},{"type":"error","name":"NotInitializing","inputs":[]},{"type":"error","name":"Paused","inputs":[]},{"type":"error","name":"RecordDoesNotExist","inputs":[{"name":"idx","type":"uint256","internalType":"uint256"}]},{"type":"error","name":"UnauthorizedOracleUpdater","inputs":[{"name":"sender","type":"address","internalType":"address"},{"name":"oracleUpdater","type":"address","internalType":"address"}]},{"type":"error","name":"UpdateEndBlockNumberNotFinal","inputs":[{"name":"updateFinalizingBlock","type":"uint256","internalType":"uint256"}]},{"type":"error","name":"ZeroAddress","inputs":[]}],"bytecode":{"object":"0x60808060405234620000bd577ff0c57e16840df040f15088dc2f81fe391c3923bec73e23a9662efc9c229c6a009081549060ff8260401c16620000ae57506001600160401b036002600160401b03198282160162000068575b6040516138b49081620000c38239f35b6001600160401b031990911681179091556040519081527fc7f505b2f371ae2175ee4913f4499e1f2633a7b5936321eed1cdaeb6115181d290602090a138808062000058565b63f92ee8a960e01b8152600490fd5b600080fdfe6080604052600436101561001257600080fd5b6000803560e01c8062a4dcac14611b2957806301ffc9a714611ab857806315afe1f614611a8f5780631c6ace5514611a23578063245a7bfc146119fa578063248a9ca3146119c057806326c5b3a01461155657806328e8f4001461152b5780632f2ff15d146114a157806330392917146113cb5780633187a6ff1461137f57806336568abe146113375780634253e0c014611311578063491e0bd1146112f35780634c62d42e146112185780634cf088d9146111ef57806357ab17031461114c57806359d3005d1461112757806367d5f33714610af25780636e710e05146109f2578063771eb10414610935578063805d64a01461090c5780638543d1a7146108e45780639010d07c1461089157806391d14854146108385780639fd0506d1461080f578063a217fddf146107f3578063a78dce76146107d5578063aa5180e8146107b2578063ac43459d146106db578063b553cad7146106b6578063b5d1990d14610699578063bf3b91ab1461067b578063bfc69e1c14610652578063ca15c8731461061b578063cec5afe714610548578063d547741f146104f9578063e41beeda14610438578063f0402cbf14610395578063f3a009a014610379578063fb483fb114610337578063fb961583146102fc5763fdc482e8146101f557600080fd5b346102f95760203660031901126102f95760043564ffffffffff8116908181036102f557610221613004565b64e8d4a5100082116102e35769ffffffffff0000000000603e549160281b169069ffffffffff0000000000191617603e556040519060208201526020815261026881611c3e565b60008051602061381f83398151915260405160408152602b60408201527f7365744d6178436f6e73656e7375734c617965724761696e506572426c6f636b60608201526a5050542875696e7434302960a81b608082015260a06020820152806102dd631fb8905d60e31b9460a0830190611d60565b0390a280f35b60405163c52a9bd360e01b8152600490fd5b8280fd5b80fd5b50346102f957806003193601126102f95760206040517ffdd95c635b6fde1e24676722ae45d4e9072f4947c3c68d69c7de01654c8405098152f35b50346102f95760203660031901126102f957610351611da0565b50610375610369610363600435611eba565b50611e4a565b60405191829182611b59565b0390f35b50346102f957806003193601126102f957610375610369612f93565b50346102f95760203660031901126102f9576004356103b2613004565b80603d55604051906020820152602081526103cc81611c3e565b60008051602061381f83398151915260405160408152602260408201527f7365744d61784465706f73697450657256616c696461746f722875696e743235606082015261362960f01b608082015260a06020820152806102dd63f0402cbf60e01b9460a0830190611d60565b50346102f95760203660031901126102f957600435610455613004565b801580156104ee575b6102e357806037556040519060208201526020815261047c81611c3e565b60008051602061381f83398151915260405160408152602860408201527f73657446696e616c697a6174696f6e426c6f636b4e756d62657244656c74612860608201526775696e743235362960c01b608082015260a06020820152806102dd63720df76d60e11b9460a0830190611d60565b50610800811161045e565b50346102f95760403660031901126102f957610544600435610519611be2565b908084526000805160206137ff83398151915260205261053f600160408620015461304e565b61321f565b5080f35b50346102f95760203660031901126102f957610562611bcc565b61056a613004565b6001600160a01b0316801561060957806bffffffffffffffffffffffff60a01b6038541617603855604051906020820152602081526105a881611c3e565b60008051602061381f83398151915260405160408152601960408201527f7365744f7261636c655570646174657228616464726573732900000000000000606082015260806020820152806102dd63cec5afe760e01b946080830190611d60565b60405163d92e233d60e01b8152600490fd5b50346102f95760203660031901126102f957604060209160043581526000805160206137bf83398151915283522054604051908152f35b50346102f957806003193601126102f957602060405160008051602061383f8339815191528152f35b50346102f957806003193601126102f9576020603754604051908152f35b50346102f957806003193601126102f95760209054604051908152f35b50346102f957806003193601126102f957602061ffff603e5460681c16604051908152f35b50346102f95760203660031901126102f95760043564ffffffffff81168091036107ae57610707613004565b64e8d4a5100081116102e3578064ffffffffff19603e541617603e556040519060208201526020815261073981611c3e565b60008051602061381f83398151915260405160408152602b60408201527f7365744d696e436f6e73656e7375734c617965724761696e506572426c6f636b60608201526a5050542875696e7434302960a81b608082015260a06020820152806102dd63ac43459d60e01b9460a0830190611d60565b5080fd5b50346102f957806003193601126102f957602060ff603354166040519015158152f35b50346102f957806003193601126102f9576020603c54604051908152f35b50346102f957806003193601126102f957602090604051908152f35b50346102f957806003193601126102f9576039546040516001600160a01b039091168152602090f35b50346102f95760403660031901126102f9576040610854611be2565b9160043581526000805160206137ff833981519152602052209060018060a01b0316600052602052602060ff604060002054166040519015158152f35b50346102f95760403660031901126102f9576108cb60209160043581526000805160206137bf83398151915283526040602435912061360f565b905460405160039290921b1c6001600160a01b03168152f35b50346102f957806003193601126102f957602064ffffffffff603e5460281c16604051908152f35b50346102f957806003193601126102f9576038546040516001600160a01b039091168152602090f35b50346102f95760203660031901126102f95760043561ffff8116908181036102f55761095f613004565b603e549061ffff60681b9060681b169061ffff60681b191617603e556040519060208201526020815261099181611c3e565b60008051602061381f83398151915260405160408152601e60408201527f7365744d696e5265706f727453697a65426c6f636b732875696e743136290000606082015260806020820152806102dd631dc7ac4160e21b946080830190611d60565b50346102f95736600319019061020082126102f957610100809212610aed5760405191610a1e83611c22565b6001600160401b036004358181168103610aed5784526024358181168103610aed5760208501526044358181168103610aed5760408501526064359081168103610aed5760608401526001600160801b036084358181168103610aed57608085015260a4358181168103610aed5760a085015260c4358181168103610aed5760c085015260e4359081168103610aed5760e0840152366101031901126102f957610ade610aca8361294e565b604051938493606085526060850190611d60565b91602084015260408301520390f35b600080fd5b50346102f95760e03660031901126102f95760405160e081018181106001600160401b03821117610fc757604052610b28611bcc565b8152610b32611be2565b60208201526044356001600160a01b0381168103610aed5760408201526064356001600160a01b0381168103610aed5760608201526084356001600160a01b03811681036102f557608082015260a4356001600160a01b03811681036102f55760a082015260c4356001600160a01b03811681036102f55760c082015260008051602061385f833981519152546001600160401b03811680159081611117575b600114908161110d575b159081611104575b506110f25760016001600160401b031982161760008051602061385f8339815191525560ff8160401c16156110c5575b60ff60008051602061385f8339815191525460401c16156110b35781516001600160a01b0316610c4381613353565b61108a575b5060208201516001600160a01b0316610c60816133e1565b611053575b5060608201516001600160a01b0316610c7d8161347f565b61101c575b5060018060a01b03608083015116916bffffffffffffffffffffffff60a01b9283603b541617603b5560018060a01b0360408201511683603854161760385560018060a01b0360a082015116836039541617603955602084600460018060a01b0360c0850151169586603a5491821617603a5560406037556d640003e8000002e72a000000076f603e546801bc16d674ec80000080603c55603d556effffffffffffffffffffffffffffff191617603e556040519687938492635c8ac85960e11b845216175afa928315611011578493610fdd575b506001600160401b0360405193610d6d85611c22565b8585521660208401528360408401528360608401528360808401528360a08401528360c08401528360e0840152602060018060a01b039101511691600054807f3c2dada747e62514e16b7263ff08ee5566260a1a36eb50e2752f577f8f29974f60405180610ddb8682611b59565b0390a2600160401b811015610fc757806001610dfa9201600055611eba565b919091610fb1578051602082015160408084015160608501516001600160c01b031960c09190911b1667ffffffffffffffff60401b9390921b929092166001600160401b039093169290921767ffffffffffffffff60801b608092831b16179190911783558082015160a08301516001600160801b03199281901b83166001600160801b039283169081176001870155908216949093610eca93929160e091906002905b01938360c083015116908554161784550151166001600160801b0382549181199060801b169116179055565b603b546001600160a01b0316803b15610aed576000928360e492604051978895869463d68d053b60e01b8652600486015260248501526001604485015280606485015260848401528160a48401528160c48401525af1918215610fa55760ff92610f96575b5060401c1615610f3c5780f35b68ff00000000000000001960008051602061385f833981519152541660008051602061385f833981519152557fc7f505b2f371ae2175ee4913f4499e1f2633a7b5936321eed1cdaeb6115181d2602060405160018152a180f35b610f9f90611c0f565b38610f2f565b6040513d6000823e3d90fd5b634e487b7160e01b600052600060045260246000fd5b634e487b7160e01b600052604160045260246000fd5b9092506020813d602011611009575b81610ff960209383611c8f565b81010312610aed57519138610d57565b3d9150610fec565b6040513d86823e3d90fd5b61104c906000805160206137df83398151915285526000805160206137bf8339815191526020526040852061363d565b5038610c82565b6110839060008051602061383f83398151915285526000805160206137bf8339815191526020526040852061363d565b5038610c65565b6110ac908480526000805160206137bf8339815191526020526040852061363d565b5038610c48565b604051631afcd79f60e31b8152600490fd5b68ffffffffffffffffff198116680100000000000000011760008051602061385f83398151915255610c14565b60405163f92ee8a960e01b8152600490fd5b90501538610be4565b303b159150610bdc565b604083901c60ff16159150610bd2565b50346102f957806003193601126102f957602064ffffffffff603e5416604051908152f35b50346102f95760203660031901126102f957600435611169613004565b80603c556040519060208201526020815261118381611c3e565b60008051602061381f83398151915260405160408152602260408201527f7365744d696e4465706f73697450657256616c696461746f722875696e743235606082015261362960f01b608082015260a06020820152806102dd6357ab170360e01b9460a0830190611d60565b50346102f957806003193601126102f957603a546040516001600160a01b039091168152602090f35b50346102f957806003193601126102f957611231612fba565b60ff60335416156112e1577f4b640a37d59363bc1349d416626728534e5c58049e5f64f50f1090cabf152ab16101006040516034546001600160401b038082168352808260401c1660208401528160801c16604083015260c01c60608201526035546001600160801b0390818116608084015260801c60a083015260365490811660c083015260801c60e0820152a16112de60006034556000603555600060365560ff1960335416603355565b80f35b60405163e8907a5560e01b8152600490fd5b50346102f957806003193601126102f9576020603d54604051908152f35b50346102f957806003193601126102f957602062ffffff603e5460501c16604051908152f35b50346102f95760403660031901126102f957611351611be2565b336001600160a01b0382160361136d576105449060043561321f565b60405163334bd91960e11b8152600490fd5b50346102f957366003190161018081126107ae57610100136102f957610104356001600160a01b0381168103610aed576112de906113bb611bf8565b90610164359161014435916122e7565b50346102f95760203660031901126102f95760043562ffffff8116908181036102f5576113f6613004565b620f424082116102e357603e549062ffffff60501b9060501b169062ffffff60501b191617603e556040519060208201526020815261143481611c3e565b60008051602061381f83398151915260405160408152602360408201527f7365744d6178436f6e73656e7375734c617965724c6f737350504d2875696e7460608201526232342960e81b608082015260a06020820152806102dd633039291760e01b9460a0830190611d60565b50346102f95760403660031901126102f9576004356114be611be2565b8183526000805160206137ff8339815191526020526114e3600160408520015461304e565b6114ed8183613517565b6114f5578280f35b60009182526000805160206137bf8339815191526020526040909120611524916001600160a01b03169061363d565b5038808280f35b50346102f9576101203660031901126102f9576101003660231901126102f9576112de60043561201e565b50346102f9576101a03660031901126102f957600435906101003660231901126102f957611582611bf8565b6001600160a01b039261014435848116908190036119bc577ffdd95c635b6fde1e24676722ae45d4e9072f4947c3c68d69c7de01654c8405098085526000805160206137ff8339815191526020526040852033865260205260ff6040862054161561199e5750811561198c5783548210156119735761160082611eba565b50918254956001600160401b03916024359783891680990361196f5788848216149081159161194f575b5061193d576000198101818111611929576116449061201e565b869287956001611652611f83565b9101548060801c806001600160801b0380941611611910575b50819081611677611f99565b911691829116116118f4575b5061168d83611eba565b9a909a6118e057899a816001600160401b039b9a9b1982541617815560443590848216918281036118dc5781546fffffffffffffffff0000000000000000191660409190911b67ffffffffffffffff60401b1617815560643594808616958681036118d857825467ffffffffffffffff60801b191660809190911b67ffffffffffffffff60801b16178255608435908116908181036118d85782546001600160c01b031660c09190911b6001600160c01b031916178255600182019060a435908682168092036118d4576001600160801b031993828585541617845560c43590888216948583036118cf5760029261179991906001600160801b0382549181199060801b169116179055565b019760e435948886168096036118cb578954168517895561010435978816958689036118cb57611802610100997fbf4fd4e67b3409061e5be46d3e4b2b7c8edfad56ccfc8131e0cc7ffd79e104a59b906001600160801b0382549181199060801b169116179055565b604051978852602088015260408701526060860152608085015260a084015260c083015260e0820152a281158015906118c2575b61183e578480f35b80603b5416803b156118be5760e4938692604051988997889663d68d053b60e01b88526004880152602487015284604487015216606485015260848401526101643560a48401526101843560c48401525af180156118b3576118a4575b81818080808480f35b6118ad90611c0f565b3861189b565b6040513d84823e3d90fd5b8580fd5b50831515611836565b8f80fd5b508f80fd5b8d80fd5b8c80fd5b8b80fd5b634e487b7160e01b8a5260048a905260248afd5b81975061190890611903611f99565b611fc5565b169538611683565b829196506119218291611903611f83565b16959061166b565b634e487b7160e01b88526011600452602488fd5b6040516330af5f6160e01b8152600490fd5b604435858116925082900361196b5760401c841614153861162a565b8880fd5b8780fd5b60405163a2720e8360e01b815260048101839052602490fd5b60405163cab1c3df60e01b8152600490fd5b6044906040519063e2517d3f60e01b82523360048301526024820152fd5b8380fd5b50346102f95760203660031901126102f9576001604060209260043581526000805160206137ff8339815191528452200154604051908152f35b50346102f957806003193601126102f957603b546040516001600160a01b039091168152602090f35b50346102f95760803660031901126102f957611a3d611bcc565b611a45611be2565b611a4d612fba565b60ff60335416156112e157611a71916064359160443591611a6c611dde565b613081565b6112de60006034556000603555600060365560ff1960335416603355565b50346102f957806003193601126102f95760206040516000805160206137df8339815191528152f35b50346102f95760203660031901126102f95760043563ffffffff60e01b81168091036107ae57602090635a05180f60e01b8114908115611afe575b506040519015158152f35b637965db0b60e01b811491508115611b18575b5082611af3565b6301ffc9a760e01b14905082611b11565b50346102f957806003193601126102f957611b42611da0565b5060ff60335416156112e157610375610369611dde565b91909160e06101008201936001600160401b038082511684528060208301511660208501528060408301511660408501526060820151166060840152816080820151916001600160801b0380931660808601528260a08201511660a08601528260c08201511660c0860152015116910152565b600435906001600160a01b0382168203610aed57565b602435906001600160a01b0382168203610aed57565b61012435906001600160a01b0382168203610aed57565b6001600160401b038111610fc757604052565b61010081019081106001600160401b03821117610fc757604052565b604081019081106001600160401b03821117610fc757604052565b606081019081106001600160401b03821117610fc757604052565b602081019081106001600160401b03821117610fc757604052565b90601f801991011681019081106001600160401b03821117610fc757604052565b600435906001600160401b0382168203610aed57565b602435906001600160401b0382168203610aed57565b604435906001600160401b0382168203610aed57565b606435906001600160401b0382168203610aed57565b608435906001600160801b0382168203610aed57565b60a435906001600160801b0382168203610aed57565b60c435906001600160801b0382168203610aed57565b60e435906001600160801b0382168203610aed57565b919082519283825260005b848110611d8c575050826000602080949584010152601f8019910116010190565b602081830181015184830182015201611d6b565b60405190611dad82611c22565b8160e06000918281528260208201528260408201528260608201528260808201528260a08201528260c08201520152565b60405190611deb82611c22565b816034546001600160401b038082168352808260401c1660208401528160801c16604083015260c01c606082015260e06035546001600160801b0390818116608085015260801c60a084015260365490811660c084015260801c910152565b90604051611e5781611c22565b60e0819380546001600160401b038082168552808260401c1660208601528160801c16604085015260c01c606084015260026001820154916001600160801b0392838116608087015260801c60a0860152015490811660c084015260801c910152565b906000918254811015611ef457600390838052027f290decd9548b62a8d60345a988386fc84ba6bc95484008f6362f93160ef3e563019190565b634e487b7160e01b83526032600452602483fd5b6024356001600160401b0381168103610aed5790565b6004356001600160401b0381168103610aed5790565b6044356001600160401b0381168103610aed5790565b6064356001600160401b0381168103610aed5790565b91908203918211611f6d57565b634e487b7160e01b600052601160045260246000fd5b60c4356001600160801b0381168103610aed5790565b60a4356001600160801b0381168103610aed5790565b60e4356001600160801b0381168103610aed5790565b6001600160801b039182169082160391908211611f6d57565b9060016001600160401b0380931601918211611f6d57565b9190916001600160401b0380809416911601918211611f6d57565b91908201809211611f6d57565b61202790611eba565b506001600160401b039060443582811691828203610aed576024359184831693848403610aed578410156122bd5750549183604093841c16908461206a83611fde565b160361227e575050610104356001600160801b038116809103610aed5760018060a01b03603a541692825190630c141ec560e31b92838352602093600493858186818b5afa90811561227357600091612246575b5082116121da57505060643593818516808603610aed5760843590838216808303610aed576120ec91612011565b825163bb635c6560e01b8082529791878288818d5afa9182156121cf576000926121a0575b5011612121575050505050505050565b859161212c91611ff6565b958483518099819382525afa93841561219557600094612164575b5051635daed79d60e11b8152931690830152602482015260449150fd5b90935085813d831161218e575b61217b8183611c8f565b81010312610aed57604494519286612147565b503d612171565b50513d6000823e3d90fd5b9091508781813d83116121c8575b6121b88183611c8f565b81010312610aed57519038612111565b503d6121ae565b85513d6000823e3d90fd5b8592508385929496518098819382525afa92831561219557600093612215575b5051638cf753bf60e01b815292830152602482015260449150fd5b90925084813d831161223f575b61222c8183611c8f565b81010312610aed576044935191856121fa565b503d612222565b90508581813d831161226c575b61225d8183611c8f565b81010312610aed5751386120be565b503d612253565b87513d6000823e3d90fd5b6122b961228b8492611fde565b91516356ae644360e01b81526001600160401b03928316600482015292909116602483015281906044820190565b0390fd5b604051634ccf003d60e11b81526001600160401b0391821660048201529216602483015250604490fd5b6039546040805163b4a5503760e01b81529095949392916020916001600160a01b039182169160049184818481875afa9081156128de576000916128a8575b5061289957806038541680330361287b57506033549060ff821661286b5760005460001981019081116128565761235c90611eba565b5091612366611f08565b926001600160401b0393848061237a611f1e565b1691161115612814578361238c611f1e565b91548d1c1690848061239d84611fde565b169116036127d157506123ae611faf565b91603a54168b51630c141ec560e31b9081815288818881865afa9081156127c657600091612799575b506001600160801b03809516116127235750612406846123f5611f34565b16856123ff611f4a565b1690612011565b8c5163bb635c6560e01b8082529189828981875afa918215612718576000926126e9575b50116126cb575050602435838116809103610aed5760375461244b91612011565b8043106126b5575061246361245e612f93565b612e26565b90825194856124fc57505050505050505050610100600319360112610aed57856124fa96519161249283611c22565b61249a611cb0565b83526124a4611cc6565b908301526124b0611cdc565b908201526124bc611cf2565b60608201526124c9611d08565b60808201526124d6611d1e565b60a08201526124e3611d34565b60c08201526124f0611d4a565b60e0820152613081565b565b9398969b50939850939850949a995087612514611f1e565b1667ffffffffffffffff60401b612529611f08565b8c1b1690612535611f34565b906001600160c01b0319612547611f4a565b60c01b169217906001600160401b0360801b9060801b16171760345560843596818816809803610aed5760016125ef977fc51d8bb32a3937963ee762598769c0e402bdbed204707576884f84040cf542cf996001600160801b031990816125ac611f99565b60801b1617603555846125bd611f83565b16906125c7611faf565b60801b161760365560ff19161760335584860120978a51968796610160808952880190611d60565b94816125f9611cb0565b169087015280612607611cc6565b168b87015280612615611cdc565b166060870152612623611cf2565b16608086015280612632611d08565b1660a086015280612641611d1e565b1660c086015280612650611d34565b1660e086015261265e611d4a565b166101008501526101208401526101408301520390a2823b15610aed57815163595c6a6760e01b8152926000918491829084905af19081156126ab57506126a25750565b6124fa90611c0f565b513d6000823e3d90fd5b846024918d51916303f868a560e31b8352820152fd5b8786868f8361212c6126db611f34565b6126e3611f4a565b90611ff6565b9091508981813d8311612711575b6127018183611c8f565b81010312610aed5751903861242a565b503d6126f7565b8f513d6000823e3d90fd5b8786858f83612730611faf565b958483518099819382525afa93841561219557600094612768575b5051638cf753bf60e01b8152931690830152602482015260449150fd5b90935085813d8311612792575b61277f8183611c8f565b81010312610aed5760449451928661274b565b503d612775565b90508881813d83116127bf575b6127b08183611c8f565b81010312610aed5751386123d7565b503d6127a6565b8e513d6000823e3d90fd5b846122b96127df8e93611fde565b926127e8611f1e565b90516356ae644360e01b81526001600160401b0394851693810193845293166020830152829160400190565b8b856122b9612821611f08565b9261282a611f1e565b9051634ccf003d60e11b81526001600160401b0394851693810193845293166020830152829160400190565b601184634e487b7160e01b6000525260246000fd5b895163452d764960e01b81528390fd5b8951633096000d60e11b815233818501526024810191909152604490fd5b5087516313d0ff5960e31b8152fd5b8581813d83116128d7575b6128bd8183611c8f565b810103126107ae57519081151582036102f9575038612326565b503d6128b3565b8a513d6000823e3d90fd5b6001600160401b039182169082160391908211611f6d57565b81810292918115918404141715611f6d57565b9190916001600160801b0380809416911601918211611f6d57565b9190916001600160401b0380809416911602918216918203611f6d57565b6001600160401b03610124358181168103610aed5761010435908282168203610aed576129839161297e916128e9565b611fde565b91603e549161ffff8360681c1681851690808210612dda575050610164359381851694858103610aed57606084019583875116808210612d7757505060409586850194846129d8818851168285511690611ff6565b1661014435908682168203610aed57866129f28684611ff6565b1690808210612d255750506101e435926001600160801b039788851695868603610aed5760e08501968a885116808210612cd25750509188612a4e612a579382612a4e81978f612a478d8f8390511690611fc5565b1699611ff6565b915116906128e9565b16603c54612a658183612902565b8310612c6f5750603d5490612a7a8282612902565b8311612c0c5750505091612a9d612aa392878060c0819701511693511690611fc5565b90612915565b16926101c4358181168103610aed57610184358281168103610aed57612ac891612915565b6101a4358281168103610aed57612ade91612915565b1693612afb612af58562ffffff8460501c16613267565b85611f60565b90612b2364ffffffffff92612b1d8787612b1788888816612930565b166132e4565b90612011565b808710612baf575092612b17612b1d93869593612b44979460281c16612930565b808211612b6457505051612b5781611c74565b6000815290600090600090565b91641033b0b4b760d91b819492945191612b7d83611c59565b602583527f436f6e73656e737573206c61796572206368616e67652061626f7665206d61786020840152820152929190565b9694505050505070206761696e206f72206d6178206c6f737360781b819492945191612bda83611c59565b603183527f436f6e73656e737573206c61796572206368616e67652062656c6f77206d696e6020840152820152929190565b95509550989650505050612c209250612902565b916b32b9103b30b634b230ba37b960a11b815191612c3d83611c59565b602c83527f4e6577206465706f736974732061626f7665206d6178206465706f73697420706020840152820152929190565b96509450989650505050612c839250612902565b916b32b9103b30b634b230ba37b960a11b815191612ca083611c59565b602c83527f4e6577206465706f736974732062656c6f77206d696e206465706f73697420706020840152820152929190565b9c9a509c9a5050505050505050505061195960f21b815191612cf383611c59565b602283527f50726f636573736564206465706f73697420616d6f756e7420646563726561736020840152820152929190565b99975099975050505050505063185cd95960e21b815191612d4583611c59565b602483527f546f74616c206e756d626572206f662076616c696461746f72732064656372656020840152820152929190565b965096945050505050604051612d8c81611c59565b603681527f43756d756c6174697665206e756d626572206f6620776974686472617761626c60208201527519481d985b1a59185d1bdc9cc8191958dc99585cd95960521b6040820152929190565b94509492505050604051612ded81611c59565b602181527f5265706f727420626c6f636b732062656c6f77206d696e696d756d20626f756e6020820152601960fa1b6040820152929190565b6001600160401b036024358181168103610aed57600435908282168203610aed57612e549161297e916128e9565b91603e549161ffff8360681c1681851690808210612dda5750506064359381851694858103610aed57606084019583875116808210612d775750506040958685019484612ea8818851168285511690611ff6565b16604435908682168203610aed5786612ec18684611ff6565b1690808210612d2557505060e435926001600160801b039788851695868603610aed5760e08501968a885116808210612cd25750509188612a4e612f159382612a4e81978f612a478d8f8390511690611fc5565b16603c54612f238183612902565b8310612c6f5750603d5490612f388282612902565b8311612c0c5750505091612a9d612f5b92878060c0819701511693511690611fc5565b169260c4358181168103610aed576084358281168103610aed57612f7e91612915565b60a4358281168103610aed57612ade91612915565b612f9b611da0565b506000546000198101908111611f6d57610363612fb791611eba565b90565b3360009081527f819a35aa5abeecaf069535123d3a20a08e6004dd847aec780e4bd55bc1365d4260205260409020546000805160206137df8339815191529060ff161561199e5750565b3360009081527f6a07288dad4cb198070ae9ab0d91c908f3652738923841b35a5b72d3571a1cec602052604090205460008051602061383f8339815191529060ff161561199e5750565b806000526000805160206137ff83398151915260205260406000203360005260205260ff604060002054161561199e5750565b91939290936000938454807f3c2dada747e62514e16b7263ff08ee5566260a1a36eb50e2752f577f8f29974f604051806130bb8982611b59565b0390a2600160401b81101561320b578060016130d992018755611eba565b9390936131f75784516020860151604080880151606089015160c01b6001600160c01b03191667ffffffffffffffff60401b9390921b929092166001600160401b039093169290921767ffffffffffffffff60801b60809290921b919091161717845560808581015160a08701516001600160801b039182166001600160801b03199382901b841681176001890155979082169661317e93929160e091600290610e9e565b603b546001600160a01b0390811693843b1561196f5792879695939282889460e497946040519c8d9a8b9963d68d053b60e01b8b5260048b015260248a0152600160448a015216606488015216608486015260a485015260c48401525af19081156131eb57506126a25750565b604051903d90823e3d90fd5b634e487b7160e01b86526004869052602486fd5b634e487b7160e01b86526041600452602486fd5b613229828261358c565b918261323457505090565b60009182526000805160206137bf8339815191526020526040909120613263916001600160a01b0316906136c2565b5090565b9080820290600019818409908280831092039180830392146132d857620f424090828211156132c6577fde8f6cefed634549b62c77574f722e1ac57e23f24d8fd5cb790fb65668c26139940990828211900360fa1b910360061c170290565b60405163227bc15360e01b8152600490fd5b5050620f424091500490565b9080820290600019818409908280831092039180830392146133455764e8d4a5100090828211156132c6577f77e12cab7520c63c04f1786181bbccfbb156301b10c40b343662e0e1cf503eb1940990828211900360f41b9103600c1c170290565b505064e8d4a5100091500490565b6001600160a01b031660008181527fb7db2dd08fcb62d0c9e08c51941cae53c267786a0b75803fb7960902fc8ef97d60205260408120549091906000805160206137ff8339815191529060ff166133dc578280526020526040822081835260205260408220600160ff19825416179055339160008051602061379f8339815191528180a4600190565b505090565b6001600160a01b031660008181527f6a07288dad4cb198070ae9ab0d91c908f3652738923841b35a5b72d3571a1cec602052604081205490919060008051602061383f833981519152906000805160206137ff8339815191529060ff16613479578184526020526040832082845260205260408320600160ff1982541617905560008051602061379f833981519152339380a4600190565b50505090565b6001600160a01b031660008181527f819a35aa5abeecaf069535123d3a20a08e6004dd847aec780e4bd55bc1365d4260205260408120549091906000805160206137df833981519152906000805160206137ff8339815191529060ff16613479578184526020526040832082845260205260408320600160ff1982541617905560008051602061379f833981519152339380a4600190565b906000918083526000805160206137ff83398151915280602052604084209260018060a01b03169283855260205260ff60408520541615600014613479578184526020526040832082845260205260408320600160ff1982541617905560008051602061379f833981519152339380a4600190565b906000918083526000805160206137ff83398151915280602052604084209260018060a01b03169283855260205260ff60408520541660001461347957818452602052604083208284526020526040832060ff1981541690557ff6391f5c32d9c69d2a47ea670b442974b53935d1edc7fd64eb21e047a839171b339380a4600190565b80548210156136275760005260206000200190600090565b634e487b7160e01b600052603260045260246000fd5b919060018301600090828252806020526040822054156000146136bc57845494600160401b8610156136a85783613698613681886001604098999a0185558461360f565b819391549060031b91821b91600019901b19161790565b9055549382526020522055600190565b634e487b7160e01b83526041600452602483fd5b50925050565b906001820190600092818452826020526040842054908115156000146137975760001991808301818111613783578254908482019182116119295781810361374e575b5050508054801561373a5782019161371d838361360f565b909182549160031b1b191690555582526020526040812055600190565b634e487b7160e01b86526031600452602486fd5b61376e61375e613681938661360f565b90549060031b1c9283928661360f565b90558652846020526040862055388080613705565b634e487b7160e01b87526011600452602487fd5b505050509056fe2f8788117e7eff1d82e926ec794901d17c78024a50270940304540a733656f0dc1f6fe24621ce81ec5827caf0253cadb74709b061630e6b55e82371705932000b8921042efede08ea4fb87c7cd34c42ab1e134df6d8ef481f71c91910346d83502dd7bc7dec4dceedda775e58dd541e08a116c6c53815c0bd028192f7b62680001d854e8dde9402801a4c6f2840193465752abfad61e0bb7c4258d526ae42e74ced6982f480260bdd8ad5cb18ff2854f0306d78d904ad6cc107e8f3a0f526c18f0c57e16840df040f15088dc2f81fe391c3923bec73e23a9662efc9c229c6a00a2646970667358221220879e850fbcc46b407cbbc13e9b4f91d8304ff43781890e9ce8116a430503dc5164736f6c63430008180033","linkReferences":{}},"methodIdentifiers":{"DEFAULT_ADMIN_ROLE()":"a217fddf","ORACLE_MANAGER_ROLE()":"bfc69e1c","ORACLE_MODIFIER_ROLE()":"fb961583","ORACLE_PENDING_UPDATE_RESOLVER_ROLE()":"15afe1f6","acceptPendingUpdate(address,address,uint256,uint256)":"1c6ace55","aggregator()":"245a7bfc","finalizationBlockNumberDelta()":"bf3b91ab","getRoleAdmin(bytes32)":"248a9ca3","getRoleMember(bytes32,uint256)":"9010d07c","getRoleMemberCount(bytes32)":"ca15c873","grantRole(bytes32,address)":"2f2ff15d","hasPendingUpdate()":"aa5180e8","hasRole(bytes32,address)":"91d14854","initialize((address,address,address,address,address,address,address))":"67d5f337","latestRecord()":"f3a009a0","maxConsensusLayerGainPerBlockPPT()":"8543d1a7","maxConsensusLayerLossPPM()":"4253e0c0","maxDepositPerValidator()":"491e0bd1","minConsensusLayerGainPerBlockPPT()":"59d3005d","minDepositPerValidator()":"a78dce76","minReportSizeBlocks()":"b553cad7","modifyExistingRecord(uint256,(uint64,uint64,uint64,uint64,uint128,uint128,uint128,uint128),address,address,uint256,uint256)":"26c5b3a0","numRecords()":"b5d1990d","oracleUpdater()":"805d64a0","pauser()":"9fd0506d","pendingUpdate()":"00a4dcac","receiveRecord((uint64,uint64,uint64,uint64,uint128,uint128,uint128,uint128),address,address,uint256,uint256)":"3187a6ff","recordAt(uint256)":"fb483fb1","rejectPendingUpdate()":"4c62d42e","renounceRole(bytes32,address)":"36568abe","revokeRole(bytes32,address)":"d547741f","sanityCheckUpdate((uint64,uint64,uint64,uint64,uint128,uint128,uint128,uint128),(uint64,uint64,uint64,uint64,uint128,uint128,uint128,uint128))":"6e710e05","setFinalizationBlockNumberDelta(uint256)":"e41beeda","setMaxConsensusLayerGainPerBlockPPT(uint40)":"fdc482e8","setMaxConsensusLayerLossPPM(uint24)":"30392917","setMaxDepositPerValidator(uint256)":"f0402cbf","setMinConsensusLayerGainPerBlockPPT(uint40)":"ac43459d","setMinDepositPerValidator(uint256)":"57ab1703","setMinReportSizeBlocks(uint16)":"771eb104","setOracleUpdater(address)":"cec5afe7","staking()":"4cf088d9","supportsInterface(bytes4)":"01ffc9a7","validateUpdate(uint256,(uint64,uint64,uint64,uint64,uint128,uint128,uint128,uint128))":"28e8f400"},"id":75}