{"abi":[{"type":"constructor","inputs":[],"stateMutability":"nonpayable"},{"type":"function","name":"DEFAULT_ADMIN_ROLE","inputs":[],"outputs":[{"name":"","type":"bytes32","internalType":"bytes32"}],"stateMutability":"view"},{"type":"function","name":"ORACLE_MANAGER_ROLE","inputs":[],"outputs":[{"name":"","type":"bytes32","internalType":"bytes32"}],"stateMutability":"view"},{"type":"function","name":"ORACLE_MODIFIER_ROLE","inputs":[],"outputs":[{"name":"","type":"bytes32","internalType":"bytes32"}],"stateMutability":"view"},{"type":"function","name":"ORACLE_PENDING_UPDATE_RESOLVER_ROLE","inputs":[],"outputs":[{"name":"","type":"bytes32","internalType":"bytes32"}],"stateMutability":"view"},{"type":"function","name":"acceptPendingUpdate","inputs":[{"name":"bridge","type":"address","internalType":"address"},{"name":"l2Strategy","type":"address","internalType":"address"},{"name":"sourceChainId","type":"uint256","internalType":"uint256"},{"name":"destChainId","type":"uint256","internalType":"uint256"}],"outputs":[],"stateMutability":"nonpayable"},{"type":"function","name":"aggregator","inputs":[],"outputs":[{"name":"","type":"address","internalType":"contract IReturnsAggregator"}],"stateMutability":"view"},{"type":"function","name":"finalizationBlockNumberDelta","inputs":[],"outputs":[{"name":"","type":"uint256","internalType":"uint256"}],"stateMutability":"view"},{"type":"function","name":"getRoleAdmin","inputs":[{"name":"role","type":"bytes32","internalType":"bytes32"}],"outputs":[{"name":"","type":"bytes32","internalType":"bytes32"}],"stateMutability":"view"},{"type":"function","name":"getRoleMember","inputs":[{"name":"role","type":"bytes32","internalType":"bytes32"},{"name":"index","type":"uint256","internalType":"uint256"}],"outputs":[{"name":"","type":"address","internalType":"address"}],"stateMutability":"view"},{"type":"function","name":"getRoleMemberCount","inputs":[{"name":"role","type":"bytes32","internalType":"bytes32"}],"outputs":[{"name":"","type":"uint256","internalType":"uint256"}],"stateMutability":"view"},{"type":"function","name":"grantRole","inputs":[{"name":"role","type":"bytes32","internalType":"bytes32"},{"name":"account","type":"address","internalType":"address"}],"outputs":[],"stateMutability":"nonpayable"},{"type":"function","name":"hasPendingUpdate","inputs":[],"outputs":[{"name":"","type":"bool","internalType":"bool"}],"stateMutability":"view"},{"type":"function","name":"hasRole","inputs":[{"name":"role","type":"bytes32","internalType":"bytes32"},{"name":"account","type":"address","internalType":"address"}],"outputs":[{"name":"","type":"bool","internalType":"bool"}],"stateMutability":"view"},{"type":"function","name":"initialize","inputs":[{"name":"init","type":"tuple","internalType":"struct OracleManager.Init","components":[{"name":"admin","type":"address","internalType":"address"},{"name":"manager","type":"address","internalType":"address"},{"name":"oracleUpdater","type":"address","internalType":"address"},{"name":"pendingResolver","type":"address","internalType":"address"},{"name":"aggregator","type":"address","internalType":"contract IReturnsAggregator"},{"name":"pauser","type":"address","internalType":"contract IL1Pauser"},{"name":"staking","type":"address","internalType":"contract IStakingManagerInitiationRead"}]}],"outputs":[],"stateMutability":"nonpayable"},{"type":"function","name":"latestRecord","inputs":[],"outputs":[{"name":"","type":"tuple","internalType":"struct OracleRecord","components":[{"name":"updateStartBlock","type":"uint64","internalType":"uint64"},{"name":"updateEndBlock","type":"uint64","internalType":"uint64"},{"name":"currentNumValidatorsNotWithdrawable","type":"uint64","internalType":"uint64"},{"name":"cumulativeNumValidatorsWithdrawable","type":"uint64","internalType":"uint64"},{"name":"windowWithdrawnPrincipalAmount","type":"uint128","internalType":"uint128"},{"name":"windowWithdrawnRewardAmount","type":"uint128","internalType":"uint128"},{"name":"currentTotalValidatorBalance","type":"uint128","internalType":"uint128"},{"name":"cumulativeProcessedDepositAmount","type":"uint128","internalType":"uint128"}]}],"stateMutability":"view"},{"type":"function","name":"maxConsensusLayerGainPerBlockPPT","inputs":[],"outputs":[{"name":"","type":"uint40","internalType":"uint40"}],"stateMutability":"view"},{"type":"function","name":"maxConsensusLayerLossPPM","inputs":[],"outputs":[{"name":"","type":"uint24","internalType":"uint24"}],"stateMutability":"view"},{"type":"function","name":"maxDepositPerValidator","inputs":[],"outputs":[{"name":"","type":"uint256","internalType":"uint256"}],"stateMutability":"view"},{"type":"function","name":"minConsensusLayerGainPerBlockPPT","inputs":[],"outputs":[{"name":"","type":"uint40","internalType":"uint40"}],"stateMutability":"view"},{"type":"function","name":"minDepositPerValidator","inputs":[],"outputs":[{"name":"","type":"uint256","internalType":"uint256"}],"stateMutability":"view"},{"type":"function","name":"minReportSizeBlocks","inputs":[],"outputs":[{"name":"","type":"uint16","internalType":"uint16"}],"stateMutability":"view"},{"type":"function","name":"modifyExistingRecord","inputs":[{"name":"idx","type":"uint256","internalType":"uint256"},{"name":"record","type":"tuple","internalType":"struct OracleRecord","components":[{"name":"updateStartBlock","type":"uint64","internalType":"uint64"},{"name":"updateEndBlock","type":"uint64","internalType":"uint64"},{"name":"currentNumValidatorsNotWithdrawable","type":"uint64","internalType":"uint64"},{"name":"cumulativeNumValidatorsWithdrawable","type":"uint64","internalType":"uint64"},{"name":"windowWithdrawnPrincipalAmount","type":"uint128","internalType":"uint128"},{"name":"windowWithdrawnRewardAmount","type":"uint128","internalType":"uint128"},{"name":"currentTotalValidatorBalance","type":"uint128","internalType":"uint128"},{"name":"cumulativeProcessedDepositAmount","type":"uint128","internalType":"uint128"}]},{"name":"bridge","type":"address","internalType":"address"},{"name":"l2Strategy","type":"address","internalType":"address"},{"name":"sourceChainId","type":"uint256","internalType":"uint256"},{"name":"destChainId","type":"uint256","internalType":"uint256"}],"outputs":[],"stateMutability":"nonpayable"},{"type":"function","name":"numRecords","inputs":[],"outputs":[{"name":"","type":"uint256","internalType":"uint256"}],"stateMutability":"view"},{"type":"function","name":"oracleUpdater","inputs":[],"outputs":[{"name":"","type":"address","internalType":"address"}],"stateMutability":"view"},{"type":"function","name":"pauser","inputs":[],"outputs":[{"name":"","type":"address","internalType":"contract IL1Pauser"}],"stateMutability":"view"},{"type":"function","name":"pendingUpdate","inputs":[],"outputs":[{"name":"","type":"tuple","internalType":"struct OracleRecord","components":[{"name":"updateStartBlock","type":"uint64","internalType":"uint64"},{"name":"updateEndBlock","type":"uint64","internalType":"uint64"},{"name":"currentNumValidatorsNotWithdrawable","type":"uint64","internalType":"uint64"},{"name":"cumulativeNumValidatorsWithdrawable","type":"uint64","internalType":"uint64"},{"name":"windowWithdrawnPrincipalAmount","type":"uint128","internalType":"uint128"},{"name":"windowWithdrawnRewardAmount","type":"uint128","internalType":"uint128"},{"name":"currentTotalValidatorBalance","type":"uint128","internalType":"uint128"},{"name":"cumulativeProcessedDepositAmount","type":"uint128","internalType":"uint128"}]}],"stateMutability":"view"},{"type":"function","name":"receiveRecord","inputs":[{"name":"newRecord","type":"tuple","internalType":"struct OracleRecord","components":[{"name":"updateStartBlock","type":"uint64","internalType":"uint64"},{"name":"updateEndBlock","type":"uint64","internalType":"uint64"},{"name":"currentNumValidatorsNotWithdrawable","type":"uint64","internalType":"uint64"},{"name":"cumulativeNumValidatorsWithdrawable","type":"uint64","internalType":"uint64"},{"name":"windowWithdrawnPrincipalAmount","type":"uint128","internalType":"uint128"},{"name":"windowWithdrawnRewardAmount","type":"uint128","internalType":"uint128"},{"name":"currentTotalValidatorBalance","type":"uint128","internalType":"uint128"},{"name":"cumulativeProcessedDepositAmount","type":"uint128","internalType":"uint128"}]},{"name":"bridge","type":"address","internalType":"address"},{"name":"l2Strategy","type":"address","internalType":"address"},{"name":"sourceChainId","type":"uint256","internalType":"uint256"},{"name":"destChainId","type":"uint256","internalType":"uint256"}],"outputs":[],"stateMutability":"nonpayable"},{"type":"function","name":"recordAt","inputs":[{"name":"idx","type":"uint256","internalType":"uint256"}],"outputs":[{"name":"","type":"tuple","internalType":"struct OracleRecord","components":[{"name":"updateStartBlock","type":"uint64","internalType":"uint64"},{"name":"updateEndBlock","type":"uint64","internalType":"uint64"},{"name":"currentNumValidatorsNotWithdrawable","type":"uint64","internalType":"uint64"},{"name":"cumulativeNumValidatorsWithdrawable","type":"uint64","internalType":"uint64"},{"name":"windowWithdrawnPrincipalAmount","type":"uint128","internalType":"uint128"},{"name":"windowWithdrawnRewardAmount","type":"uint128","internalType":"uint128"},{"name":"currentTotalValidatorBalance","type":"uint128","internalType":"uint128"},{"name":"cumulativeProcessedDepositAmount","type":"uint128","internalType":"uint128"}]}],"stateMutability":"view"},{"type":"function","name":"rejectPendingUpdate","inputs":[],"outputs":[],"stateMutability":"nonpayable"},{"type":"function","name":"renounceRole","inputs":[{"name":"role","type":"bytes32","internalType":"bytes32"},{"name":"callerConfirmation","type":"address","internalType":"address"}],"outputs":[],"stateMutability":"nonpayable"},{"type":"function","name":"revokeRole","inputs":[{"name":"role","type":"bytes32","internalType":"bytes32"},{"name":"account","type":"address","internalType":"address"}],"outputs":[],"stateMutability":"nonpayable"},{"type":"function","name":"sanityCheckUpdate","inputs":[{"name":"prevRecord","type":"tuple","internalType":"struct OracleRecord","components":[{"name":"updateStartBlock","type":"uint64","internalType":"uint64"},{"name":"updateEndBlock","type":"uint64","internalType":"uint64"},{"name":"currentNumValidatorsNotWithdrawable","type":"uint64","internalType":"uint64"},{"name":"cumulativeNumValidatorsWithdrawable","type":"uint64","internalType":"uint64"},{"name":"windowWithdrawnPrincipalAmount","type":"uint128","internalType":"uint128"},{"name":"windowWithdrawnRewardAmount","type":"uint128","internalType":"uint128"},{"name":"currentTotalValidatorBalance","type":"uint128","internalType":"uint128"},{"name":"cumulativeProcessedDepositAmount","type":"uint128","internalType":"uint128"}]},{"name":"newRecord","type":"tuple","internalType":"struct OracleRecord","components":[{"name":"updateStartBlock","type":"uint64","internalType":"uint64"},{"name":"updateEndBlock","type":"uint64","internalType":"uint64"},{"name":"currentNumValidatorsNotWithdrawable","type":"uint64","internalType":"uint64"},{"name":"cumulativeNumValidatorsWithdrawable","type":"uint64","internalType":"uint64"},{"name":"windowWithdrawnPrincipalAmount","type":"uint128","internalType":"uint128"},{"name":"windowWithdrawnRewardAmount","type":"uint128","internalType":"uint128"},{"name":"currentTotalValidatorBalance","type":"uint128","internalType":"uint128"},{"name":"cumulativeProcessedDepositAmount","type":"uint128","internalType":"uint128"}]}],"outputs":[{"name":"","type":"string","internalType":"string"},{"name":"","type":"uint256","internalType":"uint256"},{"name":"","type":"uint256","internalType":"uint256"}],"stateMutability":"view"},{"type":"function","name":"setFinalizationBlockNumberDelta","inputs":[{"name":"finalizationBlockNumberDelta_","type":"uint256","internalType":"uint256"}],"outputs":[],"stateMutability":"nonpayable"},{"type":"function","name":"setMaxConsensusLayerGainPerBlockPPT","inputs":[{"name":"maxConsensusLayerGainPerBlockPPT_","type":"uint40","internalType":"uint40"}],"outputs":[],"stateMutability":"nonpayable"},{"type":"function","name":"setMaxConsensusLayerLossPPM","inputs":[{"name":"maxConsensusLayerLossPPM_","type":"uint24","internalType":"uint24"}],"outputs":[],"stateMutability":"nonpayable"},{"type":"function","name":"setMaxDepositPerValidator","inputs":[{"name":"maxDepositPerValidator_","type":"uint256","internalType":"uint256"}],"outputs":[],"stateMutability":"nonpayable"},{"type":"function","name":"setMinConsensusLayerGainPerBlockPPT","inputs":[{"name":"minConsensusLayerGainPerBlockPPT_","type":"uint40","internalType":"uint40"}],"outputs":[],"stateMutability":"nonpayable"},{"type":"function","name":"setMinDepositPerValidator","inputs":[{"name":"minDepositPerValidator_","type":"uint256","internalType":"uint256"}],"outputs":[],"stateMutability":"nonpayable"},{"type":"function","name":"setMinReportSizeBlocks","inputs":[{"name":"minReportSizeBlocks_","type":"uint16","internalType":"uint16"}],"outputs":[],"stateMutability":"nonpayable"},{"type":"function","name":"setOracleUpdater","inputs":[{"name":"newUpdater","type":"address","internalType":"address"}],"outputs":[],"stateMutability":"nonpayable"},{"type":"function","name":"staking","inputs":[],"outputs":[{"name":"","type":"address","internalType":"contract IStakingManagerInitiationRead"}],"stateMutability":"view"},{"type":"function","name":"supportsInterface","inputs":[{"name":"interfaceId","type":"bytes4","internalType":"bytes4"}],"outputs":[{"name":"","type":"bool","internalType":"bool"}],"stateMutability":"view"},{"type":"function","name":"validateUpdate","inputs":[{"name":"prevRecordIndex","type":"uint256","internalType":"uint256"},{"name":"newRecord","type":"tuple","internalType":"struct OracleRecord","components":[{"name":"updateStartBlock","type":"uint64","internalType":"uint64"},{"name":"updateEndBlock","type":"uint64","internalType":"uint64"},{"name":"currentNumValidatorsNotWithdrawable","type":"uint64","internalType":"uint64"},{"name":"cumulativeNumValidatorsWithdrawable","type":"uint64","internalType":"uint64"},{"name":"windowWithdrawnPrincipalAmount","type":"uint128","internalType":"uint128"},{"name":"windowWithdrawnRewardAmount","type":"uint128","internalType":"uint128"},{"name":"currentTotalValidatorBalance","type":"uint128","internalType":"uint128"},{"name":"cumulativeProcessedDepositAmount","type":"uint128","internalType":"uint128"}]}],"outputs":[],"stateMutability":"view"},{"type":"event","name":"Initialized","inputs":[{"name":"version","type":"uint64","indexed":false,"internalType":"uint64"}],"anonymous":false},{"type":"event","name":"OraclePendingUpdateRejected","inputs":[{"name":"pendingUpdate","type":"tuple","indexed":false,"internalType":"struct OracleRecord","components":[{"name":"updateStartBlock","type":"uint64","internalType":"uint64"},{"name":"updateEndBlock","type":"uint64","internalType":"uint64"},{"name":"currentNumValidatorsNotWithdrawable","type":"uint64","internalType":"uint64"},{"name":"cumulativeNumValidatorsWithdrawable","type":"uint64","internalType":"uint64"},{"name":"windowWithdrawnPrincipalAmount","type":"uint128","internalType":"uint128"},{"name":"windowWithdrawnRewardAmount","type":"uint128","internalType":"uint128"},{"name":"currentTotalValidatorBalance","type":"uint128","internalType":"uint128"},{"name":"cumulativeProcessedDepositAmount","type":"uint128","internalType":"uint128"}]}],"anonymous":false},{"type":"event","name":"OracleRecordAdded","inputs":[{"name":"index","type":"uint256","indexed":true,"internalType":"uint256"},{"name":"record","type":"tuple","indexed":false,"internalType":"struct OracleRecord","components":[{"name":"updateStartBlock","type":"uint64","internalType":"uint64"},{"name":"updateEndBlock","type":"uint64","internalType":"uint64"},{"name":"currentNumValidatorsNotWithdrawable","type":"uint64","internalType":"uint64"},{"name":"cumulativeNumValidatorsWithdrawable","type":"uint64","internalType":"uint64"},{"name":"windowWithdrawnPrincipalAmount","type":"uint128","internalType":"uint128"},{"name":"windowWithdrawnRewardAmount","type":"uint128","internalType":"uint128"},{"name":"currentTotalValidatorBalance","type":"uint128","internalType":"uint128"},{"name":"cumulativeProcessedDepositAmount","type":"uint128","internalType":"uint128"}]}],"anonymous":false},{"type":"event","name":"OracleRecordFailedSanityCheck","inputs":[{"name":"reasonHash","type":"bytes32","indexed":true,"internalType":"bytes32"},{"name":"reason","type":"string","indexed":false,"internalType":"string"},{"name":"record","type":"tuple","indexed":false,"internalType":"struct OracleRecord","components":[{"name":"updateStartBlock","type":"uint64","internalType":"uint64"},{"name":"updateEndBlock","type":"uint64","internalType":"uint64"},{"name":"currentNumValidatorsNotWithdrawable","type":"uint64","internalType":"uint64"},{"name":"cumulativeNumValidatorsWithdrawable","type":"uint64","internalType":"uint64"},{"name":"windowWithdrawnPrincipalAmount","type":"uint128","internalType":"uint128"},{"name":"windowWithdrawnRewardAmount","type":"uint128","internalType":"uint128"},{"name":"currentTotalValidatorBalance","type":"uint128","internalType":"uint128"},{"name":"cumulativeProcessedDepositAmount","type":"uint128","internalType":"uint128"}]},{"name":"value","type":"uint256","indexed":false,"internalType":"uint256"},{"name":"bound","type":"uint256","indexed":false,"internalType":"uint256"}],"anonymous":false},{"type":"event","name":"OracleRecordModified","inputs":[{"name":"index","type":"uint256","indexed":true,"internalType":"uint256"},{"name":"record","type":"tuple","indexed":false,"internalType":"struct OracleRecord","components":[{"name":"updateStartBlock","type":"uint64","internalType":"uint64"},{"name":"updateEndBlock","type":"uint64","internalType":"uint64"},{"name":"currentNumValidatorsNotWithdrawable","type":"uint64","internalType":"uint64"},{"name":"cumulativeNumValidatorsWithdrawable","type":"uint64","internalType":"uint64"},{"name":"windowWithdrawnPrincipalAmount","type":"uint128","internalType":"uint128"},{"name":"windowWithdrawnRewardAmount","type":"uint128","internalType":"uint128"},{"name":"currentTotalValidatorBalance","type":"uint128","internalType":"uint128"},{"name":"cumulativeProcessedDepositAmount","type":"uint128","internalType":"uint128"}]}],"anonymous":false},{"type":"event","name":"ProtocolConfigChanged","inputs":[{"name":"setterSelector","type":"bytes4","indexed":true,"internalType":"bytes4"},{"name":"setterSignature","type":"string","indexed":false,"internalType":"string"},{"name":"value","type":"bytes","indexed":false,"internalType":"bytes"}],"anonymous":false},{"type":"event","name":"RoleAdminChanged","inputs":[{"name":"role","type":"bytes32","indexed":true,"internalType":"bytes32"},{"name":"previousAdminRole","type":"bytes32","indexed":true,"internalType":"bytes32"},{"name":"newAdminRole","type":"bytes32","indexed":true,"internalType":"bytes32"}],"anonymous":false},{"type":"event","name":"RoleGranted","inputs":[{"name":"role","type":"bytes32","indexed":true,"internalType":"bytes32"},{"name":"account","type":"address","indexed":true,"internalType":"address"},{"name":"sender","type":"address","indexed":true,"internalType":"address"}],"anonymous":false},{"type":"event","name":"RoleRevoked","inputs":[{"name":"role","type":"bytes32","indexed":true,"internalType":"bytes32"},{"name":"account","type":"address","indexed":true,"internalType":"address"},{"name":"sender","type":"address","indexed":true,"internalType":"address"}],"anonymous":false},{"type":"error","name":"AccessControlBadConfirmation","inputs":[]},{"type":"error","name":"AccessControlUnauthorizedAccount","inputs":[{"name":"account","type":"address","internalType":"address"},{"name":"neededRole","type":"bytes32","internalType":"bytes32"}]},{"type":"error","name":"CannotModifyInitialRecord","inputs":[]},{"type":"error","name":"CannotUpdateWhileUpdatePending","inputs":[]},{"type":"error","name":"InvalidConfiguration","inputs":[]},{"type":"error","name":"InvalidInitialization","inputs":[]},{"type":"error","name":"InvalidRecordModification","inputs":[]},{"type":"error","name":"InvalidUpdateEndBeforeStartBlock","inputs":[{"name":"end","type":"uint256","internalType":"uint256"},{"name":"start","type":"uint256","internalType":"uint256"}]},{"type":"error","name":"InvalidUpdateMoreDepositsProcessedThanSent","inputs":[{"name":"processed","type":"uint256","internalType":"uint256"},{"name":"sent","type":"uint256","internalType":"uint256"}]},{"type":"error","name":"InvalidUpdateMoreValidatorsThanInitiated","inputs":[{"name":"numValidatorsOnRecord","type":"uint256","internalType":"uint256"},{"name":"numInitiatedValidators","type":"uint256","internalType":"uint256"}]},{"type":"error","name":"InvalidUpdateStartBlock","inputs":[{"name":"wantUpdateStartBlock","type":"uint256","internalType":"uint256"},{"name":"gotUpdateStartBlock","type":"uint256","internalType":"uint256"}]},{"type":"error","name":"MathOverflowedMulDiv","inputs":[]},{"type":"error","name":"NoUpdatePending","inputs":[]},{"type":"error","name":"NotInitializing","inputs":[]},{"type":"error","name":"Paused","inputs":[]},{"type":"error","name":"RecordDoesNotExist","inputs":[{"name":"idx","type":"uint256","internalType":"uint256"}]},{"type":"error","name":"UnauthorizedOracleUpdater","inputs":[{"name":"sender","type":"address","internalType":"address"},{"name":"oracleUpdater","type":"address","internalType":"address"}]},{"type":"error","name":"UpdateEndBlockNumberNotFinal","inputs":[{"name":"updateFinalizingBlock","type":"uint256","internalType":"uint256"}]},{"type":"error","name":"ZeroAddress","inputs":[]}],"bytecode":{"object":"0x60806040523480156200001157600080fd5b506200001c62000022565b620000d6565b7ff0c57e16840df040f15088dc2f81fe391c3923bec73e23a9662efc9c229c6a00805468010000000000000000900460ff1615620000735760405163f92ee8a960e01b815260040160405180910390fd5b80546001600160401b0390811614620000d35780546001600160401b0319166001600160401b0390811782556040519081527fc7f505b2f371ae2175ee4913f4499e1f2633a7b5936321eed1cdaeb6115181d29060200160405180910390a15b50565b6136b880620000e66000396000f3fe608060405234801561001057600080fd5b50600436106102685760003560e01c8063805d64a011610151578063bf3b91ab116100c3578063e41beeda11610087578063e41beeda14610584578063f0402cbf14610597578063f3a009a0146105aa578063fb483fb1146105b2578063fb961583146105c5578063fdc482e8146105ec57600080fd5b8063bf3b91ab1461052d578063bfc69e1c14610536578063ca15c8731461054b578063cec5afe71461055e578063d547741f1461057157600080fd5b8063a217fddf11610115578063a217fddf146104cc578063a78dce76146104d4578063aa5180e8146104dd578063ac43459d146104ea578063b553cad7146104fd578063b5d1990d1461052557600080fd5b8063805d64a0146104665780638543d1a7146104795780639010d07c1461049357806391d14854146104a65780639fd0506d146104b957600080fd5b80633187a6ff116101ea5780634cf088d9116101ae5780634cf088d9146103d157806357ab1703146103e457806359d3005d146103f757806367d5f3371461041e5780636e710e0514610431578063771eb1041461045357600080fd5b80633187a6ff1461037057806336568abe146103835780634253e0c014610396578063491e0bd1146103c05780634c62d42e146103c957600080fd5b8063248a9ca311610231578063248a9ca31461031157806326c5b3a01461032457806328e8f400146103375780632f2ff15d1461034a578063303929171461035d57600080fd5b8062a4dcac1461026d57806301ffc9a71461028b57806315afe1f6146102ae5780631c6ace55146102d1578063245a7bfc146102e6575b600080fd5b6102756105ff565b6040516102829190612797565b60405180910390f35b61029e610299366004612836565b6106ab565b6040519015158152602001610282565b6102c360008051602061353b83398151915281565b604051908152602001610282565b6102e46102df366004612875565b6106d6565b005b603b546102f9906001600160a01b031681565b6040516001600160a01b039091168152602001610282565b6102c361031f3660046128bb565b6107c0565b6102e46103323660046128ed565b6107e2565b6102e4610345366004612956565b610ae5565b6102e4610358366004612984565b610ef1565b6102e461036b3660046129b4565b610f13565b6102e461037e3660046129d9565b610fc6565b6102e4610391366004612984565b611245565b603e546103ac90600160501b900462ffffff1681565b60405162ffffff9091168152602001610282565b6102c3603d5481565b6102e4611278565b603a546102f9906001600160a01b031681565b6102e46103f23660046128bb565b61130c565b603e546104089064ffffffffff1681565b60405164ffffffffff9091168152602001610282565b6102e461042c366004612a48565b611374565b61044461043f366004612c27565b611623565b60405161028293929190612c9b565b6102e4610461366004612cc0565b611b15565b6038546102f9906001600160a01b031681565b603e546104089065010000000000900464ffffffffff1681565b6102f96104a1366004612ce4565b611b8d565b61029e6104b4366004612984565b611bbc565b6039546102f9906001600160a01b031681565b6102c3600081565b6102c3603c5481565b60335461029e9060ff1681565b6102e46104f8366004612d06565b611bf4565b603e5461051290600160681b900461ffff1681565b60405161ffff9091168152602001610282565b6000546102c3565b6102c360375481565b6102c360008051602061366383398151915281565b6102c36105593660046128bb565b611c95565b6102e461056c366004612d2d565b611cc2565b6102e461057f366004612984565b611d6d565b6102e46105923660046128bb565b611d89565b6102e46105a53660046128bb565b611e11565b610275611e6d565b6102756105c03660046128bb565b611f2e565b6102c37ffdd95c635b6fde1e24676722ae45d4e9072f4947c3c68d69c7de01654c84050981565b6102e46105fa366004612d06565b611fe3565b610607612753565b60335460ff1661062a5760405163e8907a5560e01b815260040160405180910390fd5b5060408051610100810182526034546001600160401b038082168352600160401b820481166020840152600160801b808304821694840194909452600160c01b9091041660608201526035546001600160801b03808216608084015290839004811660a083015260365480821660c08401529290920490911660e082015290565b60006001600160e01b03198216635a05180f60e01b14806106d057506106d082612094565b92915050565b60008051602061353b8339815191526106ee816120c9565b60335460ff166107115760405163e8907a5560e01b815260040160405180910390fd5b60408051610100810182526034546001600160401b038082168352600160401b820481166020840152600160801b808304821694840194909452600160c01b9091041660608201526035546001600160801b03808216608084015290839004811660a083015260365480821660c08401529290920490911660e082015261079b90868686866120d3565b6107b96000603481905560358190556036556033805460ff19169055565b5050505050565b6000908152600080516020613623833981519152602052604090206001015490565b7ffdd95c635b6fde1e24676722ae45d4e9072f4947c3c68d69c7de01654c84050961080c816120c9565b8660000361082d5760405163cab1c3df60e01b815260040160405180910390fd5b60005487106108575760405163a2720e8360e01b8152600481018890526024015b60405180910390fd5b600080888154811061086b5761086b612d4a565b6000918252602091829020600390910201915061088a90880188612d60565b81546001600160401b0390811691161415806108ca57506108b16040880160208901612d60565b8154600160401b90046001600160401b03908116911614155b156108e8576040516330af5f6160e01b815260040160405180910390fd5b6108fc6108f660018a612d93565b88610ae5565b60018101546000908190600160801b90046001600160801b031661092660c08b0160a08c01612da6565b6001600160801b03161115610970576001830154600160801b90046001600160801b031661095a60c08b0160a08c01612da6565b6109649190612dc3565b6001600160801b031691505b60018301546001600160801b031661098e60a08b0160808c01612da6565b6001600160801b031611156109d15760018301546001600160801b03166109bb60a08b0160808c01612da6565b6109c59190612dc3565b6001600160801b031690505b8860008b815481106109e5576109e5612d4a565b906000526020600020906003020181816109ff9190612dfd565b905050897fbf4fd4e67b3409061e5be46d3e4b2b7c8edfad56ccfc8131e0cc7ffd79e104a58a604051610a329190613015565b60405180910390a26000821180610a495750600081115b15610ad957603b5460405163d68d053b60e01b81526004810184905260248101839052600060448201526001600160a01b038a81166064830152898116608483015260a4820189905260c482018890529091169063d68d053b9060e401600060405180830381600087803b158015610ac057600080fd5b505af1158015610ad4573d6000803e3d6000fd5b505050505b50505050505050505050565b6000808381548110610af957610af9612d4a565b60009182526020918290206003909102019150610b1890830183612d60565b6001600160401b0316610b316040840160208501612d60565b6001600160401b031611610b8857610b4f6040830160208401612d60565b610b5c6020840184612d60565b604051634ccf003d60e11b81526001600160401b0392831660048201529116602482015260440161084e565b8054610ba590600160401b90046001600160401b03166001613024565b6001600160401b0316610bbb6020840184612d60565b6001600160401b031614610c1f578054610be690600160401b90046001600160401b03166001613024565b610bf36020840184612d60565b6040516356ae644360e01b81526001600160401b0392831660048201529116602482015260440161084e565b603a60009054906101000a90046001600160a01b03166001600160a01b03166360a0f6286040518163ffffffff1660e01b8152600401602060405180830381865afa158015610c72573d6000803e3d6000fd5b505050506040513d601f19601f82011682018060405250810190610c969190613044565b610ca7610100840160e08501612da6565b6001600160801b03161115610d6857610cc7610100830160e08401612da6565b603a60009054906101000a90046001600160a01b03166001600160a01b03166360a0f6286040518163ffffffff1660e01b8152600401602060405180830381865afa158015610d1a573d6000803e3d6000fd5b505050506040513d601f19601f82011682018060405250810190610d3e9190613044565b604051638cf753bf60e01b81526001600160801b039092166004830152602482015260440161084e565b603a60009054906101000a90046001600160a01b03166001600160a01b031663bb635c656040518163ffffffff1660e01b8152600401602060405180830381865afa158015610dbb573d6000803e3d6000fd5b505050506040513d601f19601f82011682018060405250810190610ddf9190613044565b610def6080840160608501612d60565b6001600160401b0316610e086060850160408601612d60565b6001600160401b0316610e1b919061305d565b1115610eec57610e316080830160608401612d60565b610e416060840160408501612d60565b610e4b9190613024565b603a60009054906101000a90046001600160a01b03166001600160a01b031663bb635c656040518163ffffffff1660e01b8152600401602060405180830381865afa158015610e9e573d6000803e3d6000fd5b505050506040513d601f19601f82011682018060405250810190610ec29190613044565b604051635daed79d60e11b81526001600160401b039092166004830152602482015260440161084e565b505050565b610efa826107c0565b610f03816120c9565b610f0d83836122b4565b50505050565b600080516020613663833981519152610f2b816120c9565b62ffffff8216620f424080821115610f565760405163c52a9bd360e01b815260040160405180910390fd5b603e805462ffffff60501b1916600160501b62ffffff871690810291909117909155604080516020810192909252633039291760e01b91600080516020613643833981519152910160408051601f1981840301815290829052610fb891613070565b60405180910390a250505050565b603960009054906101000a90046001600160a01b03166001600160a01b031663b4a550376040518163ffffffff1660e01b8152600401602060405180830381865afa158015611019573d6000803e3d6000fd5b505050506040513d601f19601f8201168201806040525081019061103d91906130c3565b1561105b576040516313d0ff5960e31b815260040160405180910390fd5b6038546001600160a01b0316331461109b57603854604051633096000d60e11b81523360048201526001600160a01b03909116602482015260440161084e565b60335460ff16156110bf5760405163452d764960e01b815260040160405180910390fd5b6000546110d8906110d290600190612d93565b86610ae5565b6037546000906110ee6040880160208901612d60565b6001600160401b0316611101919061305d565b905080431015611127576040516303f868a560e31b81526004810182905260240161084e565b600080600061113d611137611e6d565b8a611623565b92509250925060008351111561121f5788603461115a8282612dfd565b50506033805460ff19166001179055825160208401206040517fc51d8bb32a3937963ee762598769c0e402bdbed204707576884f84040cf542cf906111a69086908d90879087906130e5565b60405180910390a2603960009054906101000a90046001600160a01b03166001600160a01b031663595c6a676040518163ffffffff1660e01b8152600401600060405180830381600087803b1580156111fe57600080fd5b505af1158015611212573d6000803e3d6000fd5b50505050505050506107b9565b61123a611231368b90038b018b61311d565b898989896120d3565b505050505050505050565b6001600160a01b038116331461126e5760405163334bd91960e11b815260040160405180910390fd5b610eec82826122f9565b60008051602061353b833981519152611290816120c9565b60335460ff166112b35760405163e8907a5560e01b815260040160405180910390fd5b7f4b640a37d59363bc1349d416626728534e5c58049e5f64f50f1090cabf152ab160346040516112e3919061313a565b60405180910390a16113096000603481905560358190556036556033805460ff19169055565b50565b600080516020613663833981519152611324816120c9565b603c82905560408051602081018490526357ab170360e01b91600080516020613643833981519152910160408051601f1981840301815290829052611368916131a9565b60405180910390a25050565b7ff0c57e16840df040f15088dc2f81fe391c3923bec73e23a9662efc9c229c6a008054600160401b810460ff1615906001600160401b03166000811580156113b95750825b90506000826001600160401b031660011480156113d55750303b155b9050811580156113e3575080155b156114015760405163f92ee8a960e01b815260040160405180910390fd5b845467ffffffffffffffff19166001178555831561142b57845460ff60401b1916600160401b1785555b611433612335565b8551611441906000906122b4565b5061145e60008051602061366383398151915287602001516122b4565b5061147b60008051602061353b83398151915287606001516122b4565b506080860151603b80546001600160a01b03199081166001600160a01b039384161790915560408089015160388054841691851691909117905560a089015160398054841691851691909117905560c0890151603a805490931693169283179091556037819055603e80546801bc16d674ec800000603c819055603d556effffffffffffffffffffffffffffff19166d640003e8000002e72a000000076f179055805161010081018252600081528151635c8ac85960e11b815291516115d59391926020808501939263b91590b29260048181019392918290030181865afa15801561156b573d6000803e3d6000fd5b505050506040513d601f19601f8201168201806040525081019061158f9190613044565b6001600160401b031681526000602080830182905260408301829052606083018290526080830182905260a0830182905260c090920181905290890151908190806120d3565b831561161b57845460ff60401b19168555604051600181527fc7f505b2f371ae2175ee4913f4499e1f2633a7b5936321eed1cdaeb6115181d29060200160405180910390a15b505050505050565b6060600080806116366020860186612d60565b6116466040870160208801612d60565b61165091906131fb565b61165b906001613024565b603e54909150600160681b900461ffff166001600160401b03821610156116c35780603e600d9054906101000a900461ffff166040518060600160405280602181526020016134e46021913995506001600160401b03909116935061ffff169150611b0e9050565b85606001516001600160401b03168560600160208101906116e49190612d60565b6001600160401b0316101561173a576117036080860160608701612d60565b86606001516040518060600160405280603681526020016135056036913995506001600160401b039182169450169150611b0e9050565b6000866060015187604001516117509190613024565b6001600160401b03169050600061176d6080880160608901612d60565b61177d6060890160408a01612d60565b6117879190613024565b6001600160401b03169050818110156117c55780826040518060600160405280602481526020016135ff602491399190955095509550505050611b0e565b50508560e001516001600160801b03168560e00160208101906117e89190612da6565b6001600160801b0316101561183f57611808610100860160e08701612da6565b8660e001516040518060600160405280602281526020016135b16022913995506001600160801b039182169450169150611b0e9050565b60008660e001518660e00160208101906118599190612da6565b6118639190612dc3565b6001600160801b0316905060008760600151886040015188606001602081019061188d9190612d60565b61189d60608b0160408c01612d60565b6118a79190613024565b6118b191906131fb565b6118bb91906131fb565b6001600160401b03169050603c54816118d4919061321b565b8210156119135781603c54826118ea919061321b565b6040518060600160405280602c81526020016135d3602c91399190955095509550505050611b0e565b603d54611920908261321b565b82111561195f5781603d5482611936919061321b565b6040518060600160405280602c8152602001613498602c91399190955095509550505050611b0e565b505060008660e001518660e001602081019061197b9190612da6565b6119859190612dc3565b8760c001516119949190613232565b6001600160801b0316905060006119b160c0880160a08901612da6565b6119c160a0890160808a01612da6565b6119d160e08a0160c08b01612da6565b6119db9190613232565b6119e59190613232565b603e546001600160801b03919091169150600090611a2490611a0f90869064ffffffffff16613252565b6001600160401b03168464e8d4a5100061233f565b603e54611a4190600160501b900462ffffff1685620f424061233f565b611a4b9085612d93565b611a55919061305d565b905080821015611a8b57818160405180606001604052806031815260200161358060319139919096509650965050505050611b0e565b50603e54600090611ab190611a0f90869065010000000000900464ffffffffff16613252565b611abb908461305d565b905080821115611af157818160405180606001604052806025815260200161355b60259139919096509650965050505050611b0e565b505060408051602081019091526000808252909550935083925050505b9250925092565b600080516020613663833981519152611b2d816120c9565b603e805461ffff60681b1916600160681b61ffff851690810291909117909155604080516020810192909252631dc7ac4160e21b91600080516020613643833981519152910160408051601f19818403018152908290526113689161327d565b60008281526000805160206134c4833981519152602081905260408220611bb49084612403565b949350505050565b6000918252600080516020613623833981519152602090815260408084206001600160a01b0393909316845291905290205460ff1690565b600080516020613663833981519152611c0c816120c9565b64ffffffffff821664e8d4a5100080821115611c3b5760405163c52a9bd360e01b815260040160405180910390fd5b603e805464ffffffffff191664ffffffffff861690811790915560408051602081019290925263ac43459d60e01b91600080516020613643833981519152910160408051601f1981840301815290829052610fb8916132c4565b60008181526000805160206134c4833981519152602081905260408220611cbb9061240f565b9392505050565b600080516020613663833981519152611cda816120c9565b816001600160a01b038116611d025760405163d92e233d60e01b815260040160405180910390fd5b603880546001600160a01b0319166001600160a01b03851690811790915560408051602081019290925263cec5afe760e01b91600080516020613643833981519152910160408051601f1981840301815290829052611d609161331f565b60405180910390a2505050565b611d76826107c0565b611d7f816120c9565b610f0d83836122f9565b600080516020613663833981519152611da1816120c9565b811580611daf575061080082115b15611dcd5760405163c52a9bd360e01b815260040160405180910390fd5b6037829055604080516020810184905263720df76d60e11b91600080516020613643833981519152910160408051601f198184030181529082905261136891613366565b600080516020613663833981519152611e29816120c9565b603d829055604080516020810184905263f0402cbf60e01b91600080516020613643833981519152910160408051601f1981840301815290829052611368916133be565b611e75612753565b60008054611e8590600190612d93565b81548110611e9557611e95612d4a565b60009182526020918290206040805161010081018252600390930290910180546001600160401b038082168552600160401b8204811695850195909552600160801b808204861693850193909352600160c01b9004909316606083015260018301546001600160801b03808216608085015290829004811660a084015260029093015480841660c08401520490911660e0820152919050565b611f36612753565b60008281548110611f4957611f49612d4a565b60009182526020918290206040805161010081018252600390930290910180546001600160401b038082168552600160401b8204811695850195909552600160801b808204861693850193909352600160c01b9004909316606083015260018301546001600160801b03808216608085015290829004811660a084015260029093015480841660c08401520490911660e082015292915050565b600080516020613663833981519152611ffb816120c9565b64ffffffffff821664e8d4a510008082111561202a5760405163c52a9bd360e01b815260040160405180910390fd5b603e805469ffffffffff000000000019166501000000000064ffffffffff871690810291909117909155604080516020810192909252631fb8905d60e31b91600080516020613643833981519152910160408051601f1981840301815290829052610fb891613410565b60006001600160e01b03198216637965db0b60e01b14806106d057506301ffc9a760e01b6001600160e01b03198316146106d0565b6113098133612419565b6000546040517f3c2dada747e62514e16b7263ff08ee5566260a1a36eb50e2752f577f8f29974f90612106908890612797565b60405180910390a2600080546001808201835591805286517f290decd9548b62a8d60345a988386fc84ba6bc95484008f6362f93160ef3e5636003909202918201805460208a01516040808c015160608d01516001600160401b039687166001600160801b031990951694909417600160401b93871693909302929092176001600160801b03908116600160801b93871684026001600160c01b031617600160c01b96909416959095029290921790925560808a015160a08b015190841690841680840282177f290decd9548b62a8d60345a988386fc84ba6bc95484008f6362f93160ef3e56487015560c08c015160e08d01519086169516909302939093177f290decd9548b62a8d60345a988386fc84ba6bc95484008f6362f93160ef3e56590940193909355603b54925163d68d053b60e01b81526004810191909152602481019190915260448101929092526001600160a01b038681166064840152858116608484015260a4830185905260c48301849052169063d68d053b9060e401600060405180830381600087803b1580156122a057600080fd5b505af115801561123a573d6000803e3d6000fd5b60006000805160206134c4833981519152816122d08585612456565b90508015611bb45760008581526020839052604090206122f09085612502565b50949350505050565b60006000805160206134c4833981519152816123158585612517565b90508015611bb45760008581526020839052604090206122f09085612593565b61233d6125a8565b565b60008383028160001985870982811083820303915050806000036123765783828161236c5761236c61346b565b0492505050611cbb565b8084116123965760405163227bc15360e01b815260040160405180910390fd5b6000848688096000868103871696879004966002600389028118808a02820302808a02820302808a02820302808a02820302808a02820302808a02909103029181900381900460010186841190950394909402919094039290920491909117919091029150509392505050565b6000611cbb83836125f1565b60006106d0825490565b6124238282611bbc565b6124525760405163e2517d3f60e01b81526001600160a01b03821660048201526024810183905260440161084e565b5050565b60006000805160206136238339815191526124718484611bbc565b6124f1576000848152602082815260408083206001600160a01b03871684529091529020805460ff191660011790556124a73390565b6001600160a01b0316836001600160a01b0316857f2f8788117e7eff1d82e926ec794901d17c78024a50270940304540a733656f0d60405160405180910390a460019150506106d0565b60009150506106d0565b5092915050565b6000611cbb836001600160a01b03841661261b565b60006000805160206136238339815191526125328484611bbc565b156124f1576000848152602082815260408083206001600160a01b0387168085529252808320805460ff1916905551339287917ff6391f5c32d9c69d2a47ea670b442974b53935d1edc7fd64eb21e047a839171b9190a460019150506106d0565b6000611cbb836001600160a01b03841661266a565b7ff0c57e16840df040f15088dc2f81fe391c3923bec73e23a9662efc9c229c6a0054600160401b900460ff1661233d57604051631afcd79f60e31b815260040160405180910390fd5b600082600001828154811061260857612608612d4a565b9060005260206000200154905092915050565b6000818152600183016020526040812054612662575081546001818101845560008481526020808220909301849055845484825282860190935260409020919091556106d0565b5060006106d0565b600081815260018301602052604081205480156124f157600061268e600183612d93565b85549091506000906126a290600190612d93565b90508082146127075760008660000182815481106126c2576126c2612d4a565b90600052602060002001549050808760000184815481106126e5576126e5612d4a565b6000918252602080832090910192909255918252600188019052604090208390555b855486908061271857612718613481565b6001900381819060005260206000200160009055905585600101600086815260200190815260200160002060009055600193505050506106d0565b6040805161010081018252600080825260208201819052918101829052606081018290526080810182905260a0810182905260c0810182905260e081019190915290565b6000610100820190506001600160401b03808451168352806020850151166020840152806040850151166040840152806060850151166060840152506001600160801b03608084015116608083015260a083015161280060a08401826001600160801b03169052565b5060c083015161281b60c08401826001600160801b03169052565b5060e08301516124fb60e08401826001600160801b03169052565b60006020828403121561284857600080fd5b81356001600160e01b031981168114611cbb57600080fd5b6001600160a01b038116811461130957600080fd5b6000806000806080858703121561288b57600080fd5b843561289681612860565b935060208501356128a681612860565b93969395505050506040820135916060013590565b6000602082840312156128cd57600080fd5b5035919050565b600061010082840312156128e757600080fd5b50919050565b6000806000806000806101a0878903121561290757600080fd5b8635955061291888602089016128d4565b945061012087013561292981612860565b935061014087013561293a81612860565b9598949750929561016081013594610180909101359350915050565b600080610120838503121561296a57600080fd5b8235915061297b84602085016128d4565b90509250929050565b6000806040838503121561299757600080fd5b8235915060208301356129a981612860565b809150509250929050565b6000602082840312156129c657600080fd5b813562ffffff81168114611cbb57600080fd5b600080600080600061018086880312156129f257600080fd5b6129fc87876128d4565b9450610100860135612a0d81612860565b9350610120860135612a1e81612860565b949793965093946101408101359450610160013592915050565b8035612a4381612860565b919050565b600060e08284031215612a5a57600080fd5b60405160e081018181106001600160401b0382111715612a8a57634e487b7160e01b600052604160045260246000fd5b6040528235612a9881612860565b81526020830135612aa881612860565b60208201526040830135612abb81612860565b60408201526060830135612ace81612860565b6060820152612adf60808401612a38565b6080820152612af060a08401612a38565b60a0820152612b0160c08401612a38565b60c08201529392505050565b6001600160401b038116811461130957600080fd5b8035612a4381612b0d565b6001600160801b038116811461130957600080fd5b8035612a4381612b2d565b6000610100808385031215612b6157600080fd5b604051908101906001600160401b0382118183101715612b9157634e487b7160e01b600052604160045260246000fd5b8160405280925083359150612ba582612b0d565b818152612bb460208501612b22565b6020820152612bc560408501612b22565b6040820152612bd660608501612b22565b6060820152612be760808501612b42565b6080820152612bf860a08501612b42565b60a0820152612c0960c08501612b42565b60c0820152612c1a60e08501612b42565b60e0820152505092915050565b6000806102008385031215612c3b57600080fd5b612c458484612b4d565b915061297b8461010085016128d4565b6000815180845260005b81811015612c7b57602081850181015186830182015201612c5f565b506000602082860101526020601f19601f83011685010191505092915050565b606081526000612cae6060830186612c55565b60208301949094525060400152919050565b600060208284031215612cd257600080fd5b813561ffff81168114611cbb57600080fd5b60008060408385031215612cf757600080fd5b50508035926020909101359150565b600060208284031215612d1857600080fd5b813564ffffffffff81168114611cbb57600080fd5b600060208284031215612d3f57600080fd5b8135611cbb81612860565b634e487b7160e01b600052603260045260246000fd5b600060208284031215612d7257600080fd5b8135611cbb81612b0d565b634e487b7160e01b600052601160045260246000fd5b818103818111156106d0576106d0612d7d565b600060208284031215612db857600080fd5b8135611cbb81612b2d565b6001600160801b038281168282160390808211156124fb576124fb612d7d565b600081356106d081612b0d565b600081356106d081612b2d565b8135612e0881612b0d565b6001600160401b03811690508154816001600160401b031982161783556020840135612e3381612b0d565b6fffffffffffffffff00000000000000008160401b16836001600160801b0319841617178455505050612e97612e6b60408401612de3565b82805467ffffffffffffffff60801b191660809290921b67ffffffffffffffff60801b16919091179055565b612eca612ea660608401612de3565b8280546001600160c01b031660c09290921b6001600160c01b031916919091179055565b60018101612efa612edd60808501612df0565b82546001600160801b0319166001600160801b0391909116178255565b612f29612f0960a08501612df0565b82546001600160801b031660809190911b6001600160801b031916178255565b5060028101612f3d612edd60c08501612df0565b610eec612f0960e08501612df0565b8035612f5781612b0d565b6001600160401b039081168352602082013590612f7382612b0d565b9081166020840152604082013590612f8a82612b0d565b9081166040840152606082013590612fa182612b0d565b166060830152612fb360808201612b42565b6001600160801b03166080830152612fcd60a08201612b42565b6001600160801b031660a0830152612fe760c08201612b42565b6001600160801b031660c083015261300160e08201612b42565b6001600160801b03811660e0840152505050565b61010081016106d08284612f4c565b6001600160401b038181168382160190808211156124fb576124fb612d7d565b60006020828403121561305657600080fd5b5051919050565b808201808211156106d0576106d0612d7d565b60408152602360408201527f7365744d6178436f6e73656e7375734c617965724c6f737350504d2875696e7460608201526232342960e81b608082015260a060208201526000611cbb60a0830184612c55565b6000602082840312156130d557600080fd5b81518015158114611cbb57600080fd5b60006101608083526130f981840188612c55565b9150506131096020830186612f4c565b610120820193909352610140015292915050565b6000610100828403121561313057600080fd5b611cbb8383612b4d565b81546001600160401b038082168352604082811c82166020850152608083811c9092169084015260c091821c606084015260018401546001600160801b038082168386015290821c60a085015260028501549081169284019290925281901c60e08301526101008201906124fb565b60408152602260408201527f7365744d696e4465706f73697450657256616c696461746f722875696e743235606082015261362960f01b608082015260a060208201526000611cbb60a0830184612c55565b6001600160401b038281168282160390808211156124fb576124fb612d7d565b80820281158282048414176106d0576106d0612d7d565b6001600160801b038181168382160190808211156124fb576124fb612d7d565b6001600160401b0381811683821602808216919082811461327557613275612d7d565b505092915050565b60408152601e60408201527f7365744d696e5265706f727453697a65426c6f636b732875696e7431362900006060820152608060208201526000611cbb6080830184612c55565b60408152602b60408201527f7365744d696e436f6e73656e7375734c617965724761696e506572426c6f636b60608201526a5050542875696e7434302960a81b608082015260a060208201526000611cbb60a0830184612c55565b60408152601960408201527f7365744f7261636c6555706461746572286164647265737329000000000000006060820152608060208201526000611cbb6080830184612c55565b60408152602860408201527f73657446696e616c697a6174696f6e426c6f636b4e756d62657244656c74612860608201526775696e743235362960c01b608082015260a060208201526000611cbb60a0830184612c55565b60408152602260408201527f7365744d61784465706f73697450657256616c696461746f722875696e743235606082015261362960f01b608082015260a060208201526000611cbb60a0830184612c55565b60408152602b60408201527f7365744d6178436f6e73656e7375734c617965724761696e506572426c6f636b60608201526a5050542875696e7434302960a81b608082015260a060208201526000611cbb60a0830184612c55565b634e487b7160e01b600052601260045260246000fd5b634e487b7160e01b600052603160045260246000fdfe4e6577206465706f736974732061626f7665206d6178206465706f736974207065722076616c696461746f72c1f6fe24621ce81ec5827caf0253cadb74709b061630e6b55e823717059320005265706f727420626c6f636b732062656c6f77206d696e696d756d20626f756e6443756d756c6174697665206e756d626572206f6620776974686472617761626c652076616c696461746f727320646563726561736564b8921042efede08ea4fb87c7cd34c42ab1e134df6d8ef481f71c91910346d835436f6e73656e737573206c61796572206368616e67652061626f7665206d6178206761696e436f6e73656e737573206c61796572206368616e67652062656c6f77206d696e206761696e206f72206d6178206c6f737350726f636573736564206465706f73697420616d6f756e74206465637265617365644e6577206465706f736974732062656c6f77206d696e206465706f736974207065722076616c696461746f72546f74616c206e756d626572206f662076616c696461746f72732064656372656173656402dd7bc7dec4dceedda775e58dd541e08a116c6c53815c0bd028192f7b62680001d854e8dde9402801a4c6f2840193465752abfad61e0bb7c4258d526ae42e74ced6982f480260bdd8ad5cb18ff2854f0306d78d904ad6cc107e8f3a0f526c18a26469706673582212203013ed9df7a35faf99f4b3b0705c469515b411027160aa29b12a4f08cbe4ea3564736f6c63430008180033","linkReferences":{}},"methodIdentifiers":{"DEFAULT_ADMIN_ROLE()":"a217fddf","ORACLE_MANAGER_ROLE()":"bfc69e1c","ORACLE_MODIFIER_ROLE()":"fb961583","ORACLE_PENDING_UPDATE_RESOLVER_ROLE()":"15afe1f6","acceptPendingUpdate(address,address,uint256,uint256)":"1c6ace55","aggregator()":"245a7bfc","finalizationBlockNumberDelta()":"bf3b91ab","getRoleAdmin(bytes32)":"248a9ca3","getRoleMember(bytes32,uint256)":"9010d07c","getRoleMemberCount(bytes32)":"ca15c873","grantRole(bytes32,address)":"2f2ff15d","hasPendingUpdate()":"aa5180e8","hasRole(bytes32,address)":"91d14854","initialize((address,address,address,address,address,address,address))":"67d5f337","latestRecord()":"f3a009a0","maxConsensusLayerGainPerBlockPPT()":"8543d1a7","maxConsensusLayerLossPPM()":"4253e0c0","maxDepositPerValidator()":"491e0bd1","minConsensusLayerGainPerBlockPPT()":"59d3005d","minDepositPerValidator()":"a78dce76","minReportSizeBlocks()":"b553cad7","modifyExistingRecord(uint256,(uint64,uint64,uint64,uint64,uint128,uint128,uint128,uint128),address,address,uint256,uint256)":"26c5b3a0","numRecords()":"b5d1990d","oracleUpdater()":"805d64a0","pauser()":"9fd0506d","pendingUpdate()":"00a4dcac","receiveRecord((uint64,uint64,uint64,uint64,uint128,uint128,uint128,uint128),address,address,uint256,uint256)":"3187a6ff","recordAt(uint256)":"fb483fb1","rejectPendingUpdate()":"4c62d42e","renounceRole(bytes32,address)":"36568abe","revokeRole(bytes32,address)":"d547741f","sanityCheckUpdate((uint64,uint64,uint64,uint64,uint128,uint128,uint128,uint128),(uint64,uint64,uint64,uint64,uint128,uint128,uint128,uint128))":"6e710e05","setFinalizationBlockNumberDelta(uint256)":"e41beeda","setMaxConsensusLayerGainPerBlockPPT(uint40)":"fdc482e8","setMaxConsensusLayerLossPPM(uint24)":"30392917","setMaxDepositPerValidator(uint256)":"f0402cbf","setMinConsensusLayerGainPerBlockPPT(uint40)":"ac43459d","setMinDepositPerValidator(uint256)":"57ab1703","setMinReportSizeBlocks(uint16)":"771eb104","setOracleUpdater(address)":"cec5afe7","staking()":"4cf088d9","supportsInterface(bytes4)":"01ffc9a7","validateUpdate(uint256,(uint64,uint64,uint64,uint64,uint128,uint128,uint128,uint128))":"28e8f400"},"id":59}