{"abi":[{"type":"constructor","inputs":[],"stateMutability":"nonpayable"},{"type":"receive","stateMutability":"payable"},{"type":"function","name":"AGGREGATOR_MANAGER_ROLE","inputs":[],"outputs":[{"name":"","type":"bytes32","internalType":"bytes32"}],"stateMutability":"view"},{"type":"function","name":"DEFAULT_ADMIN_ROLE","inputs":[],"outputs":[{"name":"","type":"bytes32","internalType":"bytes32"}],"stateMutability":"view"},{"type":"function","name":"consensusLayerReceiver","inputs":[],"outputs":[{"name":"","type":"address","internalType":"contract ReturnsReceiver"}],"stateMutability":"view"},{"type":"function","name":"executionLayerReceiver","inputs":[],"outputs":[{"name":"","type":"address","internalType":"contract ReturnsReceiver"}],"stateMutability":"view"},{"type":"function","name":"feesBasisPoints","inputs":[],"outputs":[{"name":"","type":"uint16","internalType":"uint16"}],"stateMutability":"view"},{"type":"function","name":"feesReceiver","inputs":[],"outputs":[{"name":"","type":"address","internalType":"address payable"}],"stateMutability":"view"},{"type":"function","name":"gasLimit","inputs":[],"outputs":[{"name":"","type":"uint256","internalType":"uint256"}],"stateMutability":"view"},{"type":"function","name":"getRoleAdmin","inputs":[{"name":"role","type":"bytes32","internalType":"bytes32"}],"outputs":[{"name":"","type":"bytes32","internalType":"bytes32"}],"stateMutability":"view"},{"type":"function","name":"getRoleMember","inputs":[{"name":"role","type":"bytes32","internalType":"bytes32"},{"name":"index","type":"uint256","internalType":"uint256"}],"outputs":[{"name":"","type":"address","internalType":"address"}],"stateMutability":"view"},{"type":"function","name":"getRoleMemberCount","inputs":[{"name":"role","type":"bytes32","internalType":"bytes32"}],"outputs":[{"name":"","type":"uint256","internalType":"uint256"}],"stateMutability":"view"},{"type":"function","name":"grantRole","inputs":[{"name":"role","type":"bytes32","internalType":"bytes32"},{"name":"account","type":"address","internalType":"address"}],"outputs":[],"stateMutability":"nonpayable"},{"type":"function","name":"hasRole","inputs":[{"name":"role","type":"bytes32","internalType":"bytes32"},{"name":"account","type":"address","internalType":"address"}],"outputs":[{"name":"","type":"bool","internalType":"bool"}],"stateMutability":"view"},{"type":"function","name":"initialize","inputs":[{"name":"init","type":"tuple","internalType":"struct ReturnsAggregator.Init","components":[{"name":"admin","type":"address","internalType":"address"},{"name":"manager","type":"address","internalType":"address"},{"name":"oracle","type":"address","internalType":"contract IOracleReadRecord"},{"name":"pauser","type":"address","internalType":"contract IL1Pauser"},{"name":"consensusLayerReceiver","type":"address","internalType":"contract ReturnsReceiver"},{"name":"executionLayerReceiver","type":"address","internalType":"contract ReturnsReceiver"},{"name":"staking","type":"address","internalType":"contract IStakingManagerReturnsWrite"},{"name":"feesReceiver","type":"address","internalType":"address payable"}]}],"outputs":[],"stateMutability":"nonpayable"},{"type":"function","name":"oracle","inputs":[],"outputs":[{"name":"","type":"address","internalType":"contract IOracleReadRecord"}],"stateMutability":"view"},{"type":"function","name":"pauser","inputs":[],"outputs":[{"name":"","type":"address","internalType":"contract IL1Pauser"}],"stateMutability":"view"},{"type":"function","name":"processReturns","inputs":[{"name":"rewardAmount","type":"uint256","internalType":"uint256"},{"name":"principalAmount","type":"uint256","internalType":"uint256"},{"name":"shouldIncludeELRewards","type":"bool","internalType":"bool"},{"name":"bridge","type":"address","internalType":"address"},{"name":"l2Strategy","type":"address","internalType":"address"},{"name":"sourceChainId","type":"uint256","internalType":"uint256"},{"name":"destChainId","type":"uint256","internalType":"uint256"}],"outputs":[],"stateMutability":"nonpayable"},{"type":"function","name":"renounceRole","inputs":[{"name":"role","type":"bytes32","internalType":"bytes32"},{"name":"callerConfirmation","type":"address","internalType":"address"}],"outputs":[],"stateMutability":"nonpayable"},{"type":"function","name":"revokeRole","inputs":[{"name":"role","type":"bytes32","internalType":"bytes32"},{"name":"account","type":"address","internalType":"address"}],"outputs":[],"stateMutability":"nonpayable"},{"type":"function","name":"setFeeBasisPoints","inputs":[{"name":"newBasisPoints","type":"uint16","internalType":"uint16"}],"outputs":[],"stateMutability":"nonpayable"},{"type":"function","name":"setFeesReceiver","inputs":[{"name":"newReceiver","type":"address","internalType":"address payable"}],"outputs":[],"stateMutability":"nonpayable"},{"type":"function","name":"staking","inputs":[],"outputs":[{"name":"","type":"address","internalType":"contract IStakingManagerReturnsWrite"}],"stateMutability":"view"},{"type":"function","name":"supportsInterface","inputs":[{"name":"interfaceId","type":"bytes4","internalType":"bytes4"}],"outputs":[{"name":"","type":"bool","internalType":"bool"}],"stateMutability":"view"},{"type":"event","name":"FeesCollected","inputs":[{"name":"amount","type":"uint256","indexed":false,"internalType":"uint256"}],"anonymous":false},{"type":"event","name":"Initialized","inputs":[{"name":"version","type":"uint64","indexed":false,"internalType":"uint64"}],"anonymous":false},{"type":"event","name":"ProtocolConfigChanged","inputs":[{"name":"setterSelector","type":"bytes4","indexed":true,"internalType":"bytes4"},{"name":"setterSignature","type":"string","indexed":false,"internalType":"string"},{"name":"value","type":"bytes","indexed":false,"internalType":"bytes"}],"anonymous":false},{"type":"event","name":"RoleAdminChanged","inputs":[{"name":"role","type":"bytes32","indexed":true,"internalType":"bytes32"},{"name":"previousAdminRole","type":"bytes32","indexed":true,"internalType":"bytes32"},{"name":"newAdminRole","type":"bytes32","indexed":true,"internalType":"bytes32"}],"anonymous":false},{"type":"event","name":"RoleGranted","inputs":[{"name":"role","type":"bytes32","indexed":true,"internalType":"bytes32"},{"name":"account","type":"address","indexed":true,"internalType":"address"},{"name":"sender","type":"address","indexed":true,"internalType":"address"}],"anonymous":false},{"type":"event","name":"RoleRevoked","inputs":[{"name":"role","type":"bytes32","indexed":true,"internalType":"bytes32"},{"name":"account","type":"address","indexed":true,"internalType":"address"},{"name":"sender","type":"address","indexed":true,"internalType":"address"}],"anonymous":false},{"type":"error","name":"AccessControlBadConfirmation","inputs":[]},{"type":"error","name":"AccessControlUnauthorizedAccount","inputs":[{"name":"account","type":"address","internalType":"address"},{"name":"neededRole","type":"bytes32","internalType":"bytes32"}]},{"type":"error","name":"AddressInsufficientBalance","inputs":[{"name":"account","type":"address","internalType":"address"}]},{"type":"error","name":"FailedInnerCall","inputs":[]},{"type":"error","name":"InvalidConfiguration","inputs":[]},{"type":"error","name":"InvalidInitialization","inputs":[]},{"type":"error","name":"MathOverflowedMulDiv","inputs":[]},{"type":"error","name":"NotInitializing","inputs":[]},{"type":"error","name":"NotOracle","inputs":[]},{"type":"error","name":"Paused","inputs":[]},{"type":"error","name":"ZeroAddress","inputs":[]}],"bytecode":{"object":"0x608080604052346100be576152086006557ff0c57e16840df040f15088dc2f81fe391c3923bec73e23a9662efc9c229c6a009081549060ff8260401c166100af57506001600160401b036002600160401b03198282160161006a575b60405161164d90816100c48239f35b6001600160401b031990911681179091556040519081527fc7f505b2f371ae2175ee4913f4499e1f2633a7b5936321eed1cdaeb6115181d290602090a138808061005b565b63f92ee8a960e01b8152600490fd5b600080fdfe6080604052600436101561001b575b361561001957600080fd5b005b60003560e01c806301ffc9a71461017b5780631d90828814610176578063248a9ca3146101715780632f2ff15d1461016c57806336568abe14610167578063453ba488146101625780634cf088d91461015d5780637dc0d1d0146101585780638c05a694146101535780639010d07c1461014e57806391d14854146101495780639fd0506d14610144578063a217fddf1461013f578063bca93cf51461013a578063ca15c87314610135578063cb043d0414610130578063d547741f1461012b578063d68d053b14610126578063f18e795114610121578063f2da6d6c1461011c578063f6159bea146101175763f68016b70361000e57610b77565b610b4e565b610ac3565b610910565b610664565b610615565b6105f0565b6105b7565b61058e565b610572565b610549565b6104e6565b610492565b6103e0565b6103b7565b61038e565b610365565b61031a565b61028d565b610224565b6101fb565b346101eb5760203660031901126101eb5760043563ffffffff60e01b81168091036101eb57602090635a05180f60e01b81149081156101c0575b506040519015158152f35b637965db0b60e01b8114915081156101da575b50386101b5565b6301ffc9a760e01b149050386101d3565b600080fd5b60009103126101eb57565b346101eb5760003660031901126101eb576003546040516001600160a01b039091168152602090f35b346101eb5760203660031901126101eb576004356000526000805160206115d88339815191526020526020600160406000200154604051908152f35b6001600160a01b038116036101eb57565b6004359061027e82610260565b565b6024359061027e82610260565b346101eb5760403660031901126101eb576024356004356102ad82610260565b6000918183526000805160206115d88339815191526020526102d56001604085200154610f02565b6102df8183611313565b6102e7578280f35b9082526000805160206115b883398151915260205260408220610313916001600160a01b031690611431565b5038808280f35b346101eb5760403660031901126101eb5760243561033781610260565b336001600160a01b038216036103535761001990600435610ffa565b60405163334bd91960e11b8152600490fd5b346101eb5760003660031901126101eb576002546040516001600160a01b039091168152602090f35b346101eb5760003660031901126101eb576000546040516001600160a01b039091168152602090f35b346101eb5760003660031901126101eb576001546040516001600160a01b039091168152602090f35b346101eb5760203660031901126101eb5760043561ffff8116908181036101eb57610409610e98565b6127108211610480576005549061ffff60a01b9060a01b169061ffff60a01b1916176005556040519060208201526020815261044481610a44565b7f01d854e8dde9402801a4c6f2840193465752abfad61e0bb7c4258d526ae42e746040518061047b63230169a560e21b9482610bd5565b0390a2005b60405163c52a9bd360e01b8152600490fd5b346101eb5760403660031901126101eb576004356000526000805160206115b883398151915260205260206104cd60243560406000206113e5565b905460405160039290921b1c6001600160a01b03168152f35b346101eb5760403660031901126101eb57602060ff61053d60243561050a81610260565b6004356000526000805160206115d8833981519152845260406000209060018060a01b0316600052602052604060002090565b54166040519015158152f35b346101eb5760003660031901126101eb576004546040516001600160a01b039091168152602090f35b346101eb5760003660031901126101eb57602060405160008152f35b346101eb5760003660031901126101eb576005546040516001600160a01b039091168152602090f35b346101eb5760203660031901126101eb576004356000526000805160206115b88339815191526020526020604060002054604051908152f35b346101eb5760003660031901126101eb57602061ffff60055460a01c16604051908152f35b346101eb5760403660031901126101eb5761001960243560043561063882610260565b806000526000805160206115d883398151915260205261065f600160406000200154610f02565b610ffa565b346101eb5760e03660031901126101eb5760043560443580151581036101eb576064359161069183610260565b6084359261069e84610260565b6001544793906106c4906106b8906001600160a01b031681565b6001600160a01b031690565b33036108f1576106d660243584610c50565b92806000926108c2575b506106ff9061ffff6106f960055461ffff9060a01c1690565b1661103e565b948592828061086a575b505050826107ee575b61071f9061072493610c50565b610c6e565b9182610786575b61001992508061073e575b504714610c1d565b60405181815261078091907f860c0aa5520013080c2f65981705fcdea474d9f7c3daf954656ed5e65d692d1f90602090a16005546001600160a01b031661110c565b38610736565b60005461079b906001600160a01b03166106b8565b803b156101eb5760009060046040518096819363808d663f60e01b83525af19283156107e957610019936107d0575b5061072b565b806107dd6107e392610a30565b806101f0565b386107ca565b610c62565b600254909150610806906001600160a01b03166106b8565b90813b156101eb5760405163a9059cbb60e01b815230600482015260248101849052916000908390604490829084905af19081156107e95761072493869361071f93610857575b5093509050610712565b806107dd61086492610a30565b3861084d565b600654604051630136884760e71b602082015260a435602482015260c43560448201526001600160a01b039490941660648086019190915284526108b993926108b4608485610a60565b6110b9565b50388082610709565b6003549092506106ff91506108eb906108e3906001600160a01b03166106b8565b318093610c50565b906106e0565b604051631bc2178f60e01b8152600490fd5b60e4359061027e82610260565b346101eb5760203660031901126101eb5760043561092d81610260565b610935610e98565b6001600160a01b031680156109e657806bffffffffffffffffffffffff60a01b60055416176005556040519060208201526020815261097381610a44565b7f01d854e8dde9402801a4c6f2840193465752abfad61e0bb7c4258d526ae42e7460405160408152601860408201527f73657446656573526563656976657228616464726573732900000000000000006060820152608060208201528061047b63f18e795160e01b946080830190610b95565b60405163d92e233d60e01b8152600490fd5b634e487b7160e01b600052604160045260246000fd5b610100810190811067ffffffffffffffff821117610a2b57604052565b6109f8565b67ffffffffffffffff8111610a2b57604052565b6040810190811067ffffffffffffffff821117610a2b57604052565b90601f8019910116810190811067ffffffffffffffff821117610a2b57604052565b6044359061027e82610260565b6064359061027e82610260565b6084359061027e82610260565b60a4359061027e82610260565b60c4359061027e82610260565b346101eb576101003660031901126101eb57610019604051610ae481610a0e565b610aec610271565b8152610af6610280565b6020820152610b03610a82565b6040820152610b10610a8f565b6060820152610b1d610a9c565b6080820152610b2a610aa9565b60a0820152610b37610ab6565b60c0820152610b44610903565b60e0820152610c7b565b346101eb5760003660031901126101eb5760206040516000805160206115988339815191528152f35b346101eb5760003660031901126101eb576020600654604051908152f35b919082519283825260005b848110610bc1575050826000602080949584010152601f8019910116010190565b602081830181015184830182015201610ba0565b906080610c1a9260408152601960408201527f7365744665654261736973506f696e74732875696e743136290000000000000060608201528160208201520190610b95565b90565b15610c2457565b634e487b7160e01b600052600160045260246000fd5b634e487b7160e01b600052601160045260246000fd5b91908201809211610c5d57565b610c3a565b6040513d6000823e3d90fd5b91908203918211610c5d57565b6000805160206115f883398151915280549160ff8360401c16159267ffffffffffffffff811680159081610d79575b6001149081610d6f575b159081610d66575b50610d545767ffffffffffffffff1916600117909155610ce09082610d2f57610d81565b610ce657565b6000805160206115f8833981519152805460ff60401b19169055604051600181527fc7f505b2f371ae2175ee4913f4499e1f2633a7b5936321eed1cdaeb6115181d290602090a1565b6000805160206115f8833981519152805460ff60401b1916600160401b179055610d81565b60405163f92ee8a960e01b8152600490fd5b90501538610cbc565b303b159150610cb4565b859150610caa565b60ff6000805160206115f88339815191525460401c1615610e86578051610e7091610e4e9160e09190610dbc906001600160a01b0316610f30565b506020810151610dd4906001600160a01b0316610f90565b506040810151600180546001600160a01b03199081166001600160a01b03938416179091556060830151600480548316918416919091179055608083015160028054831691841691909117905560a083015160038054831691841691909117905560c0830151600080549092169083161790559101511690565b60018060a01b03166bffffffffffffffffffffffff60a01b6005541617600555565b6005805461ffff60a01b1916607d60a31b179055565b604051631afcd79f60e31b8152600490fd5b3360009081527f561bdbb4774e11cabf72a356b016329524b93a1379084db18dc2c97c2d1d2c0f602052604090206000805160206115988339815191529060ff905b541615610ee45750565b6044906040519063e2517d3f60e01b82523360048301526024820152fd5b60008181526000805160206115d883398151915260209081526040808320338452909152902060ff90610eda565b610f3981611196565b9081610f43575090565b600080526000805160206115b8833981519152602052610f8c906001600160a01b03167f615f0f9e84155bea8cc509fe18befeb1baf65611e38a6ba60964480fb29dfd44611431565b5090565b610f998161124b565b9081610fa3575090565b6000805160206115988339815191526000526000805160206115b8833981519152602052610f8c906001600160a01b03167f3f1c06231bd8dca4862a65bf2924a732bc7aec793faaf1dd68b9c6bdefe486e4611431565b611004828261134d565b918261100f57505090565b60009182526000805160206115b88339815191526020526040909120610f8c916001600160a01b0316906114e2565b9080820290600019818409908280831092039180830392146110ae57612710908282111561109c577fbc01a36e2eb1c432ca57a786c226809d495182a9930be0ded288ce703afb7e91940990828211900360fc1b910360041c170290565b60405163227bc15360e01b8152600490fd5b505061271091500490565b929060061b622673c001603f5a02106110dd576000928392602083519301915af190565b6308c379a06000526020805278185361666543616c6c3a204e6f7420656e6f756768206761736058526064601cfd5b81471061117e576000918291829182916001600160a01b03165af13d15611179573d67ffffffffffffffff8111610a2b5760405190611155601f8201601f191660200183610a60565b8152600060203d92013e5b1561116757565b604051630a12f52160e11b8152600490fd5b611160565b60405163cd78605960e01b8152306004820152602490fd5b6001600160a01b03811660009081527fb7db2dd08fcb62d0c9e08c51941cae53c267786a0b75803fb7960902fc8ef97d60205260408120546000805160206115d88339815191529060ff1661124557818052602090815260408083206001600160a01b038516600090815292529020805460ff1916600117905533916001600160a01b0316907f2f8788117e7eff1d82e926ec794901d17c78024a50270940304540a733656f0d8180a4600190565b50905090565b6001600160a01b03811660009081527f561bdbb4774e11cabf72a356b016329524b93a1379084db18dc2c97c2d1d2c0f60205260408120600080516020611598833981519152906000805160206115d88339815191529060ff905b541661130c57818352602090815260408084206001600160a01b038616600090815292529020805460ff1916600117905533926001600160a01b0316917f2f8788117e7eff1d82e926ec794901d17c78024a50270940304540a733656f0d9080a4600190565b5050905090565b60008181526000805160206115d8833981519152602081815260408084206001600160a01b0387168552909152822091929160ff906112a6565b60008181526000805160206115d8833981519152602081815260408084206001600160a01b038716855290915282205491929160ff161561130c57818352602090815260408084206001600160a01b038616600090815292529020805460ff1916905533926001600160a01b0316917ff6391f5c32d9c69d2a47ea670b442974b53935d1edc7fd64eb21e047a839171b9080a4600190565b80548210156113fd5760005260206000200190600090565b634e487b7160e01b600052603260045260246000fd5b9161142d9183549060031b91821b91600019901b19161790565b9055565b600181019082600052816020526040600020541560001461149a578054600160401b811015610a2b5761148561146e8260018794018555846113e5565b819391549060031b91821b91600019901b19161790565b90555491600052602052604060002055600190565b505050600090565b80549081156114cc57600019918201916114bc83836113e5565b909182549160031b1b1916905555565b634e487b7160e01b600052603160045260246000fd5b600181019180600052826020526040600020549283151560001461158e576000199284840190858211610c5d578054948501948511610c5d57600095858361154597611536950361154b575b5050506114a2565b90600052602052604060002090565b55600190565b61157561156f9161155f61158594876113e5565b90549060031b1c928391876113e5565b90611413565b8590600052602052604060002090565b5538808061152e565b5050505060009056fea04f8e5e9269ada37cd14db144b4a440e16627eb30d392f72521786dd7cc2068c1f6fe24621ce81ec5827caf0253cadb74709b061630e6b55e8237170593200002dd7bc7dec4dceedda775e58dd541e08a116c6c53815c0bd028192f7b626800f0c57e16840df040f15088dc2f81fe391c3923bec73e23a9662efc9c229c6a00a26469706673582212208a873c8c2796f0167bcf6075260db7a45e4c9536fd52cf1009d16a0ed6a8b23264736f6c63430008180033","linkReferences":{}},"methodIdentifiers":{"AGGREGATOR_MANAGER_ROLE()":"f6159bea","DEFAULT_ADMIN_ROLE()":"a217fddf","consensusLayerReceiver()":"453ba488","executionLayerReceiver()":"1d908288","feesBasisPoints()":"cb043d04","feesReceiver()":"bca93cf5","gasLimit()":"f68016b7","getRoleAdmin(bytes32)":"248a9ca3","getRoleMember(bytes32,uint256)":"9010d07c","getRoleMemberCount(bytes32)":"ca15c873","grantRole(bytes32,address)":"2f2ff15d","hasRole(bytes32,address)":"91d14854","initialize((address,address,address,address,address,address,address,address))":"f2da6d6c","oracle()":"7dc0d1d0","pauser()":"9fd0506d","processReturns(uint256,uint256,bool,address,address,uint256,uint256)":"d68d053b","renounceRole(bytes32,address)":"36568abe","revokeRole(bytes32,address)":"d547741f","setFeeBasisPoints(uint16)":"8c05a694","setFeesReceiver(address)":"f18e7951","staking()":"4cf088d9","supportsInterface(bytes4)":"01ffc9a7"},"id":78}