{"abi":[{"type":"constructor","inputs":[],"stateMutability":"nonpayable"},{"type":"receive","stateMutability":"payable"},{"type":"function","name":"AGGREGATOR_MANAGER_ROLE","inputs":[],"outputs":[{"name":"","type":"bytes32","internalType":"bytes32"}],"stateMutability":"view"},{"type":"function","name":"DEFAULT_ADMIN_ROLE","inputs":[],"outputs":[{"name":"","type":"bytes32","internalType":"bytes32"}],"stateMutability":"view"},{"type":"function","name":"consensusLayerReceiver","inputs":[],"outputs":[{"name":"","type":"address","internalType":"contract ReturnsReceiver"}],"stateMutability":"view"},{"type":"function","name":"executionLayerReceiver","inputs":[],"outputs":[{"name":"","type":"address","internalType":"contract ReturnsReceiver"}],"stateMutability":"view"},{"type":"function","name":"feesBasisPoints","inputs":[],"outputs":[{"name":"","type":"uint16","internalType":"uint16"}],"stateMutability":"view"},{"type":"function","name":"feesReceiver","inputs":[],"outputs":[{"name":"","type":"address","internalType":"address payable"}],"stateMutability":"view"},{"type":"function","name":"gasLimit","inputs":[],"outputs":[{"name":"","type":"uint256","internalType":"uint256"}],"stateMutability":"view"},{"type":"function","name":"getRoleAdmin","inputs":[{"name":"role","type":"bytes32","internalType":"bytes32"}],"outputs":[{"name":"","type":"bytes32","internalType":"bytes32"}],"stateMutability":"view"},{"type":"function","name":"getRoleMember","inputs":[{"name":"role","type":"bytes32","internalType":"bytes32"},{"name":"index","type":"uint256","internalType":"uint256"}],"outputs":[{"name":"","type":"address","internalType":"address"}],"stateMutability":"view"},{"type":"function","name":"getRoleMemberCount","inputs":[{"name":"role","type":"bytes32","internalType":"bytes32"}],"outputs":[{"name":"","type":"uint256","internalType":"uint256"}],"stateMutability":"view"},{"type":"function","name":"grantRole","inputs":[{"name":"role","type":"bytes32","internalType":"bytes32"},{"name":"account","type":"address","internalType":"address"}],"outputs":[],"stateMutability":"nonpayable"},{"type":"function","name":"hasRole","inputs":[{"name":"role","type":"bytes32","internalType":"bytes32"},{"name":"account","type":"address","internalType":"address"}],"outputs":[{"name":"","type":"bool","internalType":"bool"}],"stateMutability":"view"},{"type":"function","name":"initialize","inputs":[{"name":"init","type":"tuple","internalType":"struct ReturnsAggregator.Init","components":[{"name":"admin","type":"address","internalType":"address"},{"name":"manager","type":"address","internalType":"address"},{"name":"oracle","type":"address","internalType":"contract IOracleReadRecord"},{"name":"pauser","type":"address","internalType":"contract IL1Pauser"},{"name":"consensusLayerReceiver","type":"address","internalType":"contract ReturnsReceiver"},{"name":"executionLayerReceiver","type":"address","internalType":"contract ReturnsReceiver"},{"name":"staking","type":"address","internalType":"contract IStakingManagerReturnsWrite"},{"name":"feesReceiver","type":"address","internalType":"address payable"}]}],"outputs":[],"stateMutability":"nonpayable"},{"type":"function","name":"oracle","inputs":[],"outputs":[{"name":"","type":"address","internalType":"contract IOracleReadRecord"}],"stateMutability":"view"},{"type":"function","name":"pauser","inputs":[],"outputs":[{"name":"","type":"address","internalType":"contract IL1Pauser"}],"stateMutability":"view"},{"type":"function","name":"processReturns","inputs":[{"name":"rewardAmount","type":"uint256","internalType":"uint256"},{"name":"principalAmount","type":"uint256","internalType":"uint256"},{"name":"shouldIncludeELRewards","type":"bool","internalType":"bool"},{"name":"bridge","type":"address","internalType":"address"},{"name":"l2Strategy","type":"address","internalType":"address"},{"name":"sourceChainId","type":"uint256","internalType":"uint256"},{"name":"destChainId","type":"uint256","internalType":"uint256"}],"outputs":[],"stateMutability":"nonpayable"},{"type":"function","name":"renounceRole","inputs":[{"name":"role","type":"bytes32","internalType":"bytes32"},{"name":"callerConfirmation","type":"address","internalType":"address"}],"outputs":[],"stateMutability":"nonpayable"},{"type":"function","name":"revokeRole","inputs":[{"name":"role","type":"bytes32","internalType":"bytes32"},{"name":"account","type":"address","internalType":"address"}],"outputs":[],"stateMutability":"nonpayable"},{"type":"function","name":"setFeeBasisPoints","inputs":[{"name":"newBasisPoints","type":"uint16","internalType":"uint16"}],"outputs":[],"stateMutability":"nonpayable"},{"type":"function","name":"setFeesReceiver","inputs":[{"name":"newReceiver","type":"address","internalType":"address payable"}],"outputs":[],"stateMutability":"nonpayable"},{"type":"function","name":"staking","inputs":[],"outputs":[{"name":"","type":"address","internalType":"contract IStakingManagerReturnsWrite"}],"stateMutability":"view"},{"type":"function","name":"supportsInterface","inputs":[{"name":"interfaceId","type":"bytes4","internalType":"bytes4"}],"outputs":[{"name":"","type":"bool","internalType":"bool"}],"stateMutability":"view"},{"type":"event","name":"FeesCollected","inputs":[{"name":"amount","type":"uint256","indexed":false,"internalType":"uint256"}],"anonymous":false},{"type":"event","name":"Initialized","inputs":[{"name":"version","type":"uint64","indexed":false,"internalType":"uint64"}],"anonymous":false},{"type":"event","name":"ProtocolConfigChanged","inputs":[{"name":"setterSelector","type":"bytes4","indexed":true,"internalType":"bytes4"},{"name":"setterSignature","type":"string","indexed":false,"internalType":"string"},{"name":"value","type":"bytes","indexed":false,"internalType":"bytes"}],"anonymous":false},{"type":"event","name":"RoleAdminChanged","inputs":[{"name":"role","type":"bytes32","indexed":true,"internalType":"bytes32"},{"name":"previousAdminRole","type":"bytes32","indexed":true,"internalType":"bytes32"},{"name":"newAdminRole","type":"bytes32","indexed":true,"internalType":"bytes32"}],"anonymous":false},{"type":"event","name":"RoleGranted","inputs":[{"name":"role","type":"bytes32","indexed":true,"internalType":"bytes32"},{"name":"account","type":"address","indexed":true,"internalType":"address"},{"name":"sender","type":"address","indexed":true,"internalType":"address"}],"anonymous":false},{"type":"event","name":"RoleRevoked","inputs":[{"name":"role","type":"bytes32","indexed":true,"internalType":"bytes32"},{"name":"account","type":"address","indexed":true,"internalType":"address"},{"name":"sender","type":"address","indexed":true,"internalType":"address"}],"anonymous":false},{"type":"error","name":"AccessControlBadConfirmation","inputs":[]},{"type":"error","name":"AccessControlUnauthorizedAccount","inputs":[{"name":"account","type":"address","internalType":"address"},{"name":"neededRole","type":"bytes32","internalType":"bytes32"}]},{"type":"error","name":"AddressInsufficientBalance","inputs":[{"name":"account","type":"address","internalType":"address"}]},{"type":"error","name":"FailedInnerCall","inputs":[]},{"type":"error","name":"InvalidConfiguration","inputs":[]},{"type":"error","name":"InvalidInitialization","inputs":[]},{"type":"error","name":"MathOverflowedMulDiv","inputs":[]},{"type":"error","name":"NotInitializing","inputs":[]},{"type":"error","name":"NotOracle","inputs":[]},{"type":"error","name":"Paused","inputs":[]},{"type":"error","name":"ZeroAddress","inputs":[]}],"bytecode":{"object":"0x608060405261520860065534801561001657600080fd5b5061001f610024565b6100d6565b7ff0c57e16840df040f15088dc2f81fe391c3923bec73e23a9662efc9c229c6a00805468010000000000000000900460ff16156100745760405163f92ee8a960e01b815260040160405180910390fd5b80546001600160401b03908116146100d35780546001600160401b0319166001600160401b0390811782556040519081527fc7f505b2f371ae2175ee4913f4499e1f2633a7b5936321eed1cdaeb6115181d29060200160405180910390a15b50565b61155f806100e56000396000f3fe6080604052600436106101395760003560e01c80639fd0506d116100ab578063d547741f1161006f578063d547741f1461038c578063d68d053b146103ac578063f18e7951146103cc578063f2da6d6c146103ec578063f6159bea1461040c578063f68016b71461042e57600080fd5b80639fd0506d146102e2578063a217fddf14610302578063bca93cf514610317578063ca15c87314610337578063cb043d041461035757600080fd5b8063453ba488116100fd578063453ba488146102225780634cf088d9146102425780637dc0d1d0146102625780638c05a694146102825780639010d07c146102a257806391d14854146102c257600080fd5b806301ffc9a7146101455780631d9082881461017a578063248a9ca3146101b25780632f2ff15d146101e057806336568abe1461020257600080fd5b3661014057005b600080fd5b34801561015157600080fd5b5061016561016036600461111d565b610444565b60405190151581526020015b60405180910390f35b34801561018657600080fd5b5060035461019a906001600160a01b031681565b6040516001600160a01b039091168152602001610171565b3480156101be57600080fd5b506101d26101cd366004611147565b61046f565b604051908152602001610171565b3480156101ec57600080fd5b506102006101fb366004611185565b610491565b005b34801561020e57600080fd5b5061020061021d366004611185565b6104b3565b34801561022e57600080fd5b5060025461019a906001600160a01b031681565b34801561024e57600080fd5b5060005461019a906001600160a01b031681565b34801561026e57600080fd5b5060015461019a906001600160a01b031681565b34801561028e57600080fd5b5061020061029d3660046111b5565b6104eb565b3480156102ae57600080fd5b5061019a6102bd3660046111d9565b6105a8565b3480156102ce57600080fd5b506101656102dd366004611185565b6105d7565b3480156102ee57600080fd5b5060045461019a906001600160a01b031681565b34801561030e57600080fd5b506101d2600081565b34801561032357600080fd5b5060055461019a906001600160a01b031681565b34801561034357600080fd5b506101d2610352366004611147565b61060f565b34801561036357600080fd5b5060055461037990600160a01b900461ffff1681565b60405161ffff9091168152602001610171565b34801561039857600080fd5b506102006103a7366004611185565b61063c565b3480156103b857600080fd5b506102006103c73660046111fb565b610658565b3480156103d857600080fd5b506102006103e7366004611271565b61089f565b3480156103f857600080fd5b5061020061040736600461128e565b61095c565b34801561041857600080fd5b506101d26000805160206114ca83398151915281565b34801561043a57600080fd5b506101d260065481565b60006001600160e01b03198216635a05180f60e01b1480610469575061046982610b2b565b92915050565b600090815260008051602061150a833981519152602052604090206001015490565b61049a8261046f565b6104a381610b60565b6104ad8383610b6d565b50505050565b6001600160a01b03811633146104dc5760405163334bd91960e11b815260040160405180910390fd5b6104e68282610bb2565b505050565b6000805160206114ca83398151915261050381610b60565b61271061ffff8316111561052a5760405163c52a9bd360e01b815260040160405180910390fd5b6005805461ffff60a01b1916600160a01b61ffff85169081029190911790915560408051602081019290925263230169a560e21b917f01d854e8dde9402801a4c6f2840193465752abfad61e0bb7c4258d526ae42e74910160408051601f198184030181529082905261059c916113a7565b60405180910390a25050565b60008281526000805160206114ea8339815191526020819052604082206105cf9084610bee565b949350505050565b600091825260008051602061150a833981519152602090815260408084206001600160a01b0393909316845291905290205460ff1690565b60008181526000805160206114ea83398151915260208190526040822061063590610bfa565b9392505050565b6106458261046f565b61064e81610b60565b6104ad8383610bb2565b60015447906001600160a01b0316331461068557604051631bc2178f60e01b815260040160405180910390fd5b6000610691888a611404565b905088600088156106b757506003546001600160a01b0316316106b48183611404565b91505b6005546000906106d590600160a01b900461ffff1684612710610c04565b905030821561073d57600654604051602481018a9052604481018990526001600160a01b038b16606482015261073b918c91869060840160408051601f198184030181529190526020810180516001600160e01b0316630136884760e71b179052610cc8565b505b84156107aa5760025460405163a9059cbb60e01b81526001600160a01b038381166004830152602482018890529091169063a9059cbb90604401600060405180830381600087803b15801561079157600080fd5b505af11580156107a5573d6000803e3d6000fd5b505050505b6000826107b78588611404565b6107c19190611417565b905080156108315760008054906101000a90046001600160a01b03166001600160a01b031663808d663f826040518263ffffffff1660e01b81526004016000604051808303818588803b15801561081757600080fd5b505af115801561082b573d6000803e3d6000fd5b50505050505b8215610880576040518381527f860c0aa5520013080c2f65981705fcdea474d9f7c3daf954656ed5e65d692d1f9060200160405180910390a1600554610880906001600160a01b031684610d26565b5050505050508047146108955761089561142a565b5050505050505050565b6000805160206114ca8339815191526108b781610b60565b816001600160a01b0381166108df5760405163d92e233d60e01b815260040160405180910390fd5b600580546001600160a01b0319166001600160a01b03851690811790915560408051602081019290925263f18e795160e01b917f01d854e8dde9402801a4c6f2840193465752abfad61e0bb7c4258d526ae42e74910160408051601f198184030181529082905261094f91611440565b60405180910390a2505050565b7ff0c57e16840df040f15088dc2f81fe391c3923bec73e23a9662efc9c229c6a008054600160401b810460ff16159067ffffffffffffffff166000811580156109a25750825b905060008267ffffffffffffffff1660011480156109bf5750303b155b9050811580156109cd575080155b156109eb5760405163f92ee8a960e01b815260040160405180910390fd5b845467ffffffffffffffff191660011785558315610a1557845460ff60401b1916600160401b1785555b610a1d610dc2565b8551610a2b90600090610b6d565b50610a486000805160206114ca8339815191528760200151610b6d565b506040860151600180546001600160a01b03199081166001600160a01b03938416179091556060880151600480548316918416919091179055608088015160028054831691841691909117905560a088015160038054831691841691909117905560c08801516000805490921690831617905560e087015160058054919092166001600160b01b031990911617607d60a31b1790558315610b2357845460ff60401b19168555604051600181527fc7f505b2f371ae2175ee4913f4499e1f2633a7b5936321eed1cdaeb6115181d29060200160405180910390a15b505050505050565b60006001600160e01b03198216637965db0b60e01b148061046957506301ffc9a760e01b6001600160e01b0319831614610469565b610b6a8133610dcc565b50565b60006000805160206114ea83398151915281610b898585610e09565b905080156105cf576000858152602083905260409020610ba99085610eae565b50949350505050565b60006000805160206114ea83398151915281610bce8585610ec3565b905080156105cf576000858152602083905260409020610ba99085610f3f565b60006106358383610f54565b6000610469825490565b6000838302816000198587098281108382030391505080600003610c3b57838281610c3157610c31611487565b0492505050610635565b808411610c5b5760405163227bc15360e01b815260040160405180910390fd5b6000848688096000868103871696879004966002600389028118808a02820302808a02820302808a02820302808a02820302808a02820302808a02909103029181900381900460010186841190950394909402919094039290920491909117919091029150509392505050565b6000806000610cd8866000610f7e565b905080610d0e576308c379a06000526020805278185361666543616c6c3a204e6f7420656e6f756768206761736058526064601cfd5b600080855160208701888b5af1979650505050505050565b80471015610d4e5760405163cd78605960e01b81523060048201526024015b60405180910390fd5b6000826001600160a01b03168260405160006040518083038185875af1925050503d8060008114610d9b576040519150601f19603f3d011682016040523d82523d6000602084013e610da0565b606091505b50509050806104e657604051630a12f52160e11b815260040160405180910390fd5b610dca610f9c565b565b610dd682826105d7565b610e055760405163e2517d3f60e01b81526001600160a01b038216600482015260248101839052604401610d45565b5050565b600060008051602061150a833981519152610e2484846105d7565b610ea4576000848152602082815260408083206001600160a01b03871684529091529020805460ff19166001179055610e5a3390565b6001600160a01b0316836001600160a01b0316857f2f8788117e7eff1d82e926ec794901d17c78024a50270940304540a733656f0d60405160405180910390a46001915050610469565b6000915050610469565b6000610635836001600160a01b038416610fe5565b600060008051602061150a833981519152610ede84846105d7565b15610ea4576000848152602082815260408083206001600160a01b0387168085529252808320805460ff1916905551339287917ff6391f5c32d9c69d2a47ea670b442974b53935d1edc7fd64eb21e047a839171b9190a46001915050610469565b6000610635836001600160a01b038416611034565b6000826000018281548110610f6b57610f6b61149d565b9060005260206000200154905092915050565b600080603f83619c4001026040850201603f5a021015949350505050565b7ff0c57e16840df040f15088dc2f81fe391c3923bec73e23a9662efc9c229c6a0054600160401b900460ff16610dca57604051631afcd79f60e31b815260040160405180910390fd5b600081815260018301602052604081205461102c57508154600181810184556000848152602080822090930184905584548482528286019093526040902091909155610469565b506000610469565b60008181526001830160205260408120548015610ea4576000611058600183611417565b855490915060009061106c90600190611417565b90508082146110d157600086600001828154811061108c5761108c61149d565b90600052602060002001549050808760000184815481106110af576110af61149d565b6000918252602080832090910192909255918252600188019052604090208390555b85548690806110e2576110e26114b3565b600190038181906000526020600020016000905590558560010160008681526020019081526020016000206000905560019350505050610469565b60006020828403121561112f57600080fd5b81356001600160e01b03198116811461063557600080fd5b60006020828403121561115957600080fd5b5035919050565b6001600160a01b0381168114610b6a57600080fd5b803561118081611160565b919050565b6000806040838503121561119857600080fd5b8235915060208301356111aa81611160565b809150509250929050565b6000602082840312156111c757600080fd5b813561ffff8116811461063557600080fd5b600080604083850312156111ec57600080fd5b50508035926020909101359150565b600080600080600080600060e0888a03121561121657600080fd5b87359650602088013595506040880135801515811461123457600080fd5b9450606088013561124481611160565b9350608088013561125481611160565b9699959850939692959460a0840135945060c09093013592915050565b60006020828403121561128357600080fd5b813561063581611160565b60006101008083850312156112a257600080fd5b6040519081019067ffffffffffffffff821181831017156112d357634e487b7160e01b600052604160045260246000fd5b816040526112e084611175565b81526112ee60208501611175565b60208201526112ff60408501611175565b604082015261131060608501611175565b606082015261132160808501611175565b608082015261133260a08501611175565b60a082015261134360c08501611175565b60c082015261135460e08501611175565b60e0820152949350505050565b6000815180845260005b818110156113875760208185018101518683018201520161136b565b506000602082860101526020601f19601f83011685010191505092915050565b60408152601960408201527f7365744665654261736973506f696e74732875696e743136290000000000000060608201526080602082015260006106356080830184611361565b634e487b7160e01b600052601160045260246000fd5b80820180821115610469576104696113ee565b81810381811115610469576104696113ee565b634e487b7160e01b600052600160045260246000fd5b60408152601860408201527f736574466565735265636569766572286164647265737329000000000000000060608201526080602082015260006106356080830184611361565b634e487b7160e01b600052601260045260246000fd5b634e487b7160e01b600052603260045260246000fd5b634e487b7160e01b600052603160045260246000fdfea04f8e5e9269ada37cd14db144b4a440e16627eb30d392f72521786dd7cc2068c1f6fe24621ce81ec5827caf0253cadb74709b061630e6b55e8237170593200002dd7bc7dec4dceedda775e58dd541e08a116c6c53815c0bd028192f7b626800a264697066735822122066c58d031d84732498d6cf6e87c110c41ef214ef027150c4ded868179e9e6fac64736f6c63430008180033","linkReferences":{}},"methodIdentifiers":{"AGGREGATOR_MANAGER_ROLE()":"f6159bea","DEFAULT_ADMIN_ROLE()":"a217fddf","consensusLayerReceiver()":"453ba488","executionLayerReceiver()":"1d908288","feesBasisPoints()":"cb043d04","feesReceiver()":"bca93cf5","gasLimit()":"f68016b7","getRoleAdmin(bytes32)":"248a9ca3","getRoleMember(bytes32,uint256)":"9010d07c","getRoleMemberCount(bytes32)":"ca15c873","grantRole(bytes32,address)":"2f2ff15d","hasRole(bytes32,address)":"91d14854","initialize((address,address,address,address,address,address,address,address))":"f2da6d6c","oracle()":"7dc0d1d0","pauser()":"9fd0506d","processReturns(uint256,uint256,bool,address,address,uint256,uint256)":"d68d053b","renounceRole(bytes32,address)":"36568abe","revokeRole(bytes32,address)":"d547741f","setFeeBasisPoints(uint16)":"8c05a694","setFeesReceiver(address)":"f18e7951","staking()":"4cf088d9","supportsInterface(bytes4)":"01ffc9a7"},"id":62}