{"abi":[{"type":"constructor","inputs":[],"stateMutability":"nonpayable"},{"type":"receive","stateMutability":"payable"},{"type":"function","name":"AGGREGATOR_MANAGER_ROLE","inputs":[],"outputs":[{"name":"","type":"bytes32","internalType":"bytes32"}],"stateMutability":"view"},{"type":"function","name":"DEFAULT_ADMIN_ROLE","inputs":[],"outputs":[{"name":"","type":"bytes32","internalType":"bytes32"}],"stateMutability":"view"},{"type":"function","name":"consensusLayerReceiver","inputs":[],"outputs":[{"name":"","type":"address","internalType":"contract ReturnsReceiver"}],"stateMutability":"view"},{"type":"function","name":"executionLayerReceiver","inputs":[],"outputs":[{"name":"","type":"address","internalType":"contract ReturnsReceiver"}],"stateMutability":"view"},{"type":"function","name":"feesBasisPoints","inputs":[],"outputs":[{"name":"","type":"uint16","internalType":"uint16"}],"stateMutability":"view"},{"type":"function","name":"feesReceiver","inputs":[],"outputs":[{"name":"","type":"address","internalType":"address payable"}],"stateMutability":"view"},{"type":"function","name":"getRoleAdmin","inputs":[{"name":"role","type":"bytes32","internalType":"bytes32"}],"outputs":[{"name":"","type":"bytes32","internalType":"bytes32"}],"stateMutability":"view"},{"type":"function","name":"getRoleMember","inputs":[{"name":"role","type":"bytes32","internalType":"bytes32"},{"name":"index","type":"uint256","internalType":"uint256"}],"outputs":[{"name":"","type":"address","internalType":"address"}],"stateMutability":"view"},{"type":"function","name":"getRoleMemberCount","inputs":[{"name":"role","type":"bytes32","internalType":"bytes32"}],"outputs":[{"name":"","type":"uint256","internalType":"uint256"}],"stateMutability":"view"},{"type":"function","name":"grantRole","inputs":[{"name":"role","type":"bytes32","internalType":"bytes32"},{"name":"account","type":"address","internalType":"address"}],"outputs":[],"stateMutability":"nonpayable"},{"type":"function","name":"hasRole","inputs":[{"name":"role","type":"bytes32","internalType":"bytes32"},{"name":"account","type":"address","internalType":"address"}],"outputs":[{"name":"","type":"bool","internalType":"bool"}],"stateMutability":"view"},{"type":"function","name":"initialize","inputs":[{"name":"init","type":"tuple","internalType":"struct ReturnsAggregator.Init","components":[{"name":"admin","type":"address","internalType":"address"},{"name":"manager","type":"address","internalType":"address"},{"name":"oracle","type":"address","internalType":"contract IOracleReadRecord"},{"name":"pauser","type":"address","internalType":"contract IL1Pauser"},{"name":"consensusLayerReceiver","type":"address","internalType":"contract ReturnsReceiver"},{"name":"executionLayerReceiver","type":"address","internalType":"contract ReturnsReceiver"},{"name":"staking","type":"address","internalType":"contract IStakingManagerReturnsWrite"},{"name":"feesReceiver","type":"address","internalType":"address payable"}]}],"outputs":[],"stateMutability":"nonpayable"},{"type":"function","name":"oracle","inputs":[],"outputs":[{"name":"","type":"address","internalType":"contract IOracleReadRecord"}],"stateMutability":"view"},{"type":"function","name":"pauser","inputs":[],"outputs":[{"name":"","type":"address","internalType":"contract IL1Pauser"}],"stateMutability":"view"},{"type":"function","name":"processReturns","inputs":[{"name":"rewardAmount","type":"uint256","internalType":"uint256"},{"name":"principalAmount","type":"uint256","internalType":"uint256"},{"name":"shouldIncludeELRewards","type":"bool","internalType":"bool"}],"outputs":[],"stateMutability":"nonpayable"},{"type":"function","name":"renounceRole","inputs":[{"name":"role","type":"bytes32","internalType":"bytes32"},{"name":"callerConfirmation","type":"address","internalType":"address"}],"outputs":[],"stateMutability":"nonpayable"},{"type":"function","name":"revokeRole","inputs":[{"name":"role","type":"bytes32","internalType":"bytes32"},{"name":"account","type":"address","internalType":"address"}],"outputs":[],"stateMutability":"nonpayable"},{"type":"function","name":"setFeeBasisPoints","inputs":[{"name":"newBasisPoints","type":"uint16","internalType":"uint16"}],"outputs":[],"stateMutability":"nonpayable"},{"type":"function","name":"setFeesReceiver","inputs":[{"name":"newReceiver","type":"address","internalType":"address payable"}],"outputs":[],"stateMutability":"nonpayable"},{"type":"function","name":"staking","inputs":[],"outputs":[{"name":"","type":"address","internalType":"contract IStakingManagerReturnsWrite"}],"stateMutability":"view"},{"type":"function","name":"supportsInterface","inputs":[{"name":"interfaceId","type":"bytes4","internalType":"bytes4"}],"outputs":[{"name":"","type":"bool","internalType":"bool"}],"stateMutability":"view"},{"type":"event","name":"FeesCollected","inputs":[{"name":"amount","type":"uint256","indexed":false,"internalType":"uint256"}],"anonymous":false},{"type":"event","name":"Initialized","inputs":[{"name":"version","type":"uint64","indexed":false,"internalType":"uint64"}],"anonymous":false},{"type":"event","name":"ProtocolConfigChanged","inputs":[{"name":"setterSelector","type":"bytes4","indexed":true,"internalType":"bytes4"},{"name":"setterSignature","type":"string","indexed":false,"internalType":"string"},{"name":"value","type":"bytes","indexed":false,"internalType":"bytes"}],"anonymous":false},{"type":"event","name":"RoleAdminChanged","inputs":[{"name":"role","type":"bytes32","indexed":true,"internalType":"bytes32"},{"name":"previousAdminRole","type":"bytes32","indexed":true,"internalType":"bytes32"},{"name":"newAdminRole","type":"bytes32","indexed":true,"internalType":"bytes32"}],"anonymous":false},{"type":"event","name":"RoleGranted","inputs":[{"name":"role","type":"bytes32","indexed":true,"internalType":"bytes32"},{"name":"account","type":"address","indexed":true,"internalType":"address"},{"name":"sender","type":"address","indexed":true,"internalType":"address"}],"anonymous":false},{"type":"event","name":"RoleRevoked","inputs":[{"name":"role","type":"bytes32","indexed":true,"internalType":"bytes32"},{"name":"account","type":"address","indexed":true,"internalType":"address"},{"name":"sender","type":"address","indexed":true,"internalType":"address"}],"anonymous":false},{"type":"error","name":"AccessControlBadConfirmation","inputs":[]},{"type":"error","name":"AccessControlUnauthorizedAccount","inputs":[{"name":"account","type":"address","internalType":"address"},{"name":"neededRole","type":"bytes32","internalType":"bytes32"}]},{"type":"error","name":"AddressInsufficientBalance","inputs":[{"name":"account","type":"address","internalType":"address"}]},{"type":"error","name":"FailedInnerCall","inputs":[]},{"type":"error","name":"InvalidConfiguration","inputs":[]},{"type":"error","name":"InvalidInitialization","inputs":[]},{"type":"error","name":"MathOverflowedMulDiv","inputs":[]},{"type":"error","name":"NotInitializing","inputs":[]},{"type":"error","name":"NotOracle","inputs":[]},{"type":"error","name":"Paused","inputs":[]},{"type":"error","name":"ZeroAddress","inputs":[]}],"bytecode":{"object":"0x608060405234801561001057600080fd5b5061001961001e565b6100d0565b7ff0c57e16840df040f15088dc2f81fe391c3923bec73e23a9662efc9c229c6a00805468010000000000000000900460ff161561006e5760405163f92ee8a960e01b815260040160405180910390fd5b80546001600160401b03908116146100cd5780546001600160401b0319166001600160401b0390811782556040519081527fc7f505b2f371ae2175ee4913f4499e1f2633a7b5936321eed1cdaeb6115181d29060200160405180910390a15b50565b611488806100df6000396000f3fe60806040526004361061012e5760003560e01c80639010d07c116100ab578063ca15c8731161006f578063ca15c8731461034c578063cb043d041461036c578063d547741f146103a1578063f18e7951146103c1578063f2da6d6c146103e1578063f6159bea1461040157600080fd5b80639010d07c146102b757806391d14854146102d75780639fd0506d146102f7578063a217fddf14610317578063bca93cf51461032c57600080fd5b8063453ba488116100f2578063453ba488146102175780634cf088d9146102375780637dc0d1d0146102575780638846405d146102775780638c05a6941461029757600080fd5b806301ffc9a71461013a5780631d9082881461016f578063248a9ca3146101a75780632f2ff15d146101d557806336568abe146101f757600080fd5b3661013557005b600080fd5b34801561014657600080fd5b5061015a61015536600461107e565b610423565b60405190151581526020015b60405180910390f35b34801561017b57600080fd5b5060035461018f906001600160a01b031681565b6040516001600160a01b039091168152602001610166565b3480156101b357600080fd5b506101c76101c23660046110a8565b61044e565b604051908152602001610166565b3480156101e157600080fd5b506101f56101f03660046110e6565b610470565b005b34801561020357600080fd5b506101f56102123660046110e6565b610492565b34801561022357600080fd5b5060025461018f906001600160a01b031681565b34801561024357600080fd5b5060005461018f906001600160a01b031681565b34801561026357600080fd5b5060015461018f906001600160a01b031681565b34801561028357600080fd5b506101f5610292366004611116565b6104ca565b3480156102a357600080fd5b506101f56102b2366004611154565b61070f565b3480156102c357600080fd5b5061018f6102d2366004611178565b6107cc565b3480156102e357600080fd5b5061015a6102f23660046110e6565b6107fb565b34801561030357600080fd5b5060045461018f906001600160a01b031681565b34801561032357600080fd5b506101c7600081565b34801561033857600080fd5b5060055461018f906001600160a01b031681565b34801561035857600080fd5b506101c76103673660046110a8565b610833565b34801561037857600080fd5b5060055461038e90600160a01b900461ffff1681565b60405161ffff9091168152602001610166565b3480156103ad57600080fd5b506101f56103bc3660046110e6565b610860565b3480156103cd57600080fd5b506101f56103dc36600461119a565b61087c565b3480156103ed57600080fd5b506101f56103fc3660046111b7565b610939565b34801561040d57600080fd5b506101c76000805160206113f383398151915281565b60006001600160e01b03198216635a05180f60e01b1480610448575061044882610b08565b92915050565b6000908152600080516020611433833981519152602052604090206001015490565b6104798261044e565b61048281610b3d565b61048c8383610b4a565b50505050565b6001600160a01b03811633146104bb5760405163334bd91960e11b815260040160405180910390fd5b6104c58282610b8f565b505050565b60015447906001600160a01b031633146104f757604051631bc2178f60e01b815260040160405180910390fd5b600061050384866112a0565b9050846000841561052957506003546001600160a01b03163161052681836112a0565b91505b60055460009061054790600160a01b900461ffff1684612710610bcb565b90503082156105b75760035460405163a9059cbb60e01b81526001600160a01b038381166004830152602482018690529091169063a9059cbb90604401600060405180830381600087803b15801561059e57600080fd5b505af11580156105b2573d6000803e3d6000fd5b505050505b84156106245760025460405163a9059cbb60e01b81526001600160a01b038381166004830152602482018890529091169063a9059cbb90604401600060405180830381600087803b15801561060b57600080fd5b505af115801561061f573d6000803e3d6000fd5b505050505b60008261063185886112a0565b61063b91906112b3565b905080156106ab5760008054906101000a90046001600160a01b03166001600160a01b031663808d663f826040518263ffffffff1660e01b81526004016000604051808303818588803b15801561069157600080fd5b505af11580156106a5573d6000803e3d6000fd5b50505050505b82156106fa576040518381527f860c0aa5520013080c2f65981705fcdea474d9f7c3daf954656ed5e65d692d1f9060200160405180910390a16005546106fa906001600160a01b031684610c8f565b50505050505080471461048c5761048c6112c6565b6000805160206113f383398151915261072781610b3d565b61271061ffff8316111561074e5760405163c52a9bd360e01b815260040160405180910390fd5b6005805461ffff60a01b1916600160a01b61ffff85169081029190911790915560408051602081019290925263230169a560e21b917f01d854e8dde9402801a4c6f2840193465752abfad61e0bb7c4258d526ae42e74910160408051601f19818403018152908290526107c091611322565b60405180910390a25050565b60008281526000805160206114138339815191526020819052604082206107f39084610d2b565b949350505050565b6000918252600080516020611433833981519152602090815260408084206001600160a01b0393909316845291905290205460ff1690565b600081815260008051602061141383398151915260208190526040822061085990610d37565b9392505050565b6108698261044e565b61087281610b3d565b61048c8383610b8f565b6000805160206113f383398151915261089481610b3d565b816001600160a01b0381166108bc5760405163d92e233d60e01b815260040160405180910390fd5b600580546001600160a01b0319166001600160a01b03851690811790915560408051602081019290925263f18e795160e01b917f01d854e8dde9402801a4c6f2840193465752abfad61e0bb7c4258d526ae42e74910160408051601f198184030181529082905261092c91611369565b60405180910390a2505050565b7ff0c57e16840df040f15088dc2f81fe391c3923bec73e23a9662efc9c229c6a008054600160401b810460ff16159067ffffffffffffffff1660008115801561097f5750825b905060008267ffffffffffffffff16600114801561099c5750303b155b9050811580156109aa575080155b156109c85760405163f92ee8a960e01b815260040160405180910390fd5b845467ffffffffffffffff1916600117855583156109f257845460ff60401b1916600160401b1785555b6109fa610d41565b8551610a0890600090610b4a565b50610a256000805160206113f38339815191528760200151610b4a565b506040860151600180546001600160a01b03199081166001600160a01b03938416179091556060880151600480548316918416919091179055608088015160028054831691841691909117905560a088015160038054831691841691909117905560c08801516000805490921690831617905560e087015160058054919092166001600160b01b031990911617607d60a31b1790558315610b0057845460ff60401b19168555604051600181527fc7f505b2f371ae2175ee4913f4499e1f2633a7b5936321eed1cdaeb6115181d29060200160405180910390a15b505050505050565b60006001600160e01b03198216637965db0b60e01b148061044857506301ffc9a760e01b6001600160e01b0319831614610448565b610b478133610d4b565b50565b600060008051602061141383398151915281610b668585610d88565b905080156107f3576000858152602083905260409020610b869085610e2d565b50949350505050565b600060008051602061141383398151915281610bab8585610e42565b905080156107f3576000858152602083905260409020610b869085610ebe565b6000838302816000198587098281108382030391505080600003610c0257838281610bf857610bf86113b0565b0492505050610859565b808411610c225760405163227bc15360e01b815260040160405180910390fd5b6000848688096000868103871696879004966002600389028118808a02820302808a02820302808a02820302808a02820302808a02820302808a02909103029181900381900460010186841190950394909402919094039290920491909117919091029150509392505050565b80471015610cb75760405163cd78605960e01b81523060048201526024015b60405180910390fd5b6000826001600160a01b03168260405160006040518083038185875af1925050503d8060008114610d04576040519150601f19603f3d011682016040523d82523d6000602084013e610d09565b606091505b50509050806104c557604051630a12f52160e11b815260040160405180910390fd5b60006108598383610ed3565b6000610448825490565b610d49610efd565b565b610d5582826107fb565b610d845760405163e2517d3f60e01b81526001600160a01b038216600482015260248101839052604401610cae565b5050565b6000600080516020611433833981519152610da384846107fb565b610e23576000848152602082815260408083206001600160a01b03871684529091529020805460ff19166001179055610dd93390565b6001600160a01b0316836001600160a01b0316857f2f8788117e7eff1d82e926ec794901d17c78024a50270940304540a733656f0d60405160405180910390a46001915050610448565b6000915050610448565b6000610859836001600160a01b038416610f46565b6000600080516020611433833981519152610e5d84846107fb565b15610e23576000848152602082815260408083206001600160a01b0387168085529252808320805460ff1916905551339287917ff6391f5c32d9c69d2a47ea670b442974b53935d1edc7fd64eb21e047a839171b9190a46001915050610448565b6000610859836001600160a01b038416610f95565b6000826000018281548110610eea57610eea6113c6565b9060005260206000200154905092915050565b7ff0c57e16840df040f15088dc2f81fe391c3923bec73e23a9662efc9c229c6a0054600160401b900460ff16610d4957604051631afcd79f60e31b815260040160405180910390fd5b6000818152600183016020526040812054610f8d57508154600181810184556000848152602080822090930184905584548482528286019093526040902091909155610448565b506000610448565b60008181526001830160205260408120548015610e23576000610fb96001836112b3565b8554909150600090610fcd906001906112b3565b9050808214611032576000866000018281548110610fed57610fed6113c6565b9060005260206000200154905080876000018481548110611010576110106113c6565b6000918252602080832090910192909255918252600188019052604090208390555b8554869080611043576110436113dc565b600190038181906000526020600020016000905590558560010160008681526020019081526020016000206000905560019350505050610448565b60006020828403121561109057600080fd5b81356001600160e01b03198116811461085957600080fd5b6000602082840312156110ba57600080fd5b5035919050565b6001600160a01b0381168114610b4757600080fd5b80356110e1816110c1565b919050565b600080604083850312156110f957600080fd5b82359150602083013561110b816110c1565b809150509250929050565b60008060006060848603121561112b57600080fd5b83359250602084013591506040840135801515811461114957600080fd5b809150509250925092565b60006020828403121561116657600080fd5b813561ffff8116811461085957600080fd5b6000806040838503121561118b57600080fd5b50508035926020909101359150565b6000602082840312156111ac57600080fd5b8135610859816110c1565b60006101008083850312156111cb57600080fd5b6040519081019067ffffffffffffffff821181831017156111fc57634e487b7160e01b600052604160045260246000fd5b81604052611209846110d6565b8152611217602085016110d6565b6020820152611228604085016110d6565b6040820152611239606085016110d6565b606082015261124a608085016110d6565b608082015261125b60a085016110d6565b60a082015261126c60c085016110d6565b60c082015261127d60e085016110d6565b60e0820152949350505050565b634e487b7160e01b600052601160045260246000fd5b808201808211156104485761044861128a565b818103818111156104485761044861128a565b634e487b7160e01b600052600160045260246000fd5b6000815180845260005b81811015611302576020818501810151868301820152016112e6565b506000602082860101526020601f19601f83011685010191505092915050565b60408152601960408201527f7365744665654261736973506f696e74732875696e7431362900000000000000606082015260806020820152600061085960808301846112dc565b60408152601860408201527f7365744665657352656365697665722861646472657373290000000000000000606082015260806020820152600061085960808301846112dc565b634e487b7160e01b600052601260045260246000fd5b634e487b7160e01b600052603260045260246000fd5b634e487b7160e01b600052603160045260246000fdfea04f8e5e9269ada37cd14db144b4a440e16627eb30d392f72521786dd7cc2068c1f6fe24621ce81ec5827caf0253cadb74709b061630e6b55e8237170593200002dd7bc7dec4dceedda775e58dd541e08a116c6c53815c0bd028192f7b626800a2646970667358221220a3b7f3988e5eff6bcd7cab1b8402048cf17f6aa00cb0d36f7ecd775f744d941264736f6c63430008180033","linkReferences":{}},"methodIdentifiers":{"AGGREGATOR_MANAGER_ROLE()":"f6159bea","DEFAULT_ADMIN_ROLE()":"a217fddf","consensusLayerReceiver()":"453ba488","executionLayerReceiver()":"1d908288","feesBasisPoints()":"cb043d04","feesReceiver()":"bca93cf5","getRoleAdmin(bytes32)":"248a9ca3","getRoleMember(bytes32,uint256)":"9010d07c","getRoleMemberCount(bytes32)":"ca15c873","grantRole(bytes32,address)":"2f2ff15d","hasRole(bytes32,address)":"91d14854","initialize((address,address,address,address,address,address,address,address))":"f2da6d6c","oracle()":"7dc0d1d0","pauser()":"9fd0506d","processReturns(uint256,uint256,bool)":"8846405d","renounceRole(bytes32,address)":"36568abe","revokeRole(bytes32,address)":"d547741f","setFeeBasisPoints(uint16)":"8c05a694","setFeesReceiver(address)":"f18e7951","staking()":"4cf088d9","supportsInterface(bytes4)":"01ffc9a7"},"id":62}