{"abi":[{"type":"constructor","inputs":[],"stateMutability":"nonpayable"},{"type":"function","name":"calculateFee","inputs":[{"name":"strategy","type":"address","internalType":"contract IStrategy"},{"name":"operator","type":"address","internalType":"address"},{"name":"baseFee","type":"uint256","internalType":"uint256"}],"outputs":[],"stateMutability":"nonpayable"},{"type":"function","name":"delegation","inputs":[],"outputs":[{"name":"","type":"address","internalType":"contract IDelegationManager"}],"stateMutability":"view"},{"type":"function","name":"depositDappLinkToken","inputs":[{"name":"amount","type":"uint256","internalType":"uint256"}],"outputs":[{"name":"","type":"bool","internalType":"bool"}],"stateMutability":"nonpayable"},{"type":"function","name":"initialize","inputs":[{"name":"initialOwner","type":"address","internalType":"address"},{"name":"_delegation","type":"address","internalType":"contract IDelegationManager"},{"name":"_strategyManager","type":"address","internalType":"contract IStrategyManager"},{"name":"_rewardToken","type":"address","internalType":"contract IERC20"}],"outputs":[],"stateMutability":"nonpayable"},{"type":"function","name":"operatorClaimReward","inputs":[],"outputs":[{"name":"","type":"bool","internalType":"bool"}],"stateMutability":"nonpayable"},{"type":"function","name":"operatorRewards","inputs":[{"name":"","type":"address","internalType":"address"}],"outputs":[{"name":"","type":"uint256","internalType":"uint256"}],"stateMutability":"view"},{"type":"function","name":"owner","inputs":[],"outputs":[{"name":"","type":"address","internalType":"address"}],"stateMutability":"view"},{"type":"function","name":"renounceOwnership","inputs":[],"outputs":[],"stateMutability":"nonpayable"},{"type":"function","name":"rewardToken","inputs":[],"outputs":[{"name":"","type":"address","internalType":"contract IERC20"}],"stateMutability":"view"},{"type":"function","name":"stakerClaimReward","inputs":[{"name":"strategy","type":"address","internalType":"contract IStrategy"}],"outputs":[{"name":"","type":"bool","internalType":"bool"}],"stateMutability":"nonpayable"},{"type":"function","name":"stakerPercent","inputs":[],"outputs":[{"name":"","type":"uint256","internalType":"uint256"}],"stateMutability":"view"},{"type":"function","name":"stakerRewards","inputs":[{"name":"","type":"address","internalType":"contract IStrategy"}],"outputs":[{"name":"","type":"uint256","internalType":"uint256"}],"stateMutability":"view"},{"type":"function","name":"stakerRewardsAmount","inputs":[{"name":"strategy","type":"address","internalType":"contract IStrategy"}],"outputs":[{"name":"","type":"uint256","internalType":"uint256"}],"stateMutability":"nonpayable"},{"type":"function","name":"strategyManager","inputs":[],"outputs":[{"name":"","type":"address","internalType":"contract IStrategyManager"}],"stateMutability":"view"},{"type":"function","name":"transferOwnership","inputs":[{"name":"newOwner","type":"address","internalType":"address"}],"outputs":[],"stateMutability":"nonpayable"},{"type":"function","name":"updateOperatorAndStakerShareFee","inputs":[{"name":"_stakerPercent","type":"uint256","internalType":"uint256"}],"outputs":[],"stateMutability":"nonpayable"},{"type":"event","name":"DepositDappLinkToken","inputs":[{"name":"sender","type":"address","indexed":false,"internalType":"address"},{"name":"amount","type":"uint256","indexed":false,"internalType":"uint256"}],"anonymous":false},{"type":"event","name":"Initialized","inputs":[{"name":"version","type":"uint64","indexed":false,"internalType":"uint64"}],"anonymous":false},{"type":"event","name":"OperatorClaimReward","inputs":[{"name":"operator","type":"address","indexed":false,"internalType":"address"},{"name":"amount","type":"uint256","indexed":false,"internalType":"uint256"}],"anonymous":false},{"type":"event","name":"OperatorStakerReward","inputs":[{"name":"strategy","type":"address","indexed":false,"internalType":"contract IStrategy"},{"name":"operator","type":"address","indexed":false,"internalType":"address"},{"name":"stakerFee","type":"uint256","indexed":false,"internalType":"uint256"},{"name":"operatorFee","type":"uint256","indexed":false,"internalType":"uint256"}],"anonymous":false},{"type":"event","name":"OwnershipTransferred","inputs":[{"name":"previousOwner","type":"address","indexed":true,"internalType":"address"},{"name":"newOwner","type":"address","indexed":true,"internalType":"address"}],"anonymous":false},{"type":"event","name":"StakerClaimReward","inputs":[{"name":"staker","type":"address","indexed":false,"internalType":"address"},{"name":"amount","type":"uint256","indexed":false,"internalType":"uint256"}],"anonymous":false},{"type":"error","name":"AddressEmptyCode","inputs":[{"name":"target","type":"address","internalType":"address"}]},{"type":"error","name":"AddressInsufficientBalance","inputs":[{"name":"account","type":"address","internalType":"address"}]},{"type":"error","name":"FailedInnerCall","inputs":[]},{"type":"error","name":"InvalidInitialization","inputs":[]},{"type":"error","name":"NotInitializing","inputs":[]},{"type":"error","name":"OwnableInvalidOwner","inputs":[{"name":"owner","type":"address","internalType":"address"}]},{"type":"error","name":"OwnableUnauthorizedAccount","inputs":[{"name":"account","type":"address","internalType":"address"}]},{"type":"error","name":"ReentrancyGuardReentrantCall","inputs":[]},{"type":"error","name":"SafeERC20FailedOperation","inputs":[{"name":"token","type":"address","internalType":"address"}]}],"bytecode":{"object":"0x608080604052346100bd57605c6005557ff0c57e16840df040f15088dc2f81fe391c3923bec73e23a9662efc9c229c6a009081549060ff8260401c166100ae57506001600160401b036002600160401b031982821601610069575b604051610ba390816100c38239f35b6001600160401b031990911681179091556040519081527fc7f505b2f371ae2175ee4913f4499e1f2633a7b5936321eed1cdaeb6115181d290602090a138808061005a565b63f92ee8a960e01b8152600490fd5b600080fdfe608060408181526004918236101561001657600080fd5b600090813560e01c9081631546e9801461078d575080632cb082721461073257806339b70e381461070a57806341a2b8d6146106d25780635adbc180146106aa578063715018a6146106405780637ca87cb6146104705780638da5cb5b1461043a578063df5cf72314610411578063f0f0b228146103da578063f2fde38b14610384578063f4d7152b1461036a578063f7c618c114610341578063f8401008146102d8578063f8c8765e1461014a5763fb1bca50146100d457600080fd5b3461014757602036600319011261014757507f08fba1e7a1091d4e4242ae25b8f8291ec7423fba91244b59db8030ee503dfbe861013d602093356101268160018060a01b036002541630903390610946565b835133815260208101919091529081906040820190565b0390a15160018152f35b80fd5b5091346102d45760803660031901126102d4576101656107a9565b6001600160a01b03602435818116908190036102d057604435938285168095036102cc576064359283168093036102cc577ff0c57e16840df040f15088dc2f81fe391c3923bec73e23a9662efc9c229c6a009485549460ff86891c16159567ffffffffffffffff8116801590816102c4575b60011490816102ba575b1590816102b1575b506102a15767ffffffffffffffff1981166001178855610210919087610282575b50610a94565b6bffffffffffffffffffffffff60a01b92836003541617600355828254161790556002541617600255610241578280f35b805468ff00000000000000001916905551600181527fc7f505b2f371ae2175ee4913f4499e1f2633a7b5936321eed1cdaeb6115181d290602090a138808280f35b68ffffffffffffffffff1916680100000000000000011788553861020a565b885163f92ee8a960e01b81528490fd5b905015386101e9565b303b1591506101e1565b8891506101d7565b8680fd5b8580fd5b8280fd5b50903461033d57602036600319011261033d576020907f7246707380751b547f467fe94a754399171213cf43250351e02327307bc7f40c61013d61032261031d6107a9565b610845565b600254610126908290339030906001600160a01b0316610946565b5080fd5b50903461033d578160031936011261033d5760025490516001600160a01b039091168152602090f35b50823461033d57602036600319011261033d573560055580f35b5091346102d45760203660031901126102d45761039f6107a9565b916103a8610a5b565b6001600160a01b038316156103c457836103c184610a94565b80f35b51631e4fbdf760e01b8152908101839052602490fd5b50903461033d57602036600319011261033d5760209181906001600160a01b036104026107a9565b16815280845220549051908152f35b50903461033d578160031936011261033d5760035490516001600160a01b039091168152602090f35b50903461033d578160031936011261033d57600080516020610b4e8339815191525490516001600160a01b039091168152602090f35b50903461033d57606036600319011261033d5761048b6107a9565b90602435906001600160a01b0380831691908284036102d0578151633a98ef3960e01b81528582169560209586838b818b5afa92831561063657908792918a946105ff575b50600354865163778e55f360e01b81526001600160a01b03928316818e019081529290931660208301529394919384921690829081906040015b03915afa9081156105f55787916105c6575b506105329161052a916107fc565b6044356107fc565b916105426064600554048461081c565b928587528685528383882055600554606403606481116105b35791610592608096949260647f6ceab34dc8550787796af13d9da5dfd30e73c264921e6d874a04ebce40a352c1999795049061081c565b938189526001815284838a205582519586528501528301526060820152a180f35b634e487b7160e01b885260118952602488fd5b90508481813d83116105ee575b6105dd81836107c4565b810103126102cc575161053261051c565b503d6105d3565b83513d89823e3d90fd5b9193509181813d811161062f575b61061781836107c4565b8101031261062b575191869161050a6104d0565b8880fd5b503d61060d565b85513d8b823e3d90fd5b5034610147578060031936011261014757610659610a5b565b600080516020610b4e83398151915280546001600160a01b0319811690915581906001600160a01b03167f8be0079c531659141344cd1fd0a4f28419497f9722a3daafe3b4186f6b6457e08280a380f35b50903461033d57602036600319011261033d576020906106cb61031d6107a9565b9051908152f35b50903461033d57602036600319011261033d5760209181906001600160a01b036106fa6107a9565b1681526001845220549051908152f35b5091346102d457826003193601126102d4575490516001600160a01b03909116815260209150f35b50903461033d578160031936011261033d577ff358f13bbeaf315167e16e69fa1b06ca23f46b7fcc119b65b735a427539b332b61013d826020943381526001865220546101268160018060a01b036002541633903090610946565b90503461033d578160031936011261033d576020906005548152f35b600435906001600160a01b03821682036107bf57565b600080fd5b90601f8019910116810190811067ffffffffffffffff8211176107e657604052565b634e487b7160e01b600052604160045260246000fd5b8115610806570490565b634e487b7160e01b600052601260045260246000fd5b8181029291811591840414171561082f57565b634e487b7160e01b600052601160045260246000fd5b60048054604051633d3f06c960e11b815233928101929092526001600160a01b038381166024840152602093909184908490604490829086165afa92831561090b57600093610917575b50604051633a98ef3960e01b81529391168184600481845afa93841561090b576000946108db575b509260006108d2926108d895825252604060002054926107fc565b9061081c565b90565b93508184813d8311610904575b6108f281836107c4565b810103126107bf5792519260006108b7565b503d6108e8565b6040513d6000823e3d90fd5b9092508381813d831161093f575b61092f81836107c4565b810103126107bf5751913861088f565b503d610925565b6040516323b872dd60e01b602082019081526001600160a01b039384166024830152938316604482015260648082019590955293845267ffffffffffffffff919060a08501838111868210176107e6576040521692600080938192519082875af13d15610a4e573d918211610a3a57906109e291604051916109d26020601f19601f84011601846107c4565b82523d84602084013e5b84610aea565b908151918215159283610a12575b5050506109fa5750565b60249060405190635274afe760e01b82526004820152fd5b81929350906020918101031261033d57602001519081159182150361014757503880806109f0565b634e487b7160e01b83526041600452602483fd5b6109e291506060906109dc565b600080516020610b4e833981519152546001600160a01b03163303610a7c57565b60405163118cdaa760e01b8152336004820152602490fd5b600080516020610b4e83398151915280546001600160a01b039283166001600160a01b0319821681179092559091167f8be0079c531659141344cd1fd0a4f28419497f9722a3daafe3b4186f6b6457e0600080a3565b90610b115750805115610aff57805190602001fd5b604051630a12f52160e11b8152600490fd5b81511580610b44575b610b22575090565b604051639996b31560e01b81526001600160a01b039091166004820152602490fd5b50803b15610b1a56fe9016d09d72d40fdae2fd8ceac6b6234c7706214fd39c1cd1e609a0528c199300a2646970667358221220b45709e5704f5bcedd645dd5071f2a1817c80e32a93fec671072e4142bf009c164736f6c63430008180033","linkReferences":{}},"methodIdentifiers":{"calculateFee(address,address,uint256)":"7ca87cb6","delegation()":"df5cf723","depositDappLinkToken(uint256)":"fb1bca50","initialize(address,address,address,address)":"f8c8765e","operatorClaimReward()":"2cb08272","operatorRewards(address)":"41a2b8d6","owner()":"8da5cb5b","renounceOwnership()":"715018a6","rewardToken()":"f7c618c1","stakerClaimReward(address)":"f8401008","stakerPercent()":"1546e980","stakerRewards(address)":"f0f0b228","stakerRewardsAmount(address)":"5adbc180","strategyManager()":"39b70e38","transferOwnership(address)":"f2fde38b","updateOperatorAndStakerShareFee(uint256)":"f4d7152b"},"id":94}