{"abi":[{"type":"constructor","inputs":[],"stateMutability":"nonpayable"},{"type":"function","name":"calculateFee","inputs":[{"name":"strategy","type":"address","internalType":"contract IStrategy"},{"name":"operator","type":"address","internalType":"address"},{"name":"baseFee","type":"uint256","internalType":"uint256"}],"outputs":[],"stateMutability":"nonpayable"},{"type":"function","name":"delegation","inputs":[],"outputs":[{"name":"","type":"address","internalType":"contract IDelegationManager"}],"stateMutability":"view"},{"type":"function","name":"depositDappLinkToken","inputs":[{"name":"amount","type":"uint256","internalType":"uint256"}],"outputs":[{"name":"","type":"bool","internalType":"bool"}],"stateMutability":"nonpayable"},{"type":"function","name":"initialize","inputs":[{"name":"initialOwner","type":"address","internalType":"address"},{"name":"_delegation","type":"address","internalType":"contract IDelegationManager"},{"name":"_strategyManager","type":"address","internalType":"contract IStrategyManager"},{"name":"_rewardToken","type":"address","internalType":"contract IERC20"}],"outputs":[],"stateMutability":"nonpayable"},{"type":"function","name":"operatorClaimReward","inputs":[],"outputs":[{"name":"","type":"bool","internalType":"bool"}],"stateMutability":"nonpayable"},{"type":"function","name":"operatorRewards","inputs":[{"name":"","type":"address","internalType":"address"}],"outputs":[{"name":"","type":"uint256","internalType":"uint256"}],"stateMutability":"view"},{"type":"function","name":"owner","inputs":[],"outputs":[{"name":"","type":"address","internalType":"address"}],"stateMutability":"view"},{"type":"function","name":"renounceOwnership","inputs":[],"outputs":[],"stateMutability":"nonpayable"},{"type":"function","name":"rewardToken","inputs":[],"outputs":[{"name":"","type":"address","internalType":"contract IERC20"}],"stateMutability":"view"},{"type":"function","name":"stakerClaimReward","inputs":[{"name":"strategy","type":"address","internalType":"contract IStrategy"}],"outputs":[{"name":"","type":"bool","internalType":"bool"}],"stateMutability":"nonpayable"},{"type":"function","name":"stakerPercent","inputs":[],"outputs":[{"name":"","type":"uint256","internalType":"uint256"}],"stateMutability":"view"},{"type":"function","name":"stakerRewards","inputs":[{"name":"","type":"address","internalType":"contract IStrategy"}],"outputs":[{"name":"","type":"uint256","internalType":"uint256"}],"stateMutability":"view"},{"type":"function","name":"strategyManager","inputs":[],"outputs":[{"name":"","type":"address","internalType":"contract IStrategyManager"}],"stateMutability":"view"},{"type":"function","name":"transferOwnership","inputs":[{"name":"newOwner","type":"address","internalType":"address"}],"outputs":[],"stateMutability":"nonpayable"},{"type":"function","name":"updateOperatorAndStakerShareFee","inputs":[{"name":"_stakerPercent","type":"uint256","internalType":"uint256"}],"outputs":[],"stateMutability":"nonpayable"},{"type":"event","name":"DepositDappLinkToken","inputs":[{"name":"sender","type":"address","indexed":false,"internalType":"address"},{"name":"amount","type":"uint256","indexed":false,"internalType":"uint256"}],"anonymous":false},{"type":"event","name":"Initialized","inputs":[{"name":"version","type":"uint64","indexed":false,"internalType":"uint64"}],"anonymous":false},{"type":"event","name":"OperatorClaimReward","inputs":[{"name":"operator","type":"address","indexed":false,"internalType":"address"},{"name":"amount","type":"uint256","indexed":false,"internalType":"uint256"}],"anonymous":false},{"type":"event","name":"OperatorStakerReward","inputs":[{"name":"strategy","type":"address","indexed":false,"internalType":"contract IStrategy"},{"name":"operator","type":"address","indexed":false,"internalType":"address"},{"name":"stakerFee","type":"uint256","indexed":false,"internalType":"uint256"},{"name":"operatorFee","type":"uint256","indexed":false,"internalType":"uint256"}],"anonymous":false},{"type":"event","name":"OwnershipTransferred","inputs":[{"name":"previousOwner","type":"address","indexed":true,"internalType":"address"},{"name":"newOwner","type":"address","indexed":true,"internalType":"address"}],"anonymous":false},{"type":"event","name":"StakerClaimReward","inputs":[{"name":"staker","type":"address","indexed":false,"internalType":"address"},{"name":"amount","type":"uint256","indexed":false,"internalType":"uint256"}],"anonymous":false},{"type":"error","name":"AddressEmptyCode","inputs":[{"name":"target","type":"address","internalType":"address"}]},{"type":"error","name":"AddressInsufficientBalance","inputs":[{"name":"account","type":"address","internalType":"address"}]},{"type":"error","name":"FailedInnerCall","inputs":[]},{"type":"error","name":"InvalidInitialization","inputs":[]},{"type":"error","name":"NotInitializing","inputs":[]},{"type":"error","name":"OwnableInvalidOwner","inputs":[{"name":"owner","type":"address","internalType":"address"}]},{"type":"error","name":"OwnableUnauthorizedAccount","inputs":[{"name":"account","type":"address","internalType":"address"}]},{"type":"error","name":"ReentrancyGuardReentrantCall","inputs":[]},{"type":"error","name":"SafeERC20FailedOperation","inputs":[{"name":"token","type":"address","internalType":"address"}]}],"bytecode":{"object":"0x6080604052605c60055534801561001557600080fd5b5061001e610023565b6100d5565b7ff0c57e16840df040f15088dc2f81fe391c3923bec73e23a9662efc9c229c6a00805468010000000000000000900460ff16156100735760405163f92ee8a960e01b815260040160405180910390fd5b80546001600160401b03908116146100d25780546001600160401b0319166001600160401b0390811782556040519081527fc7f505b2f371ae2175ee4913f4499e1f2633a7b5936321eed1cdaeb6115181d29060200160405180910390a15b50565b610cd5806100e46000396000f3fe608060405234801561001057600080fd5b50600436106100f55760003560e01c8063df5cf72311610097578063f7c618c111610066578063f7c618c11461021f578063f840100814610232578063f8c8765e14610245578063fb1bca501461025857600080fd5b8063df5cf723146101c6578063f0f0b228146101d9578063f2fde38b146101f9578063f4d7152b1461020c57600080fd5b806341a2b8d6116100d357806341a2b8d614610159578063715018a6146101795780637ca87cb6146101835780638da5cb5b1461019657600080fd5b80631546e980146100fa5780632cb082721461011657806339b70e381461012e575b600080fd5b61010360055481565b6040519081526020015b60405180910390f35b61011e61026b565b604051901515815260200161010d565b600454610141906001600160a01b031681565b6040516001600160a01b03909116815260200161010d565b610103610167366004610b00565b60016020526000908152604090205481565b6101816102db565b005b610181610191366004610b1d565b6102ef565b7f9016d09d72d40fdae2fd8ceac6b6234c7706214fd39c1cd1e609a0528c199300546001600160a01b0316610141565b600354610141906001600160a01b031681565b6101036101e7366004610b00565b60006020819052908152604090205481565b610181610207366004610b00565b6104ba565b61018161021a366004610b5e565b600555565b600254610141906001600160a01b031681565b61011e610240366004610b00565b6104fd565b610181610253366004610b77565b610670565b61011e610266366004610b5e565b6107c0565b336000818152600160205260408120546002549192909161029a916001600160a01b039091169030908461081c565b60408051338152602081018390527ff358f13bbeaf315167e16e69fa1b06ca23f46b7fcc119b65b735a427539b332b910160405180910390a1600191505090565b6102e361087c565b6102ed60006108d7565b565b6000836001600160a01b0316633a98ef396040518163ffffffff1660e01b8152600401602060405180830381865afa15801561032f573d6000803e3d6000fd5b505050506040513d601f19601f820116820180604052508101906103539190610bd3565b60035460405163778e55f360e01b81526001600160a01b03868116600483015287811660248301529293506000929091169063778e55f390604401602060405180830381865afa1580156103ab573d6000803e3d6000fd5b505050506040513d601f19601f820116820180604052508101906103cf9190610bd3565b905060006103dd8383610c02565b6103e79085610c02565b9050600060646005546103fa9190610c02565b6104049083610c24565b6001600160a01b0388166000908152602081905260408120829055600554919250906064906104339082610c3b565b61043d9190610c02565b6104479084610c24565b6001600160a01b038881166000818152600160209081526040918290208590558151938d1684528301919091528101849052606081018290529091507f6ceab34dc8550787796af13d9da5dfd30e73c264921e6d874a04ebce40a352c19060800160405180910390a15050505050505050565b6104c261087c565b6001600160a01b0381166104f157604051631e4fbdf760e01b8152600060048201526024015b60405180910390fd5b6104fa816108d7565b50565b60048054604051633d3f06c960e11b815233928101929092526001600160a01b03838116602484015260009283929190911690637a7e0d9290604401602060405180830381865afa158015610556573d6000803e3d6000fd5b505050506040513d601f19601f8201168201806040525081019061057a9190610bd3565b90506000836001600160a01b0316633a98ef396040518163ffffffff1660e01b8152600401602060405180830381865afa1580156105bc573d6000803e3d6000fd5b505050506040513d601f19601f820116820180604052508101906105e09190610bd3565b905060006105ee8284610c02565b6001600160a01b0386166000908152602081905260409020546106119190610c24565b60025490915061062c906001600160a01b031630338461081c565b60408051338152602081018390527f7246707380751b547f467fe94a754399171213cf43250351e02327307bc7f40c910160405180910390a1506001949350505050565b7ff0c57e16840df040f15088dc2f81fe391c3923bec73e23a9662efc9c229c6a008054600160401b810460ff16159067ffffffffffffffff166000811580156106b65750825b905060008267ffffffffffffffff1660011480156106d35750303b155b9050811580156106e1575080155b156106ff5760405163f92ee8a960e01b815260040160405180910390fd5b845467ffffffffffffffff19166001178555831561072957845460ff60401b1916600160401b1785555b610732896108d7565b600380546001600160a01b03808b166001600160a01b031992831617909255600480548a8416908316179055600280549289169290911691909117905583156107b557845460ff60401b19168555604051600181527fc7f505b2f371ae2175ee4913f4499e1f2633a7b5936321eed1cdaeb6115181d29060200160405180910390a15b505050505050505050565b6002546000906107db906001600160a01b031633308561081c565b60408051338152602081018490527f08fba1e7a1091d4e4242ae25b8f8291ec7423fba91244b59db8030ee503dfbe8910160405180910390a1506001919050565b604080516001600160a01b0385811660248301528416604482015260648082018490528251808303909101815260849091019091526020810180516001600160e01b03166323b872dd60e01b179052610876908590610948565b50505050565b336108ae7f9016d09d72d40fdae2fd8ceac6b6234c7706214fd39c1cd1e609a0528c199300546001600160a01b031690565b6001600160a01b0316146102ed5760405163118cdaa760e01b81523360048201526024016104e8565b7f9016d09d72d40fdae2fd8ceac6b6234c7706214fd39c1cd1e609a0528c19930080546001600160a01b031981166001600160a01b03848116918217845560405192169182907f8be0079c531659141344cd1fd0a4f28419497f9722a3daafe3b4186f6b6457e090600090a3505050565b600061095d6001600160a01b038416836109b0565b905080516000141580156109825750808060200190518101906109809190610c4e565b155b156109ab57604051635274afe760e01b81526001600160a01b03841660048201526024016104e8565b505050565b60606109be838360006109c7565b90505b92915050565b6060814710156109ec5760405163cd78605960e01b81523060048201526024016104e8565b600080856001600160a01b03168486604051610a089190610c70565b60006040518083038185875af1925050503d8060008114610a45576040519150601f19603f3d011682016040523d82523d6000602084013e610a4a565b606091505b5091509150610a5a868383610a66565b925050505b9392505050565b606082610a7b57610a7682610ac2565b610a5f565b8151158015610a9257506001600160a01b0384163b155b15610abb57604051639996b31560e01b81526001600160a01b03851660048201526024016104e8565b5080610a5f565b805115610ad25780518082602001fd5b604051630a12f52160e11b815260040160405180910390fd5b6001600160a01b03811681146104fa57600080fd5b600060208284031215610b1257600080fd5b8135610a5f81610aeb565b600080600060608486031215610b3257600080fd5b8335610b3d81610aeb565b92506020840135610b4d81610aeb565b929592945050506040919091013590565b600060208284031215610b7057600080fd5b5035919050565b60008060008060808587031215610b8d57600080fd5b8435610b9881610aeb565b93506020850135610ba881610aeb565b92506040850135610bb881610aeb565b91506060850135610bc881610aeb565b939692955090935050565b600060208284031215610be557600080fd5b5051919050565b634e487b7160e01b600052601160045260246000fd5b600082610c1f57634e487b7160e01b600052601260045260246000fd5b500490565b80820281158282048414176109c1576109c1610bec565b818103818111156109c1576109c1610bec565b600060208284031215610c6057600080fd5b81518015158114610a5f57600080fd5b6000825160005b81811015610c915760208186018101518583015201610c77565b50600092019182525091905056fea2646970667358221220d17aecad4ab79ab148094fb721e173b23f784dfed914558b1fffd0a82503d05264736f6c63430008180033","linkReferences":{}},"methodIdentifiers":{"calculateFee(address,address,uint256)":"7ca87cb6","delegation()":"df5cf723","depositDappLinkToken(uint256)":"fb1bca50","initialize(address,address,address,address)":"f8c8765e","operatorClaimReward()":"2cb08272","operatorRewards(address)":"41a2b8d6","owner()":"8da5cb5b","renounceOwnership()":"715018a6","rewardToken()":"f7c618c1","stakerClaimReward(address)":"f8401008","stakerPercent()":"1546e980","stakerRewards(address)":"f0f0b228","strategyManager()":"39b70e38","transferOwnership(address)":"f2fde38b","updateOperatorAndStakerShareFee(uint256)":"f4d7152b"},"id":53}