{"abi":[{"type":"constructor","inputs":[],"stateMutability":"nonpayable"},{"type":"function","name":"calculateFee","inputs":[{"name":"strategy","type":"address","internalType":"contract IStrategy"},{"name":"operator","type":"address","internalType":"address"},{"name":"baseFee","type":"uint256","internalType":"uint256"}],"outputs":[],"stateMutability":"nonpayable"},{"type":"function","name":"delegation","inputs":[],"outputs":[{"name":"","type":"address","internalType":"contract IDelegationManager"}],"stateMutability":"view"},{"type":"function","name":"depositDappLinkToken","inputs":[{"name":"amount","type":"uint256","internalType":"uint256"}],"outputs":[{"name":"","type":"bool","internalType":"bool"}],"stateMutability":"nonpayable"},{"type":"function","name":"initialize","inputs":[{"name":"initialOwner","type":"address","internalType":"address"},{"name":"_delegation","type":"address","internalType":"contract IDelegationManager"},{"name":"_strategyManager","type":"address","internalType":"contract IStrategyManager"},{"name":"_rewardToken","type":"address","internalType":"contract IERC20"}],"outputs":[],"stateMutability":"nonpayable"},{"type":"function","name":"operatorClaimReward","inputs":[],"outputs":[{"name":"","type":"bool","internalType":"bool"}],"stateMutability":"nonpayable"},{"type":"function","name":"operatorRewards","inputs":[{"name":"","type":"address","internalType":"address"}],"outputs":[{"name":"","type":"uint256","internalType":"uint256"}],"stateMutability":"view"},{"type":"function","name":"owner","inputs":[],"outputs":[{"name":"","type":"address","internalType":"address"}],"stateMutability":"view"},{"type":"function","name":"renounceOwnership","inputs":[],"outputs":[],"stateMutability":"nonpayable"},{"type":"function","name":"rewardToken","inputs":[],"outputs":[{"name":"","type":"address","internalType":"contract IERC20"}],"stateMutability":"view"},{"type":"function","name":"stakerClaimReward","inputs":[{"name":"strategy","type":"address","internalType":"contract IStrategy"}],"outputs":[{"name":"","type":"bool","internalType":"bool"}],"stateMutability":"nonpayable"},{"type":"function","name":"stakerPercent","inputs":[],"outputs":[{"name":"","type":"uint256","internalType":"uint256"}],"stateMutability":"view"},{"type":"function","name":"stakerRewards","inputs":[{"name":"","type":"address","internalType":"contract IStrategy"}],"outputs":[{"name":"","type":"uint256","internalType":"uint256"}],"stateMutability":"view"},{"type":"function","name":"strategyManager","inputs":[],"outputs":[{"name":"","type":"address","internalType":"contract IStrategyManager"}],"stateMutability":"view"},{"type":"function","name":"transferOwnership","inputs":[{"name":"newOwner","type":"address","internalType":"address"}],"outputs":[],"stateMutability":"nonpayable"},{"type":"function","name":"updateOperatorAndStakerShareFee","inputs":[{"name":"_stakerPercent","type":"uint256","internalType":"uint256"}],"outputs":[],"stateMutability":"nonpayable"},{"type":"event","name":"DepositDappLinkToken","inputs":[{"name":"sender","type":"address","indexed":false,"internalType":"address"},{"name":"amount","type":"uint256","indexed":false,"internalType":"uint256"}],"anonymous":false},{"type":"event","name":"Initialized","inputs":[{"name":"version","type":"uint64","indexed":false,"internalType":"uint64"}],"anonymous":false},{"type":"event","name":"OperatorClaimReward","inputs":[{"name":"operator","type":"address","indexed":false,"internalType":"address"},{"name":"amount","type":"uint256","indexed":false,"internalType":"uint256"}],"anonymous":false},{"type":"event","name":"OperatorStakerReward","inputs":[{"name":"strategy","type":"address","indexed":false,"internalType":"contract IStrategy"},{"name":"operator","type":"address","indexed":false,"internalType":"address"},{"name":"stakerFee","type":"uint256","indexed":false,"internalType":"uint256"},{"name":"operatorFee","type":"uint256","indexed":false,"internalType":"uint256"}],"anonymous":false},{"type":"event","name":"OwnershipTransferred","inputs":[{"name":"previousOwner","type":"address","indexed":true,"internalType":"address"},{"name":"newOwner","type":"address","indexed":true,"internalType":"address"}],"anonymous":false},{"type":"event","name":"StakerClaimReward","inputs":[{"name":"staker","type":"address","indexed":false,"internalType":"address"},{"name":"amount","type":"uint256","indexed":false,"internalType":"uint256"}],"anonymous":false},{"type":"error","name":"AddressEmptyCode","inputs":[{"name":"target","type":"address","internalType":"address"}]},{"type":"error","name":"AddressInsufficientBalance","inputs":[{"name":"account","type":"address","internalType":"address"}]},{"type":"error","name":"FailedInnerCall","inputs":[]},{"type":"error","name":"InvalidInitialization","inputs":[]},{"type":"error","name":"NotInitializing","inputs":[]},{"type":"error","name":"OwnableInvalidOwner","inputs":[{"name":"owner","type":"address","internalType":"address"}]},{"type":"error","name":"OwnableUnauthorizedAccount","inputs":[{"name":"account","type":"address","internalType":"address"}]},{"type":"error","name":"ReentrancyGuardReentrantCall","inputs":[]},{"type":"error","name":"SafeERC20FailedOperation","inputs":[{"name":"token","type":"address","internalType":"address"}]}],"bytecode":{"object":"0x608080604052346100bd57605c6005557ff0c57e16840df040f15088dc2f81fe391c3923bec73e23a9662efc9c229c6a009081549060ff8260401c166100ae57506001600160401b036002600160401b031982821601610069575b604051610b6590816100c38239f35b6001600160401b031990911681179091556040519081527fc7f505b2f371ae2175ee4913f4499e1f2633a7b5936321eed1cdaeb6115181d290602090a138808061005a565b63f92ee8a960e01b8152600490fd5b600080fdfe608060408181526004918236101561001657600080fd5b600090813560e01c9081631546e98014610850575080632cb08272146107f557806339b70e38146107cd57806341a2b8d614610795578063715018a61461072b5780637ca87cb61461055b5780638da5cb5b14610525578063df5cf723146104fc578063f0f0b228146104c5578063f2fde38b1461046f578063f4d7152b14610455578063f7c618c11461042c578063f8401008146102cd578063f8c8765e1461013f5763fb1bca50146100c957600080fd5b3461013c57602036600319011261013c57507f08fba1e7a1091d4e4242ae25b8f8291ec7423fba91244b59db8030ee503dfbe86101326020933561011b8160018060a01b036002541630903390610908565b835133815260208101919091529081906040820190565b0390a15160018152f35b80fd5b5091346102c95760803660031901126102c95761015a61086c565b6001600160a01b03602435818116908190036102c557604435938285168095036102c1576064359283168093036102c1577ff0c57e16840df040f15088dc2f81fe391c3923bec73e23a9662efc9c229c6a009485549460ff86891c16159567ffffffffffffffff8116801590816102b9575b60011490816102af575b1590816102a6575b506102965767ffffffffffffffff1981166001178855610205919087610277575b50610a56565b6bffffffffffffffffffffffff60a01b92836003541617600355828254161790556002541617600255610236578280f35b805468ff00000000000000001916905551600181527fc7f505b2f371ae2175ee4913f4499e1f2633a7b5936321eed1cdaeb6115181d290602090a138808280f35b68ffffffffffffffffff191668010000000000000001178855386101ff565b885163f92ee8a960e01b81528490fd5b905015386101de565b303b1591506101d6565b8891506101cc565b8680fd5b8580fd5b8280fd5b503461013c57602092836003193601126103e4576102e961086c565b81548451633d3f06c960e11b8152338185019081526001600160a01b038085166020830152959194939192889186918816908290819060400103915afa9384156103ef5790859183956103f9575b50168686518094633a98ef3960e01b825281845afa9283156103ef579082918793946103b4575b509361039f7f7246707380751b547f467fe94a754399171213cf43250351e02327307bc7f40c969461011b9484610132986103a59652808c522054926108bf565b906108df565b80926002541633903090610908565b8880929550819394503d83116103e8575b6103cf8183610887565b810103126103e457519185919061039f61035e565b5080fd5b503d6103c5565b86513d84823e3d90fd5b88809296508193503d8311610425575b6104138183610887565b810103126103e4578490519338610337565b503d610409565b5090346103e457816003193601126103e45760025490516001600160a01b039091168152602090f35b5082346103e45760203660031901126103e4573560055580f35b5091346102c95760203660031901126102c95761048a61086c565b91610493610a1d565b6001600160a01b038316156104af57836104ac84610a56565b80f35b51631e4fbdf760e01b8152908101839052602490fd5b5090346103e45760203660031901126103e45760209181906001600160a01b036104ed61086c565b16815280845220549051908152f35b5090346103e457816003193601126103e45760035490516001600160a01b039091168152602090f35b5090346103e457816003193601126103e457600080516020610b108339815191525490516001600160a01b039091168152602090f35b5090346103e45760603660031901126103e45761057661086c565b90602435906001600160a01b0380831691908284036102c5578151633a98ef3960e01b81528582169560209586838b818b5afa92831561072157908792918a946106ea575b50600354865163778e55f360e01b81526001600160a01b03928316818e019081529290931660208301529394919384921690829081906040015b03915afa9081156106e05787916106b1575b5061061d91610615916108bf565b6044356108bf565b9161062d606460055404846108df565b9285875286855283838820556005546064036064811161069e579161067d608096949260647f6ceab34dc8550787796af13d9da5dfd30e73c264921e6d874a04ebce40a352c199979504906108df565b938189526001815284838a205582519586528501528301526060820152a180f35b634e487b7160e01b885260118952602488fd5b90508481813d83116106d9575b6106c88183610887565b810103126102c1575161061d610607565b503d6106be565b83513d89823e3d90fd5b9193509181813d811161071a575b6107028183610887565b8101031261071657519186916105f56105bb565b8880fd5b503d6106f8565b85513d8b823e3d90fd5b503461013c578060031936011261013c57610744610a1d565b600080516020610b1083398151915280546001600160a01b0319811690915581906001600160a01b03167f8be0079c531659141344cd1fd0a4f28419497f9722a3daafe3b4186f6b6457e08280a380f35b5090346103e45760203660031901126103e45760209181906001600160a01b036107bd61086c565b1681526001845220549051908152f35b5091346102c957826003193601126102c9575490516001600160a01b03909116815260209150f35b5090346103e457816003193601126103e4577ff358f13bbeaf315167e16e69fa1b06ca23f46b7fcc119b65b735a427539b332b6101328260209433815260018652205461011b8160018060a01b036002541633903090610908565b9050346103e457816003193601126103e4576020906005548152f35b600435906001600160a01b038216820361088257565b600080fd5b90601f8019910116810190811067ffffffffffffffff8211176108a957604052565b634e487b7160e01b600052604160045260246000fd5b81156108c9570490565b634e487b7160e01b600052601260045260246000fd5b818102929181159184041417156108f257565b634e487b7160e01b600052601160045260246000fd5b6040516323b872dd60e01b602082019081526001600160a01b039384166024830152938316604482015260648082019590955293845267ffffffffffffffff919060a08501838111868210176108a9576040521692600080938192519082875af13d15610a10573d9182116109fc57906109a491604051916109946020601f19601f8401160184610887565b82523d84602084013e5b84610aac565b9081519182151592836109d4575b5050506109bc5750565b60249060405190635274afe760e01b82526004820152fd5b8192935090602091810103126103e457602001519081159182150361013c57503880806109b2565b634e487b7160e01b83526041600452602483fd5b6109a4915060609061099e565b600080516020610b10833981519152546001600160a01b03163303610a3e57565b60405163118cdaa760e01b8152336004820152602490fd5b600080516020610b1083398151915280546001600160a01b039283166001600160a01b0319821681179092559091167f8be0079c531659141344cd1fd0a4f28419497f9722a3daafe3b4186f6b6457e0600080a3565b90610ad35750805115610ac157805190602001fd5b604051630a12f52160e11b8152600490fd5b81511580610b06575b610ae4575090565b604051639996b31560e01b81526001600160a01b039091166004820152602490fd5b50803b15610adc56fe9016d09d72d40fdae2fd8ceac6b6234c7706214fd39c1cd1e609a0528c199300a2646970667358221220c682f5538d1c207b38d53d650ebf3de81ed164ec566173b04076f1e2c382210f64736f6c63430008180033","linkReferences":{}},"methodIdentifiers":{"calculateFee(address,address,uint256)":"7ca87cb6","delegation()":"df5cf723","depositDappLinkToken(uint256)":"fb1bca50","initialize(address,address,address,address)":"f8c8765e","operatorClaimReward()":"2cb08272","operatorRewards(address)":"41a2b8d6","owner()":"8da5cb5b","renounceOwnership()":"715018a6","rewardToken()":"f7c618c1","stakerClaimReward(address)":"f8401008","stakerPercent()":"1546e980","stakerRewards(address)":"f0f0b228","strategyManager()":"39b70e38","transferOwnership(address)":"f2fde38b","updateOperatorAndStakerShareFee(uint256)":"f4d7152b"},"id":66}