{"abi":[{"type":"constructor","inputs":[],"stateMutability":"nonpayable"},{"type":"function","name":"L1RewardBalance","inputs":[],"outputs":[{"name":"","type":"uint256","internalType":"uint256"}],"stateMutability":"view"},{"type":"function","name":"claimL1Reward","inputs":[{"name":"_strategies","type":"address[]","internalType":"contract IStrategy[]"}],"outputs":[{"name":"","type":"bool","internalType":"bool"}],"stateMutability":"payable"},{"type":"function","name":"depositETHRewardTo","inputs":[],"outputs":[{"name":"","type":"bool","internalType":"bool"}],"stateMutability":"payable"},{"type":"function","name":"initialize","inputs":[{"name":"initialOwner","type":"address","internalType":"address"},{"name":"_strategyManager","type":"address","internalType":"contract IStrategyManager"}],"outputs":[],"stateMutability":"nonpayable"},{"type":"function","name":"owner","inputs":[],"outputs":[{"name":"","type":"address","internalType":"address"}],"stateMutability":"view"},{"type":"function","name":"renounceOwnership","inputs":[],"outputs":[],"stateMutability":"nonpayable"},{"type":"function","name":"strategyManager","inputs":[],"outputs":[{"name":"","type":"address","internalType":"contract IStrategyManager"}],"stateMutability":"view"},{"type":"function","name":"transferOwnership","inputs":[{"name":"newOwner","type":"address","internalType":"address"}],"outputs":[],"stateMutability":"nonpayable"},{"type":"event","name":"ClaimL1Reward","inputs":[{"name":"receiver","type":"address","indexed":false,"internalType":"address"},{"name":"amount","type":"uint256","indexed":false,"internalType":"uint256"}],"anonymous":false},{"type":"event","name":"DepositETHRewardTo","inputs":[{"name":"sender","type":"address","indexed":false,"internalType":"address"},{"name":"amount","type":"uint256","indexed":false,"internalType":"uint256"}],"anonymous":false},{"type":"event","name":"Initialized","inputs":[{"name":"version","type":"uint64","indexed":false,"internalType":"uint64"}],"anonymous":false},{"type":"event","name":"OwnershipTransferred","inputs":[{"name":"previousOwner","type":"address","indexed":true,"internalType":"address"},{"name":"newOwner","type":"address","indexed":true,"internalType":"address"}],"anonymous":false},{"type":"error","name":"InvalidInitialization","inputs":[]},{"type":"error","name":"NotInitializing","inputs":[]},{"type":"error","name":"OwnableInvalidOwner","inputs":[{"name":"owner","type":"address","internalType":"address"}]},{"type":"error","name":"OwnableUnauthorizedAccount","inputs":[{"name":"account","type":"address","internalType":"address"}]},{"type":"error","name":"ReentrancyGuardReentrantCall","inputs":[]}],"bytecode":{"object":"0x608080604052346100b8577ff0c57e16840df040f15088dc2f81fe391c3923bec73e23a9662efc9c229c6a009081549060ff8260401c166100a957506001600160401b036002600160401b031982821601610064575b60405161075f90816100be8239f35b6001600160401b031990911681179091556040519081527fc7f505b2f371ae2175ee4913f4499e1f2633a7b5936321eed1cdaeb6115181d290602090a1388080610055565b63f92ee8a960e01b8152600490fd5b600080fdfe6080604081815260048036101561001557600080fd5b600092833560e01c90816339b70e38146105a5575080633d9dd75714610371578063485cc9551461021b578063715018a6146101ae57806380fd8a7a146101915780638da5cb5b1461015b578063a90d9de2146100d35763f2fde38b1461007b57600080fd5b346100cf5760203660031901126100cf576100946105ca565b9161009d6106d0565b6001600160a01b038316156100b957836100b68461067a565b80f35b51631e4fbdf760e01b8152908101839052602490fd5b8280fd5b505081600319360112610157578180341561014e575b8180809234903090f11561014457602091610105348254610657565b905580513381523460208201527fe1803cf89e002ffcc9db1d627a63ae2358933f2d1ab32929935c4db3b9edce149080604081015b0390a15160018152f35b51903d90823e3d90fd5b506108fc6100e9565b5080fd5b50503461015757816003193601126101575760008051602061070a8339815191525490516001600160a01b039091168152602090f35b505034610157578160031936011261015757602091549051908152f35b83346102185780600319360112610218576101c76106d0565b60008051602061070a83398151915280546001600160a01b0319811690915581906001600160a01b03167f8be0079c531659141344cd1fd0a4f28419497f9722a3daafe3b4186f6b6457e08280a380f35b80fd5b50346100cf57816003193601126100cf576102346105ca565b906024356001600160a01b0381169081900361036d577ff0c57e16840df040f15088dc2f81fe391c3923bec73e23a9662efc9c229c6a0092835460ff81871c16159367ffffffffffffffff821680159081610365575b600114908161035b575b159081610352575b50610344575067ffffffffffffffff19811660011785556102c4919084610325575b5061067a565b6bffffffffffffffffffffffff60a01b60015416176001556102e4578280f35b805468ff00000000000000001916905551600181527fc7f505b2f371ae2175ee4913f4499e1f2633a7b5936321eed1cdaeb6115181d290602090a138808280f35b68ffffffffffffffffff191668010000000000000001178555386102be565b865163f92ee8a960e01b8152fd5b9050153861029c565b303b159150610294565b86915061028a565b8480fd5b50602092836003193601126102185767ffffffffffffffff9180358381116100cf57366023820112156100cf57808201359384116100cf576024906024810190602436918760051b0101116105a15790938391849585925b80841061047d5750505050825493811561046a5704928381029381850414901517156104575750808083801561044d575b8280929181923390f1156104425750815133815260208101919091527f131faee866ce16b47522e4e23f5ec64a21817b14c056b57cf6f187d6551561bd90806040810161013a565b8251903d90823e3d90fd5b6108fc91506103fa565b634e487b7160e01b825260119052602490fd5b634e487b7160e01b845260128352602484fd5b92966001600160a01b03949293919286908b876104a361049e8d888b6105e5565b61060b565b168c5193848092633a98ef3960e01b82525afa91821561059757918c9186938b9261055c575b50906104d491610657565b966104e361049e8c878a6105e5565b168b519283809263673e156160e11b8252338c8301525afa908115610552578891610520575b5061051690600192610657565b97019291906103c9565b90508a81813d831161054b575b610537818361061f565b8101031261054757516001610509565b8780fd5b503d61052d565b8a513d8a823e3d90fd5b92839194508092503d8311610590575b610576818361061f565b8101031261058c576104d485928d9251916104c9565b8880fd5b503d61056c565b8b513d8b823e3d90fd5b8380fd5b8490346101575781600319360112610157576001546001600160a01b03168152602090f35b600435906001600160a01b03821682036105e057565b600080fd5b91908110156105f55760051b0190565b634e487b7160e01b600052603260045260246000fd5b356001600160a01b03811681036105e05790565b90601f8019910116810190811067ffffffffffffffff82111761064157604052565b634e487b7160e01b600052604160045260246000fd5b9190820180921161066457565b634e487b7160e01b600052601160045260246000fd5b60008051602061070a83398151915280546001600160a01b039283166001600160a01b0319821681179092559091167f8be0079c531659141344cd1fd0a4f28419497f9722a3daafe3b4186f6b6457e0600080a3565b60008051602061070a833981519152546001600160a01b031633036106f157565b60405163118cdaa760e01b8152336004820152602490fdfe9016d09d72d40fdae2fd8ceac6b6234c7706214fd39c1cd1e609a0528c199300a2646970667358221220e7aabe8281455731af43d2d0ecead0f0d276bea20d4451f7aac19f3ebf72b42464736f6c63430008180033","linkReferences":{}},"methodIdentifiers":{"L1RewardBalance()":"80fd8a7a","claimL1Reward(address[])":"3d9dd757","depositETHRewardTo()":"a90d9de2","initialize(address,address)":"485cc955","owner()":"8da5cb5b","renounceOwnership()":"715018a6","strategyManager()":"39b70e38","transferOwnership(address)":"f2fde38b"},"id":88}