{"abi":[{"type":"constructor","inputs":[],"stateMutability":"nonpayable"},{"type":"function","name":"L1RewardBalance","inputs":[],"outputs":[{"name":"","type":"uint256","internalType":"uint256"}],"stateMutability":"view"},{"type":"function","name":"claimL1Reward","inputs":[{"name":"_strategies","type":"address[]","internalType":"contract IStrategy[]"}],"outputs":[{"name":"","type":"bool","internalType":"bool"}],"stateMutability":"payable"},{"type":"function","name":"depositETHRewardTo","inputs":[],"outputs":[{"name":"","type":"bool","internalType":"bool"}],"stateMutability":"payable"},{"type":"function","name":"initialize","inputs":[{"name":"initialOwner","type":"address","internalType":"address"},{"name":"_strategyManager","type":"address","internalType":"contract IStrategyManager"}],"outputs":[],"stateMutability":"nonpayable"},{"type":"function","name":"owner","inputs":[],"outputs":[{"name":"","type":"address","internalType":"address"}],"stateMutability":"view"},{"type":"function","name":"renounceOwnership","inputs":[],"outputs":[],"stateMutability":"nonpayable"},{"type":"function","name":"strategyManager","inputs":[],"outputs":[{"name":"","type":"address","internalType":"contract IStrategyManager"}],"stateMutability":"view"},{"type":"function","name":"transferOwnership","inputs":[{"name":"newOwner","type":"address","internalType":"address"}],"outputs":[],"stateMutability":"nonpayable"},{"type":"event","name":"ClaimL1Reward","inputs":[{"name":"receiver","type":"address","indexed":false,"internalType":"address"},{"name":"amount","type":"uint256","indexed":false,"internalType":"uint256"}],"anonymous":false},{"type":"event","name":"DepositETHRewardTo","inputs":[{"name":"sender","type":"address","indexed":false,"internalType":"address"},{"name":"amount","type":"uint256","indexed":false,"internalType":"uint256"}],"anonymous":false},{"type":"event","name":"Initialized","inputs":[{"name":"version","type":"uint64","indexed":false,"internalType":"uint64"}],"anonymous":false},{"type":"event","name":"OwnershipTransferred","inputs":[{"name":"previousOwner","type":"address","indexed":true,"internalType":"address"},{"name":"newOwner","type":"address","indexed":true,"internalType":"address"}],"anonymous":false},{"type":"error","name":"InvalidInitialization","inputs":[]},{"type":"error","name":"NotInitializing","inputs":[]},{"type":"error","name":"OwnableInvalidOwner","inputs":[{"name":"owner","type":"address","internalType":"address"}]},{"type":"error","name":"OwnableUnauthorizedAccount","inputs":[{"name":"account","type":"address","internalType":"address"}]},{"type":"error","name":"ReentrancyGuardReentrantCall","inputs":[]}],"bytecode":{"object":"0x608060405234801561001057600080fd5b5061001961001e565b6100d0565b7ff0c57e16840df040f15088dc2f81fe391c3923bec73e23a9662efc9c229c6a00805468010000000000000000900460ff161561006e5760405163f92ee8a960e01b815260040160405180910390fd5b80546001600160401b03908116146100cd5780546001600160401b0319166001600160401b0390811782556040519081527fc7f505b2f371ae2175ee4913f4499e1f2633a7b5936321eed1cdaeb6115181d29060200160405180910390a15b50565b6107f9806100df6000396000f3fe60806040526004361061007b5760003560e01c806380fd8a7a1161004e57806380fd8a7a146101175780638da5cb5b1461013b578063a90d9de214610178578063f2fde38b1461018057600080fd5b806339b70e38146100805780633d9dd757146100bd578063485cc955146100e0578063715018a614610102575b600080fd5b34801561008c57600080fd5b506001546100a0906001600160a01b031681565b6040516001600160a01b0390911681526020015b60405180910390f35b6100d06100cb36600461064b565b6101a0565b60405190151581526020016100b4565b3480156100ec57600080fd5b506101006100fb3660046106d5565b610379565b005b34801561010e57600080fd5b506101006104a5565b34801561012357600080fd5b5061012d60005481565b6040519081526020016100b4565b34801561014757600080fd5b507f9016d09d72d40fdae2fd8ceac6b6234c7706214fd39c1cd1e609a0528c199300546001600160a01b03166100a0565b6100d06104b9565b34801561018c57600080fd5b5061010061019b36600461070e565b61053c565b60008080805b848110156102e7578585828181106101c0576101c0610732565b90506020020160208101906101d5919061070e565b6001600160a01b0316633a98ef396040518163ffffffff1660e01b8152600401602060405180830381865afa158015610212573d6000803e3d6000fd5b505050506040513d601f19601f820116820180604052508101906102369190610748565b6102409084610777565b925085858281811061025457610254610732565b9050602002016020810190610269919061070e565b60405163673e156160e11b81523360048201526001600160a01b03919091169063ce7c2ac290602401602060405180830381865afa1580156102af573d6000803e3d6000fd5b505050506040513d601f19601f820116820180604052508101906102d39190610748565b6102dd9083610777565b91506001016101a6565b5060006102f4838361078a565b60005461030191906107ac565b604051909150339082156108fc029083906000818181858888f19350505050158015610331573d6000803e3d6000fd5b5060408051338152602081018390527f131faee866ce16b47522e4e23f5ec64a21817b14c056b57cf6f187d6551561bd910160405180910390a1600193505050505b92915050565b7ff0c57e16840df040f15088dc2f81fe391c3923bec73e23a9662efc9c229c6a008054600160401b810460ff16159067ffffffffffffffff166000811580156103bf5750825b905060008267ffffffffffffffff1660011480156103dc5750303b155b9050811580156103ea575080155b156104085760405163f92ee8a960e01b815260040160405180910390fd5b845467ffffffffffffffff19166001178555831561043257845460ff60401b1916600160401b1785555b61043b8761057f565b600180546001600160a01b0319166001600160a01b038816179055831561049c57845460ff60401b19168555604051600181527fc7f505b2f371ae2175ee4913f4499e1f2633a7b5936321eed1cdaeb6115181d29060200160405180910390a15b50505050505050565b6104ad6105f0565b6104b7600061057f565b565b60405160009030903480156108fc029184818181858888f193505050501580156104e7573d6000803e3d6000fd5b50346000808282546104f99190610777565b9091555050604080513381523460208201527fe1803cf89e002ffcc9db1d627a63ae2358933f2d1ab32929935c4db3b9edce14910160405180910390a150600190565b6105446105f0565b6001600160a01b03811661057357604051631e4fbdf760e01b8152600060048201526024015b60405180910390fd5b61057c8161057f565b50565b7f9016d09d72d40fdae2fd8ceac6b6234c7706214fd39c1cd1e609a0528c19930080546001600160a01b031981166001600160a01b03848116918217845560405192169182907f8be0079c531659141344cd1fd0a4f28419497f9722a3daafe3b4186f6b6457e090600090a3505050565b336106227f9016d09d72d40fdae2fd8ceac6b6234c7706214fd39c1cd1e609a0528c199300546001600160a01b031690565b6001600160a01b0316146104b75760405163118cdaa760e01b815233600482015260240161056a565b6000806020838503121561065e57600080fd5b823567ffffffffffffffff8082111561067657600080fd5b818501915085601f83011261068a57600080fd5b81358181111561069957600080fd5b8660208260051b85010111156106ae57600080fd5b60209290920196919550909350505050565b6001600160a01b038116811461057c57600080fd5b600080604083850312156106e857600080fd5b82356106f3816106c0565b91506020830135610703816106c0565b809150509250929050565b60006020828403121561072057600080fd5b813561072b816106c0565b9392505050565b634e487b7160e01b600052603260045260246000fd5b60006020828403121561075a57600080fd5b5051919050565b634e487b7160e01b600052601160045260246000fd5b8082018082111561037357610373610761565b6000826107a757634e487b7160e01b600052601260045260246000fd5b500490565b80820281158282048414176103735761037361076156fea26469706673582212209b3d66d1a93fff8af5277cf0fba970a370fa30dbeabef0bc063f99db1e50c59c64736f6c63430008180033","linkReferences":{}},"methodIdentifiers":{"L1RewardBalance()":"80fd8a7a","claimL1Reward(address[])":"3d9dd757","depositETHRewardTo()":"a90d9de2","initialize(address,address)":"485cc955","owner()":"8da5cb5b","renounceOwnership()":"715018a6","strategyManager()":"39b70e38","transferOwnership(address)":"f2fde38b"},"id":86}