{"abi":[{"type":"constructor","inputs":[],"stateMutability":"nonpayable"},{"type":"function","name":"L1RewardBalance","inputs":[],"outputs":[{"name":"","type":"uint256","internalType":"uint256"}],"stateMutability":"view"},{"type":"function","name":"claimL1Reward","inputs":[{"name":"_strategies","type":"address[]","internalType":"contract IStrategy[]"}],"outputs":[{"name":"","type":"bool","internalType":"bool"}],"stateMutability":"payable"},{"type":"function","name":"depositETHRewardTo","inputs":[],"outputs":[{"name":"","type":"bool","internalType":"bool"}],"stateMutability":"payable"},{"type":"function","name":"initialize","inputs":[{"name":"initialOwner","type":"address","internalType":"address"},{"name":"_strategyManager","type":"address","internalType":"contract IStrategyManager"}],"outputs":[],"stateMutability":"nonpayable"},{"type":"function","name":"owner","inputs":[],"outputs":[{"name":"","type":"address","internalType":"address"}],"stateMutability":"view"},{"type":"function","name":"renounceOwnership","inputs":[],"outputs":[],"stateMutability":"nonpayable"},{"type":"function","name":"stakerRewardsAmount","inputs":[{"name":"_strategies","type":"address[]","internalType":"contract IStrategy[]"}],"outputs":[{"name":"","type":"uint256","internalType":"uint256"}],"stateMutability":"nonpayable"},{"type":"function","name":"strategyManager","inputs":[],"outputs":[{"name":"","type":"address","internalType":"contract IStrategyManager"}],"stateMutability":"view"},{"type":"function","name":"transferOwnership","inputs":[{"name":"newOwner","type":"address","internalType":"address"}],"outputs":[],"stateMutability":"nonpayable"},{"type":"event","name":"ClaimL1Reward","inputs":[{"name":"receiver","type":"address","indexed":false,"internalType":"address"},{"name":"amount","type":"uint256","indexed":false,"internalType":"uint256"}],"anonymous":false},{"type":"event","name":"DepositETHRewardTo","inputs":[{"name":"sender","type":"address","indexed":false,"internalType":"address"},{"name":"amount","type":"uint256","indexed":false,"internalType":"uint256"}],"anonymous":false},{"type":"event","name":"Initialized","inputs":[{"name":"version","type":"uint64","indexed":false,"internalType":"uint64"}],"anonymous":false},{"type":"event","name":"OwnershipTransferred","inputs":[{"name":"previousOwner","type":"address","indexed":true,"internalType":"address"},{"name":"newOwner","type":"address","indexed":true,"internalType":"address"}],"anonymous":false},{"type":"error","name":"InvalidInitialization","inputs":[]},{"type":"error","name":"NotInitializing","inputs":[]},{"type":"error","name":"OwnableInvalidOwner","inputs":[{"name":"owner","type":"address","internalType":"address"}]},{"type":"error","name":"OwnableUnauthorizedAccount","inputs":[{"name":"account","type":"address","internalType":"address"}]},{"type":"error","name":"ReentrancyGuardReentrantCall","inputs":[]}],"bytecode":{"object":"0x608080604052346100b8577ff0c57e16840df040f15088dc2f81fe391c3923bec73e23a9662efc9c229c6a009081549060ff8260401c166100a957506001600160401b036002600160401b031982821601610064575b60405161078590816100be8239f35b6001600160401b031990911681179091556040519081527fc7f505b2f371ae2175ee4913f4499e1f2633a7b5936321eed1cdaeb6115181d290602090a1388080610055565b63f92ee8a960e01b8152600490fd5b600080fdfe604060808152600436101561001357600080fd5b600090813560e01c80631fbe54531461041957806339b70e38146103f15780633d9dd75714610375578063485cc9551461021c578063715018a6146101af57806380fd8a7a146101935780638da5cb5b1461015e578063a90d9de2146100db5763f2fde38b1461008257600080fd5b346100d75760203660031901126100d75761009b610487565b906100a46106f6565b6001600160a01b038216156100c057506100bd906106a0565b80f35b51631e4fbdf760e01b815260048101839052602490fd5b5080fd5b50816003193601126100d75781803415610155575b8180809234903090f11561014b5760209161010c34825461050f565b905580513381523460208201527fe1803cf89e002ffcc9db1d627a63ae2358933f2d1ab32929935c4db3b9edce149080604081015b0390a15160018152f35b51903d90823e3d90fd5b506108fc6100f0565b50346100d757816003193601126100d7576000805160206107308339815191525490516001600160a01b039091168152602090f35b50346100d757816003193601126100d757602091549051908152f35b82346102195780600319360112610219576101c86106f6565b60008051602061073083398151915280546001600160a01b0319811690915581906001600160a01b03167f8be0079c531659141344cd1fd0a4f28419497f9722a3daafe3b4186f6b6457e08280a380f35b80fd5b50346100d757806003193601126100d757610235610487565b6024356001600160a01b0381169190829003610371577ff0c57e16840df040f15088dc2f81fe391c3923bec73e23a9662efc9c229c6a009182549160ff83861c16159267ffffffffffffffff811680159081610369575b600114908161035f575b159081610356575b506103455767ffffffffffffffff19811660011785556102c5919084610326575b506106a0565b6bffffffffffffffffffffffff60a01b60015416176001556102e5578280f35b805468ff00000000000000001916905551600181527fc7f505b2f371ae2175ee4913f4499e1f2633a7b5936321eed1cdaeb6115181d290602090a138808280f35b68ffffffffffffffffff191668010000000000000001178555386102bf565b855163f92ee8a960e01b8152600490fd5b9050153861029e565b303b159150610296565b85915061028c565b8380fd5b5061038861038236610435565b90610532565b9180808480156103e7575b8280929181923390f1156103dc575080513381526020818101939093527f131faee866ce16b47522e4e23f5ec64a21817b14c056b57cf6f187d6551561bd908060408101610141565b9051903d90823e3d90fd5b6108fc9150610393565b50346100d757816003193601126100d75760015490516001600160a01b039091168152602090f35b50346100d75760209061042e61038236610435565b9051908152f35b9060206003198301126104825760043567ffffffffffffffff9283821161048257806023830112156104825781600401359384116104825760248460051b83010111610482576024019190565b600080fd5b600435906001600160a01b038216820361048257565b91908110156104ad5760051b0190565b634e487b7160e01b600052603260045260246000fd5b356001600160a01b03811681036104825790565b90601f8019910116810190811067ffffffffffffffff8211176104f957604052565b634e487b7160e01b600052604160045260246000fd5b9190820180921161051c57565b634e487b7160e01b600052601160045260246000fd5b600090819282915b8183106105795750505060005491811561056357049081810291818304149015171561051c5790565b634e487b7160e01b600052601260045260246000fd5b91936001600160a01b03939192918461059b61059688878761049d565b6104c3565b1690604091825191828092633a98ef3960e01b8252602093849160049687915afa90811561069557908391600091610665575b506105d9919261050f565b976105e86105968b8a8a61049d565b1692602485518095819363673e156160e11b835233908301525afa92831561065b575060009261062a575b50506106219060019261050f565b9401919061053a565b81819392933d8311610654575b61064181836104d7565b8101031261021957505181610621610613565b503d610637565b513d6000823e3d90fd5b9182813d831161068e575b61067a81836104d7565b8101031261021957505182906105d96105ce565b503d610670565b85513d6000823e3d90fd5b60008051602061073083398151915280546001600160a01b039283166001600160a01b0319821681179092559091167f8be0079c531659141344cd1fd0a4f28419497f9722a3daafe3b4186f6b6457e0600080a3565b600080516020610730833981519152546001600160a01b0316330361071757565b60405163118cdaa760e01b8152336004820152602490fdfe9016d09d72d40fdae2fd8ceac6b6234c7706214fd39c1cd1e609a0528c199300a2646970667358221220a347152b0874d817e6649be20afcbfdf1f944ac7c05822728cd5618abd307cc464736f6c63430008180033","linkReferences":{}},"methodIdentifiers":{"L1RewardBalance()":"80fd8a7a","claimL1Reward(address[])":"3d9dd757","depositETHRewardTo()":"a90d9de2","initialize(address,address)":"485cc955","owner()":"8da5cb5b","renounceOwnership()":"715018a6","stakerRewardsAmount(address[])":"1fbe5453","strategyManager()":"39b70e38","transferOwnership(address)":"f2fde38b"},"id":70}