{"abi":[{"type":"constructor","inputs":[],"stateMutability":"nonpayable"},{"type":"function","name":"DEFAULT_ADMIN_ROLE","inputs":[],"outputs":[{"name":"","type":"bytes32","internalType":"bytes32"}],"stateMutability":"view"},{"type":"function","name":"DOMAIN_SEPARATOR","inputs":[],"outputs":[{"name":"","type":"bytes32","internalType":"bytes32"}],"stateMutability":"view"},{"type":"function","name":"allowance","inputs":[{"name":"owner","type":"address","internalType":"address"},{"name":"spender","type":"address","internalType":"address"}],"outputs":[{"name":"","type":"uint256","internalType":"uint256"}],"stateMutability":"view"},{"type":"function","name":"approve","inputs":[{"name":"spender","type":"address","internalType":"address"},{"name":"value","type":"uint256","internalType":"uint256"}],"outputs":[{"name":"","type":"bool","internalType":"bool"}],"stateMutability":"nonpayable"},{"type":"function","name":"balanceOf","inputs":[{"name":"account","type":"address","internalType":"address"}],"outputs":[{"name":"","type":"uint256","internalType":"uint256"}],"stateMutability":"view"},{"type":"function","name":"batchMint","inputs":[{"name":"batcher","type":"tuple[]","internalType":"struct IDETH.BatchMint[]","components":[{"name":"staker","type":"address","internalType":"address"},{"name":"amount","type":"uint256","internalType":"uint256"}]}],"outputs":[],"stateMutability":"nonpayable"},{"type":"function","name":"burn","inputs":[{"name":"amount","type":"uint256","internalType":"uint256"}],"outputs":[],"stateMutability":"nonpayable"},{"type":"function","name":"decimals","inputs":[],"outputs":[{"name":"","type":"uint8","internalType":"uint8"}],"stateMutability":"view"},{"type":"function","name":"eip712Domain","inputs":[],"outputs":[{"name":"fields","type":"bytes1","internalType":"bytes1"},{"name":"name","type":"string","internalType":"string"},{"name":"version","type":"string","internalType":"string"},{"name":"chainId","type":"uint256","internalType":"uint256"},{"name":"verifyingContract","type":"address","internalType":"address"},{"name":"salt","type":"bytes32","internalType":"bytes32"},{"name":"extensions","type":"uint256[]","internalType":"uint256[]"}],"stateMutability":"view"},{"type":"function","name":"getRoleAdmin","inputs":[{"name":"role","type":"bytes32","internalType":"bytes32"}],"outputs":[{"name":"","type":"bytes32","internalType":"bytes32"}],"stateMutability":"view"},{"type":"function","name":"getRoleMember","inputs":[{"name":"role","type":"bytes32","internalType":"bytes32"},{"name":"index","type":"uint256","internalType":"uint256"}],"outputs":[{"name":"","type":"address","internalType":"address"}],"stateMutability":"view"},{"type":"function","name":"getRoleMemberCount","inputs":[{"name":"role","type":"bytes32","internalType":"bytes32"}],"outputs":[{"name":"","type":"uint256","internalType":"uint256"}],"stateMutability":"view"},{"type":"function","name":"grantRole","inputs":[{"name":"role","type":"bytes32","internalType":"bytes32"},{"name":"account","type":"address","internalType":"address"}],"outputs":[],"stateMutability":"nonpayable"},{"type":"function","name":"hasRole","inputs":[{"name":"role","type":"bytes32","internalType":"bytes32"},{"name":"account","type":"address","internalType":"address"}],"outputs":[{"name":"","type":"bool","internalType":"bool"}],"stateMutability":"view"},{"type":"function","name":"initialize","inputs":[{"name":"init","type":"tuple","internalType":"struct DETH.Init","components":[{"name":"admin","type":"address","internalType":"address"},{"name":"l2ShareAddress","type":"address","internalType":"address"},{"name":"staking","type":"address","internalType":"contract IStakingManager"},{"name":"unstakeRequestsManager","type":"address","internalType":"contract IUnstakeRequestsManager"}]}],"outputs":[],"stateMutability":"nonpayable"},{"type":"function","name":"l2ShareAddress","inputs":[],"outputs":[{"name":"","type":"address","internalType":"address"}],"stateMutability":"view"},{"type":"function","name":"mint","inputs":[{"name":"staker","type":"address","internalType":"address"},{"name":"amount","type":"uint256","internalType":"uint256"}],"outputs":[],"stateMutability":"nonpayable"},{"type":"function","name":"name","inputs":[],"outputs":[{"name":"","type":"string","internalType":"string"}],"stateMutability":"view"},{"type":"function","name":"nonces","inputs":[{"name":"owner","type":"address","internalType":"address"}],"outputs":[{"name":"","type":"uint256","internalType":"uint256"}],"stateMutability":"view"},{"type":"function","name":"permit","inputs":[{"name":"owner","type":"address","internalType":"address"},{"name":"spender","type":"address","internalType":"address"},{"name":"value","type":"uint256","internalType":"uint256"},{"name":"deadline","type":"uint256","internalType":"uint256"},{"name":"v","type":"uint8","internalType":"uint8"},{"name":"r","type":"bytes32","internalType":"bytes32"},{"name":"s","type":"bytes32","internalType":"bytes32"}],"outputs":[],"stateMutability":"nonpayable"},{"type":"function","name":"renounceRole","inputs":[{"name":"role","type":"bytes32","internalType":"bytes32"},{"name":"callerConfirmation","type":"address","internalType":"address"}],"outputs":[],"stateMutability":"nonpayable"},{"type":"function","name":"revokeRole","inputs":[{"name":"role","type":"bytes32","internalType":"bytes32"},{"name":"account","type":"address","internalType":"address"}],"outputs":[],"stateMutability":"nonpayable"},{"type":"function","name":"stakingContract","inputs":[],"outputs":[{"name":"","type":"address","internalType":"contract IStakingManager"}],"stateMutability":"view"},{"type":"function","name":"supportsInterface","inputs":[{"name":"interfaceId","type":"bytes4","internalType":"bytes4"}],"outputs":[{"name":"","type":"bool","internalType":"bool"}],"stateMutability":"view"},{"type":"function","name":"symbol","inputs":[],"outputs":[{"name":"","type":"string","internalType":"string"}],"stateMutability":"view"},{"type":"function","name":"totalSupply","inputs":[],"outputs":[{"name":"","type":"uint256","internalType":"uint256"}],"stateMutability":"view"},{"type":"function","name":"transfer","inputs":[{"name":"to","type":"address","internalType":"address"},{"name":"value","type":"uint256","internalType":"uint256"}],"outputs":[{"name":"","type":"bool","internalType":"bool"}],"stateMutability":"nonpayable"},{"type":"function","name":"transferFrom","inputs":[{"name":"from","type":"address","internalType":"address"},{"name":"to","type":"address","internalType":"address"},{"name":"value","type":"uint256","internalType":"uint256"}],"outputs":[{"name":"","type":"bool","internalType":"bool"}],"stateMutability":"nonpayable"},{"type":"function","name":"unstakeRequestsManagerContract","inputs":[],"outputs":[{"name":"","type":"address","internalType":"contract IUnstakeRequestsManager"}],"stateMutability":"view"},{"type":"event","name":"Approval","inputs":[{"name":"owner","type":"address","indexed":true,"internalType":"address"},{"name":"spender","type":"address","indexed":true,"internalType":"address"},{"name":"value","type":"uint256","indexed":false,"internalType":"uint256"}],"anonymous":false},{"type":"event","name":"EIP712DomainChanged","inputs":[],"anonymous":false},{"type":"event","name":"Initialized","inputs":[{"name":"version","type":"uint64","indexed":false,"internalType":"uint64"}],"anonymous":false},{"type":"event","name":"RoleAdminChanged","inputs":[{"name":"role","type":"bytes32","indexed":true,"internalType":"bytes32"},{"name":"previousAdminRole","type":"bytes32","indexed":true,"internalType":"bytes32"},{"name":"newAdminRole","type":"bytes32","indexed":true,"internalType":"bytes32"}],"anonymous":false},{"type":"event","name":"RoleGranted","inputs":[{"name":"role","type":"bytes32","indexed":true,"internalType":"bytes32"},{"name":"account","type":"address","indexed":true,"internalType":"address"},{"name":"sender","type":"address","indexed":true,"internalType":"address"}],"anonymous":false},{"type":"event","name":"RoleRevoked","inputs":[{"name":"role","type":"bytes32","indexed":true,"internalType":"bytes32"},{"name":"account","type":"address","indexed":true,"internalType":"address"},{"name":"sender","type":"address","indexed":true,"internalType":"address"}],"anonymous":false},{"type":"event","name":"Transfer","inputs":[{"name":"from","type":"address","indexed":true,"internalType":"address"},{"name":"to","type":"address","indexed":true,"internalType":"address"},{"name":"value","type":"uint256","indexed":false,"internalType":"uint256"}],"anonymous":false},{"type":"error","name":"AccessControlBadConfirmation","inputs":[]},{"type":"error","name":"AccessControlUnauthorizedAccount","inputs":[{"name":"account","type":"address","internalType":"address"},{"name":"neededRole","type":"bytes32","internalType":"bytes32"}]},{"type":"error","name":"ECDSAInvalidSignature","inputs":[]},{"type":"error","name":"ECDSAInvalidSignatureLength","inputs":[{"name":"length","type":"uint256","internalType":"uint256"}]},{"type":"error","name":"ECDSAInvalidSignatureS","inputs":[{"name":"s","type":"bytes32","internalType":"bytes32"}]},{"type":"error","name":"ERC20InsufficientAllowance","inputs":[{"name":"spender","type":"address","internalType":"address"},{"name":"allowance","type":"uint256","internalType":"uint256"},{"name":"needed","type":"uint256","internalType":"uint256"}]},{"type":"error","name":"ERC20InsufficientBalance","inputs":[{"name":"sender","type":"address","internalType":"address"},{"name":"balance","type":"uint256","internalType":"uint256"},{"name":"needed","type":"uint256","internalType":"uint256"}]},{"type":"error","name":"ERC20InvalidApprover","inputs":[{"name":"approver","type":"address","internalType":"address"}]},{"type":"error","name":"ERC20InvalidReceiver","inputs":[{"name":"receiver","type":"address","internalType":"address"}]},{"type":"error","name":"ERC20InvalidSender","inputs":[{"name":"sender","type":"address","internalType":"address"}]},{"type":"error","name":"ERC20InvalidSpender","inputs":[{"name":"spender","type":"address","internalType":"address"}]},{"type":"error","name":"ERC2612ExpiredSignature","inputs":[{"name":"deadline","type":"uint256","internalType":"uint256"}]},{"type":"error","name":"ERC2612InvalidSigner","inputs":[{"name":"signer","type":"address","internalType":"address"},{"name":"owner","type":"address","internalType":"address"}]},{"type":"error","name":"InvalidAccountNonce","inputs":[{"name":"account","type":"address","internalType":"address"},{"name":"currentNonce","type":"uint256","internalType":"uint256"}]},{"type":"error","name":"InvalidInitialization","inputs":[]},{"type":"error","name":"NotInitializing","inputs":[]},{"type":"error","name":"NotL2ShareAddress","inputs":[]},{"type":"error","name":"NotStakingManagerContract","inputs":[]},{"type":"error","name":"NotUnstakeRequestsManagerContract","inputs":[]}],"bytecode":{"object":"0x608080604052346100b8577ff0c57e16840df040f15088dc2f81fe391c3923bec73e23a9662efc9c229c6a009081549060ff8260401c166100a957506001600160401b036002600160401b031982821601610064575b60405161236b90816100be8239f35b6001600160401b031990911681179091556040519081527fc7f505b2f371ae2175ee4913f4499e1f2633a7b5936321eed1cdaeb6115181d290602090a1388080610055565b63f92ee8a960e01b8152600490fd5b600080fdfe608080604052600436101561001357600080fd5b60003560e01c90816301ffc9a71461168a575080630415cc1514610d5b57806306fdde0314610cb1578063095ea7b314610c8b5780630bec088614610c6257806318160ddd14610c2557806323b872dd14610b40578063248a9ca314610b045780632f2ff15d14610a82578063313ce56714610a665780633644e51514610a4357806336568abe146109fc57806340c10f19146109b257806342966c68146108a557806370a082311461085e5780637ecebe001461080557806384b0196e146106a95780639010d07c1461065557806391d14854146105fb5780639386e1971461054257806395d89b411461045d578063a217fddf14610441578063a9059cbb14610410578063ca15c873146103d7578063d505accf1461024c578063d547741f146101fe578063dd62ed3e146101b5578063ee99205c1461018c5763f14a3f501461015e57600080fd5b34610187576000366003190112610187576001546040516001600160a01b039091168152602090f35b600080fd5b34610187576000366003190112610187576000546040516001600160a01b039091168152602090f35b34610187576040366003190112610187576101ce611733565b6101df6101d9611749565b9161193c565b9060018060a01b03166000526020526020604060002054604051908152f35b346101875760403660031901126101875761024a60043561021d611749565b90806000526000805160206122b6833981519152602052610245600160406000200154611a70565b611ac1565b005b346101875760e036600319011261018757610265611733565b61026d611749565b60443590606435926084359360ff85168503610187578042116103bf5760018060a01b039081831695866000527f5ab42ced628888259c08ac98db1eb0cf702fc1501344311d8b100cd1bfe4bb006020526040600020908154916001830190556040519260208401927f6e71edae12b1b97f4d1f60370fef10105fa2faae0126114a169c64845d6126c98452896040860152858816606086015288608086015260a085015260c084015260c0835260e08301918383106001600160401b038411176103a9576103789361036f93604052519020610348611d67565b906040519161190160f01b83526002830152602282015260c43591604260a4359220611e77565b90929192611f07565b1684810361038b575061024a9350611d09565b60449085604051916325c0072360e11b835260048301526024820152fd5b634e487b7160e01b600052604160045260246000fd5b6024906040519063313c898160e11b82526004820152fd5b34610187576020366003190112610187576004356000526000805160206121d68339815191526020526020604060002054604051908152f35b346101875760403660031901126101875761043661042c611733565b602435903361199b565b602060405160018152f35b3461018757600036600319011261018757602060405160008152f35b3461018757600036600319011261018757604051600080516020612256833981519152805482600061048e8361179f565b92838352602094600191866001821691826000146105205750506001146104d6575b50506104be92500383611712565b6104d260405192828493845283019061175f565b0390f35b8592506000526000805160206122d6833981519152906000915b8583106105085750506104be935082010185806104b0565b805483890185015287945086939092019181016104f0565b92509350506104be94915060ff191682840152151560051b82010185806104b0565b3461018757602080600319360112610187576001600160401b036004358181116101875736602382011215610187578060040135918211610187576024810190602436918460061b010111610187576001805490936001600160a01b0391821633036105e95760005b8481106105b457005b6105bf818686611975565b35908382168203610187576105e38792846105db848a8a611975565b013590611b09565b016105ab565b60405163baa183a760e01b8152600490fd5b3461018757604036600319011261018757610614611749565b6004356000526000805160206122b683398151915260205260406000209060018060a01b0316600052602052602060ff604060002054166040519015158152f35b34610187576040366003190112610187576004356000526000805160206121d683398151915260205260206106906024356040600020611e5f565b905460405160039290921b1c6001600160a01b03168152f35b34610187576000366003190112610187577fa16a46d94261c7517cc8ff89f61c0ce93598e3c849801011dee649a6a557d1005415806107dc575b1561079f576106f06117d9565b6106f861189f565b6040516020808201928284106001600160401b038511176103a9579160206107528594610744979660405260008452604051978897600f60f81b895260e0858a015260e089019061175f565b90878203604089015261175f565b91466060870152306080870152600060a087015285830360c0870152519182815201929160005b82811061078857505050500390f35b835185528695509381019392810192600101610779565b60405162461bcd60e51b81526020600482015260156024820152741152540dcc4c8e88155b9a5b9a5d1a585b1a5e9959605a1b6044820152606490fd5b507fa16a46d94261c7517cc8ff89f61c0ce93598e3c849801011dee649a6a557d10154156106e3565b34610187576020366003190112610187576001600160a01b03610826611733565b166000527f5ab42ced628888259c08ac98db1eb0cf702fc1501344311d8b100cd1bfe4bb006020526020604060002054604051908152f35b34610187576020366003190112610187576001600160a01b0361087f611733565b166000526000805160206122168339815191526020526020604060002054604051908152f35b3461018757602036600319011261018757600254600435906001600160a01b031633036109a05733156109875733600052600080516020612216833981519152806020526040600020549082821061095e579180916000933385526020520360408320557f52c63247e1f47db19d5ce0460030c497f067ca4cebf71ba98eeadabe20bace028181540390556040519081527fddf252ad1be2c89b69c2b068fc378daa952ba7f163c4a11628f55a4df523b3ef60203392a3005b5060405163391434e360e21b815233600482015260248101919091526044810191909152606490fd5b604051634b637e8f60e11b815260006004820152602490fd5b60405163359ae1d360e11b8152600490fd5b34610187576040366003190112610187576109cb611733565b6000546001600160a01b031633036109ea5761024a9060243590611b09565b604051631cec3cdb60e31b8152600490fd5b3461018757604036600319011261018757610a15611749565b336001600160a01b03821603610a315761024a90600435611ac1565b60405163334bd91960e11b8152600490fd5b34610187576000366003190112610187576020610a5e611d67565b604051908152f35b3461018757600036600319011261018757602060405160128152f35b3461018757604036600319011261018757600435610a9e611749565b816000526000805160206122b6833981519152602052610ac5600160406000200154611a70565b610acf8183611c7c565b610ad557005b60009182526000805160206121d6833981519152602052604090912061024a916001600160a01b031690611f8c565b34610187576020366003190112610187576004356000526000805160206122b68339815191526020526020600160406000200154604051908152f35b3461018757606036600319011261018757610b59611733565b610b61611749565b60443590610b6e8361193c565b33600052602052604060002054926000198403610b90575b610436935061199b565b828410610bff576001600160a01b03811615610be6573315610bcd578261043694610bba8361193c565b3360005260205203604060002055610b86565b604051634a1406b160e11b815260006004820152602490fd5b60405163e602df0560e01b815260006004820152602490fd5b604051637dc7a0d960e11b81523360048201526024810185905260448101849052606490fd5b346101875760003660031901126101875760207f52c63247e1f47db19d5ce0460030c497f067ca4cebf71ba98eeadabe20bace0254604051908152f35b34610187576000366003190112610187576002546040516001600160a01b039091168152602090f35b3461018757604036600319011261018757610436610ca7611733565b6024359033611d09565b34610187576000366003190112610187576040516000805160206121f68339815191528054826000610ce28361179f565b9283835260209460019186600182169182600014610520575050600114610d115750506104be92500383611712565b8592506000526000805160206121b6833981519152906000915b858310610d435750506104be935082010185806104b0565b80548389018501528794508693909201918101610d2b565b3461018757608036600319011261018757604051608081018181106001600160401b038211176103a957604052610d90611733565b8152610d9a611749565b60208201526044356001600160a01b03811681036101875760408201526064356001600160a01b03811681036101875760608201526000805160206122f683398151915254906001600160401b0382168015908161167a575b6001149081611670575b159081611667575b506116555760016001600160401b03198316176000805160206122f68339815191525560ff8260401c1615611628575b610e3d611bad565b60405191610e4a836116f7565b60048352630c88aa8960e31b602084015260405191610e68836116f7565b60048352630c88aa8960e31b6020840152610e81611bad565b610e89611bad565b83516001600160401b0381116103a957610eb16000805160206121f68339815191525461179f565b601f81116115b2575b506020601f8211600114611523578192939495600092611518575b50508160011b916000199060031b1c1916176000805160206121f6833981519152555b82516001600160401b0381116103a957610f206000805160206122568339815191525461179f565b601f81116114a2575b506020601f82116001146114145781929394600092611409575b50508160011b916000199060031b1c191617600080516020612256833981519152555b60405191610f73836116f7565b60048352630c88aa8960e31b6020840152610f8c611bad565b60405191610f99836116f7565b60018352603160f81b6020840152610faf611bad565b83516001600160401b0381116103a957610fd76000805160206122368339815191525461179f565b601f8111611393575b506020601f82116001146113045781929394956000926112f9575b50508160011b916000199060031b1c191617600080516020612236833981519152555b8251926001600160401b0384116103a9576110476000805160206122768339815191525461179f565b601f8111611283575b50602090601f85116001146111f15760ff9491600091836111e6575b50508160011b916000199060031b1c191617600080516020612276833981519152555b60007fa16a46d94261c7517cc8ff89f61c0ce93598e3c849801011dee649a6a557d1008190557fa16a46d94261c7517cc8ff89f61c0ce93598e3c849801011dee649a6a557d1015580516001600160a01b03166110eb81611bdc565b61119f575b50604081810151600080546001600160a01b03199081166001600160a01b03938416179091556020840151600180548316918416919091179055606090930151600280549094169116179091551c161561114657005b68ff0000000000000000196000805160206122f683398151915254166000805160206122f6833981519152557fc7f505b2f371ae2175ee4913f4499e1f2633a7b5936321eed1cdaeb6115181d2602060405160018152a1005b600080526000805160206121d68339815191526020526111df907f615f0f9e84155bea8cc509fe18befeb1baf65611e38a6ba60964480fb29dfd44611f8c565b50836110f0565b01519050858061106c565b906000805160206122768339815191526000526000805160206123168339815191529160005b601f198716811061126b575091859160019360ff97601f19811610611252575b505050811b016000805160206122768339815191525561108f565b015160001960f88460031b161c19169055858080611237565b91926020600181928685015181550194019201611217565b600080516020612276833981519152600052601f850160051c60008051602061231683398151915201602086106112e4575b601f820160051c6000805160206123168339815191520181106112d85750611050565b600081556001016112b5565b506000805160206123168339815191526112b5565b015190508580610ffb565b6000805160206122368339815191526000526000805160206122968339815191529060005b601f198416811061137b575060019394959683601f19811610611362575b505050811b016000805160206122368339815191525561101e565b015160001960f88460031b161c19169055858080611347565b9091602060018192858b015181550193019101611329565b600080516020612236833981519152600052601f820160051c60008051602061229683398151915201602083106113f4575b601f820160051c6000805160206122968339815191520181106113e85750610fe0565b600081556001016113c5565b506000805160206122968339815191526113c5565b015190508480610f43565b6000805160206122568339815191526000526000805160206122d68339815191529060005b601f198416811061148a5750600193949583601f19811610611471575b505050811b0160008051602061225683398151915255610f66565b015160001960f88460031b161c19169055848080611456565b9091602060018192858a015181550193019101611439565b600080516020612256833981519152600052601f820160051c6000805160206122d68339815191520160208310611503575b601f820160051c6000805160206122d68339815191520181106114f75750610f29565b600081556001016114d4565b506000805160206122d68339815191526114d4565b015190508580610ed5565b6000805160206121f68339815191526000526000805160206121b68339815191529060005b601f198416811061159a575060019394959683601f19811610611581575b505050811b016000805160206121f683398151915255610ef8565b015160001960f88460031b161c19169055858080611566565b9091602060018192858b015181550193019101611548565b6000805160206121f6833981519152600052601f820160051c6000805160206121b68339815191520160208310611613575b601f820160051c6000805160206121b68339815191520181106116075750610eba565b600081556001016115e4565b506000805160206121b68339815191526115e4565b68ffffffffffffffffff19821668010000000000000001176000805160206122f683398151915255610e35565b60405163f92ee8a960e01b8152600490fd5b90501583610e05565b303b159150610dfd565b604084901c60ff16159150610df3565b34610187576020366003190112610187576004359063ffffffff60e01b821680920361018757602091635a05180f60e01b81149081156116cc575b5015158152f35b637965db0b60e01b8114915081156116e6575b50836116c5565b6301ffc9a760e01b149050836116df565b604081019081106001600160401b038211176103a957604052565b90601f801991011681019081106001600160401b038211176103a957604052565b600435906001600160a01b038216820361018757565b602435906001600160a01b038216820361018757565b919082519283825260005b84811061178b575050826000602080949584010152601f8019910116010190565b60208183018101518483018201520161176a565b90600182811c921680156117cf575b60208310146117b957565b634e487b7160e01b600052602260045260246000fd5b91607f16916117ae565b60405190600082600080516020612236833981519152918254926117fc8461179f565b80845293602091600191828116908115611879575060011461182a575b50505061182892500383611712565b565b60009081526000805160206122968339815191529590935091905b8284106118615750611828945050508101602001388080611819565b85548885018301529485019487945092810192611845565b925050506020925061182894915060ff191682840152151560051b820101388080611819565b60405190600082600080516020612276833981519152918254926118c28461179f565b8084529360209160019182811690811561187957506001146118ed5750505061182892500383611712565b60009081526000805160206123168339815191529590935091905b8284106119245750611828945050508101602001388080611819565b85548885018301529485019487945092810192611908565b6001600160a01b031660009081527f52c63247e1f47db19d5ce0460030c497f067ca4cebf71ba98eeadabe20bace016020526040902090565b91908110156119855760061b0190565b634e487b7160e01b600052603260045260246000fd5b916001600160a01b038084169283156109875716928315611a575760009083825260008051602061221683398151915280602052604083205491848310611a24575082847fddf252ad1be2c89b69c2b068fc378daa952ba7f163c4a11628f55a4df523b3ef959360409388602097528652038282205586815220818154019055604051908152a3565b60405163391434e360e21b81526001600160a01b0391909116600482015260248101929092525060448101839052606490fd5b60405163ec442f0560e01b815260006004820152602490fd5b806000526000805160206122b683398151915260205260406000203360005260205260ff6040600020541615611aa35750565b6044906040519063e2517d3f60e01b82523360048301526024820152fd5b611acb8282611ddc565b9182611ad657505090565b60009182526000805160206121d68339815191526020526040909120611b05916001600160a01b0316906120c5565b5090565b6001600160a01b0316908115611a57577f52c63247e1f47db19d5ce0460030c497f067ca4cebf71ba98eeadabe20bace02805490828201809211611b97576000927fddf252ad1be2c89b69c2b068fc378daa952ba7f163c4a11628f55a4df523b3ef9260209255848452600080516020612216833981519152825260408420818154019055604051908152a3565b634e487b7160e01b600052601160045260246000fd5b60ff6000805160206122f68339815191525460401c1615611bca57565b604051631afcd79f60e31b8152600490fd5b6001600160a01b031660008181527fb7db2dd08fcb62d0c9e08c51941cae53c267786a0b75803fb7960902fc8ef97d60205260408120549091906000805160206122b68339815191529060ff16611c77578280526020526040822081835260205260408220600160ff1982541617905533917f2f8788117e7eff1d82e926ec794901d17c78024a50270940304540a733656f0d8180a4600190565b505090565b906000918083526000805160206122b683398151915280602052604084209260018060a01b03169283855260205260ff60408520541615600014611d03578184526020526040832082845260205260408320600160ff198254161790557f2f8788117e7eff1d82e926ec794901d17c78024a50270940304540a733656f0d339380a4600190565b50505090565b916001600160a01b03808416928315610be65716928315610bcd577f8c5be1e5ebec7d5bd14f71427d1e84f3dd0314c0f7b2291e5b200ac8c7c3b92591611d5160209261193c565b85600052825280604060002055604051908152a3565b611d6f612016565b611d77612080565b6040519060208201927f8b73c3c69bb8fe3d512ecc4cf759cc79239f7b179b0ffacaa9a75d522b39400f8452604083015260608201524660808201523060a082015260a0815260c081018181106001600160401b038211176103a95760405251902090565b906000918083526000805160206122b683398151915280602052604084209260018060a01b03169283855260205260ff604085205416600014611d0357818452602052604083208284526020526040832060ff1981541690557ff6391f5c32d9c69d2a47ea670b442974b53935d1edc7fd64eb21e047a839171b339380a4600190565b80548210156119855760005260206000200190600090565b91907f7fffffffffffffffffffffffffffffff5d576e7357a4501ddfe92f46681b20a08411611efb57926020929160ff608095604051948552168484015260408301526060820152600092839182805260015afa15611eef5780516001600160a01b03811615611ee657918190565b50809160019190565b604051903d90823e3d90fd5b50505060009160039190565b6004811015611f765780611f19575050565b60018103611f335760405163f645eedf60e01b8152600490fd5b60028103611f545760405163fce698f760e01b815260048101839052602490fd5b600314611f5e5750565b602490604051906335e2f38360e21b82526004820152fd5b634e487b7160e01b600052602160045260246000fd5b919060018301600090828252806020526040822054156000146120105784549468010000000000000000861015611ffc5783611fec611fd5886001604098999a01855584611e5f565b819391549060031b91821b91600019901b19161790565b9055549382526020522055600190565b634e487b7160e01b83526041600452602483fd5b50925050565b61201e6117d9565b805190811561202e576020012090565b50507fa16a46d94261c7517cc8ff89f61c0ce93598e3c849801011dee649a6a557d10054801561205b5790565b507fc5d2460186f7233c927e7db2dcc703c0e500b653ca82273b7bfad8045d85a47090565b61208861189f565b8051908115612098576020012090565b50507fa16a46d94261c7517cc8ff89f61c0ce93598e3c849801011dee649a6a557d10154801561205b5790565b906001820190600092818452826020526040842054908115156000146121ae576000199180830181811161219a5782549084820191821161218657818103612151575b5050508054801561213d578201916121208383611e5f565b909182549160031b1b191690555582526020526040812055600190565b634e487b7160e01b86526031600452602486fd5b612171612161611fd59386611e5f565b90549060031b1c92839286611e5f565b90558652846020526040862055388080612108565b634e487b7160e01b88526011600452602488fd5b634e487b7160e01b87526011600452602487fd5b505050509056fe2ae08a8e29253f69ac5d979a101956ab8f8d9d7ded63fa7a83b16fc47648eab0c1f6fe24621ce81ec5827caf0253cadb74709b061630e6b55e8237170593200052c63247e1f47db19d5ce0460030c497f067ca4cebf71ba98eeadabe20bace0352c63247e1f47db19d5ce0460030c497f067ca4cebf71ba98eeadabe20bace00a16a46d94261c7517cc8ff89f61c0ce93598e3c849801011dee649a6a557d10252c63247e1f47db19d5ce0460030c497f067ca4cebf71ba98eeadabe20bace04a16a46d94261c7517cc8ff89f61c0ce93598e3c849801011dee649a6a557d10342ad5d3e1f2e6e70edcf6d991b8a3023d3fca8047a131592f9edb9fd9b89d57d02dd7bc7dec4dceedda775e58dd541e08a116c6c53815c0bd028192f7b62680046a2803e59a4de4e7a4c574b1243f25977ac4c77d5a1a4a609b5394cebb4a2aaf0c57e16840df040f15088dc2f81fe391c3923bec73e23a9662efc9c229c6a005f9ce34815f8e11431c7bb75a8e6886a91478f7ffc1dbb0a98dc240fddd76b75a2646970667358221220b8e290fa7ab767080781878f4191b7fd68e1dc1969f915e4b272a8d2f6229f7f64736f6c63430008180033","linkReferences":{}},"methodIdentifiers":{"DEFAULT_ADMIN_ROLE()":"a217fddf","DOMAIN_SEPARATOR()":"3644e515","allowance(address,address)":"dd62ed3e","approve(address,uint256)":"095ea7b3","balanceOf(address)":"70a08231","batchMint((address,uint256)[])":"9386e197","burn(uint256)":"42966c68","decimals()":"313ce567","eip712Domain()":"84b0196e","getRoleAdmin(bytes32)":"248a9ca3","getRoleMember(bytes32,uint256)":"9010d07c","getRoleMemberCount(bytes32)":"ca15c873","grantRole(bytes32,address)":"2f2ff15d","hasRole(bytes32,address)":"91d14854","initialize((address,address,address,address))":"0415cc15","l2ShareAddress()":"f14a3f50","mint(address,uint256)":"40c10f19","name()":"06fdde03","nonces(address)":"7ecebe00","permit(address,address,uint256,uint256,uint8,bytes32,bytes32)":"d505accf","renounceRole(bytes32,address)":"36568abe","revokeRole(bytes32,address)":"d547741f","stakingContract()":"ee99205c","supportsInterface(bytes4)":"01ffc9a7","symbol()":"95d89b41","totalSupply()":"18160ddd","transfer(address,uint256)":"a9059cbb","transferFrom(address,address,uint256)":"23b872dd","unstakeRequestsManagerContract()":"0bec0886"},"id":74}