{"abi":[{"type":"constructor","inputs":[],"stateMutability":"nonpayable"},{"type":"function","name":"DEFAULT_ADMIN_ROLE","inputs":[],"outputs":[{"name":"","type":"bytes32","internalType":"bytes32"}],"stateMutability":"view"},{"type":"function","name":"DOMAIN_SEPARATOR","inputs":[],"outputs":[{"name":"","type":"bytes32","internalType":"bytes32"}],"stateMutability":"view"},{"type":"function","name":"allowance","inputs":[{"name":"owner","type":"address","internalType":"address"},{"name":"spender","type":"address","internalType":"address"}],"outputs":[{"name":"","type":"uint256","internalType":"uint256"}],"stateMutability":"view"},{"type":"function","name":"approve","inputs":[{"name":"spender","type":"address","internalType":"address"},{"name":"value","type":"uint256","internalType":"uint256"}],"outputs":[{"name":"","type":"bool","internalType":"bool"}],"stateMutability":"nonpayable"},{"type":"function","name":"balanceOf","inputs":[{"name":"account","type":"address","internalType":"address"}],"outputs":[{"name":"","type":"uint256","internalType":"uint256"}],"stateMutability":"view"},{"type":"function","name":"batchMint","inputs":[{"name":"batcher","type":"tuple[]","internalType":"struct IDETH.BatchMint[]","components":[{"name":"staker","type":"address","internalType":"address"},{"name":"amount","type":"uint256","internalType":"uint256"}]}],"outputs":[],"stateMutability":"nonpayable"},{"type":"function","name":"burn","inputs":[{"name":"amount","type":"uint256","internalType":"uint256"}],"outputs":[],"stateMutability":"nonpayable"},{"type":"function","name":"decimals","inputs":[],"outputs":[{"name":"","type":"uint8","internalType":"uint8"}],"stateMutability":"view"},{"type":"function","name":"eip712Domain","inputs":[],"outputs":[{"name":"fields","type":"bytes1","internalType":"bytes1"},{"name":"name","type":"string","internalType":"string"},{"name":"version","type":"string","internalType":"string"},{"name":"chainId","type":"uint256","internalType":"uint256"},{"name":"verifyingContract","type":"address","internalType":"address"},{"name":"salt","type":"bytes32","internalType":"bytes32"},{"name":"extensions","type":"uint256[]","internalType":"uint256[]"}],"stateMutability":"view"},{"type":"function","name":"getRoleAdmin","inputs":[{"name":"role","type":"bytes32","internalType":"bytes32"}],"outputs":[{"name":"","type":"bytes32","internalType":"bytes32"}],"stateMutability":"view"},{"type":"function","name":"getRoleMember","inputs":[{"name":"role","type":"bytes32","internalType":"bytes32"},{"name":"index","type":"uint256","internalType":"uint256"}],"outputs":[{"name":"","type":"address","internalType":"address"}],"stateMutability":"view"},{"type":"function","name":"getRoleMemberCount","inputs":[{"name":"role","type":"bytes32","internalType":"bytes32"}],"outputs":[{"name":"","type":"uint256","internalType":"uint256"}],"stateMutability":"view"},{"type":"function","name":"grantRole","inputs":[{"name":"role","type":"bytes32","internalType":"bytes32"},{"name":"account","type":"address","internalType":"address"}],"outputs":[],"stateMutability":"nonpayable"},{"type":"function","name":"hasRole","inputs":[{"name":"role","type":"bytes32","internalType":"bytes32"},{"name":"account","type":"address","internalType":"address"}],"outputs":[{"name":"","type":"bool","internalType":"bool"}],"stateMutability":"view"},{"type":"function","name":"initialize","inputs":[{"name":"init","type":"tuple","internalType":"struct DETH.Init","components":[{"name":"admin","type":"address","internalType":"address"},{"name":"l2ShareAddress","type":"address","internalType":"address"},{"name":"staking","type":"address","internalType":"contract IStakingManager"},{"name":"unstakeRequestsManager","type":"address","internalType":"contract IUnstakeRequestsManager"}]}],"outputs":[],"stateMutability":"nonpayable"},{"type":"function","name":"l2ShareAddress","inputs":[],"outputs":[{"name":"","type":"address","internalType":"address"}],"stateMutability":"view"},{"type":"function","name":"mint","inputs":[{"name":"staker","type":"address","internalType":"address"},{"name":"amount","type":"uint256","internalType":"uint256"}],"outputs":[],"stateMutability":"nonpayable"},{"type":"function","name":"name","inputs":[],"outputs":[{"name":"","type":"string","internalType":"string"}],"stateMutability":"view"},{"type":"function","name":"nonces","inputs":[{"name":"owner","type":"address","internalType":"address"}],"outputs":[{"name":"","type":"uint256","internalType":"uint256"}],"stateMutability":"view"},{"type":"function","name":"permit","inputs":[{"name":"owner","type":"address","internalType":"address"},{"name":"spender","type":"address","internalType":"address"},{"name":"value","type":"uint256","internalType":"uint256"},{"name":"deadline","type":"uint256","internalType":"uint256"},{"name":"v","type":"uint8","internalType":"uint8"},{"name":"r","type":"bytes32","internalType":"bytes32"},{"name":"s","type":"bytes32","internalType":"bytes32"}],"outputs":[],"stateMutability":"nonpayable"},{"type":"function","name":"renounceRole","inputs":[{"name":"role","type":"bytes32","internalType":"bytes32"},{"name":"callerConfirmation","type":"address","internalType":"address"}],"outputs":[],"stateMutability":"nonpayable"},{"type":"function","name":"revokeRole","inputs":[{"name":"role","type":"bytes32","internalType":"bytes32"},{"name":"account","type":"address","internalType":"address"}],"outputs":[],"stateMutability":"nonpayable"},{"type":"function","name":"stakingContract","inputs":[],"outputs":[{"name":"","type":"address","internalType":"contract IStakingManager"}],"stateMutability":"view"},{"type":"function","name":"supportsInterface","inputs":[{"name":"interfaceId","type":"bytes4","internalType":"bytes4"}],"outputs":[{"name":"","type":"bool","internalType":"bool"}],"stateMutability":"view"},{"type":"function","name":"symbol","inputs":[],"outputs":[{"name":"","type":"string","internalType":"string"}],"stateMutability":"view"},{"type":"function","name":"totalSupply","inputs":[],"outputs":[{"name":"","type":"uint256","internalType":"uint256"}],"stateMutability":"view"},{"type":"function","name":"transfer","inputs":[{"name":"to","type":"address","internalType":"address"},{"name":"value","type":"uint256","internalType":"uint256"}],"outputs":[{"name":"","type":"bool","internalType":"bool"}],"stateMutability":"nonpayable"},{"type":"function","name":"transferFrom","inputs":[{"name":"from","type":"address","internalType":"address"},{"name":"to","type":"address","internalType":"address"},{"name":"value","type":"uint256","internalType":"uint256"}],"outputs":[{"name":"","type":"bool","internalType":"bool"}],"stateMutability":"nonpayable"},{"type":"function","name":"unstakeRequestsManagerContract","inputs":[],"outputs":[{"name":"","type":"address","internalType":"contract IUnstakeRequestsManager"}],"stateMutability":"view"},{"type":"event","name":"Approval","inputs":[{"name":"owner","type":"address","indexed":true,"internalType":"address"},{"name":"spender","type":"address","indexed":true,"internalType":"address"},{"name":"value","type":"uint256","indexed":false,"internalType":"uint256"}],"anonymous":false},{"type":"event","name":"EIP712DomainChanged","inputs":[],"anonymous":false},{"type":"event","name":"Initialized","inputs":[{"name":"version","type":"uint64","indexed":false,"internalType":"uint64"}],"anonymous":false},{"type":"event","name":"RoleAdminChanged","inputs":[{"name":"role","type":"bytes32","indexed":true,"internalType":"bytes32"},{"name":"previousAdminRole","type":"bytes32","indexed":true,"internalType":"bytes32"},{"name":"newAdminRole","type":"bytes32","indexed":true,"internalType":"bytes32"}],"anonymous":false},{"type":"event","name":"RoleGranted","inputs":[{"name":"role","type":"bytes32","indexed":true,"internalType":"bytes32"},{"name":"account","type":"address","indexed":true,"internalType":"address"},{"name":"sender","type":"address","indexed":true,"internalType":"address"}],"anonymous":false},{"type":"event","name":"RoleRevoked","inputs":[{"name":"role","type":"bytes32","indexed":true,"internalType":"bytes32"},{"name":"account","type":"address","indexed":true,"internalType":"address"},{"name":"sender","type":"address","indexed":true,"internalType":"address"}],"anonymous":false},{"type":"event","name":"Transfer","inputs":[{"name":"from","type":"address","indexed":true,"internalType":"address"},{"name":"to","type":"address","indexed":true,"internalType":"address"},{"name":"value","type":"uint256","indexed":false,"internalType":"uint256"}],"anonymous":false},{"type":"error","name":"AccessControlBadConfirmation","inputs":[]},{"type":"error","name":"AccessControlUnauthorizedAccount","inputs":[{"name":"account","type":"address","internalType":"address"},{"name":"neededRole","type":"bytes32","internalType":"bytes32"}]},{"type":"error","name":"ECDSAInvalidSignature","inputs":[]},{"type":"error","name":"ECDSAInvalidSignatureLength","inputs":[{"name":"length","type":"uint256","internalType":"uint256"}]},{"type":"error","name":"ECDSAInvalidSignatureS","inputs":[{"name":"s","type":"bytes32","internalType":"bytes32"}]},{"type":"error","name":"ERC20InsufficientAllowance","inputs":[{"name":"spender","type":"address","internalType":"address"},{"name":"allowance","type":"uint256","internalType":"uint256"},{"name":"needed","type":"uint256","internalType":"uint256"}]},{"type":"error","name":"ERC20InsufficientBalance","inputs":[{"name":"sender","type":"address","internalType":"address"},{"name":"balance","type":"uint256","internalType":"uint256"},{"name":"needed","type":"uint256","internalType":"uint256"}]},{"type":"error","name":"ERC20InvalidApprover","inputs":[{"name":"approver","type":"address","internalType":"address"}]},{"type":"error","name":"ERC20InvalidReceiver","inputs":[{"name":"receiver","type":"address","internalType":"address"}]},{"type":"error","name":"ERC20InvalidSender","inputs":[{"name":"sender","type":"address","internalType":"address"}]},{"type":"error","name":"ERC20InvalidSpender","inputs":[{"name":"spender","type":"address","internalType":"address"}]},{"type":"error","name":"ERC2612ExpiredSignature","inputs":[{"name":"deadline","type":"uint256","internalType":"uint256"}]},{"type":"error","name":"ERC2612InvalidSigner","inputs":[{"name":"signer","type":"address","internalType":"address"},{"name":"owner","type":"address","internalType":"address"}]},{"type":"error","name":"InvalidAccountNonce","inputs":[{"name":"account","type":"address","internalType":"address"},{"name":"currentNonce","type":"uint256","internalType":"uint256"}]},{"type":"error","name":"InvalidInitialization","inputs":[]},{"type":"error","name":"NotInitializing","inputs":[]},{"type":"error","name":"NotL2ShareAddress","inputs":[]},{"type":"error","name":"NotStakingManagerContract","inputs":[]},{"type":"error","name":"NotUnstakeRequestsManagerContract","inputs":[]}],"bytecode":{"object":"0x608060405234801561001057600080fd5b5061001961001e565b6100d0565b7ff0c57e16840df040f15088dc2f81fe391c3923bec73e23a9662efc9c229c6a00805468010000000000000000900460ff161561006e5760405163f92ee8a960e01b815260040160405180910390fd5b80546001600160401b03908116146100cd5780546001600160401b0319166001600160401b0390811782556040519081527fc7f505b2f371ae2175ee4913f4499e1f2633a7b5936321eed1cdaeb6115181d29060200160405180910390a15b50565b611e69806100df6000396000f3fe608060405234801561001057600080fd5b50600436106101cf5760003560e01c806370a0823111610104578063a217fddf116100a2578063d547741f11610071578063d547741f146103e1578063dd62ed3e146103f4578063ee99205c14610407578063f14a3f501461041a57600080fd5b8063a217fddf146103a0578063a9059cbb146103a8578063ca15c873146103bb578063d505accf146103ce57600080fd5b80639010d07c116100de5780639010d07c1461035f57806391d14854146103725780639386e1971461038557806395d89b411461039857600080fd5b806370a082311461031e5780637ecebe001461033157806384b0196e1461034457600080fd5b8063248a9ca3116101715780633644e5151161014b5780633644e515146102dd57806336568abe146102e557806340c10f19146102f857806342966c681461030b57600080fd5b8063248a9ca3146102a85780632f2ff15d146102bb578063313ce567146102ce57600080fd5b8063095ea7b3116101ad578063095ea7b3146102265780630bec08861461023957806318160ddd1461026457806323b872dd1461029557600080fd5b806301ffc9a7146101d45780630415cc15146101fc57806306fdde0314610211575b600080fd5b6101e76101e2366004611818565b61042d565b60405190151581526020015b60405180910390f35b61020f61020a36600461186d565b610458565b005b610219610628565b6040516101f39190611938565b6101e761023436600461194b565b6106d1565b60025461024c906001600160a01b031681565b6040516001600160a01b0390911681526020016101f3565b7f52c63247e1f47db19d5ce0460030c497f067ca4cebf71ba98eeadabe20bace02545b6040519081526020016101f3565b6101e76102a3366004611977565b6106e9565b6102876102b63660046119b8565b61070d565b61020f6102c93660046119d1565b61072f565b604051601281526020016101f3565b610287610751565b61020f6102f33660046119d1565b610760565b61020f61030636600461194b565b610798565b61020f6103193660046119b8565b6107d1565b61028761032c366004611a01565b610809565b61028761033f366004611a01565b61083c565b61034c610847565b6040516101f39796959493929190611a1e565b61024c61036d366004611ab7565b6108f8565b6101e76103803660046119d1565b610927565b61020f610393366004611ad9565b61095f565b6102196109e9565b610287600081565b6101e76103b636600461194b565b610a28565b6102876103c93660046119b8565b610a36565b61020f6103dc366004611b4e565b610a63565b61020f6103ef3660046119d1565b610bbc565b610287610402366004611bc5565b610bd8565b60005461024c906001600160a01b031681565b60015461024c906001600160a01b031681565b60006001600160e01b03198216635a05180f60e01b1480610452575061045282610c22565b92915050565b7ff0c57e16840df040f15088dc2f81fe391c3923bec73e23a9662efc9c229c6a008054600160401b810460ff16159067ffffffffffffffff1660008115801561049e5750825b905060008267ffffffffffffffff1660011480156104bb5750303b155b9050811580156104c9575080155b156104e75760405163f92ee8a960e01b815260040160405180910390fd5b845467ffffffffffffffff19166001178555831561051157845460ff60401b1916600160401b1785555b610519610c57565b61055b604051806040016040528060048152602001630c88aa8960e31b815250604051806040016040528060048152602001630c88aa8960e31b815250610c61565b610580604051806040016040528060048152602001630c88aa8960e31b815250610c73565b855161058e90600090610c9e565b506040860151600080546001600160a01b039283166001600160a01b031991821617909155602088015160018054918416918316919091179055606088015160028054919093169116179055831561062057845460ff60401b19168555604051600181527fc7f505b2f371ae2175ee4913f4499e1f2633a7b5936321eed1cdaeb6115181d29060200160405180910390a15b505050505050565b60606000600080516020611dd48339815191525b905080600301805461064d90611bf3565b80601f016020809104026020016040519081016040528092919081815260200182805461067990611bf3565b80156106c65780601f1061069b576101008083540402835291602001916106c6565b820191906000526020600020905b8154815290600101906020018083116106a957829003601f168201915b505050505091505090565b6000336106df818585610ce3565b5060019392505050565b6000336106f7858285610cf0565b610702858585610d50565b506001949350505050565b6000908152600080516020611e14833981519152602052604090206001015490565b6107388261070d565b61074181610daf565b61074b8383610c9e565b50505050565b600061075b610db9565b905090565b6001600160a01b03811633146107895760405163334bd91960e11b815260040160405180910390fd5b6107938282610dc3565b505050565b6000546001600160a01b031633146107c357604051631cec3cdb60e31b815260040160405180910390fd5b6107cd8282610dff565b5050565b6002546001600160a01b031633146107fc5760405163359ae1d360e11b815260040160405180910390fd5b6108063382610e35565b50565b600080600080516020611dd48339815191525b6001600160a01b0390931660009081526020939093525050604090205490565b600061045282610e6b565b60006060808280808381600080516020611df4833981519152805490915015801561087457506001810154155b6108bd5760405162461bcd60e51b81526020600482015260156024820152741152540dcc4c8e88155b9a5b9a5d1a585b1a5e9959605a1b60448201526064015b60405180910390fd5b6108c5610e76565b6108cd610eb5565b60408051600080825260208201909252600f60f81b9c939b5091995046985030975095509350915050565b6000828152600080516020611db483398151915260208190526040822061091f9084610ecd565b949350505050565b6000918252600080516020611e14833981519152602090815260408084206001600160a01b0393909316845291905290205460ff1690565b6001546001600160a01b0316331461098a5760405163baa183a760e01b815260040160405180910390fd5b60005b81811015610793576109e18383838181106109aa576109aa611c2d565b6109c09260206040909202019081019150611a01565b8484848181106109d2576109d2611c2d565b90506040020160200135610dff565b60010161098d565b7f52c63247e1f47db19d5ce0460030c497f067ca4cebf71ba98eeadabe20bace048054606091600080516020611dd48339815191529161064d90611bf3565b6000336106df818585610d50565b6000818152600080516020611db4833981519152602081905260408220610a5c90610ed9565b9392505050565b83421115610a875760405163313c898160e11b8152600481018590526024016108b4565b60007f6e71edae12b1b97f4d1f60370fef10105fa2faae0126114a169c64845d6126c9888888610af38c6001600160a01b031660009081527f5ab42ced628888259c08ac98db1eb0cf702fc1501344311d8b100cd1bfe4bb006020526040902080546001810190915590565b6040805160208101969096526001600160a01b0394851690860152929091166060840152608083015260a082015260c0810186905260e0016040516020818303038152906040528051906020012090506000610b4e82610ee3565b90506000610b5e82878787610f10565b9050896001600160a01b0316816001600160a01b031614610ba5576040516325c0072360e11b81526001600160a01b0380831660048301528b1660248201526044016108b4565b610bb08a8a8a610ce3565b50505050505050505050565b610bc58261070d565b610bce81610daf565b61074b8383610dc3565b6001600160a01b0391821660009081527f52c63247e1f47db19d5ce0460030c497f067ca4cebf71ba98eeadabe20bace016020908152604080832093909416825291909152205490565b60006001600160e01b03198216637965db0b60e01b148061045257506301ffc9a760e01b6001600160e01b0319831614610452565b610c5f610f3e565b565b610c69610f3e565b6107cd8282610f87565b610c7b610f3e565b61080681604051806040016040528060018152602001603160f81b815250610fd8565b6000600080516020611db483398151915281610cba8585611039565b9050801561091f576000858152602083905260409020610cda90856110de565b50949350505050565b61079383838360016110f3565b6000610cfc8484610bd8565b9050600019811461074b5781811015610d4157604051637dc7a0d960e11b81526001600160a01b038416600482015260248101829052604481018390526064016108b4565b61074b848484840360006110f3565b6001600160a01b038316610d7a57604051634b637e8f60e11b8152600060048201526024016108b4565b6001600160a01b038216610da45760405163ec442f0560e01b8152600060048201526024016108b4565b6107938383836111db565b6108068133611319565b600061075b611352565b6000600080516020611db483398151915281610ddf85856113c6565b9050801561091f576000858152602083905260409020610cda9085611442565b6001600160a01b038216610e295760405163ec442f0560e01b8152600060048201526024016108b4565b6107cd600083836111db565b6001600160a01b038216610e5f57604051634b637e8f60e11b8152600060048201526024016108b4565b6107cd826000836111db565b600061045282611457565b7fa16a46d94261c7517cc8ff89f61c0ce93598e3c849801011dee649a6a557d1028054606091600080516020611df48339815191529161064d90611bf3565b60606000600080516020611df483398151915261063c565b6000610a5c8383611480565b6000610452825490565b6000610452610ef0610db9565b8360405161190160f01b8152600281019290925260228201526042902090565b600080600080610f22888888886114aa565b925092509250610f328282611579565b50909695505050505050565b7ff0c57e16840df040f15088dc2f81fe391c3923bec73e23a9662efc9c229c6a0054600160401b900460ff16610c5f57604051631afcd79f60e31b815260040160405180910390fd5b610f8f610f3e565b600080516020611dd48339815191527f52c63247e1f47db19d5ce0460030c497f067ca4cebf71ba98eeadabe20bace03610fc98482611c8b565b506004810161074b8382611c8b565b610fe0610f3e565b600080516020611df48339815191527fa16a46d94261c7517cc8ff89f61c0ce93598e3c849801011dee649a6a557d10261101a8482611c8b565b50600381016110298382611c8b565b5060008082556001909101555050565b6000600080516020611e148339815191526110548484610927565b6110d4576000848152602082815260408083206001600160a01b03871684529091529020805460ff1916600117905561108a3390565b6001600160a01b0316836001600160a01b0316857f2f8788117e7eff1d82e926ec794901d17c78024a50270940304540a733656f0d60405160405180910390a46001915050610452565b6000915050610452565b6000610a5c836001600160a01b038416611632565b600080516020611dd48339815191526001600160a01b03851661112c5760405163e602df0560e01b8152600060048201526024016108b4565b6001600160a01b03841661115657604051634a1406b160e11b8152600060048201526024016108b4565b6001600160a01b038086166000908152600183016020908152604080832093881683529290522083905581156111d457836001600160a01b0316856001600160a01b03167f8c5be1e5ebec7d5bd14f71427d1e84f3dd0314c0f7b2291e5b200ac8c7c3b925856040516111cb91815260200190565b60405180910390a35b5050505050565b600080516020611dd48339815191526001600160a01b038416611217578181600201600082825461120c9190611d61565b909155506112899050565b6001600160a01b0384166000908152602082905260409020548281101561126a5760405163391434e360e21b81526001600160a01b038616600482015260248101829052604481018490526064016108b4565b6001600160a01b03851660009081526020839052604090209083900390555b6001600160a01b0383166112a75760028101805483900390556112c6565b6001600160a01b03831660009081526020829052604090208054830190555b826001600160a01b0316846001600160a01b03167fddf252ad1be2c89b69c2b068fc378daa952ba7f163c4a11628f55a4df523b3ef8460405161130b91815260200190565b60405180910390a350505050565b6113238282610927565b6107cd5760405163e2517d3f60e01b81526001600160a01b0382166004820152602481018390526044016108b4565b60007f8b73c3c69bb8fe3d512ecc4cf759cc79239f7b179b0ffacaa9a75d522b39400f61137d611681565b6113856116eb565b60408051602081019490945283019190915260608201524660808201523060a082015260c00160405160208183030381529060405280519060200120905090565b6000600080516020611e148339815191526113e18484610927565b156110d4576000848152602082815260408083206001600160a01b0387168085529252808320805460ff1916905551339287917ff6391f5c32d9c69d2a47ea670b442974b53935d1edc7fd64eb21e047a839171b9190a46001915050610452565b6000610a5c836001600160a01b03841661172f565b6000807f5ab42ced628888259c08ac98db1eb0cf702fc1501344311d8b100cd1bfe4bb0061081c565b600082600001828154811061149757611497611c2d565b9060005260206000200154905092915050565b600080807f7fffffffffffffffffffffffffffffff5d576e7357a4501ddfe92f46681b20a08411156114e5575060009150600390508261156f565b604080516000808252602082018084528a905260ff891692820192909252606081018790526080810186905260019060a0016020604051602081039080840390855afa158015611539573d6000803e3d6000fd5b5050604051601f1901519150506001600160a01b0381166115655750600092506001915082905061156f565b9250600091508190505b9450945094915050565b600082600381111561158d5761158d611d74565b03611596575050565b60018260038111156115aa576115aa611d74565b036115c85760405163f645eedf60e01b815260040160405180910390fd5b60028260038111156115dc576115dc611d74565b036115fd5760405163fce698f760e01b8152600481018290526024016108b4565b600382600381111561161157611611611d74565b036107cd576040516335e2f38360e21b8152600481018290526024016108b4565b600081815260018301602052604081205461167957508154600181810184556000848152602080822090930184905584548482528286019093526040902091909155610452565b506000610452565b6000600080516020611df48339815191528161169b610e76565b8051909150156116b357805160209091012092915050565b815480156116c2579392505050565b7fc5d2460186f7233c927e7db2dcc703c0e500b653ca82273b7bfad8045d85a470935050505090565b6000600080516020611df483398151915281611705610eb5565b80519091501561171d57805160209091012092915050565b600182015480156116c2579392505050565b600081815260018301602052604081205480156110d4576000611753600183611d8a565b855490915060009061176790600190611d8a565b90508082146117cc57600086600001828154811061178757611787611c2d565b90600052602060002001549050808760000184815481106117aa576117aa611c2d565b6000918252602080832090910192909255918252600188019052604090208390555b85548690806117dd576117dd611d9d565b600190038181906000526020600020016000905590558560010160008681526020019081526020016000206000905560019350505050610452565b60006020828403121561182a57600080fd5b81356001600160e01b031981168114610a5c57600080fd5b634e487b7160e01b600052604160045260246000fd5b6001600160a01b038116811461080657600080fd5b60006080828403121561187f57600080fd5b6040516080810181811067ffffffffffffffff821117156118a2576118a2611842565b60405282356118b081611858565b815260208301356118c081611858565b602082015260408301356118d381611858565b604082015260608301356118e681611858565b60608201529392505050565b6000815180845260005b81811015611918576020818501810151868301820152016118fc565b506000602082860101526020601f19601f83011685010191505092915050565b602081526000610a5c60208301846118f2565b6000806040838503121561195e57600080fd5b823561196981611858565b946020939093013593505050565b60008060006060848603121561198c57600080fd5b833561199781611858565b925060208401356119a781611858565b929592945050506040919091013590565b6000602082840312156119ca57600080fd5b5035919050565b600080604083850312156119e457600080fd5b8235915060208301356119f681611858565b809150509250929050565b600060208284031215611a1357600080fd5b8135610a5c81611858565b60ff60f81b881681526000602060e06020840152611a3f60e084018a6118f2565b8381036040850152611a51818a6118f2565b606085018990526001600160a01b038816608086015260a0850187905284810360c08601528551808252602080880193509091019060005b81811015611aa557835183529284019291840191600101611a89565b50909c9b505050505050505050505050565b60008060408385031215611aca57600080fd5b50508035926020909101359150565b60008060208385031215611aec57600080fd5b823567ffffffffffffffff80821115611b0457600080fd5b818501915085601f830112611b1857600080fd5b813581811115611b2757600080fd5b8660208260061b8501011115611b3c57600080fd5b60209290920196919550909350505050565b600080600080600080600060e0888a031215611b6957600080fd5b8735611b7481611858565b96506020880135611b8481611858565b95506040880135945060608801359350608088013560ff81168114611ba857600080fd5b9699959850939692959460a0840135945060c09093013592915050565b60008060408385031215611bd857600080fd5b8235611be381611858565b915060208301356119f681611858565b600181811c90821680611c0757607f821691505b602082108103611c2757634e487b7160e01b600052602260045260246000fd5b50919050565b634e487b7160e01b600052603260045260246000fd5b601f821115610793576000816000526020600020601f850160051c81016020861015611c6c5750805b601f850160051c820191505b8181101561062057828155600101611c78565b815167ffffffffffffffff811115611ca557611ca5611842565b611cb981611cb38454611bf3565b84611c43565b602080601f831160018114611cee5760008415611cd65750858301515b600019600386901b1c1916600185901b178555610620565b600085815260208120601f198616915b82811015611d1d57888601518255948401946001909101908401611cfe565b5085821015611d3b5787850151600019600388901b60f8161c191681555b5050505050600190811b01905550565b634e487b7160e01b600052601160045260246000fd5b8082018082111561045257610452611d4b565b634e487b7160e01b600052602160045260246000fd5b8181038181111561045257610452611d4b565b634e487b7160e01b600052603160045260246000fdfec1f6fe24621ce81ec5827caf0253cadb74709b061630e6b55e8237170593200052c63247e1f47db19d5ce0460030c497f067ca4cebf71ba98eeadabe20bace00a16a46d94261c7517cc8ff89f61c0ce93598e3c849801011dee649a6a557d10002dd7bc7dec4dceedda775e58dd541e08a116c6c53815c0bd028192f7b626800a264697066735822122099be42f45b2589082101f2dda6514b02c9c4637377583f1cb4eddf51934a4d8864736f6c63430008180033","linkReferences":{}},"methodIdentifiers":{"DEFAULT_ADMIN_ROLE()":"a217fddf","DOMAIN_SEPARATOR()":"3644e515","allowance(address,address)":"dd62ed3e","approve(address,uint256)":"095ea7b3","balanceOf(address)":"70a08231","batchMint((address,uint256)[])":"9386e197","burn(uint256)":"42966c68","decimals()":"313ce567","eip712Domain()":"84b0196e","getRoleAdmin(bytes32)":"248a9ca3","getRoleMember(bytes32,uint256)":"9010d07c","getRoleMemberCount(bytes32)":"ca15c873","grantRole(bytes32,address)":"2f2ff15d","hasRole(bytes32,address)":"91d14854","initialize((address,address,address,address))":"0415cc15","l2ShareAddress()":"f14a3f50","mint(address,uint256)":"40c10f19","name()":"06fdde03","nonces(address)":"7ecebe00","permit(address,address,uint256,uint256,uint8,bytes32,bytes32)":"d505accf","renounceRole(bytes32,address)":"36568abe","revokeRole(bytes32,address)":"d547741f","stakingContract()":"ee99205c","supportsInterface(bytes4)":"01ffc9a7","symbol()":"95d89b41","totalSupply()":"18160ddd","transfer(address,uint256)":"a9059cbb","transferFrom(address,address,uint256)":"23b872dd","unstakeRequestsManagerContract()":"0bec0886"},"id":67}