{"abi":[{"type":"constructor","inputs":[],"stateMutability":"nonpayable"},{"type":"function","name":"DELEGATION_APPROVAL_TYPEHASH","inputs":[],"outputs":[{"name":"","type":"bytes32","internalType":"bytes32"}],"stateMutability":"view"},{"type":"function","name":"DOMAIN_TYPEHASH","inputs":[],"outputs":[{"name":"","type":"bytes32","internalType":"bytes32"}],"stateMutability":"view"},{"type":"function","name":"MAX_STAKER_OPT_OUT_WINDOW_BLOCKS","inputs":[],"outputs":[{"name":"","type":"uint256","internalType":"uint256"}],"stateMutability":"view"},{"type":"function","name":"MAX_WITHDRAWAL_DELAY_BLOCKS","inputs":[],"outputs":[{"name":"","type":"uint256","internalType":"uint256"}],"stateMutability":"view"},{"type":"function","name":"STAKER_DELEGATION_TYPEHASH","inputs":[],"outputs":[{"name":"","type":"bytes32","internalType":"bytes32"}],"stateMutability":"view"},{"type":"function","name":"calculateCurrentStakerDelegationDigestHash","inputs":[{"name":"staker","type":"address","internalType":"address"},{"name":"operator","type":"address","internalType":"address"},{"name":"expiry","type":"uint256","internalType":"uint256"}],"outputs":[{"name":"","type":"bytes32","internalType":"bytes32"}],"stateMutability":"view"},{"type":"function","name":"calculateDelegationApprovalDigestHash","inputs":[{"name":"staker","type":"address","internalType":"address"},{"name":"operator","type":"address","internalType":"address"},{"name":"_delegationApprover","type":"address","internalType":"address"},{"name":"approverSalt","type":"bytes32","internalType":"bytes32"},{"name":"expiry","type":"uint256","internalType":"uint256"}],"outputs":[{"name":"","type":"bytes32","internalType":"bytes32"}],"stateMutability":"view"},{"type":"function","name":"calculateStakerDelegationDigestHash","inputs":[{"name":"staker","type":"address","internalType":"address"},{"name":"_stakerNonce","type":"uint256","internalType":"uint256"},{"name":"operator","type":"address","internalType":"address"},{"name":"expiry","type":"uint256","internalType":"uint256"}],"outputs":[{"name":"","type":"bytes32","internalType":"bytes32"}],"stateMutability":"view"},{"type":"function","name":"calculateWithdrawalRoot","inputs":[{"name":"withdrawal","type":"tuple","internalType":"struct IDelegationManager.Withdrawal","components":[{"name":"staker","type":"address","internalType":"address"},{"name":"delegatedTo","type":"address","internalType":"address"},{"name":"withdrawer","type":"address","internalType":"address"},{"name":"nonce","type":"uint256","internalType":"uint256"},{"name":"startBlock","type":"uint32","internalType":"uint32"},{"name":"strategies","type":"address[]","internalType":"contract IStrategy[]"},{"name":"shares","type":"uint256[]","internalType":"uint256[]"}]}],"outputs":[{"name":"","type":"bytes32","internalType":"bytes32"}],"stateMutability":"pure"},{"type":"function","name":"completeQueuedWithdrawal","inputs":[{"name":"withdrawal","type":"tuple","internalType":"struct IDelegationManager.Withdrawal","components":[{"name":"staker","type":"address","internalType":"address"},{"name":"delegatedTo","type":"address","internalType":"address"},{"name":"withdrawer","type":"address","internalType":"address"},{"name":"nonce","type":"uint256","internalType":"uint256"},{"name":"startBlock","type":"uint32","internalType":"uint32"},{"name":"strategies","type":"address[]","internalType":"contract IStrategy[]"},{"name":"shares","type":"uint256[]","internalType":"uint256[]"}]},{"name":"tokens","type":"address[]","internalType":"contract IERC20[]"},{"name":"middlewareTimesIndex","type":"uint256","internalType":"uint256"},{"name":"receiveAsTokens","type":"bool","internalType":"bool"}],"outputs":[],"stateMutability":"nonpayable"},{"type":"function","name":"completeQueuedWithdrawals","inputs":[{"name":"withdrawals","type":"tuple[]","internalType":"struct IDelegationManager.Withdrawal[]","components":[{"name":"staker","type":"address","internalType":"address"},{"name":"delegatedTo","type":"address","internalType":"address"},{"name":"withdrawer","type":"address","internalType":"address"},{"name":"nonce","type":"uint256","internalType":"uint256"},{"name":"startBlock","type":"uint32","internalType":"uint32"},{"name":"strategies","type":"address[]","internalType":"contract IStrategy[]"},{"name":"shares","type":"uint256[]","internalType":"uint256[]"}]},{"name":"tokens","type":"address[][]","internalType":"contract IERC20[][]"},{"name":"middlewareTimesIndexes","type":"uint256[]","internalType":"uint256[]"},{"name":"receiveAsTokens","type":"bool[]","internalType":"bool[]"}],"outputs":[],"stateMutability":"nonpayable"},{"type":"function","name":"cumulativeWithdrawalsQueued","inputs":[{"name":"","type":"address","internalType":"address"}],"outputs":[{"name":"","type":"uint256","internalType":"uint256"}],"stateMutability":"view"},{"type":"function","name":"decreaseDelegatedShares","inputs":[{"name":"staker","type":"address","internalType":"address"},{"name":"strategy","type":"address","internalType":"contract IStrategy"},{"name":"shares","type":"uint256","internalType":"uint256"}],"outputs":[],"stateMutability":"nonpayable"},{"type":"function","name":"delegateTo","inputs":[{"name":"operator","type":"address","internalType":"address"},{"name":"approverSignatureAndExpiry","type":"tuple","internalType":"struct ISignatureUtils.SignatureWithExpiry","components":[{"name":"signature","type":"bytes","internalType":"bytes"},{"name":"expiry","type":"uint256","internalType":"uint256"}]},{"name":"approverSalt","type":"bytes32","internalType":"bytes32"}],"outputs":[],"stateMutability":"nonpayable"},{"type":"function","name":"delegateToBySignature","inputs":[{"name":"staker","type":"address","internalType":"address"},{"name":"operator","type":"address","internalType":"address"},{"name":"stakerSignatureAndExpiry","type":"tuple","internalType":"struct ISignatureUtils.SignatureWithExpiry","components":[{"name":"signature","type":"bytes","internalType":"bytes"},{"name":"expiry","type":"uint256","internalType":"uint256"}]},{"name":"approverSignatureAndExpiry","type":"tuple","internalType":"struct ISignatureUtils.SignatureWithExpiry","components":[{"name":"signature","type":"bytes","internalType":"bytes"},{"name":"expiry","type":"uint256","internalType":"uint256"}]},{"name":"approverSalt","type":"bytes32","internalType":"bytes32"}],"outputs":[],"stateMutability":"nonpayable"},{"type":"function","name":"delegatedTo","inputs":[{"name":"","type":"address","internalType":"address"}],"outputs":[{"name":"","type":"address","internalType":"address"}],"stateMutability":"view"},{"type":"function","name":"delegationApprover","inputs":[{"name":"operator","type":"address","internalType":"address"}],"outputs":[{"name":"","type":"address","internalType":"address"}],"stateMutability":"view"},{"type":"function","name":"delegationApproverSaltIsSpent","inputs":[{"name":"","type":"address","internalType":"address"},{"name":"","type":"bytes32","internalType":"bytes32"}],"outputs":[{"name":"","type":"bool","internalType":"bool"}],"stateMutability":"view"},{"type":"function","name":"domainSeparator","inputs":[],"outputs":[{"name":"","type":"bytes32","internalType":"bytes32"}],"stateMutability":"view"},{"type":"function","name":"earningsReceiver","inputs":[{"name":"operator","type":"address","internalType":"address"}],"outputs":[{"name":"","type":"address","internalType":"address"}],"stateMutability":"view"},{"type":"function","name":"getDelegatableShares","inputs":[{"name":"staker","type":"address","internalType":"address"}],"outputs":[{"name":"","type":"address[]","internalType":"contract IStrategy[]"},{"name":"","type":"uint256[]","internalType":"uint256[]"}],"stateMutability":"view"},{"type":"function","name":"getOperatorShares","inputs":[{"name":"operator","type":"address","internalType":"address"},{"name":"strategies","type":"address[]","internalType":"contract IStrategy[]"}],"outputs":[{"name":"","type":"uint256[]","internalType":"uint256[]"}],"stateMutability":"view"},{"type":"function","name":"getWithdrawalDelay","inputs":[{"name":"strategies","type":"address[]","internalType":"contract IStrategy[]"}],"outputs":[{"name":"","type":"uint256","internalType":"uint256"}],"stateMutability":"view"},{"type":"function","name":"increaseDelegatedShares","inputs":[{"name":"staker","type":"address","internalType":"address"},{"name":"strategy","type":"address","internalType":"contract IStrategy"},{"name":"shares","type":"uint256","internalType":"uint256"}],"outputs":[],"stateMutability":"nonpayable"},{"type":"function","name":"initialize","inputs":[{"name":"initialOwner","type":"address","internalType":"address"},{"name":"_minWithdrawalDelayBlocks","type":"uint256","internalType":"uint256"},{"name":"_strategies","type":"address[]","internalType":"contract IStrategy[]"},{"name":"_withdrawalDelayBlocks","type":"uint256[]","internalType":"uint256[]"},{"name":"_strategyManager","type":"address","internalType":"contract IStrategyManager"},{"name":"_slasher","type":"address","internalType":"contract ISlashManager"},{"name":"_pauser","type":"address","internalType":"contract IL2Pauser"}],"outputs":[],"stateMutability":"nonpayable"},{"type":"function","name":"isDelegated","inputs":[{"name":"staker","type":"address","internalType":"address"}],"outputs":[{"name":"","type":"bool","internalType":"bool"}],"stateMutability":"view"},{"type":"function","name":"isOperator","inputs":[{"name":"operator","type":"address","internalType":"address"}],"outputs":[{"name":"","type":"bool","internalType":"bool"}],"stateMutability":"view"},{"type":"function","name":"migrateQueuedWithdrawals","inputs":[{"name":"withdrawalsToMigrate","type":"tuple[]","internalType":"struct IStrategyManager.DeprecatedStruct_QueuedWithdrawal[]","components":[{"name":"strategies","type":"address[]","internalType":"contract IStrategy[]"},{"name":"shares","type":"uint256[]","internalType":"uint256[]"},{"name":"staker","type":"address","internalType":"address"},{"name":"withdrawerAndNonce","type":"tuple","internalType":"struct IStrategyManager.DeprecatedStruct_WithdrawerAndNonce","components":[{"name":"withdrawer","type":"address","internalType":"address"},{"name":"nonce","type":"uint96","internalType":"uint96"}]},{"name":"withdrawalStartBlock","type":"uint32","internalType":"uint32"},{"name":"delegatedAddress","type":"address","internalType":"address"}]}],"outputs":[],"stateMutability":"nonpayable"},{"type":"function","name":"minWithdrawalDelayBlocks","inputs":[],"outputs":[{"name":"","type":"uint256","internalType":"uint256"}],"stateMutability":"view"},{"type":"function","name":"modifyOperatorDetails","inputs":[{"name":"newOperatorDetails","type":"tuple","internalType":"struct IDelegationManager.OperatorDetails","components":[{"name":"earningsReceiver","type":"address","internalType":"address"},{"name":"delegationApprover","type":"address","internalType":"address"},{"name":"stakerOptOutWindowBlocks","type":"uint32","internalType":"uint32"},{"name":"operatorType","type":"uint8","internalType":"enum IDelegationManager.OperatorType"}]}],"outputs":[],"stateMutability":"nonpayable"},{"type":"function","name":"operatorDetails","inputs":[{"name":"operator","type":"address","internalType":"address"}],"outputs":[{"name":"","type":"tuple","internalType":"struct IDelegationManager.OperatorDetails","components":[{"name":"earningsReceiver","type":"address","internalType":"address"},{"name":"delegationApprover","type":"address","internalType":"address"},{"name":"stakerOptOutWindowBlocks","type":"uint32","internalType":"uint32"},{"name":"operatorType","type":"uint8","internalType":"enum IDelegationManager.OperatorType"}]}],"stateMutability":"view"},{"type":"function","name":"operatorShares","inputs":[{"name":"","type":"address","internalType":"address"},{"name":"","type":"address","internalType":"contract IStrategy"}],"outputs":[{"name":"","type":"uint256","internalType":"uint256"}],"stateMutability":"view"},{"type":"function","name":"owner","inputs":[],"outputs":[{"name":"","type":"address","internalType":"address"}],"stateMutability":"view"},{"type":"function","name":"pauser","inputs":[],"outputs":[{"name":"","type":"address","internalType":"contract IL2Pauser"}],"stateMutability":"view"},{"type":"function","name":"pendingWithdrawals","inputs":[{"name":"","type":"bytes32","internalType":"bytes32"}],"outputs":[{"name":"","type":"bool","internalType":"bool"}],"stateMutability":"view"},{"type":"function","name":"queueWithdrawals","inputs":[{"name":"queuedWithdrawalParams","type":"tuple[]","internalType":"struct IDelegationManager.QueuedWithdrawalParams[]","components":[{"name":"strategies","type":"address[]","internalType":"contract IStrategy[]"},{"name":"shares","type":"uint256[]","internalType":"uint256[]"},{"name":"withdrawer","type":"address","internalType":"address"}]}],"outputs":[{"name":"","type":"bytes32[]","internalType":"bytes32[]"}],"stateMutability":"nonpayable"},{"type":"function","name":"registerAsOperator","inputs":[{"name":"registeringOperatorDetails","type":"tuple","internalType":"struct IDelegationManager.OperatorDetails","components":[{"name":"earningsReceiver","type":"address","internalType":"address"},{"name":"delegationApprover","type":"address","internalType":"address"},{"name":"stakerOptOutWindowBlocks","type":"uint32","internalType":"uint32"},{"name":"operatorType","type":"uint8","internalType":"enum IDelegationManager.OperatorType"}]},{"name":"nodeUrl","type":"string","internalType":"string"}],"outputs":[],"stateMutability":"nonpayable"},{"type":"function","name":"renounceOwnership","inputs":[],"outputs":[],"stateMutability":"nonpayable"},{"type":"function","name":"setMinWithdrawalDelayBlocks","inputs":[{"name":"newMinWithdrawalDelayBlocks","type":"uint256","internalType":"uint256"}],"outputs":[],"stateMutability":"nonpayable"},{"type":"function","name":"setStrategyWithdrawalDelayBlocks","inputs":[{"name":"strategies","type":"address[]","internalType":"contract IStrategy[]"},{"name":"withdrawalDelayBlocks","type":"uint256[]","internalType":"uint256[]"}],"outputs":[],"stateMutability":"nonpayable"},{"type":"function","name":"slasher","inputs":[],"outputs":[{"name":"","type":"address","internalType":"contract ISlashManager"}],"stateMutability":"view"},{"type":"function","name":"stakerNonce","inputs":[{"name":"","type":"address","internalType":"address"}],"outputs":[{"name":"","type":"uint256","internalType":"uint256"}],"stateMutability":"view"},{"type":"function","name":"stakerOptOutWindowBlocks","inputs":[{"name":"operator","type":"address","internalType":"address"}],"outputs":[{"name":"","type":"uint256","internalType":"uint256"}],"stateMutability":"view"},{"type":"function","name":"strategyManager","inputs":[],"outputs":[{"name":"","type":"address","internalType":"contract IStrategyManager"}],"stateMutability":"view"},{"type":"function","name":"strategyWithdrawalDelayBlocks","inputs":[{"name":"","type":"address","internalType":"contract IStrategy"}],"outputs":[{"name":"","type":"uint256","internalType":"uint256"}],"stateMutability":"view"},{"type":"function","name":"transferOwnership","inputs":[{"name":"newOwner","type":"address","internalType":"address"}],"outputs":[],"stateMutability":"nonpayable"},{"type":"function","name":"undelegate","inputs":[{"name":"staker","type":"address","internalType":"address"}],"outputs":[{"name":"withdrawalRoots","type":"bytes32[]","internalType":"bytes32[]"}],"stateMutability":"nonpayable"},{"type":"function","name":"updateOperatorNodeUrl","inputs":[{"name":"nodeUrl","type":"string","internalType":"string"}],"outputs":[],"stateMutability":"nonpayable"},{"type":"event","name":"Initialized","inputs":[{"name":"version","type":"uint64","indexed":false,"internalType":"uint64"}],"anonymous":false},{"type":"event","name":"MinWithdrawalDelayBlocksSet","inputs":[{"name":"previousValue","type":"uint256","indexed":false,"internalType":"uint256"},{"name":"newValue","type":"uint256","indexed":false,"internalType":"uint256"}],"anonymous":false},{"type":"event","name":"OperatorDetailsModified","inputs":[{"name":"operator","type":"address","indexed":true,"internalType":"address"},{"name":"newOperatorDetails","type":"tuple","indexed":false,"internalType":"struct IDelegationManager.OperatorDetails","components":[{"name":"earningsReceiver","type":"address","internalType":"address"},{"name":"delegationApprover","type":"address","internalType":"address"},{"name":"stakerOptOutWindowBlocks","type":"uint32","internalType":"uint32"},{"name":"operatorType","type":"uint8","internalType":"enum IDelegationManager.OperatorType"}]}],"anonymous":false},{"type":"event","name":"OperatorNodeUrlUpdated","inputs":[{"name":"operator","type":"address","indexed":true,"internalType":"address"},{"name":"metadataURI","type":"string","indexed":false,"internalType":"string"}],"anonymous":false},{"type":"event","name":"OperatorRegistered","inputs":[{"name":"operator","type":"address","indexed":true,"internalType":"address"},{"name":"operatorDetails","type":"tuple","indexed":false,"internalType":"struct IDelegationManager.OperatorDetails","components":[{"name":"earningsReceiver","type":"address","internalType":"address"},{"name":"delegationApprover","type":"address","internalType":"address"},{"name":"stakerOptOutWindowBlocks","type":"uint32","internalType":"uint32"},{"name":"operatorType","type":"uint8","internalType":"enum IDelegationManager.OperatorType"}]}],"anonymous":false},{"type":"event","name":"OperatorSharesDecreased","inputs":[{"name":"operator","type":"address","indexed":true,"internalType":"address"},{"name":"staker","type":"address","indexed":false,"internalType":"address"},{"name":"strategy","type":"address","indexed":false,"internalType":"contract IStrategy"},{"name":"shares","type":"uint256","indexed":false,"internalType":"uint256"}],"anonymous":false},{"type":"event","name":"OperatorSharesIncreased","inputs":[{"name":"operator","type":"address","indexed":true,"internalType":"address"},{"name":"staker","type":"address","indexed":false,"internalType":"address"},{"name":"strategy","type":"address","indexed":false,"internalType":"contract IStrategy"},{"name":"shares","type":"uint256","indexed":false,"internalType":"uint256"}],"anonymous":false},{"type":"event","name":"OwnershipTransferred","inputs":[{"name":"previousOwner","type":"address","indexed":true,"internalType":"address"},{"name":"newOwner","type":"address","indexed":true,"internalType":"address"}],"anonymous":false},{"type":"event","name":"StakerDelegated","inputs":[{"name":"staker","type":"address","indexed":true,"internalType":"address"},{"name":"operator","type":"address","indexed":true,"internalType":"address"}],"anonymous":false},{"type":"event","name":"StakerForceUndelegated","inputs":[{"name":"staker","type":"address","indexed":true,"internalType":"address"},{"name":"operator","type":"address","indexed":true,"internalType":"address"}],"anonymous":false},{"type":"event","name":"StakerUndelegated","inputs":[{"name":"staker","type":"address","indexed":true,"internalType":"address"},{"name":"operator","type":"address","indexed":true,"internalType":"address"}],"anonymous":false},{"type":"event","name":"StrategyWithdrawalDelayBlocksSet","inputs":[{"name":"strategy","type":"address","indexed":false,"internalType":"contract IStrategy"},{"name":"previousValue","type":"uint256","indexed":false,"internalType":"uint256"},{"name":"newValue","type":"uint256","indexed":false,"internalType":"uint256"}],"anonymous":false},{"type":"event","name":"WithdrawalCompleted","inputs":[{"name":"withdrawalRoot","type":"bytes32","indexed":false,"internalType":"bytes32"}],"anonymous":false},{"type":"event","name":"WithdrawalMigrated","inputs":[{"name":"oldWithdrawalRoot","type":"bytes32","indexed":false,"internalType":"bytes32"},{"name":"newWithdrawalRoot","type":"bytes32","indexed":false,"internalType":"bytes32"}],"anonymous":false},{"type":"event","name":"WithdrawalQueued","inputs":[{"name":"withdrawalRoot","type":"bytes32","indexed":false,"internalType":"bytes32"},{"name":"withdrawal","type":"tuple","indexed":false,"internalType":"struct IDelegationManager.Withdrawal","components":[{"name":"staker","type":"address","internalType":"address"},{"name":"delegatedTo","type":"address","internalType":"address"},{"name":"withdrawer","type":"address","internalType":"address"},{"name":"nonce","type":"uint256","internalType":"uint256"},{"name":"startBlock","type":"uint32","internalType":"uint32"},{"name":"strategies","type":"address[]","internalType":"contract IStrategy[]"},{"name":"shares","type":"uint256[]","internalType":"uint256[]"}]}],"anonymous":false},{"type":"error","name":"ECDSAInvalidSignature","inputs":[]},{"type":"error","name":"ECDSAInvalidSignatureLength","inputs":[{"name":"length","type":"uint256","internalType":"uint256"}]},{"type":"error","name":"ECDSAInvalidSignatureS","inputs":[{"name":"s","type":"bytes32","internalType":"bytes32"}]},{"type":"error","name":"InvalidInitialization","inputs":[]},{"type":"error","name":"NotInitializing","inputs":[]},{"type":"error","name":"OwnableInvalidOwner","inputs":[{"name":"owner","type":"address","internalType":"address"}]},{"type":"error","name":"OwnableUnauthorizedAccount","inputs":[{"name":"account","type":"address","internalType":"address"}]},{"type":"error","name":"ReentrancyGuardReentrantCall","inputs":[]}],"bytecode":{"object":"0x60a06040523480156200001157600080fd5b506200001c62000026565b46608052620000da565b7ff0c57e16840df040f15088dc2f81fe391c3923bec73e23a9662efc9c229c6a00805468010000000000000000900460ff1615620000775760405163f92ee8a960e01b815260040160405180910390fd5b80546001600160401b0390811614620000d75780546001600160401b0319166001600160401b0390811782556040519081527fc7f505b2f371ae2175ee4913f4499e1f2633a7b5936321eed1cdaeb6115181d29060200160405180910390a15b50565b6080516151c8620000f6600039600061217c01526151c86000f3fe608060405234801561001057600080fd5b50600436106102a05760003560e01c806360d7faed11610167578063b7f06ebe116100ce578063ca661c0411610087578063ca661c041461073d578063cf80873e14610747578063da8be86414610768578063eea9064b1461077b578063f2fde38b1461078e578063f698da25146107a157600080fd5b8063b7f06ebe14610690578063bb45fef2146106b3578063c448feb8146106e1578063c488375a146106ea578063c5e480db1461070a578063c94b51111461072a57600080fd5b80637f548071116101205780637f548071146105e75780638da5cb5b146105fa578063900413471461062a5780639fd0506d1461064a578063a17884841461065d578063b13442711461067d57600080fd5b806360d7faed14610552578063635bbd101461056557806365da1264146105785780636d70f7ae146105a1578063715018a6146105b4578063778e55f3146105bc57600080fd5b806329c77d4f1161020b57806343377382116101c457806343377382146104bc5780634fc40b61146104e3578063597b36da146104ed5780635ce4c761146105005780635cfe8d2c146105135780635f966f141461052657600080fd5b806329c77d4f146103f957806330d0377b14610419578063334043961461042c57806339b70e381461043f5780633cdeb5e01461046a5780633e28391d1461049957600080fd5b80631522bf021161025d5780631522bf021461034d57806316928365146103605780631bbce091146103995780631c8392d7146103ac57806320606b70146103bf57806328a573ae146103e657600080fd5b80630449ca39146102a557806304a4f979146102cb5780630b9f487a146102f25780630dd8dd02146103055780631167457814610325578063132d49671461033a575b600080fd5b6102b86102b3366004613dbb565b6107a9565b6040519081526020015b60405180910390f35b6102b87f14bde674c9f64b2ad00eaaee4a8bed1fabef35c7507e3c5b9cfc9436909a2dad81565b6102b8610300366004613e15565b610828565b610318610313366004613dbb565b6108ea565b6040516102c29190613e70565b610338610333366004613f0d565b610ce4565b005b610338610348366004613f60565b610e34565b61033861035b366004613fa1565b610e9a565b6102b861036e36600461400c565b6001600160a01b0316600090815260026020526040902060010154600160a01b900463ffffffff1690565b6102b86103a7366004613f60565b610eae565b6103386103ba366004614030565b610edc565b6102b87f8cad95687ba82c2ce50e74f7b754645e5117c3a5bec8151c0726d5857980a86681565b6103386103f4366004613f60565b610faa565b6102b861040736600461400c565b60046020526000908152604090205481565b610338610427366004614065565b611009565b61033861043a366004614081565b61109d565b603254610452906001600160a01b031681565b6040516001600160a01b0390911681526020016102c2565b61045261047836600461400c565b6001600160a01b039081166000908152600260205260409020600101541690565b6104ac6104a736600461400c565b61125a565b60405190151581526020016102c2565b6102b87f39111bc4a4d688e1f685123d7497d4615370152a8ee4a0593e647bd06ad8bb0b81565b6102b86213c68081565b6102b86104fb3660046143c9565b61127a565b61033861050e366004614405565b6112aa565b61033861052136600461451b565b61141d565b61045261053436600461400c565b6001600160a01b039081166000908152600260205260409020541690565b61033861056036600461467b565b6116b0565b61033861057336600461470a565b6117d2565b61045261058636600461400c565b6003602052600090815260409020546001600160a01b031681565b6104ac6105af36600461400c565b6117e3565b610338611803565b6102b86105ca366004614723565b600160209081526000928352604080842090915290825290205481565b6103386105f5366004614804565b611817565b7f9016d09d72d40fdae2fd8ceac6b6234c7706214fd39c1cd1e609a0528c199300546001600160a01b0316610452565b61063d610638366004614894565b61191c565b6040516102c2919061491f565b603454610452906001600160a01b031681565b6102b861066b36600461400c565b60086020526000908152604090205481565b603354610452906001600160a01b031681565b6104ac61069e36600461470a565b60076020526000908152604090205460ff1681565b6104ac6106c1366004614932565b600560209081526000928352604080842090915290825290205460ff1681565b6102b860065481565b6102b86106f836600461400c565b600a6020526000908152604090205481565b61071d61071836600461400c565b6119ee565b6040516102c29190614996565b6102b86107383660046149e0565b611a9f565b6102b862034bc081565b61075a61075536600461400c565b611b58565b6040516102c2929190614a62565b61031861077636600461400c565b611bde565b610338610789366004614a87565b612131565b61033861079c36600461400c565b61213d565b6102b8612178565b600654600090815b8381101561081e576000600a60008787858181106107d1576107d1614adf565b90506020020160208101906107e6919061400c565b6001600160a01b03166001600160a01b0316815260200190815260200160002054905082811115610815578092505b506001016107b1565b5090505b92915050565b604080517f14bde674c9f64b2ad00eaaee4a8bed1fabef35c7507e3c5b9cfc9436909a2dad6020808301919091526001600160a01b038681168385015288811660608401528716608083015260a0820185905260c08083018590528351808403909101815260e09092019092528051910120600090816108a6612178565b60405161190160f01b602082015260228101919091526042810183905260620160408051808303601f19018152919052805160209091012098975050505050505050565b60345460408051634994adeb60e01b815290516060926001600160a01b031691634994adeb9160048083019260209291908290030181865afa158015610934573d6000803e3d6000fd5b505050506040513d601f19601f820116820180604052508101906109589190614af5565b6109bb5760405162461bcd60e51b815260206004820152602960248201527f44656c65676174696f6e4d616e616765723a71756575655769746864726177616044820152681b1cc81c185d5cd95960ba1b60648201526084015b60405180910390fd5b6000826001600160401b038111156109d5576109d5614144565b6040519080825280602002602001820160405280156109fe578160200160208202803683370190505b50336000908152600360205260408120549192506001600160a01b03909116905b84811015610cda57858582818110610a3957610a39614adf565b9050602002810190610a4b9190614b12565b610a59906020810190614b32565b9050868683818110610a6d57610a6d614adf565b9050602002810190610a7f9190614b12565b610a899080614b32565b905014610afe5760405162461bcd60e51b815260206004820152603860248201527f44656c65676174696f6e4d616e616765722e717565756557697468647261776160448201527f6c3a20696e707574206c656e677468206d69736d61746368000000000000000060648201526084016109b2565b33868683818110610b1157610b11614adf565b9050602002810190610b239190614b12565b610b3490606081019060400161400c565b6001600160a01b031614610bb05760405162461bcd60e51b815260206004820152603c60248201527f44656c65676174696f6e4d616e616765722e717565756557697468647261776160448201527f6c3a2077697468647261776572206d757374206265207374616b65720000000060648201526084016109b2565b610cb53383888885818110610bc757610bc7614adf565b9050602002810190610bd99190614b12565b610bea90606081019060400161400c565b898986818110610bfc57610bfc614adf565b9050602002810190610c0e9190614b12565b610c189080614b32565b808060200260200160405190810160405280939291908181526020018383602002808284376000920191909152508d92508c9150889050818110610c5e57610c5e614adf565b9050602002810190610c709190614b12565b610c7e906020810190614b32565b808060200260200160405190810160405280939291908181526020018383602002808284376000920191909152506121b592505050565b838281518110610cc757610cc7614adf565b6020908102919091010152600101610a1f565b5090949350505050565b336000908152600260205260409020546001600160a01b031615610d7e5760405162461bcd60e51b815260206004820152604560248201527f44656c65676174696f6e4d616e616765722e726567697374657241734f70657260448201527f61746f723a206f70657261746f722068617320616c72656164792072656769736064820152641d195c995960da1b608482015260a4016109b2565b610d88338461266c565b604080518082019091526060815260006020820152610daa3380836000612907565b336001600160a01b03167f56911302237efb62a9bd04b0083a3bcf08e50246e09837cdae47ce169ff6d6c985604051610de39190614b88565b60405180910390a2336001600160a01b03167f826d13513a58153c5878cd93af2008d3f8dfc32049e748b380b1b385645e280b8484604051610e26929190614bed565b60405180910390a250505050565b6032546001600160a01b03163314610e5e5760405162461bcd60e51b81526004016109b290614c1c565b610e678361125a565b15610e95576001600160a01b0380841660009081526003602052604090205416610e9381858585612d50565b505b505050565b610ea2612dd9565b610e9384848484612e34565b6001600160a01b038316600090815260046020526040812054610ed385828686611a9f565b95945050505050565b610ee5336117e3565b610f635760405162461bcd60e51b815260206004820152604360248201527f44656c65676174696f6e4d616e616765722e7570646174654f70657261746f7260448201527f4e6f646555726c3a2063616c6c6572206d75737420626520616e206f706572616064820152623a37b960e91b608482015260a4016109b2565b336001600160a01b03167f826d13513a58153c5878cd93af2008d3f8dfc32049e748b380b1b385645e280b8383604051610f9e929190614bed565b60405180910390a25050565b6032546001600160a01b03163314610fd45760405162461bcd60e51b81526004016109b290614c1c565b610fdd8361125a565b15610e95576001600160a01b0380841660009081526003602052604090205416610e9381858585613054565b611012336117e3565b6110905760405162461bcd60e51b815260206004820152604360248201527f44656c65676174696f6e4d616e616765722e6d6f646966794f70657261746f7260448201527f44657461696c733a2063616c6c6572206d75737420626520616e206f706572616064820152623a37b960e91b608482015260a4016109b2565b61109a338261266c565b50565b6110a56130dd565b603460009054906101000a90046001600160a01b03166001600160a01b0316634994adeb6040518163ffffffff1660e01b8152600401602060405180830381865afa1580156110f8573d6000803e3d6000fd5b505050506040513d601f19601f8201168201806040525081019061111c9190614af5565b6111835760405162461bcd60e51b815260206004820152603260248201527f44656c65676174696f6e4d616e616765723a636f6d706c65746551756575656460448201527115da5d1a191c985dd85b1cc81c185d5cd95960721b60648201526084016109b2565b60005b878110156112265761121e8989838181106111a3576111a3614adf565b90506020028101906111b59190614c62565b8888848181106111c7576111c7614adf565b90506020028101906111d99190614b32565b8888868181106111eb576111eb614adf565b9050602002013587878781811061120457611204614adf565b90506020020160208101906112199190614c78565b613127565b600101611186565b5061125060017f9b779b17422d0df92223018b32b4d1fa46e071723d6817e2486d003becc55f0055565b5050505050505050565b6001600160a01b0390811660009081526003602052604090205416151590565b60008160405160200161128d9190614d09565b604051602081830303815290604052805190602001209050919050565b7ff0c57e16840df040f15088dc2f81fe391c3923bec73e23a9662efc9c229c6a008054600160401b810460ff1615906001600160401b03166000811580156112ef5750825b90506000826001600160401b0316600114801561130b5750303b155b905081158015611319575080155b156113375760405163f92ee8a960e01b815260040160405180910390fd5b845467ffffffffffffffff19166001178555831561136157845460ff60401b1916600160401b1785555b61136961374f565b6000556113758e6137e4565b61137e8d613855565b61138a8c8c8c8c612e34565b603280546001600160a01b03808b166001600160a01b031992831617909255603380548a84169083161790556034805492891692909116919091179055831561140d57845460ff60401b19168555604051600181527fc7f505b2f371ae2175ee4913f4499e1f2633a7b5936321eed1cdaeb6115181d29060200160405180910390a15b5050505050505050505050505050565b60005b81518110156116ac57600082828151811061143d5761143d614adf565b602090810291909101015160325460405163cd293f6f60e01b815291925060009182916001600160a01b03169063cd293f6f9061147e908690600401614d1c565b60408051808303816000875af115801561149c573d6000803e3d6000fd5b505050506040513d601f19601f820116820180604052508101906114c09190614dc8565b91509150811561169e576040808401516001600160a01b03811660009081526008602052918220805491928291906114f783614e0c565b919050555060006040518060e00160405280846001600160a01b031681526020018760a001516001600160a01b031681526020018760600151600001516001600160a01b03168152602001838152602001876080015163ffffffff168152602001876000015181526020018760200151815250905060006115778261127a565b60008181526007602052604090205490915060ff161561160d5760405162461bcd60e51b815260206004820152604560248201527f44656c65676174696f6e4d616e616765722e6d6967726174655175657565645760448201527f69746864726177616c733a207769746864726177616c20616c72656164792065606482015264786973747360d81b608482015260a4016109b2565b60008181526007602052604090819020805460ff19166001179055517f9009ab153e8014fbfb02f2217f5cde7aa7f9ad734ae85ca3ee3f4ca2fdd499f9906116589083908590614e25565b60405180910390a160408051868152602081018390527fdc00758b65eef71dc3780c04ebe36cab6bdb266c3a698187e29e0f0dca012630910160405180910390a1505050505b836001019350505050611420565b5050565b6116b86130dd565b603460009054906101000a90046001600160a01b03166001600160a01b0316634994adeb6040518163ffffffff1660e01b8152600401602060405180830381865afa15801561170b573d6000803e3d6000fd5b505050506040513d601f19601f8201168201806040525081019061172f9190614af5565b6117955760405162461bcd60e51b815260206004820152603160248201527f44656c65676174696f6e4d616e616765723a636f6d706c65746551756575656460448201527015da5d1a191c985dd85b081c185d5cd959607a1b60648201526084016109b2565b6117a28585858585613127565b6117cb60017f9b779b17422d0df92223018b32b4d1fa46e071723d6817e2486d003becc55f0055565b5050505050565b6117da612dd9565b61109a81613855565b6001600160a01b0390811660009081526002602052604090205416151590565b61180b612dd9565b61181560006137e4565b565b428360200151101561189b5760405162461bcd60e51b815260206004820152604160248201527f44656c65676174696f6e4d616e616765722e64656c6567617465546f4279536960448201527f676e61747572653a207374616b6572207369676e6174757265206578706972656064820152601960fa1b608482015260a4016109b2565b600060046000876001600160a01b03166001600160a01b0316815260200190815260200160002054905060006118d78783888860200151611a9f565b6001600160a01b03881660009081526004602052604090206001840190558551909150611907908890839061394f565b61191387878686612907565b50505050505050565b6060600082516001600160401b0381111561193957611939614144565b604051908082528060200260200182016040528015611962578160200160208202803683370190505b50905060005b835181101561081e576001600160a01b038516600090815260016020526040812085519091908690849081106119a0576119a0614adf565b60200260200101516001600160a01b03166001600160a01b03168152602001908152602001600020548282815181106119db576119db614adf565b6020908102919091010152600101611968565b611a166040805160808101825260008082526020820181905291810182905290606082015290565b6001600160a01b038281166000908152600260209081526040918290208251608081018452815485168152600182015494851692810192909252600160a01b840463ffffffff1692820192909252916060830190600160c01b900460ff166006811115611a8557611a8561495e565b6006811115611a9657611a9661495e565b90525092915050565b604080517f39111bc4a4d688e1f685123d7497d4615370152a8ee4a0593e647bd06ad8bb0b6020808301919091526001600160a01b0387811683850152851660608301526080820186905260a08083018590528351808403909101815260c0909201909252805191012060009081611b15612178565b60405161190160f01b602082015260228101919091526042810183905260620160408051808303601f190181529190528051602090910120979650505050505050565b6032546040516394f649dd60e01b81526001600160a01b0383811660048301526060928392600092839216906394f649dd90602401600060405180830381865afa158015611baa573d6000803e3d6000fd5b505050506040513d6000823e601f3d908101601f19168201604052611bd29190810190614e9d565b90969095509350505050565b6034546040805163c77cf18d60e01b815290516060926001600160a01b03169163c77cf18d9160048083019260209291908290030181865afa158015611c28573d6000803e3d6000fd5b505050506040513d601f19601f82011682018060405250810190611c4c9190614af5565b611ca45760405162461bcd60e51b815260206004820152602360248201527f44656c65676174696f6e4d616e616765723a756e64656c6567617465207061756044820152621cd95960ea1b60648201526084016109b2565b611cad8261125a565b611d2d5760405162461bcd60e51b8152602060048201526044602482018190527f44656c65676174696f6e4d616e616765722e756e64656c65676174653a207374908201527f616b6572206d7573742062652064656c65676174656420746f20756e64656c656064820152636761746560e01b608482015260a4016109b2565b611d36826117e3565b15611da95760405162461bcd60e51b815260206004820152603d60248201527f44656c65676174696f6e4d616e616765722e756e64656c65676174653a206f7060448201527f657261746f72732063616e6e6f7420626520756e64656c65676174656400000060648201526084016109b2565b6001600160a01b038216611e255760405162461bcd60e51b815260206004820152603c60248201527f44656c65676174696f6e4d616e616765722e756e64656c65676174653a20636160448201527f6e6e6f7420756e64656c6567617465207a65726f20616464726573730000000060648201526084016109b2565b6001600160a01b0380831660008181526003602052604090205490911690331480611e585750336001600160a01b038216145b80611e7f57506001600160a01b038181166000908152600260205260409020600101541633145b611ef15760405162461bcd60e51b815260206004820152603d60248201527f44656c65676174696f6e4d616e616765722e756e64656c65676174653a20636160448201527f6c6c65722063616e6e6f7420756e64656c6567617465207374616b657200000060648201526084016109b2565b600080611efd85611b58565b9092509050336001600160a01b03861614611f5357826001600160a01b0316856001600160a01b03167ff0eddf07e6ea14f388b47e1e94a0f464ecbd9eed4171130e0fc0e99fb4030a8a60405160405180910390a35b826001600160a01b0316856001600160a01b03167ffee30966a256b71e14bc0ebfc94315e28ef4a97a7131a9e2b7a310a73af4467660405160405180910390a36001600160a01b038516600090815260036020526040812080546001600160a01b031916905582519003611fd7576040805160008152602081019091529350612129565b81516001600160401b03811115611ff057611ff0614144565b604051908082528060200260200182016040528015612019578160200160208202803683370190505b50935060005b82518110156121275760408051600180825281830190925260009160208083019080368337505060408051600180825281830190925292935060009291506020808301908036833701905050905084838151811061207f5761207f614adf565b60200260200101518260008151811061209a5761209a614adf565b60200260200101906001600160a01b031690816001600160a01b0316815250508383815181106120cc576120cc614adf565b6020026020010151816000815181106120e7576120e7614adf565b60200260200101818152505061210088878a85856121b5565b87848151811061211257612112614adf565b6020908102919091010152505060010161201f565b505b505050919050565b610e9533848484612907565b612145612dd9565b6001600160a01b03811661216f57604051631e4fbdf760e01b8152600060048201526024016109b2565b61109a816137e4565b60007f000000000000000000000000000000000000000000000000000000000000000046036121a8575060005490565b6121b061374f565b905090565b60006001600160a01b03861661224c5760405162461bcd60e51b815260206004820152605060248201527f44656c65676174696f6e4d616e616765722e5f72656d6f76655368617265734160448201527f6e6451756575655769746864726177616c3a207374616b65722063616e6e6f7460648201526f206265207a65726f206164647265737360801b608482015260a4016109b2565b82516000036122d95760405162461bcd60e51b815260206004820152604d60248201527f44656c65676174696f6e4d616e616765722e5f72656d6f76655368617265734160448201527f6e6451756575655769746864726177616c3a207374726174656769657320636160648201526c6e6e6f7420626520656d70747960981b608482015260a4016109b2565b60005b835181101561257a576001600160a01b0386161561233257612332868886848151811061230b5761230b614adf565b602002602001015186858151811061232557612325614adf565b6020026020010151612d50565b846001600160a01b0316876001600160a01b031614806123ec575060325484516001600160a01b0390911690639b4da03d9086908490811061237657612376614adf565b60200260200101516040518263ffffffff1660e01b81526004016123a991906001600160a01b0391909116815260200190565b602060405180830381865afa1580156123c6573d6000803e3d6000fd5b505050506040513d601f19601f820116820180604052508101906123ea9190614af5565b155b6124b85760405162461bcd60e51b8152602060048201526084602482018190527f44656c65676174696f6e4d616e616765722e5f72656d6f76655368617265734160448301527f6e6451756575655769746864726177616c3a2077697468647261776572206d7560648301527f73742062652073616d652061646472657373206173207374616b657220696620908201527f746869726450617274795472616e7366657273466f7262696464656e2061726560a482015263081cd95d60e21b60c482015260e4016109b2565b60325484516001600160a01b0390911690638c80d4e59089908790859081106124e3576124e3614adf565b60200260200101518685815181106124fd576124fd614adf565b60209081029190910101516040516001600160e01b031960e086901b1681526001600160a01b0393841660048201529290911660248301526044820152606401600060405180830381600087803b15801561255757600080fd5b505af115801561256b573d6000803e3d6000fd5b505050508060010190506122dc565b506001600160a01b03861660009081526008602052604081208054918291906125a283614e0c565b919050555060006040518060e00160405280896001600160a01b03168152602001886001600160a01b03168152602001876001600160a01b031681526020018381526020014363ffffffff168152602001868152602001858152509050600061260a8261127a565b60008181526007602052604090819020805460ff19166001179055519091507f9009ab153e8014fbfb02f2217f5cde7aa7f9ad734ae85ca3ee3f4ca2fdd499f9906126589083908590614e25565b60405180910390a198975050505050505050565b600061267b602083018361400c565b6001600160a01b0316036127145760405162461bcd60e51b815260206004820152605460248201527f44656c65676174696f6e4d616e616765722e5f7365744f70657261746f72446560448201527f7461696c733a2063616e6e6f742073657420606561726e696e677352656365696064820152737665726020746f207a65726f206164647265737360601b608482015260a4016109b2565b6213c6806127286060830160408401614f57565b63ffffffff1611156127dd5760405162461bcd60e51b815260206004820152606c60248201527f44656c65676174696f6e4d616e616765722e5f7365744f70657261746f72446560448201527f7461696c733a207374616b65724f70744f757457696e646f77426c6f636b732060648201527f63616e6e6f74206265203e204d41585f5354414b45525f4f50545f4f55545f5760848201526b494e444f575f424c4f434b5360a01b60a482015260c4016109b2565b6001600160a01b0382166000908152600260205260409081902060010154600160a01b900463ffffffff16906128199060608401908401614f57565b63ffffffff1610156128af5760405162461bcd60e51b815260206004820152605360248201527f44656c65676174696f6e4d616e616765722e5f7365744f70657261746f72446560448201527f7461696c733a207374616b65724f70744f757457696e646f77426c6f636b732060648201527218d85b9b9bdd08189948191958dc99585cd959606a1b608482015260a4016109b2565b6001600160a01b038216600090815260026020526040902081906128d38282614f94565b505060405133907f8608ba5d3843c5892d0e0e7f8b3dbe140644275248c7acc0e70c6ab00524252790610f9e908490614b88565b603460009054906101000a90046001600160a01b03166001600160a01b0316639b55ff5e6040518163ffffffff1660e01b8152600401602060405180830381865afa15801561295a573d6000803e3d6000fd5b505050506040513d601f19601f8201168201806040525081019061297e9190614af5565b6129d65760405162461bcd60e51b815260206004820152602360248201527f44656c65676174696f6e4d616e616765723a697344656c6567617465207061756044820152621cd95960ea1b60648201526084016109b2565b6129df8461125a565b15612a5c5760405162461bcd60e51b815260206004820152604160248201527f44656c65676174696f6e4d616e616765722e5f64656c65676174653a2073746160448201527f6b657220697320616c7265616479206163746976656c792064656c65676174656064820152601960fa1b608482015260a4016109b2565b612a65836117e3565b612ae35760405162461bcd60e51b815260206004820152604360248201527f44656c65676174696f6e4d616e616765722e5f64656c65676174653a206f706560448201527f7261746f72206973206e6f74207265676973746572656420696e20446170704c606482015262696e6b60e81b608482015260a4016109b2565b6001600160a01b03808416600090815260026020526040902060010154168015801590612b195750336001600160a01b03821614155b8015612b2e5750336001600160a01b03851614155b15612c9b574283602001511015612bad5760405162461bcd60e51b815260206004820152603760248201527f44656c65676174696f6e4d616e616765722e5f64656c65676174653a2061707060448201527f726f766572207369676e6174757265206578706972656400000000000000000060648201526084016109b2565b6001600160a01b038116600090815260056020908152604080832085845290915290205460ff1615612c475760405162461bcd60e51b815260206004820152603760248201527f44656c65676174696f6e4d616e616765722e5f64656c65676174653a2061707060448201527f726f76657253616c7420616c7265616479207370656e7400000000000000000060648201526084016109b2565b6001600160a01b038116600090815260056020908152604080832085845282528220805460ff19166001179055840151612c88908790879085908790610828565b9050612c998282866000015161394f565b505b6001600160a01b0385811660008181526003602052604080822080546001600160a01b0319169489169485179055517fc3ee9f2e5fda98e8066a1f745b2df9285f416fe98cf2559cd21484b3d87433049190a3600080612cfa87611b58565b9150915060005b825181101561125057612d488789858481518110612d2157612d21614adf565b6020026020010151858581518110612d3b57612d3b614adf565b6020026020010151613054565b600101612d01565b6001600160a01b03808516600090815260016020908152604080832093861683529290529081208054839290612d87908490615037565b9091555050604080516001600160a01b0385811682528481166020830152918101839052908516907f6909600037b75d7b4733aedd815442b5ec018a827751c832aaff64eba5d6d2dd90606001610e26565b33612e0b7f9016d09d72d40fdae2fd8ceac6b6234c7706214fd39c1cd1e609a0528c199300546001600160a01b031690565b6001600160a01b0316146118155760405163118cdaa760e01b81523360048201526024016109b2565b828114612ebc5760405162461bcd60e51b815260206004820152604a60248201527f44656c65676174696f6e4d616e616765722e5f7365745374726174656779576960448201527f746864726177616c44656c6179426c6f636b733a20696e707574206c656e67746064820152690d040dad2e6dac2e8c6d60b31b608482015260a4016109b2565b8260005b8181101561304c576000868683818110612edc57612edc614adf565b9050602002016020810190612ef1919061400c565b6001600160a01b0381166000908152600a6020526040812054919250868685818110612f1f57612f1f614adf565b90506020020135905062034bc0811115612fe35760405162461bcd60e51b815260206004820152607360248201527f44656c65676174696f6e4d616e616765722e5f7365745374726174656779576960448201527f746864726177616c44656c6179426c6f636b733a205f7769746864726177616c60648201527f44656c6179426c6f636b732063616e6e6f74206265203e204d41585f5749544860848201527244524157414c5f44454c41595f424c4f434b5360681b60a482015260c4016109b2565b6001600160a01b0383166000818152600a60209081526040918290208490558151928352820184905281018290527f0e7efa738e8b0ce6376a0c1af471655540d2e9a81647d7b09ed823018426576d9060600160405180910390a1505050806001019050612ec0565b505050505050565b6001600160a01b0380851660009081526001602090815260408083209386168352929052908120805483929061308b90849061504a565b9091555050604080516001600160a01b0385811682528481166020830152918101839052908516907f1ec042c965e2edd7107b51188ee0f383e22e76179041ab3a9d18ff151405166c90606001610e26565b7f9b779b17422d0df92223018b32b4d1fa46e071723d6817e2486d003becc55f0080546001190161312157604051633ee5aeb560e01b815260040160405180910390fd5b60029055565b60006131356104fb8761505d565b60008181526007602052604090205490915060ff166131b65760405162461bcd60e51b8152602060048201526043602482015260008051602061517383398151915260448201527f645769746864726177616c3a20616374696f6e206973206e6f7420696e20717560648201526265756560e81b608482015260a4016109b2565b60065443906131cb60a0890160808a01614f57565b63ffffffff166131db919061504a565b11156132635760405162461bcd60e51b815260206004820152605f602482015260008051602061517383398151915260448201527f645769746864726177616c3a206d696e5769746864726177616c44656c61794260648201527f6c6f636b7320706572696f6420686173206e6f74207965742070617373656400608482015260a4016109b2565b613273606087016040880161400c565b6001600160a01b0316336001600160a01b0316146133005760405162461bcd60e51b8152602060048201526050602482015260008051602061517383398151915260448201527f645769746864726177616c3a206f6e6c7920776974686472617765722063616e60648201526f1031b7b6b83632ba329030b1ba34b7b760811b608482015260a4016109b2565b81156133825761331360a0870187614b32565b851490506133825760405162461bcd60e51b8152602060048201526042602482015260008051602061517383398151915260448201527f645769746864726177616c3a20696e707574206c656e677468206d69736d61746064820152610c6d60f31b608482015260a4016109b2565b6000818152600760205260409020805460ff1916905581156134da5760005b6133ae60a0880188614b32565b90508110156134d45743600a60006133c960a08b018b614b32565b858181106133d9576133d9614adf565b90506020020160208101906133ee919061400c565b6001600160a01b0316815260208101919091526040016000205461341860a08a0160808b01614f57565b63ffffffff16613428919061504a565b11156134465760405162461bcd60e51b81526004016109b290615069565b6134cc3361345760a08a018a614b32565b8481811061346757613467614adf565b905060200201602081019061347c919061400c565b61348960c08b018b614b32565b8581811061349957613499614adf565b905060200201358989868181106134b2576134b2614adf565b90506020020160208101906134c7919061400c565b613b09565b6001016133a1565b50613714565b336000908152600360205260408120546001600160a01b0316905b61350260a0890189614b32565b90508110156137115743600a600061351d60a08c018c614b32565b8581811061352d5761352d614adf565b9050602002016020810190613542919061400c565b6001600160a01b0316815260208101919091526040016000205461356c60a08b0160808c01614f57565b63ffffffff1661357c919061504a565b111561359a5760405162461bcd60e51b81526004016109b290615069565b6032546001600160a01b031663c4623ea1338989858181106135be576135be614adf565b90506020020160208101906135d3919061400c565b6135e060a08d018d614b32565b868181106135f0576135f0614adf565b9050602002016020810190613605919061400c565b61361260c08e018e614b32565b8781811061362257613622614adf565b60405160e088901b6001600160e01b03191681526001600160a01b03968716600482015294861660248601529290941660448401526020909102013560648201526084019050600060405180830381600087803b15801561368257600080fd5b505af1158015613696573d6000803e3d6000fd5b505050506001600160a01b038216156137095761370982336136bb60a08c018c614b32565b858181106136cb576136cb614adf565b90506020020160208101906136e0919061400c565b6136ed60c08d018d614b32565b868181106136fd576136fd614adf565b90506020020135613054565b6001016134f5565b50505b6040518181527fc97098c2f658800b4df29001527f7324bcdffcf6e8751a699ab920a1eced5b1d9060200160405180910390a1505050505050565b6040805180820182526008815267446170704c696e6b60c01b60209182015281517f8cad95687ba82c2ce50e74f7b754645e5117c3a5bec8151c0726d5857980a866818301527fdadb978fc98e6e975439bb996be670dd8e228496518e61b3cb48e91f9251c40d81840152466060820152306080808301919091528351808303909101815260a0909101909252815191012090565b7f9016d09d72d40fdae2fd8ceac6b6234c7706214fd39c1cd1e609a0528c19930080546001600160a01b031981166001600160a01b03848116918217845560405192169182907f8be0079c531659141344cd1fd0a4f28419497f9722a3daafe3b4186f6b6457e090600090a3505050565b62034bc081111561390e5760405162461bcd60e51b815260206004820152607160248201527f44656c65676174696f6e4d616e616765722e5f7365744d696e5769746864726160448201527f77616c44656c6179426c6f636b733a205f6d696e5769746864726177616c446560648201527f6c6179426c6f636b732063616e6e6f74206265203e204d41585f5749544844526084820152704157414c5f44454c41595f424c4f434b5360781b60a482015260c4016109b2565b60065460408051918252602082018390527fafa003cd76f87ff9d62b35beea889920f33c0c42b8d45b74954d61d50f4b6b69910160405180910390a1600655565b6001600160a01b0383163b15613a6957604051630b135d3f60e11b808252906001600160a01b03851690631626ba7e9061398f90869086906004016150f1565b602060405180830381865afa1580156139ac573d6000803e3d6000fd5b505050506040513d601f19601f820116820180604052508101906139d09190615148565b6001600160e01b03191614610e955760405162461bcd60e51b815260206004820152605360248201527f454950313237315369676e61747572655574696c732e636865636b5369676e6160448201527f747572655f454950313237313a2045524331323731207369676e6174757265206064820152721d995c9a599a58d85d1a5bdb8819985a5b1959606a1b608482015260a4016109b2565b826001600160a01b0316613a7d8383613b7b565b6001600160a01b031614610e955760405162461bcd60e51b815260206004820152604760248201527f454950313237315369676e61747572655574696c732e636865636b5369676e6160448201527f747572655f454950313237313a207369676e6174757265206e6f742066726f6d6064820152661039b4b3b732b960c91b608482015260a4016109b2565b60325460405163c608c7f360e01b81526001600160a01b03868116600483015285811660248301526044820185905283811660648301529091169063c608c7f390608401600060405180830381600087803b158015613b6757600080fd5b505af1158015611250573d6000803e3d6000fd5b600080600080613b8b8686613b9b565b925092509250610cda8282613be8565b60008060008351604103613bd55760208401516040850151606086015160001a613bc788828585613ca1565b955095509550505050613be1565b50508151600091506002905b9250925092565b6000826003811115613bfc57613bfc61495e565b03613c05575050565b6001826003811115613c1957613c1961495e565b03613c375760405163f645eedf60e01b815260040160405180910390fd5b6002826003811115613c4b57613c4b61495e565b03613c6c5760405163fce698f760e01b8152600481018290526024016109b2565b6003826003811115613c8057613c8061495e565b036116ac576040516335e2f38360e21b8152600481018290526024016109b2565b600080807f7fffffffffffffffffffffffffffffff5d576e7357a4501ddfe92f46681b20a0841115613cdc5750600091506003905082613d66565b604080516000808252602082018084528a905260ff891692820192909252606081018790526080810186905260019060a0016020604051602081039080840390855afa158015613d30573d6000803e3d6000fd5b5050604051601f1901519150506001600160a01b038116613d5c57506000925060019150829050613d66565b9250600091508190505b9450945094915050565b60008083601f840112613d8257600080fd5b5081356001600160401b03811115613d9957600080fd5b6020830191508360208260051b8501011115613db457600080fd5b9250929050565b60008060208385031215613dce57600080fd5b82356001600160401b03811115613de457600080fd5b611bd285828601613d70565b6001600160a01b038116811461109a57600080fd5b8035613e1081613df0565b919050565b600080600080600060a08688031215613e2d57600080fd5b8535613e3881613df0565b94506020860135613e4881613df0565b93506040860135613e5881613df0565b94979396509394606081013594506080013592915050565b6020808252825182820181905260009190848201906040850190845b81811015613ea857835183529284019291840191600101613e8c565b50909695505050505050565b600060808284031215613ec657600080fd5b50919050565b60008083601f840112613ede57600080fd5b5081356001600160401b03811115613ef557600080fd5b602083019150836020828501011115613db457600080fd5b600080600060a08486031215613f2257600080fd5b613f2c8585613eb4565b925060808401356001600160401b03811115613f4757600080fd5b613f5386828701613ecc565b9497909650939450505050565b600080600060608486031215613f7557600080fd5b8335613f8081613df0565b92506020840135613f9081613df0565b929592945050506040919091013590565b60008060008060408587031215613fb757600080fd5b84356001600160401b0380821115613fce57600080fd5b613fda88838901613d70565b90965094506020870135915080821115613ff357600080fd5b5061400087828801613d70565b95989497509550505050565b60006020828403121561401e57600080fd5b813561402981613df0565b9392505050565b6000806020838503121561404357600080fd5b82356001600160401b0381111561405957600080fd5b611bd285828601613ecc565b60006080828403121561407757600080fd5b6140298383613eb4565b6000806000806000806000806080898b03121561409d57600080fd5b88356001600160401b03808211156140b457600080fd5b6140c08c838d01613d70565b909a50985060208b01359150808211156140d957600080fd5b6140e58c838d01613d70565b909850965060408b01359150808211156140fe57600080fd5b61410a8c838d01613d70565b909650945060608b013591508082111561412357600080fd5b506141308b828c01613d70565b999c989b5096995094979396929594505050565b634e487b7160e01b600052604160045260246000fd5b60405160e081016001600160401b038111828210171561417c5761417c614144565b60405290565b604080519081016001600160401b038111828210171561417c5761417c614144565b60405160c081016001600160401b038111828210171561417c5761417c614144565b604051601f8201601f191681016001600160401b03811182821017156141ee576141ee614144565b604052919050565b63ffffffff8116811461109a57600080fd5b8035613e10816141f6565b60006001600160401b0382111561422c5761422c614144565b5060051b60200190565b600082601f83011261424757600080fd5b8135602061425c61425783614213565b6141c6565b8083825260208201915060208460051b87010193508684111561427e57600080fd5b602086015b848110156142a357803561429681613df0565b8352918301918301614283565b509695505050505050565b600082601f8301126142bf57600080fd5b813560206142cf61425783614213565b8083825260208201915060208460051b8701019350868411156142f157600080fd5b602086015b848110156142a357803583529183019183016142f6565b600060e0828403121561431f57600080fd5b61432761415a565b905061433282613e05565b815261434060208301613e05565b602082015261435160408301613e05565b60408201526060820135606082015261436c60808301614208565b608082015260a08201356001600160401b038082111561438b57600080fd5b61439785838601614236565b60a084015260c08401359150808211156143b057600080fd5b506143bd848285016142ae565b60c08301525092915050565b6000602082840312156143db57600080fd5b81356001600160401b038111156143f157600080fd5b6143fd8482850161430d565b949350505050565b600080600080600080600080600060e08a8c03121561442357600080fd5b893561442e81613df0565b985060208a0135975060408a01356001600160401b038082111561445157600080fd5b61445d8d838e01613d70565b909950975060608c013591508082111561447657600080fd5b506144838c828d01613d70565b90965094505060808a013561449781613df0565b925060a08a01356144a781613df0565b915060c08a01356144b781613df0565b809150509295985092959850929598565b6000604082840312156144da57600080fd5b6144e2614182565b905081356144ef81613df0565b815260208201356bffffffffffffffffffffffff8116811461451057600080fd5b602082015292915050565b6000602080838503121561452e57600080fd5b82356001600160401b038082111561454557600080fd5b818501915085601f83011261455957600080fd5b813561456761425782614213565b81815260059190911b8301840190848101908883111561458657600080fd5b8585015b83811015614660578035858111156145a25760008081fd5b860160e0818c03601f19018113156145ba5760008081fd5b6145c26141a4565b89830135888111156145d45760008081fd5b6145e28e8c83870101614236565b825250604080840135898111156145f95760008081fd5b6146078f8d838801016142ae565b8c840152506060614619818601613e05565b828401526080915061462d8f8387016144c8565b9083015261463d60c08501614208565b9082015261464c838301613e05565b60a08201528552505091860191860161458a565b5098975050505050505050565b801515811461109a57600080fd5b60008060008060006080868803121561469357600080fd5b85356001600160401b03808211156146aa57600080fd5b9087019060e0828a0312156146be57600080fd5b909550602087013590808211156146d457600080fd5b506146e188828901613d70565b9095509350506040860135915060608601356146fc8161466d565b809150509295509295909350565b60006020828403121561471c57600080fd5b5035919050565b6000806040838503121561473657600080fd5b823561474181613df0565b9150602083013561475181613df0565b809150509250929050565b60006040828403121561476e57600080fd5b614776614182565b905081356001600160401b038082111561478f57600080fd5b818401915084601f8301126147a357600080fd5b81356020828211156147b7576147b7614144565b6147c9601f8301601f191682016141c6565b925081835286818386010111156147df57600080fd5b8181850182850137600081838501015282855280860135818601525050505092915050565b600080600080600060a0868803121561481c57600080fd5b853561482781613df0565b9450602086013561483781613df0565b935060408601356001600160401b038082111561485357600080fd5b61485f89838a0161475c565b9450606088013591508082111561487557600080fd5b506148828882890161475c565b95989497509295608001359392505050565b600080604083850312156148a757600080fd5b82356148b281613df0565b915060208301356001600160401b038111156148cd57600080fd5b6148d985828601614236565b9150509250929050565b60008151808452602080850194506020840160005b83811015614914578151875295820195908201906001016148f8565b509495945050505050565b60208152600061402960208301846148e3565b6000806040838503121561494557600080fd5b823561495081613df0565b946020939093013593505050565b634e487b7160e01b600052602160045260246000fd5b6007811061499257634e487b7160e01b600052602160045260246000fd5b9052565b81516001600160a01b0390811682526020808401519091169082015260408083015163ffffffff169082015260608083015160808301916149d990840182614974565b5092915050565b600080600080608085870312156149f657600080fd5b8435614a0181613df0565b9350602085013592506040850135614a1881613df0565b9396929550929360600135925050565b60008151808452602080850194506020840160005b838110156149145781516001600160a01b031687529582019590820190600101614a3d565b604081526000614a756040830185614a28565b8281036020840152610ed381856148e3565b600080600060608486031215614a9c57600080fd5b8335614aa781613df0565b925060208401356001600160401b03811115614ac257600080fd5b614ace8682870161475c565b925050604084013590509250925092565b634e487b7160e01b600052603260045260246000fd5b600060208284031215614b0757600080fd5b81516140298161466d565b60008235605e19833603018112614b2857600080fd5b9190910192915050565b6000808335601e19843603018112614b4957600080fd5b8301803591506001600160401b03821115614b6357600080fd5b6020019150600581901b3603821315613db457600080fd5b6007811061109a57600080fd5b608081018235614b9781613df0565b6001600160a01b039081168352602084013590614bb382613df0565b1660208301526040830135614bc7816141f6565b63ffffffff1660408301526060830135614be081614b7b565b6149d96060840182614974565b60208152816020820152818360408301376000818301604090810191909152601f909201601f19160101919050565b60208082526026908201527f44656c65676174696f6e4d616e616765723a206f6e6c7953747261746567794d60408201526530b730b3b2b960d11b606082015260800190565b6000823560de19833603018112614b2857600080fd5b600060208284031215614c8a57600080fd5b81356140298161466d565b600060018060a01b03808351168452806020840151166020850152806040840151166040850152506060820151606084015263ffffffff608083015116608084015260a082015160e060a0850152614cf060e0850182614a28565b905060c083015184820360c0860152610ed382826148e3565b6020815260006140296020830184614c95565b602081526000825160e06020840152614d39610100840182614a28565b90506020840151601f19848303016040850152614d5682826148e3565b915050604084015160018060a01b03808216606086015260608601519150808251166080860152506bffffffffffffffffffffffff60208201511660a0850152506080840151614dae60c085018263ffffffff169052565b5060a08401516001600160a01b03811660e085015261081e565b60008060408385031215614ddb57600080fd5b8251614de68161466d565b6020939093015192949293505050565b634e487b7160e01b600052601160045260246000fd5b600060018201614e1e57614e1e614df6565b5060010190565b8281526040602082015260006143fd6040830184614c95565b600082601f830112614e4f57600080fd5b81516020614e5f61425783614213565b8083825260208201915060208460051b870101935086841115614e8157600080fd5b602086015b848110156142a35780518352918301918301614e86565b60008060408385031215614eb057600080fd5b82516001600160401b0380821115614ec757600080fd5b818501915085601f830112614edb57600080fd5b81516020614eeb61425783614213565b82815260059290921b84018101918181019089841115614f0a57600080fd5b948201945b83861015614f31578551614f2281613df0565b82529482019490820190614f0f565b91880151919650909350505080821115614f4a57600080fd5b506148d985828601614e3e565b600060208284031215614f6957600080fd5b8135614029816141f6565b80546001600160a01b0319166001600160a01b0392909216919091179055565b8135614f9f81613df0565b614fa98183614f74565b50600181016020830135614fbc81613df0565b614fc68183614f74565b506040830135614fd5816141f6565b81546060850135614fe581614b7b565b6007811061500357634e487b7160e01b600052602160045260246000fd5b64ffffffffff60a01b199190911660a09290921b63ffffffff60a01b169190911760c09190911b60ff60c01b161790555050565b8181038181111561082257610822614df6565b8082018082111561082257610822614df6565b6000610822368361430d565b6020808252606e9082015260008051602061517383398151915260408201527f645769746864726177616c3a207769746864726177616c44656c6179426c6f6360608201527f6b7320706572696f6420686173206e6f74207965742070617373656420666f7260808201526d207468697320737472617465677960901b60a082015260c00190565b8281526000602060406020840152835180604085015260005b818110156151265785810183015185820160600152820161510a565b506000606082860101526060601f19601f830116850101925050509392505050565b60006020828403121561515a57600080fd5b81516001600160e01b03198116811461402957600080fdfe44656c65676174696f6e4d616e616765722e5f636f6d706c6574655175657565a2646970667358221220bc08305cbb8ac26900dc575edb9219a89a62c06ef5d26aa22205debc1d3c157e64736f6c63430008180033","linkReferences":{}},"methodIdentifiers":{"DELEGATION_APPROVAL_TYPEHASH()":"04a4f979","DOMAIN_TYPEHASH()":"20606b70","MAX_STAKER_OPT_OUT_WINDOW_BLOCKS()":"4fc40b61","MAX_WITHDRAWAL_DELAY_BLOCKS()":"ca661c04","STAKER_DELEGATION_TYPEHASH()":"43377382","calculateCurrentStakerDelegationDigestHash(address,address,uint256)":"1bbce091","calculateDelegationApprovalDigestHash(address,address,address,bytes32,uint256)":"0b9f487a","calculateStakerDelegationDigestHash(address,uint256,address,uint256)":"c94b5111","calculateWithdrawalRoot((address,address,address,uint256,uint32,address[],uint256[]))":"597b36da","completeQueuedWithdrawal((address,address,address,uint256,uint32,address[],uint256[]),address[],uint256,bool)":"60d7faed","completeQueuedWithdrawals((address,address,address,uint256,uint32,address[],uint256[])[],address[][],uint256[],bool[])":"33404396","cumulativeWithdrawalsQueued(address)":"a1788484","decreaseDelegatedShares(address,address,uint256)":"132d4967","delegateTo(address,(bytes,uint256),bytes32)":"eea9064b","delegateToBySignature(address,address,(bytes,uint256),(bytes,uint256),bytes32)":"7f548071","delegatedTo(address)":"65da1264","delegationApprover(address)":"3cdeb5e0","delegationApproverSaltIsSpent(address,bytes32)":"bb45fef2","domainSeparator()":"f698da25","earningsReceiver(address)":"5f966f14","getDelegatableShares(address)":"cf80873e","getOperatorShares(address,address[])":"90041347","getWithdrawalDelay(address[])":"0449ca39","increaseDelegatedShares(address,address,uint256)":"28a573ae","initialize(address,uint256,address[],uint256[],address,address,address)":"5ce4c761","isDelegated(address)":"3e28391d","isOperator(address)":"6d70f7ae","migrateQueuedWithdrawals((address[],uint256[],address,(address,uint96),uint32,address)[])":"5cfe8d2c","minWithdrawalDelayBlocks()":"c448feb8","modifyOperatorDetails((address,address,uint32,uint8))":"30d0377b","operatorDetails(address)":"c5e480db","operatorShares(address,address)":"778e55f3","owner()":"8da5cb5b","pauser()":"9fd0506d","pendingWithdrawals(bytes32)":"b7f06ebe","queueWithdrawals((address[],uint256[],address)[])":"0dd8dd02","registerAsOperator((address,address,uint32,uint8),string)":"11674578","renounceOwnership()":"715018a6","setMinWithdrawalDelayBlocks(uint256)":"635bbd10","setStrategyWithdrawalDelayBlocks(address[],uint256[])":"1522bf02","slasher()":"b1344271","stakerNonce(address)":"29c77d4f","stakerOptOutWindowBlocks(address)":"16928365","strategyManager()":"39b70e38","strategyWithdrawalDelayBlocks(address)":"c488375a","transferOwnership(address)":"f2fde38b","undelegate(address)":"da8be864","updateOperatorNodeUrl(string)":"1c8392d7"},"id":84}