{"abi":[{"type":"constructor","inputs":[],"stateMutability":"nonpayable"},{"type":"function","name":"DELEGATION_APPROVAL_TYPEHASH","inputs":[],"outputs":[{"name":"","type":"bytes32","internalType":"bytes32"}],"stateMutability":"view"},{"type":"function","name":"DOMAIN_TYPEHASH","inputs":[],"outputs":[{"name":"","type":"bytes32","internalType":"bytes32"}],"stateMutability":"view"},{"type":"function","name":"MAX_STAKER_OPT_OUT_WINDOW_BLOCKS","inputs":[],"outputs":[{"name":"","type":"uint256","internalType":"uint256"}],"stateMutability":"view"},{"type":"function","name":"MAX_WITHDRAWAL_DELAY_BLOCKS","inputs":[],"outputs":[{"name":"","type":"uint256","internalType":"uint256"}],"stateMutability":"view"},{"type":"function","name":"STAKER_DELEGATION_TYPEHASH","inputs":[],"outputs":[{"name":"","type":"bytes32","internalType":"bytes32"}],"stateMutability":"view"},{"type":"function","name":"calculateCurrentStakerDelegationDigestHash","inputs":[{"name":"staker","type":"address","internalType":"address"},{"name":"operator","type":"address","internalType":"address"},{"name":"expiry","type":"uint256","internalType":"uint256"}],"outputs":[{"name":"","type":"bytes32","internalType":"bytes32"}],"stateMutability":"view"},{"type":"function","name":"calculateDelegationApprovalDigestHash","inputs":[{"name":"staker","type":"address","internalType":"address"},{"name":"operator","type":"address","internalType":"address"},{"name":"_delegationApprover","type":"address","internalType":"address"},{"name":"approverSalt","type":"bytes32","internalType":"bytes32"},{"name":"expiry","type":"uint256","internalType":"uint256"}],"outputs":[{"name":"","type":"bytes32","internalType":"bytes32"}],"stateMutability":"view"},{"type":"function","name":"calculateStakerDelegationDigestHash","inputs":[{"name":"staker","type":"address","internalType":"address"},{"name":"_stakerNonce","type":"uint256","internalType":"uint256"},{"name":"operator","type":"address","internalType":"address"},{"name":"expiry","type":"uint256","internalType":"uint256"}],"outputs":[{"name":"","type":"bytes32","internalType":"bytes32"}],"stateMutability":"view"},{"type":"function","name":"calculateWithdrawalRoot","inputs":[{"name":"withdrawal","type":"tuple","internalType":"struct IDelegationManager.Withdrawal","components":[{"name":"staker","type":"address","internalType":"address"},{"name":"delegatedTo","type":"address","internalType":"address"},{"name":"withdrawer","type":"address","internalType":"address"},{"name":"nonce","type":"uint256","internalType":"uint256"},{"name":"startBlock","type":"uint32","internalType":"uint32"},{"name":"strategies","type":"address[]","internalType":"contract IStrategy[]"},{"name":"shares","type":"uint256[]","internalType":"uint256[]"}]}],"outputs":[{"name":"","type":"bytes32","internalType":"bytes32"}],"stateMutability":"pure"},{"type":"function","name":"completeQueuedWithdrawal","inputs":[{"name":"withdrawal","type":"tuple","internalType":"struct IDelegationManager.Withdrawal","components":[{"name":"staker","type":"address","internalType":"address"},{"name":"delegatedTo","type":"address","internalType":"address"},{"name":"withdrawer","type":"address","internalType":"address"},{"name":"nonce","type":"uint256","internalType":"uint256"},{"name":"startBlock","type":"uint32","internalType":"uint32"},{"name":"strategies","type":"address[]","internalType":"contract IStrategy[]"},{"name":"shares","type":"uint256[]","internalType":"uint256[]"}]},{"name":"weth","type":"address","internalType":"contract IERC20"},{"name":"middlewareTimesIndex","type":"uint256","internalType":"uint256"},{"name":"receiveAsWeth","type":"bool","internalType":"bool"}],"outputs":[],"stateMutability":"nonpayable"},{"type":"function","name":"completeQueuedWithdrawals","inputs":[{"name":"withdrawals","type":"tuple[]","internalType":"struct IDelegationManager.Withdrawal[]","components":[{"name":"staker","type":"address","internalType":"address"},{"name":"delegatedTo","type":"address","internalType":"address"},{"name":"withdrawer","type":"address","internalType":"address"},{"name":"nonce","type":"uint256","internalType":"uint256"},{"name":"startBlock","type":"uint32","internalType":"uint32"},{"name":"strategies","type":"address[]","internalType":"contract IStrategy[]"},{"name":"shares","type":"uint256[]","internalType":"uint256[]"}]},{"name":"weth","type":"address","internalType":"contract IERC20"},{"name":"middlewareTimesIndexes","type":"uint256[]","internalType":"uint256[]"},{"name":"receiveAsWeth","type":"bool[]","internalType":"bool[]"}],"outputs":[],"stateMutability":"nonpayable"},{"type":"function","name":"cumulativeWithdrawalsQueued","inputs":[{"name":"","type":"address","internalType":"address"}],"outputs":[{"name":"","type":"uint256","internalType":"uint256"}],"stateMutability":"view"},{"type":"function","name":"decreaseDelegatedShares","inputs":[{"name":"staker","type":"address","internalType":"address"},{"name":"strategy","type":"address","internalType":"contract IStrategy"},{"name":"shares","type":"uint256","internalType":"uint256"}],"outputs":[],"stateMutability":"nonpayable"},{"type":"function","name":"delegateTo","inputs":[{"name":"operator","type":"address","internalType":"address"},{"name":"approverSignatureAndExpiry","type":"tuple","internalType":"struct ISignatureUtils.SignatureWithExpiry","components":[{"name":"signature","type":"bytes","internalType":"bytes"},{"name":"expiry","type":"uint256","internalType":"uint256"}]},{"name":"approverSalt","type":"bytes32","internalType":"bytes32"}],"outputs":[],"stateMutability":"nonpayable"},{"type":"function","name":"delegateToBySignature","inputs":[{"name":"staker","type":"address","internalType":"address"},{"name":"operator","type":"address","internalType":"address"},{"name":"stakerSignatureAndExpiry","type":"tuple","internalType":"struct ISignatureUtils.SignatureWithExpiry","components":[{"name":"signature","type":"bytes","internalType":"bytes"},{"name":"expiry","type":"uint256","internalType":"uint256"}]},{"name":"approverSignatureAndExpiry","type":"tuple","internalType":"struct ISignatureUtils.SignatureWithExpiry","components":[{"name":"signature","type":"bytes","internalType":"bytes"},{"name":"expiry","type":"uint256","internalType":"uint256"}]},{"name":"approverSalt","type":"bytes32","internalType":"bytes32"}],"outputs":[],"stateMutability":"nonpayable"},{"type":"function","name":"delegatedTo","inputs":[{"name":"","type":"address","internalType":"address"}],"outputs":[{"name":"","type":"address","internalType":"address"}],"stateMutability":"view"},{"type":"function","name":"delegationApprover","inputs":[{"name":"operator","type":"address","internalType":"address"}],"outputs":[{"name":"","type":"address","internalType":"address"}],"stateMutability":"view"},{"type":"function","name":"delegationApproverSaltIsSpent","inputs":[{"name":"","type":"address","internalType":"address"},{"name":"","type":"bytes32","internalType":"bytes32"}],"outputs":[{"name":"","type":"bool","internalType":"bool"}],"stateMutability":"view"},{"type":"function","name":"domainSeparator","inputs":[],"outputs":[{"name":"","type":"bytes32","internalType":"bytes32"}],"stateMutability":"view"},{"type":"function","name":"earningsReceiver","inputs":[{"name":"operator","type":"address","internalType":"address"}],"outputs":[{"name":"","type":"address","internalType":"address"}],"stateMutability":"view"},{"type":"function","name":"getDelegatableShares","inputs":[{"name":"staker","type":"address","internalType":"address"}],"outputs":[{"name":"","type":"address[]","internalType":"contract IStrategy[]"},{"name":"","type":"uint256[]","internalType":"uint256[]"}],"stateMutability":"view"},{"type":"function","name":"getOperatorShares","inputs":[{"name":"operator","type":"address","internalType":"address"},{"name":"strategies","type":"address[]","internalType":"contract IStrategy[]"}],"outputs":[{"name":"","type":"uint256[]","internalType":"uint256[]"}],"stateMutability":"view"},{"type":"function","name":"getWithdrawalDelay","inputs":[{"name":"strategies","type":"address[]","internalType":"contract IStrategy[]"}],"outputs":[{"name":"","type":"uint256","internalType":"uint256"}],"stateMutability":"view"},{"type":"function","name":"increaseDelegatedShares","inputs":[{"name":"staker","type":"address","internalType":"address"},{"name":"strategy","type":"address","internalType":"contract IStrategy"},{"name":"shares","type":"uint256","internalType":"uint256"}],"outputs":[],"stateMutability":"nonpayable"},{"type":"function","name":"initialize","inputs":[{"name":"initialOwner","type":"address","internalType":"address"},{"name":"_minWithdrawalDelayBlocks","type":"uint256","internalType":"uint256"},{"name":"_strategies","type":"address[]","internalType":"contract IStrategy[]"},{"name":"_withdrawalDelayBlocks","type":"uint256[]","internalType":"uint256[]"},{"name":"_strategyManager","type":"address","internalType":"contract IStrategyManager"},{"name":"_slasher","type":"address","internalType":"contract ISlashManager"},{"name":"_pauser","type":"address","internalType":"contract IL2Pauser"}],"outputs":[],"stateMutability":"nonpayable"},{"type":"function","name":"isDelegated","inputs":[{"name":"staker","type":"address","internalType":"address"}],"outputs":[{"name":"","type":"bool","internalType":"bool"}],"stateMutability":"view"},{"type":"function","name":"isOperator","inputs":[{"name":"operator","type":"address","internalType":"address"}],"outputs":[{"name":"","type":"bool","internalType":"bool"}],"stateMutability":"view"},{"type":"function","name":"migrateQueuedWithdrawals","inputs":[{"name":"withdrawalsToMigrate","type":"tuple[]","internalType":"struct IStrategyManager.DeprecatedStruct_QueuedWithdrawal[]","components":[{"name":"strategies","type":"address[]","internalType":"contract IStrategy[]"},{"name":"shares","type":"uint256[]","internalType":"uint256[]"},{"name":"staker","type":"address","internalType":"address"},{"name":"withdrawerAndNonce","type":"tuple","internalType":"struct IStrategyManager.DeprecatedStruct_WithdrawerAndNonce","components":[{"name":"withdrawer","type":"address","internalType":"address"},{"name":"nonce","type":"uint96","internalType":"uint96"}]},{"name":"withdrawalStartBlock","type":"uint32","internalType":"uint32"},{"name":"delegatedAddress","type":"address","internalType":"address"}]}],"outputs":[],"stateMutability":"nonpayable"},{"type":"function","name":"minWithdrawalDelayBlocks","inputs":[],"outputs":[{"name":"","type":"uint256","internalType":"uint256"}],"stateMutability":"view"},{"type":"function","name":"modifyOperatorDetails","inputs":[{"name":"newOperatorDetails","type":"tuple","internalType":"struct IDelegationManager.OperatorDetails","components":[{"name":"earningsReceiver","type":"address","internalType":"address"},{"name":"delegationApprover","type":"address","internalType":"address"},{"name":"stakerOptOutWindowBlocks","type":"uint32","internalType":"uint32"},{"name":"operatorType","type":"uint8","internalType":"enum IDelegationManager.OperatorType"}]}],"outputs":[],"stateMutability":"nonpayable"},{"type":"function","name":"operatorDetails","inputs":[{"name":"operator","type":"address","internalType":"address"}],"outputs":[{"name":"","type":"tuple","internalType":"struct IDelegationManager.OperatorDetails","components":[{"name":"earningsReceiver","type":"address","internalType":"address"},{"name":"delegationApprover","type":"address","internalType":"address"},{"name":"stakerOptOutWindowBlocks","type":"uint32","internalType":"uint32"},{"name":"operatorType","type":"uint8","internalType":"enum IDelegationManager.OperatorType"}]}],"stateMutability":"view"},{"type":"function","name":"operatorShares","inputs":[{"name":"","type":"address","internalType":"address"},{"name":"","type":"address","internalType":"contract IStrategy"}],"outputs":[{"name":"","type":"uint256","internalType":"uint256"}],"stateMutability":"view"},{"type":"function","name":"owner","inputs":[],"outputs":[{"name":"","type":"address","internalType":"address"}],"stateMutability":"view"},{"type":"function","name":"pauser","inputs":[],"outputs":[{"name":"","type":"address","internalType":"contract IL2Pauser"}],"stateMutability":"view"},{"type":"function","name":"pendingWithdrawals","inputs":[{"name":"","type":"bytes32","internalType":"bytes32"}],"outputs":[{"name":"","type":"bool","internalType":"bool"}],"stateMutability":"view"},{"type":"function","name":"queueWithdrawals","inputs":[{"name":"queuedWithdrawalParams","type":"tuple[]","internalType":"struct IDelegationManager.QueuedWithdrawalParams[]","components":[{"name":"strategies","type":"address[]","internalType":"contract IStrategy[]"},{"name":"shares","type":"uint256[]","internalType":"uint256[]"},{"name":"withdrawer","type":"address","internalType":"address"}]}],"outputs":[{"name":"","type":"bytes32[]","internalType":"bytes32[]"}],"stateMutability":"nonpayable"},{"type":"function","name":"registerAsOperator","inputs":[{"name":"registeringOperatorDetails","type":"tuple","internalType":"struct IDelegationManager.OperatorDetails","components":[{"name":"earningsReceiver","type":"address","internalType":"address"},{"name":"delegationApprover","type":"address","internalType":"address"},{"name":"stakerOptOutWindowBlocks","type":"uint32","internalType":"uint32"},{"name":"operatorType","type":"uint8","internalType":"enum IDelegationManager.OperatorType"}]},{"name":"nodeUrl","type":"string","internalType":"string"}],"outputs":[],"stateMutability":"nonpayable"},{"type":"function","name":"renounceOwnership","inputs":[],"outputs":[],"stateMutability":"nonpayable"},{"type":"function","name":"setMinWithdrawalDelayBlocks","inputs":[{"name":"newMinWithdrawalDelayBlocks","type":"uint256","internalType":"uint256"}],"outputs":[],"stateMutability":"nonpayable"},{"type":"function","name":"setStrategyWithdrawalDelayBlocks","inputs":[{"name":"strategies","type":"address[]","internalType":"contract IStrategy[]"},{"name":"withdrawalDelayBlocks","type":"uint256[]","internalType":"uint256[]"}],"outputs":[],"stateMutability":"nonpayable"},{"type":"function","name":"slasher","inputs":[],"outputs":[{"name":"","type":"address","internalType":"contract ISlashManager"}],"stateMutability":"view"},{"type":"function","name":"stakerNonce","inputs":[{"name":"","type":"address","internalType":"address"}],"outputs":[{"name":"","type":"uint256","internalType":"uint256"}],"stateMutability":"view"},{"type":"function","name":"stakerOptOutWindowBlocks","inputs":[{"name":"operator","type":"address","internalType":"address"}],"outputs":[{"name":"","type":"uint256","internalType":"uint256"}],"stateMutability":"view"},{"type":"function","name":"strategyManager","inputs":[],"outputs":[{"name":"","type":"address","internalType":"contract IStrategyManager"}],"stateMutability":"view"},{"type":"function","name":"strategyWithdrawalDelayBlocks","inputs":[{"name":"","type":"address","internalType":"contract IStrategy"}],"outputs":[{"name":"","type":"uint256","internalType":"uint256"}],"stateMutability":"view"},{"type":"function","name":"transferOwnership","inputs":[{"name":"newOwner","type":"address","internalType":"address"}],"outputs":[],"stateMutability":"nonpayable"},{"type":"function","name":"undelegate","inputs":[{"name":"staker","type":"address","internalType":"address"}],"outputs":[{"name":"withdrawalRoots","type":"bytes32[]","internalType":"bytes32[]"}],"stateMutability":"nonpayable"},{"type":"function","name":"updateOperatorNodeUrl","inputs":[{"name":"nodeUrl","type":"string","internalType":"string"}],"outputs":[],"stateMutability":"nonpayable"},{"type":"event","name":"Initialized","inputs":[{"name":"version","type":"uint64","indexed":false,"internalType":"uint64"}],"anonymous":false},{"type":"event","name":"MinWithdrawalDelayBlocksSet","inputs":[{"name":"previousValue","type":"uint256","indexed":false,"internalType":"uint256"},{"name":"newValue","type":"uint256","indexed":false,"internalType":"uint256"}],"anonymous":false},{"type":"event","name":"OperatorDetailsModified","inputs":[{"name":"operator","type":"address","indexed":true,"internalType":"address"},{"name":"newOperatorDetails","type":"tuple","indexed":false,"internalType":"struct IDelegationManager.OperatorDetails","components":[{"name":"earningsReceiver","type":"address","internalType":"address"},{"name":"delegationApprover","type":"address","internalType":"address"},{"name":"stakerOptOutWindowBlocks","type":"uint32","internalType":"uint32"},{"name":"operatorType","type":"uint8","internalType":"enum IDelegationManager.OperatorType"}]}],"anonymous":false},{"type":"event","name":"OperatorNodeUrlUpdated","inputs":[{"name":"operator","type":"address","indexed":true,"internalType":"address"},{"name":"metadataURI","type":"string","indexed":false,"internalType":"string"}],"anonymous":false},{"type":"event","name":"OperatorRegistered","inputs":[{"name":"operator","type":"address","indexed":true,"internalType":"address"},{"name":"operatorDetails","type":"tuple","indexed":false,"internalType":"struct IDelegationManager.OperatorDetails","components":[{"name":"earningsReceiver","type":"address","internalType":"address"},{"name":"delegationApprover","type":"address","internalType":"address"},{"name":"stakerOptOutWindowBlocks","type":"uint32","internalType":"uint32"},{"name":"operatorType","type":"uint8","internalType":"enum IDelegationManager.OperatorType"}]}],"anonymous":false},{"type":"event","name":"OperatorSharesDecreased","inputs":[{"name":"operator","type":"address","indexed":true,"internalType":"address"},{"name":"staker","type":"address","indexed":false,"internalType":"address"},{"name":"strategy","type":"address","indexed":false,"internalType":"contract IStrategy"},{"name":"shares","type":"uint256","indexed":false,"internalType":"uint256"}],"anonymous":false},{"type":"event","name":"OperatorSharesIncreased","inputs":[{"name":"operator","type":"address","indexed":true,"internalType":"address"},{"name":"staker","type":"address","indexed":false,"internalType":"address"},{"name":"strategy","type":"address","indexed":false,"internalType":"contract IStrategy"},{"name":"shares","type":"uint256","indexed":false,"internalType":"uint256"}],"anonymous":false},{"type":"event","name":"OwnershipTransferred","inputs":[{"name":"previousOwner","type":"address","indexed":true,"internalType":"address"},{"name":"newOwner","type":"address","indexed":true,"internalType":"address"}],"anonymous":false},{"type":"event","name":"StakerDelegated","inputs":[{"name":"staker","type":"address","indexed":true,"internalType":"address"},{"name":"operator","type":"address","indexed":true,"internalType":"address"}],"anonymous":false},{"type":"event","name":"StakerForceUndelegated","inputs":[{"name":"staker","type":"address","indexed":true,"internalType":"address"},{"name":"operator","type":"address","indexed":true,"internalType":"address"}],"anonymous":false},{"type":"event","name":"StakerUndelegated","inputs":[{"name":"staker","type":"address","indexed":true,"internalType":"address"},{"name":"operator","type":"address","indexed":true,"internalType":"address"}],"anonymous":false},{"type":"event","name":"StrategyWithdrawalDelayBlocksSet","inputs":[{"name":"strategy","type":"address","indexed":false,"internalType":"contract IStrategy"},{"name":"previousValue","type":"uint256","indexed":false,"internalType":"uint256"},{"name":"newValue","type":"uint256","indexed":false,"internalType":"uint256"}],"anonymous":false},{"type":"event","name":"WithdrawalCompleted","inputs":[{"name":"withdrawalRoot","type":"bytes32","indexed":false,"internalType":"bytes32"}],"anonymous":false},{"type":"event","name":"WithdrawalMigrated","inputs":[{"name":"oldWithdrawalRoot","type":"bytes32","indexed":false,"internalType":"bytes32"},{"name":"newWithdrawalRoot","type":"bytes32","indexed":false,"internalType":"bytes32"}],"anonymous":false},{"type":"event","name":"WithdrawalQueued","inputs":[{"name":"withdrawalRoot","type":"bytes32","indexed":false,"internalType":"bytes32"},{"name":"withdrawal","type":"tuple","indexed":false,"internalType":"struct IDelegationManager.Withdrawal","components":[{"name":"staker","type":"address","internalType":"address"},{"name":"delegatedTo","type":"address","internalType":"address"},{"name":"withdrawer","type":"address","internalType":"address"},{"name":"nonce","type":"uint256","internalType":"uint256"},{"name":"startBlock","type":"uint32","internalType":"uint32"},{"name":"strategies","type":"address[]","internalType":"contract IStrategy[]"},{"name":"shares","type":"uint256[]","internalType":"uint256[]"}]}],"anonymous":false},{"type":"error","name":"ECDSAInvalidSignature","inputs":[]},{"type":"error","name":"ECDSAInvalidSignatureLength","inputs":[{"name":"length","type":"uint256","internalType":"uint256"}]},{"type":"error","name":"ECDSAInvalidSignatureS","inputs":[{"name":"s","type":"bytes32","internalType":"bytes32"}]},{"type":"error","name":"InvalidInitialization","inputs":[]},{"type":"error","name":"NotInitializing","inputs":[]},{"type":"error","name":"OwnableInvalidOwner","inputs":[{"name":"owner","type":"address","internalType":"address"}]},{"type":"error","name":"OwnableUnauthorizedAccount","inputs":[{"name":"account","type":"address","internalType":"address"}]},{"type":"error","name":"ReentrancyGuardReentrantCall","inputs":[]}],"bytecode":{"object":"0x60a08060405234620000ca577ff0c57e16840df040f15088dc2f81fe391c3923bec73e23a9662efc9c229c6a009081549060ff8260401c16620000bb57506001600160401b036002600160401b03198282160162000075575b46608052604051614c879081620000d08239608051816137820152f35b6001600160401b031990911681179091556040519081527fc7f505b2f371ae2175ee4913f4499e1f2633a7b5936321eed1cdaeb6115181d290602090a138808062000058565b63f92ee8a960e01b8152600490fd5b600080fdfe6080604052600436101561001257600080fd5b60003560e01c80630449ca3914612dad57806304a4f97914612d725780630b9f487a14612d365780630dd8dd0214612a70578063116745781461247a578063132d4967146124185780631522bf02146123c0578063169283651461237a5780631bbce091146123335780631c8392d71461223657806320606b70146121fb57806328a573ae1461219957806329c77d4f1461215f57806330d0377b146120b057806339b70e38146120875780633cdeb5e0146120495780633e28391d1461200b5780634337738214611fd05780634fc40b6114611fb2578063597b36da14611f7d5780635ce4c76114611dae5780635cfe8d2c1461196c5780635f966f1414611931578063635bbd101461190d57806365da1264146118d25780636d70f7ae1461188a5780636f8c98841461144a578063715018a6146113e0578063778e55f31461138f5780637f548071146112605780638da5cb5b1461122a578063900413471461117f5780639fd0506d14611156578063a17884841461111c578063b1344271146110f3578063b7f06ebe146110c2578063bb45fef214611075578063c448feb814611057578063c488375a1461101d578063c5e480db14610f41578063c94b511114610f0e578063ca661c0414610ef0578063cf80873e14610e71578063da8be864146109cf578063e92ae726146102ee578063eea9064b146102a8578063f2fde38b146102545763f698da251461022c57600080fd5b3461024f57600036600319011261024f57602061024761377f565b604051908152f35b600080fd5b3461024f57602036600319011261024f5761026d612e67565b610275614329565b6001600160a01b0381161561028f5761028d90614666565b005b604051631e4fbdf760e01b815260006004820152602490fd5b3461024f57606036600319011261024f576102c1612e67565b602435906001600160401b03821161024f576102e461028d92369060040161318c565b6044359133613e97565b3461024f57608036600319011261024f576001600160401b0360043581811161024f5761031f903690600401612e37565b90610328612e7d565b9260443581811161024f57610341903690600401612e37565b9160643590811161024f5761035a903690600401612e37565b906103636147a8565b603454604051634994adeb60e01b815290602090829060049082906001600160a01b03165afa9081156105fa57600091610995575b50156109355791926000959195935b8285106103d45760017f9b779b17422d0df92223018b32b4d1fa46e071723d6817e2486d003becc55f0055005b60de19863603018560051b870135121561024f576103f3858383613253565b506103ff858886613253565b3596871515880361024f5761042461041f368860051b8a01358a016130e5565b61354b565b9788600052600760205260ff60406000205416156108d05761045060808860051b8a01358a0101613bbd565b61046360065463ffffffff439316614533565b11610851576001600160a01b03610485600589901b8a01358a01604001613279565b1633036107df576000898152600760205260409020805460ff19169055156106355760005b6104c1600588901b890135890160a0810190613393565b90508110156106065761053d88826105166105116105028c6104ed60808260051b880135880101613bbd565b9560059190911b8101350160a0810190613393565b6001600160a01b039491613253565b613279565b16600052600a602052610536439163ffffffff6040600020549116614533565b11156147ea565b6105616105118261055b60058b901b8c01358c0160a0810190613393565b90613253565b9061057d8161055b60058b901b8c01358c0160c0810190613393565b6032546001600160a01b0316929035833b1561024f576040516370822b7f60e11b81523360048201526001600160a01b0392831660248201526044810191909152908c166064820152916000908390608490829084905af19182156105fa576001926105eb575b50016104aa565b6105f490612f91565b8b6105e4565b6040513d6000823e3d90fd5b50929694600080516020614c3283398151915260206001939694975b604051908152a1019390929591956103a7565b94959392919033600052600360205260018060a01b03604060002054169560005b61066d60058a901b880135880160a0810190613393565b90508110156107bb576106ab898261051661051161050261069860808e8760051b8101350101613bbd565b9460051b8d01358d0160a0810190613393565b6032546001600160a01b0316906106d66105118261055b60058e901b8c01358c0160a0810190613393565b916106f28261055b60058e901b8c01358c0160c0810190613393565b3592813b1561024f5760848e60008094604051978895869463c4623ea160e01b865233600487015260018060a01b0316602486015260018060a01b0316604485015260648401525af19182156105fa576001926107ac575b50808a898b61075d575b50505001610656565b6107a49261079b9161055b90610788906105119084908490600589901b8101350160a0810190613393565b9360051b8d01358d0160c0810190613393565b3590338c614540565b808a89610754565b6107b590612f91565b8c61074a565b5093929760019296506020600080516020614c328339815191529198929698610622565b60405162461bcd60e51b81526020600482015260506024820152600080516020614bf283398151915260448201527f645769746864726177616c3a206f6e6c7920776974686472617765722063616e60648201526f1031b7b6b83632ba329030b1ba34b7b760811b608482015260a490fd5b60405162461bcd60e51b815260206004820152605f6024820152600080516020614bf283398151915260448201527f645769746864726177616c3a206d696e5769746864726177616c44656c61794260648201527f6c6f636b7320706572696f6420686173206e6f74207965742070617373656400608482015260a490fd5b60405162461bcd60e51b81526020600482015260436024820152600080516020614bf283398151915260448201527f645769746864726177616c3a20616374696f6e206973206e6f7420696e20717560648201526265756560e81b608482015260a490fd5b60405162461bcd60e51b815260206004820152603260248201527f44656c65676174696f6e4d616e616765723a636f6d706c65746551756575656460448201527115da5d1a191c985dd85b1cc81c185d5cd95960721b6064820152608490fd5b90506020813d6020116109c7575b816109b060209383612fbf565b8101031261024f576109c190613332565b88610398565b3d91506109a3565b3461024f5760208060031936011261024f576109e9612e67565b60345460405163c77cf18d60e01b81526001600160a01b039184908290600490829086165afa9081156105fa57600091610e3c575b5015610deb576001600160a01b038083166000908152600360205260409020541615610d74576001600160a01b0380831660009081526002602052604090205416610d0957808216918215610c9e5782600052600384528160406000205416908333149182159283610c95575b8015610c7a575b15610c0f57610aa082613609565b959093610be3575b81817ffee30966a256b71e14bc0ebfc94315e28ef4a97a7131a9e2b7a310a73af44676600080a36000908152600387526040902080546001600160a01b0319169055825180610b4257505050505050604051908101908082106001600160401b03831117610b2c57610b2891604052600081525b60405191829182612ebd565b0390f35b634e487b7160e01b600052604160045260246000fd5b610b4f909694959661333f565b9560005b8451811015610bd357600190610bc2604051610b6e81612f5b565b839081815289368183013760405191610b8683612f5b565b82528936818401378a610b99858b6133d5565b5116610ba4826133c8565b52610baf84876133d5565b51610bb9836133c8565b528787816137b4565b610bcc828b6133d5565b5201610b53565b50505050505050610b2890610b1c565b81817ff0eddf07e6ea14f388b47e1e94a0f464ecbd9eed4171130e0fc0e99fb4030a8a600080a3610aa8565b60405162461bcd60e51b815260048101879052603d60248201527f44656c65676174696f6e4d616e616765722e756e64656c65676174653a20636160448201527f6c6c65722063616e6e6f7420756e64656c6567617465207374616b65720000006064820152608490fd5b50806000526002865283600160406000200154163314610a92565b50803314610a8b565b60405162461bcd60e51b815260048101859052603c60248201527f44656c65676174696f6e4d616e616765722e756e64656c65676174653a20636160448201527f6e6e6f7420756e64656c6567617465207a65726f2061646472657373000000006064820152608490fd5b60405162461bcd60e51b815260048101849052603d60248201527f44656c65676174696f6e4d616e616765722e756e64656c65676174653a206f7060448201527f657261746f72732063616e6e6f7420626520756e64656c6567617465640000006064820152608490fd5b60a4836040519062461bcd60e51b82526004820152604460248201527f44656c65676174696f6e4d616e616765722e756e64656c65676174653a20737460448201527f616b6572206d7573742062652064656c65676174656420746f20756e64656c656064820152636761746560e01b6084820152fd5b60405162461bcd60e51b815260048101849052602360248201527f44656c65676174696f6e4d616e616765723a756e64656c6567617465207061756044820152621cd95960ea1b6064820152608490fd5b90508381813d8311610e6a575b610e538183612fbf565b8101031261024f57610e6490613332565b84610a1e565b503d610e49565b3461024f5760208060031936011261024f57610e93610e8e612e67565b613609565b6040929192519283916040830160408452825180915260206060850193019460005b828110610ed0578580610b2887878382036020850152613212565b86516001600160a01b031685529581019587955093810193600101610eb5565b3461024f57600036600319011261024f57602060405162034bc08152f35b3461024f57608036600319011261024f576020610247610f2c612e67565b610f34612e93565b606435916024359061358d565b3461024f57602036600319011261024f57610f5a612e67565b60006060604051610f6a81612fa4565b828152826020820152826040820152015260018060a01b0380911660005260026020526040600020600160405191610fa183612fa4565b83815416835201546020820192808216845263ffffffff60ff6040850193828160a01c16855260c01c169260608501926007851015611007576080966110059585528160405197511687525116602086015251166040840152516060830190613246565bf35b634e487b7160e01b600052602160045260246000fd5b3461024f57602036600319011261024f576001600160a01b0361103e612e67565b16600052600a6020526020604060002054604051908152f35b3461024f57600036600319011261024f576020600654604051908152f35b3461024f57604036600319011261024f576001600160a01b03611096612e67565b1660005260056020526040600020602435600052602052602060ff604060002054166040519015158152f35b3461024f57602036600319011261024f576004356000526007602052602060ff604060002054166040519015158152f35b3461024f57600036600319011261024f576033546040516001600160a01b039091168152602090f35b3461024f57602036600319011261024f576001600160a01b0361113d612e67565b1660005260086020526020604060002054604051908152f35b3461024f57600036600319011261024f576034546040516001600160a01b039091168152602090f35b3461024f57604036600319011261024f57611198612e67565b6024356001600160401b03811161024f576111b790369060040161305e565b906111c2825161333f565b6001600160a01b039182169260005b815181101561121457600190856000526020828152604060002090866111f784876133d5565b51166000525260406000205461120d82866133d5565b52016111d1565b60405160208082528190610b2890820186613212565b3461024f57600036600319011261024f57600080516020614bd2833981519152546040516001600160a01b039091168152602090f35b3461024f5760a036600319011261024f57611279612e67565b611281612e7d565b6001600160401b03919060443583811161024f576112a390369060040161318c565b9260643590811161024f576112bc90369060040161318c565b9060208401938451421161131a5761028d94611311916001808060a01b038716928360005260046020526112f9604060002054915187838b61358d565b93600052600460205201604060002055519085614887565b60843592613e97565b60405162461bcd60e51b815260206004820152604160248201527f44656c65676174696f6e4d616e616765722e64656c6567617465546f4279536960448201527f676e61747572653a207374616b6572207369676e6174757265206578706972656064820152601960fa1b608482015260a490fd5b3461024f57604036600319011261024f576113a8612e67565b6113b0612e7d565b9060018060a01b038091166000526001602052604060002091166000526020526020604060002054604051908152f35b3461024f57600036600319011261024f576113f9614329565b600080516020614bd283398151915280546001600160a01b031981169091556000906001600160a01b03167f8be0079c531659141344cd1fd0a4f28419497f9722a3daafe3b4186f6b6457e08280a3005b3461024f5760031960803682011261024f576001600160401b036004351161024f5760e0906004353603011261024f57611482612e7d565b606435801515810361024f576114966147a8565b603454604051634994adeb60e01b815290602090829060049082906001600160a01b03165afa9081156105fa57600091611850575b50156117f1576114e361041f366004356004016130e5565b9081600052600760205260ff60406000205416156108d05761151b61150c608460043501613bbd565b63ffffffff6006549116614533565b4310610851576001600160a01b03611537600435604401613279565b1633036107df576000828152600760205260409020805460ff19169055156116995760005b61157060a460043501600435600401613393565b9050811015611656576115a561158a608460043501613bbd565b8261051661051161050260a460043501600435600401613393565b6115c06105118261055b60a460043501600435600401613393565b906115d98161055b60c460043501600435600401613393565b6032546001600160a01b0316929035833b1561024f576040516370822b7f60e11b81523360048201526001600160a01b03928316602482015260448101919091529085166064820152916000908390608490829084905af19182156105fa57600192611647575b500161155c565b61165090612f91565b84611640565b50600080516020614c3283398151915291506020905b604051908152a160017f9b779b17422d0df92223018b32b4d1fa46e071723d6817e2486d003becc55f0055005b336000908152600360205260408120546001600160a01b0316905b6116c860a460043501600435600401613393565b90508110156117d6576116e261158a608460043501613bbd565b6032546001600160a01b0316906117086105118261055b6004803560a481019101613393565b6117208261055b60c460043501600435600401613393565b35833b1561024f5760405163c4623ea160e01b81523360048201526001600160a01b03888116602483015290921660448301526064820152916000908390608490829084905af19182156105fa576001926117c7575b5082611783575b016116b4565b6117c26117a16105118361055b60a460043501600435600401613393565b6117b98361055b60c460043501600435600401613393565b35903386614540565b61177d565b6117d090612f91565b85611776565b5050600080516020614c32833981519152915060209061166c565b60405162461bcd60e51b815260206004820152603160248201527f44656c65676174696f6e4d616e616765723a636f6d706c65746551756575656460448201527015da5d1a191c985dd85b081c185d5cd959607a1b6064820152608490fd5b90506020813d602011611882575b8161186b60209383612fbf565b8101031261024f5761187c90613332565b836114cb565b3d915061185e565b3461024f57602036600319011261024f5760206118c86118a8612e67565b6001600160a01b0390811660009081526002602052604090205416151590565b6040519015158152f35b3461024f57602036600319011261024f5760206001600160a01b03806118f6612e67565b166000526003825260406000205416604051908152f35b3461024f57602036600319011261024f57611926614329565b61028d6004356146bc565b3461024f57602036600319011261024f5760206001600160a01b0380611955612e67565b166000526002825260406000205416604051908152f35b3461024f57602036600319011261024f576004356001600160401b0380821161024f573660238301121561024f578160040135916119a983612ff1565b926119b76040519485612fbf565b8084526024602085019160051b8301019136831161024f5760248101915b838310611cb5578560005b815181101561028d576119f381836133d5565b519060018060a01b03603254169160408051809463cd293f6f60e01b82526020600483015281600081611a4c611a36885160e0602485015261010484019061346c565b60208901518382036023190160448501526134a9565b878701516001600160a01b0390811660648401526060890151805182166084850152602001516001600160601b031660a4840152608089015163ffffffff1660c484015260a08901511660e483015203925af19283156105fa57600090600094611c74575b50611ac2575b5060019150016119e0565b6040818101516001600160a01b031660008181526008602052919091208054919290611aed83613568565b905560018060a01b0360a0820151169160018060a01b03606083015151169063ffffffff60808401511691602084519401519460405196611b2d88612f76565b8752602087015260408601526060850152608084015260a083015260c0820152611b568161354b565b92836000526007908160205260ff60406000205416611bfb57847f9009ab153e8014fbfb02f2217f5cde7aa7f9ad734ae85ca3ee3f4ca2fdd499f9611be77fdc00758b65eef71dc3780c04ebe36cab6bdb266c3a698187e29e0f0dca01263095604095600199600052602052856000208960ff198254161790558551918291858352876020840152878301906134dd565b0390a182519182526020820152a183611ab7565b60405162461bcd60e51b815260206004820152604560248201527f44656c65676174696f6e4d616e616765722e6d6967726174655175657565645760448201527f69746864726177616c733a207769746864726177616c20616c72656164792065606482015264786973747360d81b608482015260a490fd5b9350506040833d604011611cad575b81611c9060409383612fbf565b8101031261024f576020611ca384613332565b9301519285611ab1565b3d9150611c83565b823585811161024f5782018036039160e060231984011261024f576040519260c0840184811089821117610b2c57604052602483013588811161024f57611d02906024369186010161305e565b845260448301359088821161024f57611d23604092602436918701016130ca565b6020860152611d3460648501612ea9565b85830152608319011261024f5760405192611d4e84612f5b565b611d5a60848401612ea9565b845260a4830135936001600160601b038516850361024f5760e46020959482879687611d9e9501526060850152611d9360c48201612fe0565b608085015201612ea9565b60a08201528152019201916119d5565b3461024f5760e036600319011261024f57611dc7612e67565b6001600160401b0360443581811161024f57611de7903690600401612e37565b60649391933583811161024f57611e02903690600401612e37565b6001600160a01b039360843585811694939192919085900361024f5760a4359386851680950361024f5760c43596871680970361024f577ff0c57e16840df040f15088dc2f81fe391c3923bec73e23a9662efc9c229c6a0098895460ff8160401c161599811680159081611f75575b6001149081611f6b575b159081611f62575b50611f505767ffffffffffffffff1981166001178b55611ec895611eb8918b611f31575b50611eb06145c6565b600055614666565b611ec36024356146bc565b614362565b6001600160601b0360a01b918260325416176032558160335416176033556034541617603455611ef457005b68ff00000000000000001981541690557fc7f505b2f371ae2175ee4913f4499e1f2633a7b5936321eed1cdaeb6115181d2602060405160018152a1005b68ffffffffffffffffff191668010000000000000001178c558c611ea7565b60405163f92ee8a960e01b8152600490fd5b9050158c611e83565b303b159150611e7b565b8b9150611e71565b3461024f57602036600319011261024f576004356001600160401b03811161024f5761024761041f60209236906004016130e5565b3461024f57600036600319011261024f5760206040516213c6808152f35b3461024f57600036600319011261024f5760206040517f39111bc4a4d688e1f685123d7497d4615370152a8ee4a0593e647bd06ad8bb0b8152f35b3461024f57602036600319011261024f5760206118c8612029612e67565b6001600160a01b0390811660009081526003602052604090205416151590565b3461024f57602036600319011261024f5760206001600160a01b038061206d612e67565b166000526002825260016040600020015416604051908152f35b3461024f57600036600319011261024f576032546040516001600160a01b039091168152602090f35b3461024f57608036600319011261024f57336000908152600260205260409020546001600160a01b0316156120e85761028d33613bce565b60405162461bcd60e51b815260206004820152604360248201527f44656c65676174696f6e4d616e616765722e6d6f646966794f70657261746f7260448201527f44657461696c733a2063616c6c6572206d75737420626520616e206f706572616064820152623a37b960e91b608482015260a490fd5b3461024f57602036600319011261024f576001600160a01b03612180612e67565b1660005260046020526020604060002054604051908152f35b3461024f576121a736612f26565b9060018060a01b03926121bf84603254163314613411565b6001600160a01b03808216600090815260036020526040902054166121e057005b8361028d948216600052600360205260406000205416614540565b3461024f57600036600319011261024f5760206040517f8cad95687ba82c2ce50e74f7b754645e5117c3a5bec8151c0726d5857980a8668152f35b3461024f57602036600319011261024f576004356001600160401b03811161024f57612266903690600401612ef9565b336000908152600260205260409020546001600160a01b0316156122bc576122b77f826d13513a58153c5878cd93af2008d3f8dfc32049e748b380b1b385645e280b916040519182913395836133e9565b0390a2005b60405162461bcd60e51b815260206004820152604360248201527f44656c65676174696f6e4d616e616765722e7570646174654f70657261746f7260448201527f4e6f646555726c3a2063616c6c6572206d75737420626520616e206f706572616064820152623a37b960e91b608482015260a490fd5b3461024f57606036600319011261024f576020610247612351612e67565b612359612e7d565b6001600160a01b03821660009081526004855260409020546044359261358d565b3461024f57602036600319011261024f576001600160a01b0361239b612e67565b166000526002602052602063ffffffff60016040600020015460a01c16604051908152f35b3461024f57604036600319011261024f576001600160401b0360043581811161024f576123f1903690600401612e37565b9060243592831161024f5761240d61028d933690600401612e37565b929091611ec3614329565b3461024f5761242636612f26565b9060018060a01b039261243e84603254163314613411565b6001600160a01b038082166000908152600360205260409020541661245f57005b8361028d948216600052600360205260406000205416614292565b3461024f57366003190160a0811261024f5760801361024f57608480356001600160401b03811161024f576124b3903690600401612ef9565b919091336000526020916002835260018060a01b039081604060002054166129f9576124de33613bce565b604051906124eb82612f5b565b606082528482019160008352600486856034541660405192838092634daaffaf60e11b82525afa9081156105fa576000916129c4575b501561297557336000908152600360205260409020546001600160a01b031661290157336000908152600260205260409020546001600160a01b03161561288b57336000526002865260019284600160406000200154169283151580612881575b80612879575b6126d7575b5050505033600052600384526040600020336001600160601b0360a01b82541617905533337fc3ee9f2e5fda98e8066a1f745b2df9285f416fe98cf2559cd21484b3d8743304600080a3806125e133613609565b906000925b61269c575b505050506040519260043582811680910361024f57845260243591821680920361024f5783015260443563ffffffff811680910361024f57604083015260643590600782101561024f57826126686122b79360607f826d13513a58153c5878cd93af2008d3f8dfc32049e748b380b1b385645e280b960190613246565b7f56911302237efb62a9bd04b0083a3bcf08e50246e09837cdae47ce169ff6d6c960803392a26040519182913395836133e9565b80518310156126d25783836126cb876126b68497866133d5565b51166126c283876133d5565b51903333614540565b01926125e6565b6125eb565b81514211612829578360005260058852604060002060008052885260ff604060002054166127d957509082916127d0936000526005885260406000206000805288526040600020600160ff1982541617905551604051888101917f14bde674c9f64b2ad00eaaee4a8bed1fabef35c7507e3c5b9cfc9436909a2dad8352846040830152336060830152336080830152600060a083015260c082015260c0815261277f81612f76565b5190206127b76127c561279061377f565b926040519283918c83019586909160429261190160f01b8352600283015260228201520190565b03601f198101835282612fbf565b519020905191614887565b8580808061258d565b60405162461bcd60e51b81526004810189905260376024820152600080516020614c128339815191526044820152761c9bdd995c94d85b1d08185b1c9958591e481cdc195b9d604a1b6064820152fd5b60405162461bcd60e51b81526004810189905260376024820152600080516020614c128339815191526044820152761c9bdd995c881cda59db985d1d5c9948195e1c1a5c9959604a1b6064820152fd5b506000612588565b5083331415612582565b60405162461bcd60e51b815260048101879052604360248201527f44656c65676174696f6e4d616e616765722e5f64656c65676174653a206f706560448201527f7261746f72206973206e6f74207265676973746572656420696e20446170704c606482015262696e6b60e81b8184015260a490fd5b60405162461bcd60e51b815260048101879052604160248201527f44656c65676174696f6e4d616e616765722e5f64656c65676174653a2073746160448201527f6b657220697320616c7265616479206163746976656c792064656c65676174656064820152601960fa1b8184015260a490fd5b5060405162461bcd60e51b815260048101869052602360248201527f44656c65676174696f6e4d616e616765723a697344656c6567617465207061756044820152621cd95960ea1b6064820152fd5b90508681813d83116129f2575b6129db8183612fbf565b8101031261024f576129ec90613332565b88612521565b503d6129d1565b83641d195c995960da1b60a4926040519262461bcd60e51b84526004840152604560248401527f44656c65676174696f6e4d616e616765722e726567697374657241734f70657260448401527f61746f723a206f70657261746f722068617320616c72656164792072656769736064840152820152fd5b3461024f5760208060031936011261024f576004356001600160401b03811161024f57612aa1903690600401612e37565b603454604051634994adeb60e01b81526001600160a01b03929185908290600490829087165afa9081156105fa57600091612d01575b5015612caa57612ae68161333f565b92336000526003855282604060002054169160005b818110612b105760405180610b288882612ebd565b612b24612b1e828486613371565b80613393565b9050612b3d612b34838587613371565b89810190613393565b91905003612c3f573385612b5d6040612b57858789613371565b01613279565b1603612bd45780612bc38885612bbb86612bb3612ba9612b856040612b5760019b8689613371565b95612ba089612b98612b1e82888b613371565b969098613371565b90810190613393565b9490923691613008565b92369161307c565b9188336137b4565b612bcd82896133d5565b5201612afb565b60405162461bcd60e51b815260048101889052603c60248201527f44656c65676174696f6e4d616e616765722e717565756557697468647261776160448201527f6c3a2077697468647261776572206d757374206265207374616b6572000000006064820152608490fd5b60405162461bcd60e51b815260048101889052603860248201527f44656c65676174696f6e4d616e616765722e717565756557697468647261776160448201527f6c3a20696e707574206c656e677468206d69736d6174636800000000000000006064820152608490fd5b60405162461bcd60e51b815260048101859052602960248201527f44656c65676174696f6e4d616e616765723a71756575655769746864726177616044820152681b1cc81c185d5cd95960ba1b6064820152608490fd5b90508481813d8311612d2f575b612d188183612fbf565b8101031261024f57612d2990613332565b85612ad7565b503d612d0e565b3461024f5760a036600319011261024f576020610247612d54612e67565b612d5c612e7d565b90612d65612e93565b608435926064359261328d565b3461024f57600036600319011261024f5760206040517f14bde674c9f64b2ad00eaaee4a8bed1fabef35c7507e3c5b9cfc9436909a2dad8152f35b3461024f5760208060031936011261024f576004356001600160401b03811161024f57612dde903690600401612e37565b90916006549260005b838110612df957602085604051908152f35b6001600160a01b03612e0f610511838786613253565b16600052600a8352604060002054858111612e2e575b50600101612de7565b94506001612e25565b9181601f8401121561024f578235916001600160401b03831161024f576020808501948460051b01011161024f57565b600435906001600160a01b038216820361024f57565b602435906001600160a01b038216820361024f57565b604435906001600160a01b038216820361024f57565b35906001600160a01b038216820361024f57565b602090602060408183019282815285518094520193019160005b828110612ee5575050505090565b835185529381019392810192600101612ed7565b9181601f8401121561024f578235916001600160401b03831161024f576020838186019501011161024f57565b606090600319011261024f576001600160a01b0390600435828116810361024f5791602435908116810361024f579060443590565b604081019081106001600160401b03821117610b2c57604052565b60e081019081106001600160401b03821117610b2c57604052565b6001600160401b038111610b2c57604052565b608081019081106001600160401b03821117610b2c57604052565b90601f801991011681019081106001600160401b03821117610b2c57604052565b359063ffffffff8216820361024f57565b6001600160401b038111610b2c5760051b60200190565b929161301382612ff1565b916130216040519384612fbf565b829481845260208094019160051b810192831161024f57905b8282106130475750505050565b83809161305384612ea9565b81520191019061303a565b9080601f8301121561024f5781602061307993359101613008565b90565b929161308782612ff1565b916130956040519384612fbf565b829481845260208094019160051b810192831161024f57905b8282106130bb5750505050565b813581529083019083016130ae565b9080601f8301121561024f578160206130799335910161307c565b919060e08382031261024f57604051906130fe82612f76565b819361310981612ea9565b835261311760208201612ea9565b602084015261312860408201612ea9565b60408401526060810135606084015261314360808201612fe0565b60808401526001600160401b039160a082013583811161024f578161316991840161305e565b60a085015260c082013592831161024f5760c09261318792016130ca565b910152565b91909160408184031261024f57604051906131a682612f5b565b81938135916001600160401b039283811161024f5781019180601f8401121561024f5782356020948111610b2c57604051916131eb601f8301601f1916870184612fbf565b81835285828601011161024f57848160009282809701838601378301015284520135910152565b90815180825260208080930193019160005b828110613232575050505090565b835185529381019392810192600101613224565b9060078210156110075752565b91908110156132635760051b0190565b634e487b7160e01b600052603260045260246000fd5b356001600160a01b038116810361024f5790565b9391939290926040519360208501957f14bde674c9f64b2ad00eaaee4a8bed1fabef35c7507e3c5b9cfc9436909a2dad875260018060a01b039283809216604088015216606086015216608084015260a083015260c082015260c081526132f381612f76565b5190206127b761332c61330461377f565b92604051928391602083019586909160429261190160f01b8352600283015260228201520190565b51902090565b5190811515820361024f57565b9061334982612ff1565b6133566040519182612fbf565b8281528092613367601f1991612ff1565b0190602036910137565b91908110156132635760051b81013590605e198136030182121561024f570190565b903590601e198136030182121561024f57018035906001600160401b03821161024f57602001918160051b3603831361024f57565b8051156132635760200190565b80518210156132635760209160051b010190565b90918060409360208452816020850152848401376000828201840152601f01601f1916010190565b1561341857565b60405162461bcd60e51b815260206004820152602660248201527f44656c65676174696f6e4d616e616765723a206f6e6c7953747261746567794d60448201526530b730b3b2b960d11b6064820152608490fd5b90815180825260208080930193019160005b82811061348c575050505090565b83516001600160a01b03168552938101939281019260010161347e565b90815180825260208080930193019160005b8281106134c9575050505090565b8351855293810193928101926001016134bb565b6130799160018060a01b0380835116825280602084015116602083015260408301511660408201526060820151606082015263ffffffff608083015116608082015260c061353a60a084015160e060a085015260e084019061346c565b9201519060c08184039101526134a9565b60405161332c816127b760208201946020865260408301906134dd565b60001981146135775760010190565b634e487b7160e01b600052601160045260246000fd5b9192906040519260208401947f39111bc4a4d688e1f685123d7497d4615370152a8ee4a0593e647bd06ad8bb0b865260018060a01b038092166040860152166060840152608083015260a082015260a0815260c081018181106001600160401b03821117610b2c576040525190206127b761332c61330461377f565b6032546040516394f649dd60e01b81526001600160a01b0392831660048201529192919060009081908390602490829088165afa9384156137725781928295613654575b5050509190565b91945091503d8085833e6136688183612fbf565b810160408282031261376e5781516001600160401b039081811161374a5783019282601f8501121561374a578351936020946136a381612ff1565b966136b16040519889612fbf565b818852868089019260051b8401019286841161376a578701915b83831061374e57505050508381015191821161374a570181601f82011215613746578051906136f982612ff1565b966137076040519889612fbf565b828852848089019360051b83010193841161374357508301905b828210613734575050505038808061364d565b81518152908301908301613721565b80fd5b8580fd5b8680fd5b825182811681036137665781529187019187016136cb565b8b80fd5b8a80fd5b8480fd5b50604051903d90823e3d90fd5b467f0000000000000000000000000000000000000000000000000000000000000000036137ac5760005490565b6130796145c6565b9493916001600160a01b039182871691908215613b3957855115613ab85760005b86518110156139f9578482166139d1575b84831684148015613950575b1561388e57846032541685613807838a6133d5565b51169061381483896133d5565b5191813b1561024f5760408051638c80d4e560e01b81526001600160a01b038e81166004830152929092166024830152604482019390935291906000908390606490829084905af190811561388457509060019291613875575b50016137d5565b61387e90612f91565b3861386e565b513d6000823e3d90fd5b60e460405162461bcd60e51b8152602060048201527f73742062652073616d652061646472657373206173207374616b65722069662060848060248401527f44656c65676174696f6e4d616e616765722e5f72656d6f76655368617265734160448401527f6e6451756575655769746864726177616c3a2077697468647261776572206d7560648401528201527f746869726450617274795472616e7366657273466f7262696464656e2061726560a482015263081cd95d60e21b60c4820152fd5b50846032541685613961838a6133d5565b51166040908151928391639b4da03d60e01b8352600483015281602460209384935afa918215613884575060009161399d575b509050156137f2565b82813d83116139ca575b6139b18183612fbf565b8101031261374357506139c390613332565b8038613994565b503d6139a7565b6139f4856139df838a6133d5565b51166139eb83896133d5565b51908b85614292565b6137e6565b50909596507f9009ab153e8014fbfb02f2217f5cde7aa7f9ad734ae85ca3ee3f4ca2fdd499f994919392846000526008602052604096818860002093845494613a4186613568565b9055895197613a4f89612f76565b88521660208701521686850152606084015263ffffffff4316608084015260a083015260c0820152613a808161354b565b9283600052600760205280600020600160ff19825416179055613ab281519283928684528060208501528301906134dd565b0390a190565b60405162461bcd60e51b815260206004820152604d60248201527f44656c65676174696f6e4d616e616765722e5f72656d6f76655368617265734160448201527f6e6451756575655769746864726177616c3a207374726174656769657320636160648201526c6e6e6f7420626520656d70747960981b608482015260a490fd5b60405162461bcd60e51b815260206004820152605060248201527f44656c65676174696f6e4d616e616765722e5f72656d6f76655368617265734160448201527f6e6451756575655769746864726177616c3a207374616b65722063616e6e6f7460648201526f206265207a65726f206164647265737360801b608482015260a490fd5b3563ffffffff8116810361024f5790565b6001600160a01b039190600435838116919082900361024f578115613e0f576044359063ffffffff948583169182840361024f576213c6808311613d695781166000968188526002602052600160408920015460a01c168310613ce25786526002602052600160408720856001600160601b0360a01b8254161781550160243591821680920361374a57805493606435946007861015613cde576001600160c81b031916831760a09190911b63ffffffff60a01b161760c085901b60ff60c01b1617905560408051948552602085019190915283015291925090613cb6906060830190613246565b7f8608ba5d3843c5892d0e0e7f8b3dbe140644275248c7acc0e70c6ab00524252760803392a2565b8880fd5b60405162461bcd60e51b815260206004820152605360248201527f44656c65676174696f6e4d616e616765722e5f7365744f70657261746f72446560448201527f7461696c733a207374616b65724f70744f757457696e646f77426c6f636b732060648201527218d85b9b9bdd08189948191958dc99585cd959606a1b608482015260a490fd5b60405162461bcd60e51b815260206004820152606c60248201527f44656c65676174696f6e4d616e616765722e5f7365744f70657261746f72446560448201527f7461696c733a207374616b65724f70744f757457696e646f77426c6f636b732060648201527f63616e6e6f74206265203e204d41585f5354414b45525f4f50545f4f55545f5760848201526b494e444f575f424c4f434b5360a01b60a482015260c490fd5b60405162461bcd60e51b815260206004820152605460248201527f44656c65676174696f6e4d616e616765722e5f7365744f70657261746f72446560448201527f7461696c733a2063616e6e6f742073657420606561726e696e677352656365696064820152737665726020746f207a65726f206164647265737360601b608482015260a490fd5b60345460408051634daaffaf60e11b81529096956001600160a01b03959094939290916020916004919083908290849082908c165afa90811561428757600091614252575b5015614205576001600160a01b0380851660009081526003602052604090205416614194576001600160a01b038086166000908152600260205260409020541615614121578685169283600052600283526001968860018c6000200154169283151580614117575b8061410d575b613ff4575b50505050859697600386978516928360005252600020826001600160601b0360a01b8254161790557fc3ee9f2e5fda98e8066a1f745b2df9285f416fe98cf2559cd21484b3d8743304600080a3613fa581613609565b91906000945b613fb9575b50505050505050565b8051851015613fef578585613fe889613fd38499866133d5565b5116613fdf83886133d5565b51908689614540565b0194613fab565b613fb0565b84830190815142116140bc5784600052600586528c60002083600052865260ff8d600020541661406b5750916140588492614060948b9c9d9e96600052600588528660002082600052885286600020600160ff198254161790555190848b8b61328d565b905191614887565b979695388080613f4f565b8c5162461bcd60e51b815290810186905260376024820152600080516020614c128339815191526044820152761c9bdd995c94d85b1d08185b1c9958591e481cdc195b9d604a1b6064820152608490fd5b8c5162461bcd60e51b815290810186905260376024820152600080516020614c128339815191526044820152761c9bdd995c881cda59db985d1d5c9948195e1c1a5c9959604a1b6064820152608490fd5b5085331415613f4a565b5083331415613f44565b60a49189519162461bcd60e51b8352820152604360248201527f44656c65676174696f6e4d616e616765722e5f64656c65676174653a206f706560448201527f7261746f72206973206e6f74207265676973746572656420696e20446170704c606482015262696e6b60e81b6084820152fd5b60a49189519162461bcd60e51b8352820152604160248201527f44656c65676174696f6e4d616e616765722e5f64656c65676174653a2073746160448201527f6b657220697320616c7265616479206163746976656c792064656c65676174656064820152601960fa1b6084820152fd5b60849189519162461bcd60e51b8352820152602360248201527f44656c65676174696f6e4d616e616765723a697344656c6567617465207061756044820152621cd95960ea1b6064820152fd5b90508281813d8311614280575b6142698183612fbf565b8101031261024f5761427a90613332565b38613edc565b503d61425f565b8a513d6000823e3d90fd5b6001600160a01b03908116600081815260016020908152604080832094871683529390529182208054919592838303928311614315575055604080516001600160a01b039384168152939092166020840152908201527f6909600037b75d7b4733aedd815442b5ec018a827751c832aaff64eba5d6d2dd9080606081015b0390a2565b634e487b7160e01b81526011600452602490fd5b600080516020614bd2833981519152546001600160a01b0316330361434a57565b60405163118cdaa760e01b8152336004820152602490fd5b9190918383036144b55760005b83811061437d575050505050565b6001600160a01b03614393610511838786613253565b1680600052600a60208181526040908160002054906143b3868b8a613253565b359362034bc08511614409579285927f0e7efa738e8b0ce6376a0c1af471655540d2e9a81647d7b09ed823018426576d95926060956001999860005281528383600020558251948552840152820152a10161436f565b835162461bcd60e51b815260048101839052607360248201527f44656c65676174696f6e4d616e616765722e5f7365745374726174656779576960448201527f746864726177616c44656c6179426c6f636b733a205f7769746864726177616c60648201527f44656c6179426c6f636b732063616e6e6f74206265203e204d41585f5749544860848201527244524157414c5f44454c41595f424c4f434b5360681b60a482015260c490fd5b60405162461bcd60e51b815260206004820152604a60248201527f44656c65676174696f6e4d616e616765722e5f7365745374726174656779576960448201527f746864726177616c44656c6179426c6f636b733a20696e707574206c656e67746064820152690d040dad2e6dac2e8c6d60b31b608482015260a490fd5b9190820180921161357757565b92906143107f1ec042c965e2edd7107b51188ee0f383e22e76179041ab3a9d18ff151405166c939260018060a01b03809616958660005260016020526040600020908516600052602052604060002061459a828254614533565b9055604080516001600160a01b0394851681529490931660208501529183019190915281906060820190565b67446170704c696e6b60c01b60206040516145e081612f5b565b60088152015260405160208101907f8cad95687ba82c2ce50e74f7b754645e5117c3a5bec8151c0726d5857980a86682527fdadb978fc98e6e975439bb996be670dd8e228496518e61b3cb48e91f9251c40d60408201524660608201523060808201526080815260a081018181106001600160401b03821117610b2c5760405251902090565b600080516020614bd283398151915280546001600160a01b039283166001600160a01b0319821681179092559091167f8be0079c531659141344cd1fd0a4f28419497f9722a3daafe3b4186f6b6457e0600080a3565b62034bc081116146fd577fafa003cd76f87ff9d62b35beea889920f33c0c42b8d45b74954d61d50f4b6b6960406006548151908152836020820152a1600655565b60405162461bcd60e51b815260206004820152607160248201527f44656c65676174696f6e4d616e616765722e5f7365744d696e5769746864726160448201527f77616c44656c6179426c6f636b733a205f6d696e5769746864726177616c446560648201527f6c6179426c6f636b732063616e6e6f74206265203e204d41585f5749544844526084820152704157414c5f44454c41595f424c4f434b5360781b60a482015260c490fd5b7f9b779b17422d0df92223018b32b4d1fa46e071723d6817e2486d003becc55f0060028154146147d85760029055565b604051633ee5aeb560e01b8152600490fd5b156147f157565b60405162461bcd60e51b815260206004820152606e6024820152600080516020614bf283398151915260448201527f645769746864726177616c3a207769746864726177616c44656c6179426c6f6360648201527f6b7320706572696f6420686173206e6f74207965742070617373656420666f7260848201526d207468697320737472617465677960901b60a482015260c490fd5b909190803b156149f0576040518092630b135d3f60e11b9485835260048301526040602483015280519081604484015260005b8281106149d857505091816064818560008360209884010152601f8019910116810103019160018060a01b03165afa9081156105fa57600091614991575b506001600160e01b0319160361490a57565b60405162461bcd60e51b815260206004820152605360248201527f454950313237315369676e61747572655574696c732e636865636b5369676e6160448201527f747572655f454950313237313a2045524331323731207369676e6174757265206064820152721d995c9a599a58d85d1a5bdb8819985a5b1959606a1b608482015260a490fd5b6020813d6020116149d0575b816149aa60209383612fbf565b810103126149cc5751906001600160e01b0319821682036137435750386148f8565b5080fd5b3d915061499d565b602082820181015160648884010152869450016148ba565b906149fe90614a0793614a96565b90939193614ad2565b6001600160a01b03908116911603614a1b57565b60405162461bcd60e51b815260206004820152604760248201527f454950313237315369676e61747572655574696c732e636865636b5369676e6160448201527f747572655f454950313237313a207369676e6174757265206e6f742066726f6d6064820152661039b4b3b732b960c91b608482015260a490fd5b8151919060418303614ac757614ac092506020820151906060604084015193015160001a90614b41565b9192909190565b505060009160029190565b60048110156110075780614ae4575050565b60018103614afe5760405163f645eedf60e01b8152600490fd5b60028103614b1f5760405163fce698f760e01b815260048101839052602490fd5b600314614b295750565b602490604051906335e2f38360e21b82526004820152fd5b91907f7fffffffffffffffffffffffffffffff5d576e7357a4501ddfe92f46681b20a08411614bc557926020929160ff608095604051948552168484015260408301526060820152600092839182805260015afa15614bb95780516001600160a01b03811615614bb057918190565b50809160019190565b604051903d90823e3d90fd5b5050506000916003919056fe9016d09d72d40fdae2fd8ceac6b6234c7706214fd39c1cd1e609a0528c19930044656c65676174696f6e4d616e616765722e5f636f6d706c657465517565756544656c65676174696f6e4d616e616765722e5f64656c65676174653a20617070c97098c2f658800b4df29001527f7324bcdffcf6e8751a699ab920a1eced5b1da264697066735822122092d266731b253da484e35ee1b13f20d487de4964d48f223168ac8a99c851add864736f6c63430008180033","linkReferences":{}},"methodIdentifiers":{"DELEGATION_APPROVAL_TYPEHASH()":"04a4f979","DOMAIN_TYPEHASH()":"20606b70","MAX_STAKER_OPT_OUT_WINDOW_BLOCKS()":"4fc40b61","MAX_WITHDRAWAL_DELAY_BLOCKS()":"ca661c04","STAKER_DELEGATION_TYPEHASH()":"43377382","calculateCurrentStakerDelegationDigestHash(address,address,uint256)":"1bbce091","calculateDelegationApprovalDigestHash(address,address,address,bytes32,uint256)":"0b9f487a","calculateStakerDelegationDigestHash(address,uint256,address,uint256)":"c94b5111","calculateWithdrawalRoot((address,address,address,uint256,uint32,address[],uint256[]))":"597b36da","completeQueuedWithdrawal((address,address,address,uint256,uint32,address[],uint256[]),address,uint256,bool)":"6f8c9884","completeQueuedWithdrawals((address,address,address,uint256,uint32,address[],uint256[])[],address,uint256[],bool[])":"e92ae726","cumulativeWithdrawalsQueued(address)":"a1788484","decreaseDelegatedShares(address,address,uint256)":"132d4967","delegateTo(address,(bytes,uint256),bytes32)":"eea9064b","delegateToBySignature(address,address,(bytes,uint256),(bytes,uint256),bytes32)":"7f548071","delegatedTo(address)":"65da1264","delegationApprover(address)":"3cdeb5e0","delegationApproverSaltIsSpent(address,bytes32)":"bb45fef2","domainSeparator()":"f698da25","earningsReceiver(address)":"5f966f14","getDelegatableShares(address)":"cf80873e","getOperatorShares(address,address[])":"90041347","getWithdrawalDelay(address[])":"0449ca39","increaseDelegatedShares(address,address,uint256)":"28a573ae","initialize(address,uint256,address[],uint256[],address,address,address)":"5ce4c761","isDelegated(address)":"3e28391d","isOperator(address)":"6d70f7ae","migrateQueuedWithdrawals((address[],uint256[],address,(address,uint96),uint32,address)[])":"5cfe8d2c","minWithdrawalDelayBlocks()":"c448feb8","modifyOperatorDetails((address,address,uint32,uint8))":"30d0377b","operatorDetails(address)":"c5e480db","operatorShares(address,address)":"778e55f3","owner()":"8da5cb5b","pauser()":"9fd0506d","pendingWithdrawals(bytes32)":"b7f06ebe","queueWithdrawals((address[],uint256[],address)[])":"0dd8dd02","registerAsOperator((address,address,uint32,uint8),string)":"11674578","renounceOwnership()":"715018a6","setMinWithdrawalDelayBlocks(uint256)":"635bbd10","setStrategyWithdrawalDelayBlocks(address[],uint256[])":"1522bf02","slasher()":"b1344271","stakerNonce(address)":"29c77d4f","stakerOptOutWindowBlocks(address)":"16928365","strategyManager()":"39b70e38","strategyWithdrawalDelayBlocks(address)":"c488375a","transferOwnership(address)":"f2fde38b","undelegate(address)":"da8be864","updateOperatorNodeUrl(string)":"1c8392d7"},"id":63}