{"abi":[{"type":"constructor","inputs":[{"name":"minDelay","type":"uint256","internalType":"uint256"},{"name":"proposers","type":"address[]","internalType":"address[]"},{"name":"executors","type":"address[]","internalType":"address[]"},{"name":"admin","type":"address","internalType":"address"}],"stateMutability":"nonpayable"},{"type":"receive","stateMutability":"payable"},{"type":"function","name":"CANCELLER_ROLE","inputs":[],"outputs":[{"name":"","type":"bytes32","internalType":"bytes32"}],"stateMutability":"view"},{"type":"function","name":"DEFAULT_ADMIN_ROLE","inputs":[],"outputs":[{"name":"","type":"bytes32","internalType":"bytes32"}],"stateMutability":"view"},{"type":"function","name":"EXECUTOR_ROLE","inputs":[],"outputs":[{"name":"","type":"bytes32","internalType":"bytes32"}],"stateMutability":"view"},{"type":"function","name":"PROPOSER_ROLE","inputs":[],"outputs":[{"name":"","type":"bytes32","internalType":"bytes32"}],"stateMutability":"view"},{"type":"function","name":"cancel","inputs":[{"name":"id","type":"bytes32","internalType":"bytes32"}],"outputs":[],"stateMutability":"nonpayable"},{"type":"function","name":"execute","inputs":[{"name":"target","type":"address","internalType":"address"},{"name":"value","type":"uint256","internalType":"uint256"},{"name":"payload","type":"bytes","internalType":"bytes"},{"name":"predecessor","type":"bytes32","internalType":"bytes32"},{"name":"salt","type":"bytes32","internalType":"bytes32"}],"outputs":[],"stateMutability":"payable"},{"type":"function","name":"executeBatch","inputs":[{"name":"targets","type":"address[]","internalType":"address[]"},{"name":"values","type":"uint256[]","internalType":"uint256[]"},{"name":"payloads","type":"bytes[]","internalType":"bytes[]"},{"name":"predecessor","type":"bytes32","internalType":"bytes32"},{"name":"salt","type":"bytes32","internalType":"bytes32"}],"outputs":[],"stateMutability":"payable"},{"type":"function","name":"getMinDelay","inputs":[],"outputs":[{"name":"","type":"uint256","internalType":"uint256"}],"stateMutability":"view"},{"type":"function","name":"getOperationState","inputs":[{"name":"id","type":"bytes32","internalType":"bytes32"}],"outputs":[{"name":"","type":"uint8","internalType":"enum TimelockController.OperationState"}],"stateMutability":"view"},{"type":"function","name":"getRoleAdmin","inputs":[{"name":"role","type":"bytes32","internalType":"bytes32"}],"outputs":[{"name":"","type":"bytes32","internalType":"bytes32"}],"stateMutability":"view"},{"type":"function","name":"getTimestamp","inputs":[{"name":"id","type":"bytes32","internalType":"bytes32"}],"outputs":[{"name":"","type":"uint256","internalType":"uint256"}],"stateMutability":"view"},{"type":"function","name":"grantRole","inputs":[{"name":"role","type":"bytes32","internalType":"bytes32"},{"name":"account","type":"address","internalType":"address"}],"outputs":[],"stateMutability":"nonpayable"},{"type":"function","name":"hasRole","inputs":[{"name":"role","type":"bytes32","internalType":"bytes32"},{"name":"account","type":"address","internalType":"address"}],"outputs":[{"name":"","type":"bool","internalType":"bool"}],"stateMutability":"view"},{"type":"function","name":"hashOperation","inputs":[{"name":"target","type":"address","internalType":"address"},{"name":"value","type":"uint256","internalType":"uint256"},{"name":"data","type":"bytes","internalType":"bytes"},{"name":"predecessor","type":"bytes32","internalType":"bytes32"},{"name":"salt","type":"bytes32","internalType":"bytes32"}],"outputs":[{"name":"","type":"bytes32","internalType":"bytes32"}],"stateMutability":"pure"},{"type":"function","name":"hashOperationBatch","inputs":[{"name":"targets","type":"address[]","internalType":"address[]"},{"name":"values","type":"uint256[]","internalType":"uint256[]"},{"name":"payloads","type":"bytes[]","internalType":"bytes[]"},{"name":"predecessor","type":"bytes32","internalType":"bytes32"},{"name":"salt","type":"bytes32","internalType":"bytes32"}],"outputs":[{"name":"","type":"bytes32","internalType":"bytes32"}],"stateMutability":"pure"},{"type":"function","name":"isOperation","inputs":[{"name":"id","type":"bytes32","internalType":"bytes32"}],"outputs":[{"name":"","type":"bool","internalType":"bool"}],"stateMutability":"view"},{"type":"function","name":"isOperationDone","inputs":[{"name":"id","type":"bytes32","internalType":"bytes32"}],"outputs":[{"name":"","type":"bool","internalType":"bool"}],"stateMutability":"view"},{"type":"function","name":"isOperationPending","inputs":[{"name":"id","type":"bytes32","internalType":"bytes32"}],"outputs":[{"name":"","type":"bool","internalType":"bool"}],"stateMutability":"view"},{"type":"function","name":"isOperationReady","inputs":[{"name":"id","type":"bytes32","internalType":"bytes32"}],"outputs":[{"name":"","type":"bool","internalType":"bool"}],"stateMutability":"view"},{"type":"function","name":"onERC1155BatchReceived","inputs":[{"name":"","type":"address","internalType":"address"},{"name":"","type":"address","internalType":"address"},{"name":"","type":"uint256[]","internalType":"uint256[]"},{"name":"","type":"uint256[]","internalType":"uint256[]"},{"name":"","type":"bytes","internalType":"bytes"}],"outputs":[{"name":"","type":"bytes4","internalType":"bytes4"}],"stateMutability":"nonpayable"},{"type":"function","name":"onERC1155Received","inputs":[{"name":"","type":"address","internalType":"address"},{"name":"","type":"address","internalType":"address"},{"name":"","type":"uint256","internalType":"uint256"},{"name":"","type":"uint256","internalType":"uint256"},{"name":"","type":"bytes","internalType":"bytes"}],"outputs":[{"name":"","type":"bytes4","internalType":"bytes4"}],"stateMutability":"nonpayable"},{"type":"function","name":"onERC721Received","inputs":[{"name":"","type":"address","internalType":"address"},{"name":"","type":"address","internalType":"address"},{"name":"","type":"uint256","internalType":"uint256"},{"name":"","type":"bytes","internalType":"bytes"}],"outputs":[{"name":"","type":"bytes4","internalType":"bytes4"}],"stateMutability":"nonpayable"},{"type":"function","name":"renounceRole","inputs":[{"name":"role","type":"bytes32","internalType":"bytes32"},{"name":"callerConfirmation","type":"address","internalType":"address"}],"outputs":[],"stateMutability":"nonpayable"},{"type":"function","name":"revokeRole","inputs":[{"name":"role","type":"bytes32","internalType":"bytes32"},{"name":"account","type":"address","internalType":"address"}],"outputs":[],"stateMutability":"nonpayable"},{"type":"function","name":"schedule","inputs":[{"name":"target","type":"address","internalType":"address"},{"name":"value","type":"uint256","internalType":"uint256"},{"name":"data","type":"bytes","internalType":"bytes"},{"name":"predecessor","type":"bytes32","internalType":"bytes32"},{"name":"salt","type":"bytes32","internalType":"bytes32"},{"name":"delay","type":"uint256","internalType":"uint256"}],"outputs":[],"stateMutability":"nonpayable"},{"type":"function","name":"scheduleBatch","inputs":[{"name":"targets","type":"address[]","internalType":"address[]"},{"name":"values","type":"uint256[]","internalType":"uint256[]"},{"name":"payloads","type":"bytes[]","internalType":"bytes[]"},{"name":"predecessor","type":"bytes32","internalType":"bytes32"},{"name":"salt","type":"bytes32","internalType":"bytes32"},{"name":"delay","type":"uint256","internalType":"uint256"}],"outputs":[],"stateMutability":"nonpayable"},{"type":"function","name":"setRelayer","inputs":[{"name":"pool","type":"address","internalType":"address"},{"name":"_relayer","type":"address","internalType":"address"}],"outputs":[],"stateMutability":"nonpayable"},{"type":"function","name":"setRoleAdmin","inputs":[{"name":"role","type":"bytes32","internalType":"bytes32"},{"name":"adminRole","type":"bytes32","internalType":"bytes32"}],"outputs":[],"stateMutability":"nonpayable"},{"type":"function","name":"supportsInterface","inputs":[{"name":"interfaceId","type":"bytes4","internalType":"bytes4"}],"outputs":[{"name":"","type":"bool","internalType":"bool"}],"stateMutability":"view"},{"type":"function","name":"updateDelay","inputs":[{"name":"newDelay","type":"uint256","internalType":"uint256"}],"outputs":[],"stateMutability":"nonpayable"},{"type":"event","name":"CallExecuted","inputs":[{"name":"id","type":"bytes32","indexed":true,"internalType":"bytes32"},{"name":"index","type":"uint256","indexed":true,"internalType":"uint256"},{"name":"target","type":"address","indexed":false,"internalType":"address"},{"name":"value","type":"uint256","indexed":false,"internalType":"uint256"},{"name":"data","type":"bytes","indexed":false,"internalType":"bytes"}],"anonymous":false},{"type":"event","name":"CallSalt","inputs":[{"name":"id","type":"bytes32","indexed":true,"internalType":"bytes32"},{"name":"salt","type":"bytes32","indexed":false,"internalType":"bytes32"}],"anonymous":false},{"type":"event","name":"CallScheduled","inputs":[{"name":"id","type":"bytes32","indexed":true,"internalType":"bytes32"},{"name":"index","type":"uint256","indexed":true,"internalType":"uint256"},{"name":"target","type":"address","indexed":false,"internalType":"address"},{"name":"value","type":"uint256","indexed":false,"internalType":"uint256"},{"name":"data","type":"bytes","indexed":false,"internalType":"bytes"},{"name":"predecessor","type":"bytes32","indexed":false,"internalType":"bytes32"},{"name":"delay","type":"uint256","indexed":false,"internalType":"uint256"}],"anonymous":false},{"type":"event","name":"Cancelled","inputs":[{"name":"id","type":"bytes32","indexed":true,"internalType":"bytes32"}],"anonymous":false},{"type":"event","name":"MinDelayChange","inputs":[{"name":"oldDuration","type":"uint256","indexed":false,"internalType":"uint256"},{"name":"newDuration","type":"uint256","indexed":false,"internalType":"uint256"}],"anonymous":false},{"type":"event","name":"RoleAdminChanged","inputs":[{"name":"role","type":"bytes32","indexed":true,"internalType":"bytes32"},{"name":"previousAdminRole","type":"bytes32","indexed":true,"internalType":"bytes32"},{"name":"newAdminRole","type":"bytes32","indexed":true,"internalType":"bytes32"}],"anonymous":false},{"type":"event","name":"RoleGranted","inputs":[{"name":"role","type":"bytes32","indexed":true,"internalType":"bytes32"},{"name":"account","type":"address","indexed":true,"internalType":"address"},{"name":"sender","type":"address","indexed":true,"internalType":"address"}],"anonymous":false},{"type":"event","name":"RoleRevoked","inputs":[{"name":"role","type":"bytes32","indexed":true,"internalType":"bytes32"},{"name":"account","type":"address","indexed":true,"internalType":"address"},{"name":"sender","type":"address","indexed":true,"internalType":"address"}],"anonymous":false},{"type":"error","name":"AccessControlBadConfirmation","inputs":[]},{"type":"error","name":"AccessControlUnauthorizedAccount","inputs":[{"name":"account","type":"address","internalType":"address"},{"name":"neededRole","type":"bytes32","internalType":"bytes32"}]},{"type":"error","name":"FailedInnerCall","inputs":[]},{"type":"error","name":"TimelockInsufficientDelay","inputs":[{"name":"delay","type":"uint256","internalType":"uint256"},{"name":"minDelay","type":"uint256","internalType":"uint256"}]},{"type":"error","name":"TimelockInvalidOperationLength","inputs":[{"name":"targets","type":"uint256","internalType":"uint256"},{"name":"payloads","type":"uint256","internalType":"uint256"},{"name":"values","type":"uint256","internalType":"uint256"}]},{"type":"error","name":"TimelockUnauthorizedCaller","inputs":[{"name":"caller","type":"address","internalType":"address"}]},{"type":"error","name":"TimelockUnexecutedPredecessor","inputs":[{"name":"predecessorId","type":"bytes32","internalType":"bytes32"}]},{"type":"error","name":"TimelockUnexpectedOperationState","inputs":[{"name":"operationId","type":"bytes32","internalType":"bytes32"},{"name":"expectedStates","type":"bytes32","internalType":"bytes32"}]}],"bytecode":{"object":"0x608060405234620001755762001bb5803803806200001d816200017a565b9283398101906080818303126200017557805160208201516001600160401b039081811162000175578462000054918501620001cb565b9360408401519182116200017557620000766060916200007e938601620001cb565b9301620001b6565b906200008a3062000269565b506001600160a01b039180831662000162575b5060005b8451811015620000e95780620000c784620000bf600194896200023e565b5116620002e9565b50620000e184620000d983896200023e565b51166200038b565b5001620000a1565b50925060005b82518110156200011d578062000115836200010d600194876200023e565b511662000428565b5001620000ef565b7f11c24f4ead16507c69ac467fbd5e4eed5fb5c699626d2cc6d66421df253886d560408580600255815190600082526020820152a16040516116cf9081620004c68239f35b6200016d9062000269565b50386200009d565b600080fd5b6040519190601f01601f191682016001600160401b03811183821017620001a057604052565b634e487b7160e01b600052604160045260246000fd5b51906001600160a01b03821682036200017557565b81601f8201121562000175578051916020916001600160401b038411620001a0578360051b908380620002008185016200017a565b80978152019282010192831162000175578301905b82821062000224575050505090565b8380916200023284620001b6565b81520191019062000215565b8051821015620002535760209160051b010190565b634e487b7160e01b600052603260045260246000fd5b6001600160a01b031660008181527fad3228b676f7d3cd4284a5443f17f1962b36e491b30a40b2405849e597ba5fb5602052604081205490919060ff16620002e557818052816020526040822081835260205260408220600160ff19825416179055339160008051602062001b958339815191528180a4600190565b5090565b6001600160a01b031660008181527f3412d5605ac6cd444957cedb533e5dacad6378b4bc819ebe3652188a665066d560205260408120549091907fb09aa5aeb3702cfd50b6b62bc4532604938f21248a27a1d5ca736082b6819cc19060ff166200038657808352826020526040832082845260205260408320600160ff1982541617905560008051602062001b95833981519152339380a4600190565b505090565b6001600160a01b031660008181527fc3ad33e20b0c56a223ad5104fff154aa010f8715b9c981fd38fdc60a4d1a52fb60205260408120549091907ffd643c72710c63c0180259aba6b2d05451e3591a24e58b62239378085726f7839060ff166200038657808352826020526040832082845260205260408320600160ff1982541617905560008051602062001b95833981519152339380a4600190565b6001600160a01b031660008181527fdae2aa361dfd1ca020a396615627d436107c35eff9fe7738a3512819782d706960205260408120549091907fd8aa0f3194971a2a116679f7c2090f6939c8d4e01a2a8d7e41d55e5351469e639060ff166200038657808352826020526040832082845260205260408320600160ff1982541617905560008051602062001b95833981519152339380a460019056fe60406080815260049081361015610020575b5050361561001e57600080fd5b005b600091823560e01c90816301d5062a14610c4557816301ffc9a714610bd257816307bd026514610ba957838263134008d314610aff5750816313bc9f2014610adf578163150b7a0214610a8a5781631e4e009114610a31578163248a9ca314610a075781632ab0f529146109e75781632f2ff15d146109bd57816331d507501461099d57816336568abe14610957578163584b153e1461092e57816364d62353146108c257816369d775a4146107fc5781637958004c146107b95781638065657f146107975781638f2a0bb0146105f75781638f61f4f5146105bc57816391d1485414610577578163a217fddf1461055c578163b08e51c014610521578163b1c5f427146104f5578163bc197c811461046f578163c4d252f51461039b578163d45c443514610373578163d547741f1461032e578163e38335e5146101ee578163f23a6e6114610196575063f27a0c920361001157346101925781600319360112610192576020906002549051908152f35b5080fd5b8284346101eb5760a03660031901126101eb576101b1610d23565b506101ba610d3e565b50608435906001600160401b0382116101eb57506020926101dd91369101610e21565b505163f23a6e6160e01b8152f35b80fd5b90506101f936610e98565b90989495919392969760008051602061167a8339815191528b528a602052858b206000805260205260ff86600020541615610320575b838314801590610316575b6102e85750610252610259918a868a878b888f611171565b9889611480565b885b81811061026f578961026c8a61153b565b80f35b80808a7fc2617efa69bab66782fa219543714338489c4e9e178271560a91b82c3f612b588a8a6102df6102c78f988c6102c0828e6102ba8f60019f6102b59185916110f6565b61111c565b976110f6565b3595611130565b906102d4828287876114e6565b8d5194859485610fb8565b0390a30161025b565b85516001624fcdef60e01b031981529081019283526020830185905260408301849052918291506060010390fd5b508483141561023a565b610329336113b9565b61022f565b9190503461036f578060031936011261036f5761036b91356103666001610353610d3e565b938387528660205286200154339061144f565b6115d9565b5080f35b8280fd5b90503461036f57602036600319011261036f5760209282913581526001845220549051908152f35b9190503461036f57602036600319011261036f578135917ffd643c72710c63c0180259aba6b2d05451e3591a24e58b62239378085726f783806000526000602052826000203360005260205260ff8360002054161561045457506103fe8361103c565b156104385750829082825260016020528120557fbaa1eb22f2a492ba1a5fea61b8df4d27c6c8b5f3971e63bb58fa14ff72eedb708280a280f35b826044925191635ead8eb560e01b835282015260066024820152fd5b604492519163e2517d3f60e01b835233908301526024820152fd5b8284346101eb5760a03660031901126101eb5761048a610d23565b50610493610d3e565b506001600160401b0390604435828111610192576104b49036908601610ef9565b50606435828111610192576104cc9036908601610ef9565b506084359182116101eb57506020926104e791369101610e21565b505163bc197c8160e01b8152f35b5050346101925760209061051a61050b36610e98565b96959095949194939293611171565b9051908152f35b505034610192578160031936011261019257602090517ffd643c72710c63c0180259aba6b2d05451e3591a24e58b62239378085726f7838152f35b50503461019257816003193601126101925751908152602090f35b90503461036f578160031936011261036f5781602093610595610d3e565b92358152808552209060018060a01b0316600052825260ff81600020541690519015158152f35b505034610192578160031936011261019257602090517fb09aa5aeb3702cfd50b6b62bc4532604938f21248a27a1d5ca736082b6819cc18152f35b9190503461036f5760c036600319011261036f576001600160401b039082358281116107935761062a9036908501610e68565b9360243584811161078f576106429036908301610e68565b9460443590811161078b5761065a9036908401610e68565b606493919335906084359760a4359361067233611336565b818b14801590610781575b610753575061069389848489858f8b908e611171565b9961069e858c6112af565b8a8c5b8a8382106106e7578e838e83816106b6578380f35b7f20fda5fd27a1ea7bf5b9567f143ac5470bb059374a27e8f67cb44f946f6d03879160209151908152a28180808380f35b6001927f4cf4410cc57040e44862ef0f45f3dd5a5e02db8eb8add648d4b0e236f1d07dca8b8b6107488f8c88978f92898f8f8f610736916107306102b586809461073d996110f6565b9a6110f6565b3598611130565b915196879687610f80565b0390a3018b906106a1565b88516001624fcdef60e01b031981529081018b81526020810184905260408101929092529081906060010390fd5b50828b141561067d565b8780fd5b8680fd5b8480fd5b5050346101925760209061051a6107ad36610d81565b949390939291926110a1565b838334610192576020366003190112610192576107d68335611065565b905191838210156107e957602083838152f35b634e487b7160e01b815260218452602490fd5b9190503461036f578060031936011261036f57610817610d23565b9183610821610d3e565b9361082b3361140c565b6001600160a01b0390811694853b1561036f576044908386519788948593632f2ff15d60e01b85527f0685f9a33ecc8d58f6db2634bbe92aa174d2b8ca9e4e571760206f3509a84e00898601521660248401525af180156108b85761088e578380f35b6001600160401b0383116108a55750523880808380f35b634e487b7160e01b845260419052602483fd5b82513d86823e3d90fd5b9190503461036f57602036600319011261036f5781359130330361091857507f11c24f4ead16507c69ac467fbd5e4eed5fb5c699626d2cc6d66421df253886d5906002548151908152836020820152a160025580f35b602491519063e2850c5960e01b82523390820152fd5b8284346101eb5760203660031901126101eb575061094e6020923561103c565b90519015158152f35b838334610192578060031936011261019257610971610d3e565b90336001600160a01b0383160361098e575061036b9192356115d9565b5163334bd91960e11b81528390fd5b8284346101eb5760203660031901126101eb575061094e60209235611025565b9190503461036f578060031936011261036f5761036b91356109e26001610353610d3e565b61155b565b8284346101eb5760203660031901126101eb575061094e6020923561100d565b90503461036f57602036600319011261036f57816020936001923581528085522001549051908152f35b90503461036f578160031936011261036f5735600160243592610a533361140c565b828552846020528420019082825492557fbd79b86ffe0ab8e8776151514217cd7cacd52c909f66475c3af44e129f0b00ff8480a480f35b8284346101eb5760803660031901126101eb57610aa5610d23565b50610aae610d3e565b50606435906001600160401b0382116101eb5750602092610ad191369101610e21565b5051630a85bd0160e11b8152f35b8284346101eb5760203660031901126101eb575061094e60209235610fdf565b61026c610b7d82610b937fc2617efa69bab66782fa219543714338489c4e9e178271560a91b82c3f612b58610b7489610b3736610d81565b60008051602061167a8339815191528b9a9697939598929a528a602052828b208b805260205260ff838c20541615610b9b575b8985858a8a6110a1565b998a9889611480565b610b89838388886114e6565b5194859485610fb8565b0390a361153b565b610ba4336113b9565b610b6a565b5050346101925781600319360112610192576020905160008051602061167a8339815191528152f35b90503461036f57602036600319011261036f57359063ffffffff60e01b821680920361036f5760209250630271189760e51b8214918215610c17575b50519015158152f35b909150637965db0b60e01b8114908115610c34575b509038610c0e565b6301ffc9a760e01b14905038610c2c565b9190503461036f5760c036600319011261036f57610c61610d23565b90836024356044356001600160401b03811161036f577f4cf4410cc57040e44862ef0f45f3dd5a5e02db8eb8add648d4b0e236f1d07dca95610ca591369101610d54565b95909160643595610ce66084359760a43590610cc033611336565b610cce8a828d8a89896110a1565b9a8b97610cdb848a6112af565b8a5196879687610f80565b0390a381610cf2578380f35b7f20fda5fd27a1ea7bf5b9567f143ac5470bb059374a27e8f67cb44f946f6d03879160209151908152a23880808380f35b600435906001600160a01b0382168203610d3957565b600080fd5b602435906001600160a01b0382168203610d3957565b9181601f84011215610d39578235916001600160401b038311610d395760208381860195010111610d3957565b60a0600319820112610d39576004356001600160a01b0381168103610d39579160243591604435906001600160401b038211610d3957610dc391600401610d54565b90916064359060843590565b90601f801991011681019081106001600160401b03821117610df057604052565b634e487b7160e01b600052604160045260246000fd5b6001600160401b038111610df057601f01601f191660200190565b81601f82011215610d3957803590610e3882610e06565b92610e466040519485610dcf565b82845260208383010111610d3957816000926020809301838601378301015290565b9181601f84011215610d39578235916001600160401b038311610d39576020808501948460051b010111610d3957565b9060a0600319830112610d39576001600160401b03600435818111610d395783610ec491600401610e68565b93909392602435838111610d395782610edf91600401610e68565b93909392604435918211610d3957610dc391600401610e68565b81601f82011215610d39578035916020916001600160401b038411610df0578360051b9060405194610f2d85840187610dcf565b85528380860192820101928311610d39578301905b828210610f50575050505090565b81358152908301908301610f42565b908060209392818452848401376000828201840152601f01601f1916010190565b929093610fae926080959897969860018060a01b03168552602085015260a0604085015260a0840191610f5f565b9460608201520152565b610fdc949260609260018060a01b0316825260208201528160408201520191610f5f565b90565b610fe890611065565b6004811015610ff75760021490565b634e487b7160e01b600052602160045260246000fd5b61101690611065565b6004811015610ff75760031490565b61102e90611065565b6004811015610ff757151590565b61104590611065565b6004811015610ff7576001811490811561105d575090565b600291501490565b600052600160205260406000205480156000146110825750600090565b600181036110905750600390565b42101561109c57600190565b600290565b946110d76110f094959293604051968795602087019960018060a01b03168a52604087015260a0606087015260c0860191610f5f565b91608084015260a083015203601f198101835282610dcf565b51902090565b91908110156111065760051b0190565b634e487b7160e01b600052603260045260246000fd5b356001600160a01b0381168103610d395790565b91908110156111065760051b81013590601e1981360301821215610d395701908135916001600160401b038311610d39576020018236038113610d39579190565b969294909695919560405196602091828901998060c08b0160a08d525260e08a01919060005b81811061128757505050601f19898203810160408b0152888252976001600160fb1b038111610d39579089969495939897929160051b80928a830137019380888601878703606089015252604085019460408260051b82010195836000925b84841061121e575050505050506110f09550608084015260a083015203908101835282610dcf565b9193969850919398999496603f198282030184528935601e1984360301811215610d395783018681019190356001600160401b038111610d39578036038313610d395761127088928392600195610f5f565b9b0194019401918b98969394919a9997959a6111f6565b90919283359060018060a01b038216809203610d395790815285019285019190600101611197565b906112b982611025565b611316576002548082106112f857504201908142116112e2576000526001602052604060002055565b634e487b7160e01b600052601160045260246000fd5b6044925060405191635433660960e01b835260048301526024820152fd5b604051635ead8eb560e01b81526004810183905260016024820152604490fd5b6001600160a01b031660008181527f3412d5605ac6cd444957cedb533e5dacad6378b4bc819ebe3652188a665066d560205260409020547fb09aa5aeb3702cfd50b6b62bc4532604938f21248a27a1d5ca736082b6819cc19060ff161561139b575050565b604492506040519163e2517d3f60e01b835260048301526024820152fd5b6001600160a01b031660008181527fdae2aa361dfd1ca020a396615627d436107c35eff9fe7738a3512819782d7069602052604090205460008051602061167a8339815191529060ff161561139b575050565b6001600160a01b031660008181527fad3228b676f7d3cd4284a5443f17f1962b36e491b30a40b2405849e597ba5fb5602052604081205460ff161561139b575050565b80600052600060205260406000209160018060a01b0316918260005260205260ff604060002054161561139b575050565b61148981610fdf565b156114c75750801515806114b7575b61149f5750565b6024906040519063121534c360e31b82526004820152fd5b506114c18161100d565b15611498565b60449060405190635ead8eb560e01b8252600482015260046024820152fd5b61153093600093928493826040519384928337810185815203925af13d15611533573d9061151382610e06565b916115216040519384610dcf565b82523d6000602084013e61164e565b50565b60609061164e565b61154481610fdf565b156114c75760005260016020526001604060002055565b9060009180835282602052604083209160018060a01b03169182845260205260ff604084205416156000146115d457808352826020526040832082845260205260408320600160ff198254161790557f2f8788117e7eff1d82e926ec794901d17c78024a50270940304540a733656f0d339380a4600190565b505090565b9060009180835282602052604083209160018060a01b03169182845260205260ff6040842054166000146115d45780835282602052604083208284526020526040832060ff1981541690557ff6391f5c32d9c69d2a47ea670b442974b53935d1edc7fd64eb21e047a839171b339380a4600190565b909190611677575080511561166557805190602001fd5b604051630a12f52160e11b8152600490fd5b56fed8aa0f3194971a2a116679f7c2090f6939c8d4e01a2a8d7e41d55e5351469e63a264697066735822122069abb814fde353accf051663d2dec2d9f2fc21476860f0e5466be67bfdec4ae564736f6c634300081800332f8788117e7eff1d82e926ec794901d17c78024a50270940304540a733656f0d","linkReferences":{}},"methodIdentifiers":{"CANCELLER_ROLE()":"b08e51c0","DEFAULT_ADMIN_ROLE()":"a217fddf","EXECUTOR_ROLE()":"07bd0265","PROPOSER_ROLE()":"8f61f4f5","cancel(bytes32)":"c4d252f5","execute(address,uint256,bytes,bytes32,bytes32)":"134008d3","executeBatch(address[],uint256[],bytes[],bytes32,bytes32)":"e38335e5","getMinDelay()":"f27a0c92","getOperationState(bytes32)":"7958004c","getRoleAdmin(bytes32)":"248a9ca3","getTimestamp(bytes32)":"d45c4435","grantRole(bytes32,address)":"2f2ff15d","hasRole(bytes32,address)":"91d14854","hashOperation(address,uint256,bytes,bytes32,bytes32)":"8065657f","hashOperationBatch(address[],uint256[],bytes[],bytes32,bytes32)":"b1c5f427","isOperation(bytes32)":"31d50750","isOperationDone(bytes32)":"2ab0f529","isOperationPending(bytes32)":"584b153e","isOperationReady(bytes32)":"13bc9f20","onERC1155BatchReceived(address,address,uint256[],uint256[],bytes)":"bc197c81","onERC1155Received(address,address,uint256,uint256,bytes)":"f23a6e61","onERC721Received(address,address,uint256,bytes)":"150b7a02","renounceRole(bytes32,address)":"36568abe","revokeRole(bytes32,address)":"d547741f","schedule(address,uint256,bytes,bytes32,bytes32,uint256)":"01d5062a","scheduleBatch(address[],uint256[],bytes[],bytes32,bytes32,uint256)":"8f2a0bb0","setRelayer(address,address)":"69d775a4","setRoleAdmin(bytes32,bytes32)":"1e4e0091","supportsInterface(bytes4)":"01ffc9a7","updateDelay(uint256)":"64d62353"},"id":111}