{"abi":[{"type":"constructor","inputs":[{"name":"minDelay","type":"uint256","internalType":"uint256"},{"name":"proposers","type":"address[]","internalType":"address[]"},{"name":"executors","type":"address[]","internalType":"address[]"},{"name":"admin","type":"address","internalType":"address"}],"stateMutability":"nonpayable"},{"type":"receive","stateMutability":"payable"},{"type":"function","name":"CANCELLER_ROLE","inputs":[],"outputs":[{"name":"","type":"bytes32","internalType":"bytes32"}],"stateMutability":"view"},{"type":"function","name":"DEFAULT_ADMIN_ROLE","inputs":[],"outputs":[{"name":"","type":"bytes32","internalType":"bytes32"}],"stateMutability":"view"},{"type":"function","name":"EXECUTOR_ROLE","inputs":[],"outputs":[{"name":"","type":"bytes32","internalType":"bytes32"}],"stateMutability":"view"},{"type":"function","name":"PROPOSER_ROLE","inputs":[],"outputs":[{"name":"","type":"bytes32","internalType":"bytes32"}],"stateMutability":"view"},{"type":"function","name":"cancel","inputs":[{"name":"id","type":"bytes32","internalType":"bytes32"}],"outputs":[],"stateMutability":"nonpayable"},{"type":"function","name":"execute","inputs":[{"name":"target","type":"address","internalType":"address"},{"name":"value","type":"uint256","internalType":"uint256"},{"name":"payload","type":"bytes","internalType":"bytes"},{"name":"predecessor","type":"bytes32","internalType":"bytes32"},{"name":"salt","type":"bytes32","internalType":"bytes32"}],"outputs":[],"stateMutability":"payable"},{"type":"function","name":"executeBatch","inputs":[{"name":"targets","type":"address[]","internalType":"address[]"},{"name":"values","type":"uint256[]","internalType":"uint256[]"},{"name":"payloads","type":"bytes[]","internalType":"bytes[]"},{"name":"predecessor","type":"bytes32","internalType":"bytes32"},{"name":"salt","type":"bytes32","internalType":"bytes32"}],"outputs":[],"stateMutability":"payable"},{"type":"function","name":"getMinDelay","inputs":[],"outputs":[{"name":"","type":"uint256","internalType":"uint256"}],"stateMutability":"view"},{"type":"function","name":"getOperationState","inputs":[{"name":"id","type":"bytes32","internalType":"bytes32"}],"outputs":[{"name":"","type":"uint8","internalType":"enum TimelockController.OperationState"}],"stateMutability":"view"},{"type":"function","name":"getRoleAdmin","inputs":[{"name":"role","type":"bytes32","internalType":"bytes32"}],"outputs":[{"name":"","type":"bytes32","internalType":"bytes32"}],"stateMutability":"view"},{"type":"function","name":"getTimestamp","inputs":[{"name":"id","type":"bytes32","internalType":"bytes32"}],"outputs":[{"name":"","type":"uint256","internalType":"uint256"}],"stateMutability":"view"},{"type":"function","name":"grantRole","inputs":[{"name":"role","type":"bytes32","internalType":"bytes32"},{"name":"account","type":"address","internalType":"address"}],"outputs":[],"stateMutability":"nonpayable"},{"type":"function","name":"hasRole","inputs":[{"name":"role","type":"bytes32","internalType":"bytes32"},{"name":"account","type":"address","internalType":"address"}],"outputs":[{"name":"","type":"bool","internalType":"bool"}],"stateMutability":"view"},{"type":"function","name":"hashOperation","inputs":[{"name":"target","type":"address","internalType":"address"},{"name":"value","type":"uint256","internalType":"uint256"},{"name":"data","type":"bytes","internalType":"bytes"},{"name":"predecessor","type":"bytes32","internalType":"bytes32"},{"name":"salt","type":"bytes32","internalType":"bytes32"}],"outputs":[{"name":"","type":"bytes32","internalType":"bytes32"}],"stateMutability":"pure"},{"type":"function","name":"hashOperationBatch","inputs":[{"name":"targets","type":"address[]","internalType":"address[]"},{"name":"values","type":"uint256[]","internalType":"uint256[]"},{"name":"payloads","type":"bytes[]","internalType":"bytes[]"},{"name":"predecessor","type":"bytes32","internalType":"bytes32"},{"name":"salt","type":"bytes32","internalType":"bytes32"}],"outputs":[{"name":"","type":"bytes32","internalType":"bytes32"}],"stateMutability":"pure"},{"type":"function","name":"isOperation","inputs":[{"name":"id","type":"bytes32","internalType":"bytes32"}],"outputs":[{"name":"","type":"bool","internalType":"bool"}],"stateMutability":"view"},{"type":"function","name":"isOperationDone","inputs":[{"name":"id","type":"bytes32","internalType":"bytes32"}],"outputs":[{"name":"","type":"bool","internalType":"bool"}],"stateMutability":"view"},{"type":"function","name":"isOperationPending","inputs":[{"name":"id","type":"bytes32","internalType":"bytes32"}],"outputs":[{"name":"","type":"bool","internalType":"bool"}],"stateMutability":"view"},{"type":"function","name":"isOperationReady","inputs":[{"name":"id","type":"bytes32","internalType":"bytes32"}],"outputs":[{"name":"","type":"bool","internalType":"bool"}],"stateMutability":"view"},{"type":"function","name":"onERC1155BatchReceived","inputs":[{"name":"","type":"address","internalType":"address"},{"name":"","type":"address","internalType":"address"},{"name":"","type":"uint256[]","internalType":"uint256[]"},{"name":"","type":"uint256[]","internalType":"uint256[]"},{"name":"","type":"bytes","internalType":"bytes"}],"outputs":[{"name":"","type":"bytes4","internalType":"bytes4"}],"stateMutability":"nonpayable"},{"type":"function","name":"onERC1155Received","inputs":[{"name":"","type":"address","internalType":"address"},{"name":"","type":"address","internalType":"address"},{"name":"","type":"uint256","internalType":"uint256"},{"name":"","type":"uint256","internalType":"uint256"},{"name":"","type":"bytes","internalType":"bytes"}],"outputs":[{"name":"","type":"bytes4","internalType":"bytes4"}],"stateMutability":"nonpayable"},{"type":"function","name":"onERC721Received","inputs":[{"name":"","type":"address","internalType":"address"},{"name":"","type":"address","internalType":"address"},{"name":"","type":"uint256","internalType":"uint256"},{"name":"","type":"bytes","internalType":"bytes"}],"outputs":[{"name":"","type":"bytes4","internalType":"bytes4"}],"stateMutability":"nonpayable"},{"type":"function","name":"renounceRole","inputs":[{"name":"role","type":"bytes32","internalType":"bytes32"},{"name":"callerConfirmation","type":"address","internalType":"address"}],"outputs":[],"stateMutability":"nonpayable"},{"type":"function","name":"revokeRole","inputs":[{"name":"role","type":"bytes32","internalType":"bytes32"},{"name":"account","type":"address","internalType":"address"}],"outputs":[],"stateMutability":"nonpayable"},{"type":"function","name":"schedule","inputs":[{"name":"target","type":"address","internalType":"address"},{"name":"value","type":"uint256","internalType":"uint256"},{"name":"data","type":"bytes","internalType":"bytes"},{"name":"predecessor","type":"bytes32","internalType":"bytes32"},{"name":"salt","type":"bytes32","internalType":"bytes32"},{"name":"delay","type":"uint256","internalType":"uint256"}],"outputs":[],"stateMutability":"nonpayable"},{"type":"function","name":"scheduleBatch","inputs":[{"name":"targets","type":"address[]","internalType":"address[]"},{"name":"values","type":"uint256[]","internalType":"uint256[]"},{"name":"payloads","type":"bytes[]","internalType":"bytes[]"},{"name":"predecessor","type":"bytes32","internalType":"bytes32"},{"name":"salt","type":"bytes32","internalType":"bytes32"},{"name":"delay","type":"uint256","internalType":"uint256"}],"outputs":[],"stateMutability":"nonpayable"},{"type":"function","name":"setRelayer","inputs":[{"name":"pool","type":"address","internalType":"address"},{"name":"_relayer","type":"address","internalType":"address"}],"outputs":[],"stateMutability":"nonpayable"},{"type":"function","name":"setRoleAdmin","inputs":[{"name":"role","type":"bytes32","internalType":"bytes32"},{"name":"adminRole","type":"bytes32","internalType":"bytes32"}],"outputs":[],"stateMutability":"nonpayable"},{"type":"function","name":"supportsInterface","inputs":[{"name":"interfaceId","type":"bytes4","internalType":"bytes4"}],"outputs":[{"name":"","type":"bool","internalType":"bool"}],"stateMutability":"view"},{"type":"function","name":"updateDelay","inputs":[{"name":"newDelay","type":"uint256","internalType":"uint256"}],"outputs":[],"stateMutability":"nonpayable"},{"type":"event","name":"CallExecuted","inputs":[{"name":"id","type":"bytes32","indexed":true,"internalType":"bytes32"},{"name":"index","type":"uint256","indexed":true,"internalType":"uint256"},{"name":"target","type":"address","indexed":false,"internalType":"address"},{"name":"value","type":"uint256","indexed":false,"internalType":"uint256"},{"name":"data","type":"bytes","indexed":false,"internalType":"bytes"}],"anonymous":false},{"type":"event","name":"CallSalt","inputs":[{"name":"id","type":"bytes32","indexed":true,"internalType":"bytes32"},{"name":"salt","type":"bytes32","indexed":false,"internalType":"bytes32"}],"anonymous":false},{"type":"event","name":"CallScheduled","inputs":[{"name":"id","type":"bytes32","indexed":true,"internalType":"bytes32"},{"name":"index","type":"uint256","indexed":true,"internalType":"uint256"},{"name":"target","type":"address","indexed":false,"internalType":"address"},{"name":"value","type":"uint256","indexed":false,"internalType":"uint256"},{"name":"data","type":"bytes","indexed":false,"internalType":"bytes"},{"name":"predecessor","type":"bytes32","indexed":false,"internalType":"bytes32"},{"name":"delay","type":"uint256","indexed":false,"internalType":"uint256"}],"anonymous":false},{"type":"event","name":"Cancelled","inputs":[{"name":"id","type":"bytes32","indexed":true,"internalType":"bytes32"}],"anonymous":false},{"type":"event","name":"MinDelayChange","inputs":[{"name":"oldDuration","type":"uint256","indexed":false,"internalType":"uint256"},{"name":"newDuration","type":"uint256","indexed":false,"internalType":"uint256"}],"anonymous":false},{"type":"event","name":"RoleAdminChanged","inputs":[{"name":"role","type":"bytes32","indexed":true,"internalType":"bytes32"},{"name":"previousAdminRole","type":"bytes32","indexed":true,"internalType":"bytes32"},{"name":"newAdminRole","type":"bytes32","indexed":true,"internalType":"bytes32"}],"anonymous":false},{"type":"event","name":"RoleGranted","inputs":[{"name":"role","type":"bytes32","indexed":true,"internalType":"bytes32"},{"name":"account","type":"address","indexed":true,"internalType":"address"},{"name":"sender","type":"address","indexed":true,"internalType":"address"}],"anonymous":false},{"type":"event","name":"RoleRevoked","inputs":[{"name":"role","type":"bytes32","indexed":true,"internalType":"bytes32"},{"name":"account","type":"address","indexed":true,"internalType":"address"},{"name":"sender","type":"address","indexed":true,"internalType":"address"}],"anonymous":false},{"type":"error","name":"AccessControlBadConfirmation","inputs":[]},{"type":"error","name":"AccessControlUnauthorizedAccount","inputs":[{"name":"account","type":"address","internalType":"address"},{"name":"neededRole","type":"bytes32","internalType":"bytes32"}]},{"type":"error","name":"FailedInnerCall","inputs":[]},{"type":"error","name":"TimelockInsufficientDelay","inputs":[{"name":"delay","type":"uint256","internalType":"uint256"},{"name":"minDelay","type":"uint256","internalType":"uint256"}]},{"type":"error","name":"TimelockInvalidOperationLength","inputs":[{"name":"targets","type":"uint256","internalType":"uint256"},{"name":"payloads","type":"uint256","internalType":"uint256"},{"name":"values","type":"uint256","internalType":"uint256"}]},{"type":"error","name":"TimelockUnauthorizedCaller","inputs":[{"name":"caller","type":"address","internalType":"address"}]},{"type":"error","name":"TimelockUnexecutedPredecessor","inputs":[{"name":"predecessorId","type":"bytes32","internalType":"bytes32"}]},{"type":"error","name":"TimelockUnexpectedOperationState","inputs":[{"name":"operationId","type":"bytes32","internalType":"bytes32"},{"name":"expectedStates","type":"bytes32","internalType":"bytes32"}]}],"bytecode":{"object":"0x60806040523480156200001157600080fd5b5060405162001fa638038062001fa6833981016040819052620000349162000337565b8383838362000045600030620001a5565b506001600160a01b03811615620000655762000063600082620001a5565b505b60005b83518110156200010557620000c07fb09aa5aeb3702cfd50b6b62bc4532604938f21248a27a1d5ca736082b6819cc1858381518110620000ac57620000ac620003be565b6020026020010151620001a560201b60201c565b50620000fb7ffd643c72710c63c0180259aba6b2d05451e3591a24e58b62239378085726f783858381518110620000ac57620000ac620003be565b5060010162000068565b5060005b825181101562000157576200014d7fd8aa0f3194971a2a116679f7c2090f6939c8d4e01a2a8d7e41d55e5351469e63848381518110620000ac57620000ac620003be565b5060010162000109565b5060028490556040805160008152602081018690527f11c24f4ead16507c69ac467fbd5e4eed5fb5c699626d2cc6d66421df253886d5910160405180910390a15050505050505050620003d4565b6000828152602081815260408083206001600160a01b038516845290915281205460ff166200024a576000838152602081815260408083206001600160a01b03861684529091529020805460ff19166001179055620002013390565b6001600160a01b0316826001600160a01b0316847f2f8788117e7eff1d82e926ec794901d17c78024a50270940304540a733656f0d60405160405180910390a45060016200024e565b5060005b92915050565b634e487b7160e01b600052604160045260246000fd5b80516001600160a01b03811681146200028257600080fd5b919050565b600082601f8301126200029957600080fd5b815160206001600160401b0380831115620002b857620002b862000254565b8260051b604051601f19603f83011681018181108482111715620002e057620002e062000254565b60405293845260208187018101949081019250878511156200030157600080fd5b6020870191505b848210156200032c576200031c826200026a565b8352918301919083019062000308565b979650505050505050565b600080600080608085870312156200034e57600080fd5b845160208601519094506001600160401b03808211156200036e57600080fd5b6200037c8883890162000287565b945060408701519150808211156200039357600080fd5b50620003a28782880162000287565b925050620003b3606086016200026a565b905092959194509250565b634e487b7160e01b600052603260045260246000fd5b611bc280620003e46000396000f3fe6080604052600436106101d15760003560e01c80637958004c116100f7578063b1c5f42711610095578063d547741f11610064578063d547741f146105c0578063e38335e5146105e0578063f23a6e61146105f3578063f27a0c921461061f57600080fd5b8063b1c5f42714610527578063bc197c8114610547578063c4d252f514610573578063d45c44351461059357600080fd5b80638f61f4f5116100d15780638f61f4f51461048a57806391d14854146104be578063a217fddf146104de578063b08e51c0146104f357600080fd5b80637958004c1461041d5780638065657f1461044a5780638f2a0bb01461046a57600080fd5b8063248a9ca31161016f57806336568abe1161013e57806336568abe1461039d578063584b153e146103bd57806364d62353146103dd57806369d775a4146103fd57600080fd5b8063248a9ca31461030d5780632ab0f5291461033d5780632f2ff15d1461035d57806331d507501461037d57600080fd5b8063134008d3116101ab578063134008d31461027657806313bc9f2014610289578063150b7a02146102a95780631e4e0091146102ed57600080fd5b806301d5062a146101dd57806301ffc9a7146101ff57806307bd02651461023457600080fd5b366101d857005b600080fd5b3480156101e957600080fd5b506101fd6101f83660046112f8565b610634565b005b34801561020b57600080fd5b5061021f61021a36600461136c565b61070a565b60405190151581526020015b60405180910390f35b34801561024057600080fd5b506102687fd8aa0f3194971a2a116679f7c2090f6939c8d4e01a2a8d7e41d55e5351469e6381565b60405190815260200161022b565b6101fd610284366004611396565b61071b565b34801561029557600080fd5b5061021f6102a4366004611401565b6107d0565b3480156102b557600080fd5b506102d46102c43660046114cf565b630a85bd0160e11b949350505050565b6040516001600160e01b0319909116815260200161022b565b3480156102f957600080fd5b506101fd610308366004611536565b6107f6565b34801561031957600080fd5b50610268610328366004611401565b60009081526020819052604090206001015490565b34801561034957600080fd5b5061021f610358366004611401565b610810565b34801561036957600080fd5b506101fd610378366004611558565b610819565b34801561038957600080fd5b5061021f610398366004611401565b610844565b3480156103a957600080fd5b506101fd6103b8366004611558565b610869565b3480156103c957600080fd5b5061021f6103d8366004611401565b61089c565b3480156103e957600080fd5b506101fd6103f8366004611401565b6108e2565b34801561040957600080fd5b506101fd610418366004611584565b610955565b34801561042957600080fd5b5061043d610438366004611401565b6109e6565b60405161022b91906115c4565b34801561045657600080fd5b50610268610465366004611396565b610a31565b34801561047657600080fd5b506101fd610485366004611630565b610a70565b34801561049657600080fd5b506102687fb09aa5aeb3702cfd50b6b62bc4532604938f21248a27a1d5ca736082b6819cc181565b3480156104ca57600080fd5b5061021f6104d9366004611558565b610bfe565b3480156104ea57600080fd5b50610268600081565b3480156104ff57600080fd5b506102687ffd643c72710c63c0180259aba6b2d05451e3591a24e58b62239378085726f78381565b34801561053357600080fd5b506102686105423660046116e1565b610c27565b34801561055357600080fd5b506102d4610562366004611808565b63bc197c8160e01b95945050505050565b34801561057f57600080fd5b506101fd61058e366004611401565b610c6c565b34801561059f57600080fd5b506102686105ae366004611401565b60009081526001602052604090205490565b3480156105cc57600080fd5b506101fd6105db366004611558565b610d17565b6101fd6105ee3660046116e1565b610d3c565b3480156105ff57600080fd5b506102d461060e3660046118b1565b63f23a6e6160e01b95945050505050565b34801561062b57600080fd5b50600254610268565b7fb09aa5aeb3702cfd50b6b62bc4532604938f21248a27a1d5ca736082b6819cc161065e81610ec3565b600061066e898989898989610a31565b905061067a8184610ed0565b6000817f4cf4410cc57040e44862ef0f45f3dd5a5e02db8eb8add648d4b0e236f1d07dca8b8b8b8b8b8a6040516106b69695949392919061193e565b60405180910390a383156106ff57807f20fda5fd27a1ea7bf5b9567f143ac5470bb059374a27e8f67cb44f946f6d0387856040516106f691815260200190565b60405180910390a25b505050505050505050565b600061071582610f64565b92915050565b7fd8aa0f3194971a2a116679f7c2090f6939c8d4e01a2a8d7e41d55e5351469e63610747816000610bfe565b610755576107558133610f89565b6000610765888888888888610a31565b90506107718185610fc6565b61077d88888888611014565b6000817fc2617efa69bab66782fa219543714338489c4e9e178271560a91b82c3f612b588a8a8a8a6040516107b5949392919061197b565b60405180910390a36107c681611083565b5050505050505050565b600060025b6107de836109e6565b60038111156107ef576107ef6115ae565b1492915050565b600061080181610ec3565b61080b83836110af565b505050565b600060036107d5565b60008281526020819052604090206001015461083481610ec3565b61083e83836110fa565b50505050565b600080610850836109e6565b6003811115610861576108616115ae565b141592915050565b6001600160a01b03811633146108925760405163334bd91960e11b815260040160405180910390fd5b61080b828261118c565b6000806108a8836109e6565b905060018160038111156108be576108be6115ae565b14806108db575060028160038111156108d9576108d96115ae565b145b9392505050565b333081146109135760405163e2850c5960e01b81526001600160a01b03821660048201526024015b60405180910390fd5b60025460408051918252602082018490527f11c24f4ead16507c69ac467fbd5e4eed5fb5c699626d2cc6d66421df253886d5910160405180910390a150600255565b600061096081610ec3565b604051632f2ff15d60e01b81527f0685f9a33ecc8d58f6db2634bbe92aa174d2b8ca9e4e571760206f3509a84e0060048201526001600160a01b038381166024830152841690632f2ff15d90604401600060405180830381600087803b1580156109c957600080fd5b505af11580156109dd573d6000803e3d6000fd5b50505050505050565b60008181526001602052604081205480600003610a065750600092915050565b60018103610a175750600392915050565b42811115610a285750600192915050565b50600292915050565b6000868686868686604051602001610a4e9695949392919061193e565b6040516020818303038152906040528051906020012090509695505050505050565b7fb09aa5aeb3702cfd50b6b62bc4532604938f21248a27a1d5ca736082b6819cc1610a9a81610ec3565b8887141580610aa95750888514155b15610adb576040516001624fcdef60e01b03198152600481018a9052602481018690526044810188905260640161090a565b6000610aed8b8b8b8b8b8b8b8b610c27565b9050610af98184610ed0565b60005b8a811015610baf5780827f4cf4410cc57040e44862ef0f45f3dd5a5e02db8eb8add648d4b0e236f1d07dca8e8e85818110610b3957610b396119ad565b9050602002016020810190610b4e91906119c3565b8d8d86818110610b6057610b606119ad565b905060200201358c8c87818110610b7957610b796119ad565b9050602002810190610b8b91906119de565b8c8b604051610b9f9695949392919061193e565b60405180910390a3600101610afc565b508315610bf157807f20fda5fd27a1ea7bf5b9567f143ac5470bb059374a27e8f67cb44f946f6d038785604051610be891815260200190565b60405180910390a25b5050505050505050505050565b6000918252602082815260408084206001600160a01b0393909316845291905290205460ff1690565b60008888888888888888604051602001610c48989796959493929190611aba565b60405160208183030381529060405280519060200120905098975050505050505050565b7ffd643c72710c63c0180259aba6b2d05451e3591a24e58b62239378085726f783610c9681610ec3565b610c9f8261089c565b610cdb5781610cae60026111f7565b610cb860016111f7565b604051635ead8eb560e01b8152600481019390935217602482015260440161090a565b6000828152600160205260408082208290555183917fbaa1eb22f2a492ba1a5fea61b8df4d27c6c8b5f3971e63bb58fa14ff72eedb7091a25050565b600082815260208190526040902060010154610d3281610ec3565b61083e838361118c565b7fd8aa0f3194971a2a116679f7c2090f6939c8d4e01a2a8d7e41d55e5351469e63610d68816000610bfe565b610d7657610d768133610f89565b8786141580610d855750878414155b15610db7576040516001624fcdef60e01b0319815260048101899052602481018590526044810187905260640161090a565b6000610dc98a8a8a8a8a8a8a8a610c27565b9050610dd58185610fc6565b60005b89811015610ead5760008b8b83818110610df457610df46119ad565b9050602002016020810190610e0991906119c3565b905060008a8a84818110610e1f57610e1f6119ad565b9050602002013590503660008a8a86818110610e3d57610e3d6119ad565b9050602002810190610e4f91906119de565b91509150610e5f84848484611014565b84867fc2617efa69bab66782fa219543714338489c4e9e178271560a91b82c3f612b5886868686604051610e96949392919061197b565b60405180910390a350505050806001019050610dd8565b50610eb781611083565b50505050505050505050565b610ecd8133610f89565b50565b610ed982610844565b15610f0b5781610ee960006111f7565b604051635ead8eb560e01b81526004810192909252602482015260440161090a565b6000610f1660025490565b905080821015610f4357604051635433660960e01b8152600481018390526024810182905260440161090a565b610f4d8242611b5b565b600093845260016020526040909320929092555050565b60006001600160e01b03198216630271189760e51b148061071557506107158261121a565b610f938282610bfe565b610fc25760405163e2517d3f60e01b81526001600160a01b03821660048201526024810183905260440161090a565b5050565b610fcf826107d0565b610fde5781610ee960026111f7565b8015801590610ff35750610ff181610810565b155b15610fc25760405163121534c360e31b81526004810182905260240161090a565b600080856001600160a01b0316858585604051611032929190611b7c565b60006040518083038185875af1925050503d806000811461106f576040519150601f19603f3d011682016040523d82523d6000602084013e611074565b606091505b50915091506109dd828261124f565b61108c816107d0565b61109b5780610ee960026111f7565b600090815260016020819052604090912055565b600082815260208190526040808220600101805490849055905190918391839186917fbd79b86ffe0ab8e8776151514217cd7cacd52c909f66475c3af44e129f0b00ff9190a4505050565b60006111068383610bfe565b611184576000838152602081815260408083206001600160a01b03861684529091529020805460ff1916600117905561113c3390565b6001600160a01b0316826001600160a01b0316847f2f8788117e7eff1d82e926ec794901d17c78024a50270940304540a733656f0d60405160405180910390a4506001610715565b506000610715565b60006111988383610bfe565b15611184576000838152602081815260408083206001600160a01b0386168085529252808320805460ff1916905551339286917ff6391f5c32d9c69d2a47ea670b442974b53935d1edc7fd64eb21e047a839171b9190a4506001610715565b600081600381111561120b5761120b6115ae565b600160ff919091161b92915050565b60006001600160e01b03198216637965db0b60e01b148061071557506301ffc9a760e01b6001600160e01b0319831614610715565b6060826112645761125f8261126b565b610715565b5080610715565b80511561127b5780518082602001fd5b604051630a12f52160e11b815260040160405180910390fd5b80356001600160a01b03811681146112ab57600080fd5b919050565b60008083601f8401126112c257600080fd5b5081356001600160401b038111156112d957600080fd5b6020830191508360208285010111156112f157600080fd5b9250929050565b600080600080600080600060c0888a03121561131357600080fd5b61131c88611294565b96506020880135955060408801356001600160401b0381111561133e57600080fd5b61134a8a828b016112b0565b989b979a50986060810135976080820135975060a09091013595509350505050565b60006020828403121561137e57600080fd5b81356001600160e01b0319811681146108db57600080fd5b60008060008060008060a087890312156113af57600080fd5b6113b887611294565b95506020870135945060408701356001600160401b038111156113da57600080fd5b6113e689828a016112b0565b979a9699509760608101359660809091013595509350505050565b60006020828403121561141357600080fd5b5035919050565b634e487b7160e01b600052604160045260246000fd5b604051601f8201601f191681016001600160401b03811182821017156114585761145861141a565b604052919050565b600082601f83011261147157600080fd5b81356001600160401b0381111561148a5761148a61141a565b61149d601f8201601f1916602001611430565b8181528460208386010111156114b257600080fd5b816020850160208301376000918101602001919091529392505050565b600080600080608085870312156114e557600080fd5b6114ee85611294565b93506114fc60208601611294565b92506040850135915060608501356001600160401b0381111561151e57600080fd5b61152a87828801611460565b91505092959194509250565b6000806040838503121561154957600080fd5b50508035926020909101359150565b6000806040838503121561156b57600080fd5b8235915061157b60208401611294565b90509250929050565b6000806040838503121561159757600080fd5b6115a083611294565b915061157b60208401611294565b634e487b7160e01b600052602160045260246000fd5b60208101600483106115e657634e487b7160e01b600052602160045260246000fd5b91905290565b60008083601f8401126115fe57600080fd5b5081356001600160401b0381111561161557600080fd5b6020830191508360208260051b85010111156112f157600080fd5b600080600080600080600080600060c08a8c03121561164e57600080fd5b89356001600160401b038082111561166557600080fd5b6116718d838e016115ec565b909b50995060208c013591508082111561168a57600080fd5b6116968d838e016115ec565b909950975060408c01359150808211156116af57600080fd5b506116bc8c828d016115ec565b9a9d999c50979a969997986060880135976080810135975060a0013595509350505050565b60008060008060008060008060a0898b0312156116fd57600080fd5b88356001600160401b038082111561171457600080fd5b6117208c838d016115ec565b909a50985060208b013591508082111561173957600080fd5b6117458c838d016115ec565b909850965060408b013591508082111561175e57600080fd5b5061176b8b828c016115ec565b999c989b509699959896976060870135966080013595509350505050565b600082601f83011261179a57600080fd5b813560206001600160401b038211156117b5576117b561141a565b8160051b6117c4828201611430565b92835284810182019282810190878511156117de57600080fd5b83870192505b848310156117fd578235825291830191908301906117e4565b979650505050505050565b600080600080600060a0868803121561182057600080fd5b61182986611294565b945061183760208701611294565b935060408601356001600160401b038082111561185357600080fd5b61185f89838a01611789565b9450606088013591508082111561187557600080fd5b61188189838a01611789565b9350608088013591508082111561189757600080fd5b506118a488828901611460565b9150509295509295909350565b600080600080600060a086880312156118c957600080fd5b6118d286611294565b94506118e060208701611294565b9350604086013592506060860135915060808601356001600160401b0381111561190957600080fd5b6118a488828901611460565b81835281816020850137506000828201602090810191909152601f909101601f19169091010190565b60018060a01b038716815285602082015260a06040820152600061196660a083018688611915565b60608301949094525060800152949350505050565b60018060a01b03851681528360208201526060604082015260006119a3606083018486611915565b9695505050505050565b634e487b7160e01b600052603260045260246000fd5b6000602082840312156119d557600080fd5b6108db82611294565b6000808335601e198436030181126119f557600080fd5b8301803591506001600160401b03821115611a0f57600080fd5b6020019150368190038213156112f157600080fd5b6000838385526020808601955060208560051b8301018460005b87811015611aad57848303601f19018952813536889003601e19018112611a6457600080fd5b870184810190356001600160401b03811115611a7f57600080fd5b803603821315611a8e57600080fd5b611a99858284611915565b9a86019a9450505090830190600101611a3e565b5090979650505050505050565b60a0808252810188905260008960c08301825b8b811015611afb576001600160a01b03611ae684611294565b16825260209283019290910190600101611acd565b5083810360208501528881526001600160fb1b03891115611b1b57600080fd5b8860051b9150818a60208301370182810360209081016040850152611b439082018789611a24565b60608401959095525050608001529695505050505050565b8082018082111561071557634e487b7160e01b600052601160045260246000fd5b818382376000910190815291905056fea264697066735822122063251017e31dac4d66a7ad0e63b561c6e21bd8beaf0cb1fdfaeacd9bb2506d2c64736f6c63430008180033","linkReferences":{}},"methodIdentifiers":{"CANCELLER_ROLE()":"b08e51c0","DEFAULT_ADMIN_ROLE()":"a217fddf","EXECUTOR_ROLE()":"07bd0265","PROPOSER_ROLE()":"8f61f4f5","cancel(bytes32)":"c4d252f5","execute(address,uint256,bytes,bytes32,bytes32)":"134008d3","executeBatch(address[],uint256[],bytes[],bytes32,bytes32)":"e38335e5","getMinDelay()":"f27a0c92","getOperationState(bytes32)":"7958004c","getRoleAdmin(bytes32)":"248a9ca3","getTimestamp(bytes32)":"d45c4435","grantRole(bytes32,address)":"2f2ff15d","hasRole(bytes32,address)":"91d14854","hashOperation(address,uint256,bytes,bytes32,bytes32)":"8065657f","hashOperationBatch(address[],uint256[],bytes[],bytes32,bytes32)":"b1c5f427","isOperation(bytes32)":"31d50750","isOperationDone(bytes32)":"2ab0f529","isOperationPending(bytes32)":"584b153e","isOperationReady(bytes32)":"13bc9f20","onERC1155BatchReceived(address,address,uint256[],uint256[],bytes)":"bc197c81","onERC1155Received(address,address,uint256,uint256,bytes)":"f23a6e61","onERC721Received(address,address,uint256,bytes)":"150b7a02","renounceRole(bytes32,address)":"36568abe","revokeRole(bytes32,address)":"d547741f","schedule(address,uint256,bytes,bytes32,bytes32,uint256)":"01d5062a","scheduleBatch(address[],uint256[],bytes[],bytes32,bytes32,uint256)":"8f2a0bb0","setRelayer(address,address)":"69d775a4","setRoleAdmin(bytes32,bytes32)":"1e4e0091","supportsInterface(bytes4)":"01ffc9a7","updateDelay(uint256)":"64d62353"},"id":109}