{"abi":[{"type":"constructor","inputs":[],"stateMutability":"nonpayable"},{"type":"fallback","stateMutability":"payable"},{"type":"receive","stateMutability":"payable"},{"type":"function","name":"DEFAULT_ADMIN_ROLE","inputs":[],"outputs":[{"name":"","type":"bytes32","internalType":"bytes32"}],"stateMutability":"view"},{"type":"function","name":"MANAGER_ROLE","inputs":[],"outputs":[{"name":"","type":"bytes32","internalType":"bytes32"}],"stateMutability":"view"},{"type":"function","name":"REQUEST_CANCELLER_ROLE","inputs":[],"outputs":[{"name":"","type":"bytes32","internalType":"bytes32"}],"stateMutability":"view"},{"type":"function","name":"allocateETH","inputs":[],"outputs":[],"stateMutability":"payable"},{"type":"function","name":"allocatedETHDeficit","inputs":[],"outputs":[{"name":"","type":"uint256","internalType":"uint256"}],"stateMutability":"view"},{"type":"function","name":"allocatedETHForClaims","inputs":[],"outputs":[{"name":"","type":"uint256","internalType":"uint256"}],"stateMutability":"view"},{"type":"function","name":"allocatedETHSurplus","inputs":[],"outputs":[{"name":"","type":"uint256","internalType":"uint256"}],"stateMutability":"view"},{"type":"function","name":"balance","inputs":[],"outputs":[{"name":"","type":"uint256","internalType":"uint256"}],"stateMutability":"view"},{"type":"function","name":"claim","inputs":[{"name":"l2Strategy","type":"address","internalType":"address"},{"name":"bridge","type":"address","internalType":"address"},{"name":"sourceChainId","type":"uint256","internalType":"uint256"},{"name":"destChainId","type":"uint256","internalType":"uint256"},{"name":"gasLimit","type":"uint256","internalType":"uint256"}],"outputs":[{"name":"","type":"bool","internalType":"bool"}],"stateMutability":"nonpayable"},{"type":"function","name":"create","inputs":[{"name":"requester","type":"address","internalType":"address"},{"name":"l2Strategy","type":"address","internalType":"address"},{"name":"dETHLocked","type":"uint256","internalType":"uint256"},{"name":"ethRequested","type":"uint256","internalType":"uint256"},{"name":"destChainId","type":"uint256","internalType":"uint256"}],"outputs":[],"stateMutability":"nonpayable"},{"type":"function","name":"currentRequestedCumulativeETH","inputs":[{"name":"","type":"uint256","internalType":"uint256"},{"name":"","type":"address","internalType":"address"}],"outputs":[{"name":"","type":"uint256","internalType":"uint256"}],"stateMutability":"view"},{"type":"function","name":"dETH","inputs":[],"outputs":[{"name":"","type":"address","internalType":"contract IDETH"}],"stateMutability":"view"},{"type":"function","name":"dEthLockedAmount","inputs":[{"name":"","type":"uint256","internalType":"uint256"},{"name":"","type":"address","internalType":"address"}],"outputs":[{"name":"","type":"uint256","internalType":"uint256"}],"stateMutability":"view"},{"type":"function","name":"getRoleAdmin","inputs":[{"name":"role","type":"bytes32","internalType":"bytes32"}],"outputs":[{"name":"","type":"bytes32","internalType":"bytes32"}],"stateMutability":"view"},{"type":"function","name":"getRoleMember","inputs":[{"name":"role","type":"bytes32","internalType":"bytes32"},{"name":"index","type":"uint256","internalType":"uint256"}],"outputs":[{"name":"","type":"address","internalType":"address"}],"stateMutability":"view"},{"type":"function","name":"getRoleMemberCount","inputs":[{"name":"role","type":"bytes32","internalType":"bytes32"}],"outputs":[{"name":"","type":"uint256","internalType":"uint256"}],"stateMutability":"view"},{"type":"function","name":"grantRole","inputs":[{"name":"role","type":"bytes32","internalType":"bytes32"},{"name":"account","type":"address","internalType":"address"}],"outputs":[],"stateMutability":"nonpayable"},{"type":"function","name":"hasRole","inputs":[{"name":"role","type":"bytes32","internalType":"bytes32"},{"name":"account","type":"address","internalType":"address"}],"outputs":[{"name":"","type":"bool","internalType":"bool"}],"stateMutability":"view"},{"type":"function","name":"initialize","inputs":[{"name":"init","type":"tuple","internalType":"struct UnstakeRequestsManager.Init","components":[{"name":"admin","type":"address","internalType":"address"},{"name":"manager","type":"address","internalType":"address"},{"name":"requestCanceller","type":"address","internalType":"address"},{"name":"dETH","type":"address","internalType":"contract IDETH"},{"name":"stakingContract","type":"address","internalType":"contract IStakingManagerReturnsWrite"},{"name":"oracle","type":"address","internalType":"contract IOracleReadRecord"},{"name":"numberOfBlocksToFinalize","type":"uint256","internalType":"uint256"}]}],"outputs":[],"stateMutability":"nonpayable"},{"type":"function","name":"l2ChainStrategyAmount","inputs":[{"name":"","type":"uint256","internalType":"uint256"},{"name":"","type":"address","internalType":"address"}],"outputs":[{"name":"","type":"uint256","internalType":"uint256"}],"stateMutability":"view"},{"type":"function","name":"l2ChainStrategyBlockNumber","inputs":[{"name":"","type":"uint256","internalType":"uint256"},{"name":"","type":"address","internalType":"address"}],"outputs":[{"name":"","type":"uint256","internalType":"uint256"}],"stateMutability":"view"},{"type":"function","name":"latestCumulativeETHRequested","inputs":[],"outputs":[{"name":"","type":"uint256","internalType":"uint256"}],"stateMutability":"view"},{"type":"function","name":"numberOfBlocksToFinalize","inputs":[],"outputs":[{"name":"","type":"uint256","internalType":"uint256"}],"stateMutability":"view"},{"type":"function","name":"oracle","inputs":[],"outputs":[{"name":"","type":"address","internalType":"contract IOracleReadRecord"}],"stateMutability":"view"},{"type":"function","name":"renounceRole","inputs":[{"name":"role","type":"bytes32","internalType":"bytes32"},{"name":"callerConfirmation","type":"address","internalType":"address"}],"outputs":[],"stateMutability":"nonpayable"},{"type":"function","name":"requestByID","inputs":[{"name":"destChainId","type":"uint256","internalType":"uint256"},{"name":"l2Strategy","type":"address","internalType":"address"}],"outputs":[{"name":"","type":"uint256","internalType":"uint256"},{"name":"","type":"uint256","internalType":"uint256"},{"name":"","type":"uint256","internalType":"uint256"}],"stateMutability":"view"},{"type":"function","name":"requestInfo","inputs":[{"name":"destChainId","type":"uint256","internalType":"uint256"},{"name":"l2Strategy","type":"address","internalType":"address"}],"outputs":[{"name":"","type":"bool","internalType":"bool"},{"name":"","type":"uint256","internalType":"uint256"}],"stateMutability":"view"},{"type":"function","name":"revokeRole","inputs":[{"name":"role","type":"bytes32","internalType":"bytes32"},{"name":"account","type":"address","internalType":"address"}],"outputs":[],"stateMutability":"nonpayable"},{"type":"function","name":"setNumberOfBlocksToFinalize","inputs":[{"name":"numberOfBlocksToFinalize_","type":"uint256","internalType":"uint256"}],"outputs":[],"stateMutability":"nonpayable"},{"type":"function","name":"stakingContract","inputs":[],"outputs":[{"name":"","type":"address","internalType":"contract IStakingManagerReturnsWrite"}],"stateMutability":"view"},{"type":"function","name":"supportsInterface","inputs":[{"name":"interfaceId","type":"bytes4","internalType":"bytes4"}],"outputs":[{"name":"","type":"bool","internalType":"bool"}],"stateMutability":"view"},{"type":"function","name":"totalClaimed","inputs":[],"outputs":[{"name":"","type":"uint256","internalType":"uint256"}],"stateMutability":"view"},{"type":"function","name":"withdrawAllocatedETHSurplus","inputs":[],"outputs":[],"stateMutability":"nonpayable"},{"type":"event","name":"Initialized","inputs":[{"name":"version","type":"uint64","indexed":false,"internalType":"uint64"}],"anonymous":false},{"type":"event","name":"ProtocolConfigChanged","inputs":[{"name":"setterSelector","type":"bytes4","indexed":true,"internalType":"bytes4"},{"name":"setterSignature","type":"string","indexed":false,"internalType":"string"},{"name":"value","type":"bytes","indexed":false,"internalType":"bytes"}],"anonymous":false},{"type":"event","name":"RoleAdminChanged","inputs":[{"name":"role","type":"bytes32","indexed":true,"internalType":"bytes32"},{"name":"previousAdminRole","type":"bytes32","indexed":true,"internalType":"bytes32"},{"name":"newAdminRole","type":"bytes32","indexed":true,"internalType":"bytes32"}],"anonymous":false},{"type":"event","name":"RoleGranted","inputs":[{"name":"role","type":"bytes32","indexed":true,"internalType":"bytes32"},{"name":"account","type":"address","indexed":true,"internalType":"address"},{"name":"sender","type":"address","indexed":true,"internalType":"address"}],"anonymous":false},{"type":"event","name":"RoleRevoked","inputs":[{"name":"role","type":"bytes32","indexed":true,"internalType":"bytes32"},{"name":"account","type":"address","indexed":true,"internalType":"address"},{"name":"sender","type":"address","indexed":true,"internalType":"address"}],"anonymous":false},{"type":"event","name":"UnstakeRequestCancelled","inputs":[{"name":"id","type":"uint256","indexed":true,"internalType":"uint256"},{"name":"requester","type":"address","indexed":true,"internalType":"address"},{"name":"dETHLocked","type":"uint256","indexed":false,"internalType":"uint256"},{"name":"ethRequested","type":"uint256","indexed":false,"internalType":"uint256"},{"name":"cumulativeETHRequested","type":"uint256","indexed":false,"internalType":"uint256"},{"name":"blockNumber","type":"uint256","indexed":false,"internalType":"uint256"}],"anonymous":false},{"type":"event","name":"UnstakeRequestClaimed","inputs":[{"name":"l2strategy","type":"address","indexed":true,"internalType":"address"},{"name":"ethRequested","type":"uint256","indexed":false,"internalType":"uint256"},{"name":"dETHLocked","type":"uint256","indexed":false,"internalType":"uint256"},{"name":"destChainId","type":"uint256","indexed":true,"internalType":"uint256"},{"name":"csBlockNumber","type":"uint256","indexed":true,"internalType":"uint256"}],"anonymous":false},{"type":"event","name":"UnstakeRequestCreated","inputs":[{"name":"requester","type":"address","indexed":true,"internalType":"address"},{"name":"strategy","type":"address","indexed":true,"internalType":"address"},{"name":"dETHLocked","type":"uint256","indexed":false,"internalType":"uint256"},{"name":"ethRequested","type":"uint256","indexed":false,"internalType":"uint256"},{"name":"cumulativeETHRequested","type":"uint256","indexed":false,"internalType":"uint256"},{"name":"blockNumber","type":"uint256","indexed":false,"internalType":"uint256"},{"name":"destChainId","type":"uint256","indexed":false,"internalType":"uint256"}],"anonymous":false},{"type":"error","name":"AccessControlBadConfirmation","inputs":[]},{"type":"error","name":"AccessControlUnauthorizedAccount","inputs":[{"name":"account","type":"address","internalType":"address"},{"name":"neededRole","type":"bytes32","internalType":"bytes32"}]},{"type":"error","name":"AlreadyClaimed","inputs":[]},{"type":"error","name":"DoesNotReceiveETH","inputs":[]},{"type":"error","name":"InvalidInitialization","inputs":[]},{"type":"error","name":"NotEnoughFunds","inputs":[{"name":"cumulativeETHOnRequest","type":"uint256","internalType":"uint256"},{"name":"allocatedETHForClaims","type":"uint256","internalType":"uint256"}]},{"type":"error","name":"NotFinalized","inputs":[]},{"type":"error","name":"NotInitializing","inputs":[]},{"type":"error","name":"NotRequester","inputs":[]},{"type":"error","name":"NotStakingManagerContract","inputs":[]}],"bytecode":{"object":"0x608080604052346100b8577ff0c57e16840df040f15088dc2f81fe391c3923bec73e23a9662efc9c229c6a009081549060ff8260401c166100a957506001600160401b036002600160401b031982821601610064575b604051611b8e90816100be8239f35b6001600160401b031990911681179091556040519081527fc7f505b2f371ae2175ee4913f4499e1f2633a7b5936321eed1cdaeb6115181d290602090a1388080610055565b63f92ee8a960e01b8152600490fd5b600080fdfe60806040526004361015610018575b3661127a5761127a565b60003560e01c806301ffc9a714610228578063106b263c146102235780631453444d1461021e578063248a9ca314610219578063277f175814610214578063278c5acd1461020f57806328ad3aac1461020a5780632d830ce3146102055780632f2ff15d1461020057806336568abe146101fb5780633c824919146101f65780634d13bfa6146101f15780637b2071c6146101ec5780637dc0d1d0146101e757806388a3e1af146101e2578063891b1a00146101dd5780639010d07c146101d857806391d14854146101d3578063a217fddf146101ce578063a5a05aee146101c9578063a75c3e17146101c4578063ae5cf272146101bf578063b2d42b46146101ba578063b69ef8a8146101b5578063c02d4c8e146101b0578063ca15c873146101ab578063d4be074f146101a6578063d547741f146101a1578063d54ad2a11461019c578063ec87621c14610197578063ee99205c14610192578063f48811a51461018d5763fe3af1c10361000e57610f6d565b610f25565b610efc565b610ed3565b610eb5565b610e66565b610d4c565b610d13565b610cf8565b610cdd565b610caf565b610c91565b610c49565b610c01565b610be5565b610b82565b610b2e565b610a04565b6109b3565b61098a565b610907565b6108ce565b6106b4565b610635565b6105a8565b610526565b61036c565b61034e565b610325565b6102e9565b6102cb565b6102a8565b346102985760203660031901126102985760043563ffffffff60e01b811680910361029857602090635a05180f60e01b811490811561026d575b506040519015158152f35b637965db0b60e01b811491508115610287575b5038610262565b6301ffc9a760e01b14905038610280565b600080fd5b600091031261029857565b346102985760003660031901126102985760206102c3610fcb565b604051908152f35b34610298576000366003190112610298576020600254604051908152f35b3461029857602036600319011261029857600435600052600080516020611b198339815191526020526020600160406000200154604051908152f35b34610298576000366003190112610298576005546040516001600160a01b039091168152602090f35b34610298576000366003190112610298576020600654604051908152f35b34610298576020806003193601126102985760043561038961128c565b8060045560405190828201528181526103a1816104a1565b60405160408152602460408201527f7365744e756d6265724f66426c6f636b73546f46696e616c697a652875696e746060820152633235362960e01b608082015260a0838201528151918260a083015260005b83811061044257837f01d854e8dde9402801a4c6f2840193465752abfad61e0bb7c4258d526ae42e7484600060c0848301015260c081630a2b4eab60e21b94601f80199101168101030190a2005b81810185015183820160c0015284016103f4565b634e487b7160e01b600052604160045260246000fd5b60e0810190811067ffffffffffffffff82111761048857604052565b610456565b67ffffffffffffffff811161048857604052565b6040810190811067ffffffffffffffff82111761048857604052565b90601f8019910116810190811067ffffffffffffffff82111761048857604052565b6001600160a01b0381160361029857565b604435906104fd826104df565b565b606435906104fd826104df565b608435906104fd826104df565b60a435906104fd826104df565b346102985760e0366003190112610298576105a66040516105468161046c565b600435610552816104df565b8152602435610560816104df565b602082015261056d6104f0565b604082015261057a6104ff565b606082015261058761050c565b6080820152610594610519565b60a082015260c43560c0820152610feb565b005b34610298576040366003190112610298576024356004356105c8826104df565b600091818352600080516020611b198339815191526020526105f060016040852001546112f6565b6105fa8183611872565b610602578280f35b908252600080516020611ad98339815191526020526040822061062e916001600160a01b031690611972565b5038808280f35b3461029857604036600319011261029857602435610652816104df565b336001600160a01b0382160361066e576105a69060043561146a565b60405163334bd91960e11b8152600490fd5b60a090600319011261029857600435610698816104df565b906024356106a5816104df565b90604435906064359060843590565b34610298576106c236610680565b600080549395909492936001600160a01b03939190841633036108bc5761070e816106f7876000526009602052604060002090565b9060018060a01b0316600052602052604060002090565b54610727826106f7886000526007602052604060002090565b5494610741836106f7896000526008602052604060002090565b54928861075c826106f78b6000526007602052604060002090565b5588610776826106f78b6000526008602052604060002090565b5588610790826106f78b6000526009602052604060002090565b556107a161079d846114e0565b1590565b6108aa576040805188815260208101869052899392909216917f2760049fd89d835ea59af3161d6bee76895afa7576b3b479e41000b5394775f89190a46005546001600160a01b031690813b156108a657604051630852cd8d60e31b8152600481019190915295908690602490829084905af180156108a157610884966108729661086d92610888575b506040516371bbb61760e01b6020820152602481019190915260448101959095526001600160a01b03821660648601526084808601859052855260a4856104bd565b61161f565b60405190151581529081906020820190565b0390f35b8061089561089b9261048d565b8061029d565b3861082b565b6111da565b8680fd5b604051630df706ad60e11b8152600490fd5b604051631cec3cdb60e31b8152600490fd5b6000806003193601126109045780546001600160a01b031633036108bc576002543481018091116108ff5760025580f35b610fa8565b80fd5b346102985760408060031936011261029857606090600435906024359061092d826104df565b6000838152600960209081528282206001600160a01b039490941680835293815260408083205486845260078352848420868552835281842054968452600883528484209584529490915290205481519384526020840152820152f35b34610298576000366003190112610298576001546040516001600160a01b039091168152602090f35b346102985760403660031901126102985760206109fb6024356109d5816104df565b6004356000526009835260406000209060018060a01b0316600052602052604060002090565b54604051908152f35b3461029857610a1236610680565b60005491936001600160a01b0392909190831633036108bc57600654908582018092116108ff577f319883689186488248969ba55a688029c4bb01b7e60c9b4b9914f475f60ad2e494610b2992826000526007602052610a888560406000209060018060a01b0316600052602052604060002090565b610a938982546111e6565b9055610aad856106f7856000526008602052604060002090565b610ab88382546111e6565b905543610ad3866106f7866000526009602052604060002090565b5580610aed866106f786600052600a602052604060002090565b55610af781600655565b85604051968796169916974392869192608093969594919660a084019784526020840152604083015260608201520152565b0390a3005b3461029857604036600319011261029857600435600052600080516020611ad98339815191526020526020610b696024356040600020611944565b905460405160039290921b1c6001600160a01b03168152f35b3461029857604036600319011261029857602060ff610bd9602435610ba6816104df565b600435600052600080516020611b19833981519152845260406000209060018060a01b0316600052602052604060002090565b54166040519015158152f35b3461029857600036600319011261029857602060405160008152f35b346102985760403660031901126102985760206109fb602435610c23816104df565b6004356000526007835260406000209060018060a01b0316600052602052604060002090565b346102985760403660031901126102985760206109fb602435610c6b816104df565b6004356000526008835260406000209060018060a01b0316600052602052604060002090565b34610298576000366003190112610298576020600454604051908152f35b34610298576000806003193601126109045780546001600160a01b031633036108bc57610cda6111f3565b80f35b346102985760003660031901126102985760206102c3611252565b346102985760003660031901126102985760206102c3611266565b3461029857602036600319011261029857600435600052600080516020611ad98339815191526020526020604060002054604051908152f35b34610298576040806003193601126102985760043560243591610d6e836104df565b6000918083526009602052610e16610e0f610d9d868587209060018060a01b0316600052602052604060002090565b54958386526007602052610dc5818688209060018060a01b0316600052602052604060002090565b54938087526008602052610ded828789209060018060a01b0316600052602052604060002090565b508652600a6020528486209060018060a01b0316600052602052604060002090565b54946114e0565b92938181039081116108ff57600254808210610e44575b505090519115158252506020810191909152604090f35b610884939550610e5d9291610e5891610fbe565b611672565b92903880610e2d565b34610298576040366003190112610298576105a6602435600435610e89826104df565b80600052600080516020611b19833981519152602052610eb06001604060002001546112f6565b61146a565b34610298576000366003190112610298576020600354604051908152f35b34610298576000366003190112610298576020604051600080516020611af98339815191528152f35b34610298576000366003190112610298576000546040516001600160a01b039091168152602090f35b346102985760403660031901126102985760206109fb602435610f47816104df565b600435600052600a835260406000209060018060a01b0316600052602052604060002090565b346102985760003660031901126102985760206040517fef6d3da212345543d99125b43af0bc451d30ffaf90d4560558d702b21179a70f8152f35b634e487b7160e01b600052601160045260246000fd5b919082039182116108ff57565b600654600254808211610fdf575050600090565b81039081116108ff5790565b600080516020611b3983398151915280549160ff8360401c16159267ffffffffffffffff8116801590816110e9575b60011490816110df575b1590816110d6575b506110c45767ffffffffffffffff1916600117909155611050908261109f576110f1565b61105657565b600080516020611b39833981519152805460ff60401b19169055604051600181527fc7f505b2f371ae2175ee4913f4499e1f2633a7b5936321eed1cdaeb6115181d290602090a1565b600080516020611b39833981519152805460ff60401b1916600160401b1790556110f1565b60405163f92ee8a960e01b8152600490fd5b9050153861102c565b303b159150611024565b85915061101a565b60ff600080516020611b398339815191525460401c16156111aa5780516111a7916111a2916040919061112c906001600160a01b0316611324565b5061113a60c0820151600455565b6080810151600080546001600160a01b03199081166001600160a01b039384161790915560a083015160018054831691841691909117905560608301516005805490921690831617905560208201516111939116611384565b5001516001600160a01b031690565b6113ee565b50565b604051631afcd79f60e31b8152600490fd5b916111d69183549060031b91821b91600019901b19161790565b9055565b6040513d6000823e3d90fd5b919082018092116108ff57565b6111fb611266565b80156111a7576002548181039081116108ff576002556000546001600160a01b0316803b15610298576000906004604051809481936360a8d53960e11b83525af180156108a1576112495750565b6104fd9061048d565b600254600354808211610fdf575050600090565b600254600654808211610fdf575050600090565b6040516334352c7360e01b8152600490fd5b3360009081527f06484cc59dc38e4f67c31122333a17ca81b3ca18cdf02bfc298072fa52b0316a60205260409020600080516020611af98339815191529060ff905b5416156112d85750565b6044906040519063e2517d3f60e01b82523360048301526024820152fd5b6000818152600080516020611b1983398151915260209081526040808320338452909152902060ff906112ce565b61132d81611684565b9081611337575090565b60008052600080516020611ad9833981519152602052611380906001600160a01b03167f615f0f9e84155bea8cc509fe18befeb1baf65611e38a6ba60964480fb29dfd44611972565b5090565b61138d81611739565b9081611397575090565b600080516020611af9833981519152600052600080516020611ad9833981519152602052611380906001600160a01b03167f4100344b6aa56dacd4c22fd3b2e50ba7459cdb2cf0a0bdb443a7a9a08e239af6611972565b6113f781611801565b9081611401575090565b7fef6d3da212345543d99125b43af0bc451d30ffaf90d4560558d702b21179a70f600052600080516020611ad9833981519152602052611380906001600160a01b03167f2a1142874afdd3975f3878385236275fe5696f5da5964fb5907259b9a3c1ca6f611972565b61147482826118ac565b918261147f57505090565b6000918252600080516020611ad98339815191526020526040909120611380916001600160a01b031690611a23565b519067ffffffffffffffff8216820361029857565b51906fffffffffffffffffffffffffffffffff8216820361029857565b60045481018091116108ff5760015460405163079d004d60e51b815290610100908190839060049082906001600160a01b03165afa9182156108a15760009261154b575b5050602001516115469067ffffffffffffffff165b67ffffffffffffffff1690565b101590565b9080925081813d8311611618575b61156381836104bd565b810103126102985760405191820182811067ffffffffffffffff821117610488576115469261160c60e0611539946020946040526115a0816114ae565b84526115ad8582016114ae565b858501526115bd604082016114ae565b60408501526115ce606082016114ae565b60608501526115df608082016114c3565b60808501526115f060a082016114c3565b60a085015261160160c082016114c3565b60c0850152016114c3565b60e08201529250611524565b503d611559565b929060061b622673c001603f5a0210611643576000928392602083519301915af190565b6308c379a06000526020805278185361666543616c6c3a204e6f7420656e6f756768206761736058526064601cfd5b908082101561167f575090565b905090565b6001600160a01b03811660009081527fb7db2dd08fcb62d0c9e08c51941cae53c267786a0b75803fb7960902fc8ef97d6020526040812054600080516020611b198339815191529060ff1661173357818052602090815260408083206001600160a01b038516600090815292529020805460ff1916600117905533916001600160a01b0316907f2f8788117e7eff1d82e926ec794901d17c78024a50270940304540a733656f0d8180a4600190565b50905090565b6001600160a01b03811660009081527f06484cc59dc38e4f67c31122333a17ca81b3ca18cdf02bfc298072fa52b0316a60205260408120600080516020611af983398151915290600080516020611b198339815191529060ff905b54166117fa57818352602090815260408084206001600160a01b038616600090815292529020805460ff1916600117905533926001600160a01b0316917f2f8788117e7eff1d82e926ec794901d17c78024a50270940304540a733656f0d9080a4600190565b5050905090565b6001600160a01b03811660009081527fba28393f1800d428719a5c12102466ead7c827971afe2bdb3b2aabc703907367602052604081207fef6d3da212345543d99125b43af0bc451d30ffaf90d4560558d702b21179a70f90600080516020611b198339815191529060ff90611794565b6000818152600080516020611b19833981519152602081815260408084206001600160a01b0387168552909152822091929160ff90611794565b6000818152600080516020611b19833981519152602081815260408084206001600160a01b038716855290915282205491929160ff16156117fa57818352602090815260408084206001600160a01b038616600090815292529020805460ff1916905533926001600160a01b0316917ff6391f5c32d9c69d2a47ea670b442974b53935d1edc7fd64eb21e047a839171b9080a4600190565b805482101561195c5760005260206000200190600090565b634e487b7160e01b600052603260045260246000fd5b60018101908260005281602052604060002054156000146119db578054600160401b811015610488576119c66119af826001879401855584611944565b819391549060031b91821b91600019901b19161790565b90555491600052602052604060002055600190565b505050600090565b8054908115611a0d57600019918201916119fd8383611944565b909182549160031b1b1916905555565b634e487b7160e01b600052603160045260246000fd5b6001810191806000528260205260406000205492831515600014611acf5760001992848401908582116108ff5780549485019485116108ff576000958583611a8697611a779503611a8c575b5050506119e3565b90600052602052604060002090565b55600190565b611ab6611ab091611aa0611ac69487611944565b90549060031b1c92839187611944565b906111bc565b8590600052602052604060002090565b55388080611a6f565b5050505060009056fec1f6fe24621ce81ec5827caf0253cadb74709b061630e6b55e82371705932000241ecf16d79d0f8dbfb92cbc07fe17840425976cf0667f022fe9877caa831b0802dd7bc7dec4dceedda775e58dd541e08a116c6c53815c0bd028192f7b626800f0c57e16840df040f15088dc2f81fe391c3923bec73e23a9662efc9c229c6a00a2646970667358221220f625fe1ecef5f31998c58915213c829dcda42c7431e9cdb017e6bb14038ec2a664736f6c63430008180033","linkReferences":{}},"methodIdentifiers":{"DEFAULT_ADMIN_ROLE()":"a217fddf","MANAGER_ROLE()":"ec87621c","REQUEST_CANCELLER_ROLE()":"fe3af1c1","allocateETH()":"4d13bfa6","allocatedETHDeficit()":"106b263c","allocatedETHForClaims()":"1453444d","allocatedETHSurplus()":"c02d4c8e","balance()":"b69ef8a8","claim(address,address,uint256,uint256,uint256)":"3c824919","create(address,address,uint256,uint256,uint256)":"891b1a00","currentRequestedCumulativeETH(uint256,address)":"f48811a5","dETH()":"277f1758","dEthLockedAmount(uint256,address)":"a75c3e17","getRoleAdmin(bytes32)":"248a9ca3","getRoleMember(bytes32,uint256)":"9010d07c","getRoleMemberCount(bytes32)":"ca15c873","grantRole(bytes32,address)":"2f2ff15d","hasRole(bytes32,address)":"91d14854","initialize((address,address,address,address,address,address,uint256))":"2d830ce3","l2ChainStrategyAmount(uint256,address)":"a5a05aee","l2ChainStrategyBlockNumber(uint256,address)":"88a3e1af","latestCumulativeETHRequested()":"278c5acd","numberOfBlocksToFinalize()":"ae5cf272","oracle()":"7dc0d1d0","renounceRole(bytes32,address)":"36568abe","requestByID(uint256,address)":"7b2071c6","requestInfo(uint256,address)":"d4be074f","revokeRole(bytes32,address)":"d547741f","setNumberOfBlocksToFinalize(uint256)":"28ad3aac","stakingContract()":"ee99205c","supportsInterface(bytes4)":"01ffc9a7","totalClaimed()":"d54ad2a1","withdrawAllocatedETHSurplus()":"b2d42b46"},"id":82}