{"abi":[{"type":"constructor","inputs":[],"stateMutability":"nonpayable"},{"type":"fallback","stateMutability":"payable"},{"type":"receive","stateMutability":"payable"},{"type":"function","name":"DEFAULT_ADMIN_ROLE","inputs":[],"outputs":[{"name":"","type":"bytes32","internalType":"bytes32"}],"stateMutability":"view"},{"type":"function","name":"MANAGER_ROLE","inputs":[],"outputs":[{"name":"","type":"bytes32","internalType":"bytes32"}],"stateMutability":"view"},{"type":"function","name":"REQUEST_CANCELLER_ROLE","inputs":[],"outputs":[{"name":"","type":"bytes32","internalType":"bytes32"}],"stateMutability":"view"},{"type":"function","name":"allocateETH","inputs":[],"outputs":[],"stateMutability":"payable"},{"type":"function","name":"allocatedETHDeficit","inputs":[],"outputs":[{"name":"","type":"uint256","internalType":"uint256"}],"stateMutability":"view"},{"type":"function","name":"allocatedETHForClaims","inputs":[],"outputs":[{"name":"","type":"uint256","internalType":"uint256"}],"stateMutability":"view"},{"type":"function","name":"allocatedETHSurplus","inputs":[],"outputs":[{"name":"","type":"uint256","internalType":"uint256"}],"stateMutability":"view"},{"type":"function","name":"balance","inputs":[],"outputs":[{"name":"","type":"uint256","internalType":"uint256"}],"stateMutability":"view"},{"type":"function","name":"cancelUnfinalizedRequests","inputs":[{"name":"maxCancel","type":"uint256","internalType":"uint256"}],"outputs":[{"name":"","type":"bool","internalType":"bool"}],"stateMutability":"nonpayable"},{"type":"function","name":"claim","inputs":[{"name":"requestID","type":"uint256","internalType":"uint256"},{"name":"requester","type":"address","internalType":"address"},{"name":"bridge","type":"address","internalType":"address"},{"name":"sourceChainId","type":"uint256","internalType":"uint256"},{"name":"destChainId","type":"uint256","internalType":"uint256"},{"name":"gasLimit","type":"uint256","internalType":"uint256"}],"outputs":[{"name":"","type":"bool","internalType":"bool"}],"stateMutability":"nonpayable"},{"type":"function","name":"create","inputs":[{"name":"requester","type":"address","internalType":"address"},{"name":"dETHLocked","type":"uint256","internalType":"uint256"},{"name":"ethRequested","type":"uint256","internalType":"uint256"}],"outputs":[{"name":"","type":"uint256","internalType":"uint256"}],"stateMutability":"nonpayable"},{"type":"function","name":"dETH","inputs":[],"outputs":[{"name":"","type":"address","internalType":"contract IDETH"}],"stateMutability":"view"},{"type":"function","name":"getRoleAdmin","inputs":[{"name":"role","type":"bytes32","internalType":"bytes32"}],"outputs":[{"name":"","type":"bytes32","internalType":"bytes32"}],"stateMutability":"view"},{"type":"function","name":"getRoleMember","inputs":[{"name":"role","type":"bytes32","internalType":"bytes32"},{"name":"index","type":"uint256","internalType":"uint256"}],"outputs":[{"name":"","type":"address","internalType":"address"}],"stateMutability":"view"},{"type":"function","name":"getRoleMemberCount","inputs":[{"name":"role","type":"bytes32","internalType":"bytes32"}],"outputs":[{"name":"","type":"uint256","internalType":"uint256"}],"stateMutability":"view"},{"type":"function","name":"grantRole","inputs":[{"name":"role","type":"bytes32","internalType":"bytes32"},{"name":"account","type":"address","internalType":"address"}],"outputs":[],"stateMutability":"nonpayable"},{"type":"function","name":"hasRole","inputs":[{"name":"role","type":"bytes32","internalType":"bytes32"},{"name":"account","type":"address","internalType":"address"}],"outputs":[{"name":"","type":"bool","internalType":"bool"}],"stateMutability":"view"},{"type":"function","name":"initialize","inputs":[{"name":"init","type":"tuple","internalType":"struct UnstakeRequestsManager.Init","components":[{"name":"admin","type":"address","internalType":"address"},{"name":"manager","type":"address","internalType":"address"},{"name":"requestCanceller","type":"address","internalType":"address"},{"name":"dETH","type":"address","internalType":"contract IDETH"},{"name":"stakingContract","type":"address","internalType":"contract IStakingManagerReturnsWrite"},{"name":"oracle","type":"address","internalType":"contract IOracleReadRecord"},{"name":"numberOfBlocksToFinalize","type":"uint256","internalType":"uint256"}]}],"outputs":[],"stateMutability":"nonpayable"},{"type":"function","name":"latestCumulativeETHRequested","inputs":[],"outputs":[{"name":"","type":"uint256","internalType":"uint256"}],"stateMutability":"view"},{"type":"function","name":"nextRequestId","inputs":[],"outputs":[{"name":"","type":"uint256","internalType":"uint256"}],"stateMutability":"view"},{"type":"function","name":"numberOfBlocksToFinalize","inputs":[],"outputs":[{"name":"","type":"uint256","internalType":"uint256"}],"stateMutability":"view"},{"type":"function","name":"oracle","inputs":[],"outputs":[{"name":"","type":"address","internalType":"contract IOracleReadRecord"}],"stateMutability":"view"},{"type":"function","name":"renounceRole","inputs":[{"name":"role","type":"bytes32","internalType":"bytes32"},{"name":"callerConfirmation","type":"address","internalType":"address"}],"outputs":[],"stateMutability":"nonpayable"},{"type":"function","name":"requestByID","inputs":[{"name":"requestID","type":"uint256","internalType":"uint256"}],"outputs":[{"name":"","type":"tuple","internalType":"struct UnstakeRequest","components":[{"name":"blockNumber","type":"uint64","internalType":"uint64"},{"name":"requester","type":"address","internalType":"address"},{"name":"id","type":"uint128","internalType":"uint128"},{"name":"dETHLocked","type":"uint256","internalType":"uint256"},{"name":"ethRequested","type":"uint256","internalType":"uint256"},{"name":"cumulativeETHRequested","type":"uint256","internalType":"uint256"}]}],"stateMutability":"view"},{"type":"function","name":"requestInfo","inputs":[{"name":"requestID","type":"uint256","internalType":"uint256"}],"outputs":[{"name":"","type":"bool","internalType":"bool"},{"name":"","type":"uint256","internalType":"uint256"}],"stateMutability":"view"},{"type":"function","name":"revokeRole","inputs":[{"name":"role","type":"bytes32","internalType":"bytes32"},{"name":"account","type":"address","internalType":"address"}],"outputs":[],"stateMutability":"nonpayable"},{"type":"function","name":"setNumberOfBlocksToFinalize","inputs":[{"name":"numberOfBlocksToFinalize_","type":"uint256","internalType":"uint256"}],"outputs":[],"stateMutability":"nonpayable"},{"type":"function","name":"stakingContract","inputs":[],"outputs":[{"name":"","type":"address","internalType":"contract IStakingManagerReturnsWrite"}],"stateMutability":"view"},{"type":"function","name":"supportsInterface","inputs":[{"name":"interfaceId","type":"bytes4","internalType":"bytes4"}],"outputs":[{"name":"","type":"bool","internalType":"bool"}],"stateMutability":"view"},{"type":"function","name":"totalClaimed","inputs":[],"outputs":[{"name":"","type":"uint256","internalType":"uint256"}],"stateMutability":"view"},{"type":"function","name":"withdrawAllocatedETHSurplus","inputs":[],"outputs":[],"stateMutability":"nonpayable"},{"type":"event","name":"Initialized","inputs":[{"name":"version","type":"uint64","indexed":false,"internalType":"uint64"}],"anonymous":false},{"type":"event","name":"ProtocolConfigChanged","inputs":[{"name":"setterSelector","type":"bytes4","indexed":true,"internalType":"bytes4"},{"name":"setterSignature","type":"string","indexed":false,"internalType":"string"},{"name":"value","type":"bytes","indexed":false,"internalType":"bytes"}],"anonymous":false},{"type":"event","name":"RoleAdminChanged","inputs":[{"name":"role","type":"bytes32","indexed":true,"internalType":"bytes32"},{"name":"previousAdminRole","type":"bytes32","indexed":true,"internalType":"bytes32"},{"name":"newAdminRole","type":"bytes32","indexed":true,"internalType":"bytes32"}],"anonymous":false},{"type":"event","name":"RoleGranted","inputs":[{"name":"role","type":"bytes32","indexed":true,"internalType":"bytes32"},{"name":"account","type":"address","indexed":true,"internalType":"address"},{"name":"sender","type":"address","indexed":true,"internalType":"address"}],"anonymous":false},{"type":"event","name":"RoleRevoked","inputs":[{"name":"role","type":"bytes32","indexed":true,"internalType":"bytes32"},{"name":"account","type":"address","indexed":true,"internalType":"address"},{"name":"sender","type":"address","indexed":true,"internalType":"address"}],"anonymous":false},{"type":"event","name":"UnstakeRequestCancelled","inputs":[{"name":"id","type":"uint256","indexed":true,"internalType":"uint256"},{"name":"requester","type":"address","indexed":true,"internalType":"address"},{"name":"dETHLocked","type":"uint256","indexed":false,"internalType":"uint256"},{"name":"ethRequested","type":"uint256","indexed":false,"internalType":"uint256"},{"name":"cumulativeETHRequested","type":"uint256","indexed":false,"internalType":"uint256"},{"name":"blockNumber","type":"uint256","indexed":false,"internalType":"uint256"}],"anonymous":false},{"type":"event","name":"UnstakeRequestClaimed","inputs":[{"name":"id","type":"uint256","indexed":true,"internalType":"uint256"},{"name":"requester","type":"address","indexed":true,"internalType":"address"},{"name":"dETHLocked","type":"uint256","indexed":false,"internalType":"uint256"},{"name":"ethRequested","type":"uint256","indexed":false,"internalType":"uint256"},{"name":"cumulativeETHRequested","type":"uint256","indexed":false,"internalType":"uint256"},{"name":"blockNumber","type":"uint256","indexed":false,"internalType":"uint256"}],"anonymous":false},{"type":"event","name":"UnstakeRequestCreated","inputs":[{"name":"id","type":"uint256","indexed":true,"internalType":"uint256"},{"name":"requester","type":"address","indexed":true,"internalType":"address"},{"name":"dETHLocked","type":"uint256","indexed":false,"internalType":"uint256"},{"name":"ethRequested","type":"uint256","indexed":false,"internalType":"uint256"},{"name":"cumulativeETHRequested","type":"uint256","indexed":false,"internalType":"uint256"},{"name":"blockNumber","type":"uint256","indexed":false,"internalType":"uint256"}],"anonymous":false},{"type":"error","name":"AccessControlBadConfirmation","inputs":[]},{"type":"error","name":"AccessControlUnauthorizedAccount","inputs":[{"name":"account","type":"address","internalType":"address"},{"name":"neededRole","type":"bytes32","internalType":"bytes32"}]},{"type":"error","name":"AddressEmptyCode","inputs":[{"name":"target","type":"address","internalType":"address"}]},{"type":"error","name":"AddressInsufficientBalance","inputs":[{"name":"account","type":"address","internalType":"address"}]},{"type":"error","name":"AlreadyClaimed","inputs":[]},{"type":"error","name":"DoesNotReceiveETH","inputs":[]},{"type":"error","name":"FailedInnerCall","inputs":[]},{"type":"error","name":"InvalidInitialization","inputs":[]},{"type":"error","name":"NotEnoughFunds","inputs":[{"name":"cumulativeETHOnRequest","type":"uint256","internalType":"uint256"},{"name":"allocatedETHForClaims","type":"uint256","internalType":"uint256"}]},{"type":"error","name":"NotFinalized","inputs":[]},{"type":"error","name":"NotInitializing","inputs":[]},{"type":"error","name":"NotRequester","inputs":[]},{"type":"error","name":"NotStakingManagerContract","inputs":[]},{"type":"error","name":"SafeERC20FailedOperation","inputs":[{"name":"token","type":"address","internalType":"address"}]}],"bytecode":{"object":"0x608060405234801561001057600080fd5b5061001961001e565b6100d0565b7ff0c57e16840df040f15088dc2f81fe391c3923bec73e23a9662efc9c229c6a00805468010000000000000000900460ff161561006e5760405163f92ee8a960e01b815260040160405180910390fd5b80546001600160401b03908116146100cd5780546001600160401b0319166001600160401b0390811782556040519081527fc7f505b2f371ae2175ee4913f4499e1f2633a7b5936321eed1cdaeb6115181d29060200160405180910390a15b50565b61221180620000e06000396000f3fe6080604052600436106101dc5760003560e01c80636a84a98511610102578063b69ef8a811610095578063d54ad2a111610064578063d54ad2a1146105b1578063ec87621c146105c7578063ee99205c146105fb578063fe3af1c11461061b576101fa565b8063b69ef8a814610547578063c02d4c8e1461055c578063ca15c87314610571578063d547741f14610591576101fa565b80639a6e6ed1116100d15780639a6e6ed114610485578063a217fddf14610507578063ae5cf2721461051c578063b2d42b4614610532576101fa565b80636a84a985146104105780637dc0d1d0146104255780639010d07c1461044557806391d1485414610465576101fa565b806328ad3aac1161017a5780634d13bfa6116101495780634d13bfa6146103915780634f588bf1146103995780635165da30146103d05780636681dac0146103f0576101fa565b806328ad3aac1461030f5780632d830ce3146103315780632f2ff15d1461035157806336568abe14610371576101fa565b80631e846464116101b65780631e84646414610281578063248a9ca3146102a1578063277f1758146102c1578063278c5acd146102f9576101fa565b806301ffc9a714610213578063106b263c146102485780631453444d1461026b576101fa565b366101fa576040516334352c7360e01b815260040160405180910390fd5b6040516334352c7360e01b815260040160405180910390fd5b34801561021f57600080fd5b5061023361022e366004611d22565b61064f565b60405190151581526020015b60405180910390f35b34801561025457600080fd5b5061025d61067a565b60405190815260200161023f565b34801561027757600080fd5b5061025d60025481565b34801561028d57600080fd5b5061023361029c366004611d4c565b6106a3565b3480156102ad57600080fd5b5061025d6102bc366004611d4c565b610a76565b3480156102cd57600080fd5b506005546102e1906001600160a01b031681565b6040516001600160a01b03909116815260200161023f565b34801561030557600080fd5b5061025d60065481565b34801561031b57600080fd5b5061032f61032a366004611d4c565b610a98565b005b34801561033d57600080fd5b5061032f61034c366004611da0565b610b24565b34801561035d57600080fd5b5061032f61036c366004611e61565b610cf3565b34801561037d57600080fd5b5061032f61038c366004611e61565b610d15565b61032f610d4d565b3480156103a557600080fd5b506103b96103b4366004611d4c565b610d91565b60408051921515835260208301919091520161023f565b3480156103dc57600080fd5b5061025d6103eb366004611e91565b610e74565b3480156103fc57600080fd5b5061023361040b366004611ec6565b61104c565b34801561041c57600080fd5b5060075461025d565b34801561043157600080fd5b506001546102e1906001600160a01b031681565b34801561045157600080fd5b506102e1610460366004611f22565b611379565b34801561047157600080fd5b50610233610480366004611e61565b6113a8565b34801561049157600080fd5b506104a56104a0366004611d4c565b6113e0565b60405161023f919081516001600160401b031681526020808301516001600160a01b0316908201526040808301516001600160801b031690820152606080830151908201526080808301519082015260a0918201519181019190915260c00190565b34801561051357600080fd5b5061025d600081565b34801561052857600080fd5b5061025d60045481565b34801561053e57600080fd5b5061032f611475565b34801561055357600080fd5b5061025d611529565b34801561056857600080fd5b5061025d611547565b34801561057d57600080fd5b5061025d61058c366004611d4c565b611565565b34801561059d57600080fd5b5061032f6105ac366004611e61565b61158b565b3480156105bd57600080fd5b5061025d60035481565b3480156105d357600080fd5b5061025d7f241ecf16d79d0f8dbfb92cbc07fe17840425976cf0667f022fe9877caa831b0881565b34801561060757600080fd5b506000546102e1906001600160a01b031681565b34801561062757600080fd5b5061025d7fef6d3da212345543d99125b43af0bc451d30ffaf90d4560558d702b21179a70f81565b60006001600160e01b03198216635a05180f60e01b14806106745750610674826115a7565b92915050565b6000600254600654111561069d576002546006546106989190611f5a565b905090565b50600090565b60007fef6d3da212345543d99125b43af0bc451d30ffaf90d4560558d702b21179a70f6106cf816115dc565b60075460008190036106e5576000925050610a70565b838110156106f1578093505b6000846001600160401b0381111561070b5761070b611d65565b60405190808252806020026020018201604052801561074457816020015b610731611cd1565b8152602001906001900390816107295790505b5090506000805b8682101561092857600780546000919061076790600190611f5a565b8154811061077757610777611f6d565b60009182526020918290206040805160c081018252600590930290910180546001600160401b03811684526001600160a01b03600160401b909104169383019390935260018301546001600160801b031690820152600282015460608201526003820154608082015260049091015460a082015290506107f6816115e9565b156108015750610928565b600780548061081257610812611f83565b60008281526020812060056000199093019283020180546001600160e01b03191681556001810180546001600160801b031916905560028101829055600381018290556004015590558351819085908590811061087157610871611f6d565b60200260200101819052508261088690611f99565b92508060800151826108989190611fb2565b915080602001516001600160a01b031681604001516001600160801b03167ff8d5df096390c80d709314ba3a8e55a91854bab1fbf8cce78081bdd48eb49aed836060015184608001518560a00151866000015160405161091a9493929190938452602084019290925260408301526001600160401b0316606082015260800190565b60405180910390a35061074b565b80156109465780600660008282546109409190611f5a565b90915550505b60075460009080820361095c57600091506109ff565b6000600761096b600184611f5a565b8154811061097b5761097b611f6d565b60009182526020918290206040805160c081018252600590930290910180546001600160401b03811684526001600160a01b03600160401b909104169383019390935260018301546001600160801b031690820152600282015460608201526003820154608082015260049091015460a082015290506109fa816115e9565b159250505b60005b84811015610a66576005548651610a5e916001600160a01b031690889084908110610a2f57610a2f611f6d565b602002602001015160200151888481518110610a4d57610a4d611f6d565b602002602001015160600151611688565b600101610a02565b5090965050505050505b50919050565b60009081526000805160206121bc833981519152602052604090206001015490565b7f241ecf16d79d0f8dbfb92cbc07fe17840425976cf0667f022fe9877caa831b08610ac2816115dc565b60048290556040805160208101849052630a2b4eab60e21b917f01d854e8dde9402801a4c6f2840193465752abfad61e0bb7c4258d526ae42e74910160408051601f1981840301815290829052610b1891611fe9565b60405180910390a25050565b7ff0c57e16840df040f15088dc2f81fe391c3923bec73e23a9662efc9c229c6a008054600160401b810460ff1615906001600160401b0316600081158015610b695750825b90506000826001600160401b03166001148015610b855750303b155b905081158015610b93575080155b15610bb15760405163f92ee8a960e01b815260040160405180910390fd5b845467ffffffffffffffff191660011785558315610bdb57845460ff60401b1916600160401b1785555b610be36116da565b8551610bf1906000906116e2565b5060c08601516004556080860151600080546001600160a01b039283166001600160a01b03199182161790915560a0880151600180549184169183169190911790556060880151600580549190931691161790556020860151610c75907f241ecf16d79d0f8dbfb92cbc07fe17840425976cf0667f022fe9877caa831b08906116e2565b50610ca47fef6d3da212345543d99125b43af0bc451d30ffaf90d4560558d702b21179a70f87604001516116e2565b508315610ceb57845460ff60401b19168555604051600181527fc7f505b2f371ae2175ee4913f4499e1f2633a7b5936321eed1cdaeb6115181d29060200160405180910390a15b505050505050565b610cfc82610a76565b610d05816115dc565b610d0f83836116e2565b50505050565b6001600160a01b0381163314610d3e5760405163334bd91960e11b815260040160405180910390fd5b610d488282611727565b505050565b6000546001600160a01b03163314610d7857604051631cec3cdb60e31b815260040160405180910390fd5b3460026000828254610d8a9190611fb2565b9091555050565b600080600060078481548110610da957610da9611f6d565b600091825260208083206040805160c081018252600590940290910180546001600160401b03811685526001600160a01b03600160401b909104169284019290925260018201546001600160801b03169083015260028101546060830152600381015460808301526004015460a08201529150610e25826115e9565b905060008083608001518460a00151610e3e9190611f5a565b9050600254811015610e6857610e6581600254610e5b9190611f5a565b8560800151611763565b91505b50909590945092505050565b600080546001600160a01b03163314610ea057604051631cec3cdb60e31b815260040160405180910390fd5b600082600654610eb09190611fb2565b90506000600780549050905060006040518060c00160405280436001600160401b03168152602001886001600160a01b03168152602001836001600160801b03168152602001878152602001868152602001848152509050600781908060018154018082558091505060019003906000526020600020906005020160009091909190915060008201518160000160006101000a8154816001600160401b0302191690836001600160401b0316021790555060208201518160000160086101000a8154816001600160a01b0302191690836001600160a01b0316021790555060408201518160010160006101000a8154816001600160801b0302191690836001600160801b03160217905550606082015181600201556080820151816003015560a08201518160040155505082600681905550866001600160a01b0316827fed5afdabca1838de7f5496f997e6e788ad3207f6299f64700e63435813b7ade488888743604051611038949392919093845260208401929092526040830152606082015260800190565b60405180910390a3509150505b9392505050565b600080546001600160a01b0316331461107857604051631cec3cdb60e31b815260040160405180910390fd5b60006007888154811061108d5761108d611f6d565b60009182526020918290206040805160c081018252600590930290910180546001600160401b03811684526001600160a01b03600160401b9091041693830184905260018101546001600160801b03169183019190915260028101546060830152600381015460808301526004015460a0820152915061112057604051630c8d9eab60e31b815260040160405180910390fd5b80602001516001600160a01b0316876001600160a01b031614611156576040516371ced2cf60e11b815260040160405180910390fd5b61115f816115e9565b61117c57604051630df706ad60e11b815260040160405180910390fd5b6002548160a0015111156111b95760a08101516002546040516311920a6d60e31b8152600481019290925260248201526044015b60405180910390fd5b600788815481106111cc576111cc611f6d565b60009182526020822060059091020180546001600160e01b03191681556001810180546001600160801b0319169055600281018290556003808201839055600490910182905560808301518154909290611227908490611fb2565b909155505060608082015160808084015160a08501518551604080519586526020860193909352918401526001600160401b0316928201929092526001600160a01b038916918a917f5de6f9e4fdf1b740a7ba3b485303743eec250be281a2dd4df046c7fcecbdb04d910160405180910390a36005546060820151604051630852cd8d60e31b81526001600160a01b03909216916342966c68916112d19160040190815260200190565b600060405180830381600087803b1580156112eb57600080fd5b505af11580156112ff573d6000803e3d6000fd5b50505050608081015160405160248101879052604481018690526001600160a01b03881660648201526084810182905260009161136c918991879160a40160408051601f198184030181529190526020810180516001600160e01b03166371bbb61760e01b179052611779565b9998505050505050505050565b600082815260008051602061219c8339815191526020819052604082206113a090846117d7565b949350505050565b60009182526000805160206121bc833981519152602090815260408084206001600160a01b0393909316845291905290205460ff1690565b6113e8611cd1565b600782815481106113fb576113fb611f6d565b60009182526020918290206040805160c081018252600590930290910180546001600160401b03811684526001600160a01b03600160401b909104169383019390935260018301546001600160801b031690820152600282015460608201526003820154608082015260049091015460a082015292915050565b6000546001600160a01b031633146114a057604051631cec3cdb60e31b815260040160405180910390fd5b60006114aa611547565b9050806000036114b75750565b80600260008282546114c99190611f5a565b909155505060008054604080516360a8d53960e11b815290516001600160a01b039092169263c151aa72928592600480820193929182900301818588803b15801561151357600080fd5b505af1158015610ceb573d6000803e3d6000fd5b565b6000600354600254111561069d576003546002546106989190611f5a565b6000600654600254111561069d576006546002546106989190611f5a565b600081815260008051602061219c833981519152602081905260408220611045906117e3565b61159482610a76565b61159d816115dc565b610d0f8383611727565b60006001600160e01b03198216637965db0b60e01b148061067457506301ffc9a760e01b6001600160e01b0319831614610674565b6115e681336117ed565b50565b6001546040805163079d004d60e51b815290516000926001600160a01b03169163f3a009a0916004808301926101009291908290030181865afa158015611634573d6000803e3d6000fd5b505050506040513d601f19601f82011682018060405250810190611658919061208b565b602001516001600160401b031660045483600001516001600160401b03166116809190611fb2565b111592915050565b604080516001600160a01b038416602482015260448082018490528251808303909101815260649091019091526020810180516001600160e01b031663a9059cbb60e01b179052610d4890849061182a565b61152761188d565b600060008051602061219c833981519152816116fe85856118d6565b905080156113a057600085815260208390526040902061171e908561197b565b50949350505050565b600060008051602061219c833981519152816117438585611990565b905080156113a057600085815260208390526040902061171e9085611a0c565b60008183106117725781611045565b5090919050565b6000806000611789866000611a21565b9050806117bf576308c379a06000526020805278185361666543616c6c3a204e6f7420656e6f756768206761736058526064601cfd5b600080855160208701888b5af1979650505050505050565b60006110458383611a3f565b6000610674825490565b6117f782826113a8565b6118265760405163e2517d3f60e01b81526001600160a01b0382166004820152602481018390526044016111b0565b5050565b600061183f6001600160a01b03841683611a69565b90508051600014158015611864575080806020019051810190611862919061215d565b155b15610d4857604051635274afe760e01b81526001600160a01b03841660048201526024016111b0565b7ff0c57e16840df040f15088dc2f81fe391c3923bec73e23a9662efc9c229c6a0054600160401b900460ff1661152757604051631afcd79f60e31b815260040160405180910390fd5b60006000805160206121bc8339815191526118f184846113a8565b611971576000848152602082815260408083206001600160a01b03871684529091529020805460ff191660011790556119273390565b6001600160a01b0316836001600160a01b0316857f2f8788117e7eff1d82e926ec794901d17c78024a50270940304540a733656f0d60405160405180910390a46001915050610674565b6000915050610674565b6000611045836001600160a01b038416611a77565b60006000805160206121bc8339815191526119ab84846113a8565b15611971576000848152602082815260408083206001600160a01b0387168085529252808320805460ff1916905551339287917ff6391f5c32d9c69d2a47ea670b442974b53935d1edc7fd64eb21e047a839171b9190a46001915050610674565b6000611045836001600160a01b038416611ac6565b600080603f83619c4001026040850201603f5a021015949350505050565b6000826000018281548110611a5657611a56611f6d565b9060005260206000200154905092915050565b606061104583836000611baf565b6000818152600183016020526040812054611abe57508154600181810184556000848152602080822090930184905584548482528286019093526040902091909155610674565b506000610674565b60008181526001830160205260408120548015611971576000611aea600183611f5a565b8554909150600090611afe90600190611f5a565b9050808214611b63576000866000018281548110611b1e57611b1e611f6d565b9060005260206000200154905080876000018481548110611b4157611b41611f6d565b6000918252602080832090910192909255918252600188019052604090208390555b8554869080611b7457611b74611f83565b600190038181906000526020600020016000905590558560010160008681526020019081526020016000206000905560019350505050610674565b606081471015611bd45760405163cd78605960e01b81523060048201526024016111b0565b600080856001600160a01b03168486604051611bf0919061217f565b60006040518083038185875af1925050503d8060008114611c2d576040519150601f19603f3d011682016040523d82523d6000602084013e611c32565b606091505b5091509150611c42868383611c4c565b9695505050505050565b606082611c6157611c5c82611ca8565b611045565b8151158015611c7857506001600160a01b0384163b155b15611ca157604051639996b31560e01b81526001600160a01b03851660048201526024016111b0565b5080611045565b805115611cb85780518082602001fd5b604051630a12f52160e11b815260040160405180910390fd5b6040518060c0016040528060006001600160401b0316815260200160006001600160a01b0316815260200160006001600160801b031681526020016000815260200160008152602001600081525090565b600060208284031215611d3457600080fd5b81356001600160e01b03198116811461104557600080fd5b600060208284031215611d5e57600080fd5b5035919050565b634e487b7160e01b600052604160045260246000fd5b6001600160a01b03811681146115e657600080fd5b8035611d9b81611d7b565b919050565b600060e08284031215611db257600080fd5b60405160e081018181106001600160401b0382111715611de257634e487b7160e01b600052604160045260246000fd5b6040528235611df081611d7b565b81526020830135611e0081611d7b565b60208201526040830135611e1381611d7b565b60408201526060830135611e2681611d7b565b6060820152611e3760808401611d90565b6080820152611e4860a08401611d90565b60a082015260c083013560c08201528091505092915050565b60008060408385031215611e7457600080fd5b823591506020830135611e8681611d7b565b809150509250929050565b600080600060608486031215611ea657600080fd5b8335611eb181611d7b565b95602085013595506040909401359392505050565b60008060008060008060c08789031215611edf57600080fd5b863595506020870135611ef181611d7b565b94506040870135611f0181611d7b565b959894975094956060810135955060808101359460a0909101359350915050565b60008060408385031215611f3557600080fd5b50508035926020909101359150565b634e487b7160e01b600052601160045260246000fd5b8181038181111561067457610674611f44565b634e487b7160e01b600052603260045260246000fd5b634e487b7160e01b600052603160045260246000fd5b600060018201611fab57611fab611f44565b5060010190565b8082018082111561067457610674611f44565b60005b83811015611fe0578181015183820152602001611fc8565b50506000910152565b60408152602460408201527f7365744e756d6265724f66426c6f636b73546f46696e616c697a652875696e746060820152633235362960e01b608082015260a06020820152600082518060a08401526120498160c0850160208701611fc5565b601f01601f19169190910160c00192915050565b80516001600160401b0381168114611d9b57600080fd5b80516001600160801b0381168114611d9b57600080fd5b600061010080838503121561209f57600080fd5b604051908101906001600160401b03821181831017156120cf57634e487b7160e01b600052604160045260246000fd5b816040526120dc8461205d565b81526120ea6020850161205d565b60208201526120fb6040850161205d565b604082015261210c6060850161205d565b606082015261211d60808501612074565b608082015261212e60a08501612074565b60a082015261213f60c08501612074565b60c082015261215060e08501612074565b60e0820152949350505050565b60006020828403121561216f57600080fd5b8151801515811461104557600080fd5b60008251612191818460208701611fc5565b919091019291505056fec1f6fe24621ce81ec5827caf0253cadb74709b061630e6b55e8237170593200002dd7bc7dec4dceedda775e58dd541e08a116c6c53815c0bd028192f7b626800a26469706673582212207f386c0603a2195b11400a081ef7df01719216c7947749156dbfb50ef2b2486864736f6c63430008180033","linkReferences":{}},"methodIdentifiers":{"DEFAULT_ADMIN_ROLE()":"a217fddf","MANAGER_ROLE()":"ec87621c","REQUEST_CANCELLER_ROLE()":"fe3af1c1","allocateETH()":"4d13bfa6","allocatedETHDeficit()":"106b263c","allocatedETHForClaims()":"1453444d","allocatedETHSurplus()":"c02d4c8e","balance()":"b69ef8a8","cancelUnfinalizedRequests(uint256)":"1e846464","claim(uint256,address,address,uint256,uint256,uint256)":"6681dac0","create(address,uint256,uint256)":"5165da30","dETH()":"277f1758","getRoleAdmin(bytes32)":"248a9ca3","getRoleMember(bytes32,uint256)":"9010d07c","getRoleMemberCount(bytes32)":"ca15c873","grantRole(bytes32,address)":"2f2ff15d","hasRole(bytes32,address)":"91d14854","initialize((address,address,address,address,address,address,uint256))":"2d830ce3","latestCumulativeETHRequested()":"278c5acd","nextRequestId()":"6a84a985","numberOfBlocksToFinalize()":"ae5cf272","oracle()":"7dc0d1d0","renounceRole(bytes32,address)":"36568abe","requestByID(uint256)":"9a6e6ed1","requestInfo(uint256)":"4f588bf1","revokeRole(bytes32,address)":"d547741f","setNumberOfBlocksToFinalize(uint256)":"28ad3aac","stakingContract()":"ee99205c","supportsInterface(bytes4)":"01ffc9a7","totalClaimed()":"d54ad2a1","withdrawAllocatedETHSurplus()":"b2d42b46"},"id":66}