{"abi":[{"type":"constructor","inputs":[{"name":"minDelay","type":"uint256","internalType":"uint256"},{"name":"proposers","type":"address[]","internalType":"address[]"},{"name":"executors","type":"address[]","internalType":"address[]"},{"name":"admin","type":"address","internalType":"address"}],"stateMutability":"nonpayable"},{"type":"receive","stateMutability":"payable"},{"type":"function","name":"CANCELLER_ROLE","inputs":[],"outputs":[{"name":"","type":"bytes32","internalType":"bytes32"}],"stateMutability":"view"},{"type":"function","name":"DEFAULT_ADMIN_ROLE","inputs":[],"outputs":[{"name":"","type":"bytes32","internalType":"bytes32"}],"stateMutability":"view"},{"type":"function","name":"EXECUTOR_ROLE","inputs":[],"outputs":[{"name":"","type":"bytes32","internalType":"bytes32"}],"stateMutability":"view"},{"type":"function","name":"PROPOSER_ROLE","inputs":[],"outputs":[{"name":"","type":"bytes32","internalType":"bytes32"}],"stateMutability":"view"},{"type":"function","name":"cancel","inputs":[{"name":"id","type":"bytes32","internalType":"bytes32"}],"outputs":[],"stateMutability":"nonpayable"},{"type":"function","name":"execute","inputs":[{"name":"target","type":"address","internalType":"address"},{"name":"value","type":"uint256","internalType":"uint256"},{"name":"payload","type":"bytes","internalType":"bytes"},{"name":"predecessor","type":"bytes32","internalType":"bytes32"},{"name":"salt","type":"bytes32","internalType":"bytes32"}],"outputs":[],"stateMutability":"payable"},{"type":"function","name":"executeBatch","inputs":[{"name":"targets","type":"address[]","internalType":"address[]"},{"name":"values","type":"uint256[]","internalType":"uint256[]"},{"name":"payloads","type":"bytes[]","internalType":"bytes[]"},{"name":"predecessor","type":"bytes32","internalType":"bytes32"},{"name":"salt","type":"bytes32","internalType":"bytes32"}],"outputs":[],"stateMutability":"payable"},{"type":"function","name":"getMinDelay","inputs":[],"outputs":[{"name":"","type":"uint256","internalType":"uint256"}],"stateMutability":"view"},{"type":"function","name":"getOperationState","inputs":[{"name":"id","type":"bytes32","internalType":"bytes32"}],"outputs":[{"name":"","type":"uint8","internalType":"enum TimelockController.OperationState"}],"stateMutability":"view"},{"type":"function","name":"getRoleAdmin","inputs":[{"name":"role","type":"bytes32","internalType":"bytes32"}],"outputs":[{"name":"","type":"bytes32","internalType":"bytes32"}],"stateMutability":"view"},{"type":"function","name":"getTimestamp","inputs":[{"name":"id","type":"bytes32","internalType":"bytes32"}],"outputs":[{"name":"","type":"uint256","internalType":"uint256"}],"stateMutability":"view"},{"type":"function","name":"grantRole","inputs":[{"name":"role","type":"bytes32","internalType":"bytes32"},{"name":"account","type":"address","internalType":"address"}],"outputs":[],"stateMutability":"nonpayable"},{"type":"function","name":"hasRole","inputs":[{"name":"role","type":"bytes32","internalType":"bytes32"},{"name":"account","type":"address","internalType":"address"}],"outputs":[{"name":"","type":"bool","internalType":"bool"}],"stateMutability":"view"},{"type":"function","name":"hashOperation","inputs":[{"name":"target","type":"address","internalType":"address"},{"name":"value","type":"uint256","internalType":"uint256"},{"name":"data","type":"bytes","internalType":"bytes"},{"name":"predecessor","type":"bytes32","internalType":"bytes32"},{"name":"salt","type":"bytes32","internalType":"bytes32"}],"outputs":[{"name":"","type":"bytes32","internalType":"bytes32"}],"stateMutability":"pure"},{"type":"function","name":"hashOperationBatch","inputs":[{"name":"targets","type":"address[]","internalType":"address[]"},{"name":"values","type":"uint256[]","internalType":"uint256[]"},{"name":"payloads","type":"bytes[]","internalType":"bytes[]"},{"name":"predecessor","type":"bytes32","internalType":"bytes32"},{"name":"salt","type":"bytes32","internalType":"bytes32"}],"outputs":[{"name":"","type":"bytes32","internalType":"bytes32"}],"stateMutability":"pure"},{"type":"function","name":"isOperation","inputs":[{"name":"id","type":"bytes32","internalType":"bytes32"}],"outputs":[{"name":"","type":"bool","internalType":"bool"}],"stateMutability":"view"},{"type":"function","name":"isOperationDone","inputs":[{"name":"id","type":"bytes32","internalType":"bytes32"}],"outputs":[{"name":"","type":"bool","internalType":"bool"}],"stateMutability":"view"},{"type":"function","name":"isOperationPending","inputs":[{"name":"id","type":"bytes32","internalType":"bytes32"}],"outputs":[{"name":"","type":"bool","internalType":"bool"}],"stateMutability":"view"},{"type":"function","name":"isOperationReady","inputs":[{"name":"id","type":"bytes32","internalType":"bytes32"}],"outputs":[{"name":"","type":"bool","internalType":"bool"}],"stateMutability":"view"},{"type":"function","name":"onERC1155BatchReceived","inputs":[{"name":"","type":"address","internalType":"address"},{"name":"","type":"address","internalType":"address"},{"name":"","type":"uint256[]","internalType":"uint256[]"},{"name":"","type":"uint256[]","internalType":"uint256[]"},{"name":"","type":"bytes","internalType":"bytes"}],"outputs":[{"name":"","type":"bytes4","internalType":"bytes4"}],"stateMutability":"nonpayable"},{"type":"function","name":"onERC1155Received","inputs":[{"name":"","type":"address","internalType":"address"},{"name":"","type":"address","internalType":"address"},{"name":"","type":"uint256","internalType":"uint256"},{"name":"","type":"uint256","internalType":"uint256"},{"name":"","type":"bytes","internalType":"bytes"}],"outputs":[{"name":"","type":"bytes4","internalType":"bytes4"}],"stateMutability":"nonpayable"},{"type":"function","name":"onERC721Received","inputs":[{"name":"","type":"address","internalType":"address"},{"name":"","type":"address","internalType":"address"},{"name":"","type":"uint256","internalType":"uint256"},{"name":"","type":"bytes","internalType":"bytes"}],"outputs":[{"name":"","type":"bytes4","internalType":"bytes4"}],"stateMutability":"nonpayable"},{"type":"function","name":"renounceRole","inputs":[{"name":"role","type":"bytes32","internalType":"bytes32"},{"name":"callerConfirmation","type":"address","internalType":"address"}],"outputs":[],"stateMutability":"nonpayable"},{"type":"function","name":"revokeRole","inputs":[{"name":"role","type":"bytes32","internalType":"bytes32"},{"name":"account","type":"address","internalType":"address"}],"outputs":[],"stateMutability":"nonpayable"},{"type":"function","name":"schedule","inputs":[{"name":"target","type":"address","internalType":"address"},{"name":"value","type":"uint256","internalType":"uint256"},{"name":"data","type":"bytes","internalType":"bytes"},{"name":"predecessor","type":"bytes32","internalType":"bytes32"},{"name":"salt","type":"bytes32","internalType":"bytes32"},{"name":"delay","type":"uint256","internalType":"uint256"}],"outputs":[],"stateMutability":"nonpayable"},{"type":"function","name":"scheduleBatch","inputs":[{"name":"targets","type":"address[]","internalType":"address[]"},{"name":"values","type":"uint256[]","internalType":"uint256[]"},{"name":"payloads","type":"bytes[]","internalType":"bytes[]"},{"name":"predecessor","type":"bytes32","internalType":"bytes32"},{"name":"salt","type":"bytes32","internalType":"bytes32"},{"name":"delay","type":"uint256","internalType":"uint256"}],"outputs":[],"stateMutability":"nonpayable"},{"type":"function","name":"supportsInterface","inputs":[{"name":"interfaceId","type":"bytes4","internalType":"bytes4"}],"outputs":[{"name":"","type":"bool","internalType":"bool"}],"stateMutability":"view"},{"type":"function","name":"updateDelay","inputs":[{"name":"newDelay","type":"uint256","internalType":"uint256"}],"outputs":[],"stateMutability":"nonpayable"},{"type":"event","name":"CallExecuted","inputs":[{"name":"id","type":"bytes32","indexed":true,"internalType":"bytes32"},{"name":"index","type":"uint256","indexed":true,"internalType":"uint256"},{"name":"target","type":"address","indexed":false,"internalType":"address"},{"name":"value","type":"uint256","indexed":false,"internalType":"uint256"},{"name":"data","type":"bytes","indexed":false,"internalType":"bytes"}],"anonymous":false},{"type":"event","name":"CallSalt","inputs":[{"name":"id","type":"bytes32","indexed":true,"internalType":"bytes32"},{"name":"salt","type":"bytes32","indexed":false,"internalType":"bytes32"}],"anonymous":false},{"type":"event","name":"CallScheduled","inputs":[{"name":"id","type":"bytes32","indexed":true,"internalType":"bytes32"},{"name":"index","type":"uint256","indexed":true,"internalType":"uint256"},{"name":"target","type":"address","indexed":false,"internalType":"address"},{"name":"value","type":"uint256","indexed":false,"internalType":"uint256"},{"name":"data","type":"bytes","indexed":false,"internalType":"bytes"},{"name":"predecessor","type":"bytes32","indexed":false,"internalType":"bytes32"},{"name":"delay","type":"uint256","indexed":false,"internalType":"uint256"}],"anonymous":false},{"type":"event","name":"Cancelled","inputs":[{"name":"id","type":"bytes32","indexed":true,"internalType":"bytes32"}],"anonymous":false},{"type":"event","name":"MinDelayChange","inputs":[{"name":"oldDuration","type":"uint256","indexed":false,"internalType":"uint256"},{"name":"newDuration","type":"uint256","indexed":false,"internalType":"uint256"}],"anonymous":false},{"type":"event","name":"RoleAdminChanged","inputs":[{"name":"role","type":"bytes32","indexed":true,"internalType":"bytes32"},{"name":"previousAdminRole","type":"bytes32","indexed":true,"internalType":"bytes32"},{"name":"newAdminRole","type":"bytes32","indexed":true,"internalType":"bytes32"}],"anonymous":false},{"type":"event","name":"RoleGranted","inputs":[{"name":"role","type":"bytes32","indexed":true,"internalType":"bytes32"},{"name":"account","type":"address","indexed":true,"internalType":"address"},{"name":"sender","type":"address","indexed":true,"internalType":"address"}],"anonymous":false},{"type":"event","name":"RoleRevoked","inputs":[{"name":"role","type":"bytes32","indexed":true,"internalType":"bytes32"},{"name":"account","type":"address","indexed":true,"internalType":"address"},{"name":"sender","type":"address","indexed":true,"internalType":"address"}],"anonymous":false},{"type":"error","name":"AccessControlBadConfirmation","inputs":[]},{"type":"error","name":"AccessControlUnauthorizedAccount","inputs":[{"name":"account","type":"address","internalType":"address"},{"name":"neededRole","type":"bytes32","internalType":"bytes32"}]},{"type":"error","name":"FailedInnerCall","inputs":[]},{"type":"error","name":"TimelockInsufficientDelay","inputs":[{"name":"delay","type":"uint256","internalType":"uint256"},{"name":"minDelay","type":"uint256","internalType":"uint256"}]},{"type":"error","name":"TimelockInvalidOperationLength","inputs":[{"name":"targets","type":"uint256","internalType":"uint256"},{"name":"payloads","type":"uint256","internalType":"uint256"},{"name":"values","type":"uint256","internalType":"uint256"}]},{"type":"error","name":"TimelockUnauthorizedCaller","inputs":[{"name":"caller","type":"address","internalType":"address"}]},{"type":"error","name":"TimelockUnexecutedPredecessor","inputs":[{"name":"predecessorId","type":"bytes32","internalType":"bytes32"}]},{"type":"error","name":"TimelockUnexpectedOperationState","inputs":[{"name":"operationId","type":"bytes32","internalType":"bytes32"},{"name":"expectedStates","type":"bytes32","internalType":"bytes32"}]}],"bytecode":{"object":"0x608060405234620001755762001a37803803806200001d816200017a565b9283398101906080818303126200017557805160208201516001600160401b039081811162000175578462000054918501620001cb565b9360408401519182116200017557620000766060916200007e938601620001cb565b9301620001b6565b906200008a3062000269565b506001600160a01b039180831662000162575b5060005b8451811015620000e95780620000c784620000bf600194896200023e565b5116620002e9565b50620000e184620000d983896200023e565b51166200038b565b5001620000a1565b50925060005b82518110156200011d578062000115836200010d600194876200023e565b511662000428565b5001620000ef565b7f11c24f4ead16507c69ac467fbd5e4eed5fb5c699626d2cc6d66421df253886d560408580600255815190600082526020820152a16040516115519081620004c68239f35b6200016d9062000269565b50386200009d565b600080fd5b6040519190601f01601f191682016001600160401b03811183821017620001a057604052565b634e487b7160e01b600052604160045260246000fd5b51906001600160a01b03821682036200017557565b81601f8201121562000175578051916020916001600160401b038411620001a0578360051b908380620002008185016200017a565b80978152019282010192831162000175578301905b82821062000224575050505090565b8380916200023284620001b6565b81520191019062000215565b8051821015620002535760209160051b010190565b634e487b7160e01b600052603260045260246000fd5b6001600160a01b031660008181527fad3228b676f7d3cd4284a5443f17f1962b36e491b30a40b2405849e597ba5fb5602052604081205490919060ff16620002e557818052816020526040822081835260205260408220600160ff19825416179055339160008051602062001a178339815191528180a4600190565b5090565b6001600160a01b031660008181527f3412d5605ac6cd444957cedb533e5dacad6378b4bc819ebe3652188a665066d560205260408120549091907fb09aa5aeb3702cfd50b6b62bc4532604938f21248a27a1d5ca736082b6819cc19060ff166200038657808352826020526040832082845260205260408320600160ff1982541617905560008051602062001a17833981519152339380a4600190565b505090565b6001600160a01b031660008181527fc3ad33e20b0c56a223ad5104fff154aa010f8715b9c981fd38fdc60a4d1a52fb60205260408120549091907ffd643c72710c63c0180259aba6b2d05451e3591a24e58b62239378085726f7839060ff166200038657808352826020526040832082845260205260408320600160ff1982541617905560008051602062001a17833981519152339380a4600190565b6001600160a01b031660008181527fdae2aa361dfd1ca020a396615627d436107c35eff9fe7738a3512819782d706960205260408120549091907fd8aa0f3194971a2a116679f7c2090f6939c8d4e01a2a8d7e41d55e5351469e639060ff166200038657808352826020526040832082845260205260408320600160ff1982541617905560008051602062001a17833981519152339380a460019056fe60406080815260049081361015610020575b5050361561001e57600080fd5b005b600091823560e01c90816301d5062a14610b0a57816301ffc9a714610a9757816307bd026514610a6e57838263134008d3146109c45750816313bc9f20146109a4578163150b7a021461094f578163248a9ca3146109255781632ab0f529146109055781632f2ff15d146108db57816331d50750146108bb57816336568abe14610875578163584b153e1461084c57816364d62353146107e05781637958004c1461079d5781638065657f1461077b5781638f2a0bb0146105db5781638f61f4f5146105a057816391d148541461055a578163a217fddf1461053f578163b08e51c014610504578163b1c5f427146104d8578163bc197c8114610452578163c4d252f514610383578163d45c44351461035b578163d547741f14610316578163e38335e5146101d8578163f23a6e6114610180575063f27a0c9203610011573461017c578160031936011261017c576020906002549051908152f35b5080fd5b8284346101d55760a03660031901126101d55761019b610be8565b506101a4610c03565b50608435906001600160401b0382116101d557506020926101c791369101610ce6565b505163f23a6e6160e01b8152f35b80fd5b90506101e336610d5d565b9098949591939296976000805160206114fc8339815191528b528a602052858b208b805260205260ff868c20541615610308575b8383148015906102fe575b6102d0575061023a610241918a868a878b888f611036565b9889611302565b885b81811061025757896102548a6113bd565b80f35b80808a7fc2617efa69bab66782fa219543714338489c4e9e178271560a91b82c3f612b588a8a6102c76102af8f988c6102a8828e6102a28f60019f61029d918591610fbb565b610fe1565b97610fbb565b3595610ff5565b906102bc82828787611368565b8d5194859485610e7d565b0390a301610243565b85516001624fcdef60e01b031981529081019283526020830185905260408301849052918291506060010390fd5b5084831415610222565b6103113361127e565b610217565b91905034610357578060031936011261035757610353913561034e600161033b610c03565b93838752866020528620015433906112d1565b61145b565b5080f35b8280fd5b9050346103575760203660031901126103575760209282913581526001845220549051908152f35b91905034610357576020366003190112610357578135917ffd643c72710c63c0180259aba6b2d05451e3591a24e58b62239378085726f7838085528460205282852033865260205260ff83862054161561043757506103e183610f01565b1561041b5750829082825260016020528120557fbaa1eb22f2a492ba1a5fea61b8df4d27c6c8b5f3971e63bb58fa14ff72eedb708280a280f35b826044925191635ead8eb560e01b835282015260066024820152fd5b604492519163e2517d3f60e01b835233908301526024820152fd5b8284346101d55760a03660031901126101d55761046d610be8565b50610476610c03565b506001600160401b039060443582811161017c576104979036908601610dbe565b5060643582811161017c576104af9036908601610dbe565b506084359182116101d557506020926104ca91369101610ce6565b505163bc197c8160e01b8152f35b50503461017c576020906104fd6104ee36610d5d565b96959095949194939293611036565b9051908152f35b50503461017c578160031936011261017c57602090517ffd643c72710c63c0180259aba6b2d05451e3591a24e58b62239378085726f7838152f35b50503461017c578160031936011261017c5751908152602090f35b9050346103575781600319360112610357578160209360ff9261057b610c03565b903582528186528282206001600160a01b039091168252855220549151911615158152f35b50503461017c578160031936011261017c57602090517fb09aa5aeb3702cfd50b6b62bc4532604938f21248a27a1d5ca736082b6819cc18152f35b919050346103575760c0366003190112610357576001600160401b039082358281116107775761060e9036908501610d2d565b93602435848111610773576106269036908301610d2d565b9460443590811161076f5761063e9036908401610d2d565b606493919335906084359760a43593610656336111fb565b818b14801590610765575b610737575061067789848489858f8b908e611036565b99610682858c611174565b8a8c5b8a8382106106cb578e838e838161069a578380f35b7f20fda5fd27a1ea7bf5b9567f143ac5470bb059374a27e8f67cb44f946f6d03879160209151908152a28180808380f35b6001927f4cf4410cc57040e44862ef0f45f3dd5a5e02db8eb8add648d4b0e236f1d07dca8b8b61072c8f8c88978f92898f8f8f61071a9161071461029d86809461072199610fbb565b9a610fbb565b3598610ff5565b915196879687610e45565b0390a3018b90610685565b88516001624fcdef60e01b031981529081018b81526020810184905260408101929092529081906060010390fd5b50828b1415610661565b8780fd5b8680fd5b8480fd5b50503461017c576020906104fd61079136610c46565b94939093929192610f66565b83833461017c57602036600319011261017c576107ba8335610f2a565b905191838210156107cd57602083838152f35b634e487b7160e01b815260218452602490fd5b919050346103575760203660031901126103575781359130330361083657507f11c24f4ead16507c69ac467fbd5e4eed5fb5c699626d2cc6d66421df253886d5906002548151908152836020820152a160025580f35b602491519063e2850c5960e01b82523390820152fd5b8284346101d55760203660031901126101d5575061086c60209235610f01565b90519015158152f35b83833461017c578060031936011261017c5761088f610c03565b90336001600160a01b038316036108ac575061035391923561145b565b5163334bd91960e11b81528390fd5b8284346101d55760203660031901126101d5575061086c60209235610eea565b919050346103575780600319360112610357576103539135610900600161033b610c03565b6113dd565b8284346101d55760203660031901126101d5575061086c60209235610ed2565b90503461035757602036600319011261035757816020936001923581528085522001549051908152f35b8284346101d55760803660031901126101d55761096a610be8565b50610973610c03565b50606435906001600160401b0382116101d5575060209261099691369101610ce6565b5051630a85bd0160e11b8152f35b8284346101d55760203660031901126101d5575061086c60209235610ea4565b610254610a4282610a587fc2617efa69bab66782fa219543714338489c4e9e178271560a91b82c3f612b58610a39896109fc36610c46565b6000805160206114fc8339815191528b9a9697939598929a528a602052828b208b805260205260ff838c20541615610a60575b8985858a8a610f66565b998a9889611302565b610a4e83838888611368565b5194859485610e7d565b0390a36113bd565b610a693361127e565b610a2f565b50503461017c578160031936011261017c57602090516000805160206114fc8339815191528152f35b90503461035757602036600319011261035757359063ffffffff60e01b82168092036103575760209250630271189760e51b8214918215610adc575b50519015158152f35b909150637965db0b60e01b8114908115610af9575b509038610ad3565b6301ffc9a760e01b14905038610af1565b919050346103575760c036600319011261035757610b26610be8565b90836024356044356001600160401b038111610357577f4cf4410cc57040e44862ef0f45f3dd5a5e02db8eb8add648d4b0e236f1d07dca95610b6a91369101610c19565b95909160643595610bab6084359760a43590610b85336111fb565b610b938a828d8a8989610f66565b9a8b97610ba0848a611174565b8a5196879687610e45565b0390a381610bb7578380f35b7f20fda5fd27a1ea7bf5b9567f143ac5470bb059374a27e8f67cb44f946f6d03879160209151908152a23880808380f35b600435906001600160a01b0382168203610bfe57565b600080fd5b602435906001600160a01b0382168203610bfe57565b9181601f84011215610bfe578235916001600160401b038311610bfe5760208381860195010111610bfe57565b60a0600319820112610bfe576004356001600160a01b0381168103610bfe579160243591604435906001600160401b038211610bfe57610c8891600401610c19565b90916064359060843590565b90601f801991011681019081106001600160401b03821117610cb557604052565b634e487b7160e01b600052604160045260246000fd5b6001600160401b038111610cb557601f01601f191660200190565b81601f82011215610bfe57803590610cfd82610ccb565b92610d0b6040519485610c94565b82845260208383010111610bfe57816000926020809301838601378301015290565b9181601f84011215610bfe578235916001600160401b038311610bfe576020808501948460051b010111610bfe57565b9060a0600319830112610bfe576001600160401b03600435818111610bfe5783610d8991600401610d2d565b93909392602435838111610bfe5782610da491600401610d2d565b93909392604435918211610bfe57610c8891600401610d2d565b81601f82011215610bfe578035916020916001600160401b038411610cb5578360051b9060405194610df285840187610c94565b85528380860192820101928311610bfe578301905b828210610e15575050505090565b81358152908301908301610e07565b908060209392818452848401376000828201840152601f01601f1916010190565b929093610e73926080959897969860018060a01b03168552602085015260a0604085015260a0840191610e24565b9460608201520152565b610ea1949260609260018060a01b0316825260208201528160408201520191610e24565b90565b610ead90610f2a565b6004811015610ebc5760021490565b634e487b7160e01b600052602160045260246000fd5b610edb90610f2a565b6004811015610ebc5760031490565b610ef390610f2a565b6004811015610ebc57151590565b610f0a90610f2a565b6004811015610ebc5760018114908115610f22575090565b600291501490565b60005260016020526040600020548015600014610f475750600090565b60018103610f555750600390565b421015610f6157600190565b600290565b94610f9c610fb594959293604051968795602087019960018060a01b03168a52604087015260a0606087015260c0860191610e24565b91608084015260a083015203601f198101835282610c94565b51902090565b9190811015610fcb5760051b0190565b634e487b7160e01b600052603260045260246000fd5b356001600160a01b0381168103610bfe5790565b9190811015610fcb5760051b81013590601e1981360301821215610bfe5701908135916001600160401b038311610bfe576020018236038113610bfe579190565b969294909695919560405196602091828901998060c08b0160a08d525260e08a01919060005b81811061114c57505050601f19898203810160408b0152888252976001600160fb1b038111610bfe579089969495939897929160051b80928a830137019380888601878703606089015252604085019460408260051b82010195836000925b8484106110e357505050505050610fb59550608084015260a083015203908101835282610c94565b9193969850919398999496603f198282030184528935601e1984360301811215610bfe5783018681019190356001600160401b038111610bfe578036038313610bfe5761113588928392600195610e24565b9b0194019401918b98969394919a9997959a6110bb565b90919283359060018060a01b038216809203610bfe579081528501928501919060010161105c565b9061117e82610eea565b6111db576002548082106111bd57504201908142116111a7576000526001602052604060002055565b634e487b7160e01b600052601160045260246000fd5b6044925060405191635433660960e01b835260048301526024820152fd5b604051635ead8eb560e01b81526004810183905260016024820152604490fd5b6001600160a01b031660008181527f3412d5605ac6cd444957cedb533e5dacad6378b4bc819ebe3652188a665066d560205260409020547fb09aa5aeb3702cfd50b6b62bc4532604938f21248a27a1d5ca736082b6819cc19060ff1615611260575050565b604492506040519163e2517d3f60e01b835260048301526024820152fd5b6001600160a01b031660008181527fdae2aa361dfd1ca020a396615627d436107c35eff9fe7738a3512819782d706960205260409020546000805160206114fc8339815191529060ff1615611260575050565b80600052600060205260406000209160018060a01b0316918260005260205260ff6040600020541615611260575050565b61130b81610ea4565b15611349575080151580611339575b6113215750565b6024906040519063121534c360e31b82526004820152fd5b5061134381610ed2565b1561131a565b60449060405190635ead8eb560e01b8252600482015260046024820152fd5b6113b293600093928493826040519384928337810185815203925af13d156113b5573d9061139582610ccb565b916113a36040519384610c94565b82523d6000602084013e6114d0565b50565b6060906114d0565b6113c681610ea4565b156113495760005260016020526001604060002055565b9060009180835282602052604083209160018060a01b03169182845260205260ff6040842054161560001461145657808352826020526040832082845260205260408320600160ff198254161790557f2f8788117e7eff1d82e926ec794901d17c78024a50270940304540a733656f0d339380a4600190565b505090565b9060009180835282602052604083209160018060a01b03169182845260205260ff6040842054166000146114565780835282602052604083208284526020526040832060ff1981541690557ff6391f5c32d9c69d2a47ea670b442974b53935d1edc7fd64eb21e047a839171b339380a4600190565b9091906114f957508051156114e757805190602001fd5b604051630a12f52160e11b8152600490fd5b56fed8aa0f3194971a2a116679f7c2090f6939c8d4e01a2a8d7e41d55e5351469e63a26469706673582212202f65c3ce88498beec54cbf2ba166b548a10898cccf91d190defcfe267674efb564736f6c634300081800332f8788117e7eff1d82e926ec794901d17c78024a50270940304540a733656f0d","linkReferences":{}},"methodIdentifiers":{"CANCELLER_ROLE()":"b08e51c0","DEFAULT_ADMIN_ROLE()":"a217fddf","EXECUTOR_ROLE()":"07bd0265","PROPOSER_ROLE()":"8f61f4f5","cancel(bytes32)":"c4d252f5","execute(address,uint256,bytes,bytes32,bytes32)":"134008d3","executeBatch(address[],uint256[],bytes[],bytes32,bytes32)":"e38335e5","getMinDelay()":"f27a0c92","getOperationState(bytes32)":"7958004c","getRoleAdmin(bytes32)":"248a9ca3","getTimestamp(bytes32)":"d45c4435","grantRole(bytes32,address)":"2f2ff15d","hasRole(bytes32,address)":"91d14854","hashOperation(address,uint256,bytes,bytes32,bytes32)":"8065657f","hashOperationBatch(address[],uint256[],bytes[],bytes32,bytes32)":"b1c5f427","isOperation(bytes32)":"31d50750","isOperationDone(bytes32)":"2ab0f529","isOperationPending(bytes32)":"584b153e","isOperationReady(bytes32)":"13bc9f20","onERC1155BatchReceived(address,address,uint256[],uint256[],bytes)":"bc197c81","onERC1155Received(address,address,uint256,uint256,bytes)":"f23a6e61","onERC721Received(address,address,uint256,bytes)":"150b7a02","renounceRole(bytes32,address)":"36568abe","revokeRole(bytes32,address)":"d547741f","schedule(address,uint256,bytes,bytes32,bytes32,uint256)":"01d5062a","scheduleBatch(address[],uint256[],bytes[],bytes32,bytes32,uint256)":"8f2a0bb0","supportsInterface(bytes4)":"01ffc9a7","updateDelay(uint256)":"64d62353"},"id":36}