{"abi":[{"type":"constructor","inputs":[],"stateMutability":"nonpayable"},{"type":"function","name":"DOMAIN_SEPARATOR","inputs":[],"outputs":[{"name":"","type":"bytes32","internalType":"bytes32"}],"stateMutability":"view"},{"type":"function","name":"UPGRADE_INTERFACE_VERSION","inputs":[],"outputs":[{"name":"","type":"string","internalType":"string"}],"stateMutability":"view"},{"type":"function","name":"allowance","inputs":[{"name":"owner","type":"address","internalType":"address"},{"name":"spender","type":"address","internalType":"address"}],"outputs":[{"name":"","type":"uint256","internalType":"uint256"}],"stateMutability":"view"},{"type":"function","name":"approve","inputs":[{"name":"spender","type":"address","internalType":"address"},{"name":"value","type":"uint256","internalType":"uint256"}],"outputs":[{"name":"","type":"bool","internalType":"bool"}],"stateMutability":"nonpayable"},{"type":"function","name":"balanceOf","inputs":[{"name":"account","type":"address","internalType":"address"}],"outputs":[{"name":"","type":"uint256","internalType":"uint256"}],"stateMutability":"view"},{"type":"function","name":"decimals","inputs":[],"outputs":[{"name":"","type":"uint8","internalType":"uint8"}],"stateMutability":"view"},{"type":"function","name":"eip712Domain","inputs":[],"outputs":[{"name":"fields","type":"bytes1","internalType":"bytes1"},{"name":"name","type":"string","internalType":"string"},{"name":"version","type":"string","internalType":"string"},{"name":"chainId","type":"uint256","internalType":"uint256"},{"name":"verifyingContract","type":"address","internalType":"address"},{"name":"salt","type":"bytes32","internalType":"bytes32"},{"name":"extensions","type":"uint256[]","internalType":"uint256[]"}],"stateMutability":"view"},{"type":"function","name":"initialize","inputs":[{"name":"initialOwner","type":"address","internalType":"address"}],"outputs":[],"stateMutability":"nonpayable"},{"type":"function","name":"mint","inputs":[{"name":"to","type":"address","internalType":"address"},{"name":"amount","type":"uint256","internalType":"uint256"}],"outputs":[],"stateMutability":"nonpayable"},{"type":"function","name":"name","inputs":[],"outputs":[{"name":"","type":"string","internalType":"string"}],"stateMutability":"view"},{"type":"function","name":"nonces","inputs":[{"name":"owner","type":"address","internalType":"address"}],"outputs":[{"name":"","type":"uint256","internalType":"uint256"}],"stateMutability":"view"},{"type":"function","name":"owner","inputs":[],"outputs":[{"name":"","type":"address","internalType":"address"}],"stateMutability":"view"},{"type":"function","name":"permit","inputs":[{"name":"owner","type":"address","internalType":"address"},{"name":"spender","type":"address","internalType":"address"},{"name":"value","type":"uint256","internalType":"uint256"},{"name":"deadline","type":"uint256","internalType":"uint256"},{"name":"v","type":"uint8","internalType":"uint8"},{"name":"r","type":"bytes32","internalType":"bytes32"},{"name":"s","type":"bytes32","internalType":"bytes32"}],"outputs":[],"stateMutability":"nonpayable"},{"type":"function","name":"proxiableUUID","inputs":[],"outputs":[{"name":"","type":"bytes32","internalType":"bytes32"}],"stateMutability":"view"},{"type":"function","name":"renounceOwnership","inputs":[],"outputs":[],"stateMutability":"nonpayable"},{"type":"function","name":"symbol","inputs":[],"outputs":[{"name":"","type":"string","internalType":"string"}],"stateMutability":"view"},{"type":"function","name":"totalSupply","inputs":[],"outputs":[{"name":"","type":"uint256","internalType":"uint256"}],"stateMutability":"view"},{"type":"function","name":"transfer","inputs":[{"name":"to","type":"address","internalType":"address"},{"name":"value","type":"uint256","internalType":"uint256"}],"outputs":[{"name":"","type":"bool","internalType":"bool"}],"stateMutability":"nonpayable"},{"type":"function","name":"transferFrom","inputs":[{"name":"from","type":"address","internalType":"address"},{"name":"to","type":"address","internalType":"address"},{"name":"value","type":"uint256","internalType":"uint256"}],"outputs":[{"name":"","type":"bool","internalType":"bool"}],"stateMutability":"nonpayable"},{"type":"function","name":"transferOwnership","inputs":[{"name":"newOwner","type":"address","internalType":"address"}],"outputs":[],"stateMutability":"nonpayable"},{"type":"function","name":"upgradeToAndCall","inputs":[{"name":"newImplementation","type":"address","internalType":"address"},{"name":"data","type":"bytes","internalType":"bytes"}],"outputs":[],"stateMutability":"payable"},{"type":"event","name":"Approval","inputs":[{"name":"owner","type":"address","indexed":true,"internalType":"address"},{"name":"spender","type":"address","indexed":true,"internalType":"address"},{"name":"value","type":"uint256","indexed":false,"internalType":"uint256"}],"anonymous":false},{"type":"event","name":"EIP712DomainChanged","inputs":[],"anonymous":false},{"type":"event","name":"Initialized","inputs":[{"name":"version","type":"uint64","indexed":false,"internalType":"uint64"}],"anonymous":false},{"type":"event","name":"OwnershipTransferred","inputs":[{"name":"previousOwner","type":"address","indexed":true,"internalType":"address"},{"name":"newOwner","type":"address","indexed":true,"internalType":"address"}],"anonymous":false},{"type":"event","name":"Transfer","inputs":[{"name":"from","type":"address","indexed":true,"internalType":"address"},{"name":"to","type":"address","indexed":true,"internalType":"address"},{"name":"value","type":"uint256","indexed":false,"internalType":"uint256"}],"anonymous":false},{"type":"event","name":"Upgraded","inputs":[{"name":"implementation","type":"address","indexed":true,"internalType":"address"}],"anonymous":false},{"type":"error","name":"AddressEmptyCode","inputs":[{"name":"target","type":"address","internalType":"address"}]},{"type":"error","name":"ECDSAInvalidSignature","inputs":[]},{"type":"error","name":"ECDSAInvalidSignatureLength","inputs":[{"name":"length","type":"uint256","internalType":"uint256"}]},{"type":"error","name":"ECDSAInvalidSignatureS","inputs":[{"name":"s","type":"bytes32","internalType":"bytes32"}]},{"type":"error","name":"ERC1967InvalidImplementation","inputs":[{"name":"implementation","type":"address","internalType":"address"}]},{"type":"error","name":"ERC1967NonPayable","inputs":[]},{"type":"error","name":"ERC20InsufficientAllowance","inputs":[{"name":"spender","type":"address","internalType":"address"},{"name":"allowance","type":"uint256","internalType":"uint256"},{"name":"needed","type":"uint256","internalType":"uint256"}]},{"type":"error","name":"ERC20InsufficientBalance","inputs":[{"name":"sender","type":"address","internalType":"address"},{"name":"balance","type":"uint256","internalType":"uint256"},{"name":"needed","type":"uint256","internalType":"uint256"}]},{"type":"error","name":"ERC20InvalidApprover","inputs":[{"name":"approver","type":"address","internalType":"address"}]},{"type":"error","name":"ERC20InvalidReceiver","inputs":[{"name":"receiver","type":"address","internalType":"address"}]},{"type":"error","name":"ERC20InvalidSender","inputs":[{"name":"sender","type":"address","internalType":"address"}]},{"type":"error","name":"ERC20InvalidSpender","inputs":[{"name":"spender","type":"address","internalType":"address"}]},{"type":"error","name":"ERC2612ExpiredSignature","inputs":[{"name":"deadline","type":"uint256","internalType":"uint256"}]},{"type":"error","name":"ERC2612InvalidSigner","inputs":[{"name":"signer","type":"address","internalType":"address"},{"name":"owner","type":"address","internalType":"address"}]},{"type":"error","name":"FailedInnerCall","inputs":[]},{"type":"error","name":"InvalidAccountNonce","inputs":[{"name":"account","type":"address","internalType":"address"},{"name":"currentNonce","type":"uint256","internalType":"uint256"}]},{"type":"error","name":"InvalidInitialization","inputs":[]},{"type":"error","name":"NotInitializing","inputs":[]},{"type":"error","name":"OwnableInvalidOwner","inputs":[{"name":"owner","type":"address","internalType":"address"}]},{"type":"error","name":"OwnableUnauthorizedAccount","inputs":[{"name":"account","type":"address","internalType":"address"}]},{"type":"error","name":"UUPSUnauthorizedCallContext","inputs":[]},{"type":"error","name":"UUPSUnsupportedProxiableUUID","inputs":[{"name":"slot","type":"bytes32","internalType":"bytes32"}]}],"bytecode":{"object":"0x60a080604052346100cc57306080527ff0c57e16840df040f15088dc2f81fe391c3923bec73e23a9662efc9c229c6a009081549060ff8260401c166100bd57506001600160401b036002600160401b031982821601610078575b604051611e2890816100d28239608051818181610fc301526110a80152f35b6001600160401b031990911681179091556040519081527fc7f505b2f371ae2175ee4913f4499e1f2633a7b5936321eed1cdaeb6115181d290602090a1388080610059565b63f92ee8a960e01b8152600490fd5b600080fdfe608080604052600436101561001357600080fd5b60003560e01c90816306fdde03146114b657508063095ea7b31461149057806318160ddd1461145357806323b872dd1461136e578063313ce567146113525780633644e5151461132f57806340c10f191461127c5780634f1ef2861461102d57806352d1902d14610fb057806370a0823114610f69578063715018a614610eff5780637ecebe0014610ea657806384b0196e14610d4a5780638da5cb5b14610d1457806395d89b4114610c33578063a9059cbb14610c02578063ad3cb1cc14610bb8578063c4d66de81461030a578063d505accf1461017f578063dd62ed3e146101365763f2fde38b1461010657600080fd5b346101315760203660031901126101315761012f6101226115c1565b61012a6119b0565b611867565b005b600080fd5b346101315760403660031901126101315761014f6115c1565b61016061015a6115d7565b91611805565b9060018060a01b03166000526020526020604060002054604051908152f35b346101315760e0366003190112610131576101986115c1565b6101a06115d7565b60443590606435926084359360ff85168503610131578042116102f25760018060a01b039081831695866000527f5ab42ced628888259c08ac98db1eb0cf702fc1501344311d8b100cd1bfe4bb006020526040600020908154916001830190556040519260208401927f6e71edae12b1b97f4d1f60370fef10105fa2faae0126114a169c64845d6126c98452896040860152858816606086015288608086015260a085015260c084015260c0835260e08301918383106001600160401b038411176102dc576102ab936102a29360405251902061027b611a47565b906040519161190160f01b83526002830152602282015260c43591604260a4359220611aeb565b90929192611b7b565b168481036102be575061012f93506119e9565b60449085604051916325c0072360e11b835260048301526024820152fd5b634e487b7160e01b600052604160045260246000fd5b6024906040519063313c898160e11b82526004820152fd5b34610131576020366003190112610131576103236115c1565b600080516020611dd383398151915254906001600160401b03821680159081610ba8575b6001149081610b9e575b159081610b95575b50610b835760016001600160401b0319831617600080516020611dd38339815191525560ff8260401c1615610b56575b61039161183e565b6040519061039e826115ed565b600482526344504c4b60e01b60208301526103b7611abc565b6103bf611abc565b80516001600160401b0381116102dc57807f52c63247e1f47db19d5ce0460030c497f067ca4cebf71ba98eeadabe20bace03926103fc8454611644565b601f8111610ae7575b50602090601f8311600114610a6457600092610a59575b50508160011b916000199060031b1c19161790555b8051906001600160401b0382116102dc5761045a600080516020611d5383398151915254611644565b601f81116109df575b50602090601f831160011461094d576104b493929160009183610942575b50508160011b916000199060031b1c191617600080516020611d53833981519152555b6104ac611abc565b61012a611abc565b6104bc61183e565b906104c5611abc565b604051906104d2826115ed565b60018252603160f81b60208301526104e8611abc565b82516001600160401b0381116102dc57610510600080516020611d3383398151915254611644565b601f81116108c8575b506020601f821160011461083c5781929394600092610831575b50508160011b916000199060031b1c191617600080516020611d33833981519152555b81516001600160401b0381116102dc577fa16a46d94261c7517cc8ff89f61c0ce93598e3c849801011dee649a6a557d103906105928254611644565b601f81116107cd575b506020601f821160011461074b5781929394600092610740575b50508160011b916000199060031b1c19161790555b60007fa16a46d94261c7517cc8ff89f61c0ce93598e3c849801011dee649a6a557d1005560007fa16a46d94261c7517cc8ff89f61c0ce93598e3c849801011dee649a6a557d1015561061a611abc565b3315610727577f52c63247e1f47db19d5ce0460030c497f067ca4cebf71ba98eeadabe20bace0290815469d3c21bcecceda1000000908181018091116107115760ff935533600052600080516020611d13833981519152602052604060002081815401905560405190815260007fddf252ad1be2c89b69c2b068fc378daa952ba7f163c4a11628f55a4df523b3ef60203393a360401c16156106b857005b68ff000000000000000019600080516020611dd38339815191525416600080516020611dd3833981519152557fc7f505b2f371ae2175ee4913f4499e1f2633a7b5936321eed1cdaeb6115181d2602060405160018152a1005b634e487b7160e01b600052601160045260246000fd5b60405163ec442f0560e01b815260006004820152602490fd5b0151905084806105b5565b601f19821690836000527f5f9ce34815f8e11431c7bb75a8e6886a91478f7ffc1dbb0a98dc240fddd76b759160005b8181106107b55750958360019596971061079c575b505050811b0190556105ca565b015160001960f88460031b161c1916905584808061078f565b9192602060018192868b01518155019401920161077a565b826000527f5f9ce34815f8e11431c7bb75a8e6886a91478f7ffc1dbb0a98dc240fddd76b75601f830160051c81019160208410610827575b601f0160051c01905b81811061081b575061059b565b6000815560010161080e565b9091508190610805565b015190508480610533565b601f19821690600080516020611d33833981519152600052600080516020611d938339815191529160005b8181106108b057509583600195969710610897575b505050811b01600080516020611d3383398151915255610556565b015160001960f88460031b161c1916905584808061087c565b9192602060018192868b015181550194019201610867565b600080516020611d33833981519152600052601f820160051c600080516020611d9383398151915201906020831061092c575b601f0160051c600080516020611d9383398151915201905b8181106109205750610519565b60008155600101610913565b600080516020611d9383398151915291506108fb565b015190508580610481565b90601f19831691600080516020611d53833981519152600052600080516020611db38339815191529260005b8181106109c757509160019391856104b4979694106109ae575b505050811b01600080516020611d53833981519152556104a4565b015160001960f88460031b161c19169055858080610993565b92936020600181928786015181550195019301610979565b600080516020611d53833981519152600052601f830160051c600080516020611db3833981519152019060208410610a43575b601f0160051c600080516020611db383398151915201905b818110610a375750610463565b60008155600101610a2a565b600080516020611db38339815191529150610a12565b01519050868061041c565b60008581527f2ae08a8e29253f69ac5d979a101956ab8f8d9d7ded63fa7a83b16fc47648eab09350601f198516905b818110610acf5750908460019594939210610ab6575b505050811b019055610431565b015160001960f88460031b161c19169055868080610aa9565b92936020600181928786015181550195019301610a93565b909150836000527f2ae08a8e29253f69ac5d979a101956ab8f8d9d7ded63fa7a83b16fc47648eab0601f840160051c81019160208510610b4c575b90601f859493920160051c01905b818110610b3d5750610405565b60008155849350600101610b30565b9091508190610b22565b68ffffffffffffffffff1982166801000000000000000117600080516020611dd383398151915255610389565b60405163f92ee8a960e01b8152600490fd5b90501583610359565b303b159150610351565b604084901c60ff16159150610347565b3461013157600036600319011261013157610bfe604051610bd8816115ed565b60058152640352e302e360dc1b6020820152604051918291602083526020830190611581565b0390f35b3461013157604036600319011261013157610c28610c1e6115c1565b60243590336118db565b602060405160018152f35b3461013157600036600319011261013157604051600080516020611d538339815191528054826000610c6483611644565b9283835260209460019186600182169182600014610cf2575050600114610ca8575b5050610c9492500383611608565b610bfe604051928284938452830190611581565b859250600052600080516020611db3833981519152906000915b858310610cda575050610c9493508201018580610c86565b80548389018501528794508693909201918101610cc2565b9250935050610c9494915060ff191682840152151560051b8201018580610c86565b3461013157600036600319011261013157600080516020611d73833981519152546040516001600160a01b039091168152602090f35b34610131576000366003190112610131577fa16a46d94261c7517cc8ff89f61c0ce93598e3c849801011dee649a6a557d100541580610e7d575b15610e4057610d9161167e565b610d99611744565b6040516020808201928284106001600160401b038511176102dc57916020610df38594610de5979660405260008452604051978897600f60f81b895260e0858a015260e0890190611581565b908782036040890152611581565b91466060870152306080870152600060a087015285830360c0870152519182815201929160005b828110610e2957505050500390f35b835185528695509381019392810192600101610e1a565b60405162461bcd60e51b81526020600482015260156024820152741152540dcc4c8e88155b9a5b9a5d1a585b1a5e9959605a1b6044820152606490fd5b507fa16a46d94261c7517cc8ff89f61c0ce93598e3c849801011dee649a6a557d1015415610d84565b34610131576020366003190112610131576001600160a01b03610ec76115c1565b166000527f5ab42ced628888259c08ac98db1eb0cf702fc1501344311d8b100cd1bfe4bb006020526020604060002054604051908152f35b3461013157600036600319011261013157610f186119b0565b600080516020611d7383398151915280546001600160a01b031981169091556000906001600160a01b03167f8be0079c531659141344cd1fd0a4f28419497f9722a3daafe3b4186f6b6457e08280a3005b34610131576020366003190112610131576001600160a01b03610f8a6115c1565b16600052600080516020611d138339815191526020526020604060002054604051908152f35b34610131576000366003190112610131577f00000000000000000000000000000000000000000000000000000000000000006001600160a01b0316300361101b5760206040517f360894a13ba1a3210667c828492db98dca3e2076cc3735a920a3ca505d382bbc8152f35b60405163703e46dd60e11b8152600490fd5b6040366003190112610131576110416115c1565b60249081356001600160401b038111610131573660238201121561013157806004013561106d81611629565b9261107b6040519485611608565b81845260209182850193368783830101116101315781600092888693018737860101526001600160a01b037f0000000000000000000000000000000000000000000000000000000000000000811630811490811561124e575b5061101b576110e16119b0565b8116936040516352d1902d60e01b81528381600481895afa6000918161121f575b5061111f57604051634c9c8ce360e01b8152600481018790528790fd5b8590877f360894a13ba1a3210667c828492db98dca3e2076cc3735a920a3ca505d382bbc9182810361120a5750843b156111f4575080546001600160a01b03191682179055604051907fbc7cd75a20ee27fd9adebab32041f755214dbc6bffa90cc0225b39da2e5c2d3b600080a28151156111d95750600061012f9481925190845af4903d156111d0573d6111b381611629565b906111c16040519283611608565b8152600081943d92013e611caf565b60609250611caf565b9350505050346111e557005b63b398979f60e01b8152600490fd5b604051634c9c8ce360e01b815260048101849052fd5b60405190632a87526960e21b82526004820152fd5b9091508481813d8311611247575b6112378183611608565b8101031261013157519088611102565b503d61122d565b9050817f360894a13ba1a3210667c828492db98dca3e2076cc3735a920a3ca505d382bbc54161415876110d4565b34610131576040366003190112610131576112956115c1565b602435906112a16119b0565b6001600160a01b0316908115610727577f52c63247e1f47db19d5ce0460030c497f067ca4cebf71ba98eeadabe20bace02805490828201809211610711576000927fddf252ad1be2c89b69c2b068fc378daa952ba7f163c4a11628f55a4df523b3ef9260209255848452600080516020611d13833981519152825260408420818154019055604051908152a3005b3461013157600036600319011261013157602061134a611a47565b604051908152f35b3461013157600036600319011261013157602060405160128152f35b34610131576060366003190112610131576113876115c1565b61138f6115d7565b6044359061139c83611805565b336000526020526040600020549260001984036113be575b610c2893506118db565b82841061142d576001600160a01b038116156114145733156113fb5782610c28946113e883611805565b33600052602052036040600020556113b4565b604051634a1406b160e11b815260006004820152602490fd5b60405163e602df0560e01b815260006004820152602490fd5b604051637dc7a0d960e11b81523360048201526024810185905260448101849052606490fd5b346101315760003660031901126101315760207f52c63247e1f47db19d5ce0460030c497f067ca4cebf71ba98eeadabe20bace0254604051908152f35b3461013157604036600319011261013157610c286114ac6115c1565b60243590336119e9565b34610131576000366003190112610131577f52c63247e1f47db19d5ce0460030c497f067ca4cebf71ba98eeadabe20bace0380548260006114f683611644565b9283835260209460019186600182169182600014610cf2575050600114611525575050610c9492500383611608565b8592506000527f2ae08a8e29253f69ac5d979a101956ab8f8d9d7ded63fa7a83b16fc47648eab0906000915b858310611569575050610c9493508201018580610c86565b80548389018501528794508693909201918101611551565b919082519283825260005b8481106115ad575050826000602080949584010152601f8019910116010190565b60208183018101518483018201520161158c565b600435906001600160a01b038216820361013157565b602435906001600160a01b038216820361013157565b604081019081106001600160401b038211176102dc57604052565b90601f801991011681019081106001600160401b038211176102dc57604052565b6001600160401b0381116102dc57601f01601f191660200190565b90600182811c92168015611674575b602083101461165e57565b634e487b7160e01b600052602260045260246000fd5b91607f1691611653565b60405190600082600080516020611d33833981519152918254926116a184611644565b8084529360209160019182811690811561171e57506001146116cf575b5050506116cd92500383611608565b565b6000908152600080516020611d938339815191529590935091905b82841061170657506116cd9450505081016020013880806116be565b855488850183015294850194879450928101926116ea565b92505050602092506116cd94915060ff191682840152151560051b8201013880806116be565b604051906000827fa16a46d94261c7517cc8ff89f61c0ce93598e3c849801011dee649a6a557d1039182549261177984611644565b8084529360209160019182811690811561171e57506001146117a4575050506116cd92500383611608565b60009081527f5f9ce34815f8e11431c7bb75a8e6886a91478f7ffc1dbb0a98dc240fddd76b759590935091905b8284106117ed57506116cd9450505081016020013880806116be565b855488850183015294850194879450928101926117d1565b6001600160a01b031660009081527f52c63247e1f47db19d5ce0460030c497f067ca4cebf71ba98eeadabe20bace016020526040902090565b6040519061184b826115ed565b600d82526c2230b8382634b735aa37b5b2b760991b6020830152565b6001600160a01b039081169081156118c257600080516020611d7383398151915280546001600160a01b031981168417909155167f8be0079c531659141344cd1fd0a4f28419497f9722a3daafe3b4186f6b6457e0600080a3565b604051631e4fbdf760e01b815260006004820152602490fd5b916001600160a01b03808416928315611997571692831561072757600090838252600080516020611d1383398151915280602052604083205491848310611964575082847fddf252ad1be2c89b69c2b068fc378daa952ba7f163c4a11628f55a4df523b3ef959360409388602097528652038282205586815220818154019055604051908152a3565b60405163391434e360e21b81526001600160a01b0391909116600482015260248101929092525060448101839052606490fd5b604051634b637e8f60e11b815260006004820152602490fd5b600080516020611d73833981519152546001600160a01b031633036119d157565b60405163118cdaa760e01b8152336004820152602490fd5b916001600160a01b0380841692831561141457169283156113fb577f8c5be1e5ebec7d5bd14f71427d1e84f3dd0314c0f7b2291e5b200ac8c7c3b92591611a31602092611805565b85600052825280604060002055604051908152a3565b611a4f611c00565b611a57611c6a565b6040519060208201927f8b73c3c69bb8fe3d512ecc4cf759cc79239f7b179b0ffacaa9a75d522b39400f8452604083015260608201524660808201523060a082015260a0815260c081018181106001600160401b038211176102dc5760405251902090565b60ff600080516020611dd38339815191525460401c1615611ad957565b604051631afcd79f60e31b8152600490fd5b91907f7fffffffffffffffffffffffffffffff5d576e7357a4501ddfe92f46681b20a08411611b6f57926020929160ff608095604051948552168484015260408301526060820152600092839182805260015afa15611b635780516001600160a01b03811615611b5a57918190565b50809160019190565b604051903d90823e3d90fd5b50505060009160039190565b6004811015611bea5780611b8d575050565b60018103611ba75760405163f645eedf60e01b8152600490fd5b60028103611bc85760405163fce698f760e01b815260048101839052602490fd5b600314611bd25750565b602490604051906335e2f38360e21b82526004820152fd5b634e487b7160e01b600052602160045260246000fd5b611c0861167e565b8051908115611c18576020012090565b50507fa16a46d94261c7517cc8ff89f61c0ce93598e3c849801011dee649a6a557d100548015611c455790565b507fc5d2460186f7233c927e7db2dcc703c0e500b653ca82273b7bfad8045d85a47090565b611c72611744565b8051908115611c82576020012090565b50507fa16a46d94261c7517cc8ff89f61c0ce93598e3c849801011dee649a6a557d101548015611c455790565b90611cd65750805115611cc457805190602001fd5b604051630a12f52160e11b8152600490fd5b81511580611d09575b611ce7575090565b604051639996b31560e01b81526001600160a01b039091166004820152602490fd5b50803b15611cdf56fe52c63247e1f47db19d5ce0460030c497f067ca4cebf71ba98eeadabe20bace00a16a46d94261c7517cc8ff89f61c0ce93598e3c849801011dee649a6a557d10252c63247e1f47db19d5ce0460030c497f067ca4cebf71ba98eeadabe20bace049016d09d72d40fdae2fd8ceac6b6234c7706214fd39c1cd1e609a0528c19930042ad5d3e1f2e6e70edcf6d991b8a3023d3fca8047a131592f9edb9fd9b89d57d46a2803e59a4de4e7a4c574b1243f25977ac4c77d5a1a4a609b5394cebb4a2aaf0c57e16840df040f15088dc2f81fe391c3923bec73e23a9662efc9c229c6a00a264697066735822122040d91a520bbec147f9a1b657311cba8e804e483a248d5760edca30b8dfef614764736f6c63430008180033","linkReferences":{}},"methodIdentifiers":{"DOMAIN_SEPARATOR()":"3644e515","UPGRADE_INTERFACE_VERSION()":"ad3cb1cc","allowance(address,address)":"dd62ed3e","approve(address,uint256)":"095ea7b3","balanceOf(address)":"70a08231","decimals()":"313ce567","eip712Domain()":"84b0196e","initialize(address)":"c4d66de8","mint(address,uint256)":"40c10f19","name()":"06fdde03","nonces(address)":"7ecebe00","owner()":"8da5cb5b","permit(address,address,uint256,uint256,uint8,bytes32,bytes32)":"d505accf","proxiableUUID()":"52d1902d","renounceOwnership()":"715018a6","symbol()":"95d89b41","totalSupply()":"18160ddd","transfer(address,uint256)":"a9059cbb","transferFrom(address,address,uint256)":"23b872dd","transferOwnership(address)":"f2fde38b","upgradeToAndCall(address,bytes)":"4f1ef286"},"id":134}