{"abi":[{"type":"constructor","inputs":[],"stateMutability":"nonpayable"},{"type":"function","name":"DEFAULT_ADMIN_ROLE","inputs":[],"outputs":[{"name":"","type":"bytes32","internalType":"bytes32"}],"stateMutability":"view"},{"type":"function","name":"PAUSER_ROLE","inputs":[],"outputs":[{"name":"","type":"bytes32","internalType":"bytes32"}],"stateMutability":"view"},{"type":"function","name":"UNPAUSER_ROLE","inputs":[],"outputs":[{"name":"","type":"bytes32","internalType":"bytes32"}],"stateMutability":"view"},{"type":"function","name":"getRoleAdmin","inputs":[{"name":"role","type":"bytes32","internalType":"bytes32"}],"outputs":[{"name":"","type":"bytes32","internalType":"bytes32"}],"stateMutability":"view"},{"type":"function","name":"getRoleMember","inputs":[{"name":"role","type":"bytes32","internalType":"bytes32"},{"name":"index","type":"uint256","internalType":"uint256"}],"outputs":[{"name":"","type":"address","internalType":"address"}],"stateMutability":"view"},{"type":"function","name":"getRoleMemberCount","inputs":[{"name":"role","type":"bytes32","internalType":"bytes32"}],"outputs":[{"name":"","type":"uint256","internalType":"uint256"}],"stateMutability":"view"},{"type":"function","name":"grantRole","inputs":[{"name":"role","type":"bytes32","internalType":"bytes32"},{"name":"account","type":"address","internalType":"address"}],"outputs":[],"stateMutability":"nonpayable"},{"type":"function","name":"hasRole","inputs":[{"name":"role","type":"bytes32","internalType":"bytes32"},{"name":"account","type":"address","internalType":"address"}],"outputs":[{"name":"","type":"bool","internalType":"bool"}],"stateMutability":"view"},{"type":"function","name":"initialize","inputs":[{"name":"init","type":"tuple","internalType":"struct L1Pauser.Init","components":[{"name":"admin","type":"address","internalType":"address"},{"name":"pauser","type":"address","internalType":"address"},{"name":"unpauser","type":"address","internalType":"address"},{"name":"oracle","type":"address","internalType":"contract IOracleManager"}]}],"outputs":[],"stateMutability":"nonpayable"},{"type":"function","name":"isAllocateETHPaused","inputs":[],"outputs":[{"name":"","type":"bool","internalType":"bool"}],"stateMutability":"view"},{"type":"function","name":"isInitiateValidatorsPaused","inputs":[],"outputs":[{"name":"","type":"bool","internalType":"bool"}],"stateMutability":"view"},{"type":"function","name":"isStakingPaused","inputs":[],"outputs":[{"name":"","type":"bool","internalType":"bool"}],"stateMutability":"view"},{"type":"function","name":"isStrategyDeposit","inputs":[],"outputs":[{"name":"","type":"bool","internalType":"bool"}],"stateMutability":"view"},{"type":"function","name":"isStrategyWithdraw","inputs":[],"outputs":[{"name":"","type":"bool","internalType":"bool"}],"stateMutability":"view"},{"type":"function","name":"isSubmitOracleRecordsPaused","inputs":[],"outputs":[{"name":"","type":"bool","internalType":"bool"}],"stateMutability":"view"},{"type":"function","name":"isUnstakeRequestsAndClaimsPaused","inputs":[],"outputs":[{"name":"","type":"bool","internalType":"bool"}],"stateMutability":"view"},{"type":"function","name":"oracle","inputs":[],"outputs":[{"name":"","type":"address","internalType":"contract IOracleManager"}],"stateMutability":"view"},{"type":"function","name":"pauseAll","inputs":[],"outputs":[],"stateMutability":"nonpayable"},{"type":"function","name":"renounceRole","inputs":[{"name":"role","type":"bytes32","internalType":"bytes32"},{"name":"callerConfirmation","type":"address","internalType":"address"}],"outputs":[],"stateMutability":"nonpayable"},{"type":"function","name":"revokeRole","inputs":[{"name":"role","type":"bytes32","internalType":"bytes32"},{"name":"account","type":"address","internalType":"address"}],"outputs":[],"stateMutability":"nonpayable"},{"type":"function","name":"setIsAllocateETHPaused","inputs":[{"name":"isPaused","type":"bool","internalType":"bool"}],"outputs":[],"stateMutability":"nonpayable"},{"type":"function","name":"setIsInitiateValidatorsPaused","inputs":[{"name":"isPaused","type":"bool","internalType":"bool"}],"outputs":[],"stateMutability":"nonpayable"},{"type":"function","name":"setIsStakingPaused","inputs":[{"name":"isPaused","type":"bool","internalType":"bool"}],"outputs":[],"stateMutability":"nonpayable"},{"type":"function","name":"setIsSubmitOracleRecordsPaused","inputs":[{"name":"isPaused","type":"bool","internalType":"bool"}],"outputs":[],"stateMutability":"nonpayable"},{"type":"function","name":"setIsUnstakeRequestsAndClaimsPaused","inputs":[{"name":"isPaused","type":"bool","internalType":"bool"}],"outputs":[],"stateMutability":"nonpayable"},{"type":"function","name":"supportsInterface","inputs":[{"name":"interfaceId","type":"bytes4","internalType":"bytes4"}],"outputs":[{"name":"","type":"bool","internalType":"bool"}],"stateMutability":"view"},{"type":"function","name":"unpauseAll","inputs":[],"outputs":[],"stateMutability":"nonpayable"},{"type":"event","name":"FlagUpdated","inputs":[{"name":"selector","type":"bytes4","indexed":true,"internalType":"bytes4"},{"name":"isPaused","type":"bool","indexed":true,"internalType":"bool"},{"name":"flagName","type":"string","indexed":false,"internalType":"string"}],"anonymous":false},{"type":"event","name":"Initialized","inputs":[{"name":"version","type":"uint64","indexed":false,"internalType":"uint64"}],"anonymous":false},{"type":"event","name":"RoleAdminChanged","inputs":[{"name":"role","type":"bytes32","indexed":true,"internalType":"bytes32"},{"name":"previousAdminRole","type":"bytes32","indexed":true,"internalType":"bytes32"},{"name":"newAdminRole","type":"bytes32","indexed":true,"internalType":"bytes32"}],"anonymous":false},{"type":"event","name":"RoleGranted","inputs":[{"name":"role","type":"bytes32","indexed":true,"internalType":"bytes32"},{"name":"account","type":"address","indexed":true,"internalType":"address"},{"name":"sender","type":"address","indexed":true,"internalType":"address"}],"anonymous":false},{"type":"event","name":"RoleRevoked","inputs":[{"name":"role","type":"bytes32","indexed":true,"internalType":"bytes32"},{"name":"account","type":"address","indexed":true,"internalType":"address"},{"name":"sender","type":"address","indexed":true,"internalType":"address"}],"anonymous":false},{"type":"error","name":"AccessControlBadConfirmation","inputs":[]},{"type":"error","name":"AccessControlUnauthorizedAccount","inputs":[{"name":"account","type":"address","internalType":"address"},{"name":"neededRole","type":"bytes32","internalType":"bytes32"}]},{"type":"error","name":"InvalidInitialization","inputs":[]},{"type":"error","name":"NotInitializing","inputs":[]},{"type":"error","name":"PauserRoleOrOracleRequired","inputs":[{"name":"sender","type":"address","internalType":"address"}]}],"bytecode":{"object":"0x608080604052346100b8577ff0c57e16840df040f15088dc2f81fe391c3923bec73e23a9662efc9c229c6a009081549060ff8260401c166100a957506001600160401b036002600160401b031982821601610064575b6040516114f190816100be8239f35b6001600160401b031990911681179091556040519081527fc7f505b2f371ae2175ee4913f4499e1f2633a7b5936321eed1cdaeb6115181d290602090a1388080610055565b63f92ee8a960e01b8152600490fd5b600080fdfe608060408181526004918236101561001657600080fd5b600092833560e01c91826301ffc9a714610d71575081630415cc1514610acc5781631ea7ca8914610aaa578163248a9ca314610a725781632602edb114610a4d5781632eed8795146109b45781632f2ff15d1461092e57816336568abe146108e85781633830f4b2146108c3578163481d369c14610827578163595c6a67146106c85781637dc0d1d01461069c578382638a2ddd0314610544575081638b61391a1461051f5781639010d07c146104d157816391d148541461047d57816395b95c68146103e1578163a217fddf146103c6578163b4a55037146103a1578163ca15c8731461036c578163d547741f1461031f578163d802070e1461027e578163e63ab1e914610255578163eea12ab614610230578163fb1bb9de14610207578163fcc9d86814610176575063fdcada5e1461015057600080fd5b3461017257816003193601126101725760ff60209254915191831c1615158152f35b5080fd5b905034610203576020366003190112610203573590811515918281036101ff57156101f2576101a3610e61565b60ff1983541660ff83161783556e1a5cd4dd185ada5b99d4185d5cd959608a1b81519160208352600f602084015282015260008051602061149c8339815191526060631ea7ca8960e01b92a380f35b6101fa610df9565b6101a3565b8380fd5b8280fd5b5050346101725781600319360112610172576020905160008051602061143c8339815191528152f35b50503461017257816003193601126101725760ff6020925460101c1690519015158152f35b5050346101725781600319360112610172576020905160008051602061145c8339815191528152f35b905034610203576020366003190112610203573590811515918281036101ff5715610312576102ab610e61565b825463ff0000008360181b169063ff00000019161783557f69735375626d69744f7261636c655265636f726473506175736564000000000081519160208352601b602084015282015260008051602061149c833981519152606063b4a5503760e01b92a380f35b61031a610df9565b6102ab565b9190503461020357806003193601126102035761036891356103636001610344610dde565b9383875260008051602061147c83398151915260205286200154610eab565b610ede565b5080f35b90503461020357602036600319011261020357602092829135815260008051602061141c833981519152845220549051908152f35b50503461017257816003193601126101725760ff6020925460181c1690519015158152f35b50503461017257816003193601126101725751908152602090f35b905034610203576020366003190112610203573590811515918281036101ff57156104705761040e610e61565b825461ff008360081b169061ff0019161783557f6973556e7374616b655265717565737473416e64436c61696d735061757365648151916020835260208084015282015260008051602061149c83398151915260606345b09c8d60e11b92a380f35b610478610df9565b61040e565b9050346102035781600319360112610203578160209360ff9261049e610dde565b9035825260008051602061147c83398151915286528282206001600160a01b039091168252855220549151911615158152f35b9050346102035781600319360112610203576020926105099135815260008051602061141c8339815191528452826024359120611253565b905491519160018060a01b039160031b1c168152f35b50503461017257816003193601126101725760ff6020925460081c1690519015158152f35b80843461069957816003193601126106995761055e610df9565b815490721a5cd05b1b1bd8d85d1951551214185d5cd959606a1b815191602093848452600f858501526e1a5cd4dd185ada5b99d4185d5cd959608a1b828501528560008051602061149c83398151915294856060631ea7ca8960e01b92a385825186815286808201527f6973556e7374616b655265717565737473416e64436c61696d73506175736564848201528560606345b09c8d60e11b92a3858251868152601a87820152791a5cd25b9a5d1a585d1955985b1a59185d1bdc9cd4185d5cd95960321b84820152856060637750955b60e11b92a3858251868152601b878201527f69735375626d69744f7261636c655265636f72647350617573656400000000008482015285606063b4a5503760e01b92a364ffffffffff1916855560138151948086528501528301526060637ee56d2f60e11b92a380f35b50fd5b5050346101725781600319360112610172579054905160389190911c6001600160a01b03168152602090f35b5050346101725781600319360112610172576001906106e5610f26565b825490721a5cd05b1b1bd8d85d1951551214185d5cd959606a1b815191640101010101602094858552600f868601526e1a5cd4dd185ada5b99d4185d5cd959608a1b838601528660008051602061149c83398151915295866060631ea7ca8960e01b92a386835187815287808201527f6973556e7374616b655265717565737473416e64436c61696d73506175736564858201528660606345b09c8d60e11b92a3868351878152601a88820152791a5cd25b9a5d1a585d1955985b1a59185d1bdc9cd4185d5cd95960321b85820152866060637750955b60e11b92a3868351878152601b888201527f69735375626d69744f7261636c655265636f72647350617573656400000000008582015286606063b4a5503760e01b92a364ffffffffff191617865560138151948086528501528301526060637ee56d2f60e11b92a380f35b905034610203576020366003190112610203573590811515918281036101ff57156108b657610854610e61565b825462ff00008360101b169062ff00001916178355791a5cd25b9a5d1a585d1955985b1a59185d1bdc9cd4185d5cd95960321b81519160208352601a602084015282015260008051602061149c8339815191526060637750955b60e11b92a380f35b6108be610df9565b610854565b50503461017257816003193601126101725760ff6020925460281c1690519015158152f35b838334610172578060031936011261017257610902610dde565b90336001600160a01b0383160361091f5750610368919235610ede565b5163334bd91960e11b81528390fd5b905034610203578160031936011261020357359061094a610dde565b9082845260008051602061147c83398151915260205261096f60018286200154610eab565b610979828461115b565b610981578380f35b91835260008051602061141c8339815191526020529082206109ac916001600160a01b031690611281565b503880808380f35b905034610203576020366003190112610203573590811515918281036101ff5715610a40576109e1610e61565b825464ff000000008360201b169064ff000000001916178355721a5cd05b1b1bd8d85d1951551214185d5cd959606a1b815191602083526013602084015282015260008051602061149c8339815191526060637ee56d2f60e11b92a380f35b610a48610df9565b6109e1565b50503461017257816003193601126101725760ff6020925460301c1690519015158152f35b905034610203576020366003190112610203578160209360019235815260008051602061147c83398151915285522001549051908152f35b50503461017257816003193601126101725760ff602092541690519015158152f35b90503461020357608036600319011261020357815167ffffffffffffffff906080810182811182821017610d5e5784526001600160a01b0383358181168103610d5a578252610b19610dde565b60208301908152604435908282168203610d5657868401918252606435938385168503610d5257606081019485527ff0c57e16840df040f15088dc2f81fe391c3923bec73e23a9662efc9c229c6a0096875460ff818b1c161597811680159081610d4a575b6001149081610d40575b159081610d37575b50610d285767ffffffffffffffff198116600117895587610d09575b5060ff88548a1c1615610cfb5750908380925116610bc981610f97565b610cd3575b505116610bda81611025565b610c9d575b505116610beb816110c3565b610c67575b50518454670100000000000000600160d81b03191660389190911b670100000000000000600160d81b0316178455610c26578280f35b805468ff00000000000000001916905551600181527fc7f505b2f371ae2175ee4913f4499e1f2633a7b5936321eed1cdaeb6115181d290602090a138808280f35b610c969060008051602061143c833981519152875260008051602061141c833981519152602052858720611281565b5038610bf0565b610ccc9060008051602061145c833981519152895260008051602061141c833981519152602052878920611281565b5038610bdf565b610cf4908a805260008051602061141c833981519152602052898b20611281565b5038610bce565b8851631afcd79f60e31b8152fd5b68ffffffffffffffffff19166801000000000000000117885538610bac565b50885163f92ee8a960e01b8152fd5b90501538610b90565b303b159150610b88565b899150610b7e565b8880fd5b8780fd5b8680fd5b634e487b7160e01b865260418452602486fd5b849134610203576020366003190112610203573563ffffffff60e01b81168091036102035760209250635a05180f60e01b8114908115610db3575b5015158152f35b637965db0b60e01b811491508115610dcd575b5083610dac565b6301ffc9a760e01b14905083610dc6565b602435906001600160a01b0382168203610df457565b600080fd5b3360009081527f475b312747b0505dfd322c59063ca43b615bb2e6d10fdf52fb58877bbcde4011602052604090205460008051602061143c8339815191529060ff1615610e435750565b6044906040519063e2517d3f60e01b82523360048301526024820152fd5b3360009081527f75442b0a96088b5456bc4ed01394c96a4feec0f883c9494257d76b96ab1c9b6b602052604090205460008051602061145c8339815191529060ff1615610e435750565b8060005260008051602061147c83398151915260205260406000203360005260205260ff6040600020541615610e435750565b610ee882826111d0565b9182610ef357505090565b600091825260008051602061141c8339815191526020526040909120610f22916001600160a01b03169061130b565b5090565b3360009081527f75442b0a96088b5456bc4ed01394c96a4feec0f883c9494257d76b96ab1c9b6b602052604090205460ff168015610f7d575b610f7b57604051630dd27c6560e11b8152336004820152602490fd5b565b506000543360389190911c6001600160a01b031614610f5f565b6001600160a01b031660008181527fb7db2dd08fcb62d0c9e08c51941cae53c267786a0b75803fb7960902fc8ef97d602052604081205490919060008051602061147c8339815191529060ff16611020578280526020526040822081835260205260408220600160ff1982541617905533916000805160206113fc8339815191528180a4600190565b505090565b6001600160a01b031660008181527f75442b0a96088b5456bc4ed01394c96a4feec0f883c9494257d76b96ab1c9b6b602052604081205490919060008051602061145c8339815191529060008051602061147c8339815191529060ff166110bd578184526020526040832082845260205260408320600160ff198254161790556000805160206113fc833981519152339380a4600190565b50505090565b6001600160a01b031660008181527f475b312747b0505dfd322c59063ca43b615bb2e6d10fdf52fb58877bbcde4011602052604081205490919060008051602061143c8339815191529060008051602061147c8339815191529060ff166110bd578184526020526040832082845260205260408320600160ff198254161790556000805160206113fc833981519152339380a4600190565b9060009180835260008051602061147c83398151915280602052604084209260018060a01b03169283855260205260ff604085205416156000146110bd578184526020526040832082845260205260408320600160ff198254161790556000805160206113fc833981519152339380a4600190565b9060009180835260008051602061147c83398151915280602052604084209260018060a01b03169283855260205260ff6040852054166000146110bd57818452602052604083208284526020526040832060ff1981541690557ff6391f5c32d9c69d2a47ea670b442974b53935d1edc7fd64eb21e047a839171b339380a4600190565b805482101561126b5760005260206000200190600090565b634e487b7160e01b600052603260045260246000fd5b9190600183016000908282528060205260408220541560001461130557845494680100000000000000008610156112f157836112e16112ca886001604098999a01855584611253565b819391549060031b91821b91600019901b19161790565b9055549382526020522055600190565b634e487b7160e01b83526041600452602483fd5b50925050565b906001820190600092818452826020526040842054908115156000146113f457600019918083018181116113e0578254908482019182116113cc57818103611397575b50505080548015611383578201916113668383611253565b909182549160031b1b191690555582526020526040812055600190565b634e487b7160e01b86526031600452602486fd5b6113b76113a76112ca9386611253565b90549060031b1c92839286611253565b9055865284602052604086205538808061134e565b634e487b7160e01b88526011600452602488fd5b634e487b7160e01b87526011600452602487fd5b505050509056fe2f8788117e7eff1d82e926ec794901d17c78024a50270940304540a733656f0dc1f6fe24621ce81ec5827caf0253cadb74709b061630e6b55e82371705932000427da25fe773164f88948d3e215c94b6554e2ed5e5f203a821c9f2f6131cf75a65d7a28e3265b37a6474929f336521b332c1681b933f6cb9f3376673440d862a02dd7bc7dec4dceedda775e58dd541e08a116c6c53815c0bd028192f7b6268008a3a9d8f1181b67c292c06a0fb9284581af58bc4284d19bb07bb153d65a4ee80a2646970667358221220f0489510707a00decb55d06551f17be83ac7d70f3c115ac5d920bf35fe84730f64736f6c63430008180033","linkReferences":{}},"methodIdentifiers":{"DEFAULT_ADMIN_ROLE()":"a217fddf","PAUSER_ROLE()":"e63ab1e9","UNPAUSER_ROLE()":"fb1bb9de","getRoleAdmin(bytes32)":"248a9ca3","getRoleMember(bytes32,uint256)":"9010d07c","getRoleMemberCount(bytes32)":"ca15c873","grantRole(bytes32,address)":"2f2ff15d","hasRole(bytes32,address)":"91d14854","initialize((address,address,address,address))":"0415cc15","isAllocateETHPaused()":"fdcada5e","isInitiateValidatorsPaused()":"eea12ab6","isStakingPaused()":"1ea7ca89","isStrategyDeposit()":"3830f4b2","isStrategyWithdraw()":"2602edb1","isSubmitOracleRecordsPaused()":"b4a55037","isUnstakeRequestsAndClaimsPaused()":"8b61391a","oracle()":"7dc0d1d0","pauseAll()":"595c6a67","renounceRole(bytes32,address)":"36568abe","revokeRole(bytes32,address)":"d547741f","setIsAllocateETHPaused(bool)":"2eed8795","setIsInitiateValidatorsPaused(bool)":"481d369c","setIsStakingPaused(bool)":"fcc9d868","setIsSubmitOracleRecordsPaused(bool)":"d802070e","setIsUnstakeRequestsAndClaimsPaused(bool)":"95b95c68","supportsInterface(bytes4)":"01ffc9a7","unpauseAll()":"8a2ddd03"},"id":102}