{"abi":[{"type":"constructor","inputs":[],"stateMutability":"nonpayable"},{"type":"function","name":"DEFAULT_ADMIN_ROLE","inputs":[],"outputs":[{"name":"","type":"bytes32","internalType":"bytes32"}],"stateMutability":"view"},{"type":"function","name":"PAUSER_ROLE","inputs":[],"outputs":[{"name":"","type":"bytes32","internalType":"bytes32"}],"stateMutability":"view"},{"type":"function","name":"UNPAUSER_ROLE","inputs":[],"outputs":[{"name":"","type":"bytes32","internalType":"bytes32"}],"stateMutability":"view"},{"type":"function","name":"getRoleAdmin","inputs":[{"name":"role","type":"bytes32","internalType":"bytes32"}],"outputs":[{"name":"","type":"bytes32","internalType":"bytes32"}],"stateMutability":"view"},{"type":"function","name":"getRoleMember","inputs":[{"name":"role","type":"bytes32","internalType":"bytes32"},{"name":"index","type":"uint256","internalType":"uint256"}],"outputs":[{"name":"","type":"address","internalType":"address"}],"stateMutability":"view"},{"type":"function","name":"getRoleMemberCount","inputs":[{"name":"role","type":"bytes32","internalType":"bytes32"}],"outputs":[{"name":"","type":"uint256","internalType":"uint256"}],"stateMutability":"view"},{"type":"function","name":"grantRole","inputs":[{"name":"role","type":"bytes32","internalType":"bytes32"},{"name":"account","type":"address","internalType":"address"}],"outputs":[],"stateMutability":"nonpayable"},{"type":"function","name":"hasRole","inputs":[{"name":"role","type":"bytes32","internalType":"bytes32"},{"name":"account","type":"address","internalType":"address"}],"outputs":[{"name":"","type":"bool","internalType":"bool"}],"stateMutability":"view"},{"type":"function","name":"initialize","inputs":[{"name":"init","type":"tuple","internalType":"struct L1Pauser.Init","components":[{"name":"admin","type":"address","internalType":"address"},{"name":"pauser","type":"address","internalType":"address"},{"name":"unpauser","type":"address","internalType":"address"},{"name":"oracle","type":"address","internalType":"contract IOracleManager"}]}],"outputs":[],"stateMutability":"nonpayable"},{"type":"function","name":"isAllocateETHPaused","inputs":[],"outputs":[{"name":"","type":"bool","internalType":"bool"}],"stateMutability":"view"},{"type":"function","name":"isInitiateValidatorsPaused","inputs":[],"outputs":[{"name":"","type":"bool","internalType":"bool"}],"stateMutability":"view"},{"type":"function","name":"isStakingPaused","inputs":[],"outputs":[{"name":"","type":"bool","internalType":"bool"}],"stateMutability":"view"},{"type":"function","name":"isStrategyDeposit","inputs":[],"outputs":[{"name":"","type":"bool","internalType":"bool"}],"stateMutability":"view"},{"type":"function","name":"isStrategyWithdraw","inputs":[],"outputs":[{"name":"","type":"bool","internalType":"bool"}],"stateMutability":"view"},{"type":"function","name":"isSubmitOracleRecordsPaused","inputs":[],"outputs":[{"name":"","type":"bool","internalType":"bool"}],"stateMutability":"view"},{"type":"function","name":"isUnstakeRequestsAndClaimsPaused","inputs":[],"outputs":[{"name":"","type":"bool","internalType":"bool"}],"stateMutability":"view"},{"type":"function","name":"oracle","inputs":[],"outputs":[{"name":"","type":"address","internalType":"contract IOracleManager"}],"stateMutability":"view"},{"type":"function","name":"pauseAll","inputs":[],"outputs":[],"stateMutability":"nonpayable"},{"type":"function","name":"renounceRole","inputs":[{"name":"role","type":"bytes32","internalType":"bytes32"},{"name":"callerConfirmation","type":"address","internalType":"address"}],"outputs":[],"stateMutability":"nonpayable"},{"type":"function","name":"revokeRole","inputs":[{"name":"role","type":"bytes32","internalType":"bytes32"},{"name":"account","type":"address","internalType":"address"}],"outputs":[],"stateMutability":"nonpayable"},{"type":"function","name":"setIsAllocateETHPaused","inputs":[{"name":"isPaused","type":"bool","internalType":"bool"}],"outputs":[],"stateMutability":"nonpayable"},{"type":"function","name":"setIsInitiateValidatorsPaused","inputs":[{"name":"isPaused","type":"bool","internalType":"bool"}],"outputs":[],"stateMutability":"nonpayable"},{"type":"function","name":"setIsStakingPaused","inputs":[{"name":"isPaused","type":"bool","internalType":"bool"}],"outputs":[],"stateMutability":"nonpayable"},{"type":"function","name":"setIsSubmitOracleRecordsPaused","inputs":[{"name":"isPaused","type":"bool","internalType":"bool"}],"outputs":[],"stateMutability":"nonpayable"},{"type":"function","name":"setIsUnstakeRequestsAndClaimsPaused","inputs":[{"name":"isPaused","type":"bool","internalType":"bool"}],"outputs":[],"stateMutability":"nonpayable"},{"type":"function","name":"supportsInterface","inputs":[{"name":"interfaceId","type":"bytes4","internalType":"bytes4"}],"outputs":[{"name":"","type":"bool","internalType":"bool"}],"stateMutability":"view"},{"type":"function","name":"unpauseAll","inputs":[],"outputs":[],"stateMutability":"nonpayable"},{"type":"event","name":"FlagUpdated","inputs":[{"name":"selector","type":"bytes4","indexed":true,"internalType":"bytes4"},{"name":"isPaused","type":"bool","indexed":true,"internalType":"bool"},{"name":"flagName","type":"string","indexed":false,"internalType":"string"}],"anonymous":false},{"type":"event","name":"Initialized","inputs":[{"name":"version","type":"uint64","indexed":false,"internalType":"uint64"}],"anonymous":false},{"type":"event","name":"RoleAdminChanged","inputs":[{"name":"role","type":"bytes32","indexed":true,"internalType":"bytes32"},{"name":"previousAdminRole","type":"bytes32","indexed":true,"internalType":"bytes32"},{"name":"newAdminRole","type":"bytes32","indexed":true,"internalType":"bytes32"}],"anonymous":false},{"type":"event","name":"RoleGranted","inputs":[{"name":"role","type":"bytes32","indexed":true,"internalType":"bytes32"},{"name":"account","type":"address","indexed":true,"internalType":"address"},{"name":"sender","type":"address","indexed":true,"internalType":"address"}],"anonymous":false},{"type":"event","name":"RoleRevoked","inputs":[{"name":"role","type":"bytes32","indexed":true,"internalType":"bytes32"},{"name":"account","type":"address","indexed":true,"internalType":"address"},{"name":"sender","type":"address","indexed":true,"internalType":"address"}],"anonymous":false},{"type":"error","name":"AccessControlBadConfirmation","inputs":[]},{"type":"error","name":"AccessControlUnauthorizedAccount","inputs":[{"name":"account","type":"address","internalType":"address"},{"name":"neededRole","type":"bytes32","internalType":"bytes32"}]},{"type":"error","name":"InvalidInitialization","inputs":[]},{"type":"error","name":"NotInitializing","inputs":[]},{"type":"error","name":"PauserRoleOrOracleRequired","inputs":[{"name":"sender","type":"address","internalType":"address"}]}],"bytecode":{"object":"0x608060405234801561001057600080fd5b5061001961001e565b6100d0565b7ff0c57e16840df040f15088dc2f81fe391c3923bec73e23a9662efc9c229c6a00805468010000000000000000900460ff161561006e5760405163f92ee8a960e01b815260040160405180910390fd5b80546001600160401b03908116146100cd5780546001600160401b0319166001600160401b0390811782556040519081527fc7f505b2f371ae2175ee4913f4499e1f2633a7b5936321eed1cdaeb6115181d29060200160405180910390a15b50565b6111ab806100df6000396000f3fe608060405234801561001057600080fd5b50600436106101a95760003560e01c80638b61391a116100f9578063d547741f11610097578063eea12ab611610071578063eea12ab614610389578063fb1bb9de1461039c578063fcc9d868146103b1578063fdcada5e146103c457600080fd5b8063d547741f1461034e578063d802070e14610361578063e63ab1e91461037457600080fd5b806395b95c68116100d357806395b95c681461030c578063a217fddf1461031f578063b4a5503714610327578063ca15c8731461033b57600080fd5b80638b61391a146102d45780639010d07c146102e657806391d14854146102f957600080fd5b80632f2ff15d11610166578063481d369c11610140578063481d369c1461027f578063595c6a67146102925780637dc0d1d01461029a5780638a2ddd03146102cc57600080fd5b80632f2ff15d1461024357806336568abe146102565780633830f4b21461026957600080fd5b806301ffc9a7146101ae5780630415cc15146101d65780631ea7ca89146101eb578063248a9ca3146101f85780632602edb1146102195780632eed879514610230575b600080fd5b6101c16101bc366004610f29565b6103d9565b60405190151581526020015b60405180910390f35b6101e96101e4366004610f68565b610404565b005b6000546101c19060ff1681565b61020b610206366004610ffb565b61058f565b6040519081526020016101cd565b6000546101c1906601000000000000900460ff1681565b6101e961023e366004611014565b6105b1565b6101e9610251366004611036565b6105f8565b6101e9610264366004611036565b61061a565b6000546101c19065010000000000900460ff1681565b6101e961028d366004611014565b610652565b6101e9610695565b6000546102b490600160381b90046001600160a01b031681565b6040516001600160a01b0390911681526020016101cd565b6101e96106d1565b6000546101c190610100900460ff1681565b6102b46102f4366004611066565b61071e565b6101c1610307366004611036565b61074d565b6101e961031a366004611014565b610785565b61020b600081565b6000546101c1906301000000900460ff1681565b61020b610349366004610ffb565b6107c8565b6101e961035c366004611036565b6107f5565b6101e961036f366004611014565b610811565b61020b60008051602061111683398151915281565b6000546101c19062010000900460ff1681565b61020b6000805160206110f683398151915281565b6101e96103bf366004611014565b610854565b6000546101c190640100000000900460ff1681565b60006001600160e01b03198216635a05180f60e01b14806103fe57506103fe82610897565b92915050565b7ff0c57e16840df040f15088dc2f81fe391c3923bec73e23a9662efc9c229c6a008054600160401b810460ff16159067ffffffffffffffff1660008115801561044a5750825b905060008267ffffffffffffffff1660011480156104675750303b155b905081158015610475575080155b156104935760405163f92ee8a960e01b815260040160405180910390fd5b845467ffffffffffffffff1916600117855583156104bd57845460ff60401b1916600160401b1785555b6104c56108cc565b85516104d3906000906108d4565b506104f060008051602061111683398151915287602001516108d4565b5061050d6000805160206110f683398151915287604001516108d4565b506060860151600080546001600160a01b03909216600160381b02670100000000000000600160d81b0319909216919091179055831561058757845460ff60401b19168555604051600181527fc7f505b2f371ae2175ee4913f4499e1f2633a7b5936321eed1cdaeb6115181d29060200160405180910390a15b505050505050565b6000908152600080516020611136833981519152602052604090206001015490565b8080156105d4576105cf600080516020611116833981519152610919565b6105eb565b6105eb6000805160206110f6833981519152610919565b6105f482610923565b5050565b6106018261058f565b61060a81610919565b61061483836108d4565b50505050565b6001600160a01b03811633146106435760405163334bd91960e11b815260040160405180910390fd5b61064d828261099b565b505050565b80801561067557610670600080516020611116833981519152610919565b61068c565b61068c6000805160206110f6833981519152610919565b6105f4826109d7565b61069d610a4a565b6106a76001610aa5565b6106b16001610b00565b6106bb60016109d7565b6106c56001610b6f565b6106cf6001610923565b565b6000805160206110f68339815191526106e981610919565b6106f36000610aa5565b6106fd6000610b00565b61070760006109d7565b6107116000610b6f565b61071b6000610923565b50565b60008281526000805160206110d68339815191526020819052604082206107459084610be4565b949350505050565b6000918252600080516020611136833981519152602090815260408084206001600160a01b0393909316845291905290205460ff1690565b8080156107a8576107a3600080516020611116833981519152610919565b6107bf565b6107bf6000805160206110f6833981519152610919565b6105f482610b00565b60008181526000805160206110d68339815191526020819052604082206107ee90610bf0565b9392505050565b6107fe8261058f565b61080781610919565b610614838361099b565b8080156108345761082f600080516020611116833981519152610919565b61084b565b61084b6000805160206110f6833981519152610919565b6105f482610b6f565b80801561087757610872600080516020611116833981519152610919565b61088e565b61088e6000805160206110f6833981519152610919565b6105f482610aa5565b60006001600160e01b03198216637965db0b60e01b14806103fe57506301ffc9a760e01b6001600160e01b03198316146103fe565b6106cf610bfa565b60006000805160206110d6833981519152816108f08585610c43565b905080156107455760008581526020839052604090206109109085610ce8565b50949350505050565b61071b8133610cfd565b60008054821515640100000000810264ff000000001990921691909117909155604051637ee56d2f60e11b9060008051602061115683398151915290610990906020808252601390820152721a5cd05b1b1bd8d85d1951551214185d5cd959606a1b604082015260600190565b60405180910390a350565b60006000805160206110d6833981519152816109b78585610d36565b905080156107455760008581526020839052604090206109109085610db2565b6000805482151562010000810262ff00001990921691909117909155604051637750955b60e11b9060008051602061115683398151915290610990906020808252601a908201527f6973496e69746961746556616c696461746f7273506175736564000000000000604082015260600190565b610a626000805160206111168339815191523361074d565b80610a7e5750600054600160381b90046001600160a01b031633145b15610a8557565b604051630dd27c6560e11b81523360048201526024015b60405180910390fd5b6000805482151560ff199091168117909155604051631ea7ca8960e01b9060008051602061115683398151915290610990906020808252600f908201526e1a5cd4dd185ada5b99d4185d5cd959608a1b604082015260600190565b60008054821515610100810261ff0019909216919091179091556040516345b09c8d60e11b9060008051602061115683398151915290610990906020808252818101527f6973556e7374616b655265717565737473416e64436c61696d73506175736564604082015260600190565b600080548215156301000000810263ff000000199092169190911790915560405163b4a5503760e01b9060008051602061115683398151915290610990906020808252601b908201527f69735375626d69744f7261636c655265636f7264735061757365640000000000604082015260600190565b60006107ee8383610dc7565b60006103fe825490565b7ff0c57e16840df040f15088dc2f81fe391c3923bec73e23a9662efc9c229c6a0054600160401b900460ff166106cf57604051631afcd79f60e31b815260040160405180910390fd5b6000600080516020611136833981519152610c5e848461074d565b610cde576000848152602082815260408083206001600160a01b03871684529091529020805460ff19166001179055610c943390565b6001600160a01b0316836001600160a01b0316857f2f8788117e7eff1d82e926ec794901d17c78024a50270940304540a733656f0d60405160405180910390a460019150506103fe565b60009150506103fe565b60006107ee836001600160a01b038416610df1565b610d07828261074d565b6105f45760405163e2517d3f60e01b81526001600160a01b038216600482015260248101839052604401610a9c565b6000600080516020611136833981519152610d51848461074d565b15610cde576000848152602082815260408083206001600160a01b0387168085529252808320805460ff1916905551339287917ff6391f5c32d9c69d2a47ea670b442974b53935d1edc7fd64eb21e047a839171b9190a460019150506103fe565b60006107ee836001600160a01b038416610e40565b6000826000018281548110610dde57610dde611088565b9060005260206000200154905092915050565b6000818152600183016020526040812054610e38575081546001818101845560008481526020808220909301849055845484825282860190935260409020919091556103fe565b5060006103fe565b60008181526001830160205260408120548015610cde576000610e6460018361109e565b8554909150600090610e789060019061109e565b9050808214610edd576000866000018281548110610e9857610e98611088565b9060005260206000200154905080876000018481548110610ebb57610ebb611088565b6000918252602080832090910192909255918252600188019052604090208390555b8554869080610eee57610eee6110bf565b6001900381819060005260206000200160009055905585600101600086815260200190815260200160002060009055600193505050506103fe565b600060208284031215610f3b57600080fd5b81356001600160e01b0319811681146107ee57600080fd5b6001600160a01b038116811461071b57600080fd5b600060808284031215610f7a57600080fd5b6040516080810181811067ffffffffffffffff82111715610fab57634e487b7160e01b600052604160045260246000fd5b6040528235610fb981610f53565b81526020830135610fc981610f53565b60208201526040830135610fdc81610f53565b60408201526060830135610fef81610f53565b60608201529392505050565b60006020828403121561100d57600080fd5b5035919050565b60006020828403121561102657600080fd5b813580151581146107ee57600080fd5b6000806040838503121561104957600080fd5b82359150602083013561105b81610f53565b809150509250929050565b6000806040838503121561107957600080fd5b50508035926020909101359150565b634e487b7160e01b600052603260045260246000fd5b818103818111156103fe57634e487b7160e01b600052601160045260246000fd5b634e487b7160e01b600052603160045260246000fdfec1f6fe24621ce81ec5827caf0253cadb74709b061630e6b55e82371705932000427da25fe773164f88948d3e215c94b6554e2ed5e5f203a821c9f2f6131cf75a65d7a28e3265b37a6474929f336521b332c1681b933f6cb9f3376673440d862a02dd7bc7dec4dceedda775e58dd541e08a116c6c53815c0bd028192f7b6268008a3a9d8f1181b67c292c06a0fb9284581af58bc4284d19bb07bb153d65a4ee80a2646970667358221220bc48b2b2a30d707c687aa41ff1122dd240977b86e704b12648680e82d488d86564736f6c63430008180033","linkReferences":{}},"methodIdentifiers":{"DEFAULT_ADMIN_ROLE()":"a217fddf","PAUSER_ROLE()":"e63ab1e9","UNPAUSER_ROLE()":"fb1bb9de","getRoleAdmin(bytes32)":"248a9ca3","getRoleMember(bytes32,uint256)":"9010d07c","getRoleMemberCount(bytes32)":"ca15c873","grantRole(bytes32,address)":"2f2ff15d","hasRole(bytes32,address)":"91d14854","initialize((address,address,address,address))":"0415cc15","isAllocateETHPaused()":"fdcada5e","isInitiateValidatorsPaused()":"eea12ab6","isStakingPaused()":"1ea7ca89","isStrategyDeposit()":"3830f4b2","isStrategyWithdraw()":"2602edb1","isSubmitOracleRecordsPaused()":"b4a55037","isUnstakeRequestsAndClaimsPaused()":"8b61391a","oracle()":"7dc0d1d0","pauseAll()":"595c6a67","renounceRole(bytes32,address)":"36568abe","revokeRole(bytes32,address)":"d547741f","setIsAllocateETHPaused(bool)":"2eed8795","setIsInitiateValidatorsPaused(bool)":"481d369c","setIsStakingPaused(bool)":"fcc9d868","setIsSubmitOracleRecordsPaused(bool)":"d802070e","setIsUnstakeRequestsAndClaimsPaused(bool)":"95b95c68","supportsInterface(bytes4)":"01ffc9a7","unpauseAll()":"8a2ddd03"},"id":100}