{"abi":[{"type":"constructor","inputs":[],"stateMutability":"nonpayable"},{"type":"function","name":"ETHBalance","inputs":[],"outputs":[{"name":"","type":"uint256","internalType":"uint256"}],"stateMutability":"view"},{"type":"function","name":"WETHBalance","inputs":[],"outputs":[{"name":"","type":"uint256","internalType":"uint256"}],"stateMutability":"view"},{"type":"function","name":"deposit","inputs":[{"name":"weth","type":"address","internalType":"contract IERC20"},{"name":"amount","type":"uint256","internalType":"uint256"}],"outputs":[{"name":"newShares","type":"uint256","internalType":"uint256"}],"stateMutability":"nonpayable"},{"type":"function","name":"explanation","inputs":[],"outputs":[{"name":"","type":"string","internalType":"string"}],"stateMutability":"pure"},{"type":"function","name":"initialize","inputs":[{"name":"_stakingWeth","type":"address","internalType":"contract IERC20"},{"name":"_relayer","type":"address","internalType":"address"},{"name":"_strategyManager","type":"address","internalType":"contract IStrategyManager"},{"name":"_pauser","type":"address","internalType":"contract IL2Pauser"}],"outputs":[],"stateMutability":"nonpayable"},{"type":"function","name":"pauser","inputs":[],"outputs":[{"name":"","type":"address","internalType":"contract IL2Pauser"}],"stateMutability":"view"},{"type":"function","name":"relayer","inputs":[],"outputs":[{"name":"","type":"address","internalType":"address"}],"stateMutability":"view"},{"type":"function","name":"shares","inputs":[{"name":"user","type":"address","internalType":"address"}],"outputs":[{"name":"","type":"uint256","internalType":"uint256"}],"stateMutability":"view"},{"type":"function","name":"sharesToStaking","inputs":[{"name":"amountShares","type":"uint256","internalType":"uint256"}],"outputs":[{"name":"","type":"uint256","internalType":"uint256"}],"stateMutability":"view"},{"type":"function","name":"sharesToStakingView","inputs":[{"name":"amountShares","type":"uint256","internalType":"uint256"}],"outputs":[{"name":"","type":"uint256","internalType":"uint256"}],"stateMutability":"view"},{"type":"function","name":"stakingToShares","inputs":[{"name":"amountStaking","type":"uint256","internalType":"uint256"}],"outputs":[{"name":"","type":"uint256","internalType":"uint256"}],"stateMutability":"view"},{"type":"function","name":"stakingToSharesView","inputs":[{"name":"amountStaking","type":"uint256","internalType":"uint256"}],"outputs":[{"name":"","type":"uint256","internalType":"uint256"}],"stateMutability":"view"},{"type":"function","name":"stakingWeth","inputs":[],"outputs":[{"name":"","type":"address","internalType":"contract IERC20"}],"stateMutability":"view"},{"type":"function","name":"strategyManager","inputs":[],"outputs":[{"name":"","type":"address","internalType":"contract IStrategyManager"}],"stateMutability":"view"},{"type":"function","name":"totalShares","inputs":[],"outputs":[{"name":"","type":"uint256","internalType":"uint256"}],"stateMutability":"view"},{"type":"function","name":"transferETHToL2DappLinkBridge","inputs":[{"name":"sourceChainId","type":"uint256","internalType":"uint256"},{"name":"destChainId","type":"uint256","internalType":"uint256"},{"name":"bridge","type":"address","internalType":"address"},{"name":"l1StakingManagerAddr","type":"address","internalType":"address"},{"name":"gasLimit","type":"uint256","internalType":"uint256"}],"outputs":[{"name":"","type":"bool","internalType":"bool"}],"stateMutability":"payable"},{"type":"function","name":"transferWETHToL2DappLinkBridge","inputs":[{"name":"sourceChainId","type":"uint256","internalType":"uint256"},{"name":"destChainId","type":"uint256","internalType":"uint256"},{"name":"bridge","type":"address","internalType":"address"},{"name":"l1StakingManagerAddr","type":"address","internalType":"address"},{"name":"wethAddress","type":"address","internalType":"address"},{"name":"gasLimit","type":"uint256","internalType":"uint256"}],"outputs":[{"name":"","type":"bool","internalType":"bool"}],"stateMutability":"payable"},{"type":"function","name":"userStaking","inputs":[{"name":"user","type":"address","internalType":"address"}],"outputs":[{"name":"","type":"uint256","internalType":"uint256"}],"stateMutability":"nonpayable"},{"type":"function","name":"userStakingView","inputs":[{"name":"user","type":"address","internalType":"address"}],"outputs":[{"name":"","type":"uint256","internalType":"uint256"}],"stateMutability":"view"},{"type":"function","name":"withdraw","inputs":[{"name":"recipient","type":"address","internalType":"address"},{"name":"weth","type":"address","internalType":"contract IERC20"},{"name":"amountShares","type":"uint256","internalType":"uint256"}],"outputs":[],"stateMutability":"nonpayable"},{"type":"event","name":"Initialized","inputs":[{"name":"version","type":"uint64","indexed":false,"internalType":"uint64"}],"anonymous":false},{"type":"error","name":"AddressEmptyCode","inputs":[{"name":"target","type":"address","internalType":"address"}]},{"type":"error","name":"AddressInsufficientBalance","inputs":[{"name":"account","type":"address","internalType":"address"}]},{"type":"error","name":"FailedInnerCall","inputs":[]},{"type":"error","name":"InvalidInitialization","inputs":[]},{"type":"error","name":"NotInitializing","inputs":[]},{"type":"error","name":"SafeERC20FailedOperation","inputs":[{"name":"token","type":"address","internalType":"address"}]}],"bytecode":{"object":"0x608080604052346100b8577ff0c57e16840df040f15088dc2f81fe391c3923bec73e23a9662efc9c229c6a009081549060ff8260401c166100a957506001600160401b036002600160401b031982821601610064575b6040516111e390816100be8239f35b6001600160401b031990911681179091556040519081527fc7f505b2f371ae2175ee4913f4499e1f2633a7b5936321eed1cdaeb6115181d290602090a1388080610055565b63f92ee8a960e01b8152600490fd5b600080fdfe6080604052600436101561001257600080fd5b60003560e01c806310ed193a1461014d5780631a51cf75146101485780633055a78c1461014357806339b70e381461013e5780633a98ef391461013957806347e7ef241461013457806356a7117b14610125578063821460f5146101025780638406c0791461012f578063893d4d9e1461012a5780639910a665146101255780639d9cc41a146101205780639fd0506d1461011b578063a841ec3914610116578063ab5921e114610111578063ce7c2ac21461010c578063d9caed1214610107578063f5f1b29c14610102578063f8c8765e146100fd5763fc1d98fb146100f857600080fd5b610889565b61072d565b6103d2565b610629565b610607565b610536565b6104dc565b6104b3565b61042a565b6103b4565b61014d565b610401565b610275565b610257565b61022e565b610212565b6101bb565b346101a55760203660031901126101a5576003546103e8908181018091116101a057610177610e9e565b9182018092116101a05760209161019361019892600435610902565b610915565b604051908152f35b6108b2565b600080fd5b6001600160a01b038116036101a557565b60a03660031901126101a55760206102086044356101d8816101aa565b6064356101e4816101aa565b6101f960018060a01b03600254163314610935565b60843591602435600435610a11565b6040519015158152f35b346101a55760003660031901126101a557602047604051908152f35b346101a55760003660031901126101a5576000546040516001600160a01b039091168152602090f35b346101a55760003660031901126101a5576020600354604051908152f35b346101a55760403660031901126101a557600435610292816101aa565b6024359060018060a01b036102ac81600054163314610b55565b80600154169116908114908115610396575b501561032b5761032790610317610312610300600354936101936102e1866108c8565b6102fa836102f56102f0610e9e565b6108c8565b610ba0565b92610902565b809361030d821515610bad565b6108d7565b600355565b6040519081529081906020820190565b0390f35b60405162461bcd60e51b815260206004820152603a60248201527f5374726174656779426173652e6465706f7369743a2043616e206f6e6c79206460448201527f65706f736974207374616b696e675765746820616e64206574680000000000006064820152608490fd5b73eeeeeeeeeeeeeeeeeeeeeeeeeeeeeeeeeeeeeeee915014386102be565b346101a55760203660031901126101a5576020610198600435610c10565b346101a55760203660031901126101a55760206101986103fc6004356103f7816101aa565b610cde565b610c10565b346101a55760003660031901126101a5576002546040516001600160a01b039091168152602090f35b346101a55760003660031901126101a5576001546040516370a0823160e01b815230600482015290602090829060249082906001600160a01b03165afa80156104ae57602091600091610481575b50604051908152f35b6104a19150823d84116104a7575b61049981836109d4565b8101906109f6565b38610478565b503d61048f565b610a05565b346101a55760003660031901126101a5576004546040516001600160a01b039091168152602090f35b60c03660031901126101a55760206102086044356104f9816101aa565b606435610505816101aa565b60843590610512826101aa565b61052760018060a01b03600254163314610935565b60a43592602435600435610c3f565b346101a55760003660031901126101a557604080519061055582610997565b604d825260207f4261736520537472617465677920696d706c656d656e746174696f6e20746f2060208401527f696e68657269742066726f6d20666f72206d6f726520636f6d706c657820696d828401526c706c656d656e746174696f6e7360981b606084015281519283916020835281519182602085015260005b8381106105f1575050600083830185015250601f01601f19168101030190f35b81810183015187820187015286945082016105d1565b346101a55760203660031901126101a55760206101986004356103f7816101aa565b346101a55760603660031901126101a55760048035610647816101aa565b602435610653816101aa565b60443591602061068160018060a01b0361067281600054163314610b55565b8654166001600160a01b031690565b604051632602edb160e01b815295869182905afa9384156104ae576106fc946106b2916000916106fe575b50610d55565b6106bb82610f59565b6106f7610312600354946106d186821115610da1565b6106f16106dd876108c8565b610193836106ec6102f0610e9e565b610902565b95610ba0565b61100f565b005b610720915060203d602011610726575b61071881836109d4565b810190610d3d565b386106ac565b503d61070e565b346101a55760803660031901126101a55760043561074a816101aa565b60243590610757826101aa565b604435610763816101aa565b60643590610770826101aa565b60008051602061118e833981519152549367ffffffffffffffff60ff8660401c1615951680159081610881575b6001149081610877575b15908161086e575b5061085c5760008051602061118e833981519152805467ffffffffffffffff191660011790556107e3938561083257610e29565b6107e957005b60008051602061118e833981519152805460ff60401b19169055604051600181527fc7f505b2f371ae2175ee4913f4499e1f2633a7b5936321eed1cdaeb6115181d290602090a1005b60008051602061118e833981519152805460ff60401b191668010000000000000000179055610e29565b60405163f92ee8a960e01b8152600490fd5b905015386107af565b303b1591506107a7565b86915061079d565b346101a55760003660031901126101a5576001546040516001600160a01b039091168152602090f35b634e487b7160e01b600052601160045260246000fd5b906103e882018092116101a057565b919082018092116101a057565b906801bc16d674ec800000918281029281840414901517156101a057565b818102929181159184041417156101a057565b811561091f570490565b634e487b7160e01b600052601260045260246000fd5b1561093c57565b60405162461bcd60e51b815260206004820152601860248201527f5374726174656779426173652e6f6e6c7952656c6179657200000000000000006044820152606490fd5b634e487b7160e01b600052604160045260246000fd5b6080810190811067ffffffffffffffff8211176109b357604052565b610981565b60e0810190811067ffffffffffffffff8211176109b357604052565b90601f8019910116810190811067ffffffffffffffff8211176109b357604052565b908160209103126101a5575190565b6040513d6000823e3d90fd5b92939091610a35610a2960015460018060a01b031690565b6001600160a01b031690565b6040516370a0823160e01b808252306004830152919690916020919082846024818c5afa9384156104ae57600094610b36575b506801bc16d674ec80000080941015610a8957505050505050505050600090565b604051908152306004820152978290899060249082905afa9081156104ae57610ac6610b1194610b0393610b169b600091610b19575b50046108e4565b604051630136884760e71b94810194909452602484019890985260448301969096526001600160a01b039095166064820152949385906084820190565b03601f1981018652856109d4565b610f06565b90565b610b309150863d88116104a75761049981836109d4565b38610abf565b610b4e919450833d85116104a75761049981836109d4565b9238610a68565b15610b5c57565b606460405162461bcd60e51b815260206004820152602060248201527f5374726174656779426173652e6f6e6c7953747261746567794d616e616765726044820152fd5b919082039182116101a057565b15610bb457565b60405162461bcd60e51b815260206004820152602e60248201527f5374726174656779426173652e6465706f7369743a206e65775368617265732060448201526d63616e6e6f74206265207a65726f60901b6064820152608490fd5b6003546103e88082018092116101a057610c28610e9e565b9081018091116101a057610b169261019391610902565b93909491926801bc16d674ec80000091824711610c625750505050505050600090565b8247048381029381850414901517156101a057610b1696604051966303b0230f60e41b60208901526024880152604487015260018060a01b03809216606487015216608485015260a484015260a48352610cbb836109b8565b3491610f06565b67ffffffffffffffff81116109b357601f01601f191660200190565b600054604051633d3f06c960e11b81526001600160a01b0392831660048201523060248201529160209183916044918391165afa9081156104ae57600091610d24575090565b610b16915060203d6020116104a75761049981836109d4565b908160209103126101a5575180151581036101a55790565b15610d5c57565b60405162461bcd60e51b815260206004820152601c60248201527f5374726174656779426173653a776974686472617720706175736564000000006044820152606490fd5b15610da857565b60405162461bcd60e51b815260206004820152604d60248201527f5374726174656779426173652e77697468647261773a20616d6f756e7453686160448201527f726573206d757374206265206c657373207468616e206f7220657175616c207460648201526c6f20746f74616c53686172657360981b608482015260a490fd5b9260ff60008051602061118e8339815191525460401c1615610e8c5760018060a01b0392838092816bffffffffffffffffffffffff60a01b9716876001541617600155168560045416176004551683600054161760005516906002541617600255565b604051631afcd79f60e31b8152600490fd5b6001546040516370a0823160e01b815230600482015290602090829060249082906001600160a01b03165afa9081156104ae57600091610ee7575b504781018091116101a05790565b610f00915060203d6020116104a75761049981836109d4565b38610ed9565b929060061b622673c001603f5a0210610f2a576000928392602083519301915af190565b6308c379a06000526020805278185361666543616c6c3a204e6f7420656e6f756768206761736058526064601cfd5b6001546001600160a01b0391821691168114908115610ff1575b5015610f7b57565b60405162461bcd60e51b815260206004820152604260248201527f5374726174656779426173652e77697468647261773a2043616e206f6e6c792060448201527f776974686472617720746865207374726174656779207765746820616e6420656064820152610e8d60f31b608482015260a490fd5b73eeeeeeeeeeeeeeeeeeeeeeeeeeeeeeeeeeeeeeee91501438610f73565b906001600160a01b0390811673eeeeeeeeeeeeeeeeeeeeeeeeeeeeeeeeeeeeeeee810361105c5750600080938193829383918315611052575b1690f1156104ae57565b6108fc9250611048565b926110c792600092839260405191602083019363a9059cbb60e01b855216602483015260448201526044815261109181610997565b519082865af13d15611122573d906110a882610cc2565b916110b660405193846109d4565b82523d6000602084013e5b8361112a565b8051908115159182611100575b50506110dd5750565b604051635274afe760e01b81526001600160a01b03919091166004820152602490fd5b61111b925090602080611117938301019101610d3d565b1590565b38806110d4565b6060906110c1565b90611151575080511561113f57805190602001fd5b604051630a12f52160e11b8152600490fd5b81511580611184575b611162575090565b604051639996b31560e01b81526001600160a01b039091166004820152602490fd5b50803b1561115a56fef0c57e16840df040f15088dc2f81fe391c3923bec73e23a9662efc9c229c6a00a2646970667358221220f60d06c0bba92ecdd22ce7a97ccd97e5876b4efc558a451e9261a82bf2973caf64736f6c63430008180033","linkReferences":{}},"methodIdentifiers":{"ETHBalance()":"3055a78c","WETHBalance()":"9d9cc41a","deposit(address,uint256)":"47e7ef24","explanation()":"ab5921e1","initialize(address,address,address,address)":"f8c8765e","pauser()":"9fd0506d","relayer()":"8406c079","shares(address)":"ce7c2ac2","sharesToStaking(uint256)":"56a7117b","sharesToStakingView(uint256)":"9910a665","stakingToShares(uint256)":"893d4d9e","stakingToSharesView(uint256)":"10ed193a","stakingWeth()":"fc1d98fb","strategyManager()":"39b70e38","totalShares()":"3a98ef39","transferETHToL2DappLinkBridge(uint256,uint256,address,address,uint256)":"1a51cf75","transferWETHToL2DappLinkBridge(uint256,uint256,address,address,address,uint256)":"a841ec39","userStaking(address)":"821460f5","userStakingView(address)":"f5f1b29c","withdraw(address,address,uint256)":"d9caed12"},"id":96}