{"abi":[{"type":"constructor","inputs":[],"stateMutability":"nonpayable"},{"type":"function","name":"ETHBalance","inputs":[],"outputs":[{"name":"","type":"uint256","internalType":"uint256"}],"stateMutability":"view"},{"type":"function","name":"WETHBalance","inputs":[],"outputs":[{"name":"","type":"uint256","internalType":"uint256"}],"stateMutability":"view"},{"type":"function","name":"deposit","inputs":[{"name":"weth","type":"address","internalType":"contract IERC20"},{"name":"amount","type":"uint256","internalType":"uint256"}],"outputs":[{"name":"newShares","type":"uint256","internalType":"uint256"}],"stateMutability":"nonpayable"},{"type":"function","name":"explanation","inputs":[],"outputs":[{"name":"","type":"string","internalType":"string"}],"stateMutability":"pure"},{"type":"function","name":"initialize","inputs":[{"name":"_stakingWeth","type":"address","internalType":"contract IERC20"},{"name":"_relayer","type":"address","internalType":"address"},{"name":"_strategyManager","type":"address","internalType":"contract IStrategyManager"},{"name":"_pauser","type":"address","internalType":"contract IL2Pauser"}],"outputs":[],"stateMutability":"nonpayable"},{"type":"function","name":"pauser","inputs":[],"outputs":[{"name":"","type":"address","internalType":"contract IL2Pauser"}],"stateMutability":"view"},{"type":"function","name":"relayer","inputs":[],"outputs":[{"name":"","type":"address","internalType":"address"}],"stateMutability":"view"},{"type":"function","name":"shares","inputs":[{"name":"user","type":"address","internalType":"address"}],"outputs":[{"name":"","type":"uint256","internalType":"uint256"}],"stateMutability":"view"},{"type":"function","name":"sharesToStaking","inputs":[{"name":"amountShares","type":"uint256","internalType":"uint256"}],"outputs":[{"name":"","type":"uint256","internalType":"uint256"}],"stateMutability":"view"},{"type":"function","name":"sharesToStakingView","inputs":[{"name":"amountShares","type":"uint256","internalType":"uint256"}],"outputs":[{"name":"","type":"uint256","internalType":"uint256"}],"stateMutability":"view"},{"type":"function","name":"stakingToShares","inputs":[{"name":"amountStaking","type":"uint256","internalType":"uint256"}],"outputs":[{"name":"","type":"uint256","internalType":"uint256"}],"stateMutability":"view"},{"type":"function","name":"stakingToSharesView","inputs":[{"name":"amountStaking","type":"uint256","internalType":"uint256"}],"outputs":[{"name":"","type":"uint256","internalType":"uint256"}],"stateMutability":"view"},{"type":"function","name":"stakingWeth","inputs":[],"outputs":[{"name":"","type":"address","internalType":"contract IERC20"}],"stateMutability":"view"},{"type":"function","name":"strategyManager","inputs":[],"outputs":[{"name":"","type":"address","internalType":"contract IStrategyManager"}],"stateMutability":"view"},{"type":"function","name":"totalShares","inputs":[],"outputs":[{"name":"","type":"uint256","internalType":"uint256"}],"stateMutability":"view"},{"type":"function","name":"transferETHToL2DappLinkBridge","inputs":[{"name":"sourceChainId","type":"uint256","internalType":"uint256"},{"name":"destChainId","type":"uint256","internalType":"uint256"},{"name":"bridge","type":"address","internalType":"address"},{"name":"l1StakingManagerAddr","type":"address","internalType":"address"},{"name":"gasLimit","type":"uint256","internalType":"uint256"}],"outputs":[{"name":"","type":"bool","internalType":"bool"}],"stateMutability":"payable"},{"type":"function","name":"transferWETHToL2DappLinkBridge","inputs":[{"name":"sourceChainId","type":"uint256","internalType":"uint256"},{"name":"destChainId","type":"uint256","internalType":"uint256"},{"name":"bridge","type":"address","internalType":"address"},{"name":"l1StakingManagerAddr","type":"address","internalType":"address"},{"name":"wethAddress","type":"address","internalType":"address"},{"name":"gasLimit","type":"uint256","internalType":"uint256"}],"outputs":[{"name":"","type":"bool","internalType":"bool"}],"stateMutability":"payable"},{"type":"function","name":"userStaking","inputs":[{"name":"user","type":"address","internalType":"address"}],"outputs":[{"name":"","type":"uint256","internalType":"uint256"}],"stateMutability":"nonpayable"},{"type":"function","name":"userStakingView","inputs":[{"name":"user","type":"address","internalType":"address"}],"outputs":[{"name":"","type":"uint256","internalType":"uint256"}],"stateMutability":"view"},{"type":"function","name":"withdraw","inputs":[{"name":"recipient","type":"address","internalType":"address"},{"name":"weth","type":"address","internalType":"contract IERC20"},{"name":"amountShares","type":"uint256","internalType":"uint256"}],"outputs":[],"stateMutability":"nonpayable"},{"type":"event","name":"Initialized","inputs":[{"name":"version","type":"uint64","indexed":false,"internalType":"uint64"}],"anonymous":false},{"type":"error","name":"AddressEmptyCode","inputs":[{"name":"target","type":"address","internalType":"address"}]},{"type":"error","name":"AddressInsufficientBalance","inputs":[{"name":"account","type":"address","internalType":"address"}]},{"type":"error","name":"FailedInnerCall","inputs":[]},{"type":"error","name":"InvalidInitialization","inputs":[]},{"type":"error","name":"NotInitializing","inputs":[]},{"type":"error","name":"SafeERC20FailedOperation","inputs":[{"name":"token","type":"address","internalType":"address"}]}],"bytecode":{"object":"0x608060405234801561001057600080fd5b5061001961001e565b6100d0565b7ff0c57e16840df040f15088dc2f81fe391c3923bec73e23a9662efc9c229c6a00805468010000000000000000900460ff161561006e5760405163f92ee8a960e01b815260040160405180910390fd5b80546001600160401b03908116146100cd5780546001600160401b0319166001600160401b0390811782556040519081527fc7f505b2f371ae2175ee4913f4499e1f2633a7b5936321eed1cdaeb6115181d29060200160405180910390a15b50565b611644806100df6000396000f3fe60806040526004361061011f5760003560e01c80639910a665116100a0578063ce7c2ac211610064578063ce7c2ac214610305578063d9caed1214610325578063f5f1b29c14610347578063f8c8765e14610367578063fc1d98fb1461038757600080fd5b80639910a6651461027b5780639d9cc41a1461029b5780639fd0506d146102b0578063a841ec39146102d0578063ab5921e1146102e357600080fd5b806347e7ef24116100e757806347e7ef24146101db57806356a7117b146101fb578063821460f51461021b5780638406c0791461023b578063893d4d9e1461025b57600080fd5b806310ed193a146101245780631a51cf75146101575780633055a78c1461017a57806339b70e381461018d5780633a98ef39146101c5575b600080fd5b34801561013057600080fd5b5061014461013f3660046112d1565b6103a7565b6040519081526020015b60405180910390f35b61016a6101653660046112ff565b6103f2565b604051901515815260200161014e565b34801561018657600080fd5b5047610144565b34801561019957600080fd5b506000546101ad906001600160a01b031681565b6040516001600160a01b03909116815260200161014e565b3480156101d157600080fd5b5061014460035481565b3480156101e757600080fd5b506101446101f6366004611351565b6105d9565b34801561020757600080fd5b506101446102163660046112d1565b6107c4565b34801561022757600080fd5b5061014461023636600461137d565b6107cf565b34801561024757600080fd5b506002546101ad906001600160a01b031681565b34801561026757600080fd5b506101446102763660046112d1565b6107dd565b34801561028757600080fd5b506101446102963660046112d1565b6107e8565b3480156102a757600080fd5b50610144610821565b3480156102bc57600080fd5b506004546101ad906001600160a01b031681565b61016a6102de36600461139a565b610893565b3480156102ef57600080fd5b506102f86109ad565b60405161014e9190611425565b34801561031157600080fd5b5061014461032036600461137d565b6109cd565b34801561033157600080fd5b50610345610340366004611458565b610a42565b005b34801561035357600080fd5b5061014461036236600461137d565b610c4e565b34801561037357600080fd5b50610345610382366004611499565b610c5c565b34801561039357600080fd5b506001546101ad906001600160a01b031681565b6000806103e86003546103ba919061150b565b905060006103e86103c9610da0565b6103d3919061150b565b9050806103e0838661151e565b6103ea9190611535565b949350505050565b6002546000906001600160a01b0316331461044f5760405162461bcd60e51b815260206004820152601860248201527729ba3930ba32b3bca130b9b29737b7363ca932b630bcb2b960411b60448201526064015b60405180910390fd5b6001546040516370a0823160e01b81523060048201526801bc16d674ec800000916001600160a01b0316906370a0823190602401602060405180830381865afa1580156104a0573d6000803e3d6000fd5b505050506040513d601f19601f820116820180604052508101906104c49190611557565b106105cc576001546040516370a0823160e01b81523060048201526000916801bc16d674ec800000916001600160a01b03909116906370a0823190602401602060405180830381865afa15801561051f573d6000803e3d6000fd5b505050506040513d601f19601f820116820180604052508101906105439190611557565b61054d9190611535565b610560906801bc16d674ec80000061151e565b60405160248101899052604481018890526001600160a01b03861660648201529091506000906105c29087908690859060840160408051601f198184030181529190526020810180516001600160e01b0316630136884760e71b179052610e1b565b92506105d0915050565b5060005b95945050505050565b600080546001600160a01b031633146106345760405162461bcd60e51b815260206004820181905260248201527f5374726174656779426173652e6f6e6c7953747261746567794d616e616765726044820152606401610446565b6004805460408051631c187a5960e11b815290516001600160a01b0390921692633830f4b29282820192602092908290030181865afa15801561067b573d6000803e3d6000fd5b505050506040513d601f19601f8201168201806040525081019061069f9190611570565b6106eb5760405162461bcd60e51b815260206004820152601b60248201527f5374726174656779426173653a6465706f7369742070617573656400000000006044820152606401610446565b6106f483610e79565b60035460006107056103e88361150b565b905060006103e8610714610da0565b61071e919061150b565b9050600061072c8683611592565b905080610739848861151e565b6107439190611535565b9450846000036107ac5760405162461bcd60e51b815260206004820152602e60248201527f5374726174656779426173652e6465706f7369743a206e65775368617265732060448201526d63616e6e6f74206265207a65726f60901b6064820152608401610446565b6107b6858561150b565b600355505050505b92915050565b60006107be826107e8565b60006107be610216836109cd565b60006107be826103a7565b6000806103e86003546107fb919061150b565b905060006103e861080a610da0565b610814919061150b565b9050816103e0858361151e565b6001546040516370a0823160e01b81523060048201526000916001600160a01b0316906370a0823190602401602060405180830381865afa15801561086a573d6000803e3d6000fd5b505050506040513d601f19601f8201168201806040525081019061088e9190611557565b905090565b6002546000906001600160a01b031633146108eb5760405162461bcd60e51b815260206004820152601860248201527729ba3930ba32b3bca130b9b29737b7363ca932b630bcb2b960411b6044820152606401610446565b6801bc16d674ec80000047111561099f5760006109116801bc16d674ec80000047611535565b610924906801bc16d674ec80000061151e565b604051602481018a9052604481018990526001600160a01b0380881660648301528616608482015260a481018290529091506000906109959088908690349060c40160408051601f198184030181529190526020810180516001600160e01b03166303b0230f60e41b179052610e1b565b92506109a3915050565b5060005b9695505050505050565b60606040518060800160405280604d81526020016115c2604d9139905090565b60008054604051633d3f06c960e11b81526001600160a01b03848116600483015230602483015290911690637a7e0d9290604401602060405180830381865afa158015610a1e573d6000803e3d6000fd5b505050506040513d601f19601f820116820180604052508101906107be9190611557565b6000546001600160a01b03163314610a9c5760405162461bcd60e51b815260206004820181905260248201527f5374726174656779426173652e6f6e6c7953747261746567794d616e616765726044820152606401610446565b6004805460408051632602edb160e01b815290516001600160a01b0390921692632602edb19282820192602092908290030181865afa158015610ae3573d6000803e3d6000fd5b505050506040513d601f19601f82011682018060405250810190610b079190611570565b610b535760405162461bcd60e51b815260206004820152601c60248201527f5374726174656779426173653a776974686472617720706175736564000000006044820152606401610446565b610b5c82610f26565b60035480821115610beb5760405162461bcd60e51b815260206004820152604d60248201527f5374726174656779426173652e77697468647261773a20616d6f756e7453686160448201527f726573206d757374206265206c657373207468616e206f7220657175616c207460648201526c6f20746f74616c53686172657360981b608482015260a401610446565b6000610bf96103e88361150b565b905060006103e8610c08610da0565b610c12919061150b565b9050600082610c21868461151e565b610c2b9190611535565b9050610c378585611592565b600355610c45878783610fdb565b50505050505050565b60006107be610296836109cd565b7ff0c57e16840df040f15088dc2f81fe391c3923bec73e23a9662efc9c229c6a008054600160401b810460ff16159067ffffffffffffffff16600081158015610ca25750825b905060008267ffffffffffffffff166001148015610cbf5750303b155b905081158015610ccd575080155b15610ceb5760405163f92ee8a960e01b815260040160405180910390fd5b845467ffffffffffffffff191660011785558315610d1557845460ff60401b1916600160401b1785555b610d1f8987611055565b600080546001600160a01b03808a166001600160a01b03199283161790925560028054928b16929091169190911790558315610d9557845460ff60401b19168555604051600181527fc7f505b2f371ae2175ee4913f4499e1f2633a7b5936321eed1cdaeb6115181d29060200160405180910390a15b505050505050505050565b6001546040516370a0823160e01b815230600482015260009147916001600160a01b03909116906370a0823190602401602060405180830381865afa158015610ded573d6000803e3d6000fd5b505050506040513d601f19601f82011682018060405250810190610e119190611557565b61088e919061150b565b6000806000610e2b86600061108b565b905080610e61576308c379a06000526020805278185361666543616c6c3a204e6f7420656e6f756768206761736058526064601cfd5b600080855160208701888b5af1979650505050505050565b6001546001600160a01b0382811691161480610eb157506001600160a01b03811673eeeeeeeeeeeeeeeeeeeeeeeeeeeeeeeeeeeeeeee145b610f235760405162461bcd60e51b815260206004820152603a60248201527f5374726174656779426173652e6465706f7369743a2043616e206f6e6c79206460448201527f65706f736974207374616b696e675765746820616e64206574680000000000006064820152608401610446565b50565b6001546001600160a01b0382811691161480610f5e57506001600160a01b03811673eeeeeeeeeeeeeeeeeeeeeeeeeeeeeeeeeeeeeeee145b610f235760405162461bcd60e51b815260206004820152604260248201527f5374726174656779426173652e77697468647261773a2043616e206f6e6c792060448201527f776974686472617720746865207374726174656779207765746820616e6420656064820152610e8d60f31b608482015260a401610446565b73eeeeeeeeeeeeeeeeeeeeeeeeeeeeeeeeeeeeeeed196001600160a01b0383160161103c576040516001600160a01b0384169082156108fc029083906000818181858888f19350505050158015611036573d6000803e3d6000fd5b50505050565b6110506001600160a01b03831684836110a9565b505050565b61105d6110fb565b600180546001600160a01b039384166001600160a01b03199182161790915560048054929093169116179055565b600080603f83619c4001026040850201603f5a021015949350505050565b604080516001600160a01b038416602482015260448082018490528251808303909101815260649091019091526020810180516001600160e01b031663a9059cbb60e01b179052611050908490611146565b7ff0c57e16840df040f15088dc2f81fe391c3923bec73e23a9662efc9c229c6a0054600160401b900460ff1661114457604051631afcd79f60e31b815260040160405180910390fd5b565b600061115b6001600160a01b038416836111a9565b9050805160001415801561118057508080602001905181019061117e9190611570565b155b1561105057604051635274afe760e01b81526001600160a01b0384166004820152602401610446565b60606111b7838360006111be565b9392505050565b6060814710156111e35760405163cd78605960e01b8152306004820152602401610446565b600080856001600160a01b031684866040516111ff91906115a5565b60006040518083038185875af1925050503d806000811461123c576040519150601f19603f3d011682016040523d82523d6000602084013e611241565b606091505b50915091506109a38683836060826112615761125c826112a8565b6111b7565b815115801561127857506001600160a01b0384163b155b156112a157604051639996b31560e01b81526001600160a01b0385166004820152602401610446565b50806111b7565b8051156112b85780518082602001fd5b604051630a12f52160e11b815260040160405180910390fd5b6000602082840312156112e357600080fd5b5035919050565b6001600160a01b0381168114610f2357600080fd5b600080600080600060a0868803121561131757600080fd5b85359450602086013593506040860135611330816112ea565b92506060860135611340816112ea565b949793965091946080013592915050565b6000806040838503121561136457600080fd5b823561136f816112ea565b946020939093013593505050565b60006020828403121561138f57600080fd5b81356111b7816112ea565b60008060008060008060c087890312156113b357600080fd5b863595506020870135945060408701356113cc816112ea565b935060608701356113dc816112ea565b925060808701356113ec816112ea565b8092505060a087013590509295509295509295565b60005b8381101561141c578181015183820152602001611404565b50506000910152565b6020815260008251806020840152611444816040850160208701611401565b601f01601f19169190910160400192915050565b60008060006060848603121561146d57600080fd5b8335611478816112ea565b92506020840135611488816112ea565b929592945050506040919091013590565b600080600080608085870312156114af57600080fd5b84356114ba816112ea565b935060208501356114ca816112ea565b925060408501356114da816112ea565b915060608501356114ea816112ea565b939692955090935050565b634e487b7160e01b600052601160045260246000fd5b808201808211156107be576107be6114f5565b80820281158282048414176107be576107be6114f5565b60008261155257634e487b7160e01b600052601260045260246000fd5b500490565b60006020828403121561156957600080fd5b5051919050565b60006020828403121561158257600080fd5b815180151581146111b757600080fd5b818103818111156107be576107be6114f5565b600082516115b7818460208701611401565b919091019291505056fe4261736520537472617465677920696d706c656d656e746174696f6e20746f20696e68657269742066726f6d20666f72206d6f726520636f6d706c657820696d706c656d656e746174696f6e73a26469706673582212200186db28be648bd2f54923c3d66f27dc72491e727e94340dd05d4184decc5e0b64736f6c63430008180033","linkReferences":{}},"methodIdentifiers":{"ETHBalance()":"3055a78c","WETHBalance()":"9d9cc41a","deposit(address,uint256)":"47e7ef24","explanation()":"ab5921e1","initialize(address,address,address,address)":"f8c8765e","pauser()":"9fd0506d","relayer()":"8406c079","shares(address)":"ce7c2ac2","sharesToStaking(uint256)":"56a7117b","sharesToStakingView(uint256)":"9910a665","stakingToShares(uint256)":"893d4d9e","stakingToSharesView(uint256)":"10ed193a","stakingWeth()":"fc1d98fb","strategyManager()":"39b70e38","totalShares()":"3a98ef39","transferETHToL2DappLinkBridge(uint256,uint256,address,address,uint256)":"1a51cf75","transferWETHToL2DappLinkBridge(uint256,uint256,address,address,address,uint256)":"a841ec39","userStaking(address)":"821460f5","userStakingView(address)":"f5f1b29c","withdraw(address,address,uint256)":"d9caed12"},"id":99}