{"abi":[{"type":"constructor","inputs":[],"stateMutability":"nonpayable"},{"type":"function","name":"deposit","inputs":[{"name":"token","type":"address","internalType":"contract IERC20"},{"name":"amount","type":"uint256","internalType":"uint256"}],"outputs":[{"name":"newShares","type":"uint256","internalType":"uint256"}],"stateMutability":"nonpayable"},{"type":"function","name":"explanation","inputs":[],"outputs":[{"name":"","type":"string","internalType":"string"}],"stateMutability":"pure"},{"type":"function","name":"initialize","inputs":[{"name":"_underlyingToken","type":"address","internalType":"contract IERC20"},{"name":"_relayer","type":"address","internalType":"address"},{"name":"_strategyManager","type":"address","internalType":"contract IStrategyManager"},{"name":"_pauser","type":"address","internalType":"contract IL2Pauser"}],"outputs":[],"stateMutability":"nonpayable"},{"type":"function","name":"pauser","inputs":[],"outputs":[{"name":"","type":"address","internalType":"contract IL2Pauser"}],"stateMutability":"view"},{"type":"function","name":"relayer","inputs":[],"outputs":[{"name":"","type":"address","internalType":"address"}],"stateMutability":"view"},{"type":"function","name":"shares","inputs":[{"name":"user","type":"address","internalType":"address"}],"outputs":[{"name":"","type":"uint256","internalType":"uint256"}],"stateMutability":"view"},{"type":"function","name":"sharesToUnderlying","inputs":[{"name":"amountShares","type":"uint256","internalType":"uint256"}],"outputs":[{"name":"","type":"uint256","internalType":"uint256"}],"stateMutability":"view"},{"type":"function","name":"sharesToUnderlyingView","inputs":[{"name":"amountShares","type":"uint256","internalType":"uint256"}],"outputs":[{"name":"","type":"uint256","internalType":"uint256"}],"stateMutability":"view"},{"type":"function","name":"strategyManager","inputs":[],"outputs":[{"name":"","type":"address","internalType":"contract IStrategyManager"}],"stateMutability":"view"},{"type":"function","name":"tokenETHBalance","inputs":[],"outputs":[{"name":"","type":"uint256","internalType":"uint256"}],"stateMutability":"view"},{"type":"function","name":"tokenWETHBalance","inputs":[],"outputs":[{"name":"","type":"uint256","internalType":"uint256"}],"stateMutability":"view"},{"type":"function","name":"totalShares","inputs":[],"outputs":[{"name":"","type":"uint256","internalType":"uint256"}],"stateMutability":"view"},{"type":"function","name":"transferETHToL2DappLinkBridge","inputs":[{"name":"sourceChainId","type":"uint256","internalType":"uint256"},{"name":"destChainId","type":"uint256","internalType":"uint256"},{"name":"bridge","type":"address","internalType":"address"},{"name":"l1StakingManagerAddr","type":"address","internalType":"address"},{"name":"gasLimit","type":"uint256","internalType":"uint256"}],"outputs":[{"name":"","type":"bool","internalType":"bool"}],"stateMutability":"payable"},{"type":"function","name":"transferWETHToL2DappLinkBridge","inputs":[{"name":"sourceChainId","type":"uint256","internalType":"uint256"},{"name":"destChainId","type":"uint256","internalType":"uint256"},{"name":"bridge","type":"address","internalType":"address"},{"name":"l1StakingManagerAddr","type":"address","internalType":"address"},{"name":"wethAddress","type":"address","internalType":"address"},{"name":"gasLimit","type":"uint256","internalType":"uint256"}],"outputs":[{"name":"","type":"bool","internalType":"bool"}],"stateMutability":"payable"},{"type":"function","name":"underlyingToShares","inputs":[{"name":"amountUnderlying","type":"uint256","internalType":"uint256"}],"outputs":[{"name":"","type":"uint256","internalType":"uint256"}],"stateMutability":"view"},{"type":"function","name":"underlyingToSharesView","inputs":[{"name":"amountUnderlying","type":"uint256","internalType":"uint256"}],"outputs":[{"name":"","type":"uint256","internalType":"uint256"}],"stateMutability":"view"},{"type":"function","name":"underlyingToken","inputs":[],"outputs":[{"name":"","type":"address","internalType":"contract IERC20"}],"stateMutability":"view"},{"type":"function","name":"userUnderlying","inputs":[{"name":"user","type":"address","internalType":"address"}],"outputs":[{"name":"","type":"uint256","internalType":"uint256"}],"stateMutability":"nonpayable"},{"type":"function","name":"userUnderlyingView","inputs":[{"name":"user","type":"address","internalType":"address"}],"outputs":[{"name":"","type":"uint256","internalType":"uint256"}],"stateMutability":"view"},{"type":"function","name":"withdraw","inputs":[{"name":"recipient","type":"address","internalType":"address"},{"name":"token","type":"address","internalType":"contract IERC20"},{"name":"amountShares","type":"uint256","internalType":"uint256"}],"outputs":[],"stateMutability":"nonpayable"},{"type":"event","name":"Initialized","inputs":[{"name":"version","type":"uint64","indexed":false,"internalType":"uint64"}],"anonymous":false},{"type":"error","name":"AddressEmptyCode","inputs":[{"name":"target","type":"address","internalType":"address"}]},{"type":"error","name":"AddressInsufficientBalance","inputs":[{"name":"account","type":"address","internalType":"address"}]},{"type":"error","name":"FailedInnerCall","inputs":[]},{"type":"error","name":"InvalidInitialization","inputs":[]},{"type":"error","name":"NotInitializing","inputs":[]},{"type":"error","name":"SafeERC20FailedOperation","inputs":[{"name":"token","type":"address","internalType":"address"}]}],"bytecode":{"object":"0x608060405234801561001057600080fd5b5061001961001e565b6100d0565b7ff0c57e16840df040f15088dc2f81fe391c3923bec73e23a9662efc9c229c6a00805468010000000000000000900460ff161561006e5760405163f92ee8a960e01b815260040160405180910390fd5b80546001600160401b03908116146100cd5780546001600160401b0319166001600160401b0390811782556040519081527fc7f505b2f371ae2175ee4913f4499e1f2633a7b5936321eed1cdaeb6115181d29060200160405180910390a15b50565b611649806100df6000396000f3fe60806040526004361061011f5760003560e01c80638f6a6240116100a0578063ce7c2ac211610064578063ce7c2ac214610305578063d9caed1214610325578063e3dae51c14610347578063f3e7387514610367578063f8c8765e1461038757600080fd5b80638f6a62401461027b5780639fd0506d1461029b578063a841ec39146102bb578063ab5921e1146102ce578063ac36440a146102f057600080fd5b806349fcf4a7116100e757806349fcf4a7146101e8578063553ca5f8146101fb5780637a8b26371461021b5780638406c0791461023b5780638c8710191461025b57600080fd5b80631a51cf75146101245780632495a5991461014c57806339b70e38146101845780633a98ef39146101a457806347e7ef24146101c8575b600080fd5b6101376101323660046112eb565b6103a7565b60405190151581526020015b60405180910390f35b34801561015857600080fd5b5060015461016c906001600160a01b031681565b6040516001600160a01b039091168152602001610143565b34801561019057600080fd5b5060005461016c906001600160a01b031681565b3480156101b057600080fd5b506101ba60035481565b604051908152602001610143565b3480156101d457600080fd5b506101ba6101e336600461133d565b61058e565b3480156101f457600080fd5b50476101ba565b34801561020757600080fd5b506101ba610216366004611369565b61077a565b34801561022757600080fd5b506101ba610236366004611386565b610788565b34801561024757600080fd5b5060025461016c906001600160a01b031681565b34801561026757600080fd5b506101ba610276366004611386565b6107d3565b34801561028757600080fd5b506101ba610296366004611369565b6107de565b3480156102a757600080fd5b5060045461016c906001600160a01b031681565b6101376102c936600461139f565b6107ec565b3480156102da57600080fd5b506102e3610906565b604051610143919061142a565b3480156102fc57600080fd5b506101ba610926565b34801561031157600080fd5b506101ba610320366004611369565b610998565b34801561033157600080fd5b5061034561034036600461145d565b610a0d565b005b34801561035357600080fd5b506101ba610362366004611386565b610c1b565b34801561037357600080fd5b506101ba610382366004611386565b610c54565b34801561039357600080fd5b506103456103a236600461149e565b610c5f565b6002546000906001600160a01b031633146104045760405162461bcd60e51b815260206004820152601860248201527729ba3930ba32b3bca130b9b29737b7363ca932b630bcb2b960411b60448201526064015b60405180910390fd5b6001546040516370a0823160e01b81523060048201526801bc16d674ec800000916001600160a01b0316906370a0823190602401602060405180830381865afa158015610455573d6000803e3d6000fd5b505050506040513d601f19601f8201168201806040525081019061047991906114fa565b10610581576001546040516370a0823160e01b81523060048201526000916801bc16d674ec800000916001600160a01b03909116906370a0823190602401602060405180830381865afa1580156104d4573d6000803e3d6000fd5b505050506040513d601f19601f820116820180604052508101906104f891906114fa565b6105029190611529565b610515906801bc16d674ec80000061154b565b60405160248101899052604481018890526001600160a01b03861660648201529091506000906105779087908690349060840160408051601f198184030181529190526020810180516001600160e01b031663ba4abe0f60e01b179052610da0565b9250610585915050565b5060005b95945050505050565b600080546001600160a01b031633146105e95760405162461bcd60e51b815260206004820181905260248201527f5374726174656779426173652e6f6e6c7953747261746567794d616e6167657260448201526064016103fb565b6004805460408051631c187a5960e11b815290516001600160a01b0390921692633830f4b29282820192602092908290030181865afa158015610630573d6000803e3d6000fd5b505050506040513d601f19601f820116820180604052508101906106549190611562565b6106a05760405162461bcd60e51b815260206004820152601b60248201527f5374726174656779426173653a6465706f73697420706175736564000000000060448201526064016103fb565b6106aa8383610dfe565b60035460006106bb6103e883611584565b905060006103e86106ca610eac565b6106d49190611584565b905060006106e28683611597565b9050806106ef848861154b565b6106f99190611529565b9450846000036107625760405162461bcd60e51b815260206004820152602e60248201527f5374726174656779426173652e6465706f7369743a206e65775368617265732060448201526d63616e6e6f74206265207a65726f60901b60648201526084016103fb565b61076c8585611584565b600355505050505b92915050565b600061077461023683610998565b6000806103e860035461079b9190611584565b905060006103e86107aa610eac565b6107b49190611584565b9050816107c1858361154b565b6107cb9190611529565b949350505050565b600061077482610c1b565b600061077461038283610998565b6002546000906001600160a01b031633146108445760405162461bcd60e51b815260206004820152601860248201527729ba3930ba32b3bca130b9b29737b7363ca932b630bcb2b960411b60448201526064016103fb565b6801bc16d674ec8000004711156108f857600061086a6801bc16d674ec80000047611529565b61087d906801bc16d674ec80000061154b565b604051602481018a9052604481018990526001600160a01b0380881660648301528616608482015260a481018290529091506000906108ee9088908690349060c40160408051601f198184030181529190526020810180516001600160e01b0316633a1521b760e01b179052610da0565b92506108fc915050565b5060005b9695505050505050565b60606040518060800160405280604d81526020016115c7604d9139905090565b6001546040516370a0823160e01b81523060048201526000916001600160a01b0316906370a0823190602401602060405180830381865afa15801561096f573d6000803e3d6000fd5b505050506040513d601f19601f8201168201806040525081019061099391906114fa565b905090565b60008054604051633d3f06c960e11b81526001600160a01b03848116600483015230602483015290911690637a7e0d9290604401602060405180830381865afa1580156109e9573d6000803e3d6000fd5b505050506040513d601f19601f8201168201806040525081019061077491906114fa565b6000546001600160a01b03163314610a675760405162461bcd60e51b815260206004820181905260248201527f5374726174656779426173652e6f6e6c7953747261746567794d616e6167657260448201526064016103fb565b6004805460408051632602edb160e01b815290516001600160a01b0390921692632602edb19282820192602092908290030181865afa158015610aae573d6000803e3d6000fd5b505050506040513d601f19601f82011682018060405250810190610ad29190611562565b610b1e5760405162461bcd60e51b815260206004820152601c60248201527f5374726174656779426173653a7769746864726177207061757365640000000060448201526064016103fb565b610b29838383610f27565b60035480821115610bb85760405162461bcd60e51b815260206004820152604d60248201527f5374726174656779426173652e77697468647261773a20616d6f756e7453686160448201527f726573206d757374206265206c657373207468616e206f7220657175616c207460648201526c6f20746f74616c53686172657360981b608482015260a4016103fb565b6000610bc66103e883611584565b905060006103e8610bd5610eac565b610bdf9190611584565b9050600082610bee868461154b565b610bf89190611529565b9050610c048585611597565b600355610c12878783610fe2565b50505050505050565b6000806103e8600354610c2e9190611584565b905060006103e8610c3d610eac565b610c479190611584565b9050806107c1838661154b565b600061077482610788565b7ff0c57e16840df040f15088dc2f81fe391c3923bec73e23a9662efc9c229c6a008054600160401b810460ff16159067ffffffffffffffff16600081158015610ca55750825b905060008267ffffffffffffffff166001148015610cc25750303b155b905081158015610cd0575080155b15610cee5760405163f92ee8a960e01b815260040160405180910390fd5b845467ffffffffffffffff191660011785558315610d1857845460ff60401b1916600160401b1785555b610d228987611057565b600080546001600160a01b03808a166001600160a01b03199283161790925560028054918216919092161790558315610d9557845460ff60401b19168555604051600181527fc7f505b2f371ae2175ee4913f4499e1f2633a7b5936321eed1cdaeb6115181d29060200160405180910390a15b505050505050505050565b6000806000610db086600061108d565b905080610de6576308c379a06000526020805278185361666543616c6c3a204e6f7420656e6f756768206761736058526064601cfd5b600080855160208701888b5af1979650505050505050565b6001546001600160a01b0383811691161480610e3657506001600160a01b03821673eeeeeeeeeeeeeeeeeeeeeeeeeeeeeeeeeeeeeeee145b610ea85760405162461bcd60e51b815260206004820152603e60248201527f5374726174656779426173652e6465706f7369743a2043616e206f6e6c79206460448201527f65706f73697420756e6465726c79696e67546f6b656e20616e6420657468000060648201526084016103fb565b5050565b6001546040516370a0823160e01b815230600482015260009147916001600160a01b03909116906370a0823190602401602060405180830381865afa158015610ef9573d6000803e3d6000fd5b505050506040513d601f19601f82011682018060405250810190610f1d91906114fa565b6109939190611584565b6001546001600160a01b0383811691161480610f5f57506001600160a01b03821673eeeeeeeeeeeeeeeeeeeeeeeeeeeeeeeeeeeeeeee145b610fdd5760405162461bcd60e51b815260206004820152604360248201527f5374726174656779426173652e77697468647261773a2043616e206f6e6c792060448201527f77697468647261772074686520737472617465677920746f6b656e20616e64206064820152620cae8d60eb1b608482015260a4016103fb565b505050565b73eeeeeeeeeeeeeeeeeeeeeeeeeeeeeeeeeeeeeeed196001600160a01b03831601611043576040516001600160a01b0384169082156108fc029083906000818181858888f1935050505015801561103d573d6000803e3d6000fd5b50505050565b610fdd6001600160a01b03831684836110ab565b61105f6110fd565b600180546001600160a01b039384166001600160a01b03199182161790915560048054929093169116179055565b600080603f83619c4001026040850201603f5a021015949350505050565b604080516001600160a01b038416602482015260448082018490528251808303909101815260649091019091526020810180516001600160e01b031663a9059cbb60e01b179052610fdd908490611148565b7ff0c57e16840df040f15088dc2f81fe391c3923bec73e23a9662efc9c229c6a0054600160401b900460ff1661114657604051631afcd79f60e31b815260040160405180910390fd5b565b600061115d6001600160a01b038416836111ab565b905080516000141580156111825750808060200190518101906111809190611562565b155b15610fdd57604051635274afe760e01b81526001600160a01b03841660048201526024016103fb565b60606111b9838360006111c0565b9392505050565b6060814710156111e55760405163cd78605960e01b81523060048201526024016103fb565b600080856001600160a01b0316848660405161120191906115aa565b60006040518083038185875af1925050503d806000811461123e576040519150601f19603f3d011682016040523d82523d6000602084013e611243565b606091505b50915091506108fc8683836060826112635761125e826112aa565b6111b9565b815115801561127a57506001600160a01b0384163b155b156112a357604051639996b31560e01b81526001600160a01b03851660048201526024016103fb565b50806111b9565b8051156112ba5780518082602001fd5b604051630a12f52160e11b815260040160405180910390fd5b50565b6001600160a01b03811681146112d357600080fd5b600080600080600060a0868803121561130357600080fd5b8535945060208601359350604086013561131c816112d6565b9250606086013561132c816112d6565b949793965091946080013592915050565b6000806040838503121561135057600080fd5b823561135b816112d6565b946020939093013593505050565b60006020828403121561137b57600080fd5b81356111b9816112d6565b60006020828403121561139857600080fd5b5035919050565b60008060008060008060c087890312156113b857600080fd5b863595506020870135945060408701356113d1816112d6565b935060608701356113e1816112d6565b925060808701356113f1816112d6565b8092505060a087013590509295509295509295565b60005b83811015611421578181015183820152602001611409565b50506000910152565b6020815260008251806020840152611449816040850160208701611406565b601f01601f19169190910160400192915050565b60008060006060848603121561147257600080fd5b833561147d816112d6565b9250602084013561148d816112d6565b929592945050506040919091013590565b600080600080608085870312156114b457600080fd5b84356114bf816112d6565b935060208501356114cf816112d6565b925060408501356114df816112d6565b915060608501356114ef816112d6565b939692955090935050565b60006020828403121561150c57600080fd5b5051919050565b634e487b7160e01b600052601160045260246000fd5b60008261154657634e487b7160e01b600052601260045260246000fd5b500490565b808202811582820484141761077457610774611513565b60006020828403121561157457600080fd5b815180151581146111b957600080fd5b8082018082111561077457610774611513565b8181038181111561077457610774611513565b600082516115bc818460208701611406565b919091019291505056fe4261736520537472617465677920696d706c656d656e746174696f6e20746f20696e68657269742066726f6d20666f72206d6f726520636f6d706c657820696d706c656d656e746174696f6e73a26469706673582212200c054060f326f73c4b998e6ae31b4e1302c4200b156c75200228f1906112e38464736f6c63430008180033","linkReferences":{}},"methodIdentifiers":{"deposit(address,uint256)":"47e7ef24","explanation()":"ab5921e1","initialize(address,address,address,address)":"f8c8765e","pauser()":"9fd0506d","relayer()":"8406c079","shares(address)":"ce7c2ac2","sharesToUnderlying(uint256)":"f3e73875","sharesToUnderlyingView(uint256)":"7a8b2637","strategyManager()":"39b70e38","tokenETHBalance()":"49fcf4a7","tokenWETHBalance()":"ac36440a","totalShares()":"3a98ef39","transferETHToL2DappLinkBridge(uint256,uint256,address,address,uint256)":"1a51cf75","transferWETHToL2DappLinkBridge(uint256,uint256,address,address,address,uint256)":"a841ec39","underlyingToShares(uint256)":"8c871019","underlyingToSharesView(uint256)":"e3dae51c","underlyingToken()":"2495a599","userUnderlying(address)":"8f6a6240","userUnderlyingView(address)":"553ca5f8","withdraw(address,address,uint256)":"d9caed12"},"id":99}