{"abi":[{"type":"constructor","inputs":[{"name":"initialOwner","type":"address","internalType":"address"}],"stateMutability":"nonpayable"},{"type":"function","name":"UPGRADE_INTERFACE_VERSION","inputs":[],"outputs":[{"name":"","type":"string","internalType":"string"}],"stateMutability":"view"},{"type":"function","name":"owner","inputs":[],"outputs":[{"name":"","type":"address","internalType":"address"}],"stateMutability":"view"},{"type":"function","name":"renounceOwnership","inputs":[],"outputs":[],"stateMutability":"nonpayable"},{"type":"function","name":"transferOwnership","inputs":[{"name":"newOwner","type":"address","internalType":"address"}],"outputs":[],"stateMutability":"nonpayable"},{"type":"function","name":"upgradeAndCall","inputs":[{"name":"proxy","type":"address","internalType":"contract ITransparentUpgradeableProxy"},{"name":"implementation","type":"address","internalType":"address"},{"name":"data","type":"bytes","internalType":"bytes"}],"outputs":[],"stateMutability":"payable"},{"type":"event","name":"OwnershipTransferred","inputs":[{"name":"previousOwner","type":"address","indexed":true,"internalType":"address"},{"name":"newOwner","type":"address","indexed":true,"internalType":"address"}],"anonymous":false},{"type":"error","name":"OwnableInvalidOwner","inputs":[{"name":"owner","type":"address","internalType":"address"}]},{"type":"error","name":"OwnableUnauthorizedAccount","inputs":[{"name":"account","type":"address","internalType":"address"}]}],"bytecode":{"object":"0x6080346100bb57601f6104ad38819003918201601f19168301916001600160401b038311848410176100c0578084926020946040528339810103126100bb57516001600160a01b0390818116908190036100bb5780156100a257600080546001600160a01b03198116831782556040519316907f8be0079c531659141344cd1fd0a4f28419497f9722a3daafe3b4186f6b6457e09080a36103d690816100d78239f35b604051631e4fbdf760e01b815260006004820152602490fd5b600080fd5b634e487b7160e01b600052604160045260246000fdfe60406080815260048036101561001457600080fd5b600091823560e01c8063715018a6146102da5780638da5cb5b146102ae5780639623609d14610165578063ad3cb1cc146100f25763f2fde38b1461005757600080fd5b346100ee5760203660031901126100ee576001600160a01b038235818116939192908490036100e957610088610374565b83156100d3575050600054826bffffffffffffffffffffffff60a01b821617600055167f8be0079c531659141344cd1fd0a4f28419497f9722a3daafe3b4186f6b6457e0600080a380f35b51631e4fbdf760e01b8152908101849052602490fd5b600080fd5b8280fd5b5082346101625780600319360112610162575080519080820182811067ffffffffffffffff82111761014d576101499350815260058252640352e302e360dc1b602083015251918291602083526020830190610334565b0390f35b604184634e487b7160e01b6000525260246000fd5b80fd5b5060603660031901126100ee576001600160a01b03918035838116919082900361027e5760249182359485168095036102aa5760443567ffffffffffffffff918282116102a657366023830112156102a6578184013583811161029457865192601f8201601f19908116603f011684018581118582101761028257885281845289939291903682820189011161027e578185928960209301838701378401015261020d610374565b803b156100ee5761023d97875180998194829363278f794360e11b8452898401528a8a8401526044830190610334565b039134905af1801561027457610251578580f35b84116102635750505238808080808580f35b634e487b7160e01b85526041905283fd5b84513d88823e3d90fd5b8480fd5b634e487b7160e01b8b5260418752878bfd5b634e487b7160e01b8952604185528589fd5b8780fd5b8580fd5b8382346102d657816003193601126102d657905490516001600160a01b039091168152602090f35b5080fd5b83346101625780600319360112610162576102f3610374565b80546001600160a01b03198116825581906001600160a01b03167f8be0079c531659141344cd1fd0a4f28419497f9722a3daafe3b4186f6b6457e08280a380f35b919082519283825260005b848110610360575050826000602080949584010152601f8019910116010190565b60208183018101518483018201520161033f565b6000546001600160a01b0316330361038857565b60405163118cdaa760e01b8152336004820152602490fdfea26469706673582212202e5acff536f12acea7c1b43eee004a45687f2c605ea66682c081e109cd98877364736f6c63430008180033","linkReferences":{}},"methodIdentifiers":{"UPGRADE_INTERFACE_VERSION()":"ad3cb1cc","owner()":"8da5cb5b","renounceOwnership()":"715018a6","transferOwnership(address)":"f2fde38b","upgradeAndCall(address,address,bytes)":"9623609d"},"id":51}