{"abi":[{"type":"constructor","inputs":[],"stateMutability":"nonpayable"},{"type":"function","name":"DEFAULT_ADMIN_ROLE","inputs":[],"outputs":[{"name":"","type":"bytes32","internalType":"bytes32"}],"stateMutability":"view"},{"type":"function","name":"QUORUM_MANAGER_ROLE","inputs":[],"outputs":[{"name":"","type":"bytes32","internalType":"bytes32"}],"stateMutability":"view"},{"type":"function","name":"REPORTER_MODIFIER_ROLE","inputs":[],"outputs":[{"name":"","type":"bytes32","internalType":"bytes32"}],"stateMutability":"view"},{"type":"function","name":"SERVICE_ORACLE_REPORTER","inputs":[],"outputs":[{"name":"","type":"bytes32","internalType":"bytes32"}],"stateMutability":"view"},{"type":"function","name":"absoluteThreshold","inputs":[],"outputs":[{"name":"","type":"uint16","internalType":"uint16"}],"stateMutability":"view"},{"type":"function","name":"getRoleAdmin","inputs":[{"name":"role","type":"bytes32","internalType":"bytes32"}],"outputs":[{"name":"","type":"bytes32","internalType":"bytes32"}],"stateMutability":"view"},{"type":"function","name":"getRoleMember","inputs":[{"name":"role","type":"bytes32","internalType":"bytes32"},{"name":"index","type":"uint256","internalType":"uint256"}],"outputs":[{"name":"","type":"address","internalType":"address"}],"stateMutability":"view"},{"type":"function","name":"getRoleMemberCount","inputs":[{"name":"role","type":"bytes32","internalType":"bytes32"}],"outputs":[{"name":"","type":"uint256","internalType":"uint256"}],"stateMutability":"view"},{"type":"function","name":"grantRole","inputs":[{"name":"role","type":"bytes32","internalType":"bytes32"},{"name":"account","type":"address","internalType":"address"}],"outputs":[],"stateMutability":"nonpayable"},{"type":"function","name":"hasRole","inputs":[{"name":"role","type":"bytes32","internalType":"bytes32"},{"name":"account","type":"address","internalType":"address"}],"outputs":[{"name":"","type":"bool","internalType":"bool"}],"stateMutability":"view"},{"type":"function","name":"initialize","inputs":[{"name":"init","type":"tuple","internalType":"struct OracleQuorumManager.Init","components":[{"name":"admin","type":"address","internalType":"address"},{"name":"reporterModifier","type":"address","internalType":"address"},{"name":"manager","type":"address","internalType":"address"},{"name":"allowedReporters","type":"address[]","internalType":"address[]"},{"name":"oracle","type":"address","internalType":"contract IOracleManager"}]}],"outputs":[],"stateMutability":"nonpayable"},{"type":"function","name":"oracle","inputs":[],"outputs":[{"name":"","type":"address","internalType":"contract IOracleManager"}],"stateMutability":"view"},{"type":"function","name":"receiveRecord","inputs":[{"name":"record","type":"tuple","internalType":"struct OracleRecord","components":[{"name":"updateStartBlock","type":"uint64","internalType":"uint64"},{"name":"updateEndBlock","type":"uint64","internalType":"uint64"},{"name":"currentNumValidatorsNotWithdrawable","type":"uint64","internalType":"uint64"},{"name":"cumulativeNumValidatorsWithdrawable","type":"uint64","internalType":"uint64"},{"name":"windowWithdrawnPrincipalAmount","type":"uint128","internalType":"uint128"},{"name":"windowWithdrawnRewardAmount","type":"uint128","internalType":"uint128"},{"name":"currentTotalValidatorBalance","type":"uint128","internalType":"uint128"},{"name":"cumulativeProcessedDepositAmount","type":"uint128","internalType":"uint128"}]}],"outputs":[],"stateMutability":"nonpayable"},{"type":"function","name":"recordHashByBlockAndSender","inputs":[{"name":"blockNumber","type":"uint64","internalType":"uint64"},{"name":"sender","type":"address","internalType":"address"}],"outputs":[{"name":"","type":"bytes32","internalType":"bytes32"}],"stateMutability":"view"},{"type":"function","name":"recordHashCountByBlock","inputs":[{"name":"block","type":"uint64","internalType":"uint64"},{"name":"recordHash","type":"bytes32","internalType":"bytes32"}],"outputs":[{"name":"","type":"uint256","internalType":"uint256"}],"stateMutability":"view"},{"type":"function","name":"relativeThresholdBasisPoints","inputs":[],"outputs":[{"name":"","type":"uint16","internalType":"uint16"}],"stateMutability":"view"},{"type":"function","name":"renounceRole","inputs":[{"name":"role","type":"bytes32","internalType":"bytes32"},{"name":"callerConfirmation","type":"address","internalType":"address"}],"outputs":[],"stateMutability":"nonpayable"},{"type":"function","name":"reporterRecordHashesByBlock","inputs":[{"name":"block","type":"uint64","internalType":"uint64"},{"name":"reporter","type":"address","internalType":"address"}],"outputs":[{"name":"recordHash","type":"bytes32","internalType":"bytes32"}],"stateMutability":"view"},{"type":"function","name":"revokeRole","inputs":[{"name":"role","type":"bytes32","internalType":"bytes32"},{"name":"account","type":"address","internalType":"address"}],"outputs":[],"stateMutability":"nonpayable"},{"type":"function","name":"setQuorumThresholds","inputs":[{"name":"absoluteThreshold_","type":"uint16","internalType":"uint16"},{"name":"relativeThresholdBasisPoints_","type":"uint16","internalType":"uint16"}],"outputs":[],"stateMutability":"nonpayable"},{"type":"function","name":"setTargetReportWindowBlocks","inputs":[{"name":"newTargetReportWindowBlocks","type":"uint64","internalType":"uint64"}],"outputs":[],"stateMutability":"nonpayable"},{"type":"function","name":"supportsInterface","inputs":[{"name":"interfaceId","type":"bytes4","internalType":"bytes4"}],"outputs":[{"name":"","type":"bool","internalType":"bool"}],"stateMutability":"view"},{"type":"function","name":"targetReportWindowBlocks","inputs":[],"outputs":[{"name":"","type":"uint64","internalType":"uint64"}],"stateMutability":"view"},{"type":"event","name":"Initialized","inputs":[{"name":"version","type":"uint64","indexed":false,"internalType":"uint64"}],"anonymous":false},{"type":"event","name":"OracleRecordReceivedError","inputs":[{"name":"reason","type":"bytes","indexed":false,"internalType":"bytes"}],"anonymous":false},{"type":"event","name":"ProtocolConfigChanged","inputs":[{"name":"setterSelector","type":"bytes4","indexed":true,"internalType":"bytes4"},{"name":"setterSignature","type":"string","indexed":false,"internalType":"string"},{"name":"value","type":"bytes","indexed":false,"internalType":"bytes"}],"anonymous":false},{"type":"event","name":"ReportQuorumReached","inputs":[{"name":"block","type":"uint64","indexed":true,"internalType":"uint64"}],"anonymous":false},{"type":"event","name":"ReportReceived","inputs":[{"name":"block","type":"uint64","indexed":true,"internalType":"uint64"},{"name":"reporter","type":"address","indexed":true,"internalType":"address"},{"name":"recordHash","type":"bytes32","indexed":true,"internalType":"bytes32"},{"name":"record","type":"tuple","indexed":false,"internalType":"struct OracleRecord","components":[{"name":"updateStartBlock","type":"uint64","internalType":"uint64"},{"name":"updateEndBlock","type":"uint64","internalType":"uint64"},{"name":"currentNumValidatorsNotWithdrawable","type":"uint64","internalType":"uint64"},{"name":"cumulativeNumValidatorsWithdrawable","type":"uint64","internalType":"uint64"},{"name":"windowWithdrawnPrincipalAmount","type":"uint128","internalType":"uint128"},{"name":"windowWithdrawnRewardAmount","type":"uint128","internalType":"uint128"},{"name":"currentTotalValidatorBalance","type":"uint128","internalType":"uint128"},{"name":"cumulativeProcessedDepositAmount","type":"uint128","internalType":"uint128"}]}],"anonymous":false},{"type":"event","name":"RoleAdminChanged","inputs":[{"name":"role","type":"bytes32","indexed":true,"internalType":"bytes32"},{"name":"previousAdminRole","type":"bytes32","indexed":true,"internalType":"bytes32"},{"name":"newAdminRole","type":"bytes32","indexed":true,"internalType":"bytes32"}],"anonymous":false},{"type":"event","name":"RoleGranted","inputs":[{"name":"role","type":"bytes32","indexed":true,"internalType":"bytes32"},{"name":"account","type":"address","indexed":true,"internalType":"address"},{"name":"sender","type":"address","indexed":true,"internalType":"address"}],"anonymous":false},{"type":"event","name":"RoleRevoked","inputs":[{"name":"role","type":"bytes32","indexed":true,"internalType":"bytes32"},{"name":"account","type":"address","indexed":true,"internalType":"address"},{"name":"sender","type":"address","indexed":true,"internalType":"address"}],"anonymous":false},{"type":"error","name":"AccessControlBadConfirmation","inputs":[]},{"type":"error","name":"AccessControlUnauthorizedAccount","inputs":[{"name":"account","type":"address","internalType":"address"},{"name":"neededRole","type":"bytes32","internalType":"bytes32"}]},{"type":"error","name":"AlreadyReporter","inputs":[]},{"type":"error","name":"InvalidInitialization","inputs":[]},{"type":"error","name":"InvalidReporter","inputs":[]},{"type":"error","name":"NotInitializing","inputs":[]},{"type":"error","name":"RelativeThresholdExceedsOne","inputs":[]}],"bytecode":{"object":"0x608060405234801561001057600080fd5b5061001961001e565b6100d0565b7ff0c57e16840df040f15088dc2f81fe391c3923bec73e23a9662efc9c229c6a00805468010000000000000000900460ff161561006e5760405163f92ee8a960e01b815260040160405180910390fd5b80546001600160401b03908116146100cd5780546001600160401b0319166001600160401b0390811782556040519081527fc7f505b2f371ae2175ee4913f4499e1f2633a7b5936321eed1cdaeb6115181d29060200160405180910390a15b50565b611a41806100df6000396000f3fe608060405234801561001057600080fd5b506004361061014d5760003560e01c80639010d07c116100c3578063ca15c8731161007c578063ca15c87314610341578063cca1532d14610354578063cfde05461461037b578063d547741f146103a3578063f2f3a74c146103b6578063f8a60cf9146103cb57600080fd5b80639010d07c146102aa57806391d14854146102bd5780639c067b3a146102d0578063a217fddf14610311578063ab980d9414610319578063c6b861b91461032e57600080fd5b80632f2ff15d116101155780632f2ff15d14610206578063318e8d9d1461021b57806336568abe1461022e57806350148afa14610241578063574e4a5a146102545780637dc0d1d01461027f57600080fd5b806301ffc9a7146101525780630abc7d011461017a57806312758f48146101b35780631e8d5362146101c8578063248a9ca3146101f3575b600080fd5b6101656101603660046112da565b6103de565b60405190151581526020015b60405180910390f35b6101a5610188366004611329565b600260209081526000928352604080842090915290825290205481565b604051908152602001610171565b6101a56000805160206119ec83398151915281565b6101a56101d636600461136a565b600160209081526000928352604080842090915290825290205481565b6101a56102013660046113a3565b610409565b6102196102143660046113bc565b61042b565b005b61021961022936600461145a565b61044d565b61021961023c3660046113bc565b610681565b61021961024f36600461157f565b6106b9565b600354610267906001600160401b031681565b6040516001600160401b039091168152602001610171565b600054610292906001600160a01b031681565b6040516001600160a01b039091168152602001610171565b6102926102b836600461159c565b61074e565b6101656102cb3660046113bc565b61077d565b6101a56102de36600461136a565b6001600160401b03821660009081526001602090815260408083206001600160a01b038516845290915290205492915050565b6101a5600081565b6101a56000805160206119cc83398151915281565b61021961033c3660046115be565b6107b5565b6101a561034f3660046113a3565b61093d565b6101a57faa35fce2ef9ee0b84f290ae7382aca4092f6602051fe2a490784e88a82fe879d81565b60035461039090600160501b900461ffff1681565b60405161ffff9091168152602001610171565b6102196103b13660046113bc565b61096a565b60035461039090600160401b900461ffff1681565b6102196103d93660046115e9565b610986565b60006001600160e01b03198216635a05180f60e01b1480610403575061040382610a66565b92915050565b60009081526000805160206119ac833981519152602052604090206001015490565b61043482610409565b61043d81610a9b565b6104478383610aa8565b50505050565b7ff0c57e16840df040f15088dc2f81fe391c3923bec73e23a9662efc9c229c6a008054600160401b810460ff1615906001600160401b03166000811580156104925750825b90506000826001600160401b031660011480156104ae5750303b155b9050811580156104bc575080155b156104da5760405163f92ee8a960e01b815260040160405180910390fd5b845467ffffffffffffffff19166001178555831561050457845460ff60401b1916600160401b1785555b61050c610aed565b855161051a90600090610aa8565b506105497faa35fce2ef9ee0b84f290ae7382aca4092f6602051fe2a490784e88a82fe879d8760200151610aa8565b506105826000805160206119ec8339815191527faa35fce2ef9ee0b84f290ae7382aca4092f6602051fe2a490784e88a82fe879d610af7565b61059e6000805160206119cc8339815191528760400151610aa8565b506080860151600080546001600160a01b0319166001600160a01b03909216919091178155606087015151905b81811015610611576106086000805160206119ec833981519152896060015183815181106105fb576105fb61161c565b6020026020010151610aa8565b506001016105cb565b5050600380546bffffffffffffffffffffffff191668010000000000000960179055831561067957845460ff60401b19168555604051600181527fc7f505b2f371ae2175ee4913f4499e1f2633a7b5936321eed1cdaeb6115181d29060200160405180910390a15b505050505050565b6001600160a01b03811633146106aa5760405163334bd91960e11b815260040160405180910390fd5b6106b48282610b5a565b505050565b6000805160206119cc8339815191526106d181610a9b565b6003805467ffffffffffffffff19166001600160401b03841690811790915560408051602081019290925263280a457d60e11b917f01d854e8dde9402801a4c6f2840193465752abfad61e0bb7c4258d526ae42e74910160408051601f198184030181529082905261074291611678565b60405180910390a25050565b600082815260008051602061198c8339815191526020819052604082206107759084610b96565b949350505050565b60009182526000805160206119ac833981519152602090815260408084206001600160a01b0393909316845291905290205460ff1690565b6000805160206119ec8339815191526107cd81610a9b565b60006107d93384610ba2565b90506107f46107ee604085016020860161157f565b82610d8e565b6107fd57505050565b61081e610810604085016020860161157f565b6001600160401b0316610e15565b1561082857505050565b610838604084016020850161157f565b6001600160401b03167f3bd410bdb5ac41c329fac3039d57b4c75b4cc6c7f1695372640ddbfb24bdfc1a60405160405180910390a260005460405163c6b861b960e01b81526001600160a01b039091169063c6b861b99061089d9086906004016116eb565b600060405180830381600087803b1580156108b757600080fd5b505af19250505080156108c8575060015b6106b4573d8080156108f6576040519150601f19603f3d011682016040523d82523d6000602084013e6108fb565b606091505b507fd51bed471c9d34c6a4a447b0e7ed674f2e83bc580b81138a01281d050932d7ff8160405161092b91906117bc565b60405180910390a150505050565b5050565b600081815260008051602061198c83398151915260208190526040822061096390610f96565b9392505050565b61097382610409565b61097c81610a9b565b6104478383610b5a565b6000805160206119cc83398151915261099e81610a9b565b61271061ffff831611156109c557604051630365790760e61b815260040160405180910390fd5b6040805161ffff858116602083015284168183015281518082038301815260609091019182905263f8a60cf960e01b917f01d854e8dde9402801a4c6f2840193465752abfad61e0bb7c4258d526ae42e7491610a20916117cf565b60405180910390a250600380546bffffffff00000000000000001916600160401b61ffff9485160261ffff60501b191617600160501b9290931691909102919091179055565b60006001600160e01b03198216637965db0b60e01b148061040357506301ffc9a760e01b6001600160e01b0319831614610403565b610aa58133610fa0565b50565b600060008051602061198c83398151915281610ac48585610fdd565b90508015610775576000858152602083905260409020610ae49085611089565b50949350505050565b610af561109e565b565b6000805160206119ac8339815191526000610b1184610409565b600085815260208490526040808220600101869055519192508491839187917fbd79b86ffe0ab8e8776151514217cd7cacd52c909f66475c3af44e129f0b00ff9190a450505050565b600060008051602061198c83398151915281610b7685856110e7565b90508015610775576000858152602083905260409020610ae49085611163565b60006109638383611178565b60008082604051602001610bb691906116eb565b60405160208183030381529060405280519060200120905080846001600160a01b0316846020016020810190610bec919061157f565b6001600160401b03167f126c7b81dc1af0747cc236a7f7916c56e921b44c0b17d5a529e53e472f2bdec286604051610c2491906116eb565b60405180910390a46000600181610c41604087016020880161157f565b6001600160401b03168152602080820192909252604090810160009081206001600160a01b03891682529092529020549050808203610c8257509050610403565b8015610ce457600160026000610c9e604088016020890161157f565b6001600160401b03166001600160401b0316815260200190815260200160002060008381526020019081526020016000206000828254610cde9190611837565b90915550505b600160026000610cfa604088016020890161157f565b6001600160401b03166001600160401b0316815260200190815260200160002060008481526020019081526020016000206000828254610d3a919061184a565b9091555082905060016000610d55604088016020890161157f565b6001600160401b03168152602080820192909252604090810160009081206001600160a01b038a16825290925290205550905092915050565b6001600160401b038216600090815260026020908152604080832084845290915281205481610dca6000805160206119ec83398151915261093d565b600354909150600160401b900461ffff168210801590610e0c5750600354610dfd90600160501b900461ffff168261185d565b610e096127108461185d565b10155b95945050505050565b600080546040805163079d004d60e51b8152905184926001600160a01b03169163f3a009a0916004808301926101009291908290030181865afa158015610e60573d6000803e3d6000fd5b505050506040513d601f19601f82011682018060405250810190610e84919061188a565b602001516001600160401b0316101580610403575060008054906101000a90046001600160a01b03166001600160a01b031663aa5180e86040518163ffffffff1660e01b8152600401602060405180830381865afa158015610eea573d6000803e3d6000fd5b505050506040513d601f19601f82011682018060405250810190610f0e9190611953565b80156104035750600054604080516229372b60e21b8152905184926001600160a01b03169162a4dcac916004808301926101009291908290030181865afa158015610f5d573d6000803e3d6000fd5b505050506040513d601f19601f82011682018060405250810190610f81919061188a565b602001516001600160401b0316101592915050565b6000610403825490565b610faa828261077d565b6109395760405163e2517d3f60e01b81526001600160a01b03821660048201526024810183905260440160405180910390fd5b60006000805160206119ac833981519152610ff8848461077d565b611078576000848152602082815260408083206001600160a01b03871684529091529020805460ff1916600117905561102e3390565b6001600160a01b0316836001600160a01b0316857f2f8788117e7eff1d82e926ec794901d17c78024a50270940304540a733656f0d60405160405180910390a46001915050610403565b6000915050610403565b5092915050565b6000610963836001600160a01b0384166111a2565b7ff0c57e16840df040f15088dc2f81fe391c3923bec73e23a9662efc9c229c6a0054600160401b900460ff16610af557604051631afcd79f60e31b815260040160405180910390fd5b60006000805160206119ac833981519152611102848461077d565b15611078576000848152602082815260408083206001600160a01b0387168085529252808320805460ff1916905551339287917ff6391f5c32d9c69d2a47ea670b442974b53935d1edc7fd64eb21e047a839171b9190a46001915050610403565b6000610963836001600160a01b0384166111f1565b600082600001828154811061118f5761118f61161c565b9060005260206000200154905092915050565b60008181526001830160205260408120546111e957508154600181810184556000848152602080822090930184905584548482528286019093526040902091909155610403565b506000610403565b60008181526001830160205260408120548015611078576000611215600183611837565b855490915060009061122990600190611837565b905080821461128e5760008660000182815481106112495761124961161c565b906000526020600020015490508087600001848154811061126c5761126c61161c565b6000918252602080832090910192909255918252600188019052604090208390555b855486908061129f5761129f611975565b600190038181906000526020600020016000905590558560010160008681526020019081526020016000206000905560019350505050610403565b6000602082840312156112ec57600080fd5b81356001600160e01b03198116811461096357600080fd5b6001600160401b0381168114610aa557600080fd5b803561132481611304565b919050565b6000806040838503121561133c57600080fd5b823561134781611304565b946020939093013593505050565b6001600160a01b0381168114610aa557600080fd5b6000806040838503121561137d57600080fd5b823561138881611304565b9150602083013561139881611355565b809150509250929050565b6000602082840312156113b557600080fd5b5035919050565b600080604083850312156113cf57600080fd5b82359150602083013561139881611355565b634e487b7160e01b600052604160045260246000fd5b60405160a081016001600160401b0381118282101715611419576114196113e1565b60405290565b604051601f8201601f191681016001600160401b0381118282101715611447576114476113e1565b604052919050565b803561132481611355565b6000602080838503121561146d57600080fd5b82356001600160401b038082111561148457600080fd5b9084019060a0828703121561149857600080fd5b6114a06113f7565b82356114ab81611355565b8152828401356114ba81611355565b8185015260408301356114cc81611355565b60408201526060830135828111156114e357600080fd5b8301601f810188136114f457600080fd5b803583811115611506576115066113e1565b8060051b935061151786850161141f565b818152938201860193868101908a86111561153157600080fd5b928701925b8584101561155b578335925061154b83611355565b8282529287019290870190611536565b6060850152506115709150506080840161144f565b60808201529695505050505050565b60006020828403121561159157600080fd5b813561096381611304565b600080604083850312156115af57600080fd5b50508035926020909101359150565b600061010082840312156115d157600080fd5b50919050565b803561ffff8116811461132457600080fd5b600080604083850312156115fc57600080fd5b611605836115d7565b9150611613602084016115d7565b90509250929050565b634e487b7160e01b600052603260045260246000fd5b6000815180845260005b818110156116585760208185018101518683018201520161163c565b506000602082860101526020601f19601f83011685010191505092915050565b60408152602360408201527f7365745461726765745265706f727457696e646f77426c6f636b732875696e7460608201526236342960e81b608082015260a06020820152600061096360a0830184611632565b6001600160801b0381168114610aa557600080fd5b8035611324816116cb565b610100810182356116fb81611304565b6001600160401b03908116835260208401359061171782611304565b908116602084015260408401359061172e82611304565b16604083015261174060608401611319565b6001600160401b0316606083015261175a608084016116e0565b6001600160801b0316608083015261177460a084016116e0565b6001600160801b031660a083015261178e60c084016116e0565b6001600160801b031660c08301526117a860e084016116e0565b6001600160801b03811660e0840152611082565b6020815260006109636020830184611632565b60408152602260408201527f73657451756f72756d5468726573686f6c64732875696e7431362c75696e7431606082015261362960f01b608082015260a06020820152600061096360a0830184611632565b634e487b7160e01b600052601160045260246000fd5b8181038181111561040357610403611821565b8082018082111561040357610403611821565b808202811582820484141761040357610403611821565b805161132481611304565b8051611324816116cb565b600061010080838503121561189e57600080fd5b604051908101906001600160401b03821181831017156118c0576118c06113e1565b81604052835191506118d182611304565b8181526118e060208501611874565b60208201526118f160408501611874565b604082015261190260608501611874565b60608201526119136080850161187f565b608082015261192460a0850161187f565b60a082015261193560c0850161187f565b60c082015261194660e0850161187f565b60e0820152949350505050565b60006020828403121561196557600080fd5b8151801515811461096357600080fd5b634e487b7160e01b600052603160045260246000fdfec1f6fe24621ce81ec5827caf0253cadb74709b061630e6b55e8237170593200002dd7bc7dec4dceedda775e58dd541e08a116c6c53815c0bd028192f7b626800108f016deb2b2623375e344cf6aedfd098de0555db0c5f551a41c28df1651d03bacb44b817b3c26b3f0ebf2047441abbd1fb7d1925f6bcd8181c28334b10d231a264697066735822122033dec32aa1b56c70a2fb642daecdd816024537e890cddb3862e26315a3fdaab764736f6c63430008180033","linkReferences":{}},"methodIdentifiers":{"DEFAULT_ADMIN_ROLE()":"a217fddf","QUORUM_MANAGER_ROLE()":"ab980d94","REPORTER_MODIFIER_ROLE()":"cca1532d","SERVICE_ORACLE_REPORTER()":"12758f48","absoluteThreshold()":"f2f3a74c","getRoleAdmin(bytes32)":"248a9ca3","getRoleMember(bytes32,uint256)":"9010d07c","getRoleMemberCount(bytes32)":"ca15c873","grantRole(bytes32,address)":"2f2ff15d","hasRole(bytes32,address)":"91d14854","initialize((address,address,address,address[],address))":"318e8d9d","oracle()":"7dc0d1d0","receiveRecord((uint64,uint64,uint64,uint64,uint128,uint128,uint128,uint128))":"c6b861b9","recordHashByBlockAndSender(uint64,address)":"9c067b3a","recordHashCountByBlock(uint64,bytes32)":"0abc7d01","relativeThresholdBasisPoints()":"cfde0546","renounceRole(bytes32,address)":"36568abe","reporterRecordHashesByBlock(uint64,address)":"1e8d5362","revokeRole(bytes32,address)":"d547741f","setQuorumThresholds(uint16,uint16)":"f8a60cf9","setTargetReportWindowBlocks(uint64)":"50148afa","supportsInterface(bytes4)":"01ffc9a7","targetReportWindowBlocks()":"574e4a5a"},"id":70}