{"abi":[{"type":"constructor","inputs":[],"stateMutability":"nonpayable"},{"type":"function","name":"DEFAULT_ADMIN_ROLE","inputs":[],"outputs":[{"name":"","type":"bytes32","internalType":"bytes32"}],"stateMutability":"view"},{"type":"function","name":"QUORUM_MANAGER_ROLE","inputs":[],"outputs":[{"name":"","type":"bytes32","internalType":"bytes32"}],"stateMutability":"view"},{"type":"function","name":"REPORTER_MODIFIER_ROLE","inputs":[],"outputs":[{"name":"","type":"bytes32","internalType":"bytes32"}],"stateMutability":"view"},{"type":"function","name":"SERVICE_ORACLE_REPORTER","inputs":[],"outputs":[{"name":"","type":"bytes32","internalType":"bytes32"}],"stateMutability":"view"},{"type":"function","name":"absoluteThreshold","inputs":[],"outputs":[{"name":"","type":"uint16","internalType":"uint16"}],"stateMutability":"view"},{"type":"function","name":"getRoleAdmin","inputs":[{"name":"role","type":"bytes32","internalType":"bytes32"}],"outputs":[{"name":"","type":"bytes32","internalType":"bytes32"}],"stateMutability":"view"},{"type":"function","name":"getRoleMember","inputs":[{"name":"role","type":"bytes32","internalType":"bytes32"},{"name":"index","type":"uint256","internalType":"uint256"}],"outputs":[{"name":"","type":"address","internalType":"address"}],"stateMutability":"view"},{"type":"function","name":"getRoleMemberCount","inputs":[{"name":"role","type":"bytes32","internalType":"bytes32"}],"outputs":[{"name":"","type":"uint256","internalType":"uint256"}],"stateMutability":"view"},{"type":"function","name":"grantRole","inputs":[{"name":"role","type":"bytes32","internalType":"bytes32"},{"name":"account","type":"address","internalType":"address"}],"outputs":[],"stateMutability":"nonpayable"},{"type":"function","name":"hasRole","inputs":[{"name":"role","type":"bytes32","internalType":"bytes32"},{"name":"account","type":"address","internalType":"address"}],"outputs":[{"name":"","type":"bool","internalType":"bool"}],"stateMutability":"view"},{"type":"function","name":"initialize","inputs":[{"name":"init","type":"tuple","internalType":"struct OracleQuorumManager.Init","components":[{"name":"admin","type":"address","internalType":"address"},{"name":"reporterModifier","type":"address","internalType":"address"},{"name":"manager","type":"address","internalType":"address"},{"name":"allowedReporters","type":"address[]","internalType":"address[]"},{"name":"oracle","type":"address","internalType":"contract IOracleManager"}]}],"outputs":[],"stateMutability":"nonpayable"},{"type":"function","name":"oracle","inputs":[],"outputs":[{"name":"","type":"address","internalType":"contract IOracleManager"}],"stateMutability":"view"},{"type":"function","name":"receiveRecord","inputs":[{"name":"record","type":"tuple","internalType":"struct OracleRecord","components":[{"name":"updateStartBlock","type":"uint64","internalType":"uint64"},{"name":"updateEndBlock","type":"uint64","internalType":"uint64"},{"name":"currentNumValidatorsNotWithdrawable","type":"uint64","internalType":"uint64"},{"name":"cumulativeNumValidatorsWithdrawable","type":"uint64","internalType":"uint64"},{"name":"windowWithdrawnPrincipalAmount","type":"uint128","internalType":"uint128"},{"name":"windowWithdrawnRewardAmount","type":"uint128","internalType":"uint128"},{"name":"currentTotalValidatorBalance","type":"uint128","internalType":"uint128"},{"name":"cumulativeProcessedDepositAmount","type":"uint128","internalType":"uint128"}]},{"name":"bridge","type":"address","internalType":"address"},{"name":"l2Strategy","type":"address","internalType":"address"},{"name":"sourceChainId","type":"uint256","internalType":"uint256"},{"name":"destChainId","type":"uint256","internalType":"uint256"}],"outputs":[],"stateMutability":"nonpayable"},{"type":"function","name":"recordHashByBlockAndSender","inputs":[{"name":"blockNumber","type":"uint64","internalType":"uint64"},{"name":"sender","type":"address","internalType":"address"}],"outputs":[{"name":"","type":"bytes32","internalType":"bytes32"}],"stateMutability":"view"},{"type":"function","name":"recordHashCountByBlock","inputs":[{"name":"block","type":"uint64","internalType":"uint64"},{"name":"recordHash","type":"bytes32","internalType":"bytes32"}],"outputs":[{"name":"","type":"uint256","internalType":"uint256"}],"stateMutability":"view"},{"type":"function","name":"relativeThresholdBasisPoints","inputs":[],"outputs":[{"name":"","type":"uint16","internalType":"uint16"}],"stateMutability":"view"},{"type":"function","name":"renounceRole","inputs":[{"name":"role","type":"bytes32","internalType":"bytes32"},{"name":"callerConfirmation","type":"address","internalType":"address"}],"outputs":[],"stateMutability":"nonpayable"},{"type":"function","name":"reporterRecordHashesByBlock","inputs":[{"name":"block","type":"uint64","internalType":"uint64"},{"name":"reporter","type":"address","internalType":"address"}],"outputs":[{"name":"recordHash","type":"bytes32","internalType":"bytes32"}],"stateMutability":"view"},{"type":"function","name":"revokeRole","inputs":[{"name":"role","type":"bytes32","internalType":"bytes32"},{"name":"account","type":"address","internalType":"address"}],"outputs":[],"stateMutability":"nonpayable"},{"type":"function","name":"setQuorumThresholds","inputs":[{"name":"absoluteThreshold_","type":"uint16","internalType":"uint16"},{"name":"relativeThresholdBasisPoints_","type":"uint16","internalType":"uint16"}],"outputs":[],"stateMutability":"nonpayable"},{"type":"function","name":"setTargetReportWindowBlocks","inputs":[{"name":"newTargetReportWindowBlocks","type":"uint64","internalType":"uint64"}],"outputs":[],"stateMutability":"nonpayable"},{"type":"function","name":"supportsInterface","inputs":[{"name":"interfaceId","type":"bytes4","internalType":"bytes4"}],"outputs":[{"name":"","type":"bool","internalType":"bool"}],"stateMutability":"view"},{"type":"function","name":"targetReportWindowBlocks","inputs":[],"outputs":[{"name":"","type":"uint64","internalType":"uint64"}],"stateMutability":"view"},{"type":"event","name":"Initialized","inputs":[{"name":"version","type":"uint64","indexed":false,"internalType":"uint64"}],"anonymous":false},{"type":"event","name":"OracleRecordReceivedError","inputs":[{"name":"reason","type":"bytes","indexed":false,"internalType":"bytes"}],"anonymous":false},{"type":"event","name":"ProtocolConfigChanged","inputs":[{"name":"setterSelector","type":"bytes4","indexed":true,"internalType":"bytes4"},{"name":"setterSignature","type":"string","indexed":false,"internalType":"string"},{"name":"value","type":"bytes","indexed":false,"internalType":"bytes"}],"anonymous":false},{"type":"event","name":"ReportQuorumReached","inputs":[{"name":"block","type":"uint64","indexed":true,"internalType":"uint64"}],"anonymous":false},{"type":"event","name":"ReportReceived","inputs":[{"name":"block","type":"uint64","indexed":true,"internalType":"uint64"},{"name":"reporter","type":"address","indexed":true,"internalType":"address"},{"name":"recordHash","type":"bytes32","indexed":true,"internalType":"bytes32"},{"name":"record","type":"tuple","indexed":false,"internalType":"struct OracleRecord","components":[{"name":"updateStartBlock","type":"uint64","internalType":"uint64"},{"name":"updateEndBlock","type":"uint64","internalType":"uint64"},{"name":"currentNumValidatorsNotWithdrawable","type":"uint64","internalType":"uint64"},{"name":"cumulativeNumValidatorsWithdrawable","type":"uint64","internalType":"uint64"},{"name":"windowWithdrawnPrincipalAmount","type":"uint128","internalType":"uint128"},{"name":"windowWithdrawnRewardAmount","type":"uint128","internalType":"uint128"},{"name":"currentTotalValidatorBalance","type":"uint128","internalType":"uint128"},{"name":"cumulativeProcessedDepositAmount","type":"uint128","internalType":"uint128"}]}],"anonymous":false},{"type":"event","name":"RoleAdminChanged","inputs":[{"name":"role","type":"bytes32","indexed":true,"internalType":"bytes32"},{"name":"previousAdminRole","type":"bytes32","indexed":true,"internalType":"bytes32"},{"name":"newAdminRole","type":"bytes32","indexed":true,"internalType":"bytes32"}],"anonymous":false},{"type":"event","name":"RoleGranted","inputs":[{"name":"role","type":"bytes32","indexed":true,"internalType":"bytes32"},{"name":"account","type":"address","indexed":true,"internalType":"address"},{"name":"sender","type":"address","indexed":true,"internalType":"address"}],"anonymous":false},{"type":"event","name":"RoleRevoked","inputs":[{"name":"role","type":"bytes32","indexed":true,"internalType":"bytes32"},{"name":"account","type":"address","indexed":true,"internalType":"address"},{"name":"sender","type":"address","indexed":true,"internalType":"address"}],"anonymous":false},{"type":"error","name":"AccessControlBadConfirmation","inputs":[]},{"type":"error","name":"AccessControlUnauthorizedAccount","inputs":[{"name":"account","type":"address","internalType":"address"},{"name":"neededRole","type":"bytes32","internalType":"bytes32"}]},{"type":"error","name":"AlreadyReporter","inputs":[]},{"type":"error","name":"InvalidInitialization","inputs":[]},{"type":"error","name":"InvalidReporter","inputs":[]},{"type":"error","name":"NotInitializing","inputs":[]},{"type":"error","name":"RelativeThresholdExceedsOne","inputs":[]}],"bytecode":{"object":"0x608080604052346100b8577ff0c57e16840df040f15088dc2f81fe391c3923bec73e23a9662efc9c229c6a009081549060ff8260401c166100a957506001600160401b036002600160401b031982821601610064575b604051611b1690816100be8239f35b6001600160401b031990911681179091556040519081527fc7f505b2f371ae2175ee4913f4499e1f2633a7b5936321eed1cdaeb6115181d290602090a1388080610055565b63f92ee8a960e01b8152600490fd5b600080fdfe60806040908082526004918236101561001757600080fd5b600091823560e01c90816301ffc9a714610c4e575080630abc7d0114610c0f57806312758f4814610be75780631e8d5362146103a8578063248a9ca314610baf5780632f2ff15d14610b295780633187a6ff14610a78578063318e8d9d1461062457806336568abe146105df57806350148afa146104e8578063574e4a5a146104c15780637dc0d1d01461049a5780639010d07c1461044c57806391d14854146103f85780639c067b3a146103a8578063a217fddf1461038e578063ab980d9414610366578063ca15c87314610331578063cca1532d14610309578063cfde0546146102e4578063d547741f14610293578063f2f3a74c146102705763f8a60cf91461012257600080fd5b3461026c578060031936011261026c5761ffff83358181168082036102685760243592831680840361026457610156611237565b612710811161025457845191602083015284820152838152606081018181106001600160401b0382111761024157907f01d854e8dde9402801a4c6f2840193465752abfad61e0bb7c4258d526ae42e748269ffff000000000000000094938752868152602260a08401527f73657451756f72756d5468726573686f6c64732875696e7431362c75696e743160c084015261362960f01b60e084015260a0608084015263f8a60cf960e01b92605f1990610213610100820182610dd9565b030190a26003549261ffff60501b9060501b16931b16906bffffffff00000000000000001916171760035580f35b634e487b7160e01b865260418752602486fd5b8451630365790760e61b81528790fd5b8580fd5b8480fd5b5080fd5b503461026c578160031936011261026c576003548151911c61ffff168152602090f35b508290346102e057806003193601126102e0576102dc91356102d760016102b8610cd7565b93838752600080516020611a818339815191526020528620015461129f565b6114dc565b5080f35b8280fd5b503461026c578160031936011261026c5760209061ffff60035460501c169051908152f35b503461026c578160031936011261026c5760209051600080516020611a618339815191528152f35b5082346102e05760203660031901126102e0576020928291358152600080516020611a41833981519152845220549051908152f35b503461026c578160031936011261026c5760209051600080516020611aa18339815191528152f35b503461026c578160031936011261026c5751908152602090f35b503461026c578060031936011261026c57806020926103c5610cbc565b6001600160401b036103d5610cd7565b91168252600185528282206001600160a01b039091168252845220549051908152f35b5082346102e057816003193601126102e0578160209360ff92610419610cd7565b90358252600080516020611a8183398151915286528282206001600160a01b039091168252855220549151911615158152f35b5082346102e057816003193601126102e05760209261048491358152600080516020611a418339815191528452826024359120611878565b905491519160018060a01b039160031b1c168152f35b503461026c578160031936011261026c57905490516001600160a01b039091168152602090f35b503461026c578160031936011261026c576020906001600160401b03600354169051908152f35b503461026c57602036600319011261026c57610502610cbc565b61050a611237565b6001600160401b0380911691826001600160401b0319600354161760035580519260208401526020835280830191838310908311176105cc579081817f01d854e8dde9402801a4c6f2840193465752abfad61e0bb7c4258d526ae42e7493528152602360808401527f7365745461726765745265706f727457696e646f77426c6f636b732875696e7460a08401526236342960e81b60c084015260a0606084015263280a457d60e11b92603f19906105c560e0820182610dd9565b030190a280f35b634e487b7160e01b845260418552602484fd5b503461026c578060031936011261026c576105f8610cd7565b90336001600160a01b0383160361061557506102dc9192356114dc565b5163334bd91960e11b81528390fd5b508290346102e05760209060031982813601126102685783356001600160401b0391828211610a745760a09082360301126102645782519060a0820182811084821117610a61578452610678818701610ced565b825260249561068960248301610ced565b9686840197885261069c60448401610ced565b918685019283526064840135868111610a5d57840136602382011215610a5d578181013594878611610a4a576005918660051b8a51976106de8d83018a610d01565b885260248c89019183010191368311610a465760248d9101915b838310610a2e5750505050606087019586526001600160a01b039390608401358481168103610a2a57608088019081527ff0c57e16840df040f15088dc2f81fe391c3923bec73e23a9662efc9c229c6a009b8c549860ff8a8d1c16159a8a16998a1580610a23575b6001809c149081610a19575b159081610a10575b50610a00578e60ff918d60016001600160401b031983161783556109e1575b50548d1c16156109d1578e8c888f93948180979651166107b281611524565b6109aa575b5051166107c3816115b2565b610975575b5084600080516020611ac18339815191529a8b8452600080516020611a8183398151915285526001838520018054600080516020611a618339815191528092558d7fbd79b86ffe0ab8e8776151514217cd7cacd52c909f66475c3af44e129f0b00ff8780a451169161083983611650565b61093f575b5050505051166bffffffffffffffffffffffff60a01b8d5416178c55855151958c5b8781106108d3578d8d8d8d8d680100000000000009606bffffffffffffffffffffffff196003541617600355610894578380f35b7fc7f505b2f371ae2175ee4913f4499e1f2633a7b5936321eed1cdaeb6115181d29268ff00000000000000001981541690555160018152a18180808380f35b8151805182101561092d57908c8f8d89838e96868b1b01015116916108f7836116e8565b610906575b5050505001610860565b600080516020611a41833981519152610923948d835252206118a6565b508c8f8d816108fc565b634e487b7160e01b8f5260328652838ffd5b600080516020611a4183398151915261096a94600080516020611aa1833981519152835252206118a6565b508b8f8f8d9061083e565b6109a291600080516020611a618339815191528452600080516020611a41833981519152855283206118a6565b508c386107c8565b6109ca90858052600080516020611a4183398151915287528486206118a6565b50386107b7565b8b51631afcd79f60e31b81528690fd5b68ffffffffffffffffff19166801000000000000000117815538610793565b8c5163f92ee8a960e01b81528790fd5b90501538610774565b303b15915061076c565b508b610760565b8c80fd5b8190610a3984610ced565b8152019101908c906106f8565b8e80fd5b634e487b7160e01b8c526041835260248cfd5b8a80fd5b634e487b7160e01b885260418752602488fd5b8680fd5b50913461026c57366003190161018081126102e0576101001361026c576001600160a01b039061010435908282168203610b2557610124359283168303610b2557600080516020611ac1833981519152808552600080516020611a8183398151915260205285852033865260205260ff868620541615610b085784610b0561016435610144358787610e19565b80f35b6044925085519163e2517d3f60e01b835233908301526024820152fd5b8380fd5b5082346102e057816003193601126102e0573590610b45610cd7565b90828452600080516020611a81833981519152602052610b6a6001828620015461129f565b610b748284611780565b610b7c578380f35b918352600080516020611a41833981519152602052908220610ba7916001600160a01b0316906118a6565b508180808380f35b5082346102e05760203660031901126102e05781602093600192358152600080516020611a8183398151915285522001549051908152f35b503461026c578160031936011261026c5760209051600080516020611ac18339815191528152f35b503461026c578060031936011261026c57806020926001600160401b03610c34610cbc565b168152600284528181206024358252845220549051908152f35b839085346102e05760203660031901126102e0573563ffffffff60e01b81168091036102e05760209250635a05180f60e01b8114908115610c91575b5015158152f35b637965db0b60e01b811491508115610cab575b5083610c8a565b6301ffc9a760e01b14905083610ca4565b600435906001600160401b0382168203610cd257565b600080fd5b602435906001600160a01b0382168203610cd257565b35906001600160a01b0382168203610cd257565b90601f801991011681019081106001600160401b03821117610d2257604052565b634e487b7160e01b600052604160045260246000fd5b6004356001600160401b0390818116809103610cd2578252602435818116809103610cd2576020830152604435818116809103610cd2576040830152606435908116809103610cd2576060820152608435906001600160801b0391828116809103610cd257608082015260a435828116809103610cd25760a082015260c435828116809103610cd25760c082015260e435918216809203610cd25760e00152565b919082519283825260005b848110610e05575050826000602080949584010152601f8019910116010190565b602081830181015184830182015201610de4565b90610e23336112d2565b9160249081356001600160401b0393848216809203610cd25760009782895260209760028952604097888b20908b528952878a2054600080516020611ac18339815191528b52600080516020611a418339815191528a52888b20546003549161ffff80848d1c1682101593846111d8575b50505050156111cc578954885163079d004d60e51b81526004966001600160a01b0392831695916101009081818b818b5afa90811561116b578f8f90928e928c94916111af575b5001511610908115916110d5575b506110c6578a5196807f3bd410bdb5ac41c329fac3039d57b4c75b4cc6c7f1695372640ddbfb24bdfc1a8f80a2863b156110c257633187a6ff60e01b885288358b811690819003610a465789890152898801526044358a81168091036110c25760448801526064358a81168091036110c25760648801526084356001600160801b0390818116809103610a4657608489015260a435818116809103610a465760a489015260c435818116809103610a465760c489015260e4359081168091036110c25760e48801528216610104870152166101248501526101448401526101648301528790829061018490829084905af1908161109d575b50611095573d15611063573d9283116110525750508161104d917fd51bed471c9d34c6a4a447b0e7ed674f2e83bc580b81138a01281d050932d7ff959493519061103485601f19601f8401160183610d01565b81528094843d92013e5b51928284938452830190610dd9565b0390a1565b634e487b7160e01b86526041905284fd5b505050907fd51bed471c9d34c6a4a447b0e7ed674f2e83bc580b81138a01281d050932d7ff925061104d60609261103e565b505050505050565b8481989298116110b05785529538610fe1565b50634e487b7160e01b81526041909152fd5b8d80fd5b50505050505050505050505050565b8c5163154a301d60e31b815291508d828b818b5afa91821561116b578f92611177575b5081611106575b5038610ee9565b8c516229372b60e21b815290915081818b818b5afa91821561116b578f928f91928e938c959261113e575b50500151161015386110ff565b61115d9250803d10611164575b6111558183610d01565b81019061142d565b3880611131565b503d61114b565b8f8e51903d90823e3d90fd5b9091508d81813d83116111a8575b61118f8183610d01565b81010312610a4657518015158103610a465790386110f8565b503d611185565b6111c69150853d8711611164576111558183610d01565b38610edb565b50505050505050505050565b9091929350612710928381029381850414901517156112245760501c169182810292818404149015171561121157101538808080610e94565b634e487b7160e01b8c526011600452878cfd5b634e487b7160e01b8e526011600452898efd5b3360009081527f07dfbe0f49f2f40259dad88656f02b92c64907a178fce0f7095abc59424dfe3a6020526040902054600080516020611aa18339815191529060ff16156112815750565b6044906040519063e2517d3f60e01b82523360048301526024820152fd5b80600052600080516020611a8183398151915260205260406000203360005260205260ff60406000205416156112815750565b6040805190602092838301936112e785610d38565b610100918285526101208501956001600160401b039580881087891117610d225787865251902095602435958616809603610cd257857f126c7b81dc1af0747cc236a7f7916c56e921b44c0b17d5a529e53e472f2bdec2889360018060a01b031695836113548895610d38565ba46000848152600182528381208382528252838120548087146113fc57806113d0575b50610cd25783600052600281528260002085600052815282600020938454600181018091116113ba57869555600052600181528260002091600052526000205590565b634e487b7160e01b600052601160045260246000fd5b8560005260028352846000209060005282528360002080549060001982019182116113ba575538611377565b50505050505090565b51906001600160401b0382168203610cd257565b51906001600160801b0382168203610cd257565b80916101009283910312610cd2576040519182018281106001600160401b03821117610d22576114d49160e09160405261146681611405565b845261147460208201611405565b602085015261148560408201611405565b604085015261149660608201611405565b60608501526114a760808201611419565b60808501526114b860a08201611419565b60a08501526114c960c08201611419565b60c085015201611419565b60e082015290565b6114e682826117f5565b91826114f157505090565b6000918252600080516020611a418339815191526020526040909120611520916001600160a01b031690611930565b5090565b6001600160a01b031660008181527fb7db2dd08fcb62d0c9e08c51941cae53c267786a0b75803fb7960902fc8ef97d6020526040812054909190600080516020611a818339815191529060ff166115ad578280526020526040822081835260205260408220600160ff198254161790553391600080516020611a218339815191528180a4600190565b505090565b6001600160a01b031660008181527f1ff26d5ae4774e176fc3328a299df5a6caee153904bf42c6ce4130dcf22c61c46020526040812054909190600080516020611a6183398151915290600080516020611a818339815191529060ff1661164a578184526020526040832082845260205260408320600160ff19825416179055600080516020611a21833981519152339380a4600190565b50505090565b6001600160a01b031660008181527f07dfbe0f49f2f40259dad88656f02b92c64907a178fce0f7095abc59424dfe3a6020526040812054909190600080516020611aa183398151915290600080516020611a818339815191529060ff1661164a578184526020526040832082845260205260408320600160ff19825416179055600080516020611a21833981519152339380a4600190565b6001600160a01b031660008181527f5bd5b7d1debe30a81f63dd82fe9ae3ee11e0e25e4833878bceaefa41f25c67f46020526040812054909190600080516020611ac183398151915290600080516020611a818339815191529060ff1661164a578184526020526040832082845260205260408320600160ff19825416179055600080516020611a21833981519152339380a4600190565b90600091808352600080516020611a8183398151915280602052604084209260018060a01b03169283855260205260ff6040852054161560001461164a578184526020526040832082845260205260408320600160ff19825416179055600080516020611a21833981519152339380a4600190565b90600091808352600080516020611a8183398151915280602052604084209260018060a01b03169283855260205260ff60408520541660001461164a57818452602052604083208284526020526040832060ff1981541690557ff6391f5c32d9c69d2a47ea670b442974b53935d1edc7fd64eb21e047a839171b339380a4600190565b80548210156118905760005260206000200190600090565b634e487b7160e01b600052603260045260246000fd5b9190600183016000908282528060205260408220541560001461192a578454946801000000000000000086101561191657836119066118ef886001604098999a01855584611878565b819391549060031b91821b91600019901b19161790565b9055549382526020522055600190565b634e487b7160e01b83526041600452602483fd5b50925050565b90600182019060009281845282602052604084205490811515600014611a195760001991808301818111611a05578254908482019182116119f1578181036119bc575b505050805480156119a85782019161198b8383611878565b909182549160031b1b191690555582526020526040812055600190565b634e487b7160e01b86526031600452602486fd5b6119dc6119cc6118ef9386611878565b90549060031b1c92839286611878565b90558652846020526040862055388080611973565b634e487b7160e01b88526011600452602488fd5b634e487b7160e01b87526011600452602487fd5b505050509056fe2f8788117e7eff1d82e926ec794901d17c78024a50270940304540a733656f0dc1f6fe24621ce81ec5827caf0253cadb74709b061630e6b55e82371705932000aa35fce2ef9ee0b84f290ae7382aca4092f6602051fe2a490784e88a82fe879d02dd7bc7dec4dceedda775e58dd541e08a116c6c53815c0bd028192f7b626800108f016deb2b2623375e344cf6aedfd098de0555db0c5f551a41c28df1651d03bacb44b817b3c26b3f0ebf2047441abbd1fb7d1925f6bcd8181c28334b10d231a2646970667358221220f463227d099777d971f5c9fd42d5b559aa86d51b25e58df92deee33a3b7ab17064736f6c63430008180033","linkReferences":{}},"methodIdentifiers":{"DEFAULT_ADMIN_ROLE()":"a217fddf","QUORUM_MANAGER_ROLE()":"ab980d94","REPORTER_MODIFIER_ROLE()":"cca1532d","SERVICE_ORACLE_REPORTER()":"12758f48","absoluteThreshold()":"f2f3a74c","getRoleAdmin(bytes32)":"248a9ca3","getRoleMember(bytes32,uint256)":"9010d07c","getRoleMemberCount(bytes32)":"ca15c873","grantRole(bytes32,address)":"2f2ff15d","hasRole(bytes32,address)":"91d14854","initialize((address,address,address,address[],address))":"318e8d9d","oracle()":"7dc0d1d0","receiveRecord((uint64,uint64,uint64,uint64,uint128,uint128,uint128,uint128),address,address,uint256,uint256)":"3187a6ff","recordHashByBlockAndSender(uint64,address)":"9c067b3a","recordHashCountByBlock(uint64,bytes32)":"0abc7d01","relativeThresholdBasisPoints()":"cfde0546","renounceRole(bytes32,address)":"36568abe","reporterRecordHashesByBlock(uint64,address)":"1e8d5362","revokeRole(bytes32,address)":"d547741f","setQuorumThresholds(uint16,uint16)":"f8a60cf9","setTargetReportWindowBlocks(uint64)":"50148afa","supportsInterface(bytes4)":"01ffc9a7","targetReportWindowBlocks()":"574e4a5a"},"id":72}