{"abi":[{"type":"constructor","inputs":[],"stateMutability":"nonpayable"},{"type":"function","name":"DEFAULT_ADMIN_ROLE","inputs":[],"outputs":[{"name":"","type":"bytes32","internalType":"bytes32"}],"stateMutability":"view"},{"type":"function","name":"QUORUM_MANAGER_ROLE","inputs":[],"outputs":[{"name":"","type":"bytes32","internalType":"bytes32"}],"stateMutability":"view"},{"type":"function","name":"REPORTER_MODIFIER_ROLE","inputs":[],"outputs":[{"name":"","type":"bytes32","internalType":"bytes32"}],"stateMutability":"view"},{"type":"function","name":"SERVICE_ORACLE_REPORTER","inputs":[],"outputs":[{"name":"","type":"bytes32","internalType":"bytes32"}],"stateMutability":"view"},{"type":"function","name":"absoluteThreshold","inputs":[],"outputs":[{"name":"","type":"uint16","internalType":"uint16"}],"stateMutability":"view"},{"type":"function","name":"getRoleAdmin","inputs":[{"name":"role","type":"bytes32","internalType":"bytes32"}],"outputs":[{"name":"","type":"bytes32","internalType":"bytes32"}],"stateMutability":"view"},{"type":"function","name":"getRoleMember","inputs":[{"name":"role","type":"bytes32","internalType":"bytes32"},{"name":"index","type":"uint256","internalType":"uint256"}],"outputs":[{"name":"","type":"address","internalType":"address"}],"stateMutability":"view"},{"type":"function","name":"getRoleMemberCount","inputs":[{"name":"role","type":"bytes32","internalType":"bytes32"}],"outputs":[{"name":"","type":"uint256","internalType":"uint256"}],"stateMutability":"view"},{"type":"function","name":"grantRole","inputs":[{"name":"role","type":"bytes32","internalType":"bytes32"},{"name":"account","type":"address","internalType":"address"}],"outputs":[],"stateMutability":"nonpayable"},{"type":"function","name":"hasRole","inputs":[{"name":"role","type":"bytes32","internalType":"bytes32"},{"name":"account","type":"address","internalType":"address"}],"outputs":[{"name":"","type":"bool","internalType":"bool"}],"stateMutability":"view"},{"type":"function","name":"initialize","inputs":[{"name":"init","type":"tuple","internalType":"struct OracleQuorumManager.Init","components":[{"name":"admin","type":"address","internalType":"address"},{"name":"reporterModifier","type":"address","internalType":"address"},{"name":"manager","type":"address","internalType":"address"},{"name":"allowedReporters","type":"address[]","internalType":"address[]"},{"name":"oracle","type":"address","internalType":"contract IOracleManager"}]}],"outputs":[],"stateMutability":"nonpayable"},{"type":"function","name":"oracle","inputs":[],"outputs":[{"name":"","type":"address","internalType":"contract IOracleManager"}],"stateMutability":"view"},{"type":"function","name":"receiveRecord","inputs":[{"name":"record","type":"tuple","internalType":"struct OracleRecord","components":[{"name":"updateStartBlock","type":"uint64","internalType":"uint64"},{"name":"updateEndBlock","type":"uint64","internalType":"uint64"},{"name":"currentNumValidatorsNotWithdrawable","type":"uint64","internalType":"uint64"},{"name":"cumulativeNumValidatorsWithdrawable","type":"uint64","internalType":"uint64"},{"name":"windowWithdrawnPrincipalAmount","type":"uint128","internalType":"uint128"},{"name":"windowWithdrawnRewardAmount","type":"uint128","internalType":"uint128"},{"name":"currentTotalValidatorBalance","type":"uint128","internalType":"uint128"},{"name":"cumulativeProcessedDepositAmount","type":"uint128","internalType":"uint128"}]},{"name":"bridge","type":"address","internalType":"address"},{"name":"l2Strategy","type":"address","internalType":"address"},{"name":"sourceChainId","type":"uint256","internalType":"uint256"},{"name":"destChainId","type":"uint256","internalType":"uint256"}],"outputs":[],"stateMutability":"nonpayable"},{"type":"function","name":"recordHashByBlockAndSender","inputs":[{"name":"blockNumber","type":"uint64","internalType":"uint64"},{"name":"sender","type":"address","internalType":"address"}],"outputs":[{"name":"","type":"bytes32","internalType":"bytes32"}],"stateMutability":"view"},{"type":"function","name":"recordHashCountByBlock","inputs":[{"name":"block","type":"uint64","internalType":"uint64"},{"name":"recordHash","type":"bytes32","internalType":"bytes32"}],"outputs":[{"name":"","type":"uint256","internalType":"uint256"}],"stateMutability":"view"},{"type":"function","name":"relativeThresholdBasisPoints","inputs":[],"outputs":[{"name":"","type":"uint16","internalType":"uint16"}],"stateMutability":"view"},{"type":"function","name":"renounceRole","inputs":[{"name":"role","type":"bytes32","internalType":"bytes32"},{"name":"callerConfirmation","type":"address","internalType":"address"}],"outputs":[],"stateMutability":"nonpayable"},{"type":"function","name":"reporterRecordHashesByBlock","inputs":[{"name":"block","type":"uint64","internalType":"uint64"},{"name":"reporter","type":"address","internalType":"address"}],"outputs":[{"name":"recordHash","type":"bytes32","internalType":"bytes32"}],"stateMutability":"view"},{"type":"function","name":"revokeRole","inputs":[{"name":"role","type":"bytes32","internalType":"bytes32"},{"name":"account","type":"address","internalType":"address"}],"outputs":[],"stateMutability":"nonpayable"},{"type":"function","name":"setQuorumThresholds","inputs":[{"name":"absoluteThreshold_","type":"uint16","internalType":"uint16"},{"name":"relativeThresholdBasisPoints_","type":"uint16","internalType":"uint16"}],"outputs":[],"stateMutability":"nonpayable"},{"type":"function","name":"setTargetReportWindowBlocks","inputs":[{"name":"newTargetReportWindowBlocks","type":"uint64","internalType":"uint64"}],"outputs":[],"stateMutability":"nonpayable"},{"type":"function","name":"supportsInterface","inputs":[{"name":"interfaceId","type":"bytes4","internalType":"bytes4"}],"outputs":[{"name":"","type":"bool","internalType":"bool"}],"stateMutability":"view"},{"type":"function","name":"targetReportWindowBlocks","inputs":[],"outputs":[{"name":"","type":"uint64","internalType":"uint64"}],"stateMutability":"view"},{"type":"event","name":"Initialized","inputs":[{"name":"version","type":"uint64","indexed":false,"internalType":"uint64"}],"anonymous":false},{"type":"event","name":"OracleRecordReceivedError","inputs":[{"name":"reason","type":"bytes","indexed":false,"internalType":"bytes"}],"anonymous":false},{"type":"event","name":"ProtocolConfigChanged","inputs":[{"name":"setterSelector","type":"bytes4","indexed":true,"internalType":"bytes4"},{"name":"setterSignature","type":"string","indexed":false,"internalType":"string"},{"name":"value","type":"bytes","indexed":false,"internalType":"bytes"}],"anonymous":false},{"type":"event","name":"ReportQuorumReached","inputs":[{"name":"block","type":"uint64","indexed":true,"internalType":"uint64"}],"anonymous":false},{"type":"event","name":"ReportReceived","inputs":[{"name":"block","type":"uint64","indexed":true,"internalType":"uint64"},{"name":"reporter","type":"address","indexed":true,"internalType":"address"},{"name":"recordHash","type":"bytes32","indexed":true,"internalType":"bytes32"},{"name":"record","type":"tuple","indexed":false,"internalType":"struct OracleRecord","components":[{"name":"updateStartBlock","type":"uint64","internalType":"uint64"},{"name":"updateEndBlock","type":"uint64","internalType":"uint64"},{"name":"currentNumValidatorsNotWithdrawable","type":"uint64","internalType":"uint64"},{"name":"cumulativeNumValidatorsWithdrawable","type":"uint64","internalType":"uint64"},{"name":"windowWithdrawnPrincipalAmount","type":"uint128","internalType":"uint128"},{"name":"windowWithdrawnRewardAmount","type":"uint128","internalType":"uint128"},{"name":"currentTotalValidatorBalance","type":"uint128","internalType":"uint128"},{"name":"cumulativeProcessedDepositAmount","type":"uint128","internalType":"uint128"}]}],"anonymous":false},{"type":"event","name":"RoleAdminChanged","inputs":[{"name":"role","type":"bytes32","indexed":true,"internalType":"bytes32"},{"name":"previousAdminRole","type":"bytes32","indexed":true,"internalType":"bytes32"},{"name":"newAdminRole","type":"bytes32","indexed":true,"internalType":"bytes32"}],"anonymous":false},{"type":"event","name":"RoleGranted","inputs":[{"name":"role","type":"bytes32","indexed":true,"internalType":"bytes32"},{"name":"account","type":"address","indexed":true,"internalType":"address"},{"name":"sender","type":"address","indexed":true,"internalType":"address"}],"anonymous":false},{"type":"event","name":"RoleRevoked","inputs":[{"name":"role","type":"bytes32","indexed":true,"internalType":"bytes32"},{"name":"account","type":"address","indexed":true,"internalType":"address"},{"name":"sender","type":"address","indexed":true,"internalType":"address"}],"anonymous":false},{"type":"error","name":"AccessControlBadConfirmation","inputs":[]},{"type":"error","name":"AccessControlUnauthorizedAccount","inputs":[{"name":"account","type":"address","internalType":"address"},{"name":"neededRole","type":"bytes32","internalType":"bytes32"}]},{"type":"error","name":"AlreadyReporter","inputs":[]},{"type":"error","name":"InvalidInitialization","inputs":[]},{"type":"error","name":"InvalidReporter","inputs":[]},{"type":"error","name":"NotInitializing","inputs":[]},{"type":"error","name":"RelativeThresholdExceedsOne","inputs":[]}],"bytecode":{"object":"0x608060405234801561001057600080fd5b5061001961001e565b6100d0565b7ff0c57e16840df040f15088dc2f81fe391c3923bec73e23a9662efc9c229c6a00805468010000000000000000900460ff161561006e5760405163f92ee8a960e01b815260040160405180910390fd5b80546001600160401b03908116146100cd5780546001600160401b0319166001600160401b0390811782556040519081527fc7f505b2f371ae2175ee4913f4499e1f2633a7b5936321eed1cdaeb6115181d29060200160405180910390a15b50565b611ad4806100df6000396000f3fe608060405234801561001057600080fd5b506004361061014d5760003560e01c80637dc0d1d0116100c3578063ca15c8731161007c578063ca15c87314610341578063cca1532d14610354578063cfde05461461037b578063d547741f146103a3578063f2f3a74c146103b6578063f8a60cf9146103cb57600080fd5b80637dc0d1d0146102925780639010d07c146102bd57806391d14854146102d05780639c067b3a146102e3578063a217fddf14610324578063ab980d941461032c57600080fd5b80632f2ff15d116101155780632f2ff15d146102065780633187a6ff1461021b578063318e8d9d1461022e57806336568abe1461024157806350148afa14610254578063574e4a5a1461026757600080fd5b806301ffc9a7146101525780630abc7d011461017a57806312758f48146101b35780631e8d5362146101c8578063248a9ca3146101f3575b600080fd5b6101656101603660046112e2565b6103de565b60405190151581526020015b60405180910390f35b6101a5610188366004611321565b600260209081526000928352604080842090915290825290205481565b604051908152602001610171565b6101a5600080516020611a7f83398151915281565b6101a56101d6366004611362565b600160209081526000928352604080842090915290825290205481565b6101a561020136600461139b565b610409565b6102196102143660046113b4565b61042b565b005b6102196102293660046113d9565b61044d565b61021961023c3660046114bd565b6105e1565b61021961024f3660046113b4565b610814565b6102196102623660046115e2565b61084c565b60035461027a906001600160401b031681565b6040516001600160401b039091168152602001610171565b6000546102a5906001600160a01b031681565b6040516001600160a01b039091168152602001610171565b6102a56102cb3660046115ff565b6108e1565b6101656102de3660046113b4565b610910565b6101a56102f1366004611362565b6001600160401b03821660009081526001602090815260408083206001600160a01b038516845290915290205492915050565b6101a5600081565b6101a5600080516020611a5f83398151915281565b6101a561034f36600461139b565b610948565b6101a57faa35fce2ef9ee0b84f290ae7382aca4092f6602051fe2a490784e88a82fe879d81565b60035461039090600160501b900461ffff1681565b60405161ffff9091168152602001610171565b6102196103b13660046113b4565b610975565b60035461039090600160401b900461ffff1681565b6102196103d9366004611633565b610991565b60006001600160e01b03198216635a05180f60e01b1480610403575061040382610a71565b92915050565b6000908152600080516020611a3f833981519152602052604090206001015490565b61043482610409565b61043d81610aa6565b6104478383610ab3565b50505050565b600080516020611a7f83398151915261046581610aa6565b60006104713388610af8565b905061048c6104866040890160208a016115e2565b82610ce4565b61049657506105d9565b6104b76104a96040890160208a016115e2565b6001600160401b0316610d6b565b156104c257506105d9565b6104d260408801602089016115e2565b6001600160401b03167f3bd410bdb5ac41c329fac3039d57b4c75b4cc6c7f1695372640ddbfb24bdfc1a60405160405180910390a2600054604051633187a6ff60e01b81526001600160a01b0390911690633187a6ff9061053f908a908a908a908a908a9060040161174f565b600060405180830381600087803b15801561055957600080fd5b505af192505050801561056a575060015b6105d7573d808015610598576040519150601f19603f3d011682016040523d82523d6000602084013e61059d565b606091505b507fd51bed471c9d34c6a4a447b0e7ed674f2e83bc580b81138a01281d050932d7ff816040516105cd91906117d7565b60405180910390a1505b505b505050505050565b7ff0c57e16840df040f15088dc2f81fe391c3923bec73e23a9662efc9c229c6a008054600160401b810460ff1615906001600160401b03166000811580156106265750825b90506000826001600160401b031660011480156106425750303b155b905081158015610650575080155b1561066e5760405163f92ee8a960e01b815260040160405180910390fd5b845467ffffffffffffffff19166001178555831561069857845460ff60401b1916600160401b1785555b6106a0610eec565b85516106ae90600090610ab3565b506106dd7faa35fce2ef9ee0b84f290ae7382aca4092f6602051fe2a490784e88a82fe879d8760200151610ab3565b50610716600080516020611a7f8339815191527faa35fce2ef9ee0b84f290ae7382aca4092f6602051fe2a490784e88a82fe879d610ef6565b610732600080516020611a5f8339815191528760400151610ab3565b506080860151600080546001600160a01b0319166001600160a01b03909216919091178155606087015151905b818110156107a55761079c600080516020611a7f8339815191528960600151838151811061078f5761078f6117ea565b6020026020010151610ab3565b5060010161075f565b5050600380546bffffffffffffffffffffffff19166801000000000000096017905583156105d957845460ff60401b19168555604051600181527fc7f505b2f371ae2175ee4913f4499e1f2633a7b5936321eed1cdaeb6115181d29060200160405180910390a1505050505050565b6001600160a01b038116331461083d5760405163334bd91960e11b815260040160405180910390fd5b6108478282610f59565b505050565b600080516020611a5f83398151915261086481610aa6565b6003805467ffffffffffffffff19166001600160401b03841690811790915560408051602081019290925263280a457d60e11b917f01d854e8dde9402801a4c6f2840193465752abfad61e0bb7c4258d526ae42e74910160408051601f19818403018152908290526108d591611800565b60405180910390a25050565b6000828152600080516020611a1f8339815191526020819052604082206109089084610f95565b949350505050565b6000918252600080516020611a3f833981519152602090815260408084206001600160a01b0393909316845291905290205460ff1690565b6000818152600080516020611a1f83398151915260208190526040822061096e90610fa1565b9392505050565b61097e82610409565b61098781610aa6565b6104478383610f59565b600080516020611a5f8339815191526109a981610aa6565b61271061ffff831611156109d057604051630365790760e61b815260040160405180910390fd5b6040805161ffff858116602083015284168183015281518082038301815260609091019182905263f8a60cf960e01b917f01d854e8dde9402801a4c6f2840193465752abfad61e0bb7c4258d526ae42e7491610a2b91611853565b60405180910390a250600380546bffffffff00000000000000001916600160401b61ffff9485160261ffff60501b191617600160501b9290931691909102919091179055565b60006001600160e01b03198216637965db0b60e01b148061040357506301ffc9a760e01b6001600160e01b0319831614610403565b610ab08133610fab565b50565b6000600080516020611a1f83398151915281610acf8585610fec565b90508015610908576000858152602083905260409020610aef9085611091565b50949350505050565b60008082604051602001610b0c91906118a5565b60405160208183030381529060405280519060200120905080846001600160a01b0316846020016020810190610b4291906115e2565b6001600160401b03167f126c7b81dc1af0747cc236a7f7916c56e921b44c0b17d5a529e53e472f2bdec286604051610b7a91906118a5565b60405180910390a46000600181610b9760408701602088016115e2565b6001600160401b03168152602080820192909252604090810160009081206001600160a01b03891682529092529020549050808203610bd857509050610403565b8015610c3a57600160026000610bf460408801602089016115e2565b6001600160401b03166001600160401b0316815260200190815260200160002060008381526020019081526020016000206000828254610c3491906118ca565b90915550505b600160026000610c5060408801602089016115e2565b6001600160401b03166001600160401b0316815260200190815260200160002060008481526020019081526020016000206000828254610c9091906118dd565b9091555082905060016000610cab60408801602089016115e2565b6001600160401b03168152602080820192909252604090810160009081206001600160a01b038a16825290925290205550905092915050565b6001600160401b038216600090815260026020908152604080832084845290915281205481610d20600080516020611a7f833981519152610948565b600354909150600160401b900461ffff168210801590610d625750600354610d5390600160501b900461ffff16826118f0565b610d5f612710846118f0565b10155b95945050505050565b600080546040805163079d004d60e51b8152905184926001600160a01b03169163f3a009a0916004808301926101009291908290030181865afa158015610db6573d6000803e3d6000fd5b505050506040513d601f19601f82011682018060405250810190610dda919061191d565b602001516001600160401b0316101580610403575060008054906101000a90046001600160a01b03166001600160a01b031663aa5180e86040518163ffffffff1660e01b8152600401602060405180830381865afa158015610e40573d6000803e3d6000fd5b505050506040513d601f19601f82011682018060405250810190610e6491906119e6565b80156104035750600054604080516229372b60e21b8152905184926001600160a01b03169162a4dcac916004808301926101009291908290030181865afa158015610eb3573d6000803e3d6000fd5b505050506040513d601f19601f82011682018060405250810190610ed7919061191d565b602001516001600160401b0316101592915050565b610ef46110a6565b565b600080516020611a3f8339815191526000610f1084610409565b600085815260208490526040808220600101869055519192508491839187917fbd79b86ffe0ab8e8776151514217cd7cacd52c909f66475c3af44e129f0b00ff9190a450505050565b6000600080516020611a1f83398151915281610f7585856110ef565b90508015610908576000858152602083905260409020610aef908561116b565b600061096e8383611180565b6000610403825490565b610fb58282610910565b610fe85760405163e2517d3f60e01b81526001600160a01b03821660048201526024810183905260440160405180910390fd5b5050565b6000600080516020611a3f8339815191526110078484610910565b611087576000848152602082815260408083206001600160a01b03871684529091529020805460ff1916600117905561103d3390565b6001600160a01b0316836001600160a01b0316857f2f8788117e7eff1d82e926ec794901d17c78024a50270940304540a733656f0d60405160405180910390a46001915050610403565b6000915050610403565b600061096e836001600160a01b0384166111aa565b7ff0c57e16840df040f15088dc2f81fe391c3923bec73e23a9662efc9c229c6a0054600160401b900460ff16610ef457604051631afcd79f60e31b815260040160405180910390fd5b6000600080516020611a3f83398151915261110a8484610910565b15611087576000848152602082815260408083206001600160a01b0387168085529252808320805460ff1916905551339287917ff6391f5c32d9c69d2a47ea670b442974b53935d1edc7fd64eb21e047a839171b9190a46001915050610403565b600061096e836001600160a01b0384166111f9565b6000826000018281548110611197576111976117ea565b9060005260206000200154905092915050565b60008181526001830160205260408120546111f157508154600181810184556000848152602080822090930184905584548482528286019093526040902091909155610403565b506000610403565b6000818152600183016020526040812054801561108757600061121d6001836118ca565b8554909150600090611231906001906118ca565b9050808214611296576000866000018281548110611251576112516117ea565b9060005260206000200154905080876000018481548110611274576112746117ea565b6000918252602080832090910192909255918252600188019052604090208390555b85548690806112a7576112a7611a08565b600190038181906000526020600020016000905590558560010160008681526020019081526020016000206000905560019350505050610403565b6000602082840312156112f457600080fd5b81356001600160e01b03198116811461096e57600080fd5b6001600160401b0381168114610ab057600080fd5b6000806040838503121561133457600080fd5b823561133f8161130c565b946020939093013593505050565b6001600160a01b0381168114610ab057600080fd5b6000806040838503121561137557600080fd5b82356113808161130c565b915060208301356113908161134d565b809150509250929050565b6000602082840312156113ad57600080fd5b5035919050565b600080604083850312156113c757600080fd5b8235915060208301356113908161134d565b60008060008060008587036101808112156113f357600080fd5b6101008082121561140357600080fd5b87965086013590506114148161134d565b93506101208601356114258161134d565b949793965093946101408101359450610160013592915050565b634e487b7160e01b600052604160045260246000fd5b60405160a081016001600160401b03811182821017156114775761147761143f565b60405290565b604051601f8201601f191681016001600160401b03811182821017156114a5576114a561143f565b604052919050565b80356114b88161134d565b919050565b600060208083850312156114d057600080fd5b82356001600160401b03808211156114e757600080fd5b9084019060a082870312156114fb57600080fd5b611503611455565b823561150e8161134d565b81528284013561151d8161134d565b81850152604083013561152f8161134d565b604082015260608301358281111561154657600080fd5b8301601f8101881361155757600080fd5b8035838111156115695761156961143f565b8060051b935061157a86850161147d565b818152938201860193868101908a86111561159457600080fd5b928701925b858410156115be57833592506115ae8361134d565b8282529287019290870190611599565b6060850152506115d3915050608084016114ad565b60808201529695505050505050565b6000602082840312156115f457600080fd5b813561096e8161130c565b6000806040838503121561161257600080fd5b50508035926020909101359150565b803561ffff811681146114b857600080fd5b6000806040838503121561164657600080fd5b61164f83611621565b915061165d60208401611621565b90509250929050565b6001600160801b0381168114610ab057600080fd5b80356114b881611666565b80356116918161130c565b6001600160401b0390811683526020820135906116ad8261130c565b90811660208401526040820135906116c48261130c565b90811660408401526060820135906116db8261130c565b1660608301526116ed6080820161167b565b6001600160801b0316608083015261170760a0820161167b565b6001600160801b031660a083015261172160c0820161167b565b6001600160801b031660c083015261173b60e0820161167b565b6001600160801b03811660e0840152505050565b610180810161175e8288611686565b6001600160a01b039586166101008301529390941661012085015261014084019190915261016090920191909152919050565b6000815180845260005b818110156117b75760208185018101518683018201520161179b565b506000602082860101526020601f19601f83011685010191505092915050565b60208152600061096e6020830184611791565b634e487b7160e01b600052603260045260246000fd5b60408152602360408201527f7365745461726765745265706f727457696e646f77426c6f636b732875696e7460608201526236342960e81b608082015260a06020820152600061096e60a0830184611791565b60408152602260408201527f73657451756f72756d5468726573686f6c64732875696e7431362c75696e7431606082015261362960f01b608082015260a06020820152600061096e60a0830184611791565b61010081016104038284611686565b634e487b7160e01b600052601160045260246000fd5b81810381811115610403576104036118b4565b80820180821115610403576104036118b4565b8082028115828204841417610403576104036118b4565b80516114b88161130c565b80516114b881611666565b600061010080838503121561193157600080fd5b604051908101906001600160401b03821181831017156119535761195361143f565b81604052835191506119648261130c565b81815261197360208501611907565b602082015261198460408501611907565b604082015261199560608501611907565b60608201526119a660808501611912565b60808201526119b760a08501611912565b60a08201526119c860c08501611912565b60c08201526119d960e08501611912565b60e0820152949350505050565b6000602082840312156119f857600080fd5b8151801515811461096e57600080fd5b634e487b7160e01b600052603160045260246000fdfec1f6fe24621ce81ec5827caf0253cadb74709b061630e6b55e8237170593200002dd7bc7dec4dceedda775e58dd541e08a116c6c53815c0bd028192f7b626800108f016deb2b2623375e344cf6aedfd098de0555db0c5f551a41c28df1651d03bacb44b817b3c26b3f0ebf2047441abbd1fb7d1925f6bcd8181c28334b10d231a2646970667358221220347e4848199ecd68926b6af4d88dece07e8a4ce61a2c44620f9f7974fb9a40db64736f6c63430008180033","linkReferences":{}},"methodIdentifiers":{"DEFAULT_ADMIN_ROLE()":"a217fddf","QUORUM_MANAGER_ROLE()":"ab980d94","REPORTER_MODIFIER_ROLE()":"cca1532d","SERVICE_ORACLE_REPORTER()":"12758f48","absoluteThreshold()":"f2f3a74c","getRoleAdmin(bytes32)":"248a9ca3","getRoleMember(bytes32,uint256)":"9010d07c","getRoleMemberCount(bytes32)":"ca15c873","grantRole(bytes32,address)":"2f2ff15d","hasRole(bytes32,address)":"91d14854","initialize((address,address,address,address[],address))":"318e8d9d","oracle()":"7dc0d1d0","receiveRecord((uint64,uint64,uint64,uint64,uint128,uint128,uint128,uint128),address,address,uint256,uint256)":"3187a6ff","recordHashByBlockAndSender(uint64,address)":"9c067b3a","recordHashCountByBlock(uint64,bytes32)":"0abc7d01","relativeThresholdBasisPoints()":"cfde0546","renounceRole(bytes32,address)":"36568abe","reporterRecordHashesByBlock(uint64,address)":"1e8d5362","revokeRole(bytes32,address)":"d547741f","setQuorumThresholds(uint16,uint16)":"f8a60cf9","setTargetReportWindowBlocks(uint64)":"50148afa","supportsInterface(bytes4)":"01ffc9a7","targetReportWindowBlocks()":"574e4a5a"},"id":61}