{"abi":[{"type":"constructor","inputs":[],"stateMutability":"nonpayable"},{"type":"function","name":"DEPOSIT_TYPEHASH","inputs":[],"outputs":[{"name":"","type":"bytes32","internalType":"bytes32"}],"stateMutability":"view"},{"type":"function","name":"DOMAIN_TYPEHASH","inputs":[],"outputs":[{"name":"","type":"bytes32","internalType":"bytes32"}],"stateMutability":"view"},{"type":"function","name":"addShares","inputs":[{"name":"staker","type":"address","internalType":"address"},{"name":"weth","type":"address","internalType":"contract IERC20"},{"name":"strategy","type":"address","internalType":"contract IStrategy"},{"name":"shares","type":"uint256","internalType":"uint256"}],"outputs":[],"stateMutability":"nonpayable"},{"type":"function","name":"addStrategiesToDepositWhitelist","inputs":[{"name":"strategiesToWhitelist","type":"address[]","internalType":"contract IStrategy[]"},{"name":"thirdPartyTransfersForbiddenValues","type":"bool[]","internalType":"bool[]"}],"outputs":[],"stateMutability":"nonpayable"},{"type":"function","name":"calculateWithdrawalRoot","inputs":[{"name":"queuedWithdrawal","type":"tuple","internalType":"struct IStrategyManager.DeprecatedStruct_QueuedWithdrawal","components":[{"name":"strategies","type":"address[]","internalType":"contract IStrategy[]"},{"name":"shares","type":"uint256[]","internalType":"uint256[]"},{"name":"staker","type":"address","internalType":"address"},{"name":"withdrawerAndNonce","type":"tuple","internalType":"struct IStrategyManager.DeprecatedStruct_WithdrawerAndNonce","components":[{"name":"withdrawer","type":"address","internalType":"address"},{"name":"nonce","type":"uint96","internalType":"uint96"}]},{"name":"withdrawalStartBlock","type":"uint32","internalType":"uint32"},{"name":"delegatedAddress","type":"address","internalType":"address"}]}],"outputs":[{"name":"","type":"bytes32","internalType":"bytes32"}],"stateMutability":"pure"},{"type":"function","name":"delegation","inputs":[],"outputs":[{"name":"","type":"address","internalType":"contract IDelegationManager"}],"stateMutability":"view"},{"type":"function","name":"depositETHIntoStrategy","inputs":[{"name":"strategy","type":"address","internalType":"contract IStrategy"},{"name":"amount","type":"uint256","internalType":"uint256"}],"outputs":[{"name":"shares","type":"uint256","internalType":"uint256"}],"stateMutability":"nonpayable"},{"type":"function","name":"depositETHIntoStrategyWithSignature","inputs":[{"name":"strategy","type":"address","internalType":"contract IStrategy"},{"name":"amount","type":"uint256","internalType":"uint256"},{"name":"staker","type":"address","internalType":"address"},{"name":"expiry","type":"uint256","internalType":"uint256"},{"name":"signature","type":"bytes","internalType":"bytes"}],"outputs":[{"name":"shares","type":"uint256","internalType":"uint256"}],"stateMutability":"nonpayable"},{"type":"function","name":"depositWETHIntoStrategy","inputs":[{"name":"strategy","type":"address","internalType":"contract IStrategy"},{"name":"weth","type":"address","internalType":"contract IERC20"},{"name":"amount","type":"uint256","internalType":"uint256"}],"outputs":[{"name":"shares","type":"uint256","internalType":"uint256"}],"stateMutability":"nonpayable"},{"type":"function","name":"depositWETHIntoStrategyWithSignature","inputs":[{"name":"strategy","type":"address","internalType":"contract IStrategy"},{"name":"weth","type":"address","internalType":"contract IERC20"},{"name":"amount","type":"uint256","internalType":"uint256"},{"name":"staker","type":"address","internalType":"address"},{"name":"expiry","type":"uint256","internalType":"uint256"},{"name":"signature","type":"bytes","internalType":"bytes"}],"outputs":[{"name":"shares","type":"uint256","internalType":"uint256"}],"stateMutability":"nonpayable"},{"type":"function","name":"domainSeparator","inputs":[],"outputs":[{"name":"","type":"bytes32","internalType":"bytes32"}],"stateMutability":"view"},{"type":"function","name":"getDeposits","inputs":[{"name":"staker","type":"address","internalType":"address"}],"outputs":[{"name":"","type":"address[]","internalType":"contract IStrategy[]"},{"name":"","type":"uint256[]","internalType":"uint256[]"}],"stateMutability":"view"},{"type":"function","name":"initialize","inputs":[{"name":"initialOwner","type":"address","internalType":"address"},{"name":"initialStrategyWhitelister","type":"address","internalType":"address"},{"name":"_relayer","type":"address","internalType":"address"},{"name":"_delegation","type":"address","internalType":"contract IDelegationManager"},{"name":"_slasher","type":"address","internalType":"contract ISlashManager"},{"name":"_pauser","type":"address","internalType":"contract IL2Pauser"}],"outputs":[],"stateMutability":"nonpayable"},{"type":"function","name":"migrateQueuedWithdrawal","inputs":[{"name":"queuedWithdrawal","type":"tuple","internalType":"struct IStrategyManager.DeprecatedStruct_QueuedWithdrawal","components":[{"name":"strategies","type":"address[]","internalType":"contract IStrategy[]"},{"name":"shares","type":"uint256[]","internalType":"uint256[]"},{"name":"staker","type":"address","internalType":"address"},{"name":"withdrawerAndNonce","type":"tuple","internalType":"struct IStrategyManager.DeprecatedStruct_WithdrawerAndNonce","components":[{"name":"withdrawer","type":"address","internalType":"address"},{"name":"nonce","type":"uint96","internalType":"uint96"}]},{"name":"withdrawalStartBlock","type":"uint32","internalType":"uint32"},{"name":"delegatedAddress","type":"address","internalType":"address"}]}],"outputs":[{"name":"","type":"bool","internalType":"bool"},{"name":"","type":"bytes32","internalType":"bytes32"}],"stateMutability":"nonpayable"},{"type":"function","name":"migrateRelatedL1StakerShares","inputs":[{"name":"staker","type":"address","internalType":"address"},{"name":"strategy","type":"address","internalType":"contract IStrategy"},{"name":"shares","type":"uint256","internalType":"uint256"}],"outputs":[{"name":"","type":"bool","internalType":"bool"}],"stateMutability":"nonpayable"},{"type":"function","name":"nonces","inputs":[{"name":"","type":"address","internalType":"address"}],"outputs":[{"name":"","type":"uint256","internalType":"uint256"}],"stateMutability":"view"},{"type":"function","name":"owner","inputs":[],"outputs":[{"name":"","type":"address","internalType":"address"}],"stateMutability":"view"},{"type":"function","name":"pauser","inputs":[],"outputs":[{"name":"","type":"address","internalType":"contract IL2Pauser"}],"stateMutability":"view"},{"type":"function","name":"relayer","inputs":[],"outputs":[{"name":"","type":"address","internalType":"address"}],"stateMutability":"view"},{"type":"function","name":"removeShares","inputs":[{"name":"staker","type":"address","internalType":"address"},{"name":"strategy","type":"address","internalType":"contract IStrategy"},{"name":"shares","type":"uint256","internalType":"uint256"}],"outputs":[],"stateMutability":"nonpayable"},{"type":"function","name":"removeStrategiesFromDepositWhitelist","inputs":[{"name":"strategiesToRemoveFromWhitelist","type":"address[]","internalType":"contract IStrategy[]"}],"outputs":[],"stateMutability":"nonpayable"},{"type":"function","name":"renounceOwnership","inputs":[],"outputs":[],"stateMutability":"nonpayable"},{"type":"function","name":"setStrategyWhitelister","inputs":[{"name":"newStrategyWhitelister","type":"address","internalType":"address"}],"outputs":[],"stateMutability":"nonpayable"},{"type":"function","name":"setThirdPartyTransfersForbidden","inputs":[{"name":"strategy","type":"address","internalType":"contract IStrategy"},{"name":"value","type":"bool","internalType":"bool"}],"outputs":[],"stateMutability":"nonpayable"},{"type":"function","name":"slasher","inputs":[],"outputs":[{"name":"","type":"address","internalType":"contract ISlashManager"}],"stateMutability":"view"},{"type":"function","name":"stakerStrategyL1BackShares","inputs":[{"name":"","type":"address","internalType":"address"},{"name":"","type":"address","internalType":"contract IStrategy"}],"outputs":[{"name":"","type":"uint256","internalType":"uint256"}],"stateMutability":"view"},{"type":"function","name":"stakerStrategyList","inputs":[{"name":"","type":"address","internalType":"address"},{"name":"","type":"uint256","internalType":"uint256"}],"outputs":[{"name":"","type":"address","internalType":"contract IStrategy"}],"stateMutability":"view"},{"type":"function","name":"stakerStrategyListLength","inputs":[{"name":"staker","type":"address","internalType":"address"}],"outputs":[{"name":"","type":"uint256","internalType":"uint256"}],"stateMutability":"view"},{"type":"function","name":"stakerStrategyShares","inputs":[{"name":"","type":"address","internalType":"address"},{"name":"","type":"address","internalType":"contract IStrategy"}],"outputs":[{"name":"","type":"uint256","internalType":"uint256"}],"stateMutability":"view"},{"type":"function","name":"strategyIsWhitelistedForDeposit","inputs":[{"name":"","type":"address","internalType":"contract IStrategy"}],"outputs":[{"name":"","type":"bool","internalType":"bool"}],"stateMutability":"view"},{"type":"function","name":"strategyWhitelister","inputs":[],"outputs":[{"name":"","type":"address","internalType":"address"}],"stateMutability":"view"},{"type":"function","name":"thirdPartyTransfersForbidden","inputs":[{"name":"","type":"address","internalType":"contract IStrategy"}],"outputs":[{"name":"","type":"bool","internalType":"bool"}],"stateMutability":"view"},{"type":"function","name":"transferOwnership","inputs":[{"name":"newOwner","type":"address","internalType":"address"}],"outputs":[],"stateMutability":"nonpayable"},{"type":"function","name":"withdrawSharesAsWeth","inputs":[{"name":"recipient","type":"address","internalType":"address"},{"name":"strategy","type":"address","internalType":"contract IStrategy"},{"name":"shares","type":"uint256","internalType":"uint256"},{"name":"weth","type":"address","internalType":"contract IERC20"}],"outputs":[],"stateMutability":"nonpayable"},{"type":"function","name":"withdrawalRootPending","inputs":[{"name":"","type":"bytes32","internalType":"bytes32"}],"outputs":[{"name":"","type":"bool","internalType":"bool"}],"stateMutability":"view"},{"type":"event","name":"Deposit","inputs":[{"name":"staker","type":"address","indexed":false,"internalType":"address"},{"name":"weth","type":"address","indexed":false,"internalType":"contract IERC20"},{"name":"strategy","type":"address","indexed":false,"internalType":"contract IStrategy"},{"name":"shares","type":"uint256","indexed":false,"internalType":"uint256"}],"anonymous":false},{"type":"event","name":"Initialized","inputs":[{"name":"version","type":"uint64","indexed":false,"internalType":"uint64"}],"anonymous":false},{"type":"event","name":"MigrateRelatedL1StakerShares","inputs":[{"name":"staker","type":"address","indexed":false,"internalType":"address"},{"name":"strategy","type":"address","indexed":false,"internalType":"contract IStrategy"},{"name":"shares","type":"uint256","indexed":false,"internalType":"uint256"}],"anonymous":false},{"type":"event","name":"OwnershipTransferred","inputs":[{"name":"previousOwner","type":"address","indexed":true,"internalType":"address"},{"name":"newOwner","type":"address","indexed":true,"internalType":"address"}],"anonymous":false},{"type":"event","name":"StrategyAddedToDepositWhitelist","inputs":[{"name":"strategy","type":"address","indexed":false,"internalType":"contract IStrategy"}],"anonymous":false},{"type":"event","name":"StrategyRemovedFromDepositWhitelist","inputs":[{"name":"strategy","type":"address","indexed":false,"internalType":"contract IStrategy"}],"anonymous":false},{"type":"event","name":"StrategyWhitelisterChanged","inputs":[{"name":"previousAddress","type":"address","indexed":false,"internalType":"address"},{"name":"newAddress","type":"address","indexed":false,"internalType":"address"}],"anonymous":false},{"type":"event","name":"UpdatedThirdPartyTransfersForbidden","inputs":[{"name":"strategy","type":"address","indexed":false,"internalType":"contract IStrategy"},{"name":"value","type":"bool","indexed":false,"internalType":"bool"}],"anonymous":false},{"type":"error","name":"AddressEmptyCode","inputs":[{"name":"target","type":"address","internalType":"address"}]},{"type":"error","name":"AddressInsufficientBalance","inputs":[{"name":"account","type":"address","internalType":"address"}]},{"type":"error","name":"ECDSAInvalidSignature","inputs":[]},{"type":"error","name":"ECDSAInvalidSignatureLength","inputs":[{"name":"length","type":"uint256","internalType":"uint256"}]},{"type":"error","name":"ECDSAInvalidSignatureS","inputs":[{"name":"s","type":"bytes32","internalType":"bytes32"}]},{"type":"error","name":"FailedInnerCall","inputs":[]},{"type":"error","name":"InvalidInitialization","inputs":[]},{"type":"error","name":"NotInitializing","inputs":[]},{"type":"error","name":"OwnableInvalidOwner","inputs":[{"name":"owner","type":"address","internalType":"address"}]},{"type":"error","name":"OwnableUnauthorizedAccount","inputs":[{"name":"account","type":"address","internalType":"address"}]},{"type":"error","name":"ReentrancyGuardReentrantCall","inputs":[]},{"type":"error","name":"SafeERC20FailedOperation","inputs":[{"name":"token","type":"address","internalType":"address"}]}],"bytecode":{"object":"0x60a080604052346100c6577ff0c57e16840df040f15088dc2f81fe391c3923bec73e23a9662efc9c229c6a009081549060ff8260401c166100b757506001600160401b036002600160401b031982821601610072575b46608052604051612f589081620000cc823960805181611d920152f35b6001600160401b031990911681179091556040519081527fc7f505b2f371ae2175ee4913f4499e1f2633a7b5936321eed1cdaeb6115181d290602090a1388080610055565b63f92ee8a960e01b8152600490fd5b600080fdfe6080604052600436101561001257600080fd5b600060e08135811c9081630891e0ed146115dc57816320606b70146115a1578163422e73e51461157057816348825e94146115355781634e5a4263146114f1578163663c1de4146114b25781636c962dcf146113c2578163715018a61461135857816372e80be61461131f5781637a7e0d92146112d45781637ecebe001461129b5781638406c079146112725781638b8aac3c146112395781638c80d4e5146112085781638da5cb5b146111d257816394f649dd1461108e578163967fc0d2146110655781639b4da03d146110265781639fd0506d14610ffd578163b134427114610fd4578163b43b514b14610e1d578163b5d8b5b814610ce5578163c3c6b3a914610cb6578163c4623ea114610c6a578163c665670214610c45578163cbc2bd6214610bea578163cbc336c21461096c578163cc2a9a5b146107bd578163cd293f6f146105b657508063df5b3547146103e6578063df5cf723146103bd578063e10456fe1461026b578063f2fde38b14610215578063f698da25146101f25763fd769186146101a157600080fd5b346101ef5760403660031901126101ef576101ba611814565b60406101c461182f565b9260018060a01b03809316815260056020522091166000526020526020604060002054604051908152f35b80fd5b50346101ef57806003193601126101ef57602061020d611d8f565b604051908152f35b50346101ef5760203660031901126101ef5761022f611814565b6102376126b7565b6001600160a01b038116156102525761024f906126f0565b80f35b604051631e4fbdf760e01b815260048101839052602490fd5b50346101ef5760803660031901126101ef57610285611814565b61028d61182f565b6044359061029961186f565b9060018060a01b0380946102b282603354163314611c59565b16808652600560205284604087209216918287526020528360408720540361032c578593823b156103285760649285916040519788968795636ce5768960e11b8752600487015216602485015260448401525af1801561031d57610314575080f35b61024f90611885565b6040513d84823e3d90fd5b8480fd5b60405162461bcd60e51b815260206004820152605c60248201527f53747261746567794d616e616765722e7769746864726177536861726573417360448201527f576574683a20546865204c6179657231206f662044455448206861736e27742060648201527f6265656e20636f6d706c6574656c792072656c65617365642079657400000000608482015260a490fd5b50346101ef57806003193601126101ef576033546040516001600160a01b039091168152602090f35b50346101ef5760403660031901126101ef576001600160401b036004358181116105b257610418903690600401611a3f565b90916024359081116105ae57610432903690600401611a3f565b909160018060a01b039361044b85600254163314611bb8565b82820361052f57855b82811061045f578680f35b8561047361046e838686611d6b565b611d7b565b168752600960209080825260ff60408a20541615610496575b5050600101610454565b907f0c35b17d91c96eb2751cd456e1252f42a386e524ef9ff26ecc9950859fdc04fe91886104c861046e868989611d6b565b168a52815260408920805460ff191660011790556104ea61046e848787611d6b565b8860405191168152a161050161046e828585611d6b565b9061050d818688611d6b565b3591821515830361052b576001926105249161265e565b903861048c565b8880fd5b60405162461bcd60e51b815260206004820152604b60248201527f53747261746567794d616e616765722e61646453747261746567696573546f4460448201527f65706f73697457686974656c6973743a206172726179206c656e67746873206460648201526a0de40dcdee840dac2e8c6d60ab1b608482015260a490fd5b8380fd5b8280fd5b82346101ef57602060031981813601126105b257600435906001600160401b039485831161032857823603918201126105ae57604051946105f6866118ae565b82600401358181116107b9578301366023820112156107b95760048101359061061e82611a28565b9161062c60405193846118ff565b80835260248784019160051b8301019136831161052b576024889101915b8383106107a1575050505086526024830135908111610328578201366023820112156103285760048101359061067f82611a28565b9161068d60405193846118ff565b80835260248684019160051b8301019136831161079d576024879101915b83831061078d575090506040939291508701526106ca6044840161185b565b8683015260631901126105b2576040516106e3816118c9565b6106ef6064830161185b565b815260848201356001600160601b03811681036103285783820152606085015260a481013563ffffffff811681036105ae579361073960c46107589360409760808501520161185b565b60a082015261075360018060a01b03603354163314611c59565b611cca565b9083838381526007835220805460ff811661077c575b505083519215158352820152f35b60ff1916905560019250848061076e565b82358152918101918791016106ab565b8780fd5b81906107ac8461185b565b815201910190879061064a565b8580fd5b82346101ef5760c03660031901126101ef576107d7611814565b6107df61182f565b6107e7611845565b6001600160a01b0360643581811692908390036107b9576084358281168091036109685760a4359083821680920361079d577ff0c57e16840df040f15088dc2f81fe391c3923bec73e23a9662efc9c229c6a009687549660ff8860401c1615976001600160401b03811680159081610960575b6001149081610956575b15908161094d575b5061093b5767ffffffffffffffff1981166001178a556108a5926108a0918a61091c575b50610899612ca4565b8c556126f0565b612c56565b6001600160601b0360a01b94856033541617603355846034541617603455836035541617603555169060365416176036556108de575080f35b68ff00000000000000001981541690557fc7f505b2f371ae2175ee4913f4499e1f2633a7b5936321eed1cdaeb6115181d2602060405160018152a180f35b68ffffffffffffffffff191668010000000000000001178b558c610890565b60405163f92ee8a960e01b8152600490fd5b9050158c61086c565b303b159150610864565b8a915061085a565b8680fd5b905034610be65760a0366003190112610be657610987611814565b60243590610993611845565b606435936001600160401b0360843581811161079d576109b790369060040161193b565b916109c0611dc7565b603554604051631c187a5960e11b81526020986001600160a01b03929091908a908290600490829087165afa908115610bdb578b91610bae575b5015610b435781871691828b52600b8a52610a1c60ff60408d20541615611ab5565b610a2842831015611b3a565b861693848b5260018a5260408b205493604051928b8401947fc30199eab143dcbbc0ef8cbfd8b775cd4bca1eb79e78a127fe762ed230416345865287604086015260608501528a60808501528560a085015260c084015260c0835282019082821090821117610b2f57610afe959493610b039a9b936040936001938552519020948452818c5201912055610ae7610af5610ac0611d8f565b926040519283918c83019586909160429261190160f01b8352600283015260228201520190565b03601f1981018352826118ff565b51902083611e09565b612255565b60017f9b779b17422d0df92223018b32b4d1fa46e071723d6817e2486d003becc55f0055604051908152f35b634e487b7160e01b8b52604160045260248bfd5b60405162461bcd60e51b8152600481018a9052603a60248201527f53747261746567794d616e616765723a6465706f736974455448496e746f537460448201527f726174656779576974685369676e6174757265207061757365640000000000006064820152608490fd5b610bce91508a3d8c11610bd4575b610bc681836118ff565b810190611a9d565b386109fa565b503d610bbc565b6040513d8d823e3d90fd5b5080fd5b82346101ef5760403660031901126101ef57610c04611814565b6001600160a01b039081168252600660205260408220805460243593908410156101ef5750602092610c3591611a6f565b9190546040519260031b1c168152f35b82346101ef5760203660031901126101ef5761024f610c62611814565b6108a06126b7565b82346101ef5760803660031901126101ef5761024f610c87611814565b610c8f61182f565b610c97611845565b90610cad60018060a01b03603354163314611c59565b606435926129f9565b82346101ef5760203660031901126101ef5760ff60406020926004358152600784522054166040519015158152f35b82346101ef57602080600319360112610be6576004356001600160401b0381116105b257610d17903690600401611a3f565b6002546001600160a01b039390610d319085163314611bb8565b845b828110610d3e578580f35b8085610d5061046e6001948789611d6b565b168752600980845260ff604089205416610d6c575b5001610d33565b86610d7b61046e84888a611d6b565b16885283526040872060ff19908181541690557f4074413b4b443e4e58019f2855a8765113358c7c72e39509c6af45fc0f5ba03084610dbe61046e85898b611d6b565b8960405191168152a1610dd561046e838789611d6b565b7f77d930df4937793473a95024d87a98fd2ccb9e92d3c2463b3dacd65d3e6a578660408981519316928381528b88820152a18852600b84526040882090815416905587610d65565b905034610be6576020916003199083823601126101ef57600435916001600160401b03938484116105b25783360391820112610be65760405193610e60856118ae565b83600401358181116105ae578401366023820112156105ae57600481013590610e8882611a28565b91610e9660405193846118ff565b80835260248984019160051b83010191368311610968579060248a9201905b838210610fbd5750505050855260248401359081116105b2578301366023820112156105b257600481013590610eea82611a28565b91610ef860405193846118ff565b80835260248884019160051b830101913683116107b957906024899201905b838210610fae575050604093929150860152610f356044850161185b565b8583015260631901126101ef57604051610f4e816118c9565b610f5a6064840161185b565b815260848301356001600160601b03811681036105b25785820152606084015260a48201359063ffffffff821682036101ef575060c48392610fa492608061020d9601520161185b565b60a0820152611cca565b81358152908201908201610f17565b828091610fc98461185b565b815201910190610eb5565b82346101ef57806003193601126101ef576034546040516001600160a01b039091168152602090f35b82346101ef57806003193601126101ef576035546040516001600160a01b039091168152602090f35b82346101ef5760203660031901126101ef5760209060ff906040906001600160a01b03611051611814565b168152600b84522054166040519015158152f35b82346101ef57806003193601126101ef576002546040516001600160a01b039091168152602090f35b82346101ef57602080600319360112610be6576001600160a01b0390816110b3611814565b168084526006906006835260408520546110cc81611a28565b926110da60405194856118ff565b818452601f196110e983611a28565b013686860137865b8281106111765750505084526006825260408420936040518094848754928381520196835284832092905b82821061115d5761114c876111598888611138848e03856118ff565b6040519485946040865260408601906119b7565b91848303908501526119f4565b0390f35b835481168852968501966001938401939091019061111c565b8388526004865260408820828752876111928360408c20611a6f565b90549060031b1c1689528652604088205485518210156111be57600582901b86018701526001016110f1565b634e487b7160e01b89526032600452602489fd5b82346101ef57806003193601126101ef57600080516020612ee3833981519152546040516001600160a01b039091168152602090f35b82346101ef5761123561121a36611982565b9161123060018060a01b03603354163314611c59565b612746565b5080f35b82346101ef5760203660031901126101ef576020906040906001600160a01b03611261611814565b168152600683522054604051908152f35b82346101ef57806003193601126101ef576036546040516001600160a01b039091168152602090f35b82346101ef5760203660031901126101ef576020906040906001600160a01b036112c3611814565b168152600183522054604051908152f35b82346101ef5760403660031901126101ef5760406020916112f3611814565b6112fb61182f565b6001600160a01b039182168352600485528383209116825283522054604051908152f35b82346101ef5760603660031901126101ef576020610b0361133e611814565b61134661182f565b61134e611dc7565b60443591336120a8565b82346101ef57806003193601126101ef576113716126b7565b600080516020612ee383398151915280546001600160a01b0319811690915581906001600160a01b03167f8be0079c531659141344cd1fd0a4f28419497f9722a3daafe3b4186f6b6457e08280a380f35b82346101ef576113d136611982565b6036546001600160a01b039492939291908516330361146d57604061145f92867f4be54f6b51e6829ea7a071c004f5b4169272ef6b0ff1a397e9af9f81a2120c1897861682526005602052828220908716825260205220611433828254611c36565b9055604080516001600160a01b0394851681529490931660208501529183019190915281906060820190565b0390a1602060405160018152f35b60405162461bcd60e51b815260206004820152601b60248201527f53747261746567794d616e616765722e6f6e6c7952656c6179657200000000006044820152606490fd5b82346101ef5760203660031901126101ef5760209060ff906040906001600160a01b036114dd611814565b168152600984522054166040519015158152f35b82346101ef5760403660031901126101ef5761150b611814565b60243580151581036105b25761024f9161153060018060a01b03600254163314611bb8565b61265e565b82346101ef57806003193601126101ef5760206040517fc30199eab143dcbbc0ef8cbfd8b775cd4bca1eb79e78a127fe762ed2304163458152f35b82346101ef5760403660031901126101ef576020610b0361158f611814565b611597611dc7565b6024359033612255565b82346101ef57806003193601126101ef5760206040517f8cad95687ba82c2ce50e74f7b754645e5117c3a5bec8151c0726d5857980a8668152f35b905034610be65760c0366003190112610be6576115f7611814565b6115ff61182f565b9061160861186f565b9260843560a4356001600160401b0381116109685761162b90369060040161193b565b91611634611dc7565b603554604051631c187a5960e11b815290602090829060049082906001600160a01b03165afa9081156118095788916117ea575b501561177f576001600160a01b038416808852600b60205260408820546116929060ff1615611ab5565b61169e42841015611b3a565b60018060a01b0387169283895260016020526040892054926040519160208301937fc30199eab143dcbbc0ef8cbfd8b775cd4bca1eb79e78a127fe762ed2304163458552866040850152606084015260018060a01b038916608084015260443560a08401528460c084015281830152815261010081018181106001600160401b0382111761176b576001610b039998979694611762969460209c946040948552519020948452818c5201912055610ae7611759610ac0611d8f565b51902085611e09565b604435926120a8565b634e487b7160e01b8a52604160045260248afd5b60405162461bcd60e51b815260206004820152603b60248201527f53747261746567794d616e616765723a6465706f73697457455448496e746f5360448201527f74726174656779576974685369676e61747572652070617573656400000000006064820152608490fd5b611803915060203d602011610bd457610bc681836118ff565b38611668565b6040513d8a823e3d90fd5b600435906001600160a01b038216820361182a57565b600080fd5b602435906001600160a01b038216820361182a57565b604435906001600160a01b038216820361182a57565b35906001600160a01b038216820361182a57565b606435906001600160a01b038216820361182a57565b6001600160401b03811161189857604052565b634e487b7160e01b600052604160045260246000fd5b60c081019081106001600160401b0382111761189857604052565b604081019081106001600160401b0382111761189857604052565b60a081019081106001600160401b0382111761189857604052565b90601f801991011681019081106001600160401b0382111761189857604052565b6001600160401b03811161189857601f01601f191660200190565b81601f8201121561182a5780359061195282611920565b9261196060405194856118ff565b8284526020838301011161182a57816000926020809301838601378301015290565b606090600319011261182a576001600160a01b0390600435828116810361182a5791602435908116810361182a579060443590565b90815180825260208080930193019160005b8281106119d7575050505090565b83516001600160a01b0316855293810193928101926001016119c9565b90815180825260208080930193019160005b828110611a14575050505090565b835185529381019392810192600101611a06565b6001600160401b0381116118985760051b60200190565b9181601f8401121561182a578235916001600160401b03831161182a576020808501948460051b01011161182a57565b8054821015611a875760005260206000200190600090565b634e487b7160e01b600052603260045260246000fd5b9081602091031261182a5751801515810361182a5790565b15611abc57565b60405162461bcd60e51b815260206004820152604a60248201527f53747261746567794d616e616765722e6465706f736974496e746f537472617460448201527f656779576974685369676e61747572653a207468697264207472616e736665726064820152691cc8191a5cd8589b195960b21b608482015260a490fd5b15611b4157565b60405162461bcd60e51b815260206004820152604360248201527f53747261746567794d616e616765722e6465706f736974496e746f537472617460448201527f656779576974685369676e61747572653a207369676e617475726520657870696064820152621c995960ea1b608482015260a490fd5b15611bbf57565b60a460405162461bcd60e51b815260206004820152604460248201527f53747261746567794d616e616765722e6f6e6c7953747261746567795768697460448201527f656c69737465723a206e6f742074686520737472617465677957686974656c6960648201526339ba32b960e11b6084820152fd5b91908201809211611c4357565b634e487b7160e01b600052601160045260246000fd5b15611c6057565b608460405162461bcd60e51b815260206004820152604060248201527f53747261746567794d616e616765722e6f6e6c7944656c65676174696f6e4d6160448201527f6e616765723a206e6f74207468652044656c65676174696f6e4d616e616765726064820152fd5b611d26611d6560e092805160208201519160018060a01b0380604083015116916001600160601b03602060608301518460a063ffffffff6080870151169501511694611d396040519b8c99858b019e8f526101008b01906119b7565b601f199a8b8b83030160408c01526119f4565b966060890152815116608088015201511660a085015260c084015260e0830152039081018352826118ff565b51902090565b9190811015611a875760051b0190565b356001600160a01b038116810361182a5790565b467f000000000000000000000000000000000000000000000000000000000000000003611dbc5760005490565b611dc4612ca4565b90565b7f9b779b17422d0df92223018b32b4d1fa46e071723d6817e2486d003becc55f006002815414611df75760029055565b604051633ee5aeb560e01b8152600490fd5b909190803b15611f7a576040518092630b135d3f60e11b9485835260048301526040602483015280519081604484015260005b828110611f6257505091816064818560008360209884010152601f8019910116810103019160018060a01b03165afa908115611f5657600091611f13575b506001600160e01b03191603611e8c57565b60405162461bcd60e51b815260206004820152605360248201527f454950313237315369676e61747572655574696c732e636865636b5369676e6160448201527f747572655f454950313237313a2045524331323731207369676e6174757265206064820152721d995c9a599a58d85d1a5bdb8819985a5b1959606a1b608482015260a490fd5b6020813d602011611f4e575b81611f2c602093836118ff565b81010312610be65751906001600160e01b0319821682036101ef575038611e7a565b3d9150611f1f565b6040513d6000823e3d90fd5b60208282018101516064888401015286945001611e3c565b90611f8890611f9193612d2e565b90939193612d6a565b6001600160a01b03908116911603611fa557565b60405162461bcd60e51b815260206004820152604760248201527f454950313237315369676e61747572655574696c732e636865636b5369676e6160448201527f747572655f454950313237313a207369676e6174757265206e6f742066726f6d6064820152661039b4b3b732b960c91b608482015260a490fd5b1561202757565b60405162461bcd60e51b815260206004820152604d60248201527f53747261746567794d616e616765722e6f6e6c7953747261746567696573576860448201527f6974656c6973746564466f724465706f7369743a207374726174656779206e6f60648201526c1d081dda1a5d195b1a5cdd1959609a1b608482015260a490fd5b6001600160a01b038083166000818152600960209081526040808320549198909792969493916120da9060ff16612020565b875161212688808c84016323b872dd60e01b81523360248601528660448601528560648601526064855261210d856118e4565b88881694519082865af161211f61262e565b9083612e7f565b8051908b821515928361223c575b505050612225579060448a92898b5195869485936311f9fbc960e21b8552600485015260248401525af197881561221b5786986121e7575b5050868361217a92866129f9565b6033541691823b156105ae578451631452b9d760e11b81526001600160a01b039182166004820152911660248201526044810185905292919081908490818381606481015b03925af19182156121dd5750506121d4575090565b611dc490611885565b51903d90823e3d90fd5b90809293949850813d8311612214575b61220181836118ff565b810103126103285751959190808361216c565b503d6121f7565b87513d88823e3d90fd5b602490895190635274afe760e01b82526004820152fd5b61224c9350820181019101611a9d565b15388b81612134565b92919060018060a01b0390818116926000958487526020936009855260409461228360ff878b205416612020565b88808080348b5af161229361262e565b50156125ba578551966311f9fbc960e21b885289828960448173eeeeeeeeeeeeeeeeeeeeeeeeeeeeeeeeeeeeeeee9460049a868c8401526024830152865af19889156125b0578b9961257d575b508385169283156125195789156124b857838c52868152888c20838d528152888c81812054156123a2575b9185939183600080516020612f038339815191529760809795528a835281812085825283522061233c8d8254611c36565b90558a5193845283015288820152886060820152a16033541691823b1561079d578451631452b9d760e11b81526001600160a01b0392831691810191825291909316602084015260408301859052949593949391829185918290849082906060016121bf565b859150526006815280898d2054101561243757838c5260068152888c20805490600160401b82101561242457918a8e6124178c6123f98660809a986001600080516020612f038339815191529d9b99018155611a6f565b90919060018060a01b038084549260031b9316831b921b1916179055565b919395509193955061230b565b634e487b7160e01b8e526041895260248efd5b8660a4918a519162461bcd60e51b8352820152605060248201527f53747261746567794d616e616765722e5f6164645368617265733a206465706f60448201527f73697420776f756c6420657863656564204d41585f5354414b45525f5354524160648201526f0a88a8eb2be9892a6a8be988a9c8ea8960831b6084820152fd5b866084918a519162461bcd60e51b8352820152603660248201527f53747261746567794d616e616765722e5f6164645368617265733a207368617260448201527565732073686f756c64206e6f74206265207a65726f2160501b6064820152fd5b866084918a519162461bcd60e51b8352820152603960248201527f53747261746567794d616e616765722e5f6164645368617265733a207374616b60448201527865722063616e6e6f74206265207a65726f206164647265737360381b6064820152fd5b9098508281813d83116125a9575b61259581836118ff565b810103126125a5575197386122e0565b8a80fd5b503d61258b565b88513d8d823e3d90fd5b60a49086519062461bcd60e51b82526004820152604260248201527f53747261746567794d616e616765722e5f6465706f736974455448496e746f5360448201527f747261746567793a2073656e642065746820746f2073747261746567792066616064820152611a5b60f21b6084820152fd5b3d15612659573d9061263f82611920565b9161264d60405193846118ff565b82523d6000602084013e565b606090565b907f77d930df4937793473a95024d87a98fd2ccb9e92d3c2463b3dacd65d3e6a5786604080519360018060a01b031692838552151593846020820152a1600052600b60205260406000209060ff80198354169116179055565b600080516020612ee3833981519152546001600160a01b031633036126d857565b60405163118cdaa760e01b8152336004820152602490fd5b600080516020612ee383398151915280546001600160a01b039283166001600160a01b0319821681179092559091167f8be0079c531659141344cd1fd0a4f28419497f9722a3daafe3b4186f6b6457e0600080a3565b821561298e5760018060a01b038091166000938185526004916020908382526040928584892097169687895283528388205480821161292f57828952858452848920888a528452818103858a2055146127a25750505050505090565b9091929395948186526006808452848720549187915b83831061288b575b505014612811579060069185525282209182549182156127fe57505060001901916127eb8383611a6f565b909182549160031b1b1916905555600190565b634e487b7160e01b825260319052602490fd5b50905162461bcd60e51b815291820152604960248201527f53747261746567794d616e616765722e5f72656d6f766553747261746567794660448201527f726f6d5374616b657253747261746567794c6973743a207374726174656779206064820152681b9bdd08199bdd5b9960ba1b608482015260a490fd5b909897969594939291838852818552888a6128a883898c20611a6f565b929054600393841b1c16146128cb575060010198909891929394959697986127b8565b9092938881969798999a9b5052818652868920805490600019820191821161291c57916128fd8c926129159594611a6f565b9054911b1c1690858a5286526123f983888b20611a6f565b38806127c0565b634e487b7160e01b8b5260118a5260248bfd5b845162461bcd60e51b8152808701859052603360248201527f53747261746567794d616e616765722e5f72656d6f76655368617265733a20736044820152720d0c2e4ca82dadeeadce840e8dede40d0d2ced606b1b6064820152608490fd5b60405162461bcd60e51b815260206004820152603e60248201527f53747261746567794d616e616765722e5f72656d6f76655368617265733a207360448201527f68617265416d6f756e742073686f756c64206e6f74206265207a65726f2100006064820152608490fd5b6001600160a01b0394939085169290918315612bef578215612b8b57600095848752602090600482526040928389209482811695868b528452848a205415612a8a575b5090839291879695948a608099600080516020612f038339815191529b9c5260048552818120878252855220612a73878254611c36565b9055835196875216908501528301526060820152a1565b878a526006845283858b20541015612b0857878a5260068452848a20805490600160401b821015612af4579a612ae487969594936123f984600080516020612f038339815191529e9f600160809f9e9d9c97018155611a6f565b9a99505090919293949596612a3c565b634e487b7160e01b8c52604160045260248cfd5b845162461bcd60e51b815260048101859052605060248201527f53747261746567794d616e616765722e5f6164645368617265733a206465706f60448201527f73697420776f756c6420657863656564204d41585f5354414b45525f5354524160648201526f0a88a8eb2be9892a6a8be988a9c8ea8960831b608482015260a490fd5b60405162461bcd60e51b815260206004820152603660248201527f53747261746567794d616e616765722e5f6164645368617265733a207368617260448201527565732073686f756c64206e6f74206265207a65726f2160501b6064820152608490fd5b60405162461bcd60e51b815260206004820152603960248201527f53747261746567794d616e616765722e5f6164645368617265733a207374616b60448201527865722063616e6e6f74206265207a65726f206164647265737360381b6064820152608490fd5b6002547f4264275e593955ff9d6146a51a4525f6ddace2e81db9391abcc9d1ca48047d29604060018060a01b0381519481851686521693846020820152a16001600160a01b03191617600255565b67446170704c696e6b60c01b6020604051612cbe816118c9565b60088152015260405160208101907f8cad95687ba82c2ce50e74f7b754645e5117c3a5bec8151c0726d5857980a86682527fdadb978fc98e6e975439bb996be670dd8e228496518e61b3cb48e91f9251c40d604082015246606082015230608082015260808152611d65816118e4565b8151919060418303612d5f57612d5892506020820151906060604084015193015160001a90612def565b9192909190565b505060009160029190565b6004811015612dd95780612d7c575050565b60018103612d965760405163f645eedf60e01b8152600490fd5b60028103612db75760405163fce698f760e01b815260048101839052602490fd5b600314612dc15750565b602490604051906335e2f38360e21b82526004820152fd5b634e487b7160e01b600052602160045260246000fd5b91907f7fffffffffffffffffffffffffffffff5d576e7357a4501ddfe92f46681b20a08411612e7357926020929160ff608095604051948552168484015260408301526060820152600092839182805260015afa15612e675780516001600160a01b03811615612e5e57918190565b50809160019190565b604051903d90823e3d90fd5b50505060009160039190565b90612ea65750805115612e9457805190602001fd5b604051630a12f52160e11b8152600490fd5b81511580612ed9575b612eb7575090565b604051639996b31560e01b81526001600160a01b039091166004820152602490fd5b50803b15612eaf56fe9016d09d72d40fdae2fd8ceac6b6234c7706214fd39c1cd1e609a0528c1993007cfff908a4b583f36430b25d75964c458d8ede8a99bd61be750e97ee1b2f3a96a2646970667358221220975f0241b71eddafc1ca430aeb54d9bbb5bd79bba805bf9575122a0e2e61995d64736f6c63430008180033","linkReferences":{}},"methodIdentifiers":{"DEPOSIT_TYPEHASH()":"48825e94","DOMAIN_TYPEHASH()":"20606b70","addShares(address,address,address,uint256)":"c4623ea1","addStrategiesToDepositWhitelist(address[],bool[])":"df5b3547","calculateWithdrawalRoot((address[],uint256[],address,(address,uint96),uint32,address))":"b43b514b","delegation()":"df5cf723","depositETHIntoStrategy(address,uint256)":"422e73e5","depositETHIntoStrategyWithSignature(address,uint256,address,uint256,bytes)":"cbc336c2","depositWETHIntoStrategy(address,address,uint256)":"72e80be6","depositWETHIntoStrategyWithSignature(address,address,uint256,address,uint256,bytes)":"0891e0ed","domainSeparator()":"f698da25","getDeposits(address)":"94f649dd","initialize(address,address,address,address,address,address)":"cc2a9a5b","migrateQueuedWithdrawal((address[],uint256[],address,(address,uint96),uint32,address))":"cd293f6f","migrateRelatedL1StakerShares(address,address,uint256)":"6c962dcf","nonces(address)":"7ecebe00","owner()":"8da5cb5b","pauser()":"9fd0506d","relayer()":"8406c079","removeShares(address,address,uint256)":"8c80d4e5","removeStrategiesFromDepositWhitelist(address[])":"b5d8b5b8","renounceOwnership()":"715018a6","setStrategyWhitelister(address)":"c6656702","setThirdPartyTransfersForbidden(address,bool)":"4e5a4263","slasher()":"b1344271","stakerStrategyL1BackShares(address,address)":"fd769186","stakerStrategyList(address,uint256)":"cbc2bd62","stakerStrategyListLength(address)":"8b8aac3c","stakerStrategyShares(address,address)":"7a7e0d92","strategyIsWhitelistedForDeposit(address)":"663c1de4","strategyWhitelister()":"967fc0d2","thirdPartyTransfersForbidden(address)":"9b4da03d","transferOwnership(address)":"f2fde38b","withdrawSharesAsWeth(address,address,uint256,address)":"e10456fe","withdrawalRootPending(bytes32)":"c3c6b3a9"},"id":69}