{"abi":[{"type":"constructor","inputs":[],"stateMutability":"nonpayable"},{"type":"function","name":"DEPOSIT_TYPEHASH","inputs":[],"outputs":[{"name":"","type":"bytes32","internalType":"bytes32"}],"stateMutability":"view"},{"type":"function","name":"DOMAIN_TYPEHASH","inputs":[],"outputs":[{"name":"","type":"bytes32","internalType":"bytes32"}],"stateMutability":"view"},{"type":"function","name":"addShares","inputs":[{"name":"staker","type":"address","internalType":"address"},{"name":"weth","type":"address","internalType":"contract IERC20"},{"name":"strategy","type":"address","internalType":"contract IStrategy"},{"name":"shares","type":"uint256","internalType":"uint256"}],"outputs":[],"stateMutability":"nonpayable"},{"type":"function","name":"addStrategiesToDepositWhitelist","inputs":[{"name":"strategiesToWhitelist","type":"address[]","internalType":"contract IStrategy[]"},{"name":"thirdPartyTransfersForbiddenValues","type":"bool[]","internalType":"bool[]"}],"outputs":[],"stateMutability":"nonpayable"},{"type":"function","name":"calculateWithdrawalRoot","inputs":[{"name":"queuedWithdrawal","type":"tuple","internalType":"struct IStrategyManager.DeprecatedStruct_QueuedWithdrawal","components":[{"name":"strategies","type":"address[]","internalType":"contract IStrategy[]"},{"name":"shares","type":"uint256[]","internalType":"uint256[]"},{"name":"staker","type":"address","internalType":"address"},{"name":"withdrawerAndNonce","type":"tuple","internalType":"struct IStrategyManager.DeprecatedStruct_WithdrawerAndNonce","components":[{"name":"withdrawer","type":"address","internalType":"address"},{"name":"nonce","type":"uint96","internalType":"uint96"}]},{"name":"withdrawalStartBlock","type":"uint32","internalType":"uint32"},{"name":"delegatedAddress","type":"address","internalType":"address"}]}],"outputs":[{"name":"","type":"bytes32","internalType":"bytes32"}],"stateMutability":"pure"},{"type":"function","name":"delegation","inputs":[],"outputs":[{"name":"","type":"address","internalType":"contract IDelegationManager"}],"stateMutability":"view"},{"type":"function","name":"depositETHIntoStrategy","inputs":[{"name":"strategy","type":"address","internalType":"contract IStrategy"}],"outputs":[{"name":"shares","type":"uint256","internalType":"uint256"}],"stateMutability":"payable"},{"type":"function","name":"depositETHIntoStrategyWithSignature","inputs":[{"name":"strategy","type":"address","internalType":"contract IStrategy"},{"name":"amount","type":"uint256","internalType":"uint256"},{"name":"staker","type":"address","internalType":"address"},{"name":"expiry","type":"uint256","internalType":"uint256"},{"name":"signature","type":"bytes","internalType":"bytes"}],"outputs":[{"name":"shares","type":"uint256","internalType":"uint256"}],"stateMutability":"nonpayable"},{"type":"function","name":"depositWETHIntoStrategy","inputs":[{"name":"strategy","type":"address","internalType":"contract IStrategy"},{"name":"weth","type":"address","internalType":"contract IERC20"},{"name":"amount","type":"uint256","internalType":"uint256"}],"outputs":[{"name":"shares","type":"uint256","internalType":"uint256"}],"stateMutability":"nonpayable"},{"type":"function","name":"depositWETHIntoStrategyWithSignature","inputs":[{"name":"strategy","type":"address","internalType":"contract IStrategy"},{"name":"weth","type":"address","internalType":"contract IERC20"},{"name":"amount","type":"uint256","internalType":"uint256"},{"name":"staker","type":"address","internalType":"address"},{"name":"expiry","type":"uint256","internalType":"uint256"},{"name":"signature","type":"bytes","internalType":"bytes"}],"outputs":[{"name":"shares","type":"uint256","internalType":"uint256"}],"stateMutability":"nonpayable"},{"type":"function","name":"domainSeparator","inputs":[],"outputs":[{"name":"","type":"bytes32","internalType":"bytes32"}],"stateMutability":"view"},{"type":"function","name":"getDeposits","inputs":[{"name":"staker","type":"address","internalType":"address"}],"outputs":[{"name":"","type":"address[]","internalType":"contract IStrategy[]"},{"name":"","type":"uint256[]","internalType":"uint256[]"}],"stateMutability":"view"},{"type":"function","name":"initialize","inputs":[{"name":"initialOwner","type":"address","internalType":"address"},{"name":"initialStrategyWhitelister","type":"address","internalType":"address"},{"name":"_relayer","type":"address","internalType":"address"},{"name":"_delegation","type":"address","internalType":"contract IDelegationManager"},{"name":"_slasher","type":"address","internalType":"contract ISlashManager"},{"name":"_pauser","type":"address","internalType":"contract IL2Pauser"}],"outputs":[],"stateMutability":"nonpayable"},{"type":"function","name":"migrateQueuedWithdrawal","inputs":[{"name":"queuedWithdrawal","type":"tuple","internalType":"struct IStrategyManager.DeprecatedStruct_QueuedWithdrawal","components":[{"name":"strategies","type":"address[]","internalType":"contract IStrategy[]"},{"name":"shares","type":"uint256[]","internalType":"uint256[]"},{"name":"staker","type":"address","internalType":"address"},{"name":"withdrawerAndNonce","type":"tuple","internalType":"struct IStrategyManager.DeprecatedStruct_WithdrawerAndNonce","components":[{"name":"withdrawer","type":"address","internalType":"address"},{"name":"nonce","type":"uint96","internalType":"uint96"}]},{"name":"withdrawalStartBlock","type":"uint32","internalType":"uint32"},{"name":"delegatedAddress","type":"address","internalType":"address"}]}],"outputs":[{"name":"","type":"bool","internalType":"bool"},{"name":"","type":"bytes32","internalType":"bytes32"}],"stateMutability":"nonpayable"},{"type":"function","name":"migrateRelatedL1StakerShares","inputs":[{"name":"staker","type":"address","internalType":"address"},{"name":"strategy","type":"address","internalType":"contract IStrategy"},{"name":"shares","type":"uint256","internalType":"uint256"}],"outputs":[{"name":"","type":"bool","internalType":"bool"}],"stateMutability":"nonpayable"},{"type":"function","name":"nonces","inputs":[{"name":"","type":"address","internalType":"address"}],"outputs":[{"name":"","type":"uint256","internalType":"uint256"}],"stateMutability":"view"},{"type":"function","name":"owner","inputs":[],"outputs":[{"name":"","type":"address","internalType":"address"}],"stateMutability":"view"},{"type":"function","name":"pauser","inputs":[],"outputs":[{"name":"","type":"address","internalType":"contract IL2Pauser"}],"stateMutability":"view"},{"type":"function","name":"relayer","inputs":[],"outputs":[{"name":"","type":"address","internalType":"address"}],"stateMutability":"view"},{"type":"function","name":"removeShares","inputs":[{"name":"staker","type":"address","internalType":"address"},{"name":"strategy","type":"address","internalType":"contract IStrategy"},{"name":"shares","type":"uint256","internalType":"uint256"}],"outputs":[],"stateMutability":"nonpayable"},{"type":"function","name":"removeStrategiesFromDepositWhitelist","inputs":[{"name":"strategiesToRemoveFromWhitelist","type":"address[]","internalType":"contract IStrategy[]"}],"outputs":[],"stateMutability":"nonpayable"},{"type":"function","name":"renounceOwnership","inputs":[],"outputs":[],"stateMutability":"nonpayable"},{"type":"function","name":"setStrategyWhitelister","inputs":[{"name":"newStrategyWhitelister","type":"address","internalType":"address"}],"outputs":[],"stateMutability":"nonpayable"},{"type":"function","name":"setThirdPartyTransfersForbidden","inputs":[{"name":"strategy","type":"address","internalType":"contract IStrategy"},{"name":"value","type":"bool","internalType":"bool"}],"outputs":[],"stateMutability":"nonpayable"},{"type":"function","name":"slasher","inputs":[],"outputs":[{"name":"","type":"address","internalType":"contract ISlashManager"}],"stateMutability":"view"},{"type":"function","name":"stakerStrategyL1BackShares","inputs":[{"name":"","type":"address","internalType":"address"},{"name":"","type":"address","internalType":"contract IStrategy"}],"outputs":[{"name":"","type":"uint256","internalType":"uint256"}],"stateMutability":"view"},{"type":"function","name":"stakerStrategyList","inputs":[{"name":"","type":"address","internalType":"address"},{"name":"","type":"uint256","internalType":"uint256"}],"outputs":[{"name":"","type":"address","internalType":"contract IStrategy"}],"stateMutability":"view"},{"type":"function","name":"stakerStrategyListLength","inputs":[{"name":"staker","type":"address","internalType":"address"}],"outputs":[{"name":"","type":"uint256","internalType":"uint256"}],"stateMutability":"view"},{"type":"function","name":"stakerStrategyShares","inputs":[{"name":"","type":"address","internalType":"address"},{"name":"","type":"address","internalType":"contract IStrategy"}],"outputs":[{"name":"","type":"uint256","internalType":"uint256"}],"stateMutability":"view"},{"type":"function","name":"strategyIsWhitelistedForDeposit","inputs":[{"name":"","type":"address","internalType":"contract IStrategy"}],"outputs":[{"name":"","type":"bool","internalType":"bool"}],"stateMutability":"view"},{"type":"function","name":"strategyWhitelister","inputs":[],"outputs":[{"name":"","type":"address","internalType":"address"}],"stateMutability":"view"},{"type":"function","name":"thirdPartyTransfersForbidden","inputs":[{"name":"","type":"address","internalType":"contract IStrategy"}],"outputs":[{"name":"","type":"bool","internalType":"bool"}],"stateMutability":"view"},{"type":"function","name":"transferOwnership","inputs":[{"name":"newOwner","type":"address","internalType":"address"}],"outputs":[],"stateMutability":"nonpayable"},{"type":"function","name":"withdrawSharesAsWeth","inputs":[{"name":"recipient","type":"address","internalType":"address"},{"name":"strategy","type":"address","internalType":"contract IStrategy"},{"name":"shares","type":"uint256","internalType":"uint256"},{"name":"weth","type":"address","internalType":"contract IERC20"}],"outputs":[],"stateMutability":"nonpayable"},{"type":"function","name":"withdrawalRootPending","inputs":[{"name":"","type":"bytes32","internalType":"bytes32"}],"outputs":[{"name":"","type":"bool","internalType":"bool"}],"stateMutability":"view"},{"type":"event","name":"Deposit","inputs":[{"name":"staker","type":"address","indexed":false,"internalType":"address"},{"name":"weth","type":"address","indexed":false,"internalType":"contract IERC20"},{"name":"strategy","type":"address","indexed":false,"internalType":"contract IStrategy"},{"name":"shares","type":"uint256","indexed":false,"internalType":"uint256"}],"anonymous":false},{"type":"event","name":"Initialized","inputs":[{"name":"version","type":"uint64","indexed":false,"internalType":"uint64"}],"anonymous":false},{"type":"event","name":"MigrateRelatedL1StakerShares","inputs":[{"name":"staker","type":"address","indexed":false,"internalType":"address"},{"name":"strategy","type":"address","indexed":false,"internalType":"contract IStrategy"},{"name":"shares","type":"uint256","indexed":false,"internalType":"uint256"}],"anonymous":false},{"type":"event","name":"OwnershipTransferred","inputs":[{"name":"previousOwner","type":"address","indexed":true,"internalType":"address"},{"name":"newOwner","type":"address","indexed":true,"internalType":"address"}],"anonymous":false},{"type":"event","name":"StrategyAddedToDepositWhitelist","inputs":[{"name":"strategy","type":"address","indexed":false,"internalType":"contract IStrategy"}],"anonymous":false},{"type":"event","name":"StrategyRemovedFromDepositWhitelist","inputs":[{"name":"strategy","type":"address","indexed":false,"internalType":"contract IStrategy"}],"anonymous":false},{"type":"event","name":"StrategyWhitelisterChanged","inputs":[{"name":"previousAddress","type":"address","indexed":false,"internalType":"address"},{"name":"newAddress","type":"address","indexed":false,"internalType":"address"}],"anonymous":false},{"type":"event","name":"UpdatedThirdPartyTransfersForbidden","inputs":[{"name":"strategy","type":"address","indexed":false,"internalType":"contract IStrategy"},{"name":"value","type":"bool","indexed":false,"internalType":"bool"}],"anonymous":false},{"type":"error","name":"AddressEmptyCode","inputs":[{"name":"target","type":"address","internalType":"address"}]},{"type":"error","name":"AddressInsufficientBalance","inputs":[{"name":"account","type":"address","internalType":"address"}]},{"type":"error","name":"ECDSAInvalidSignature","inputs":[]},{"type":"error","name":"ECDSAInvalidSignatureLength","inputs":[{"name":"length","type":"uint256","internalType":"uint256"}]},{"type":"error","name":"ECDSAInvalidSignatureS","inputs":[{"name":"s","type":"bytes32","internalType":"bytes32"}]},{"type":"error","name":"FailedInnerCall","inputs":[]},{"type":"error","name":"InvalidInitialization","inputs":[]},{"type":"error","name":"NotInitializing","inputs":[]},{"type":"error","name":"OwnableInvalidOwner","inputs":[{"name":"owner","type":"address","internalType":"address"}]},{"type":"error","name":"OwnableUnauthorizedAccount","inputs":[{"name":"account","type":"address","internalType":"address"}]},{"type":"error","name":"ReentrancyGuardReentrantCall","inputs":[]},{"type":"error","name":"SafeERC20FailedOperation","inputs":[{"name":"token","type":"address","internalType":"address"}]}],"bytecode":{"object":"0x60a080604052346100c6577ff0c57e16840df040f15088dc2f81fe391c3923bec73e23a9662efc9c229c6a009081549060ff8260401c166100b757506001600160401b036002600160401b031982821601610072575b46608052604051612f519081620000cc823960805181611d370152f35b6001600160401b031990911681179091556040519081527fc7f505b2f371ae2175ee4913f4499e1f2633a7b5936321eed1cdaeb6115181d290602090a1388080610055565b63f92ee8a960e01b8152600490fd5b600080fdfe6040608081526004908136101561001557600080fd5b600091823560e01c9081630891e0ed146113f157816320606b70146113b657816348825e941461137b5781634e5a426314611338578163663c1de4146112fa5781636c962dcf1461120e578163715018a6146111a457816372e80be6146110a45781637a7e0d921461105b5781637ecebe00146110235781638406c07914610ffa5781638b8aac3c14610fc25781638c80d4e514610f915781638da5cb5b14610f5b57816394f649dd14610e255781639573ddbb14610d3c578163967fc0d214610d135781639b4da03d14610cd55781639fd0506d14610cac578163b134427114610c83578163b43b514b14610c6d578163b5d8b5b814610b32578163c3c6b3a914610b05578163c4623ea114610ab9578163c665670214610a94578163cbc2bd6214610a3b578163cbc336c2146107d1578163cc2a9a5b1461061b578163cd293f6f146105b4578163df5b3547146103ee578163df5cf723146103c5578163e10456fe14610271578163f2fde38b1461021757508063f698da25146101f45763fd769186146101a457600080fd5b346101f057806003193601126101f0576020916101bf611622565b826101c861163d565b6001600160a01b03928316845260058652922091166000908152908352819020549051908152f35b5080fd5b50346101f057816003193601126101f057602090610210611d34565b9051908152f35b90503461026d57602036600319011261026d57610232611622565b9161023b6122a6565b6001600160a01b038316156102575783610254846122df565b80f35b51631e4fbdf760e01b8152908101839052602490fd5b8280fd5b9190503461026d57608036600319011261026d5761028d611622565b9161029661163d565b90604435906102a361167d565b9460018060a01b0380916102bc82603354163314611bfe565b169384885260056020528186892091169081895260205283868920540361033657908188959493923b156103325760649386928851998a978896636ce5768960e11b885287015216602485015260448401525af19081156103295750610320575080f35b61025490611693565b513d84823e3d90fd5b8580fd5b855162461bcd60e51b8152602081850152605c60248201527f53747261746567794d616e616765722e7769746864726177536861726573417360448201527f576574683a20546865204c6179657231206f662044455448206861736e27742060648201527f6265656e20636f6d706c6574656c792072656c65617365642079657400000000608482015260a490fd5b5050346101f057816003193601126101f05760335490516001600160a01b039091168152602090f35b90503461026d578160031936011261026d576001600160401b0381358181116105b05761041e90369084016119e4565b90916024359081116103325761043790369085016119e4565b92909360018060a01b039061045182600254163314611b5d565b8484036105335750865b838110610466578780f35b8161047a610475838787611d10565b611d20565b168852600960209080825260ff898b2054161561049c575b505060010161045b565b907f0c35b17d91c96eb2751cd456e1252f42a386e524ef9ff26ecc9950859fdc04fe91846104ce610475868a8a611d10565b168b528152888a20805460ff191660011790556104ef610475848888611d10565b848a5191168152a1610505610475828686611d10565b90610511818789611d10565b3591821515830361052f576001926105289161224d565b9038610492565b8980fd5b60a490602088519162461bcd60e51b8352820152604b60248201527f53747261746567794d616e616765722e61646453747261746567696573546f4460448201527f65706f73697457686974656c6973743a206172726179206c656e67746873206460648201526a0de40dcdee840dac2e8c6d60ab1b6084820152fd5b8480fd5b828434610618576105e16105c736611832565b6105dc60018060a01b03603354163314611bfe565b611c6f565b8282828152600760205220805460ff8116610607575b5050825191151582526020820152f35b60ff191690556001915083806105f7565b80fd5b90503461026d5760c036600319011261026d57610636611622565b9061063f61163d565b610647611653565b6064356001600160a01b03818116939092918490036107cd576084358381168091036107c95760a4359184831680930361052f577ff0c57e16840df040f15088dc2f81fe391c3923bec73e23a9662efc9c229c6a0097885460ff818c1c1615986001600160401b038216801590816107c1575b60011490816107b7575b1590816107ae575b506107a0575067ffffffffffffffff1981166001178a556107079291610702918a610781575b506106fb612c9d565b8d556122df565b612c4f565b6001600160601b0360a01b9485603354161760335584603454161760345583603554161760355516906036541617603655610740578280f35b805468ff00000000000000001916905551600181527fc7f505b2f371ae2175ee4913f4499e1f2633a7b5936321eed1cdaeb6115181d290602090a138808280f35b68ffffffffffffffffff191668010000000000000001178b55386106f2565b8b5163f92ee8a960e01b8152fd5b905015386106cc565b303b1591506106c4565b8b91506106ba565b8880fd5b8780fd5b8383346101f05760a03660031901126101f0576107ec611622565b6107f4611653565b6001600160401b039360643560843586811161026d57610817903690890161172e565b91610820611d6c565b6035548651631c187a5960e11b8152602098916001600160a01b0391908a9082908d90829086165afa908115610a31578491610a04575b501561099b5780871690818452600b8a5261087860ff8a8620541615611a5a565b61088442861015611adf565b86169384845260018a5288842054928951918b8301937fc30199eab143dcbbc0ef8cbfd8b775cd4bca1eb79e78a127fe762ed2304163458552878c850152606084015260243560808401528460a084015260c083015260c0825260e0820190828210908211176109885789525190209282526001808952918790209101905561095d9392916109589161094161094f61091b611d34565b9289519283918c83019586909160429261190160f01b8352600283015260228201520190565b03601f1981018352826116f2565b51902083611dae565b612606565b9060017f9b779b17422d0df92223018b32b4d1fa46e071723d6817e2486d003becc55f005551908152f35b634e487b7160e01b855260418c52602485fd5b875162461bcd60e51b8152808b018a9052603a60248201527f53747261746567794d616e616765723a6465706f736974455448496e746f537460448201527f726174656779576974685369676e6174757265207061757365640000000000006064820152608490fd5b610a2491508a3d8c11610a2a575b610a1c81836116f2565b810190611a42565b8b610857565b503d610a12565b89513d86823e3d90fd5b5050346101f057806003193601126101f057610a55611622565b6001600160a01b0390811683526006602052818320805460243594908510156106185750602093610a8591611a14565b92905490519260031b1c168152f35b833461061857602036600319011261061857610254610ab1611622565b6107026122a6565b833461061857608036600319011261061857610254610ad6611622565b610ade61163d565b610ae6611653565b90610afc60018060a01b03603354163314611bfe565b606435926129f2565b90503461026d57602036600319011261026d578160209360ff923581526007855220541690519015158152f35b9190503461026d5760209182600319360112610c69578035906001600160401b0382116105b057610b65913691016119e4565b6002546001600160a01b039492939290610b829086163314611b5d565b855b828110610b8f578680f35b8086610ba1610475600194878a611d10565b168852600980845260ff868a205416610bbc575b5001610b84565b87610bcb61047584888b611d10565b168952835284882060ff19908181541690557f4074413b4b443e4e58019f2855a8765113358c7c72e39509c6af45fc0f5ba03084610c0d61047585898c611d10565b8a895191168152a1610c2361047583878a611d10565b7f77d930df4937793473a95024d87a98fd2ccb9e92d3c2463b3dacd65d3e6a5786878a81519316928381528c88820152a18952600b845285892090815416905538610bb5565b8380fd5b5050346101f0576020906102106105dc36611832565b5050346101f057816003193601126101f05760345490516001600160a01b039091168152602090f35b5050346101f057816003193601126101f05760355490516001600160a01b039091168152602090f35b5050346101f05760203660031901126101f05760209160ff9082906001600160a01b03610d00611622565b168152600b855220541690519015158152f35b5050346101f057816003193601126101f05760025490516001600160a01b039091168152602090f35b8284602092836003193601126101f057610d54611622565b91610d5d611d6c565b6035548451631c187a5960e11b81529086908290859082906001600160a01b03165afa918215610e1a5791610dfd575b5015610d9e575061095d9033612606565b825162461bcd60e51b8152908101849052603360248201527f53747261746567794d616e616765722e742e736f6c3a6465706f736974455448604482015272125b9d1bd4dd1c985d1959de481c185d5cd959606a1b6064820152608490fd5b610e149150853d8711610a2a57610a1c81836116f2565b85610d8d565b8551903d90823e3d90fd5b8383346101f05760208060031936011261026d576001600160a01b039384610e4b611622565b168085526006916006845284862054610e638161181b565b93610e70875195866116f2565b818552601f19610e7f8361181b565b013687870137875b828110610f04575050505084526006825282842094835194858488549182815201978252848220915b818110610eee578787610eea8888610eca858f03866116f2565b610edd84519585879687528601906117aa565b91848303908501526117e7565b0390f35b8254841689529785019760019283019201610eb0565b8489528387528789208288528a610f1d838b8d20611a14565b90549060031b1c168a528752878920548651821015610f4857600582901b8701880152600101610e87565b634e487b7160e01b8a526032855260248afd5b5050346101f057816003193601126101f057600080516020612edc8339815191525490516001600160a01b039091168152602090f35b833461061857610fbe610fa336611775565b91610fb960018060a01b03603354163314611bfe565b612335565b5080f35b5050346101f05760203660031901126101f05760209181906001600160a01b03610fea611622565b1681526006845220549051908152f35b5050346101f057816003193601126101f05760365490516001600160a01b039091168152602090f35b5050346101f05760203660031901126101f05760209181906001600160a01b0361104b611622565b1681526001845220549051908152f35b90503461026d578160031936011261026d57602092829161107a611622565b61108261163d565b6001600160a01b03918216845291865283832091168252845220549051908152f35b90508234610618576060366003190112610618576110c0611622565b916110c961163d565b916110d2611d6c565b6035548551631c187a5960e11b8152906020908290859082906001600160a01b03165afa918215611199579161117a575b501561111a5760208461095d6044358587336120a0565b608490602085519162461bcd60e51b8352820152603460248201527f53747261746567794d616e616765722e742e736f6c3a6465706f73697457455460448201527312125b9d1bd4dd1c985d1959de481c185d5cd95960621b6064820152fd5b611193915060203d602011610a2a57610a1c81836116f2565b85611103565b8651903d90823e3d90fd5b83346106185780600319360112610618576111bd6122a6565b600080516020612edc83398151915280546001600160a01b0319811690915581906001600160a01b03167f8be0079c531659141344cd1fd0a4f28419497f9722a3daafe3b4186f6b6457e08280a380f35b905082346106185761121f36611775565b9192909360018060a01b0390816036541633036112b7576020877f4be54f6b51e6829ea7a071c004f5b4169272ef6b0ff1a397e9af9f81a2120c1888886112ad89858a8a808616825260058a528282209087168252895220611282828254611bdb565b905585516001600160a01b039384168152939092166020840152604083019190915281906060820190565b0390a15160018152f35b606490602088519162461bcd60e51b8352820152601b60248201527f53747261746567794d616e616765722e6f6e6c7952656c6179657200000000006044820152fd5b5050346101f05760203660031901126101f05760209160ff9082906001600160a01b03611325611622565b1681526009855220541690519015158152f35b5050346101f05736600319011261061857611351611622565b602435801515810361026d576102549161137660018060a01b03600254163314611b5d565b61224d565b5050346101f057816003193601126101f057602090517fc30199eab143dcbbc0ef8cbfd8b775cd4bca1eb79e78a127fe762ed2304163458152f35b5050346101f057816003193601126101f057602090517f8cad95687ba82c2ce50e74f7b754645e5117c3a5bec8151c0726d5857980a8668152f35b8383346101f05760c03660031901126101f05761140c611622565b61141461163d565b6044359161142061167d565b6001600160401b039560843560a43588811161026d576114439036908b0161172e565b9161144c611d6c565b6035548851631c187a5960e11b815260209a6001600160a01b0394929091908c9082908f90829089165afa9081156116185784916115fb575b5015611592578a8a9185891693848652600b83526114a960ff858820541615611a5a565b6114b542821015611adf565b86891696878752600184528487205495888651958601967fc30199eab143dcbbc0ef8cbfd8b775cd4bca1eb79e78a127fe762ed230416345885286015260608501528b1660808401528b60a08401528460c084015260e083015260e082526101008201908282109082111761157e578b525190209282526001808b52918990209101905561095d95949392916115799161154d611d34565b895161190160f01b818d01908152600281019290925260228201929092529061094f8160428401610941565b6120a0565b50634e487b7160e01b845260418d52602484fd5b895162461bcd60e51b8152808d018c9052603b60248201527f53747261746567794d616e616765723a6465706f73697457455448496e746f5360448201527f74726174656779576974685369676e61747572652070617573656400000000006064820152608490fd5b61161291508c8d3d10610a2a57610a1c81836116f2565b8d611485565b8b513d86823e3d90fd5b600435906001600160a01b038216820361163857565b600080fd5b602435906001600160a01b038216820361163857565b604435906001600160a01b038216820361163857565b35906001600160a01b038216820361163857565b606435906001600160a01b038216820361163857565b6001600160401b0381116116a657604052565b634e487b7160e01b600052604160045260246000fd5b604081019081106001600160401b038211176116a657604052565b60a081019081106001600160401b038211176116a657604052565b90601f801991011681019081106001600160401b038211176116a657604052565b6001600160401b0381116116a657601f01601f191660200190565b81601f820112156116385780359061174582611713565b9261175360405194856116f2565b8284526020838301011161163857816000926020809301838601378301015290565b6060906003190112611638576001600160a01b0390600435828116810361163857916024359081168103611638579060443590565b90815180825260208080930193019160005b8281106117ca575050505090565b83516001600160a01b0316855293810193928101926001016117bc565b90815180825260208080930193019160005b828110611807575050505090565b8351855293810193928101926001016117f9565b6001600160401b0381116116a65760051b60200190565b600319906020828201811361163857600435916001600160401b03938484116116385760e0848303918201126116385760409182519560c08701878110828211176116a6578452856004013581811161163857860182602382011215611638576004810135906118a18261181b565b916118ae875193846116f2565b80835260248884019160051b83010191858311611638576024899101915b8383106119cc57505050508752602486013590811161163857850190806023830112156116385760048201356119018161181b565b9261190e865194856116f2565b81845260248785019260051b8201019283116116385790866024879695949301915b8383106119b9575091505087015261194a60448601611669565b868301526063190112611638575190611962826116bc565b61196e60648401611669565b82526084830135906001600160601b038216820361163857820152606083015260a481013563ffffffff811681036116385760808301526119b19060c401611669565b60a082015290565b8235815287965091810191889101611930565b81906119d784611669565b81520191019088906118cc565b9181601f84011215611638578235916001600160401b038311611638576020808501948460051b01011161163857565b8054821015611a2c5760005260206000200190600090565b634e487b7160e01b600052603260045260246000fd5b90816020910312611638575180151581036116385790565b15611a6157565b60405162461bcd60e51b815260206004820152604a60248201527f53747261746567794d616e616765722e6465706f736974496e746f537472617460448201527f656779576974685369676e61747572653a207468697264207472616e736665726064820152691cc8191a5cd8589b195960b21b608482015260a490fd5b15611ae657565b60405162461bcd60e51b815260206004820152604360248201527f53747261746567794d616e616765722e6465706f736974496e746f537472617460448201527f656779576974685369676e61747572653a207369676e617475726520657870696064820152621c995960ea1b608482015260a490fd5b15611b6457565b60a460405162461bcd60e51b815260206004820152604460248201527f53747261746567794d616e616765722e6f6e6c7953747261746567795768697460448201527f656c69737465723a206e6f742074686520737472617465677957686974656c6960648201526339ba32b960e11b6084820152fd5b91908201809211611be857565b634e487b7160e01b600052601160045260246000fd5b15611c0557565b608460405162461bcd60e51b815260206004820152604060248201527f53747261746567794d616e616765722e6f6e6c7944656c65676174696f6e4d6160448201527f6e616765723a206e6f74207468652044656c65676174696f6e4d616e616765726064820152fd5b611ccb611d0a60e092805160208201519160018060a01b0380604083015116916001600160601b03602060608301518460a063ffffffff6080870151169501511694611cde6040519b8c99858b019e8f526101008b01906117aa565b601f199a8b8b83030160408c01526117e7565b966060890152815116608088015201511660a085015260c084015260e0830152039081018352826116f2565b51902090565b9190811015611a2c5760051b0190565b356001600160a01b03811681036116385790565b467f000000000000000000000000000000000000000000000000000000000000000003611d615760005490565b611d69612c9d565b90565b7f9b779b17422d0df92223018b32b4d1fa46e071723d6817e2486d003becc55f006002815414611d9c5760029055565b604051633ee5aeb560e01b8152600490fd5b909190803b15611f1f576040518092630b135d3f60e11b9485835260048301526040602483015280519081604484015260005b828110611f0757505091816064818560008360209884010152601f8019910116810103019160018060a01b03165afa908115611efb57600091611eb8575b506001600160e01b03191603611e3157565b60405162461bcd60e51b815260206004820152605360248201527f454950313237315369676e61747572655574696c732e636865636b5369676e6160448201527f747572655f454950313237313a2045524331323731207369676e6174757265206064820152721d995c9a599a58d85d1a5bdb8819985a5b1959606a1b608482015260a490fd5b6020813d602011611ef3575b81611ed1602093836116f2565b810103126101f05751906001600160e01b031982168203610618575038611e1f565b3d9150611ec4565b6040513d6000823e3d90fd5b60208282018101516064888401015286945001611de1565b90916040519260208401917f19457468657265756d205369676e6564204d6573736167653a0a3332000000008352603c850152603c845260608401918483106001600160401b038411176116a657611f8994611f8093604052519020612d27565b90939193612d63565b6001600160a01b03908116911603611f9d57565b60405162461bcd60e51b815260206004820152604760248201527f454950313237315369676e61747572655574696c732e636865636b5369676e6160448201527f747572655f454950313237313a207369676e6174757265206e6f742066726f6d6064820152661039b4b3b732b960c91b608482015260a490fd5b1561201f57565b60405162461bcd60e51b815260206004820152604d60248201527f53747261746567794d616e616765722e6f6e6c7953747261746567696573576860448201527f6974656c6973746564466f724465706f7369743a207374726174656779206e6f60648201526c1d081dda1a5d195b1a5cdd1959609a1b608482015260a490fd5b6001600160a01b038083166000818152600960209081526040808320549198909792969493916120d29060ff16612018565b875161211e88808c84016323b872dd60e01b815233602486015286604486015285606486015260648552612105856116d7565b88881694519082865af16121176129c2565b9083612e78565b8051908b8215159283612234575b50505061221d579060448a92898b5195869485936311f9fbc960e21b8552600485015260248401525af19788156122135786986121df575b5050868361217292866129f2565b6033541691823b15610c69578451631452b9d760e11b81526001600160a01b039182166004820152911660248201526044810185905292919081908490818381606481015b03925af19182156121d55750506121cc575090565b611d6990611693565b51903d90823e3d90fd5b90809293949850813d831161220c575b6121f981836116f2565b810103126105b057519591908083612164565b503d6121ef565b87513d88823e3d90fd5b602490895190635274afe760e01b82526004820152fd5b6122449350820181019101611a42565b15388b8161212c565b907f77d930df4937793473a95024d87a98fd2ccb9e92d3c2463b3dacd65d3e6a5786604080519360018060a01b031692838552151593846020820152a1600052600b60205260406000209060ff80198354169116179055565b600080516020612edc833981519152546001600160a01b031633036122c757565b60405163118cdaa760e01b8152336004820152602490fd5b600080516020612edc83398151915280546001600160a01b039283166001600160a01b0319821681179092559091167f8be0079c531659141344cd1fd0a4f28419497f9722a3daafe3b4186f6b6457e0600080a3565b821561259b5760018060a01b038091166000938185526004916020908382526040928584892097169687895283528388205480821161253c57828952858452848920888a528452818103858a2055146123915750505050505090565b9091929395948186526006808452848720549187915b83831061247a575b505014612400579060069185525282209182549182156123ed57505060001901916123da8383611a14565b909182549160031b1b1916905555600190565b634e487b7160e01b825260319052602490fd5b50905162461bcd60e51b815291820152604960248201527f53747261746567794d616e616765722e5f72656d6f766553747261746567794660448201527f726f6d5374616b657253747261746567794c6973743a207374726174656779206064820152681b9bdd08199bdd5b9960ba1b608482015260a490fd5b909897969594939291838852818552888a61249783898c20611a14565b929054600393841b1c16146124ba575060010198909891929394959697986123a7565b9092938881969798999a9b5052818652868920805490600019820191821161252957916124ec8c926125229594611a14565b9054911b1c1690858a52865261250483888b20611a14565b90919060018060a01b038084549260031b9316831b921b1916179055565b38806123af565b634e487b7160e01b8b5260118a5260248bfd5b845162461bcd60e51b8152808701859052603360248201527f53747261746567794d616e616765722e5f72656d6f76655368617265733a20736044820152720d0c2e4ca82dadeeadce840e8dede40d0d2ced606b1b6064820152608490fd5b60405162461bcd60e51b815260206004820152603e60248201527f53747261746567794d616e616765722e5f72656d6f76655368617265733a207360448201527f68617265416d6f756e742073686f756c64206e6f74206265207a65726f2100006064820152608490fd5b919060018060a01b03808216916000948386526020926009845260409361263260ff868a205416612018565b87808080348a5af16126426129c2565b501561294e57908792918551966311f9fbc960e21b885273eeeeeeeeeeeeeeeeeeeeeeeeeeeeeeeeeeeeeeee8289604481600499858b830152346024830152865af1988915612944578b99612911575b508385169283156128ad57891561284c57838c52868152888c20838d528152888c8181205415612754575b9185939183600080516020612efc8339815191529760809795528a83528181208582528352206126ee8d8254611bdb565b90558a5193845283015288820152886060820152a16033541691823b156107cd578451631452b9d760e11b81526001600160a01b0392831691810191825291909316602084015260408301859052949593949391829185918290849082906060016121b7565b859150526006815280898d205410156127cb57838c5260068152888c20805490600160401b8210156127b857918a8e6127ab8c6125048660809a986001600080516020612efc8339815191529d9b99018155611a14565b91939550919395506126bd565b634e487b7160e01b8e526041895260248efd5b8660a4918a519162461bcd60e51b8352820152605060248201527f53747261746567794d616e616765722e5f6164645368617265733a206465706f60448201527f73697420776f756c6420657863656564204d41585f5354414b45525f5354524160648201526f0a88a8eb2be9892a6a8be988a9c8ea8960831b6084820152fd5b866084918a519162461bcd60e51b8352820152603660248201527f53747261746567794d616e616765722e5f6164645368617265733a207368617260448201527565732073686f756c64206e6f74206265207a65726f2160501b6064820152fd5b866084918a519162461bcd60e51b8352820152603960248201527f53747261746567794d616e616765722e5f6164645368617265733a207374616b60448201527865722063616e6e6f74206265207a65726f206164647265737360381b6064820152fd5b9098508281813d831161293d575b61292981836116f2565b8101031261293957519738612692565b8a80fd5b503d61291f565b88513d8d823e3d90fd5b60a49085519062461bcd60e51b82526004820152604260248201527f53747261746567794d616e616765722e5f6465706f736974455448496e746f5360448201527f747261746567793a2073656e642065746820746f2073747261746567792066616064820152611a5b60f21b6084820152fd5b3d156129ed573d906129d382611713565b916129e160405193846116f2565b82523d6000602084013e565b606090565b6001600160a01b0394939085169290918315612be8578215612b8457600095848752602090600482526040928389209482811695868b528452848a205415612a83575b5090839291879695948a608099600080516020612efc8339815191529b9c5260048552818120878252855220612a6c878254611bdb565b9055835196875216908501528301526060820152a1565b878a526006845283858b20541015612b0157878a5260068452848a20805490600160401b821015612aed579a612add879695949361250484600080516020612efc8339815191529e9f600160809f9e9d9c97018155611a14565b9a99505090919293949596612a35565b634e487b7160e01b8c52604160045260248cfd5b845162461bcd60e51b815260048101859052605060248201527f53747261746567794d616e616765722e5f6164645368617265733a206465706f60448201527f73697420776f756c6420657863656564204d41585f5354414b45525f5354524160648201526f0a88a8eb2be9892a6a8be988a9c8ea8960831b608482015260a490fd5b60405162461bcd60e51b815260206004820152603660248201527f53747261746567794d616e616765722e5f6164645368617265733a207368617260448201527565732073686f756c64206e6f74206265207a65726f2160501b6064820152608490fd5b60405162461bcd60e51b815260206004820152603960248201527f53747261746567794d616e616765722e5f6164645368617265733a207374616b60448201527865722063616e6e6f74206265207a65726f206164647265737360381b6064820152608490fd5b6002547f4264275e593955ff9d6146a51a4525f6ddace2e81db9391abcc9d1ca48047d29604060018060a01b0381519481851686521693846020820152a16001600160a01b03191617600255565b67446170704c696e6b60c01b6020604051612cb7816116bc565b60088152015260405160208101907f8cad95687ba82c2ce50e74f7b754645e5117c3a5bec8151c0726d5857980a86682527fdadb978fc98e6e975439bb996be670dd8e228496518e61b3cb48e91f9251c40d604082015246606082015230608082015260808152611d0a816116d7565b8151919060418303612d5857612d5192506020820151906060604084015193015160001a90612de8565b9192909190565b505060009160029190565b6004811015612dd25780612d75575050565b60018103612d8f5760405163f645eedf60e01b8152600490fd5b60028103612db05760405163fce698f760e01b815260048101839052602490fd5b600314612dba5750565b602490604051906335e2f38360e21b82526004820152fd5b634e487b7160e01b600052602160045260246000fd5b91907f7fffffffffffffffffffffffffffffff5d576e7357a4501ddfe92f46681b20a08411612e6c57926020929160ff608095604051948552168484015260408301526060820152600092839182805260015afa15612e605780516001600160a01b03811615612e5757918190565b50809160019190565b604051903d90823e3d90fd5b50505060009160039190565b90612e9f5750805115612e8d57805190602001fd5b604051630a12f52160e11b8152600490fd5b81511580612ed2575b612eb0575090565b604051639996b31560e01b81526001600160a01b039091166004820152602490fd5b50803b15612ea856fe9016d09d72d40fdae2fd8ceac6b6234c7706214fd39c1cd1e609a0528c1993007cfff908a4b583f36430b25d75964c458d8ede8a99bd61be750e97ee1b2f3a96a26469706673582212204aba38cd99313dfbd2bc19ce118048a629551975b19c32d5e1cfc246c117aa8964736f6c63430008180033","linkReferences":{}},"methodIdentifiers":{"DEPOSIT_TYPEHASH()":"48825e94","DOMAIN_TYPEHASH()":"20606b70","addShares(address,address,address,uint256)":"c4623ea1","addStrategiesToDepositWhitelist(address[],bool[])":"df5b3547","calculateWithdrawalRoot((address[],uint256[],address,(address,uint96),uint32,address))":"b43b514b","delegation()":"df5cf723","depositETHIntoStrategy(address)":"9573ddbb","depositETHIntoStrategyWithSignature(address,uint256,address,uint256,bytes)":"cbc336c2","depositWETHIntoStrategy(address,address,uint256)":"72e80be6","depositWETHIntoStrategyWithSignature(address,address,uint256,address,uint256,bytes)":"0891e0ed","domainSeparator()":"f698da25","getDeposits(address)":"94f649dd","initialize(address,address,address,address,address,address)":"cc2a9a5b","migrateQueuedWithdrawal((address[],uint256[],address,(address,uint96),uint32,address))":"cd293f6f","migrateRelatedL1StakerShares(address,address,uint256)":"6c962dcf","nonces(address)":"7ecebe00","owner()":"8da5cb5b","pauser()":"9fd0506d","relayer()":"8406c079","removeShares(address,address,uint256)":"8c80d4e5","removeStrategiesFromDepositWhitelist(address[])":"b5d8b5b8","renounceOwnership()":"715018a6","setStrategyWhitelister(address)":"c6656702","setThirdPartyTransfersForbidden(address,bool)":"4e5a4263","slasher()":"b1344271","stakerStrategyL1BackShares(address,address)":"fd769186","stakerStrategyList(address,uint256)":"cbc2bd62","stakerStrategyListLength(address)":"8b8aac3c","stakerStrategyShares(address,address)":"7a7e0d92","strategyIsWhitelistedForDeposit(address)":"663c1de4","strategyWhitelister()":"967fc0d2","thirdPartyTransfersForbidden(address)":"9b4da03d","transferOwnership(address)":"f2fde38b","withdrawSharesAsWeth(address,address,uint256,address)":"e10456fe","withdrawalRootPending(bytes32)":"c3c6b3a9"},"id":74}