{"abi":[{"type":"constructor","inputs":[],"stateMutability":"nonpayable"},{"type":"function","name":"DEPOSIT_TYPEHASH","inputs":[],"outputs":[{"name":"","type":"bytes32","internalType":"bytes32"}],"stateMutability":"view"},{"type":"function","name":"DOMAIN_TYPEHASH","inputs":[],"outputs":[{"name":"","type":"bytes32","internalType":"bytes32"}],"stateMutability":"view"},{"type":"function","name":"addShares","inputs":[{"name":"staker","type":"address","internalType":"address"},{"name":"weth","type":"address","internalType":"contract IERC20"},{"name":"strategy","type":"address","internalType":"contract IStrategy"},{"name":"shares","type":"uint256","internalType":"uint256"}],"outputs":[],"stateMutability":"nonpayable"},{"type":"function","name":"addStrategiesToDepositWhitelist","inputs":[{"name":"strategiesToWhitelist","type":"address[]","internalType":"contract IStrategy[]"},{"name":"thirdPartyTransfersForbiddenValues","type":"bool[]","internalType":"bool[]"}],"outputs":[],"stateMutability":"nonpayable"},{"type":"function","name":"calculateWithdrawalRoot","inputs":[{"name":"queuedWithdrawal","type":"tuple","internalType":"struct IStrategyManager.DeprecatedStruct_QueuedWithdrawal","components":[{"name":"strategies","type":"address[]","internalType":"contract IStrategy[]"},{"name":"shares","type":"uint256[]","internalType":"uint256[]"},{"name":"staker","type":"address","internalType":"address"},{"name":"withdrawerAndNonce","type":"tuple","internalType":"struct IStrategyManager.DeprecatedStruct_WithdrawerAndNonce","components":[{"name":"withdrawer","type":"address","internalType":"address"},{"name":"nonce","type":"uint96","internalType":"uint96"}]},{"name":"withdrawalStartBlock","type":"uint32","internalType":"uint32"},{"name":"delegatedAddress","type":"address","internalType":"address"}]}],"outputs":[{"name":"","type":"bytes32","internalType":"bytes32"}],"stateMutability":"pure"},{"type":"function","name":"delegation","inputs":[],"outputs":[{"name":"","type":"address","internalType":"contract IDelegationManager"}],"stateMutability":"view"},{"type":"function","name":"depositETHIntoStrategy","inputs":[{"name":"strategy","type":"address","internalType":"contract IStrategy"},{"name":"amount","type":"uint256","internalType":"uint256"}],"outputs":[{"name":"shares","type":"uint256","internalType":"uint256"}],"stateMutability":"nonpayable"},{"type":"function","name":"depositETHIntoStrategyWithSignature","inputs":[{"name":"strategy","type":"address","internalType":"contract IStrategy"},{"name":"amount","type":"uint256","internalType":"uint256"},{"name":"staker","type":"address","internalType":"address"},{"name":"expiry","type":"uint256","internalType":"uint256"},{"name":"signature","type":"bytes","internalType":"bytes"}],"outputs":[{"name":"shares","type":"uint256","internalType":"uint256"}],"stateMutability":"nonpayable"},{"type":"function","name":"depositWETHIntoStrategy","inputs":[{"name":"strategy","type":"address","internalType":"contract IStrategy"},{"name":"weth","type":"address","internalType":"contract IERC20"},{"name":"amount","type":"uint256","internalType":"uint256"}],"outputs":[{"name":"shares","type":"uint256","internalType":"uint256"}],"stateMutability":"nonpayable"},{"type":"function","name":"depositWETHIntoStrategyWithSignature","inputs":[{"name":"strategy","type":"address","internalType":"contract IStrategy"},{"name":"weth","type":"address","internalType":"contract IERC20"},{"name":"amount","type":"uint256","internalType":"uint256"},{"name":"staker","type":"address","internalType":"address"},{"name":"expiry","type":"uint256","internalType":"uint256"},{"name":"signature","type":"bytes","internalType":"bytes"}],"outputs":[{"name":"shares","type":"uint256","internalType":"uint256"}],"stateMutability":"nonpayable"},{"type":"function","name":"domainSeparator","inputs":[],"outputs":[{"name":"","type":"bytes32","internalType":"bytes32"}],"stateMutability":"view"},{"type":"function","name":"getDeposits","inputs":[{"name":"staker","type":"address","internalType":"address"}],"outputs":[{"name":"","type":"address[]","internalType":"contract IStrategy[]"},{"name":"","type":"uint256[]","internalType":"uint256[]"}],"stateMutability":"view"},{"type":"function","name":"initialize","inputs":[{"name":"initialOwner","type":"address","internalType":"address"},{"name":"initialStrategyWhitelister","type":"address","internalType":"address"},{"name":"_relayer","type":"address","internalType":"address"},{"name":"_delegation","type":"address","internalType":"contract IDelegationManager"},{"name":"_slasher","type":"address","internalType":"contract ISlashManager"},{"name":"_pauser","type":"address","internalType":"contract IL2Pauser"}],"outputs":[],"stateMutability":"nonpayable"},{"type":"function","name":"migrateQueuedWithdrawal","inputs":[{"name":"queuedWithdrawal","type":"tuple","internalType":"struct IStrategyManager.DeprecatedStruct_QueuedWithdrawal","components":[{"name":"strategies","type":"address[]","internalType":"contract IStrategy[]"},{"name":"shares","type":"uint256[]","internalType":"uint256[]"},{"name":"staker","type":"address","internalType":"address"},{"name":"withdrawerAndNonce","type":"tuple","internalType":"struct IStrategyManager.DeprecatedStruct_WithdrawerAndNonce","components":[{"name":"withdrawer","type":"address","internalType":"address"},{"name":"nonce","type":"uint96","internalType":"uint96"}]},{"name":"withdrawalStartBlock","type":"uint32","internalType":"uint32"},{"name":"delegatedAddress","type":"address","internalType":"address"}]}],"outputs":[{"name":"","type":"bool","internalType":"bool"},{"name":"","type":"bytes32","internalType":"bytes32"}],"stateMutability":"nonpayable"},{"type":"function","name":"migrateRelatedL1StakerShares","inputs":[{"name":"staker","type":"address","internalType":"address"},{"name":"strategy","type":"address","internalType":"contract IStrategy"},{"name":"shares","type":"uint256","internalType":"uint256"}],"outputs":[{"name":"","type":"bool","internalType":"bool"}],"stateMutability":"nonpayable"},{"type":"function","name":"nonces","inputs":[{"name":"","type":"address","internalType":"address"}],"outputs":[{"name":"","type":"uint256","internalType":"uint256"}],"stateMutability":"view"},{"type":"function","name":"owner","inputs":[],"outputs":[{"name":"","type":"address","internalType":"address"}],"stateMutability":"view"},{"type":"function","name":"pauser","inputs":[],"outputs":[{"name":"","type":"address","internalType":"contract IL2Pauser"}],"stateMutability":"view"},{"type":"function","name":"relayer","inputs":[],"outputs":[{"name":"","type":"address","internalType":"address"}],"stateMutability":"view"},{"type":"function","name":"removeShares","inputs":[{"name":"staker","type":"address","internalType":"address"},{"name":"strategy","type":"address","internalType":"contract IStrategy"},{"name":"shares","type":"uint256","internalType":"uint256"}],"outputs":[],"stateMutability":"nonpayable"},{"type":"function","name":"removeStrategiesFromDepositWhitelist","inputs":[{"name":"strategiesToRemoveFromWhitelist","type":"address[]","internalType":"contract IStrategy[]"}],"outputs":[],"stateMutability":"nonpayable"},{"type":"function","name":"renounceOwnership","inputs":[],"outputs":[],"stateMutability":"nonpayable"},{"type":"function","name":"setStrategyWhitelister","inputs":[{"name":"newStrategyWhitelister","type":"address","internalType":"address"}],"outputs":[],"stateMutability":"nonpayable"},{"type":"function","name":"setThirdPartyTransfersForbidden","inputs":[{"name":"strategy","type":"address","internalType":"contract IStrategy"},{"name":"value","type":"bool","internalType":"bool"}],"outputs":[],"stateMutability":"nonpayable"},{"type":"function","name":"slasher","inputs":[],"outputs":[{"name":"","type":"address","internalType":"contract ISlashManager"}],"stateMutability":"view"},{"type":"function","name":"stakerStrategyL1BackShares","inputs":[{"name":"","type":"address","internalType":"address"},{"name":"","type":"address","internalType":"contract IStrategy"}],"outputs":[{"name":"","type":"uint256","internalType":"uint256"}],"stateMutability":"view"},{"type":"function","name":"stakerStrategyList","inputs":[{"name":"","type":"address","internalType":"address"},{"name":"","type":"uint256","internalType":"uint256"}],"outputs":[{"name":"","type":"address","internalType":"contract IStrategy"}],"stateMutability":"view"},{"type":"function","name":"stakerStrategyListLength","inputs":[{"name":"staker","type":"address","internalType":"address"}],"outputs":[{"name":"","type":"uint256","internalType":"uint256"}],"stateMutability":"view"},{"type":"function","name":"stakerStrategyShares","inputs":[{"name":"","type":"address","internalType":"address"},{"name":"","type":"address","internalType":"contract IStrategy"}],"outputs":[{"name":"","type":"uint256","internalType":"uint256"}],"stateMutability":"view"},{"type":"function","name":"strategyIsWhitelistedForDeposit","inputs":[{"name":"","type":"address","internalType":"contract IStrategy"}],"outputs":[{"name":"","type":"bool","internalType":"bool"}],"stateMutability":"view"},{"type":"function","name":"strategyWhitelister","inputs":[],"outputs":[{"name":"","type":"address","internalType":"address"}],"stateMutability":"view"},{"type":"function","name":"thirdPartyTransfersForbidden","inputs":[{"name":"","type":"address","internalType":"contract IStrategy"}],"outputs":[{"name":"","type":"bool","internalType":"bool"}],"stateMutability":"view"},{"type":"function","name":"transferOwnership","inputs":[{"name":"newOwner","type":"address","internalType":"address"}],"outputs":[],"stateMutability":"nonpayable"},{"type":"function","name":"withdrawSharesAsWeth","inputs":[{"name":"recipient","type":"address","internalType":"address"},{"name":"strategy","type":"address","internalType":"contract IStrategy"},{"name":"shares","type":"uint256","internalType":"uint256"},{"name":"weth","type":"address","internalType":"contract IERC20"}],"outputs":[],"stateMutability":"nonpayable"},{"type":"function","name":"withdrawalRootPending","inputs":[{"name":"","type":"bytes32","internalType":"bytes32"}],"outputs":[{"name":"","type":"bool","internalType":"bool"}],"stateMutability":"view"},{"type":"event","name":"Deposit","inputs":[{"name":"staker","type":"address","indexed":false,"internalType":"address"},{"name":"weth","type":"address","indexed":false,"internalType":"contract IERC20"},{"name":"strategy","type":"address","indexed":false,"internalType":"contract IStrategy"},{"name":"shares","type":"uint256","indexed":false,"internalType":"uint256"}],"anonymous":false},{"type":"event","name":"Initialized","inputs":[{"name":"version","type":"uint64","indexed":false,"internalType":"uint64"}],"anonymous":false},{"type":"event","name":"MigrateRelatedL1StakerShares","inputs":[{"name":"staker","type":"address","indexed":false,"internalType":"address"},{"name":"strategy","type":"address","indexed":false,"internalType":"contract IStrategy"},{"name":"shares","type":"uint256","indexed":false,"internalType":"uint256"}],"anonymous":false},{"type":"event","name":"OwnershipTransferred","inputs":[{"name":"previousOwner","type":"address","indexed":true,"internalType":"address"},{"name":"newOwner","type":"address","indexed":true,"internalType":"address"}],"anonymous":false},{"type":"event","name":"StrategyAddedToDepositWhitelist","inputs":[{"name":"strategy","type":"address","indexed":false,"internalType":"contract IStrategy"}],"anonymous":false},{"type":"event","name":"StrategyRemovedFromDepositWhitelist","inputs":[{"name":"strategy","type":"address","indexed":false,"internalType":"contract IStrategy"}],"anonymous":false},{"type":"event","name":"StrategyWhitelisterChanged","inputs":[{"name":"previousAddress","type":"address","indexed":false,"internalType":"address"},{"name":"newAddress","type":"address","indexed":false,"internalType":"address"}],"anonymous":false},{"type":"event","name":"UpdatedThirdPartyTransfersForbidden","inputs":[{"name":"strategy","type":"address","indexed":false,"internalType":"contract IStrategy"},{"name":"value","type":"bool","indexed":false,"internalType":"bool"}],"anonymous":false},{"type":"error","name":"AddressEmptyCode","inputs":[{"name":"target","type":"address","internalType":"address"}]},{"type":"error","name":"AddressInsufficientBalance","inputs":[{"name":"account","type":"address","internalType":"address"}]},{"type":"error","name":"ECDSAInvalidSignature","inputs":[]},{"type":"error","name":"ECDSAInvalidSignatureLength","inputs":[{"name":"length","type":"uint256","internalType":"uint256"}]},{"type":"error","name":"ECDSAInvalidSignatureS","inputs":[{"name":"s","type":"bytes32","internalType":"bytes32"}]},{"type":"error","name":"FailedInnerCall","inputs":[]},{"type":"error","name":"InvalidInitialization","inputs":[]},{"type":"error","name":"NotInitializing","inputs":[]},{"type":"error","name":"OwnableInvalidOwner","inputs":[{"name":"owner","type":"address","internalType":"address"}]},{"type":"error","name":"OwnableUnauthorizedAccount","inputs":[{"name":"account","type":"address","internalType":"address"}]},{"type":"error","name":"ReentrancyGuardReentrantCall","inputs":[]},{"type":"error","name":"SafeERC20FailedOperation","inputs":[{"name":"token","type":"address","internalType":"address"}]}],"bytecode":{"object":"0x60a06040523480156200001157600080fd5b506200001c62000026565b46608052620000da565b7ff0c57e16840df040f15088dc2f81fe391c3923bec73e23a9662efc9c229c6a00805468010000000000000000900460ff1615620000775760405163f92ee8a960e01b815260040160405180910390fd5b80546001600160401b0390811614620000d75780546001600160401b0319166001600160401b0390811782556040519081527fc7f505b2f371ae2175ee4913f4499e1f2633a7b5936321eed1cdaeb6115181d29060200160405180910390a15b50565b6080516134ca620000f6600039600061176701526134ca6000f3fe608060405234801561001057600080fd5b50600436106102115760003560e01c80639b4da03d11610125578063cbc336c2116100ad578063df5cf7231161007c578063df5cf72314610557578063e10456fe1461056a578063f2fde38b1461057d578063f698da2514610590578063fd7691861461059857600080fd5b8063cbc336c2146104f4578063cc2a9a5b14610507578063cd293f6f1461051a578063df5b35471461054457600080fd5b8063b5d8b5b8116100f4578063b5d8b5b814610485578063c3c6b3a914610498578063c4623ea1146104bb578063c6656702146104ce578063cbc2bd62146104e157600080fd5b80639b4da03d146104295780639fd0506d1461044c578063b13442711461045f578063b43b514b1461047257600080fd5b806372e80be6116101a85780638b8aac3c116101775780638b8aac3c146103895780638c80d4e5146103b25780638da5cb5b146103c557806394f649dd146103f5578063967fc0d21461041657600080fd5b806372e80be6146103005780637a7e0d92146103135780637ecebe001461033e5780638406c0791461035e57600080fd5b80634e5a4263116101e45780634e5a42631461029d578063663c1de4146102b25780636c962dcf146102e5578063715018a6146102f857600080fd5b80630891e0ed1461021657806320606b701461023c578063422e73e51461026357806348825e9414610276575b600080fd5b61022961022436600461292d565b6105c3565b6040519081526020015b60405180910390f35b6102297f8cad95687ba82c2ce50e74f7b754645e5117c3a5bec8151c0726d5857980a86681565b6102296102713660046129b3565b61082b565b6102297fc30199eab143dcbbc0ef8cbfd8b775cd4bca1eb79e78a127fe762ed23041634581565b6102b06102ab3660046129ed565b610938565b005b6102d56102c0366004612a26565b60096020526000908152604090205460ff1681565b6040519015158152602001610233565b6102d56102f3366004612a43565b610970565b6102b0610a50565b61022961030e366004612a43565b610a64565b610229610321366004612a84565b600460209081526000928352604080842090915290825290205481565b61022961034c366004612a26565b60016020526000908152604090205481565b603654610371906001600160a01b031681565b6040516001600160a01b039091168152602001610233565b610229610397366004612a26565b6001600160a01b031660009081526006602052604090205490565b6102b06103c0366004612a43565b610b6d565b7f9016d09d72d40fdae2fd8ceac6b6234c7706214fd39c1cd1e609a0528c199300546001600160a01b0316610371565b610408610403366004612a26565b610ba8565b604051610233929190612b28565b600254610371906001600160a01b031681565b6102d5610437366004612a26565b600b6020526000908152604090205460ff1681565b603554610371906001600160a01b031681565b603454610371906001600160a01b031681565b610229610480366004612cce565b610d27565b6102b0610493366004612dee565b610d74565b6102d56104a6366004612e2f565b60076020526000908152604090205460ff1681565b6102b06104c9366004612e48565b610ee8565b6102b06104dc366004612a26565b610f1e565b6103716104ef3660046129b3565b610f32565b610229610502366004612e99565b610f6a565b6102b0610515366004612f0e565b6111c2565b61052d610528366004612cce565b611333565b604080519215158352602083019190915201610233565b6102b0610552366004612f90565b6113ab565b603354610371906001600160a01b031681565b6102b0610578366004612ffb565b6115d4565b6102b061058b366004612a26565b611728565b610229611763565b6102296105a6366004612a84565b600560209081526000928352604080842090915290825290205481565b60006105cd6117a0565b603560009054906101000a90046001600160a01b03166001600160a01b0316633830f4b26040518163ffffffff1660e01b8152600401602060405180830381865afa158015610620573d6000803e3d6000fd5b505050506040513d601f19601f82011682018060405250810190610644919061304e565b6106bb5760405162461bcd60e51b815260206004820152603b60248201527f53747261746567794d616e616765723a6465706f73697457455448496e746f5360448201527f74726174656779576974685369676e617475726520706175736564000000000060648201526084015b60405180910390fd5b6001600160a01b0387166000908152600b602052604090205460ff16156106f45760405162461bcd60e51b81526004016106b29061306b565b428310156107145760405162461bcd60e51b81526004016106b2906130db565b6001600160a01b038481166000818152600160208181526040808420805482517fc30199eab143dcbbc0ef8cbfd8b775cd4bca1eb79e78a127fe762ed230416345818601528084018890528f89166060820152978e16608089015260a088018d905260c0880181905260e08089018c90528351808a039091018152610100909801909252865196830196909620948452908290529081019093556107b6611763565b60405161190160f01b60208201526022810191909152604281018390526062016040516020818303038152906040528051906020012090506107f98782876117d8565b610805878b8b8b611997565b9350505050610821600160008051602061347583398151915255565b9695505050505050565b60006108356117a0565b603560009054906101000a90046001600160a01b03166001600160a01b0316633830f4b26040518163ffffffff1660e01b8152600401602060405180830381865afa158015610888573d6000803e3d6000fd5b505050506040513d601f19601f820116820180604052508101906108ac919061304e565b61090e5760405162461bcd60e51b815260206004820152602d60248201527f53747261746567794d616e616765723a6465706f736974455448496e746f537460448201526c1c985d1959de481c185d5cd959609a1b60648201526084016106b2565b610919338484611ad6565b9050610932600160008051602061347583398151915255565b92915050565b6002546001600160a01b031633146109625760405162461bcd60e51b81526004016106b290613144565b61096c8282611c5c565b5050565b6036546000906001600160a01b031633146109cd5760405162461bcd60e51b815260206004820152601b60248201527f53747261746567794d616e616765722e6f6e6c7952656c61796572000000000060448201526064016106b2565b6001600160a01b03808516600090815260056020908152604080832093871683529290529081208054849290610a049084906131c4565b90915550506040517f4be54f6b51e6829ea7a071c004f5b4169272ef6b0ff1a397e9af9f81a2120c1890610a3d908690869086906131d7565b60405180910390a15060015b9392505050565b610a58611cca565b610a626000611d25565b565b6000610a6e6117a0565b603560009054906101000a90046001600160a01b03166001600160a01b0316633830f4b26040518163ffffffff1660e01b8152600401602060405180830381865afa158015610ac1573d6000803e3d6000fd5b505050506040513d601f19601f82011682018060405250810190610ae5919061304e565b610b485760405162461bcd60e51b815260206004820152602e60248201527f53747261746567794d616e616765723a6465706f73697457455448496e746f5360448201526d1d1c985d1959de481c185d5cd95960921b60648201526084016106b2565b610b5433858585611997565b9050610a49600160008051602061347583398151915255565b6033546001600160a01b03163314610b975760405162461bcd60e51b81526004016106b2906131fb565b610ba2838383611d96565b50505050565b6001600160a01b038116600090815260066020526040812054606091829190816001600160401b03811115610bdf57610bdf612850565b604051908082528060200260200182016040528015610c08578160200160208202803683370190505b50905060005b82811015610c99576001600160a01b038616600090815260046020908152604080832060069092528220805491929184908110610c4d57610c4d613259565b60009182526020808320909101546001600160a01b031683528201929092526040019020548251839083908110610c8657610c86613259565b6020908102919091010152600101610c0e565b5060066000866001600160a01b03166001600160a01b031681526020019081526020016000208181805480602002602001604051908101604052809291908181526020018280548015610d1557602002820191906000526020600020905b81546001600160a01b03168152600190910190602001808311610cf7575b50505050509150935093505050915091565b80516020808301516040808501516060860151608087015160a08801519351600097610d5797909695910161326f565b604051602081830303815290604052805190602001209050919050565b6002546001600160a01b03163314610d9e5760405162461bcd60e51b81526004016106b290613144565b8060005b81811015610ba25760096000858584818110610dc057610dc0613259565b9050602002016020810190610dd59190612a26565b6001600160a01b0316815260208101919091526040016000205460ff1615610ee057600060096000868685818110610e0f57610e0f613259565b9050602002016020810190610e249190612a26565b6001600160a01b031681526020810191909152604001600020805460ff19169115159190911790557f4074413b4b443e4e58019f2855a8765113358c7c72e39509c6af45fc0f5ba030848483818110610e7f57610e7f613259565b9050602002016020810190610e949190612a26565b6040516001600160a01b03909116815260200160405180910390a1610ee0848483818110610ec457610ec4613259565b9050602002016020810190610ed99190612a26565b6000611c5c565b600101610da2565b6033546001600160a01b03163314610f125760405162461bcd60e51b81526004016106b2906131fb565b610ba284848484611ef5565b610f26611cca565b610f2f81612189565b50565b60066020528160005260406000208181548110610f4e57600080fd5b6000918252602090912001546001600160a01b03169150829050565b6000610f746117a0565b603560009054906101000a90046001600160a01b03166001600160a01b0316633830f4b26040518163ffffffff1660e01b8152600401602060405180830381865afa158015610fc7573d6000803e3d6000fd5b505050506040513d601f19601f82011682018060405250810190610feb919061304e565b61105d5760405162461bcd60e51b815260206004820152603a60248201527f53747261746567794d616e616765723a6465706f736974455448496e746f537460448201527f726174656779576974685369676e61747572652070617573656400000000000060648201526084016106b2565b6001600160a01b0386166000908152600b602052604090205460ff16156110965760405162461bcd60e51b81526004016106b29061306b565b428310156110b65760405162461bcd60e51b81526004016106b2906130db565b6001600160a01b038481166000818152600160208181526040808420805482517fc30199eab143dcbbc0ef8cbfd8b775cd4bca1eb79e78a127fe762ed23041634581860152808401889052978e166060890152608088018d905260a0880181905260c08089018c90528351808a03909101815260e09098019092528651968301969096209484529082905290810190935561114f611763565b60405161190160f01b60208201526022810191909152604281018390526062016040516020818303038152906040528051906020012090506111928782876117d8565b61119d878a8a611ad6565b93505050506111b9600160008051602061347583398151915255565b95945050505050565b7ff0c57e16840df040f15088dc2f81fe391c3923bec73e23a9662efc9c229c6a008054600160401b810460ff1615906001600160401b03166000811580156112075750825b90506000826001600160401b031660011480156112235750303b155b905081158015611231575080155b1561124f5760405163f92ee8a960e01b815260040160405180910390fd5b845467ffffffffffffffff19166001178555831561127957845460ff60401b1916600160401b1785555b6112816121f2565b60005561128d8b611d25565b6112968a612189565b603380546001600160a01b03808b166001600160a01b031992831617909255603480548a84169083161790556035805489841690831617905560368054928c1692909116919091179055831561132657845460ff60401b19168555604051600181527fc7f505b2f371ae2175ee4913f4499e1f2633a7b5936321eed1cdaeb6115181d29060200160405180910390a15b5050505050505050505050565b60335460009081906001600160a01b031633146113625760405162461bcd60e51b81526004016106b2906131fb565b600061136d84610d27565b6000818152600760205260408120549192509060ff16156113a257506000818152600760205260409020805460ff1916905560015b92509050915091565b6002546001600160a01b031633146113d55760405162461bcd60e51b81526004016106b290613144565b82811461145e5760405162461bcd60e51b815260206004820152604b60248201527f53747261746567794d616e616765722e61646453747261746567696573546f4460448201527f65706f73697457686974656c6973743a206172726179206c656e67746873206460648201526a0de40dcdee840dac2e8c6d60ab1b608482015260a4016106b2565b8260005b818110156115cc576009600087878481811061148057611480613259565b90506020020160208101906114959190612a26565b6001600160a01b0316815260208101919091526040016000205460ff166115c4576001600960008888858181106114ce576114ce613259565b90506020020160208101906114e39190612a26565b6001600160a01b031681526020810191909152604001600020805460ff19169115159190911790557f0c35b17d91c96eb2751cd456e1252f42a386e524ef9ff26ecc9950859fdc04fe86868381811061153e5761153e613259565b90506020020160208101906115539190612a26565b6040516001600160a01b03909116815260200160405180910390a16115c486868381811061158357611583613259565b90506020020160208101906115989190612a26565b8585848181106115aa576115aa613259565b90506020020160208101906115bf91906132e8565b611c5c565b600101611462565b505050505050565b6033546001600160a01b031633146115fe5760405162461bcd60e51b81526004016106b2906131fb565b6001600160a01b038085166000908152600560209081526040808320938716835292905220548281146116bf5760405162461bcd60e51b815260206004820152605c60248201527f53747261746567794d616e616765722e7769746864726177536861726573417360448201527f576574683a20546865204c6179657231206f662044455448206861736e27742060648201527f6265656e20636f6d706c6574656c792072656c65617365642079657400000000608482015260a4016106b2565b604051636ce5768960e11b81526001600160a01b0385169063d9caed12906116ef908890869088906004016131d7565b600060405180830381600087803b15801561170957600080fd5b505af115801561171d573d6000803e3d6000fd5b505050505050505050565b611730611cca565b6001600160a01b03811661175a57604051631e4fbdf760e01b8152600060048201526024016106b2565b610f2f81611d25565b60007f00000000000000000000000000000000000000000000000000000000000000004603611793575060005490565b61179b6121f2565b905090565b6000805160206134758339815191528054600119016117d257604051633ee5aeb560e01b815260040160405180910390fd5b60029055565b6001600160a01b0383163b156118f757604051630b135d3f60e11b808252906001600160a01b03851690631626ba7e906118189086908690600401613329565b602060405180830381865afa158015611835573d6000803e3d6000fd5b505050506040513d601f19601f820116820180604052508101906118599190613363565b6001600160e01b031916146118f25760405162461bcd60e51b815260206004820152605360248201527f454950313237315369676e61747572655574696c732e636865636b5369676e6160448201527f747572655f454950313237313a2045524331323731207369676e6174757265206064820152721d995c9a599a58d85d1a5bdb8819985a5b1959606a1b608482015260a4016106b2565b505050565b826001600160a01b031661190b8383612287565b6001600160a01b0316146118f25760405162461bcd60e51b815260206004820152604760248201527f454950313237315369676e61747572655574696c732e636865636b5369676e6160448201527f747572655f454950313237313a207369676e6174757265206e6f742066726f6d6064820152661039b4b3b732b960c91b608482015260a4016106b2565b6001600160a01b038316600090815260096020526040812054849060ff166119d15760405162461bcd60e51b81526004016106b29061338d565b6119e66001600160a01b0385163387866122b1565b6040516311f9fbc960e21b81526001600160a01b038581166004830152602482018590528616906347e7ef24906044016020604051808303816000875af1158015611a35573d6000803e3d6000fd5b505050506040513d601f19601f82011682018060405250810190611a599190613400565b9150611a6786858785611ef5565b603354604051631452b9d760e11b81526001600160a01b03909116906328a573ae90611a9b908990899087906004016131d7565b600060405180830381600087803b158015611ab557600080fd5b505af1158015611ac9573d6000803e3d6000fd5b5050505050949350505050565b6001600160a01b038216600090815260096020526040812054839060ff16611b105760405162461bcd60e51b81526004016106b29061338d565b6040516001600160a01b0385169084156108fc029085906000818181858888f19350505050158015611b46573d6000803e3d6000fd5b506040516311f9fbc960e21b815273eeeeeeeeeeeeeeeeeeeeeeeeeeeeeeeeeeeeeeee6004820152602481018490526001600160a01b038516906347e7ef24906044016020604051808303816000875af1158015611ba8573d6000803e3d6000fd5b505050506040513d601f19601f82011682018060405250810190611bcc9190613400565b9150611bee8573eeeeeeeeeeeeeeeeeeeeeeeeeeeeeeeeeeeeeeee8685611ef5565b603354604051631452b9d760e11b81526001600160a01b03909116906328a573ae90611c22908890889087906004016131d7565b600060405180830381600087803b158015611c3c57600080fd5b505af1158015611c50573d6000803e3d6000fd5b50505050509392505050565b604080516001600160a01b038416815282151560208201527f77d930df4937793473a95024d87a98fd2ccb9e92d3c2463b3dacd65d3e6a5786910160405180910390a16001600160a01b03919091166000908152600b60205260409020805460ff1916911515919091179055565b33611cfc7f9016d09d72d40fdae2fd8ceac6b6234c7706214fd39c1cd1e609a0528c199300546001600160a01b031690565b6001600160a01b031614610a625760405163118cdaa760e01b81523360048201526024016106b2565b7f9016d09d72d40fdae2fd8ceac6b6234c7706214fd39c1cd1e609a0528c19930080546001600160a01b031981166001600160a01b03848116918217845560405192169182907f8be0079c531659141344cd1fd0a4f28419497f9722a3daafe3b4186f6b6457e090600090a3505050565b600081600003611e0e5760405162461bcd60e51b815260206004820152603e60248201527f53747261746567794d616e616765722e5f72656d6f76655368617265733a207360448201527f68617265416d6f756e742073686f756c64206e6f74206265207a65726f21000060648201526084016106b2565b6001600160a01b0380851660009081526004602090815260408083209387168352929052205480831115611ea05760405162461bcd60e51b815260206004820152603360248201527f53747261746567794d616e616765722e5f72656d6f76655368617265733a20736044820152720d0c2e4ca82dadeeadce840e8dede40d0d2ced606b1b60648201526084016106b2565b6001600160a01b03808616600090815260046020908152604080832093881683529290529081209184900391829055819003611eea57611ee0858561230b565b6001915050610a49565b506000949350505050565b6001600160a01b038416611f715760405162461bcd60e51b815260206004820152603960248201527f53747261746567794d616e616765722e5f6164645368617265733a207374616b60448201527f65722063616e6e6f74206265207a65726f20616464726573730000000000000060648201526084016106b2565b80600003611fe05760405162461bcd60e51b815260206004820152603660248201527f53747261746567794d616e616765722e5f6164645368617265733a207368617260448201527565732073686f756c64206e6f74206265207a65726f2160501b60648201526084016106b2565b6001600160a01b03808516600090815260046020908152604080832093861683529290529081205490036120f5576001600160a01b038416600090815260066020908152604090912054106120b65760405162461bcd60e51b815260206004820152605060248201527f53747261746567794d616e616765722e5f6164645368617265733a206465706f60448201527f73697420776f756c6420657863656564204d41585f5354414b45525f5354524160648201526f0a88a8eb2be9892a6a8be988a9c8ea8960831b608482015260a4016106b2565b6001600160a01b0384811660009081526006602090815260408220805460018101825590835291200180546001600160a01b0319169184169190911790555b6001600160a01b0380851660009081526004602090815260408083209386168352929052908120805483929061212c9084906131c4565b9091555050604080516001600160a01b03868116825285811660208301528416818301526060810183905290517f7cfff908a4b583f36430b25d75964c458d8ede8a99bd61be750e97ee1b2f3a969181900360800190a150505050565b600254604080516001600160a01b03928316815291831660208301527f4264275e593955ff9d6146a51a4525f6ddace2e81db9391abcc9d1ca48047d29910160405180910390a1600280546001600160a01b0319166001600160a01b0392909216919091179055565b6040805180820182526008815267446170704c696e6b60c01b60209182015281517f8cad95687ba82c2ce50e74f7b754645e5117c3a5bec8151c0726d5857980a866818301527fdadb978fc98e6e975439bb996be670dd8e228496518e61b3cb48e91f9251c40d81840152466060820152306080808301919091528351808303909101815260a0909101909252815191012090565b60008060008061229786866124fb565b9250925092506122a78282612548565b5090949350505050565b610ba284856001600160a01b03166323b872dd8686866040516024016122d9939291906131d7565b604051602081830303815290604052915060e01b6020820180516001600160e01b038381831617835250505050612601565b6001600160a01b038216600090815260066020526040812054905b81811015612425576001600160a01b0384811660009081526006602052604090208054918516918390811061235d5761235d613259565b6000918252602090912001546001600160a01b03160361241d576001600160a01b0384166000908152600660205260409020805461239d90600190613419565b815481106123ad576123ad613259565b60009182526020808320909101546001600160a01b038781168452600690925260409092208054919092169190839081106123ea576123ea613259565b9060005260206000200160006101000a8154816001600160a01b0302191690836001600160a01b03160217905550612425565b600101612326565b8181036124ac5760405162461bcd60e51b815260206004820152604960248201527f53747261746567794d616e616765722e5f72656d6f766553747261746567794660448201527f726f6d5374616b657253747261746567794c6973743a207374726174656779206064820152681b9bdd08199bdd5b9960ba1b608482015260a4016106b2565b6001600160a01b03841660009081526006602052604090208054806124d3576124d361342c565b600082815260209020810160001990810180546001600160a01b031916905501905550505050565b600080600083516041036125355760208401516040850151606086015160001a61252788828585612664565b955095509550505050612541565b50508151600091506002905b9250925092565b600082600381111561255c5761255c613442565b03612565575050565b600182600381111561257957612579613442565b036125975760405163f645eedf60e01b815260040160405180910390fd5b60028260038111156125ab576125ab613442565b036125cc5760405163fce698f760e01b8152600481018290526024016106b2565b60038260038111156125e0576125e0613442565b0361096c576040516335e2f38360e21b8152600481018290526024016106b2565b60006126166001600160a01b03841683612733565b9050805160001415801561263b575080806020019051810190612639919061304e565b155b156118f257604051635274afe760e01b81526001600160a01b03841660048201526024016106b2565b600080807f7fffffffffffffffffffffffffffffff5d576e7357a4501ddfe92f46681b20a084111561269f5750600091506003905082612729565b604080516000808252602082018084528a905260ff891692820192909252606081018790526080810186905260019060a0016020604051602081039080840390855afa1580156126f3573d6000803e3d6000fd5b5050604051601f1901519150506001600160a01b03811661271f57506000925060019150829050612729565b9250600091508190505b9450945094915050565b6060610a498383600084600080856001600160a01b031684866040516127599190613458565b60006040518083038185875af1925050503d8060008114612796576040519150601f19603f3d011682016040523d82523d6000602084013e61279b565b606091505b50915091506108218683836060826127bb576127b682612802565b610a49565b81511580156127d257506001600160a01b0384163b155b156127fb57604051639996b31560e01b81526001600160a01b03851660048201526024016106b2565b5080610a49565b8051156128125780518082602001fd5b604051630a12f52160e11b815260040160405180910390fd5b6001600160a01b0381168114610f2f57600080fd5b803561284b8161282b565b919050565b634e487b7160e01b600052604160045260246000fd5b60405160c081016001600160401b038111828210171561288857612888612850565b60405290565b604051601f8201601f191681016001600160401b03811182821017156128b6576128b6612850565b604052919050565b600082601f8301126128cf57600080fd5b81356001600160401b038111156128e8576128e8612850565b6128fb601f8201601f191660200161288e565b81815284602083860101111561291057600080fd5b816020850160208301376000918101602001919091529392505050565b60008060008060008060c0878903121561294657600080fd5b86356129518161282b565b955060208701356129618161282b565b94506040870135935060608701356129788161282b565b92506080870135915060a08701356001600160401b0381111561299a57600080fd5b6129a689828a016128be565b9150509295509295509295565b600080604083850312156129c657600080fd5b82356129d18161282b565b946020939093013593505050565b8015158114610f2f57600080fd5b60008060408385031215612a0057600080fd5b8235612a0b8161282b565b91506020830135612a1b816129df565b809150509250929050565b600060208284031215612a3857600080fd5b8135610a498161282b565b600080600060608486031215612a5857600080fd5b8335612a638161282b565b92506020840135612a738161282b565b929592945050506040919091013590565b60008060408385031215612a9757600080fd5b8235612aa28161282b565b91506020830135612a1b8161282b565b60008151808452602080850194506020840160005b83811015612aec5781516001600160a01b031687529582019590820190600101612ac7565b509495945050505050565b60008151808452602080850194506020840160005b83811015612aec57815187529582019590820190600101612b0c565b604081526000612b3b6040830185612ab2565b82810360208401526111b98185612af7565b60006001600160401b03821115612b6657612b66612850565b5060051b60200190565b600082601f830112612b8157600080fd5b81356020612b96612b9183612b4d565b61288e565b8083825260208201915060208460051b870101935086841115612bb857600080fd5b602086015b84811015612bdd578035612bd08161282b565b8352918301918301612bbd565b509695505050505050565b600082601f830112612bf957600080fd5b81356020612c09612b9183612b4d565b8083825260208201915060208460051b870101935086841115612c2b57600080fd5b602086015b84811015612bdd5780358352918301918301612c30565b600060408284031215612c5957600080fd5b604051604081018181106001600160401b0382111715612c7b57612c7b612850565b6040529050808235612c8c8161282b565b815260208301356bffffffffffffffffffffffff81168114612cad57600080fd5b6020919091015292915050565b803563ffffffff8116811461284b57600080fd5b600060208284031215612ce057600080fd5b81356001600160401b0380821115612cf757600080fd5b9083019060e08286031215612d0b57600080fd5b612d13612866565b823582811115612d2257600080fd5b612d2e87828601612b70565b825250602083013582811115612d4357600080fd5b612d4f87828601612be8565b602083015250612d6160408401612840565b6040820152612d738660608501612c47565b6060820152612d8460a08401612cba565b6080820152612d9560c08401612840565b60a082015295945050505050565b60008083601f840112612db557600080fd5b5081356001600160401b03811115612dcc57600080fd5b6020830191508360208260051b8501011115612de757600080fd5b9250929050565b60008060208385031215612e0157600080fd5b82356001600160401b03811115612e1757600080fd5b612e2385828601612da3565b90969095509350505050565b600060208284031215612e4157600080fd5b5035919050565b60008060008060808587031215612e5e57600080fd5b8435612e698161282b565b93506020850135612e798161282b565b92506040850135612e898161282b565b9396929550929360600135925050565b600080600080600060a08688031215612eb157600080fd5b8535612ebc8161282b565b9450602086013593506040860135612ed38161282b565b92506060860135915060808601356001600160401b03811115612ef557600080fd5b612f01888289016128be565b9150509295509295909350565b60008060008060008060c08789031215612f2757600080fd5b8635612f328161282b565b95506020870135612f428161282b565b94506040870135612f528161282b565b93506060870135612f628161282b565b92506080870135612f728161282b565b915060a0870135612f828161282b565b809150509295509295509295565b60008060008060408587031215612fa657600080fd5b84356001600160401b0380821115612fbd57600080fd5b612fc988838901612da3565b90965094506020870135915080821115612fe257600080fd5b50612fef87828801612da3565b95989497509550505050565b6000806000806080858703121561301157600080fd5b843561301c8161282b565b9350602085013561302c8161282b565b92506040850135915060608501356130438161282b565b939692955090935050565b60006020828403121561306057600080fd5b8151610a49816129df565b6020808252604a908201527f53747261746567794d616e616765722e6465706f736974496e746f537472617460408201527f656779576974685369676e61747572653a207468697264207472616e736665726060820152691cc8191a5cd8589b195960b21b608082015260a00190565b60208082526043908201527f53747261746567794d616e616765722e6465706f736974496e746f537472617460408201527f656779576974685369676e61747572653a207369676e617475726520657870696060820152621c995960ea1b608082015260a00190565b60208082526044908201527f53747261746567794d616e616765722e6f6e6c7953747261746567795768697460408201527f656c69737465723a206e6f742074686520737472617465677957686974656c6960608201526339ba32b960e11b608082015260a00190565b634e487b7160e01b600052601160045260246000fd5b80820180821115610932576109326131ae565b6001600160a01b039384168152919092166020820152604081019190915260600190565b602080825260409082018190527f53747261746567794d616e616765722e6f6e6c7944656c65676174696f6e4d61908201527f6e616765723a206e6f74207468652044656c65676174696f6e4d616e61676572606082015260800190565b634e487b7160e01b600052603260045260246000fd5b60e08152600061328260e0830189612ab2565b82810360208401526132948189612af7565b6001600160a01b0397881660408501528651881660608501526020909601516bffffffffffffffffffffffff166080840152505063ffffffff9290921660a083015290921660c09092019190915292915050565b6000602082840312156132fa57600080fd5b8135610a49816129df565b60005b83811015613320578181015183820152602001613308565b50506000910152565b828152604060208201526000825180604084015261334e816060850160208701613305565b601f01601f1916919091016060019392505050565b60006020828403121561337557600080fd5b81516001600160e01b031981168114610a4957600080fd5b6020808252604d908201527f53747261746567794d616e616765722e6f6e6c7953747261746567696573576860408201527f6974656c6973746564466f724465706f7369743a207374726174656779206e6f60608201526c1d081dda1a5d195b1a5cdd1959609a1b608082015260a00190565b60006020828403121561341257600080fd5b5051919050565b81810381811115610932576109326131ae565b634e487b7160e01b600052603160045260246000fd5b634e487b7160e01b600052602160045260246000fd5b6000825161346a818460208701613305565b919091019291505056fe9b779b17422d0df92223018b32b4d1fa46e071723d6817e2486d003becc55f00a2646970667358221220f22bf8dc66ab614498d81ba077ec1f4b75efa0c54064d4dfc10972d8442db87764736f6c63430008180033","linkReferences":{}},"methodIdentifiers":{"DEPOSIT_TYPEHASH()":"48825e94","DOMAIN_TYPEHASH()":"20606b70","addShares(address,address,address,uint256)":"c4623ea1","addStrategiesToDepositWhitelist(address[],bool[])":"df5b3547","calculateWithdrawalRoot((address[],uint256[],address,(address,uint96),uint32,address))":"b43b514b","delegation()":"df5cf723","depositETHIntoStrategy(address,uint256)":"422e73e5","depositETHIntoStrategyWithSignature(address,uint256,address,uint256,bytes)":"cbc336c2","depositWETHIntoStrategy(address,address,uint256)":"72e80be6","depositWETHIntoStrategyWithSignature(address,address,uint256,address,uint256,bytes)":"0891e0ed","domainSeparator()":"f698da25","getDeposits(address)":"94f649dd","initialize(address,address,address,address,address,address)":"cc2a9a5b","migrateQueuedWithdrawal((address[],uint256[],address,(address,uint96),uint32,address))":"cd293f6f","migrateRelatedL1StakerShares(address,address,uint256)":"6c962dcf","nonces(address)":"7ecebe00","owner()":"8da5cb5b","pauser()":"9fd0506d","relayer()":"8406c079","removeShares(address,address,uint256)":"8c80d4e5","removeStrategiesFromDepositWhitelist(address[])":"b5d8b5b8","renounceOwnership()":"715018a6","setStrategyWhitelister(address)":"c6656702","setThirdPartyTransfersForbidden(address,bool)":"4e5a4263","slasher()":"b1344271","stakerStrategyL1BackShares(address,address)":"fd769186","stakerStrategyList(address,uint256)":"cbc2bd62","stakerStrategyListLength(address)":"8b8aac3c","stakerStrategyShares(address,address)":"7a7e0d92","strategyIsWhitelistedForDeposit(address)":"663c1de4","strategyWhitelister()":"967fc0d2","thirdPartyTransfersForbidden(address)":"9b4da03d","transferOwnership(address)":"f2fde38b","withdrawSharesAsWeth(address,address,uint256,address)":"e10456fe","withdrawalRootPending(bytes32)":"c3c6b3a9"},"id":56}