{"abi":[{"type":"constructor","inputs":[],"stateMutability":"nonpayable"},{"type":"function","name":"DEPOSIT_TYPEHASH","inputs":[],"outputs":[{"name":"","type":"bytes32","internalType":"bytes32"}],"stateMutability":"view"},{"type":"function","name":"DOMAIN_TYPEHASH","inputs":[],"outputs":[{"name":"","type":"bytes32","internalType":"bytes32"}],"stateMutability":"view"},{"type":"function","name":"addShares","inputs":[{"name":"staker","type":"address","internalType":"address"},{"name":"token","type":"address","internalType":"contract IERC20"},{"name":"strategy","type":"address","internalType":"contract IStrategy"},{"name":"shares","type":"uint256","internalType":"uint256"}],"outputs":[],"stateMutability":"nonpayable"},{"type":"function","name":"addStrategiesToDepositWhitelist","inputs":[{"name":"strategiesToWhitelist","type":"address[]","internalType":"contract IStrategy[]"},{"name":"thirdPartyTransfersForbiddenValues","type":"bool[]","internalType":"bool[]"}],"outputs":[],"stateMutability":"nonpayable"},{"type":"function","name":"calculateWithdrawalRoot","inputs":[{"name":"queuedWithdrawal","type":"tuple","internalType":"struct IStrategyManager.DeprecatedStruct_QueuedWithdrawal","components":[{"name":"strategies","type":"address[]","internalType":"contract IStrategy[]"},{"name":"shares","type":"uint256[]","internalType":"uint256[]"},{"name":"staker","type":"address","internalType":"address"},{"name":"withdrawerAndNonce","type":"tuple","internalType":"struct IStrategyManager.DeprecatedStruct_WithdrawerAndNonce","components":[{"name":"withdrawer","type":"address","internalType":"address"},{"name":"nonce","type":"uint96","internalType":"uint96"}]},{"name":"withdrawalStartBlock","type":"uint32","internalType":"uint32"},{"name":"delegatedAddress","type":"address","internalType":"address"}]}],"outputs":[{"name":"","type":"bytes32","internalType":"bytes32"}],"stateMutability":"pure"},{"type":"function","name":"delegation","inputs":[],"outputs":[{"name":"","type":"address","internalType":"contract IDelegationManager"}],"stateMutability":"view"},{"type":"function","name":"depositETHIntoStrategy","inputs":[{"name":"strategy","type":"address","internalType":"contract IStrategy"},{"name":"amount","type":"uint256","internalType":"uint256"}],"outputs":[{"name":"shares","type":"uint256","internalType":"uint256"}],"stateMutability":"nonpayable"},{"type":"function","name":"depositETHIntoStrategyWithSignature","inputs":[{"name":"strategy","type":"address","internalType":"contract IStrategy"},{"name":"amount","type":"uint256","internalType":"uint256"},{"name":"staker","type":"address","internalType":"address"},{"name":"expiry","type":"uint256","internalType":"uint256"},{"name":"signature","type":"bytes","internalType":"bytes"}],"outputs":[{"name":"shares","type":"uint256","internalType":"uint256"}],"stateMutability":"nonpayable"},{"type":"function","name":"depositWETHIntoStrategy","inputs":[{"name":"strategy","type":"address","internalType":"contract IStrategy"},{"name":"token","type":"address","internalType":"contract IERC20"},{"name":"amount","type":"uint256","internalType":"uint256"}],"outputs":[{"name":"shares","type":"uint256","internalType":"uint256"}],"stateMutability":"nonpayable"},{"type":"function","name":"depositWETHIntoStrategyWithSignature","inputs":[{"name":"strategy","type":"address","internalType":"contract IStrategy"},{"name":"token","type":"address","internalType":"contract IERC20"},{"name":"amount","type":"uint256","internalType":"uint256"},{"name":"staker","type":"address","internalType":"address"},{"name":"expiry","type":"uint256","internalType":"uint256"},{"name":"signature","type":"bytes","internalType":"bytes"}],"outputs":[{"name":"shares","type":"uint256","internalType":"uint256"}],"stateMutability":"nonpayable"},{"type":"function","name":"domainSeparator","inputs":[],"outputs":[{"name":"","type":"bytes32","internalType":"bytes32"}],"stateMutability":"view"},{"type":"function","name":"getDeposits","inputs":[{"name":"staker","type":"address","internalType":"address"}],"outputs":[{"name":"","type":"address[]","internalType":"contract IStrategy[]"},{"name":"","type":"uint256[]","internalType":"uint256[]"}],"stateMutability":"view"},{"type":"function","name":"initialize","inputs":[{"name":"initialOwner","type":"address","internalType":"address"},{"name":"initialStrategyWhitelister","type":"address","internalType":"address"},{"name":"_delegation","type":"address","internalType":"contract IDelegationManager"},{"name":"_slasher","type":"address","internalType":"contract ISlashManager"},{"name":"_pauser","type":"address","internalType":"contract IL2Pauser"}],"outputs":[],"stateMutability":"nonpayable"},{"type":"function","name":"migrateQueuedWithdrawal","inputs":[{"name":"queuedWithdrawal","type":"tuple","internalType":"struct IStrategyManager.DeprecatedStruct_QueuedWithdrawal","components":[{"name":"strategies","type":"address[]","internalType":"contract IStrategy[]"},{"name":"shares","type":"uint256[]","internalType":"uint256[]"},{"name":"staker","type":"address","internalType":"address"},{"name":"withdrawerAndNonce","type":"tuple","internalType":"struct IStrategyManager.DeprecatedStruct_WithdrawerAndNonce","components":[{"name":"withdrawer","type":"address","internalType":"address"},{"name":"nonce","type":"uint96","internalType":"uint96"}]},{"name":"withdrawalStartBlock","type":"uint32","internalType":"uint32"},{"name":"delegatedAddress","type":"address","internalType":"address"}]}],"outputs":[{"name":"","type":"bool","internalType":"bool"},{"name":"","type":"bytes32","internalType":"bytes32"}],"stateMutability":"nonpayable"},{"type":"function","name":"nonces","inputs":[{"name":"","type":"address","internalType":"address"}],"outputs":[{"name":"","type":"uint256","internalType":"uint256"}],"stateMutability":"view"},{"type":"function","name":"owner","inputs":[],"outputs":[{"name":"","type":"address","internalType":"address"}],"stateMutability":"view"},{"type":"function","name":"pauser","inputs":[],"outputs":[{"name":"","type":"address","internalType":"contract IL2Pauser"}],"stateMutability":"view"},{"type":"function","name":"removeShares","inputs":[{"name":"staker","type":"address","internalType":"address"},{"name":"strategy","type":"address","internalType":"contract IStrategy"},{"name":"shares","type":"uint256","internalType":"uint256"}],"outputs":[],"stateMutability":"nonpayable"},{"type":"function","name":"removeStrategiesFromDepositWhitelist","inputs":[{"name":"strategiesToRemoveFromWhitelist","type":"address[]","internalType":"contract IStrategy[]"}],"outputs":[],"stateMutability":"nonpayable"},{"type":"function","name":"renounceOwnership","inputs":[],"outputs":[],"stateMutability":"nonpayable"},{"type":"function","name":"setStrategyWhitelister","inputs":[{"name":"newStrategyWhitelister","type":"address","internalType":"address"}],"outputs":[],"stateMutability":"nonpayable"},{"type":"function","name":"setThirdPartyTransfersForbidden","inputs":[{"name":"strategy","type":"address","internalType":"contract IStrategy"},{"name":"value","type":"bool","internalType":"bool"}],"outputs":[],"stateMutability":"nonpayable"},{"type":"function","name":"slasher","inputs":[],"outputs":[{"name":"","type":"address","internalType":"contract ISlashManager"}],"stateMutability":"view"},{"type":"function","name":"stakerStrategyList","inputs":[{"name":"","type":"address","internalType":"address"},{"name":"","type":"uint256","internalType":"uint256"}],"outputs":[{"name":"","type":"address","internalType":"contract IStrategy"}],"stateMutability":"view"},{"type":"function","name":"stakerStrategyListLength","inputs":[{"name":"staker","type":"address","internalType":"address"}],"outputs":[{"name":"","type":"uint256","internalType":"uint256"}],"stateMutability":"view"},{"type":"function","name":"stakerStrategyShares","inputs":[{"name":"","type":"address","internalType":"address"},{"name":"","type":"address","internalType":"contract IStrategy"}],"outputs":[{"name":"","type":"uint256","internalType":"uint256"}],"stateMutability":"view"},{"type":"function","name":"strategyIsWhitelistedForDeposit","inputs":[{"name":"","type":"address","internalType":"contract IStrategy"}],"outputs":[{"name":"","type":"bool","internalType":"bool"}],"stateMutability":"view"},{"type":"function","name":"strategyWhitelister","inputs":[],"outputs":[{"name":"","type":"address","internalType":"address"}],"stateMutability":"view"},{"type":"function","name":"thirdPartyTransfersForbidden","inputs":[{"name":"","type":"address","internalType":"contract IStrategy"}],"outputs":[{"name":"","type":"bool","internalType":"bool"}],"stateMutability":"view"},{"type":"function","name":"transferOwnership","inputs":[{"name":"newOwner","type":"address","internalType":"address"}],"outputs":[],"stateMutability":"nonpayable"},{"type":"function","name":"withdrawSharesAsTokens","inputs":[{"name":"recipient","type":"address","internalType":"address"},{"name":"strategy","type":"address","internalType":"contract IStrategy"},{"name":"shares","type":"uint256","internalType":"uint256"},{"name":"token","type":"address","internalType":"contract IERC20"}],"outputs":[],"stateMutability":"nonpayable"},{"type":"function","name":"withdrawalRootPending","inputs":[{"name":"","type":"bytes32","internalType":"bytes32"}],"outputs":[{"name":"","type":"bool","internalType":"bool"}],"stateMutability":"view"},{"type":"event","name":"Deposit","inputs":[{"name":"staker","type":"address","indexed":false,"internalType":"address"},{"name":"token","type":"address","indexed":false,"internalType":"contract IERC20"},{"name":"strategy","type":"address","indexed":false,"internalType":"contract IStrategy"},{"name":"shares","type":"uint256","indexed":false,"internalType":"uint256"}],"anonymous":false},{"type":"event","name":"Initialized","inputs":[{"name":"version","type":"uint64","indexed":false,"internalType":"uint64"}],"anonymous":false},{"type":"event","name":"OwnershipTransferred","inputs":[{"name":"previousOwner","type":"address","indexed":true,"internalType":"address"},{"name":"newOwner","type":"address","indexed":true,"internalType":"address"}],"anonymous":false},{"type":"event","name":"StrategyAddedToDepositWhitelist","inputs":[{"name":"strategy","type":"address","indexed":false,"internalType":"contract IStrategy"}],"anonymous":false},{"type":"event","name":"StrategyRemovedFromDepositWhitelist","inputs":[{"name":"strategy","type":"address","indexed":false,"internalType":"contract IStrategy"}],"anonymous":false},{"type":"event","name":"StrategyWhitelisterChanged","inputs":[{"name":"previousAddress","type":"address","indexed":false,"internalType":"address"},{"name":"newAddress","type":"address","indexed":false,"internalType":"address"}],"anonymous":false},{"type":"event","name":"UpdatedThirdPartyTransfersForbidden","inputs":[{"name":"strategy","type":"address","indexed":false,"internalType":"contract IStrategy"},{"name":"value","type":"bool","indexed":false,"internalType":"bool"}],"anonymous":false},{"type":"error","name":"AddressEmptyCode","inputs":[{"name":"target","type":"address","internalType":"address"}]},{"type":"error","name":"AddressInsufficientBalance","inputs":[{"name":"account","type":"address","internalType":"address"}]},{"type":"error","name":"ECDSAInvalidSignature","inputs":[]},{"type":"error","name":"ECDSAInvalidSignatureLength","inputs":[{"name":"length","type":"uint256","internalType":"uint256"}]},{"type":"error","name":"ECDSAInvalidSignatureS","inputs":[{"name":"s","type":"bytes32","internalType":"bytes32"}]},{"type":"error","name":"FailedInnerCall","inputs":[]},{"type":"error","name":"InvalidInitialization","inputs":[]},{"type":"error","name":"NotInitializing","inputs":[]},{"type":"error","name":"OwnableInvalidOwner","inputs":[{"name":"owner","type":"address","internalType":"address"}]},{"type":"error","name":"OwnableUnauthorizedAccount","inputs":[{"name":"account","type":"address","internalType":"address"}]},{"type":"error","name":"ReentrancyGuardReentrantCall","inputs":[]},{"type":"error","name":"SafeERC20FailedOperation","inputs":[{"name":"token","type":"address","internalType":"address"}]}],"bytecode":{"object":"0x60a06040523480156200001157600080fd5b506200001c62000026565b46608052620000da565b7ff0c57e16840df040f15088dc2f81fe391c3923bec73e23a9662efc9c229c6a00805468010000000000000000900460ff1615620000775760405163f92ee8a960e01b815260040160405180910390fd5b80546001600160401b0390811614620000d75780546001600160401b0319166001600160401b0390811782556040519081527fc7f505b2f371ae2175ee4913f4499e1f2633a7b5936321eed1cdaeb6115181d29060200160405180910390a15b50565b60805161329a620000f66000396000611548015261329a6000f3fe608060405234801561001057600080fd5b50600436106101f05760003560e01c80639b4da03d1161010f578063c6656702116100a2578063df5b354711610071578063df5b35471461050c578063df5cf7231461051f578063f2fde38b14610532578063f698da251461054557600080fd5b8063c6656702146104a9578063cbc2bd62146104bc578063cbc336c2146104cf578063cd293f6f146104e257600080fd5b8063b5d8b5b8116100de578063b5d8b5b81461044d578063c3c6b3a914610460578063c4623ea114610483578063c608c7f31461049657600080fd5b80639b4da03d146103f15780639fd0506d14610414578063b134427114610427578063b43b514b1461043a57600080fd5b806372e80be6116101875780638c80d4e5116101565780638c80d4e5146103665780638da5cb5b1461037957806394f649dd146103bd578063967fc0d2146103de57600080fd5b806372e80be6146102df5780637a7e0d92146102f25780637ecebe001461031d5780638b8aac3c1461033d57600080fd5b806348825e94116101c357806348825e941461026a5780634e5a426314610291578063663c1de4146102a4578063715018a6146102d757600080fd5b80630891e0ed146101f55780631459457a1461021b57806320606b7014610230578063422e73e514610257575b600080fd5b61020861020336600461270e565b61054d565b6040519081526020015b60405180910390f35b61022e610229366004612794565b6107b5565b005b6102087f8cad95687ba82c2ce50e74f7b754645e5117c3a5bec8151c0726d5857980a86681565b610208610265366004612805565b610918565b6102087f4337f82d142e41f2a8c10547cd8c859bddb92262a61058e77842e24d9dea922481565b61022e61029f36600461283f565b610a25565b6102c76102b2366004612878565b60086020526000908152604090205460ff1681565b6040519015158152602001610212565b61022e610a5d565b6102086102ed366004612895565b610a71565b6102086103003660046128d6565b600460209081526000928352604080842090915290825290205481565b61020861032b366004612878565b60016020526000908152604090205481565b61020861034b366004612878565b6001600160a01b031660009081526005602052604090205490565b61022e610374366004612895565b610b81565b7f9016d09d72d40fdae2fd8ceac6b6234c7706214fd39c1cd1e609a0528c199300546001600160a01b03165b6040516001600160a01b039091168152602001610212565b6103d06103cb366004612878565b610bbc565b60405161021292919061297a565b6002546103a5906001600160a01b031681565b6102c76103ff366004612878565b600a6020526000908152604090205460ff1681565b6034546103a5906001600160a01b031681565b6033546103a5906001600160a01b031681565b610208610448366004612b20565b610d3b565b61022e61045b366004612c40565b610d88565b6102c761046e366004612c81565b60066020526000908152604090205460ff1681565b61022e610491366004612c9a565b610efc565b61022e6104a4366004612ceb565b610f32565b61022e6104b7366004612878565b610fc4565b6103a56104ca366004612805565b610fd8565b6102086104dd366004612d3e565b611010565b6104f56104f0366004612b20565b611268565b604080519215158352602083019190915201610212565b61022e61051a366004612db3565b6112e0565b6032546103a5906001600160a01b031681565b61022e610540366004612878565b611509565b610208611544565b6000610557611581565b603460009054906101000a90046001600160a01b03166001600160a01b0316633830f4b26040518163ffffffff1660e01b8152600401602060405180830381865afa1580156105aa573d6000803e3d6000fd5b505050506040513d601f19601f820116820180604052508101906105ce9190612e1e565b6106455760405162461bcd60e51b815260206004820152603b60248201527f53747261746567794d616e616765723a6465706f73697457455448496e746f5360448201527f74726174656779576974685369676e617475726520706175736564000000000060648201526084015b60405180910390fd5b6001600160a01b0387166000908152600a602052604090205460ff161561067e5760405162461bcd60e51b815260040161063c90612e3b565b4283101561069e5760405162461bcd60e51b815260040161063c90612eab565b6001600160a01b038481166000818152600160208181526040808420805482517f4337f82d142e41f2a8c10547cd8c859bddb92262a61058e77842e24d9dea9224818601528084018890528f89166060820152978e16608089015260a088018d905260c0880181905260e08089018c90528351808a03909101815261010090980190925286519683019690962094845290829052908101909355610740611544565b60405161190160f01b60208201526022810191909152604281018390526062016040516020818303038152906040528051906020012090506107838782876115b9565b61078f878b8b8b611778565b93505050506107ab600160008051602061324583398151915255565b9695505050505050565b7ff0c57e16840df040f15088dc2f81fe391c3923bec73e23a9662efc9c229c6a008054600160401b810460ff1615906001600160401b03166000811580156107fa5750825b90506000826001600160401b031660011480156108165750303b155b905081158015610824575080155b156108425760405163f92ee8a960e01b815260040160405180910390fd5b845467ffffffffffffffff19166001178555831561086c57845460ff60401b1916600160401b1785555b6108746118b7565b6000556108808a61194c565b610889896119bd565b603280546001600160a01b03808b166001600160a01b031992831617909255603380548a84169083161790556034805492891692909116919091179055831561090c57845460ff60401b19168555604051600181527fc7f505b2f371ae2175ee4913f4499e1f2633a7b5936321eed1cdaeb6115181d29060200160405180910390a15b50505050505050505050565b6000610922611581565b603460009054906101000a90046001600160a01b03166001600160a01b0316633830f4b26040518163ffffffff1660e01b8152600401602060405180830381865afa158015610975573d6000803e3d6000fd5b505050506040513d601f19601f820116820180604052508101906109999190612e1e565b6109fb5760405162461bcd60e51b815260206004820152602d60248201527f53747261746567794d616e616765723a6465706f736974455448496e746f537460448201526c1c985d1959de481c185d5cd959609a1b606482015260840161063c565b610a06338484611a26565b9050610a1f600160008051602061324583398151915255565b92915050565b6002546001600160a01b03163314610a4f5760405162461bcd60e51b815260040161063c90612f14565b610a598282611bac565b5050565b610a65611c1a565b610a6f600061194c565b565b6000610a7b611581565b603460009054906101000a90046001600160a01b03166001600160a01b0316633830f4b26040518163ffffffff1660e01b8152600401602060405180830381865afa158015610ace573d6000803e3d6000fd5b505050506040513d601f19601f82011682018060405250810190610af29190612e1e565b610b555760405162461bcd60e51b815260206004820152602e60248201527f53747261746567794d616e616765723a6465706f73697457455448496e746f5360448201526d1d1c985d1959de481c185d5cd95960921b606482015260840161063c565b610b6133858585611778565b9050610b7a600160008051602061324583398151915255565b9392505050565b6032546001600160a01b03163314610bab5760405162461bcd60e51b815260040161063c90612f7e565b610bb6838383611c75565b50505050565b6001600160a01b038116600090815260056020526040812054606091829190816001600160401b03811115610bf357610bf3612631565b604051908082528060200260200182016040528015610c1c578160200160208202803683370190505b50905060005b82811015610cad576001600160a01b038616600090815260046020908152604080832060059092528220805491929184908110610c6157610c61612fdc565b60009182526020808320909101546001600160a01b031683528201929092526040019020548251839083908110610c9a57610c9a612fdc565b6020908102919091010152600101610c22565b5060056000866001600160a01b03166001600160a01b031681526020019081526020016000208181805480602002602001604051908101604052809291908181526020018280548015610d2957602002820191906000526020600020905b81546001600160a01b03168152600190910190602001808311610d0b575b50505050509150935093505050915091565b80516020808301516040808501516060860151608087015160a08801519351600097610d6b979096959101612ff2565b604051602081830303815290604052805190602001209050919050565b6002546001600160a01b03163314610db25760405162461bcd60e51b815260040161063c90612f14565b8060005b81811015610bb65760086000858584818110610dd457610dd4612fdc565b9050602002016020810190610de99190612878565b6001600160a01b0316815260208101919091526040016000205460ff1615610ef457600060086000868685818110610e2357610e23612fdc565b9050602002016020810190610e389190612878565b6001600160a01b031681526020810191909152604001600020805460ff19169115159190911790557f4074413b4b443e4e58019f2855a8765113358c7c72e39509c6af45fc0f5ba030848483818110610e9357610e93612fdc565b9050602002016020810190610ea89190612878565b6040516001600160a01b03909116815260200160405180910390a1610ef4848483818110610ed857610ed8612fdc565b9050602002016020810190610eed9190612878565b6000611bac565b600101610db6565b6032546001600160a01b03163314610f265760405162461bcd60e51b815260040161063c90612f7e565b610bb684848484611dd4565b6032546001600160a01b03163314610f5c5760405162461bcd60e51b815260040161063c90612f7e565b604051636ce5768960e11b81526001600160a01b0384169063d9caed1290610f8c9087908590879060040161306b565b600060405180830381600087803b158015610fa657600080fd5b505af1158015610fba573d6000803e3d6000fd5b5050505050505050565b610fcc611c1a565b610fd5816119bd565b50565b60056020528160005260406000208181548110610ff457600080fd5b6000918252602090912001546001600160a01b03169150829050565b600061101a611581565b603460009054906101000a90046001600160a01b03166001600160a01b0316633830f4b26040518163ffffffff1660e01b8152600401602060405180830381865afa15801561106d573d6000803e3d6000fd5b505050506040513d601f19601f820116820180604052508101906110919190612e1e565b6111035760405162461bcd60e51b815260206004820152603a60248201527f53747261746567794d616e616765723a6465706f736974455448496e746f537460448201527f726174656779576974685369676e617475726520706175736564000000000000606482015260840161063c565b6001600160a01b0386166000908152600a602052604090205460ff161561113c5760405162461bcd60e51b815260040161063c90612e3b565b4283101561115c5760405162461bcd60e51b815260040161063c90612eab565b6001600160a01b038481166000818152600160208181526040808420805482517f4337f82d142e41f2a8c10547cd8c859bddb92262a61058e77842e24d9dea922481860152808401889052978e166060890152608088018d905260a0880181905260c08089018c90528351808a03909101815260e0909801909252865196830196909620948452908290529081019093556111f5611544565b60405161190160f01b60208201526022810191909152604281018390526062016040516020818303038152906040528051906020012090506112388782876115b9565b611243878a8a611a26565b935050505061125f600160008051602061324583398151915255565b95945050505050565b60325460009081906001600160a01b031633146112975760405162461bcd60e51b815260040161063c90612f7e565b60006112a284610d3b565b6000818152600660205260408120549192509060ff16156112d757506000818152600660205260409020805460ff1916905560015b92509050915091565b6002546001600160a01b0316331461130a5760405162461bcd60e51b815260040161063c90612f14565b8281146113935760405162461bcd60e51b815260206004820152604b60248201527f53747261746567794d616e616765722e61646453747261746567696573546f4460448201527f65706f73697457686974656c6973743a206172726179206c656e67746873206460648201526a0de40dcdee840dac2e8c6d60ab1b608482015260a40161063c565b8260005b8181101561150157600860008787848181106113b5576113b5612fdc565b90506020020160208101906113ca9190612878565b6001600160a01b0316815260208101919091526040016000205460ff166114f95760016008600088888581811061140357611403612fdc565b90506020020160208101906114189190612878565b6001600160a01b031681526020810191909152604001600020805460ff19169115159190911790557f0c35b17d91c96eb2751cd456e1252f42a386e524ef9ff26ecc9950859fdc04fe86868381811061147357611473612fdc565b90506020020160208101906114889190612878565b6040516001600160a01b03909116815260200160405180910390a16114f98686838181106114b8576114b8612fdc565b90506020020160208101906114cd9190612878565b8585848181106114df576114df612fdc565b90506020020160208101906114f4919061308f565b611bac565b600101611397565b505050505050565b611511611c1a565b6001600160a01b03811661153b57604051631e4fbdf760e01b81526000600482015260240161063c565b610fd58161194c565b60007f00000000000000000000000000000000000000000000000000000000000000004603611574575060005490565b61157c6118b7565b905090565b6000805160206132458339815191528054600119016115b357604051633ee5aeb560e01b815260040160405180910390fd5b60029055565b6001600160a01b0383163b156116d857604051630b135d3f60e11b808252906001600160a01b03851690631626ba7e906115f990869086906004016130d0565b602060405180830381865afa158015611616573d6000803e3d6000fd5b505050506040513d601f19601f8201168201806040525081019061163a919061310a565b6001600160e01b031916146116d35760405162461bcd60e51b815260206004820152605360248201527f454950313237315369676e61747572655574696c732e636865636b5369676e6160448201527f747572655f454950313237313a2045524331323731207369676e6174757265206064820152721d995c9a599a58d85d1a5bdb8819985a5b1959606a1b608482015260a40161063c565b505050565b826001600160a01b03166116ec8383612068565b6001600160a01b0316146116d35760405162461bcd60e51b815260206004820152604760248201527f454950313237315369676e61747572655574696c732e636865636b5369676e6160448201527f747572655f454950313237313a207369676e6174757265206e6f742066726f6d6064820152661039b4b3b732b960c91b608482015260a40161063c565b6001600160a01b038316600090815260086020526040812054849060ff166117b25760405162461bcd60e51b815260040161063c90613134565b6117c76001600160a01b038516338786612092565b6040516311f9fbc960e21b81526001600160a01b038581166004830152602482018590528616906347e7ef24906044016020604051808303816000875af1158015611816573d6000803e3d6000fd5b505050506040513d601f19601f8201168201806040525081019061183a91906131a7565b915061184886858785611dd4565b603254604051631452b9d760e11b81526001600160a01b03909116906328a573ae9061187c9089908990879060040161306b565b600060405180830381600087803b15801561189657600080fd5b505af11580156118aa573d6000803e3d6000fd5b5050505050949350505050565b6040805180820182526008815267446170704c696e6b60c01b60209182015281517f8cad95687ba82c2ce50e74f7b754645e5117c3a5bec8151c0726d5857980a866818301527fdadb978fc98e6e975439bb996be670dd8e228496518e61b3cb48e91f9251c40d81840152466060820152306080808301919091528351808303909101815260a0909101909252815191012090565b7f9016d09d72d40fdae2fd8ceac6b6234c7706214fd39c1cd1e609a0528c19930080546001600160a01b031981166001600160a01b03848116918217845560405192169182907f8be0079c531659141344cd1fd0a4f28419497f9722a3daafe3b4186f6b6457e090600090a3505050565b600254604080516001600160a01b03928316815291831660208301527f4264275e593955ff9d6146a51a4525f6ddace2e81db9391abcc9d1ca48047d29910160405180910390a1600280546001600160a01b0319166001600160a01b0392909216919091179055565b6001600160a01b038216600090815260086020526040812054839060ff16611a605760405162461bcd60e51b815260040161063c90613134565b6040516001600160a01b0385169084156108fc029085906000818181858888f19350505050158015611a96573d6000803e3d6000fd5b506040516311f9fbc960e21b815273eeeeeeeeeeeeeeeeeeeeeeeeeeeeeeeeeeeeeeee6004820152602481018490526001600160a01b038516906347e7ef24906044016020604051808303816000875af1158015611af8573d6000803e3d6000fd5b505050506040513d601f19601f82011682018060405250810190611b1c91906131a7565b9150611b3e8573eeeeeeeeeeeeeeeeeeeeeeeeeeeeeeeeeeeeeeee8685611dd4565b603254604051631452b9d760e11b81526001600160a01b03909116906328a573ae90611b729088908890879060040161306b565b600060405180830381600087803b158015611b8c57600080fd5b505af1158015611ba0573d6000803e3d6000fd5b50505050509392505050565b604080516001600160a01b038416815282151560208201527f77d930df4937793473a95024d87a98fd2ccb9e92d3c2463b3dacd65d3e6a5786910160405180910390a16001600160a01b03919091166000908152600a60205260409020805460ff1916911515919091179055565b33611c4c7f9016d09d72d40fdae2fd8ceac6b6234c7706214fd39c1cd1e609a0528c199300546001600160a01b031690565b6001600160a01b031614610a6f5760405163118cdaa760e01b815233600482015260240161063c565b600081600003611ced5760405162461bcd60e51b815260206004820152603e60248201527f53747261746567794d616e616765722e5f72656d6f76655368617265733a207360448201527f68617265416d6f756e742073686f756c64206e6f74206265207a65726f210000606482015260840161063c565b6001600160a01b0380851660009081526004602090815260408083209387168352929052205480831115611d7f5760405162461bcd60e51b815260206004820152603360248201527f53747261746567794d616e616765722e5f72656d6f76655368617265733a20736044820152720d0c2e4ca82dadeeadce840e8dede40d0d2ced606b1b606482015260840161063c565b6001600160a01b03808616600090815260046020908152604080832093881683529290529081209184900391829055819003611dc957611dbf85856120ec565b6001915050610b7a565b506000949350505050565b6001600160a01b038416611e505760405162461bcd60e51b815260206004820152603960248201527f53747261746567794d616e616765722e5f6164645368617265733a207374616b60448201527f65722063616e6e6f74206265207a65726f206164647265737300000000000000606482015260840161063c565b80600003611ebf5760405162461bcd60e51b815260206004820152603660248201527f53747261746567794d616e616765722e5f6164645368617265733a207368617260448201527565732073686f756c64206e6f74206265207a65726f2160501b606482015260840161063c565b6001600160a01b0380851660009081526004602090815260408083209386168352929052908120549003611fd4576001600160a01b03841660009081526005602090815260409091205410611f955760405162461bcd60e51b815260206004820152605060248201527f53747261746567794d616e616765722e5f6164645368617265733a206465706f60448201527f73697420776f756c6420657863656564204d41585f5354414b45525f5354524160648201526f0a88a8eb2be9892a6a8be988a9c8ea8960831b608482015260a40161063c565b6001600160a01b0384811660009081526005602090815260408220805460018101825590835291200180546001600160a01b0319169184169190911790555b6001600160a01b0380851660009081526004602090815260408083209386168352929052908120805483929061200b9084906131d6565b9091555050604080516001600160a01b03868116825285811660208301528416818301526060810183905290517f7cfff908a4b583f36430b25d75964c458d8ede8a99bd61be750e97ee1b2f3a969181900360800190a150505050565b60008060008061207886866122dc565b9250925092506120888282612329565b5090949350505050565b610bb684856001600160a01b03166323b872dd8686866040516024016120ba9392919061306b565b604051602081830303815290604052915060e01b6020820180516001600160e01b0383818316178352505050506123e2565b6001600160a01b038216600090815260056020526040812054905b81811015612206576001600160a01b0384811660009081526005602052604090208054918516918390811061213e5761213e612fdc565b6000918252602090912001546001600160a01b0316036121fe576001600160a01b0384166000908152600560205260409020805461217e906001906131e9565b8154811061218e5761218e612fdc565b60009182526020808320909101546001600160a01b038781168452600590925260409092208054919092169190839081106121cb576121cb612fdc565b9060005260206000200160006101000a8154816001600160a01b0302191690836001600160a01b03160217905550612206565b600101612107565b81810361228d5760405162461bcd60e51b815260206004820152604960248201527f53747261746567794d616e616765722e5f72656d6f766553747261746567794660448201527f726f6d5374616b657253747261746567794c6973743a207374726174656779206064820152681b9bdd08199bdd5b9960ba1b608482015260a40161063c565b6001600160a01b03841660009081526005602052604090208054806122b4576122b46131fc565b600082815260209020810160001990810180546001600160a01b031916905501905550505050565b600080600083516041036123165760208401516040850151606086015160001a61230888828585612445565b955095509550505050612322565b50508151600091506002905b9250925092565b600082600381111561233d5761233d613212565b03612346575050565b600182600381111561235a5761235a613212565b036123785760405163f645eedf60e01b815260040160405180910390fd5b600282600381111561238c5761238c613212565b036123ad5760405163fce698f760e01b81526004810182905260240161063c565b60038260038111156123c1576123c1613212565b03610a59576040516335e2f38360e21b81526004810182905260240161063c565b60006123f76001600160a01b03841683612514565b9050805160001415801561241c57508080602001905181019061241a9190612e1e565b155b156116d357604051635274afe760e01b81526001600160a01b038416600482015260240161063c565b600080807f7fffffffffffffffffffffffffffffff5d576e7357a4501ddfe92f46681b20a0841115612480575060009150600390508261250a565b604080516000808252602082018084528a905260ff891692820192909252606081018790526080810186905260019060a0016020604051602081039080840390855afa1580156124d4573d6000803e3d6000fd5b5050604051601f1901519150506001600160a01b0381166125005750600092506001915082905061250a565b9250600091508190505b9450945094915050565b6060610b7a8383600084600080856001600160a01b0316848660405161253a9190613228565b60006040518083038185875af1925050503d8060008114612577576040519150601f19603f3d011682016040523d82523d6000602084013e61257c565b606091505b50915091506107ab86838360608261259c57612597826125e3565b610b7a565b81511580156125b357506001600160a01b0384163b155b156125dc57604051639996b31560e01b81526001600160a01b038516600482015260240161063c565b5080610b7a565b8051156125f35780518082602001fd5b604051630a12f52160e11b815260040160405180910390fd5b6001600160a01b0381168114610fd557600080fd5b803561262c8161260c565b919050565b634e487b7160e01b600052604160045260246000fd5b60405160c081016001600160401b038111828210171561266957612669612631565b60405290565b604051601f8201601f191681016001600160401b038111828210171561269757612697612631565b604052919050565b600082601f8301126126b057600080fd5b81356001600160401b038111156126c9576126c9612631565b6126dc601f8201601f191660200161266f565b8181528460208386010111156126f157600080fd5b816020850160208301376000918101602001919091529392505050565b60008060008060008060c0878903121561272757600080fd5b86356127328161260c565b955060208701356127428161260c565b94506040870135935060608701356127598161260c565b92506080870135915060a08701356001600160401b0381111561277b57600080fd5b61278789828a0161269f565b9150509295509295509295565b600080600080600060a086880312156127ac57600080fd5b85356127b78161260c565b945060208601356127c78161260c565b935060408601356127d78161260c565b925060608601356127e78161260c565b915060808601356127f78161260c565b809150509295509295909350565b6000806040838503121561281857600080fd5b82356128238161260c565b946020939093013593505050565b8015158114610fd557600080fd5b6000806040838503121561285257600080fd5b823561285d8161260c565b9150602083013561286d81612831565b809150509250929050565b60006020828403121561288a57600080fd5b8135610b7a8161260c565b6000806000606084860312156128aa57600080fd5b83356128b58161260c565b925060208401356128c58161260c565b929592945050506040919091013590565b600080604083850312156128e957600080fd5b82356128f48161260c565b9150602083013561286d8161260c565b60008151808452602080850194506020840160005b8381101561293e5781516001600160a01b031687529582019590820190600101612919565b509495945050505050565b60008151808452602080850194506020840160005b8381101561293e5781518752958201959082019060010161295e565b60408152600061298d6040830185612904565b828103602084015261125f8185612949565b60006001600160401b038211156129b8576129b8612631565b5060051b60200190565b600082601f8301126129d357600080fd5b813560206129e86129e38361299f565b61266f565b8083825260208201915060208460051b870101935086841115612a0a57600080fd5b602086015b84811015612a2f578035612a228161260c565b8352918301918301612a0f565b509695505050505050565b600082601f830112612a4b57600080fd5b81356020612a5b6129e38361299f565b8083825260208201915060208460051b870101935086841115612a7d57600080fd5b602086015b84811015612a2f5780358352918301918301612a82565b600060408284031215612aab57600080fd5b604051604081018181106001600160401b0382111715612acd57612acd612631565b6040529050808235612ade8161260c565b815260208301356bffffffffffffffffffffffff81168114612aff57600080fd5b6020919091015292915050565b803563ffffffff8116811461262c57600080fd5b600060208284031215612b3257600080fd5b81356001600160401b0380821115612b4957600080fd5b9083019060e08286031215612b5d57600080fd5b612b65612647565b823582811115612b7457600080fd5b612b80878286016129c2565b825250602083013582811115612b9557600080fd5b612ba187828601612a3a565b602083015250612bb360408401612621565b6040820152612bc58660608501612a99565b6060820152612bd660a08401612b0c565b6080820152612be760c08401612621565b60a082015295945050505050565b60008083601f840112612c0757600080fd5b5081356001600160401b03811115612c1e57600080fd5b6020830191508360208260051b8501011115612c3957600080fd5b9250929050565b60008060208385031215612c5357600080fd5b82356001600160401b03811115612c6957600080fd5b612c7585828601612bf5565b90969095509350505050565b600060208284031215612c9357600080fd5b5035919050565b60008060008060808587031215612cb057600080fd5b8435612cbb8161260c565b93506020850135612ccb8161260c565b92506040850135612cdb8161260c565b9396929550929360600135925050565b60008060008060808587031215612d0157600080fd5b8435612d0c8161260c565b93506020850135612d1c8161260c565b9250604085013591506060850135612d338161260c565b939692955090935050565b600080600080600060a08688031215612d5657600080fd5b8535612d618161260c565b9450602086013593506040860135612d788161260c565b92506060860135915060808601356001600160401b03811115612d9a57600080fd5b612da68882890161269f565b9150509295509295909350565b60008060008060408587031215612dc957600080fd5b84356001600160401b0380821115612de057600080fd5b612dec88838901612bf5565b90965094506020870135915080821115612e0557600080fd5b50612e1287828801612bf5565b95989497509550505050565b600060208284031215612e3057600080fd5b8151610b7a81612831565b6020808252604a908201527f53747261746567794d616e616765722e6465706f736974496e746f537472617460408201527f656779576974685369676e61747572653a207468697264207472616e736665726060820152691cc8191a5cd8589b195960b21b608082015260a00190565b60208082526043908201527f53747261746567794d616e616765722e6465706f736974496e746f537472617460408201527f656779576974685369676e61747572653a207369676e617475726520657870696060820152621c995960ea1b608082015260a00190565b60208082526044908201527f53747261746567794d616e616765722e6f6e6c7953747261746567795768697460408201527f656c69737465723a206e6f742074686520737472617465677957686974656c6960608201526339ba32b960e11b608082015260a00190565b602080825260409082018190527f53747261746567794d616e616765722e6f6e6c7944656c65676174696f6e4d61908201527f6e616765723a206e6f74207468652044656c65676174696f6e4d616e61676572606082015260800190565b634e487b7160e01b600052603260045260246000fd5b60e08152600061300560e0830189612904565b82810360208401526130178189612949565b6001600160a01b0397881660408501528651881660608501526020909601516bffffffffffffffffffffffff166080840152505063ffffffff9290921660a083015290921660c09092019190915292915050565b6001600160a01b039384168152919092166020820152604081019190915260600190565b6000602082840312156130a157600080fd5b8135610b7a81612831565b60005b838110156130c75781810151838201526020016130af565b50506000910152565b82815260406020820152600082518060408401526130f58160608501602087016130ac565b601f01601f1916919091016060019392505050565b60006020828403121561311c57600080fd5b81516001600160e01b031981168114610b7a57600080fd5b6020808252604d908201527f53747261746567794d616e616765722e6f6e6c7953747261746567696573576860408201527f6974656c6973746564466f724465706f7369743a207374726174656779206e6f60608201526c1d081dda1a5d195b1a5cdd1959609a1b608082015260a00190565b6000602082840312156131b957600080fd5b5051919050565b634e487b7160e01b600052601160045260246000fd5b80820180821115610a1f57610a1f6131c0565b81810381811115610a1f57610a1f6131c0565b634e487b7160e01b600052603160045260246000fd5b634e487b7160e01b600052602160045260246000fd5b6000825161323a8184602087016130ac565b919091019291505056fe9b779b17422d0df92223018b32b4d1fa46e071723d6817e2486d003becc55f00a264697066735822122075f72cda1b987223288d9340f2b5e06ca37701411ba8b8bf9393c3581d44f47f64736f6c63430008180033","linkReferences":{}},"methodIdentifiers":{"DEPOSIT_TYPEHASH()":"48825e94","DOMAIN_TYPEHASH()":"20606b70","addShares(address,address,address,uint256)":"c4623ea1","addStrategiesToDepositWhitelist(address[],bool[])":"df5b3547","calculateWithdrawalRoot((address[],uint256[],address,(address,uint96),uint32,address))":"b43b514b","delegation()":"df5cf723","depositETHIntoStrategy(address,uint256)":"422e73e5","depositETHIntoStrategyWithSignature(address,uint256,address,uint256,bytes)":"cbc336c2","depositWETHIntoStrategy(address,address,uint256)":"72e80be6","depositWETHIntoStrategyWithSignature(address,address,uint256,address,uint256,bytes)":"0891e0ed","domainSeparator()":"f698da25","getDeposits(address)":"94f649dd","initialize(address,address,address,address,address)":"1459457a","migrateQueuedWithdrawal((address[],uint256[],address,(address,uint96),uint32,address))":"cd293f6f","nonces(address)":"7ecebe00","owner()":"8da5cb5b","pauser()":"9fd0506d","removeShares(address,address,uint256)":"8c80d4e5","removeStrategiesFromDepositWhitelist(address[])":"b5d8b5b8","renounceOwnership()":"715018a6","setStrategyWhitelister(address)":"c6656702","setThirdPartyTransfersForbidden(address,bool)":"4e5a4263","slasher()":"b1344271","stakerStrategyList(address,uint256)":"cbc2bd62","stakerStrategyListLength(address)":"8b8aac3c","stakerStrategyShares(address,address)":"7a7e0d92","strategyIsWhitelistedForDeposit(address)":"663c1de4","strategyWhitelister()":"967fc0d2","thirdPartyTransfersForbidden(address)":"9b4da03d","transferOwnership(address)":"f2fde38b","withdrawSharesAsTokens(address,address,uint256,address)":"c608c7f3","withdrawalRootPending(bytes32)":"c3c6b3a9"},"id":90}