{"abi":[{"type":"constructor","inputs":[],"stateMutability":"nonpayable"},{"type":"fallback","stateMutability":"payable"},{"type":"receive","stateMutability":"payable"},{"type":"function","name":"ALLOCATOR_SERVICE_ROLE","inputs":[],"outputs":[{"name":"","type":"bytes32","internalType":"bytes32"}],"stateMutability":"view"},{"type":"function","name":"DEFAULT_ADMIN_ROLE","inputs":[],"outputs":[{"name":"","type":"bytes32","internalType":"bytes32"}],"stateMutability":"view"},{"type":"function","name":"INITIATOR_SERVICE_ROLE","inputs":[],"outputs":[{"name":"","type":"bytes32","internalType":"bytes32"}],"stateMutability":"view"},{"type":"function","name":"STAKING_ALLOWLIST_MANAGER_ROLE","inputs":[],"outputs":[{"name":"","type":"bytes32","internalType":"bytes32"}],"stateMutability":"view"},{"type":"function","name":"STAKING_ALLOWLIST_ROLE","inputs":[],"outputs":[{"name":"","type":"bytes32","internalType":"bytes32"}],"stateMutability":"view"},{"type":"function","name":"STAKING_MANAGER_ROLE","inputs":[],"outputs":[{"name":"","type":"bytes32","internalType":"bytes32"}],"stateMutability":"view"},{"type":"function","name":"TOP_UP_ROLE","inputs":[],"outputs":[{"name":"","type":"bytes32","internalType":"bytes32"}],"stateMutability":"view"},{"type":"function","name":"allocateETH","inputs":[{"name":"allocateToUnstakeRequestsManager","type":"uint256","internalType":"uint256"},{"name":"allocateToDeposits","type":"uint256","internalType":"uint256"}],"outputs":[],"stateMutability":"nonpayable"},{"type":"function","name":"allocatedETHForDeposits","inputs":[],"outputs":[{"name":"","type":"uint256","internalType":"uint256"}],"stateMutability":"view"},{"type":"function","name":"batchDethAmount","inputs":[],"outputs":[{"name":"","type":"uint256","internalType":"uint256"}],"stateMutability":"view"},{"type":"function","name":"claimUnstakeRequest","inputs":[{"name":"unstakeRequestID","type":"uint256","internalType":"uint256"},{"name":"bridge","type":"address","internalType":"address"},{"name":"sourceChainId","type":"uint256","internalType":"uint256"},{"name":"destChainId","type":"uint256","internalType":"uint256"},{"name":"gasLimit","type":"uint256","internalType":"uint256"}],"outputs":[],"stateMutability":"nonpayable"},{"type":"function","name":"dETH","inputs":[],"outputs":[{"name":"","type":"address","internalType":"contract IDETH"}],"stateMutability":"view"},{"type":"function","name":"dETHToETH","inputs":[{"name":"dETHAmount","type":"uint256","internalType":"uint256"}],"outputs":[{"name":"","type":"uint256","internalType":"uint256"}],"stateMutability":"view"},{"type":"function","name":"dapplinkBridge","inputs":[],"outputs":[{"name":"","type":"address","internalType":"address"}],"stateMutability":"view"},{"type":"function","name":"depositContract","inputs":[],"outputs":[{"name":"","type":"address","internalType":"contract IDepositContract"}],"stateMutability":"view"},{"type":"function","name":"ethToDETH","inputs":[{"name":"ethAmount","type":"uint256","internalType":"uint256"}],"outputs":[{"name":"","type":"uint256","internalType":"uint256"}],"stateMutability":"view"},{"type":"function","name":"exchangeAdjustmentRate","inputs":[],"outputs":[{"name":"","type":"uint16","internalType":"uint16"}],"stateMutability":"view"},{"type":"function","name":"getRoleAdmin","inputs":[{"name":"role","type":"bytes32","internalType":"bytes32"}],"outputs":[{"name":"","type":"bytes32","internalType":"bytes32"}],"stateMutability":"view"},{"type":"function","name":"getRoleMember","inputs":[{"name":"role","type":"bytes32","internalType":"bytes32"},{"name":"index","type":"uint256","internalType":"uint256"}],"outputs":[{"name":"","type":"address","internalType":"address"}],"stateMutability":"view"},{"type":"function","name":"getRoleMemberCount","inputs":[{"name":"role","type":"bytes32","internalType":"bytes32"}],"outputs":[{"name":"","type":"uint256","internalType":"uint256"}],"stateMutability":"view"},{"type":"function","name":"grantRole","inputs":[{"name":"role","type":"bytes32","internalType":"bytes32"},{"name":"account","type":"address","internalType":"address"}],"outputs":[],"stateMutability":"nonpayable"},{"type":"function","name":"hasRole","inputs":[{"name":"role","type":"bytes32","internalType":"bytes32"},{"name":"account","type":"address","internalType":"address"}],"outputs":[{"name":"","type":"bool","internalType":"bool"}],"stateMutability":"view"},{"type":"function","name":"initializationBlockNumber","inputs":[],"outputs":[{"name":"","type":"uint256","internalType":"uint256"}],"stateMutability":"view"},{"type":"function","name":"initialize","inputs":[{"name":"init","type":"tuple","internalType":"struct StakingManager.Init","components":[{"name":"admin","type":"address","internalType":"address"},{"name":"manager","type":"address","internalType":"address"},{"name":"allocatorService","type":"address","internalType":"address"},{"name":"initiatorService","type":"address","internalType":"address"},{"name":"returnsAggregator","type":"address","internalType":"address"},{"name":"withdrawalWallet","type":"address","internalType":"address"},{"name":"dapplinkBridge","type":"address","internalType":"address"},{"name":"dETH","type":"address","internalType":"contract IDETH"},{"name":"depositContract","type":"address","internalType":"contract IDepositContract"},{"name":"oracle","type":"address","internalType":"contract IOracleReadRecord"},{"name":"pauser","type":"address","internalType":"contract IL1Pauser"},{"name":"unstakeRequestsManager","type":"address","internalType":"contract IUnstakeRequestsManager"}]}],"outputs":[],"stateMutability":"nonpayable"},{"type":"function","name":"initiateValidatorsWithDeposits","inputs":[{"name":"validators","type":"tuple[]","internalType":"struct StakingManagerStorage.ValidatorParams[]","components":[{"name":"operatorID","type":"uint256","internalType":"uint256"},{"name":"depositAmount","type":"uint256","internalType":"uint256"},{"name":"pubkey","type":"bytes","internalType":"bytes"},{"name":"withdrawalCredentials","type":"bytes","internalType":"bytes"},{"name":"signature","type":"bytes","internalType":"bytes"},{"name":"depositDataRoot","type":"bytes32","internalType":"bytes32"}]},{"name":"expectedDepositRoot","type":"bytes32","internalType":"bytes32"}],"outputs":[],"stateMutability":"nonpayable"},{"type":"function","name":"isStakingAllowlist","inputs":[],"outputs":[{"name":"","type":"bool","internalType":"bool"}],"stateMutability":"view"},{"type":"function","name":"laveDethAmount","inputs":[],"outputs":[{"name":"","type":"uint256","internalType":"uint256"}],"stateMutability":"view"},{"type":"function","name":"maximumDETHSupply","inputs":[],"outputs":[{"name":"","type":"uint256","internalType":"uint256"}],"stateMutability":"view"},{"type":"function","name":"maximumDepositAmount","inputs":[],"outputs":[{"name":"","type":"uint256","internalType":"uint256"}],"stateMutability":"view"},{"type":"function","name":"minimumDepositAmount","inputs":[],"outputs":[{"name":"","type":"uint256","internalType":"uint256"}],"stateMutability":"view"},{"type":"function","name":"minimumStakeBound","inputs":[],"outputs":[{"name":"","type":"uint256","internalType":"uint256"}],"stateMutability":"view"},{"type":"function","name":"minimumUnstakeBound","inputs":[],"outputs":[{"name":"","type":"uint256","internalType":"uint256"}],"stateMutability":"view"},{"type":"function","name":"numInitiatedValidators","inputs":[],"outputs":[{"name":"","type":"uint256","internalType":"uint256"}],"stateMutability":"view"},{"type":"function","name":"oracle","inputs":[],"outputs":[{"name":"","type":"address","internalType":"contract IOracleReadRecord"}],"stateMutability":"view"},{"type":"function","name":"pauser","inputs":[],"outputs":[{"name":"","type":"address","internalType":"contract IL1Pauser"}],"stateMutability":"view"},{"type":"function","name":"receiveFromUnstakeRequestsManager","inputs":[],"outputs":[],"stateMutability":"payable"},{"type":"function","name":"receiveReturns","inputs":[],"outputs":[],"stateMutability":"payable"},{"type":"function","name":"reclaimAllocatedETHSurplus","inputs":[],"outputs":[],"stateMutability":"nonpayable"},{"type":"function","name":"renounceRole","inputs":[{"name":"role","type":"bytes32","internalType":"bytes32"},{"name":"callerConfirmation","type":"address","internalType":"address"}],"outputs":[],"stateMutability":"nonpayable"},{"type":"function","name":"returnsAggregator","inputs":[],"outputs":[{"name":"","type":"address","internalType":"address"}],"stateMutability":"view"},{"type":"function","name":"revokeRole","inputs":[{"name":"role","type":"bytes32","internalType":"bytes32"},{"name":"account","type":"address","internalType":"address"}],"outputs":[],"stateMutability":"nonpayable"},{"type":"function","name":"setExchangeAdjustmentRate","inputs":[{"name":"exchangeAdjustmentRate_","type":"uint16","internalType":"uint16"}],"outputs":[],"stateMutability":"nonpayable"},{"type":"function","name":"setMaximumDETHSupply","inputs":[{"name":"maximumDETHSupply_","type":"uint256","internalType":"uint256"}],"outputs":[],"stateMutability":"nonpayable"},{"type":"function","name":"setMaximumDepositAmount","inputs":[{"name":"maximumDepositAmount_","type":"uint256","internalType":"uint256"}],"outputs":[],"stateMutability":"nonpayable"},{"type":"function","name":"setMinimumDepositAmount","inputs":[{"name":"minimumDepositAmount_","type":"uint256","internalType":"uint256"}],"outputs":[],"stateMutability":"nonpayable"},{"type":"function","name":"setMinimumStakeBound","inputs":[{"name":"minimumStakeBound_","type":"uint256","internalType":"uint256"}],"outputs":[],"stateMutability":"nonpayable"},{"type":"function","name":"setMinimumUnstakeBound","inputs":[{"name":"minimumUnstakeBound_","type":"uint256","internalType":"uint256"}],"outputs":[],"stateMutability":"nonpayable"},{"type":"function","name":"setStakingAllowlist","inputs":[{"name":"isStakingAllowlist_","type":"bool","internalType":"bool"}],"outputs":[],"stateMutability":"nonpayable"},{"type":"function","name":"setWithdrawalWallet","inputs":[{"name":"withdrawalWallet_","type":"address","internalType":"address"}],"outputs":[],"stateMutability":"nonpayable"},{"type":"function","name":"stake","inputs":[{"name":"stakeAmount","type":"uint256","internalType":"uint256"}],"outputs":[],"stateMutability":"payable"},{"type":"function","name":"supportsInterface","inputs":[{"name":"interfaceId","type":"bytes4","internalType":"bytes4"}],"outputs":[{"name":"","type":"bool","internalType":"bool"}],"stateMutability":"view"},{"type":"function","name":"topUp","inputs":[],"outputs":[],"stateMutability":"payable"},{"type":"function","name":"totalControlled","inputs":[],"outputs":[{"name":"","type":"uint256","internalType":"uint256"}],"stateMutability":"view"},{"type":"function","name":"totalDepositedInValidators","inputs":[],"outputs":[{"name":"","type":"uint256","internalType":"uint256"}],"stateMutability":"view"},{"type":"function","name":"unallocatedETH","inputs":[],"outputs":[{"name":"","type":"uint256","internalType":"uint256"}],"stateMutability":"view"},{"type":"function","name":"unstakeRequest","inputs":[{"name":"dethAmount","type":"uint128","internalType":"uint128"}],"outputs":[],"stateMutability":"nonpayable"},{"type":"function","name":"unstakeRequestInfo","inputs":[{"name":"unstakeRequestID","type":"uint256","internalType":"uint256"}],"outputs":[{"name":"","type":"bool","internalType":"bool"},{"name":"","type":"uint256","internalType":"uint256"}],"stateMutability":"view"},{"type":"function","name":"unstakeRequestsManager","inputs":[],"outputs":[{"name":"","type":"address","internalType":"contract IUnstakeRequestsManager"}],"stateMutability":"view"},{"type":"function","name":"usedValidators","inputs":[{"name":"pubkey","type":"bytes","internalType":"bytes"}],"outputs":[{"name":"exists","type":"bool","internalType":"bool"}],"stateMutability":"view"},{"type":"function","name":"withdrawalWallet","inputs":[],"outputs":[{"name":"","type":"address","internalType":"address"}],"stateMutability":"view"},{"type":"event","name":"AllocatedETHToDeposits","inputs":[{"name":"amount","type":"uint256","indexed":false,"internalType":"uint256"}],"anonymous":false},{"type":"event","name":"AllocatedETHToUnstakeRequestsManager","inputs":[{"name":"amount","type":"uint256","indexed":false,"internalType":"uint256"}],"anonymous":false},{"type":"event","name":"Initialized","inputs":[{"name":"version","type":"uint64","indexed":false,"internalType":"uint64"}],"anonymous":false},{"type":"event","name":"ProtocolConfigChanged","inputs":[{"name":"setterSelector","type":"bytes4","indexed":true,"internalType":"bytes4"},{"name":"setterSignature","type":"string","indexed":false,"internalType":"string"},{"name":"value","type":"bytes","indexed":false,"internalType":"bytes"}],"anonymous":false},{"type":"event","name":"ReturnsReceived","inputs":[{"name":"amount","type":"uint256","indexed":false,"internalType":"uint256"}],"anonymous":false},{"type":"event","name":"RoleAdminChanged","inputs":[{"name":"role","type":"bytes32","indexed":true,"internalType":"bytes32"},{"name":"previousAdminRole","type":"bytes32","indexed":true,"internalType":"bytes32"},{"name":"newAdminRole","type":"bytes32","indexed":true,"internalType":"bytes32"}],"anonymous":false},{"type":"event","name":"RoleGranted","inputs":[{"name":"role","type":"bytes32","indexed":true,"internalType":"bytes32"},{"name":"account","type":"address","indexed":true,"internalType":"address"},{"name":"sender","type":"address","indexed":true,"internalType":"address"}],"anonymous":false},{"type":"event","name":"RoleRevoked","inputs":[{"name":"role","type":"bytes32","indexed":true,"internalType":"bytes32"},{"name":"account","type":"address","indexed":true,"internalType":"address"},{"name":"sender","type":"address","indexed":true,"internalType":"address"}],"anonymous":false},{"type":"event","name":"Staked","inputs":[{"name":"staker","type":"address","indexed":true,"internalType":"address"},{"name":"ethAmount","type":"uint256","indexed":false,"internalType":"uint256"},{"name":"dETHAmount","type":"uint256","indexed":false,"internalType":"uint256"}],"anonymous":false},{"type":"event","name":"UnstakeBatchRequest","inputs":[{"name":"batchId","type":"uint256","indexed":true,"internalType":"uint256"},{"name":"batchEthAmount","type":"uint256","indexed":false,"internalType":"uint256"},{"name":"batchDETHLocked","type":"uint256","indexed":false,"internalType":"uint256"}],"anonymous":false},{"type":"event","name":"UnstakeLaveAmount","inputs":[{"name":"staker","type":"address","indexed":true,"internalType":"address"},{"name":"dETHLocked","type":"uint256","indexed":false,"internalType":"uint256"}],"anonymous":false},{"type":"event","name":"UnstakeRequestClaimed","inputs":[{"name":"id","type":"uint256","indexed":true,"internalType":"uint256"},{"name":"staker","type":"address","indexed":true,"internalType":"address"},{"name":"bridge","type":"address","indexed":true,"internalType":"address"},{"name":"sourceChainId","type":"uint256","indexed":false,"internalType":"uint256"},{"name":"destChainId","type":"uint256","indexed":false,"internalType":"uint256"}],"anonymous":false},{"type":"event","name":"UnstakeSingle","inputs":[{"name":"staker","type":"address","indexed":true,"internalType":"address"},{"name":"dETHLocked","type":"uint256","indexed":false,"internalType":"uint256"}],"anonymous":false},{"type":"event","name":"ValidatorInitiated","inputs":[{"name":"id","type":"bytes32","indexed":true,"internalType":"bytes32"},{"name":"operatorID","type":"uint256","indexed":true,"internalType":"uint256"},{"name":"pubkey","type":"bytes","indexed":false,"internalType":"bytes"},{"name":"amountDeposited","type":"uint256","indexed":false,"internalType":"uint256"}],"anonymous":false},{"type":"error","name":"AccessControlBadConfirmation","inputs":[]},{"type":"error","name":"AccessControlUnauthorizedAccount","inputs":[{"name":"account","type":"address","internalType":"address"},{"name":"neededRole","type":"bytes32","internalType":"bytes32"}]},{"type":"error","name":"AddressEmptyCode","inputs":[{"name":"target","type":"address","internalType":"address"}]},{"type":"error","name":"AddressInsufficientBalance","inputs":[{"name":"account","type":"address","internalType":"address"}]},{"type":"error","name":"DoesNotReceiveETH","inputs":[]},{"type":"error","name":"FailedInnerCall","inputs":[]},{"type":"error","name":"InvalidConfiguration","inputs":[]},{"type":"error","name":"InvalidDepositRoot","inputs":[{"name":"","type":"bytes32","internalType":"bytes32"}]},{"type":"error","name":"InvalidInitialization","inputs":[]},{"type":"error","name":"InvalidWithdrawalCredentialsNotETH1","inputs":[{"name":"","type":"bytes12","internalType":"bytes12"}]},{"type":"error","name":"InvalidWithdrawalCredentialsWrongAddress","inputs":[{"name":"","type":"address","internalType":"address"}]},{"type":"error","name":"InvalidWithdrawalCredentialsWrongLength","inputs":[{"name":"","type":"uint256","internalType":"uint256"}]},{"type":"error","name":"MathOverflowedMulDiv","inputs":[]},{"type":"error","name":"MaximumDETHSupplyExceeded","inputs":[]},{"type":"error","name":"MaximumValidatorDepositExceeded","inputs":[]},{"type":"error","name":"MinimumDepositAmountNotSatisfied","inputs":[]},{"type":"error","name":"MinimumStakeBoundNotSatisfied","inputs":[]},{"type":"error","name":"MinimumUnstakeBoundNotSatisfied","inputs":[]},{"type":"error","name":"MinimumValidatorDepositNotSatisfied","inputs":[]},{"type":"error","name":"NotDappLinkBridge","inputs":[]},{"type":"error","name":"NotEnoughDepositETH","inputs":[]},{"type":"error","name":"NotEnoughUnallocatedETH","inputs":[]},{"type":"error","name":"NotInitializing","inputs":[]},{"type":"error","name":"NotReturnsAggregator","inputs":[]},{"type":"error","name":"NotUnstakeRequestsManager","inputs":[]},{"type":"error","name":"Paused","inputs":[]},{"type":"error","name":"PreviouslyUsedValidator","inputs":[]},{"type":"error","name":"SafeERC20FailedOperation","inputs":[{"name":"token","type":"address","internalType":"address"}]},{"type":"error","name":"UnstakeBelowMinimudETHAmount","inputs":[{"name":"ethAmount","type":"uint256","internalType":"uint256"},{"name":"expectedMinimum","type":"uint256","internalType":"uint256"}]},{"type":"error","name":"ZeroAddress","inputs":[]}],"bytecode":{"object":"0x60806040523480156200001157600080fd5b506200001c62000022565b620000d6565b7ff0c57e16840df040f15088dc2f81fe391c3923bec73e23a9662efc9c229c6a00805468010000000000000000900460ff1615620000735760405163f92ee8a960e01b815260040160405180910390fd5b80546001600160401b0390811614620000d35780546001600160401b0319166001600160401b0390811782556040519081527fc7f505b2f371ae2175ee4913f4499e1f2633a7b5936321eed1cdaeb6115181d29060200160405180910390a15b50565b61399180620000e66000396000f3fe60806040526004361061039a5760003560e01c80636fce8ab2116101dc578063b12de58611610102578063d938e492116100a0578063ea452b6d1161006f578063ea452b6d14610aba578063ed9daafb14610ad0578063ee210d8714610af0578063f1ec1e9714610b10576103b8565b8063d938e49214610a3e578063dc29f1de14610a5e578063e55d6cc014610a66578063e94ad65b14610a9a576103b8565b8063c151aa72116100dc578063c151aa72146109d6578063ca15c873146109de578063d547741f146109fe578063d70a6f3114610a1e576103b8565b8063b12de58614610994578063b91590b2146109aa578063bb635c65146109c0576103b8565b806389e80ed31161017a5780639fd0506d116101495780639fd0506d1461092c578063a217fddf1461094c578063a694fc3a14610961578063aab483d614610974576103b8565b806389e80ed3146108985780639010d07c146108cc57806391d14854146108ec57806399dd1deb1461090c576103b8565b80637dc0d1d0116101b65780637dc0d1d01461083a5780637dfcdd291461085a578063808d663f14610870578063854a63f614610878576103b8565b80636fce8ab2146107d057806375796f761461080457806378abb49b14610824576103b8565b806335ead2a4116102c15780634a7d80b31161025f5780635940d90b1161022e5780635940d90b1461076f57806360a0f62814610784578063670186791461079a5780636daa01a2146107b0576103b8565b80634a7d80b3146106de5780634d014f7f146106fe57806354e5f7611461071e5780635915ded114610734576103b8565b80633f550b3a1161029b5780633f550b3a1461066757806342d3915d1461068757806349336f0f146106a857806349de5a55146106be576103b8565b806335ead2a41461060f57806336568abe146106255780633937c0b314610645576103b8565b80631943190d11610339578063277f175811610308578063277f17581461056357806329d487041461059b5780632f2ff15d146105bb5780633101d910146105db576103b8565b80631943190d146104da57806319efd5c7146104ef5780631d2d35ce14610523578063248a9ca314610543576103b8565b806304f36cc21161037557806304f36cc2146104485780630633af7614610468578063080c279a14610496578063147d36d5146104ba576103b8565b80628db05b146103d157806301ffc9a7146103f35780630208e4b514610428576103b8565b366103b8576040516334352c7360e01b815260040160405180910390fd5b6040516334352c7360e01b815260040160405180910390fd5b3480156103dd57600080fd5b506103f16103ec366004612e4a565b610b47565b005b3480156103ff57600080fd5b5061041361040e366004612e63565b610bae565b60405190151581526020015b60405180910390f35b34801561043457600080fd5b506103f1610443366004612e8d565b610bd9565b34801561045457600080fd5b506103f1610463366004612f16565b611031565b34801561047457600080fd5b50603b546104839061ffff1681565b60405161ffff909116815260200161041f565b3480156104a257600080fd5b506104ac603c5481565b60405190815260200161041f565b3480156104c657600080fd5b506104ac6104d5366004612e4a565b6110ac565b3480156104e657600080fd5b506103f16111dd565b3480156104fb57600080fd5b506104ac7fe30bb2df90b65284acd0e8b5ebe3483bb2bbe65a08e43f0f9e8300fd8607ee1181565b34801561052f57600080fd5b506103f161053e366004612e4a565b611260565b34801561054f57600080fd5b506104ac61055e366004612e4a565b6112bc565b34801561056f57600080fd5b50603f54610583906001600160a01b031681565b6040516001600160a01b03909116815260200161041f565b3480156105a757600080fd5b506103f16105b6366004612f33565b6112de565b3480156105c757600080fd5b506103f16105d6366004612f7c565b611395565b3480156105e757600080fd5b506104ac7fe6ef7125bfa79685f3bd2e4c4cea243c1e988ebbc0801ab7641ae36b9e2c529181565b34801561061b57600080fd5b506104ac603a5481565b34801561063157600080fd5b506103f1610640366004612f7c565b6113b1565b34801561065157600080fd5b506104ac60008051602061393c83398151915281565b34801561067357600080fd5b50604454610583906001600160a01b031681565b34801561069357600080fd5b5060445461041390600160a01b900460ff1681565b3480156106b457600080fd5b506104ac60465481565b3480156106ca57600080fd5b506103f16106d9366004612fc1565b6113e9565b3480156106ea57600080fd5b50604354610583906001600160a01b031681565b34801561070a57600080fd5b506103f161071936600461301e565b6113f5565b34801561072a57600080fd5b506104ac60015481565b34801561074057600080fd5b5061041361074f36600461310a565b805160208183018101805160348252928201919093012091525460ff1681565b34801561077b57600080fd5b506104ac61170e565b34801561079057600080fd5b506104ac60355481565b3480156107a657600080fd5b506104ac60005481565b3480156107bc57600080fd5b506103f16107cb3660046131bb565b611877565b3480156107dc57600080fd5b506104ac7f5e4bd437d29fad01c10cdcfff414f0d6b0e84b96d2dade88d780d45b5630696b81565b34801561081057600080fd5b506103f161081f3660046131dd565b611a7a565b34801561083057600080fd5b506104ac603d5481565b34801561084657600080fd5b50604054610583906001600160a01b031681565b34801561086657600080fd5b506104ac60375481565b6103f1611b25565b34801561088457600080fd5b50604254610583906001600160a01b031681565b3480156108a457600080fd5b506104ac7fdec9d30de0821ad67aa5b141b13a539f584a19f99319e6041698a892b0e7955981565b3480156108d857600080fd5b506105836108e73660046131bb565b611b9b565b3480156108f857600080fd5b50610413610907366004612f7c565b611bca565b34801561091857600080fd5b506103f1610927366004612e4a565b611c02565b34801561093857600080fd5b50604154610583906001600160a01b031681565b34801561095857600080fd5b506104ac600081565b6103f161096f366004612e4a565b611c5e565b34801561098057600080fd5b506103f161098f366004612e4a565b611e88565b3480156109a057600080fd5b506104ac60395481565b3480156109b657600080fd5b506104ac60455481565b3480156109cc57600080fd5b506104ac60365481565b6103f1611ee4565b3480156109ea57600080fd5b506104ac6109f9366004612e4a565b611f21565b348015610a0a57600080fd5b506103f1610a19366004612f7c565b611f47565b348015610a2a57600080fd5b506103f1610a39366004612e4a565b611f63565b348015610a4a57600080fd5b50604754610583906001600160a01b031681565b6103f1611fbf565b348015610a7257600080fd5b506104ac7f8ea5b4dbd68db0bf23bf4cda958b61a749f8c5aec6f2912d75a03246753ddd1681565b348015610aa657600080fd5b50603e54610583906001600160a01b031681565b348015610ac657600080fd5b506104ac60385481565b348015610adc57600080fd5b506104ac610aeb366004612e4a565b612003565b348015610afc57600080fd5b506103f1610b0b3660046131fa565b6120ff565b348015610b1c57600080fd5b50610b30610b2b366004612e4a565b612299565b60408051921515835260208301919091520161041f565b60008051602061393c833981519152610b5f81612313565b60398290556040805160208101849052628db05b60e01b9160008051602061391c833981519152910160408051601f1981840301815290829052610ba291613292565b60405180910390a25050565b60006001600160e01b03198216635a05180f60e01b1480610bd35750610bd38261231d565b92915050565b7fe30bb2df90b65284acd0e8b5ebe3483bb2bbe65a08e43f0f9e8300fd8607ee11610c0381612313565b604160009054906101000a90046001600160a01b03166001600160a01b031663eea12ab66040518163ffffffff1660e01b8152600401602060405180830381865afa158015610c56573d6000803e3d6000fd5b505050506040513d601f19601f82011682018060405250810190610c7a91906132d9565b15610c98576040516313d0ff5960e31b815260040160405180910390fd5b821561102b57603e546040805163c5f2892f60e01b815290516000926001600160a01b03169163c5f2892f9160048083019260209291908290030181865afa158015610ce8573d6000803e3d6000fd5b505050506040513d601f19601f82011682018060405250810190610d0c91906132f6565b9050808314610d3657604051631497ae9360e01b8152600481018290526024015b60405180910390fd5b6000805b85811015610ee35736878783818110610d5557610d5561330f565b9050602002810190610d679190613325565b90506034610d786040830183613345565b604051610d86929190613393565b9081526040519081900360200190205460ff1615610db75760405163932c5b0d60e01b815260040160405180910390fd5b603c5481602001351015610dde576040516305cacc5560e21b815260040160405180910390fd5b603d5481602001351115610e0557604051630c25396f60e11b815260040160405180910390fd5b610e1a610e156060830183613345565b612352565b60016034610e2b6040840184613345565b604051610e39929190613393565b90815260405160209181900382019020805460ff191692151592909217909155610e6690820135846133b9565b92508035610e776040830183613345565b604051610e85929190613393565b60405180910390207f15f16c2e13e50235799a97b981bf4a66c8cd86051f06aca745c5ff26f39b330e838060400190610ebe9190613345565b8560200135604051610ed2939291906133f5565b60405180910390a350600101610d3a565b50603854811115610f07576040516307bb2bd760e21b815260040160405180910390fd5b8060386000828254610f199190613419565b925050819055508060356000828254610f3291906133b9565b909155505060368054869190600090610f4c9084906133b9565b90915550600090505b858110156110275736878783818110610f7057610f7061330f565b9050602002810190610f829190613325565b603e549091506001600160a01b031663228951186020830135610fa86040850185613345565b610fb56060870187613345565b610fc26080890189613345565b8960a001356040518963ffffffff1660e01b8152600401610fe9979695949392919061342c565b6000604051808303818588803b15801561100257600080fd5b505af1158015611016573d6000803e3d6000fd5b505050505050806001019050610f55565b5050505b50505050565b60008051602061393c83398151915261104981612313565b60448054831515600160a01b0260ff60a01b19909116179055604051630279b66160e11b9060008051602061391c83398151915290611092908590602001901515815260200190565b60408051601f1981840301815290829052610ba29161347d565b603f54604080516318160ddd60e01b815290516000926001600160a01b0316916318160ddd9160048083019260209291908290030181865afa1580156110f6573d6000803e3d6000fd5b505050506040513d601f19601f8201168201806040525081019061111a91906132f6565b600003611125575090565b603b54610bd390839061113e9061ffff166127106134c4565b61ffff16603f60009054906101000a90046001600160a01b03166001600160a01b03166318160ddd6040518163ffffffff1660e01b8152600401602060405180830381865afa158015611195573d6000803e3d6000fd5b505050506040513d601f19601f820116820180604052508101906111b991906132f6565b6111c391906134df565b6127106111ce61170e565b6111d891906134df565b612421565b60008051602061393c8339815191526111f581612313565b604260009054906101000a90046001600160a01b03166001600160a01b031663b2d42b466040518163ffffffff1660e01b8152600401600060405180830381600087803b15801561124557600080fd5b505af1158015611259573d6000803e3d6000fd5b5050505050565b60008051602061393c83398151915261127881612313565b60468290556040805160208101849052630e969ae760e11b9160008051602061391c833981519152910160408051601f1981840301815290829052610ba2916134f6565b60009081526000805160206138fc833981519152602052604090206001015490565b60008051602061393c8339815191526112f681612313565b611303600a612710613553565b61ffff168261ffff16111561132b5760405163c52a9bd360e01b815260040160405180910390fd5b61271061ffff8316111561134157611341613574565b603b805461ffff191661ffff8416908117909155604080516020810192909252630a7521c160e21b9160008051602061391c833981519152910160408051601f1981840301815290829052610ba29161358a565b61139e826112bc565b6113a781612313565b61102b83836124e5565b6001600160a01b03811633146113da5760405163334bd91960e11b815260040160405180910390fd5b6113e4828261252a565b505050565b6113f281612566565b50565b7ff0c57e16840df040f15088dc2f81fe391c3923bec73e23a9662efc9c229c6a008054600160401b810460ff16159067ffffffffffffffff1660008115801561143b5750825b905060008267ffffffffffffffff1660011480156114585750303b155b905081158015611466575080155b156114845760405163f92ee8a960e01b815260040160405180910390fd5b845467ffffffffffffffff1916600117855583156114ae57845460ff60401b1916600160401b1785555b6114b66128c9565b85516114c4906000906124e5565b506114e160008051602061393c83398151915287602001516124e5565b506115107fe6ef7125bfa79685f3bd2e4c4cea243c1e988ebbc0801ab7641ae36b9e2c529187604001516124e5565b5061153f7fe30bb2df90b65284acd0e8b5ebe3483bb2bbe65a08e43f0f9e8300fd8607ee1187606001516124e5565b506115787f8ea5b4dbd68db0bf23bf4cda958b61a749f8c5aec6f2912d75a03246753ddd1660008051602061393c8339815191526128d3565b6115c27fdec9d30de0821ad67aa5b141b13a539f584a19f99319e6041698a892b0e795597f8ea5b4dbd68db0bf23bf4cda958b61a749f8c5aec6f2912d75a03246753ddd166128d3565b60e0860151603f80546001600160a01b03199081166001600160a01b0393841617909155610100880151603e805483169184169190911790556101208801516040805483169184169190911790556101408801516041805483169184169190911790556080880151604480546101608b015160428054861691871691909117905560c08b015160478054861691871691909117905560a08b0151604380549095169086161790935567016345785d8a0000603955662386f26fc10000603a556801bc16d674ec800000603c819055603d55600160a01b919093166001600160a81b03199092169190911717905543604555683782dace9d90000000604655831561170657845460ff60401b19168555604051600181527fc7f505b2f371ae2175ee4913f4499e1f2633a7b5936321eed1cdaeb6115181d29060200160405180910390a15b505050505050565b600080604060009054906101000a90046001600160a01b03166001600160a01b031663f3a009a06040518163ffffffff1660e01b815260040161010060405180830381865afa158015611765573d6000803e3d6000fd5b505050506040513d601f19601f8201168201806040525081019061178991906135fe565b905060006037548161179b91906133b9565b9050603854816117ab91906133b9565b90508160e001516001600160801b03166035546117c89190613419565b6117d290826133b9565b90508160c001516001600160801b0316816117ed91906133b9565b9050604260009054906101000a90046001600160a01b03166001600160a01b031663b69ef8a86040518163ffffffff1660e01b8152600401602060405180830381865afa158015611842573d6000803e3d6000fd5b505050506040513d601f19601f8201168201806040525081019061186691906132f6565b61187090826133b9565b9392505050565b7fe6ef7125bfa79685f3bd2e4c4cea243c1e988ebbc0801ab7641ae36b9e2c52916118a181612313565b604160009054906101000a90046001600160a01b03166001600160a01b031663fdcada5e6040518163ffffffff1660e01b8152600401602060405180830381865afa1580156118f4573d6000803e3d6000fd5b505050506040513d601f19601f8201168201806040525081019061191891906132d9565b15611936576040516313d0ff5960e31b815260040160405180910390fd5b60375461194383856133b9565b1115611962576040516396b0c75160e01b815260040160405180910390fd5b61196c82846133b9565b6037600082825461197d9190613419565b909155505081156119d357816038600082825461199a91906133b9565b90915550506040518281527f9d04ecb465d2c8754acb798a22293dd26215a1c2f7a2a56607afa215c1aadc779060200160405180910390a15b82156113e4576040518381527ffe89805cf5299ef9fbd1d1ddefb8dcc3fa9408064d2ea31e3fca6565768f52179060200160405180910390a1604260009054906101000a90046001600160a01b03166001600160a01b0316634d13bfa6846040518263ffffffff1660e01b81526004016000604051808303818588803b158015611a5c57600080fd5b505af1158015611a70573d6000803e3d6000fd5b5050505050505050565b60008051602061393c833981519152611a9281612313565b816001600160a01b038116611aba5760405163d92e233d60e01b815260040160405180910390fd5b604380546001600160a01b0319166001600160a01b038516908117909155604080516020810192909252633abcb7bb60e11b9160008051602061391c833981519152910160408051601f1981840301815290829052611b18916136c8565b60405180910390a2505050565b6044546001600160a01b03163314611b4f57604051626310df60e31b815260040160405180910390fd5b6040513481527f4cbb9d73b003a252cee3f2ee51d8d65a562af35eebb23730dd4a76d68127b3709060200160405180910390a13460376000828254611b9491906133b9565b9091555050565b60008281526000805160206138dc833981519152602081905260408220611bc29084612936565b949350505050565b60009182526000805160206138fc833981519152602090815260408084206001600160a01b0393909316845291905290205460ff1690565b60008051602061393c833981519152611c1a81612313565b603a82905560408051602081018490526399dd1deb60e01b9160008051602061391c833981519152910160408051601f1981840301815290829052610ba29161370f565b6047546001600160a01b03163314611c895760405163c68e02cf60e01b815260040160405180910390fd5b604160009054906101000a90046001600160a01b03166001600160a01b0316631ea7ca896040518163ffffffff1660e01b8152600401602060405180830381865afa158015611cdc573d6000803e3d6000fd5b505050506040513d601f19601f82011682018060405250810190611d0091906132d9565b15611d1e576040516313d0ff5960e31b815260040160405180910390fd5b604454600160a01b900460ff1615611d5957611d597fdec9d30de0821ad67aa5b141b13a539f584a19f99319e6041698a892b0e79559612313565b603c54811015611d7c57604051630a3287a960e21b815260040160405180910390fd5b6000611d87826110ac565b9050604654603f60009054906101000a90046001600160a01b03166001600160a01b03166318160ddd6040518163ffffffff1660e01b8152600401602060405180830381865afa158015611ddf573d6000803e3d6000fd5b505050506040513d601f19601f82011682018060405250810190611e0391906132f6565b611e0d90836133b9565b1115611e2c57604051630935f98160e31b815260040160405180910390fd5b8160376000828254611e3e91906133b9565b909155505060475460408051848152602081018490526001600160a01b03909216917f1449c6dd7851abc30abf37f57715f492010519147cc2652fbc38202c18a6ee909101610ba2565b60008051602061393c833981519152611ea081612313565b603c829055604080516020810184905263555a41eb60e11b9160008051602061391c833981519152910160408051601f1981840301815290829052610ba291613756565b6042546001600160a01b03163314611f0f57604051637154fc4360e01b815260040160405180910390fd5b3460376000828254611b9491906133b9565b60008181526000805160206138dc83398151915260208190526040822061187090612942565b611f50826112bc565b611f5981612313565b61102b838361252a565b60008051602061393c833981519152611f7b81612313565b603d829055604080516020810184905263d70a6f3160e01b9160008051602061391c833981519152910160408051601f1981840301815290829052610ba29161379d565b7f5e4bd437d29fad01c10cdcfff414f0d6b0e84b96d2dade88d780d45b5630696b611fe981612313565b3460376000828254611ffb91906133b9565b909155505050565b603f54604080516318160ddd60e01b815290516000926001600160a01b0316916318160ddd9160048083019260209291908290030181865afa15801561204d573d6000803e3d6000fd5b505050506040513d601f19601f8201168201806040525081019061207191906132f6565b60000361207c575090565b610bd38261208861170e565b603f60009054906101000a90046001600160a01b03166001600160a01b03166318160ddd6040518163ffffffff1660e01b8152600401602060405180830381865afa1580156120db573d6000803e3d6000fd5b505050506040513d601f19601f820116820180604052508101906111d891906132f6565b6047546001600160a01b0316331461212a5760405163c68e02cf60e01b815260040160405180910390fd5b604160009054906101000a90046001600160a01b03166001600160a01b0316638b61391a6040518163ffffffff1660e01b8152600401602060405180830381865afa15801561217d573d6000803e3d6000fd5b505050506040513d601f19601f820116820180604052508101906121a191906132d9565b156121bf576040516313d0ff5960e31b815260040160405180910390fd5b60408051848152602081018490526001600160a01b03861691339188917fefe8bd77c6737d081d3f8cc6b2fd7c02c4a8342d837993ea6201ed133c9d22b0910160405180910390a460425460405163019a076b60e61b8152600481018790523360248201526001600160a01b038681166044830152606482018690526084820185905260a4820184905290911690636681dac09060c4016020604051808303816000875af1158015612275573d6000803e3d6000fd5b505050506040513d601f19601f8201168201806040525081019061170691906132d9565b604254604051634f588bf160e01b81526004810183905260009182916001600160a01b0390911690634f588bf1906024016040805180830381865afa1580156122e6573d6000803e3d6000fd5b505050506040513d601f19601f8201168201806040525081019061230a91906137e4565b91509150915091565b6113f2813361294c565b60006001600160e01b03198216637965db0b60e01b1480610bd357506301ffc9a760e01b6001600160e01b0319831614610bd3565b6020811461237657604051639b0ec52760e01b815260048101829052602401610d2d565b6000612385600c828486613812565b61238e9161383c565b9050600160f81b6001600160a01b03198216146123ca576040516308ebf56560e01b81526001600160a01b031982166004820152602401610d2d565b60006123da6020600c8587613812565b6123e39161386c565b60435460609190911c91506001600160a01b0316811461102b57604051631b4d561960e01b81526001600160a01b0382166004820152602401610d2d565b60008383028160001985870982811083820303915050806000036124585783828161244e5761244e61353d565b0492505050611870565b8084116124785760405163227bc15360e01b815260040160405180910390fd5b6000848688096000868103871696879004966002600389028118808a02820302808a02820302808a02820302808a02820302808a02820302808a02909103029181900381900460010186841190950394909402919094039290920491909117919091029150509392505050565b60006000805160206138dc833981519152816125018585612989565b90508015611bc25760008581526020839052604090206125219085612a35565b50949350505050565b60006000805160206138dc833981519152816125468585612a4a565b90508015611bc25760008581526020839052604090206125219085612ac6565b604160009054906101000a90046001600160a01b03166001600160a01b0316638b61391a6040518163ffffffff1660e01b8152600401602060405180830381865afa1580156125b9573d6000803e3d6000fd5b505050506040513d601f19601f820116820180604052508101906125dd91906132d9565b156125fb576040516313d0ff5960e31b815260040160405180910390fd5b603a54816001600160801b031610156126265760405162771ba760e71b815260040160405180910390fd5b600154156126a757603f54604254600154612651926001600160a01b03908116923392911690612adb565b60015460405190815233907f1f4bdd7f902a9da109e5ee8424af475df1f64b7b7a8d36e07d5f97caaa5f19ec9060200160405180910390a260015460008082825461269c91906133b9565b909155505060006001555b806001600160801b03166000808282546126c191906133b9565b9091555050603d546000805490916126d89161389f565b1115612860576000603d546000546126f0919061389f565b90506000603d548261270291906134df565b9050806000546127129190613419565b600155603f54604254612734916001600160a01b039081169133911684612adb565b60405181815233907f8085fab2385c3de8a386c687710efde6c2b0421f138b82774f3294ec9dc7e98b9060200160405180910390a26000612776603d54612003565b604254604754600080546040516305165da360e41b81526001600160a01b03938416600482015260248101919091526001600160801b038516604482015293945092911690635165da30906064016020604051808303816000875af11580156127e3573d6000803e3d6000fd5b505050506040513d601f19601f8201168201806040525081019061280791906132f6565b600054604080516001600160801b0386168152602081019290925291925082917f8b9951bb8391228a7668a21d43327f1814aa2d30534e5cf769cfdecc131de9ff910160405180910390a2505060008055506113f29050565b603f54604254612888916001600160a01b03908116913391166001600160801b038516612adb565b6040516001600160801b038216815233907f8085fab2385c3de8a386c687710efde6c2b0421f138b82774f3294ec9dc7e98b9060200160405180910390a250565b6128d1612b35565b565b6000805160206138fc83398151915260006128ed846112bc565b600085815260208490526040808220600101869055519192508491839187917fbd79b86ffe0ab8e8776151514217cd7cacd52c909f66475c3af44e129f0b00ff9190a450505050565b60006118708383612b7e565b6000610bd3825490565b6129568282611bca565b6129855760405163e2517d3f60e01b81526001600160a01b038216600482015260248101839052604401610d2d565b5050565b60006000805160206138fc8339815191526129a48484611bca565b612a24576000848152602082815260408083206001600160a01b03871684529091529020805460ff191660011790556129da3390565b6001600160a01b0316836001600160a01b0316857f2f8788117e7eff1d82e926ec794901d17c78024a50270940304540a733656f0d60405160405180910390a46001915050610bd3565b6000915050610bd3565b5092915050565b6000611870836001600160a01b038416612ba8565b60006000805160206138fc833981519152612a658484611bca565b15612a24576000848152602082815260408083206001600160a01b0387168085529252808320805460ff1916905551339287917ff6391f5c32d9c69d2a47ea670b442974b53935d1edc7fd64eb21e047a839171b9190a46001915050610bd3565b6000611870836001600160a01b038416612bf7565b604080516001600160a01b0385811660248301528416604482015260648082018490528251808303909101815260849091019091526020810180516001600160e01b03166323b872dd60e01b17905261102b908590612ce0565b7ff0c57e16840df040f15088dc2f81fe391c3923bec73e23a9662efc9c229c6a0054600160401b900460ff166128d157604051631afcd79f60e31b815260040160405180910390fd5b6000826000018281548110612b9557612b9561330f565b9060005260206000200154905092915050565b6000818152600183016020526040812054612bef57508154600181810184556000848152602080822090930184905584548482528286019093526040902091909155610bd3565b506000610bd3565b60008181526001830160205260408120548015612a24576000612c1b600183613419565b8554909150600090612c2f90600190613419565b9050808214612c94576000866000018281548110612c4f57612c4f61330f565b9060005260206000200154905080876000018481548110612c7257612c7261330f565b6000918252602080832090910192909255918252600188019052604090208390555b8554869080612ca557612ca56138b3565b600190038181906000526020600020016000905590558560010160008681526020019081526020016000206000905560019350505050610bd3565b6000612cf56001600160a01b03841683612d43565b90508051600014158015612d1a575080806020019051810190612d1891906132d9565b155b156113e457604051635274afe760e01b81526001600160a01b0384166004820152602401610d2d565b60606118708383600084600080856001600160a01b03168486604051612d6991906138c9565b60006040518083038185875af1925050503d8060008114612da6576040519150601f19603f3d011682016040523d82523d6000602084013e612dab565b606091505b5091509150612dbb868383612dc5565b9695505050505050565b606082612dda57612dd582612e21565b611870565b8151158015612df157506001600160a01b0384163b155b15612e1a57604051639996b31560e01b81526001600160a01b0385166004820152602401610d2d565b5080611870565b805115612e315780518082602001fd5b604051630a12f52160e11b815260040160405180910390fd5b600060208284031215612e5c57600080fd5b5035919050565b600060208284031215612e7557600080fd5b81356001600160e01b03198116811461187057600080fd5b600080600060408486031215612ea257600080fd5b833567ffffffffffffffff80821115612eba57600080fd5b818601915086601f830112612ece57600080fd5b813581811115612edd57600080fd5b8760208260051b8501011115612ef257600080fd5b6020928301989097509590910135949350505050565b80151581146113f257600080fd5b600060208284031215612f2857600080fd5b813561187081612f08565b600060208284031215612f4557600080fd5b813561ffff8116811461187057600080fd5b6001600160a01b03811681146113f257600080fd5b8035612f7781612f57565b919050565b60008060408385031215612f8f57600080fd5b823591506020830135612fa181612f57565b809150509250929050565b6001600160801b03811681146113f257600080fd5b600060208284031215612fd357600080fd5b813561187081612fac565b634e487b7160e01b600052604160045260246000fd5b604051610180810167ffffffffffffffff8111828210171561301857613018612fde565b60405290565b6000610180828403121561303157600080fd5b613039612ff4565b61304283612f6c565b815261305060208401612f6c565b602082015261306160408401612f6c565b604082015261307260608401612f6c565b606082015261308360808401612f6c565b608082015261309460a08401612f6c565b60a08201526130a560c08401612f6c565b60c08201526130b660e08401612f6c565b60e08201526101006130c9818501612f6c565b908201526101206130db848201612f6c565b908201526101406130ed848201612f6c565b908201526101606130ff848201612f6c565b908201529392505050565b60006020828403121561311c57600080fd5b813567ffffffffffffffff8082111561313457600080fd5b818401915084601f83011261314857600080fd5b81358181111561315a5761315a612fde565b604051601f8201601f19908116603f0116810190838211818310171561318257613182612fde565b8160405282815287602084870101111561319b57600080fd5b826020860160208301376000928101602001929092525095945050505050565b600080604083850312156131ce57600080fd5b50508035926020909101359150565b6000602082840312156131ef57600080fd5b813561187081612f57565b600080600080600060a0868803121561321257600080fd5b85359450602086013561322481612f57565b94979496505050506040830135926060810135926080909101359150565b60005b8381101561325d578181015183820152602001613245565b50506000910152565b6000815180845261327e816020860160208601613242565b601f01601f19169290920160200192915050565b60408152601d60408201527f7365744d696e696d756d5374616b65426f756e642875696e743235362900000060608201526080602082015260006118706080830184613266565b6000602082840312156132eb57600080fd5b815161187081612f08565b60006020828403121561330857600080fd5b5051919050565b634e487b7160e01b600052603260045260246000fd5b6000823560be1983360301811261333b57600080fd5b9190910192915050565b6000808335601e1984360301811261335c57600080fd5b83018035915067ffffffffffffffff82111561337757600080fd5b60200191503681900382131561338c57600080fd5b9250929050565b8183823760009101908152919050565b634e487b7160e01b600052601160045260246000fd5b80820180821115610bd357610bd36133a3565b81835281816020850137506000828201602090810191909152601f909101601f19169091010190565b6040815260006134096040830185876133cc565b9050826020830152949350505050565b81810381811115610bd357610bd36133a3565b60808152600061344060808301898b6133cc565b828103602084015261345381888a6133cc565b905082810360408401526134688186886133cc565b91505082606083015298975050505050505050565b60408152601960408201527f7365745374616b696e67416c6c6f776c69737428626f6f6c290000000000000060608201526080602082015260006118706080830184613266565b61ffff828116828216039080821115612a2e57612a2e6133a3565b8082028115828204841417610bd357610bd36133a3565b60408152601d60408201527f7365744d6178696d756d44455448537570706c792875696e743235362900000060608201526080602082015260006118706080830184613266565b634e487b7160e01b600052601260045260246000fd5b600061ffff808416806135685761356861353d565b92169190910492915050565b634e487b7160e01b600052600160045260246000fd5b60408152602160408201527f73657445786368616e676541646a7573746d656e74526174652875696e7431366060820152602960f81b608082015260a06020820152600061187060a0830184613266565b805167ffffffffffffffff81168114612f7757600080fd5b8051612f7781612fac565b600061010080838503121561361257600080fd5b6040519081019067ffffffffffffffff8211818310171561363557613635612fde565b81604052613642846135db565b8152613650602085016135db565b6020820152613661604085016135db565b6040820152613672606085016135db565b60608201526080840151915061368782612fac565b81608082015261369960a085016135f3565b60a08201526136aa60c085016135f3565b60c08201526136bb60e085016135f3565b60e0820152949350505050565b60408152601c60408201527f7365745769746864726177616c57616c6c65742861646472657373290000000060608201526080602082015260006118706080830184613266565b60408152601f60408201527f7365744d696e696d756d556e7374616b65426f756e642875696e74323536290060608201526080602082015260006118706080830184613266565b60408152602060408201527f7365744d696e696d756d4465706f736974416d6f756e742875696e743235362960608201526080602082015260006118706080830184613266565b60408152602060408201527f7365744d6178696d756d4465706f736974416d6f756e742875696e743235362960608201526080602082015260006118706080830184613266565b600080604083850312156137f757600080fd5b825161380281612f08565b6020939093015192949293505050565b6000808585111561382257600080fd5b8386111561382f57600080fd5b5050820193919092039150565b6001600160a01b0319813581811691600c85101561386457808186600c0360031b1b83161692505b505092915050565b6bffffffffffffffffffffffff1981358181169160148510156138645760149490940360031b84901b1690921692915050565b6000826138ae576138ae61353d565b500490565b634e487b7160e01b600052603160045260246000fd5b6000825161333b81846020870161324256fec1f6fe24621ce81ec5827caf0253cadb74709b061630e6b55e8237170593200002dd7bc7dec4dceedda775e58dd541e08a116c6c53815c0bd028192f7b62680001d854e8dde9402801a4c6f2840193465752abfad61e0bb7c4258d526ae42e74a6b5d83d32632203555cb9b2c2f68a8d94da48cadd9266ac0d17babedb52ea5ba26469706673582212208ebabec564fa0ece8bce12a1a058aad2210bc8f2bcf253b5bc76be48497c591564736f6c63430008180033","linkReferences":{}},"methodIdentifiers":{"ALLOCATOR_SERVICE_ROLE()":"3101d910","DEFAULT_ADMIN_ROLE()":"a217fddf","INITIATOR_SERVICE_ROLE()":"19efd5c7","STAKING_ALLOWLIST_MANAGER_ROLE()":"e55d6cc0","STAKING_ALLOWLIST_ROLE()":"89e80ed3","STAKING_MANAGER_ROLE()":"3937c0b3","TOP_UP_ROLE()":"6fce8ab2","allocateETH(uint256,uint256)":"6daa01a2","allocatedETHForDeposits()":"ea452b6d","batchDethAmount()":"67018679","claimUnstakeRequest(uint256,address,uint256,uint256,uint256)":"ee210d87","dETH()":"277f1758","dETHToETH(uint256)":"ed9daafb","dapplinkBridge()":"d938e492","depositContract()":"e94ad65b","ethToDETH(uint256)":"147d36d5","exchangeAdjustmentRate()":"0633af76","getRoleAdmin(bytes32)":"248a9ca3","getRoleMember(bytes32,uint256)":"9010d07c","getRoleMemberCount(bytes32)":"ca15c873","grantRole(bytes32,address)":"2f2ff15d","hasRole(bytes32,address)":"91d14854","initializationBlockNumber()":"b91590b2","initialize((address,address,address,address,address,address,address,address,address,address,address,address))":"4d014f7f","initiateValidatorsWithDeposits((uint256,uint256,bytes,bytes,bytes,bytes32)[],bytes32)":"0208e4b5","isStakingAllowlist()":"42d3915d","laveDethAmount()":"54e5f761","maximumDETHSupply()":"49336f0f","maximumDepositAmount()":"78abb49b","minimumDepositAmount()":"080c279a","minimumStakeBound()":"b12de586","minimumUnstakeBound()":"35ead2a4","numInitiatedValidators()":"bb635c65","oracle()":"7dc0d1d0","pauser()":"9fd0506d","receiveFromUnstakeRequestsManager()":"c151aa72","receiveReturns()":"808d663f","reclaimAllocatedETHSurplus()":"1943190d","renounceRole(bytes32,address)":"36568abe","returnsAggregator()":"3f550b3a","revokeRole(bytes32,address)":"d547741f","setExchangeAdjustmentRate(uint16)":"29d48704","setMaximumDETHSupply(uint256)":"1d2d35ce","setMaximumDepositAmount(uint256)":"d70a6f31","setMinimumDepositAmount(uint256)":"aab483d6","setMinimumStakeBound(uint256)":"008db05b","setMinimumUnstakeBound(uint256)":"99dd1deb","setStakingAllowlist(bool)":"04f36cc2","setWithdrawalWallet(address)":"75796f76","stake(uint256)":"a694fc3a","supportsInterface(bytes4)":"01ffc9a7","topUp()":"dc29f1de","totalControlled()":"5940d90b","totalDepositedInValidators()":"60a0f628","unallocatedETH()":"7dfcdd29","unstakeRequest(uint128)":"49de5a55","unstakeRequestInfo(uint256)":"f1ec1e97","unstakeRequestsManager()":"854a63f6","usedValidators(bytes)":"5915ded1","withdrawalWallet()":"4a7d80b3"},"id":64}