{"abi":[{"type":"constructor","inputs":[],"stateMutability":"nonpayable"},{"type":"function","name":"DEFAULT_ADMIN_ROLE","inputs":[],"outputs":[{"name":"","type":"bytes32","internalType":"bytes32"}],"stateMutability":"view"},{"type":"function","name":"PAUSER_ROLE","inputs":[],"outputs":[{"name":"","type":"bytes32","internalType":"bytes32"}],"stateMutability":"view"},{"type":"function","name":"UNPAUSER_ROLE","inputs":[],"outputs":[{"name":"","type":"bytes32","internalType":"bytes32"}],"stateMutability":"view"},{"type":"function","name":"getRoleAdmin","inputs":[{"name":"role","type":"bytes32","internalType":"bytes32"}],"outputs":[{"name":"","type":"bytes32","internalType":"bytes32"}],"stateMutability":"view"},{"type":"function","name":"getRoleMember","inputs":[{"name":"role","type":"bytes32","internalType":"bytes32"},{"name":"index","type":"uint256","internalType":"uint256"}],"outputs":[{"name":"","type":"address","internalType":"address"}],"stateMutability":"view"},{"type":"function","name":"getRoleMemberCount","inputs":[{"name":"role","type":"bytes32","internalType":"bytes32"}],"outputs":[{"name":"","type":"uint256","internalType":"uint256"}],"stateMutability":"view"},{"type":"function","name":"grantRole","inputs":[{"name":"role","type":"bytes32","internalType":"bytes32"},{"name":"account","type":"address","internalType":"address"}],"outputs":[],"stateMutability":"nonpayable"},{"type":"function","name":"hasRole","inputs":[{"name":"role","type":"bytes32","internalType":"bytes32"},{"name":"account","type":"address","internalType":"address"}],"outputs":[{"name":"","type":"bool","internalType":"bool"}],"stateMutability":"view"},{"type":"function","name":"initialize","inputs":[{"name":"init","type":"tuple","internalType":"struct L2Pauser.Init","components":[{"name":"admin","type":"address","internalType":"address"},{"name":"pauser","type":"address","internalType":"address"},{"name":"unpauser","type":"address","internalType":"address"}]}],"outputs":[],"stateMutability":"nonpayable"},{"type":"function","name":"isDelegate","inputs":[],"outputs":[{"name":"","type":"bool","internalType":"bool"}],"stateMutability":"view"},{"type":"function","name":"isStakerWithdraw","inputs":[],"outputs":[{"name":"","type":"bool","internalType":"bool"}],"stateMutability":"view"},{"type":"function","name":"isStrategyDeposit","inputs":[],"outputs":[{"name":"","type":"bool","internalType":"bool"}],"stateMutability":"view"},{"type":"function","name":"isStrategyWithdraw","inputs":[],"outputs":[{"name":"","type":"bool","internalType":"bool"}],"stateMutability":"view"},{"type":"function","name":"isUnDelegate","inputs":[],"outputs":[{"name":"","type":"bool","internalType":"bool"}],"stateMutability":"view"},{"type":"function","name":"pauseAll","inputs":[],"outputs":[],"stateMutability":"nonpayable"},{"type":"function","name":"renounceRole","inputs":[{"name":"role","type":"bytes32","internalType":"bytes32"},{"name":"callerConfirmation","type":"address","internalType":"address"}],"outputs":[],"stateMutability":"nonpayable"},{"type":"function","name":"revokeRole","inputs":[{"name":"role","type":"bytes32","internalType":"bytes32"},{"name":"account","type":"address","internalType":"address"}],"outputs":[],"stateMutability":"nonpayable"},{"type":"function","name":"setIsDelegate","inputs":[{"name":"isPaused","type":"bool","internalType":"bool"}],"outputs":[],"stateMutability":"nonpayable"},{"type":"function","name":"setIsStakerWithdraw","inputs":[{"name":"isPaused","type":"bool","internalType":"bool"}],"outputs":[],"stateMutability":"nonpayable"},{"type":"function","name":"setIsStrategyDeposit","inputs":[{"name":"isPaused","type":"bool","internalType":"bool"}],"outputs":[],"stateMutability":"nonpayable"},{"type":"function","name":"setIsStrategyWithdraw","inputs":[{"name":"isPaused","type":"bool","internalType":"bool"}],"outputs":[],"stateMutability":"nonpayable"},{"type":"function","name":"setIsUnDelegate","inputs":[{"name":"isPaused","type":"bool","internalType":"bool"}],"outputs":[],"stateMutability":"nonpayable"},{"type":"function","name":"supportsInterface","inputs":[{"name":"interfaceId","type":"bytes4","internalType":"bytes4"}],"outputs":[{"name":"","type":"bool","internalType":"bool"}],"stateMutability":"view"},{"type":"function","name":"unpauseAll","inputs":[],"outputs":[],"stateMutability":"nonpayable"},{"type":"event","name":"FlagUpdated","inputs":[{"name":"selector","type":"bytes4","indexed":true,"internalType":"bytes4"},{"name":"isPaused","type":"bool","indexed":true,"internalType":"bool"},{"name":"flagName","type":"string","indexed":false,"internalType":"string"}],"anonymous":false},{"type":"event","name":"Initialized","inputs":[{"name":"version","type":"uint64","indexed":false,"internalType":"uint64"}],"anonymous":false},{"type":"event","name":"RoleAdminChanged","inputs":[{"name":"role","type":"bytes32","indexed":true,"internalType":"bytes32"},{"name":"previousAdminRole","type":"bytes32","indexed":true,"internalType":"bytes32"},{"name":"newAdminRole","type":"bytes32","indexed":true,"internalType":"bytes32"}],"anonymous":false},{"type":"event","name":"RoleGranted","inputs":[{"name":"role","type":"bytes32","indexed":true,"internalType":"bytes32"},{"name":"account","type":"address","indexed":true,"internalType":"address"},{"name":"sender","type":"address","indexed":true,"internalType":"address"}],"anonymous":false},{"type":"event","name":"RoleRevoked","inputs":[{"name":"role","type":"bytes32","indexed":true,"internalType":"bytes32"},{"name":"account","type":"address","indexed":true,"internalType":"address"},{"name":"sender","type":"address","indexed":true,"internalType":"address"}],"anonymous":false},{"type":"error","name":"AccessControlBadConfirmation","inputs":[]},{"type":"error","name":"AccessControlUnauthorizedAccount","inputs":[{"name":"account","type":"address","internalType":"address"},{"name":"neededRole","type":"bytes32","internalType":"bytes32"}]},{"type":"error","name":"InvalidInitialization","inputs":[]},{"type":"error","name":"NotInitializing","inputs":[]},{"type":"error","name":"PauserRoleOrOracleRequired","inputs":[{"name":"sender","type":"address","internalType":"address"}]}],"bytecode":{"object":"0x608080604052346100b8577ff0c57e16840df040f15088dc2f81fe391c3923bec73e23a9662efc9c229c6a009081549060ff8260401c166100a957506001600160401b036002600160401b031982821601610064575b60405161131690816100be8239f35b6001600160401b031990911681179091556040519081527fc7f505b2f371ae2175ee4913f4499e1f2633a7b5936321eed1cdaeb6115181d290602090a1388080610055565b63f92ee8a960e01b8152600490fd5b600080fdfe6080604081815260048036101561001557600080fd5b600092833560e01c90816301ffc9a714610c06575080631c7d7cbb14610b75578063248a9ca314610b3e5780632602edb114610b195780632f2ff15d14610a9457806336568abe14610a4d5780633830f4b214610a2b5780634994adeb14610a075780634e79763a14610978578063595c6a67146108455780637d5da1d9146107ba578381638a2ddd031461068e575080639010d07c1461064157806391d14854146105ee5780639b55ff5e146105c9578063a217fddf146105ae578063bf00023314610519578063c77cf18d146104f4578063ca15c873146104c0578063d26b3e2614610260578063d547741f14610214578063e63ab1e9146101eb578063fb1bb9de146101be5763fbb231f51461012d57600080fd5b346101ba5760203660031901126101ba573590811515918281036101b657156101a957610158610cf7565b60ff1983541660ff8316178355701a5cd4dd1c985d1959de51195c1bdcda5d607a1b81519160208352601160208401528201526000805160206112c18339815191526060631c187a5960e11b92a380f35b6101b1610c8f565b610158565b8380fd5b8280fd5b5050346101e757816003193601126101e757602090516000805160206112618339815191528152f35b5080fd5b5050346101e757816003193601126101e757602090516000805160206112818339815191528152f35b5090346101ba57806003193601126101ba5761025c91356102576001610238610c74565b938387526000805160206112a183398151915260205286200154610d41565b610d74565b5080f35b50346101ba5760603660031901126101ba57815167ffffffffffffffff9060608101828111828210176104ad5784526001600160a01b0390833582811681036104a95781526102ad610c74565b602082019081526044359183831683036104a5578681019283527ff0c57e16840df040f15088dc2f81fe391c3923bec73e23a9662efc9c229c6a0095865460ff818a1c16159681168015908161049d575b6001149081610493575b15908161048a575b5061047b5767ffffffffffffffff19811660011788558661045c575b5060ff8754891c161561044e575090838092511661034981610dbc565b610426575b50511661035a81610e4a565b6103f0575b50511661036b81610ee8565b6103ba575b50610379578280f35b805468ff00000000000000001916905551600181527fc7f505b2f371ae2175ee4913f4499e1f2633a7b5936321eed1cdaeb6115181d290602090a138808280f35b6103e99060008051602061126183398151915286526000805160206112418339815191526020528486206110a6565b5038610370565b61041f9060008051602061128183398151915288526000805160206112418339815191526020528688206110a6565b503861035f565b61044790898052600080516020611241833981519152602052888a206110a6565b503861034e565b8751631afcd79f60e31b8152fd5b68ffffffffffffffffff1916680100000000000000011787553861032c565b50875163f92ee8a960e01b8152fd5b90501538610310565b303b159150610308565b8891506102fe565b8780fd5b8680fd5b634e487b7160e01b865260418452602486fd5b50346101ba5760203660031901126101ba576020928291358152600080516020611241833981519152845220549051908152f35b5050346101e757816003193601126101e75760ff6020925460181c1690519015158152f35b50346101ba5760203660031901126101ba573590811515918281036101b657156105a157610545610cf7565b825464ff000000008360201b169064ff0000000019161783556f69735374616b6572576974686472617760801b81519160208352601060208401528201526000805160206112c18339815191526060634994adeb60e01b92a380f35b6105a9610c8f565b610545565b5050346101e757816003193601126101e75751908152602090f35b5050346101e757816003193601126101e75760ff6020925460101c1690519015158152f35b50346101ba57816003193601126101ba578160209360ff9261060e610c74565b903582526000805160206112a183398151915286528282206001600160a01b039091168252855220549151911615158152f35b50346101ba57816003193601126101ba57602092610678913581526000805160206112418339815191528452826024359120611078565b905491519160018060a01b039160031b1c168152f35b8084346107b757816003193601126107b7576106a8610c8f565b8154906f69735374616b6572576974686472617760801b815191602093848452601185850152701a5cd4dd1c985d1959de51195c1bdcda5d607a1b82850152856000805160206112c183398151915294856060631c187a5960e11b92a38582518681526012878201527169735374726174656779576974686472617760701b84820152856060632602edb160e01b92a3858251868152600a8782015269697344656c656761746560b01b84820152856060634daaffaf60e11b92a3858251868152600c878201526b6973556e44656c656761746560a01b8482015285606063c77cf18d60e01b92a364ffffffffff1916855560108151948086528501528301526060634994adeb60e01b92a380f35b50fd5b50346101ba5760203660031901126101ba573590811515918281036101b65715610838576107e6610cf7565b825462ff00008360101b169062ff0000191617835569697344656c656761746560b01b81519160208352600a60208401528201526000805160206112c18339815191526060634daaffaf60e11b92a380f35b610840610c8f565b6107e6565b5050346101e757816003193601126101e757600190610862610cf7565b8254906f69735374616b6572576974686472617760801b815191640101010101602094858552601186860152701a5cd4dd1c985d1959de51195c1bdcda5d607a1b83860152866000805160206112c183398151915295866060631c187a5960e11b92a38683518781526012888201527169735374726174656779576974686472617760701b85820152866060632602edb160e01b92a3868351878152600a8882015269697344656c656761746560b01b85820152866060634daaffaf60e11b92a3868351878152600c888201526b6973556e44656c656761746560a01b8582015286606063c77cf18d60e01b92a364ffffffffff191617865560108151948086528501528301526060634994adeb60e01b92a380f35b50346101ba5760203660031901126101ba573590811515918281036101b657156109fa576109a4610cf7565b825463ff0000008360181b169063ff00000019161783556b6973556e44656c656761746560a01b81519160208352600c60208401528201526000805160206112c1833981519152606063c77cf18d60e01b92a380f35b610a02610c8f565b6109a4565b5050346101e757816003193601126101e75760ff60209254915191831c1615158152f35b5050346101e757816003193601126101e75760ff602092541690519015158152f35b509190346101e757806003193601126101e757610a68610c74565b90336001600160a01b03831603610a85575061025c919235610d74565b5163334bd91960e11b81528390fd5b50346101ba57816003193601126101ba573590610aaf610c74565b908284526000805160206112a1833981519152602052610ad460018286200154610d41565b610ade8284610f80565b610ae6578380f35b918352600080516020611241833981519152602052908220610b11916001600160a01b0316906110a6565b503880808380f35b5050346101e757816003193601126101e75760ff6020925460081c1690519015158152f35b50346101ba5760203660031901126101ba57816020936001923581526000805160206112a183398151915285522001549051908152f35b50346101ba5760203660031901126101ba573590811515918281036101b65715610bf957610ba1610cf7565b825461ff008360081b169061ff0019161783557169735374726174656779576974686472617760701b81519160208352601260208401528201526000805160206112c18339815191526060632602edb160e01b92a380f35b610c01610c8f565b610ba1565b925050346101ba5760203660031901126101ba573563ffffffff60e01b81168091036101ba5760209250635a05180f60e01b8114908115610c49575b5015158152f35b637965db0b60e01b811491508115610c63575b5038610c42565b6301ffc9a760e01b14905038610c5c565b602435906001600160a01b0382168203610c8a57565b600080fd5b3360009081527f475b312747b0505dfd322c59063ca43b615bb2e6d10fdf52fb58877bbcde401160205260409020546000805160206112618339815191529060ff1615610cd95750565b6044906040519063e2517d3f60e01b82523360048301526024820152fd5b3360009081527f75442b0a96088b5456bc4ed01394c96a4feec0f883c9494257d76b96ab1c9b6b60205260409020546000805160206112818339815191529060ff1615610cd95750565b806000526000805160206112a183398151915260205260406000203360005260205260ff6040600020541615610cd95750565b610d7e8282610ff5565b9182610d8957505090565b60009182526000805160206112418339815191526020526040909120610db8916001600160a01b031690611130565b5090565b6001600160a01b031660008181527fb7db2dd08fcb62d0c9e08c51941cae53c267786a0b75803fb7960902fc8ef97d60205260408120549091906000805160206112a18339815191529060ff16610e45578280526020526040822081835260205260408220600160ff1982541617905533916000805160206112218339815191528180a4600190565b505090565b6001600160a01b031660008181527f75442b0a96088b5456bc4ed01394c96a4feec0f883c9494257d76b96ab1c9b6b6020526040812054909190600080516020611281833981519152906000805160206112a18339815191529060ff16610ee2578184526020526040832082845260205260408320600160ff19825416179055600080516020611221833981519152339380a4600190565b50505090565b6001600160a01b031660008181527f475b312747b0505dfd322c59063ca43b615bb2e6d10fdf52fb58877bbcde40116020526040812054909190600080516020611261833981519152906000805160206112a18339815191529060ff16610ee2578184526020526040832082845260205260408320600160ff19825416179055600080516020611221833981519152339380a4600190565b906000918083526000805160206112a183398151915280602052604084209260018060a01b03169283855260205260ff60408520541615600014610ee2578184526020526040832082845260205260408320600160ff19825416179055600080516020611221833981519152339380a4600190565b906000918083526000805160206112a183398151915280602052604084209260018060a01b03169283855260205260ff604085205416600014610ee257818452602052604083208284526020526040832060ff1981541690557ff6391f5c32d9c69d2a47ea670b442974b53935d1edc7fd64eb21e047a839171b339380a4600190565b80548210156110905760005260206000200190600090565b634e487b7160e01b600052603260045260246000fd5b9190600183016000908282528060205260408220541560001461112a578454946801000000000000000086101561111657836111066110ef886001604098999a01855584611078565b819391549060031b91821b91600019901b19161790565b9055549382526020522055600190565b634e487b7160e01b83526041600452602483fd5b50925050565b906001820190600092818452826020526040842054908115156000146112195760001991808301818111611205578254908482019182116111f1578181036111bc575b505050805480156111a85782019161118b8383611078565b909182549160031b1b191690555582526020526040812055600190565b634e487b7160e01b86526031600452602486fd5b6111dc6111cc6110ef9386611078565b90549060031b1c92839286611078565b90558652846020526040862055388080611173565b634e487b7160e01b88526011600452602488fd5b634e487b7160e01b87526011600452602487fd5b505050509056fe2f8788117e7eff1d82e926ec794901d17c78024a50270940304540a733656f0dc1f6fe24621ce81ec5827caf0253cadb74709b061630e6b55e82371705932000427da25fe773164f88948d3e215c94b6554e2ed5e5f203a821c9f2f6131cf75a65d7a28e3265b37a6474929f336521b332c1681b933f6cb9f3376673440d862a02dd7bc7dec4dceedda775e58dd541e08a116c6c53815c0bd028192f7b6268008a3a9d8f1181b67c292c06a0fb9284581af58bc4284d19bb07bb153d65a4ee80a2646970667358221220c61955adb49081e86e1fa894626c96b579c3ede47356e0ca29ba86974316ee7364736f6c63430008180033","linkReferences":{}},"methodIdentifiers":{"DEFAULT_ADMIN_ROLE()":"a217fddf","PAUSER_ROLE()":"e63ab1e9","UNPAUSER_ROLE()":"fb1bb9de","getRoleAdmin(bytes32)":"248a9ca3","getRoleMember(bytes32,uint256)":"9010d07c","getRoleMemberCount(bytes32)":"ca15c873","grantRole(bytes32,address)":"2f2ff15d","hasRole(bytes32,address)":"91d14854","initialize((address,address,address))":"d26b3e26","isDelegate()":"9b55ff5e","isStakerWithdraw()":"4994adeb","isStrategyDeposit()":"3830f4b2","isStrategyWithdraw()":"2602edb1","isUnDelegate()":"c77cf18d","pauseAll()":"595c6a67","renounceRole(bytes32,address)":"36568abe","revokeRole(bytes32,address)":"d547741f","setIsDelegate(bool)":"7d5da1d9","setIsStakerWithdraw(bool)":"bf000233","setIsStrategyDeposit(bool)":"fbb231f5","setIsStrategyWithdraw(bool)":"1c7d7cbb","setIsUnDelegate(bool)":"4e79763a","supportsInterface(bytes4)":"01ffc9a7","unpauseAll()":"8a2ddd03"},"id":109}