{"abi":[{"type":"constructor","inputs":[],"stateMutability":"nonpayable"},{"type":"function","name":"DEFAULT_ADMIN_ROLE","inputs":[],"outputs":[{"name":"","type":"bytes32","internalType":"bytes32"}],"stateMutability":"view"},{"type":"function","name":"PAUSER_ROLE","inputs":[],"outputs":[{"name":"","type":"bytes32","internalType":"bytes32"}],"stateMutability":"view"},{"type":"function","name":"UNPAUSER_ROLE","inputs":[],"outputs":[{"name":"","type":"bytes32","internalType":"bytes32"}],"stateMutability":"view"},{"type":"function","name":"getRoleAdmin","inputs":[{"name":"role","type":"bytes32","internalType":"bytes32"}],"outputs":[{"name":"","type":"bytes32","internalType":"bytes32"}],"stateMutability":"view"},{"type":"function","name":"getRoleMember","inputs":[{"name":"role","type":"bytes32","internalType":"bytes32"},{"name":"index","type":"uint256","internalType":"uint256"}],"outputs":[{"name":"","type":"address","internalType":"address"}],"stateMutability":"view"},{"type":"function","name":"getRoleMemberCount","inputs":[{"name":"role","type":"bytes32","internalType":"bytes32"}],"outputs":[{"name":"","type":"uint256","internalType":"uint256"}],"stateMutability":"view"},{"type":"function","name":"grantRole","inputs":[{"name":"role","type":"bytes32","internalType":"bytes32"},{"name":"account","type":"address","internalType":"address"}],"outputs":[],"stateMutability":"nonpayable"},{"type":"function","name":"hasRole","inputs":[{"name":"role","type":"bytes32","internalType":"bytes32"},{"name":"account","type":"address","internalType":"address"}],"outputs":[{"name":"","type":"bool","internalType":"bool"}],"stateMutability":"view"},{"type":"function","name":"initialize","inputs":[{"name":"init","type":"tuple","internalType":"struct L2Pauser.Init","components":[{"name":"admin","type":"address","internalType":"address"},{"name":"pauser","type":"address","internalType":"address"},{"name":"unpauser","type":"address","internalType":"address"}]}],"outputs":[],"stateMutability":"nonpayable"},{"type":"function","name":"isDelegate","inputs":[],"outputs":[{"name":"","type":"bool","internalType":"bool"}],"stateMutability":"view"},{"type":"function","name":"isStakerWithdraw","inputs":[],"outputs":[{"name":"","type":"bool","internalType":"bool"}],"stateMutability":"view"},{"type":"function","name":"isStrategyDeposit","inputs":[],"outputs":[{"name":"","type":"bool","internalType":"bool"}],"stateMutability":"view"},{"type":"function","name":"isStrategyWithdraw","inputs":[],"outputs":[{"name":"","type":"bool","internalType":"bool"}],"stateMutability":"view"},{"type":"function","name":"isUnDelegate","inputs":[],"outputs":[{"name":"","type":"bool","internalType":"bool"}],"stateMutability":"view"},{"type":"function","name":"pauseAll","inputs":[],"outputs":[],"stateMutability":"nonpayable"},{"type":"function","name":"renounceRole","inputs":[{"name":"role","type":"bytes32","internalType":"bytes32"},{"name":"callerConfirmation","type":"address","internalType":"address"}],"outputs":[],"stateMutability":"nonpayable"},{"type":"function","name":"revokeRole","inputs":[{"name":"role","type":"bytes32","internalType":"bytes32"},{"name":"account","type":"address","internalType":"address"}],"outputs":[],"stateMutability":"nonpayable"},{"type":"function","name":"setIsDelegate","inputs":[{"name":"isPaused","type":"bool","internalType":"bool"}],"outputs":[],"stateMutability":"nonpayable"},{"type":"function","name":"setIsStakerWithdraw","inputs":[{"name":"isPaused","type":"bool","internalType":"bool"}],"outputs":[],"stateMutability":"nonpayable"},{"type":"function","name":"setIsStrategyDeposit","inputs":[{"name":"isPaused","type":"bool","internalType":"bool"}],"outputs":[],"stateMutability":"nonpayable"},{"type":"function","name":"setIsStrategyWithdraw","inputs":[{"name":"isPaused","type":"bool","internalType":"bool"}],"outputs":[],"stateMutability":"nonpayable"},{"type":"function","name":"setIsUnDelegate","inputs":[{"name":"isPaused","type":"bool","internalType":"bool"}],"outputs":[],"stateMutability":"nonpayable"},{"type":"function","name":"supportsInterface","inputs":[{"name":"interfaceId","type":"bytes4","internalType":"bytes4"}],"outputs":[{"name":"","type":"bool","internalType":"bool"}],"stateMutability":"view"},{"type":"function","name":"unpauseAll","inputs":[],"outputs":[],"stateMutability":"nonpayable"},{"type":"event","name":"FlagUpdated","inputs":[{"name":"selector","type":"bytes4","indexed":true,"internalType":"bytes4"},{"name":"isPaused","type":"bool","indexed":true,"internalType":"bool"},{"name":"flagName","type":"string","indexed":false,"internalType":"string"}],"anonymous":false},{"type":"event","name":"Initialized","inputs":[{"name":"version","type":"uint64","indexed":false,"internalType":"uint64"}],"anonymous":false},{"type":"event","name":"RoleAdminChanged","inputs":[{"name":"role","type":"bytes32","indexed":true,"internalType":"bytes32"},{"name":"previousAdminRole","type":"bytes32","indexed":true,"internalType":"bytes32"},{"name":"newAdminRole","type":"bytes32","indexed":true,"internalType":"bytes32"}],"anonymous":false},{"type":"event","name":"RoleGranted","inputs":[{"name":"role","type":"bytes32","indexed":true,"internalType":"bytes32"},{"name":"account","type":"address","indexed":true,"internalType":"address"},{"name":"sender","type":"address","indexed":true,"internalType":"address"}],"anonymous":false},{"type":"event","name":"RoleRevoked","inputs":[{"name":"role","type":"bytes32","indexed":true,"internalType":"bytes32"},{"name":"account","type":"address","indexed":true,"internalType":"address"},{"name":"sender","type":"address","indexed":true,"internalType":"address"}],"anonymous":false},{"type":"error","name":"AccessControlBadConfirmation","inputs":[]},{"type":"error","name":"AccessControlUnauthorizedAccount","inputs":[{"name":"account","type":"address","internalType":"address"},{"name":"neededRole","type":"bytes32","internalType":"bytes32"}]},{"type":"error","name":"InvalidInitialization","inputs":[]},{"type":"error","name":"NotInitializing","inputs":[]},{"type":"error","name":"PauserRoleOrOracleRequired","inputs":[{"name":"sender","type":"address","internalType":"address"}]}],"bytecode":{"object":"0x608060405234801561001057600080fd5b5061001961001e565b6100d0565b7ff0c57e16840df040f15088dc2f81fe391c3923bec73e23a9662efc9c229c6a00805468010000000000000000900460ff161561006e5760405163f92ee8a960e01b815260040160405180910390fd5b80546001600160401b03908116146100cd5780546001600160401b0319166001600160401b0390811782556040519081527fc7f505b2f371ae2175ee4913f4499e1f2633a7b5936321eed1cdaeb6115181d29060200160405180910390a15b50565b61103d806100df6000396000f3fe608060405234801561001057600080fd5b50600436106101585760003560e01c80639010d07c116100c3578063ca15c8731161007c578063ca15c873146102cb578063d26b3e26146102de578063d547741f146102f1578063e63ab1e914610304578063fb1bb9de14610319578063fbb231f51461032e57600080fd5b80639010d07c1461024b57806391d14854146102765780639b55ff5e14610289578063a217fddf1461029c578063bf000233146102a4578063c77cf18d146102b757600080fd5b80633830f4b2116101155780633830f4b2146101f35780634994adeb146102005780634e79763a14610215578063595c6a67146102285780637d5da1d9146102305780638a2ddd031461024357600080fd5b806301ffc9a71461015d5780631c7d7cbb14610185578063248a9ca31461019a5780632602edb1146101bb5780632f2ff15d146101cd57806336568abe146101e0575b600080fd5b61017061016b366004610dd1565b610341565b60405190151581526020015b60405180910390f35b610198610193366004610dfb565b61036c565b005b6101ad6101a8366004610e1d565b6103b3565b60405190815260200161017c565b60005461017090610100900460ff1681565b6101986101db366004610e52565b6103d5565b6101986101ee366004610e52565b6103f7565b6000546101709060ff1681565b60005461017090640100000000900460ff1681565b610198610223366004610dfb565b61042f565b610198610472565b61019861023e366004610dfb565b6104a6565b6101986104e9565b61025e610259366004610e7e565b610536565b6040516001600160a01b03909116815260200161017c565b610170610284366004610e52565b610565565b6000546101709062010000900460ff1681565b6101ad600081565b6101986102b2366004610dfb565b61059d565b600054610170906301000000900460ff1681565b6101ad6102d9366004610e1d565b6105e0565b6101986102ec366004610ea0565b61060d565b6101986102ff366004610e52565b610765565b6101ad600080516020610fa883398151915281565b6101ad600080516020610f8883398151915281565b61019861033c366004610dfb565b610781565b60006001600160e01b03198216635a05180f60e01b14806103665750610366826107c4565b92915050565b80801561038f5761038a600080516020610fa88339815191526107f9565b6103a6565b6103a6600080516020610f888339815191526107f9565b6103af82610803565b5050565b6000908152600080516020610fc8833981519152602052604090206001015490565b6103de826103b3565b6103e7816107f9565b6103f18383610874565b50505050565b6001600160a01b03811633146104205760405163334bd91960e11b815260040160405180910390fd5b61042a82826108b9565b505050565b8080156104525761044d600080516020610fa88339815191526107f9565b610469565b610469600080516020610f888339815191526107f9565b6103af826108f5565b61047c6001610959565b6104866001610803565b61049060016109b6565b61049a60016108f5565b6104a46001610a16565b565b8080156104c9576104c4600080516020610fa88339815191526107f9565b6104e0565b6104e0600080516020610f888339815191526107f9565b6103af826109b6565b600080516020610f88833981519152610501816107f9565b61050b6000610959565b6105156000610803565b61051f60006109b6565b61052960006108f5565b6105336000610a16565b50565b6000828152600080516020610f6883398151915260208190526040822061055d9084610a80565b949350505050565b6000918252600080516020610fc8833981519152602090815260408084206001600160a01b0393909316845291905290205460ff1690565b8080156105c0576105bb600080516020610fa88339815191526107f9565b6105d7565b6105d7600080516020610f888339815191526107f9565b6103af82610a16565b6000818152600080516020610f6883398151915260208190526040822061060690610a8c565b9392505050565b7ff0c57e16840df040f15088dc2f81fe391c3923bec73e23a9662efc9c229c6a008054600160401b810460ff16159067ffffffffffffffff166000811580156106535750825b905060008267ffffffffffffffff1660011480156106705750303b155b90508115801561067e575080155b1561069c5760405163f92ee8a960e01b815260040160405180910390fd5b845467ffffffffffffffff1916600117855583156106c657845460ff60401b1916600160401b1785555b6106ce610a96565b85516106dc90600090610874565b506106f9600080516020610fa88339815191528760200151610874565b50610716600080516020610f888339815191528760400151610874565b50831561075d57845460ff60401b19168555604051600181527fc7f505b2f371ae2175ee4913f4499e1f2633a7b5936321eed1cdaeb6115181d29060200160405180910390a15b505050505050565b61076e826103b3565b610777816107f9565b6103f183836108b9565b8080156107a45761079f600080516020610fa88339815191526107f9565b6107bb565b6107bb600080516020610f888339815191526107f9565b6103af82610959565b60006001600160e01b03198216637965db0b60e01b148061036657506301ffc9a760e01b6001600160e01b0319831614610366565b6105338133610a9e565b60008054821515610100810261ff001990921691909117909155604051632602edb160e01b90600080516020610fe8833981519152906108699060208082526012908201527169735374726174656779576974686472617760701b604082015260600190565b60405180910390a350565b6000600080516020610f68833981519152816108908585610adb565b9050801561055d5760008581526020839052604090206108b09085610b80565b50949350505050565b6000600080516020610f68833981519152816108d58585610b95565b9050801561055d5760008581526020839052604090206108b09085610c11565b600080548215156301000000810263ff000000199092169190911790915560405163c77cf18d60e01b90600080516020610fe883398151915290610869906020808252600c908201526b6973556e44656c656761746560a01b604082015260600190565b6000805482151560ff199091168117909155604051631c187a5960e11b90600080516020610fe883398151915290610869906020808252601190820152701a5cd4dd1c985d1959de51195c1bdcda5d607a1b604082015260600190565b6000805482151562010000810262ff00001990921691909117909155604051634daaffaf60e11b90600080516020610fe883398151915290610869906020808252600a9082015269697344656c656761746560b01b604082015260600190565b60008054821515640100000000810264ff000000001990921691909117909155604051634994adeb60e01b90600080516020610fe8833981519152906108699060208082526010908201526f69735374616b6572576974686472617760801b604082015260600190565b60006106068383610c26565b6000610366825490565b6104a4610c50565b610aa88282610565565b6103af5760405163e2517d3f60e01b81526001600160a01b03821660048201526024810183905260440160405180910390fd5b6000600080516020610fc8833981519152610af68484610565565b610b76576000848152602082815260408083206001600160a01b03871684529091529020805460ff19166001179055610b2c3390565b6001600160a01b0316836001600160a01b0316857f2f8788117e7eff1d82e926ec794901d17c78024a50270940304540a733656f0d60405160405180910390a46001915050610366565b6000915050610366565b6000610606836001600160a01b038416610c99565b6000600080516020610fc8833981519152610bb08484610565565b15610b76576000848152602082815260408083206001600160a01b0387168085529252808320805460ff1916905551339287917ff6391f5c32d9c69d2a47ea670b442974b53935d1edc7fd64eb21e047a839171b9190a46001915050610366565b6000610606836001600160a01b038416610ce8565b6000826000018281548110610c3d57610c3d610f1a565b9060005260206000200154905092915050565b7ff0c57e16840df040f15088dc2f81fe391c3923bec73e23a9662efc9c229c6a0054600160401b900460ff166104a457604051631afcd79f60e31b815260040160405180910390fd5b6000818152600183016020526040812054610ce057508154600181810184556000848152602080822090930184905584548482528286019093526040902091909155610366565b506000610366565b60008181526001830160205260408120548015610b76576000610d0c600183610f30565b8554909150600090610d2090600190610f30565b9050808214610d85576000866000018281548110610d4057610d40610f1a565b9060005260206000200154905080876000018481548110610d6357610d63610f1a565b6000918252602080832090910192909255918252600188019052604090208390555b8554869080610d9657610d96610f51565b600190038181906000526020600020016000905590558560010160008681526020019081526020016000206000905560019350505050610366565b600060208284031215610de357600080fd5b81356001600160e01b03198116811461060657600080fd5b600060208284031215610e0d57600080fd5b8135801515811461060657600080fd5b600060208284031215610e2f57600080fd5b5035919050565b80356001600160a01b0381168114610e4d57600080fd5b919050565b60008060408385031215610e6557600080fd5b82359150610e7560208401610e36565b90509250929050565b60008060408385031215610e9157600080fd5b50508035926020909101359150565b600060608284031215610eb257600080fd5b6040516060810181811067ffffffffffffffff82111715610ee357634e487b7160e01b600052604160045260246000fd5b604052610eef83610e36565b8152610efd60208401610e36565b6020820152610f0e60408401610e36565b60408201529392505050565b634e487b7160e01b600052603260045260246000fd5b8181038181111561036657634e487b7160e01b600052601160045260246000fd5b634e487b7160e01b600052603160045260246000fdfec1f6fe24621ce81ec5827caf0253cadb74709b061630e6b55e82371705932000427da25fe773164f88948d3e215c94b6554e2ed5e5f203a821c9f2f6131cf75a65d7a28e3265b37a6474929f336521b332c1681b933f6cb9f3376673440d862a02dd7bc7dec4dceedda775e58dd541e08a116c6c53815c0bd028192f7b6268008a3a9d8f1181b67c292c06a0fb9284581af58bc4284d19bb07bb153d65a4ee80a2646970667358221220b6db4f629de701cd33628733860949c52d580ead026f73acbbedd1ea66db4be464736f6c63430008180033","linkReferences":{}},"methodIdentifiers":{"DEFAULT_ADMIN_ROLE()":"a217fddf","PAUSER_ROLE()":"e63ab1e9","UNPAUSER_ROLE()":"fb1bb9de","getRoleAdmin(bytes32)":"248a9ca3","getRoleMember(bytes32,uint256)":"9010d07c","getRoleMemberCount(bytes32)":"ca15c873","grantRole(bytes32,address)":"2f2ff15d","hasRole(bytes32,address)":"91d14854","initialize((address,address,address))":"d26b3e26","isDelegate()":"9b55ff5e","isStakerWithdraw()":"4994adeb","isStrategyDeposit()":"3830f4b2","isStrategyWithdraw()":"2602edb1","isUnDelegate()":"c77cf18d","pauseAll()":"595c6a67","renounceRole(bytes32,address)":"36568abe","revokeRole(bytes32,address)":"d547741f","setIsDelegate(bool)":"7d5da1d9","setIsStakerWithdraw(bool)":"bf000233","setIsStrategyDeposit(bool)":"fbb231f5","setIsStrategyWithdraw(bool)":"1c7d7cbb","setIsUnDelegate(bool)":"4e79763a","supportsInterface(bytes4)":"01ffc9a7","unpauseAll()":"8a2ddd03"},"id":102}