{"abi":[{"type":"constructor","inputs":[],"stateMutability":"nonpayable"},{"type":"receive","stateMutability":"payable"},{"type":"function","name":"DEFAULT_ADMIN_ROLE","inputs":[],"outputs":[{"name":"","type":"bytes32","internalType":"bytes32"}],"stateMutability":"view"},{"type":"function","name":"RECEIVER_MANAGER_ROLE","inputs":[],"outputs":[{"name":"","type":"bytes32","internalType":"bytes32"}],"stateMutability":"view"},{"type":"function","name":"WITHDRAWER_ROLE","inputs":[],"outputs":[{"name":"","type":"bytes32","internalType":"bytes32"}],"stateMutability":"view"},{"type":"function","name":"getRoleAdmin","inputs":[{"name":"role","type":"bytes32","internalType":"bytes32"}],"outputs":[{"name":"","type":"bytes32","internalType":"bytes32"}],"stateMutability":"view"},{"type":"function","name":"getRoleMember","inputs":[{"name":"role","type":"bytes32","internalType":"bytes32"},{"name":"index","type":"uint256","internalType":"uint256"}],"outputs":[{"name":"","type":"address","internalType":"address"}],"stateMutability":"view"},{"type":"function","name":"getRoleMemberCount","inputs":[{"name":"role","type":"bytes32","internalType":"bytes32"}],"outputs":[{"name":"","type":"uint256","internalType":"uint256"}],"stateMutability":"view"},{"type":"function","name":"grantRole","inputs":[{"name":"role","type":"bytes32","internalType":"bytes32"},{"name":"account","type":"address","internalType":"address"}],"outputs":[],"stateMutability":"nonpayable"},{"type":"function","name":"hasRole","inputs":[{"name":"role","type":"bytes32","internalType":"bytes32"},{"name":"account","type":"address","internalType":"address"}],"outputs":[{"name":"","type":"bool","internalType":"bool"}],"stateMutability":"view"},{"type":"function","name":"initialize","inputs":[{"name":"init","type":"tuple","internalType":"struct ReturnsReceiver.Init","components":[{"name":"admin","type":"address","internalType":"address"},{"name":"manager","type":"address","internalType":"address"},{"name":"withdrawer","type":"address","internalType":"address"}]}],"outputs":[],"stateMutability":"nonpayable"},{"type":"function","name":"renounceRole","inputs":[{"name":"role","type":"bytes32","internalType":"bytes32"},{"name":"callerConfirmation","type":"address","internalType":"address"}],"outputs":[],"stateMutability":"nonpayable"},{"type":"function","name":"revokeRole","inputs":[{"name":"role","type":"bytes32","internalType":"bytes32"},{"name":"account","type":"address","internalType":"address"}],"outputs":[],"stateMutability":"nonpayable"},{"type":"function","name":"supportsInterface","inputs":[{"name":"interfaceId","type":"bytes4","internalType":"bytes4"}],"outputs":[{"name":"","type":"bool","internalType":"bool"}],"stateMutability":"view"},{"type":"function","name":"transfer","inputs":[{"name":"to","type":"address","internalType":"address payable"},{"name":"amount","type":"uint256","internalType":"uint256"}],"outputs":[],"stateMutability":"nonpayable"},{"type":"function","name":"transferERC20","inputs":[{"name":"token","type":"address","internalType":"contract IERC20"},{"name":"to","type":"address","internalType":"address"},{"name":"amount","type":"uint256","internalType":"uint256"}],"outputs":[],"stateMutability":"nonpayable"},{"type":"event","name":"Initialized","inputs":[{"name":"version","type":"uint64","indexed":false,"internalType":"uint64"}],"anonymous":false},{"type":"event","name":"RoleAdminChanged","inputs":[{"name":"role","type":"bytes32","indexed":true,"internalType":"bytes32"},{"name":"previousAdminRole","type":"bytes32","indexed":true,"internalType":"bytes32"},{"name":"newAdminRole","type":"bytes32","indexed":true,"internalType":"bytes32"}],"anonymous":false},{"type":"event","name":"RoleGranted","inputs":[{"name":"role","type":"bytes32","indexed":true,"internalType":"bytes32"},{"name":"account","type":"address","indexed":true,"internalType":"address"},{"name":"sender","type":"address","indexed":true,"internalType":"address"}],"anonymous":false},{"type":"event","name":"RoleRevoked","inputs":[{"name":"role","type":"bytes32","indexed":true,"internalType":"bytes32"},{"name":"account","type":"address","indexed":true,"internalType":"address"},{"name":"sender","type":"address","indexed":true,"internalType":"address"}],"anonymous":false},{"type":"error","name":"AccessControlBadConfirmation","inputs":[]},{"type":"error","name":"AccessControlUnauthorizedAccount","inputs":[{"name":"account","type":"address","internalType":"address"},{"name":"neededRole","type":"bytes32","internalType":"bytes32"}]},{"type":"error","name":"AddressEmptyCode","inputs":[{"name":"target","type":"address","internalType":"address"}]},{"type":"error","name":"AddressInsufficientBalance","inputs":[{"name":"account","type":"address","internalType":"address"}]},{"type":"error","name":"FailedInnerCall","inputs":[]},{"type":"error","name":"InvalidInitialization","inputs":[]},{"type":"error","name":"NotInitializing","inputs":[]},{"type":"error","name":"SafeERC20FailedOperation","inputs":[{"name":"token","type":"address","internalType":"address"}]}],"bytecode":{"object":"0x608080604052346100b8577ff0c57e16840df040f15088dc2f81fe391c3923bec73e23a9662efc9c229c6a009081549060ff8260401c166100a957506001600160401b036002600160401b031982821601610064575b604051610ef090816100be8239f35b6001600160401b031990911681179091556040519081527fc7f505b2f371ae2175ee4913f4499e1f2633a7b5936321eed1cdaeb6115181d290602090a1388080610055565b63f92ee8a960e01b8152600490fd5b600080fdfe6080604081815260049081361015610022575b505050361561002057600080fd5b005b600092833560e01c90816301ffc9a71461078657508063248a9ca31461074e5780632f2ff15d146106c857806336568abe146106815780637b5933e11461065857806385f438c11461062f5780639010d07c146105e157806391d148541461058d5780639db5dbe414610494578063a217fddf14610475578063a9059cbb146103fc578063ca15c873146103c7578063d26b3e26146101135763d547741f03610012573461010f578060031936011261010f5761010b913561010660016100e76107f4565b93838752600080516020610e7b83398151915260205286200154610877565b6108aa565b5080f35b8280fd5b503461010f57606036600319011261010f5780519067ffffffffffffffff60608301818111848210176103b45782526001600160a01b0392843584811681036103b05781526101606107f4565b936020948583019081526044359282841684036103ac578581019384527ff0c57e16840df040f15088dc2f81fe391c3923bec73e23a9662efc9c229c6a0097885460ff81891c1615968116801590816103a4575b600114908161039a575b159081610391575b506103825767ffffffffffffffff1981166001178a5586610363575b5060ff8954881c161561035557509082809251166101ff81610953565b61032e575b505116610210816109e1565b6102f9575b50600080516020610e5b83398151915291828852600080516020610e7b83398151915286526001858920018054600080516020610e9b833981519152809255847fbd79b86ffe0ab8e8776151514217cd7cacd52c909f66475c3af44e129f0b00ff8b80a4511661028481610a7f565b6102d2575b5050610293578380f35b7fc7f505b2f371ae2175ee4913f4499e1f2633a7b5936321eed1cdaeb6115181d29268ff00000000000000001981541690555160018152a13880808380f35b6102f1918752600080516020610e3b8339815191528552838720610c3d565b503880610289565b61032790600080516020610e9b8339815191528952600080516020610e3b8339815191528752858920610c3d565b5038610215565b61034e908a8052600080516020610e3b8339815191528952878b20610c3d565b5038610204565b8651631afcd79f60e31b8152fd5b68ffffffffffffffffff191668010000000000000001178955386101e2565b50865163f92ee8a960e01b8152fd5b905015386101c6565b303b1591506101be565b8891506101b4565b8880fd5b8680fd5b634e487b7160e01b865260418552602486fd5b50903461010f57602036600319011261010f576020928291358152600080516020610e3b833981519152845220549051908152f35b503461010f578060031936011261010f5781356001600160a01b03811690819003610471576024359061042d61080f565b81471061045b578480809381935af16104446108f2565b501561044e578280f35b51630a12f52160e11b8152fd5b825163cd78605960e01b81523081860152602490fd5b8380fd5b83823461049057816003193601126104905751908152602090f35b5080fd5b503461010f57606036600319011261010f5781356001600160a01b038181169291839003610576576104c46107f4565b906104cd61080f565b825190602082019263a9059cbb60e01b84521660248201526044356044820152604481526080810181811067ffffffffffffffff82111761057a57835251610526918691829182875af161051f6108f2565b9084610db7565b8051908115159182610552575b505061053d578380f35b51635274afe760e01b81529182015260249150fd5b81925090602091810103126105765760200151801590811503610576573880610533565b8480fd5b634e487b7160e01b875260418652602487fd5b50903461010f578160031936011261010f578160209360ff926105ae6107f4565b90358252600080516020610e7b83398151915286528282206001600160a01b039091168252855220549151911615158152f35b50903461010f578160031936011261010f5760209261061991358152600080516020610e3b8339815191528452826024359120610c0f565b905491519160018060a01b039160031b1c168152f35b83823461049057816003193601126104905760209051600080516020610e5b8339815191528152f35b83823461049057816003193601126104905760209051600080516020610e9b8339815191528152f35b5082903461049057806003193601126104905761069c6107f4565b90336001600160a01b038316036106b9575061010b9192356108aa565b5163334bd91960e11b81528390fd5b50903461010f578160031936011261010f5735906106e46107f4565b90828452600080516020610e7b83398151915260205261070960018286200154610877565b6107138284610b17565b61071b578380f35b918352600080516020610e3b833981519152602052908220610746916001600160a01b031690610c3d565b503880808380f35b50903461010f57602036600319011261010f5781602093600192358152600080516020610e7b83398151915285522001549051908152f35b8490843461010f57602036600319011261010f573563ffffffff60e01b811680910361010f5760209250635a05180f60e01b81149081156107c9575b5015158152f35b637965db0b60e01b8114915081156107e3575b50836107c2565b6301ffc9a760e01b149050836107dc565b602435906001600160a01b038216820361080a57565b600080fd5b3360009081527f395f4e35a18c2b5e556b3b2ff855307e76c0b3cc1ca71e19a70e83037e08e7b36020526040902054600080516020610e5b8339815191529060ff16156108595750565b6044906040519063e2517d3f60e01b82523360048301526024820152fd5b80600052600080516020610e7b83398151915260205260406000203360005260205260ff60406000205416156108595750565b6108b48282610b8c565b91826108bf57505090565b6000918252600080516020610e3b83398151915260205260409091206108ee916001600160a01b031690610cc7565b5090565b3d1561094e5767ffffffffffffffff903d8281116109385760405192601f8201601f19908116603f01168401908111848210176109385760405282523d6000602084013e565b634e487b7160e01b600052604160045260246000fd5b606090565b6001600160a01b031660008181527fb7db2dd08fcb62d0c9e08c51941cae53c267786a0b75803fb7960902fc8ef97d6020526040812054909190600080516020610e7b8339815191529060ff166109dc578280526020526040822081835260205260408220600160ff198254161790553391600080516020610e1b8339815191528180a4600190565b505090565b6001600160a01b031660008181527fd575ca94ecfaf6d2c7f01828ea96ad9b0a48895da0677b1028bda97b66609e306020526040812054909190600080516020610e9b83398151915290600080516020610e7b8339815191529060ff16610a79578184526020526040832082845260205260408320600160ff19825416179055600080516020610e1b833981519152339380a4600190565b50505090565b6001600160a01b031660008181527f395f4e35a18c2b5e556b3b2ff855307e76c0b3cc1ca71e19a70e83037e08e7b36020526040812054909190600080516020610e5b83398151915290600080516020610e7b8339815191529060ff16610a79578184526020526040832082845260205260408320600160ff19825416179055600080516020610e1b833981519152339380a4600190565b90600091808352600080516020610e7b83398151915280602052604084209260018060a01b03169283855260205260ff60408520541615600014610a79578184526020526040832082845260205260408320600160ff19825416179055600080516020610e1b833981519152339380a4600190565b90600091808352600080516020610e7b83398151915280602052604084209260018060a01b03169283855260205260ff604085205416600014610a7957818452602052604083208284526020526040832060ff1981541690557ff6391f5c32d9c69d2a47ea670b442974b53935d1edc7fd64eb21e047a839171b339380a4600190565b8054821015610c275760005260206000200190600090565b634e487b7160e01b600052603260045260246000fd5b91906001830160009082825280602052604082205415600014610cc15784549468010000000000000000861015610cad5783610c9d610c86886001604098999a01855584610c0f565b819391549060031b91821b91600019901b19161790565b9055549382526020522055600190565b634e487b7160e01b83526041600452602483fd5b50925050565b90600182019060009281845282602052604084205490811515600014610db05760001991808301818111610d9c57825490848201918211610d8857818103610d53575b50505080548015610d3f57820191610d228383610c0f565b909182549160031b1b191690555582526020526040812055600190565b634e487b7160e01b86526031600452602486fd5b610d73610d63610c869386610c0f565b90549060031b1c92839286610c0f565b90558652846020526040862055388080610d0a565b634e487b7160e01b88526011600452602488fd5b634e487b7160e01b87526011600452602487fd5b5050505090565b90610dde5750805115610dcc57805190602001fd5b604051630a12f52160e11b8152600490fd5b81511580610e11575b610def575090565b604051639996b31560e01b81526001600160a01b039091166004820152602490fd5b50803b15610de756fe2f8788117e7eff1d82e926ec794901d17c78024a50270940304540a733656f0dc1f6fe24621ce81ec5827caf0253cadb74709b061630e6b55e8237170593200010dac8c06a04bec0b551627dad28bc00d6516b0caacd1c7b345fcdb5211334e402dd7bc7dec4dceedda775e58dd541e08a116c6c53815c0bd028192f7b626800cc8edc991cb080954074ef217f195cb7b2d172dd844d3b763f78014408eae224a2646970667358221220c067dc5ce961ca11b93d5388aca003f33d02c404b5d5b615d3a4c2d45390f46c64736f6c63430008180033","linkReferences":{}},"methodIdentifiers":{"DEFAULT_ADMIN_ROLE()":"a217fddf","RECEIVER_MANAGER_ROLE()":"7b5933e1","WITHDRAWER_ROLE()":"85f438c1","getRoleAdmin(bytes32)":"248a9ca3","getRoleMember(bytes32,uint256)":"9010d07c","getRoleMemberCount(bytes32)":"ca15c873","grantRole(bytes32,address)":"2f2ff15d","hasRole(bytes32,address)":"91d14854","initialize((address,address,address))":"d26b3e26","renounceRole(bytes32,address)":"36568abe","revokeRole(bytes32,address)":"d547741f","supportsInterface(bytes4)":"01ffc9a7","transfer(address,uint256)":"a9059cbb","transferERC20(address,address,uint256)":"9db5dbe4"},"id":79}