{"abi":[{"type":"constructor","inputs":[],"stateMutability":"nonpayable"},{"type":"receive","stateMutability":"payable"},{"type":"function","name":"DEFAULT_ADMIN_ROLE","inputs":[],"outputs":[{"name":"","type":"bytes32","internalType":"bytes32"}],"stateMutability":"view"},{"type":"function","name":"RECEIVER_MANAGER_ROLE","inputs":[],"outputs":[{"name":"","type":"bytes32","internalType":"bytes32"}],"stateMutability":"view"},{"type":"function","name":"WITHDRAWER_ROLE","inputs":[],"outputs":[{"name":"","type":"bytes32","internalType":"bytes32"}],"stateMutability":"view"},{"type":"function","name":"getRoleAdmin","inputs":[{"name":"role","type":"bytes32","internalType":"bytes32"}],"outputs":[{"name":"","type":"bytes32","internalType":"bytes32"}],"stateMutability":"view"},{"type":"function","name":"getRoleMember","inputs":[{"name":"role","type":"bytes32","internalType":"bytes32"},{"name":"index","type":"uint256","internalType":"uint256"}],"outputs":[{"name":"","type":"address","internalType":"address"}],"stateMutability":"view"},{"type":"function","name":"getRoleMemberCount","inputs":[{"name":"role","type":"bytes32","internalType":"bytes32"}],"outputs":[{"name":"","type":"uint256","internalType":"uint256"}],"stateMutability":"view"},{"type":"function","name":"grantRole","inputs":[{"name":"role","type":"bytes32","internalType":"bytes32"},{"name":"account","type":"address","internalType":"address"}],"outputs":[],"stateMutability":"nonpayable"},{"type":"function","name":"hasRole","inputs":[{"name":"role","type":"bytes32","internalType":"bytes32"},{"name":"account","type":"address","internalType":"address"}],"outputs":[{"name":"","type":"bool","internalType":"bool"}],"stateMutability":"view"},{"type":"function","name":"initialize","inputs":[{"name":"init","type":"tuple","internalType":"struct ReturnsReceiver.Init","components":[{"name":"admin","type":"address","internalType":"address"},{"name":"manager","type":"address","internalType":"address"},{"name":"withdrawer","type":"address","internalType":"address"}]}],"outputs":[],"stateMutability":"nonpayable"},{"type":"function","name":"renounceRole","inputs":[{"name":"role","type":"bytes32","internalType":"bytes32"},{"name":"callerConfirmation","type":"address","internalType":"address"}],"outputs":[],"stateMutability":"nonpayable"},{"type":"function","name":"revokeRole","inputs":[{"name":"role","type":"bytes32","internalType":"bytes32"},{"name":"account","type":"address","internalType":"address"}],"outputs":[],"stateMutability":"nonpayable"},{"type":"function","name":"supportsInterface","inputs":[{"name":"interfaceId","type":"bytes4","internalType":"bytes4"}],"outputs":[{"name":"","type":"bool","internalType":"bool"}],"stateMutability":"view"},{"type":"function","name":"transfer","inputs":[{"name":"to","type":"address","internalType":"address payable"},{"name":"amount","type":"uint256","internalType":"uint256"}],"outputs":[],"stateMutability":"nonpayable"},{"type":"function","name":"transferERC20","inputs":[{"name":"token","type":"address","internalType":"contract IERC20"},{"name":"to","type":"address","internalType":"address"},{"name":"amount","type":"uint256","internalType":"uint256"}],"outputs":[],"stateMutability":"nonpayable"},{"type":"event","name":"Initialized","inputs":[{"name":"version","type":"uint64","indexed":false,"internalType":"uint64"}],"anonymous":false},{"type":"event","name":"RoleAdminChanged","inputs":[{"name":"role","type":"bytes32","indexed":true,"internalType":"bytes32"},{"name":"previousAdminRole","type":"bytes32","indexed":true,"internalType":"bytes32"},{"name":"newAdminRole","type":"bytes32","indexed":true,"internalType":"bytes32"}],"anonymous":false},{"type":"event","name":"RoleGranted","inputs":[{"name":"role","type":"bytes32","indexed":true,"internalType":"bytes32"},{"name":"account","type":"address","indexed":true,"internalType":"address"},{"name":"sender","type":"address","indexed":true,"internalType":"address"}],"anonymous":false},{"type":"event","name":"RoleRevoked","inputs":[{"name":"role","type":"bytes32","indexed":true,"internalType":"bytes32"},{"name":"account","type":"address","indexed":true,"internalType":"address"},{"name":"sender","type":"address","indexed":true,"internalType":"address"}],"anonymous":false},{"type":"error","name":"AccessControlBadConfirmation","inputs":[]},{"type":"error","name":"AccessControlUnauthorizedAccount","inputs":[{"name":"account","type":"address","internalType":"address"},{"name":"neededRole","type":"bytes32","internalType":"bytes32"}]},{"type":"error","name":"AddressEmptyCode","inputs":[{"name":"target","type":"address","internalType":"address"}]},{"type":"error","name":"AddressInsufficientBalance","inputs":[{"name":"account","type":"address","internalType":"address"}]},{"type":"error","name":"FailedInnerCall","inputs":[]},{"type":"error","name":"InvalidInitialization","inputs":[]},{"type":"error","name":"NotInitializing","inputs":[]},{"type":"error","name":"SafeERC20FailedOperation","inputs":[{"name":"token","type":"address","internalType":"address"}]}],"bytecode":{"object":"0x608060405234801561001057600080fd5b5061001961001e565b6100d0565b7ff0c57e16840df040f15088dc2f81fe391c3923bec73e23a9662efc9c229c6a00805468010000000000000000900460ff161561006e5760405163f92ee8a960e01b815260040160405180910390fd5b80546001600160401b03908116146100cd5780546001600160401b0319166001600160401b0390811782556040519081527fc7f505b2f371ae2175ee4913f4499e1f2633a7b5936321eed1cdaeb6115181d29060200160405180910390a15b50565b610fcf806100df6000396000f3fe6080604052600436106100e15760003560e01c806391d148541161007f578063a9059cbb11610059578063a9059cbb14610275578063ca15c87314610295578063d26b3e26146102b5578063d547741f146102d557600080fd5b806391d14854146102205780639db5dbe414610240578063a217fddf1461026057600080fd5b806336568abe116100bb57806336568abe146101725780637b5933e11461019257806385f438c1146101c65780639010d07c146101e857600080fd5b806301ffc9a7146100ed578063248a9ca3146101225780632f2ff15d1461015057600080fd5b366100e857005b600080fd5b3480156100f957600080fd5b5061010d610108366004610d04565b6102f5565b60405190151581526020015b60405180910390f35b34801561012e57600080fd5b5061014261013d366004610d2e565b610320565b604051908152602001610119565b34801561015c57600080fd5b5061017061016b366004610d5c565b610342565b005b34801561017e57600080fd5b5061017061018d366004610d5c565b610364565b34801561019e57600080fd5b506101427fcc8edc991cb080954074ef217f195cb7b2d172dd844d3b763f78014408eae22481565b3480156101d257600080fd5b50610142600080516020610f5a83398151915281565b3480156101f457600080fd5b50610208610203366004610d8c565b61039c565b6040516001600160a01b039091168152602001610119565b34801561022c57600080fd5b5061010d61023b366004610d5c565b6103cb565b34801561024c57600080fd5b5061017061025b366004610dae565b610403565b34801561026c57600080fd5b50610142600081565b34801561028157600080fd5b50610170610290366004610def565b610426565b3480156102a157600080fd5b506101426102b0366004610d2e565b610448565b3480156102c157600080fd5b506101706102d0366004610e1b565b610475565b3480156102e157600080fd5b506101706102f0366004610d5c565b610617565b60006001600160e01b03198216635a05180f60e01b148061031a575061031a82610633565b92915050565b6000908152600080516020610f7a833981519152602052604090206001015490565b61034b82610320565b61035481610668565b61035e8383610675565b50505050565b6001600160a01b038116331461038d5760405163334bd91960e11b815260040160405180910390fd5b61039782826106ba565b505050565b6000828152600080516020610f3a8339815191526020819052604082206103c390846106f6565b949350505050565b6000918252600080516020610f7a833981519152602090815260408084206001600160a01b0393909316845291905290205460ff1690565b600080516020610f5a83398151915261041b81610668565b61035e848484610702565b600080516020610f5a83398151915261043e81610668565b6103978383610754565b6000818152600080516020610f3a83398151915260208190526040822061046e906107f0565b9392505050565b7ff0c57e16840df040f15088dc2f81fe391c3923bec73e23a9662efc9c229c6a008054600160401b810460ff16159067ffffffffffffffff166000811580156104bb5750825b905060008267ffffffffffffffff1660011480156104d85750303b155b9050811580156104e6575080155b156105045760405163f92ee8a960e01b815260040160405180910390fd5b845467ffffffffffffffff19166001178555831561052e57845460ff60401b1916600160401b1785555b6105366107fa565b855161054490600090610675565b506105737fcc8edc991cb080954074ef217f195cb7b2d172dd844d3b763f78014408eae2248760200151610675565b506105ac600080516020610f5a8339815191527fcc8edc991cb080954074ef217f195cb7b2d172dd844d3b763f78014408eae224610804565b6105c8600080516020610f5a8339815191528760400151610675565b50831561060f57845460ff60401b19168555604051600181527fc7f505b2f371ae2175ee4913f4499e1f2633a7b5936321eed1cdaeb6115181d29060200160405180910390a15b505050505050565b61062082610320565b61062981610668565b61035e83836106ba565b60006001600160e01b03198216637965db0b60e01b148061031a57506301ffc9a760e01b6001600160e01b031983161461031a565b6106728133610867565b50565b6000600080516020610f3a8339815191528161069185856108a4565b905080156103c35760008581526020839052604090206106b19085610949565b50949350505050565b6000600080516020610f3a833981519152816106d6858561095e565b905080156103c35760008581526020839052604090206106b190856109da565b600061046e83836109ef565b604080516001600160a01b038416602482015260448082018490528251808303909101815260649091019091526020810180516001600160e01b031663a9059cbb60e01b179052610397908490610a19565b8047101561077c5760405163cd78605960e01b81523060048201526024015b60405180910390fd5b6000826001600160a01b03168260405160006040518083038185875af1925050503d80600081146107c9576040519150601f19603f3d011682016040523d82523d6000602084013e6107ce565b606091505b505090508061039757604051630a12f52160e11b815260040160405180910390fd5b600061031a825490565b610802610a7c565b565b600080516020610f7a833981519152600061081e84610320565b600085815260208490526040808220600101869055519192508491839187917fbd79b86ffe0ab8e8776151514217cd7cacd52c909f66475c3af44e129f0b00ff9190a450505050565b61087182826103cb565b6108a05760405163e2517d3f60e01b81526001600160a01b038216600482015260248101839052604401610773565b5050565b6000600080516020610f7a8339815191526108bf84846103cb565b61093f576000848152602082815260408083206001600160a01b03871684529091529020805460ff191660011790556108f53390565b6001600160a01b0316836001600160a01b0316857f2f8788117e7eff1d82e926ec794901d17c78024a50270940304540a733656f0d60405160405180910390a4600191505061031a565b600091505061031a565b600061046e836001600160a01b038416610ac5565b6000600080516020610f7a83398151915261097984846103cb565b1561093f576000848152602082815260408083206001600160a01b0387168085529252808320805460ff1916905551339287917ff6391f5c32d9c69d2a47ea670b442974b53935d1edc7fd64eb21e047a839171b9190a4600191505061031a565b600061046e836001600160a01b038416610b14565b6000826000018281548110610a0657610a06610e9b565b9060005260206000200154905092915050565b6000610a2e6001600160a01b03841683610bfd565b90508051600014158015610a53575080806020019051810190610a519190610eb1565b155b1561039757604051635274afe760e01b81526001600160a01b0384166004820152602401610773565b7ff0c57e16840df040f15088dc2f81fe391c3923bec73e23a9662efc9c229c6a0054600160401b900460ff1661080257604051631afcd79f60e31b815260040160405180910390fd5b6000818152600183016020526040812054610b0c5750815460018181018455600084815260208082209093018490558454848252828601909352604090209190915561031a565b50600061031a565b6000818152600183016020526040812054801561093f576000610b38600183610ed3565b8554909150600090610b4c90600190610ed3565b9050808214610bb1576000866000018281548110610b6c57610b6c610e9b565b9060005260206000200154905080876000018481548110610b8f57610b8f610e9b565b6000918252602080832090910192909255918252600188019052604090208390555b8554869080610bc257610bc2610ef4565b60019003818190600052602060002001600090559055856001016000868152602001908152602001600020600090556001935050505061031a565b606061046e8383600084600080856001600160a01b03168486604051610c239190610f0a565b60006040518083038185875af1925050503d8060008114610c60576040519150601f19603f3d011682016040523d82523d6000602084013e610c65565b606091505b5091509150610c75868383610c7f565b9695505050505050565b606082610c9457610c8f82610cdb565b61046e565b8151158015610cab57506001600160a01b0384163b155b15610cd457604051639996b31560e01b81526001600160a01b0385166004820152602401610773565b508061046e565b805115610ceb5780518082602001fd5b604051630a12f52160e11b815260040160405180910390fd5b600060208284031215610d1657600080fd5b81356001600160e01b03198116811461046e57600080fd5b600060208284031215610d4057600080fd5b5035919050565b6001600160a01b038116811461067257600080fd5b60008060408385031215610d6f57600080fd5b823591506020830135610d8181610d47565b809150509250929050565b60008060408385031215610d9f57600080fd5b50508035926020909101359150565b600080600060608486031215610dc357600080fd5b8335610dce81610d47565b92506020840135610dde81610d47565b929592945050506040919091013590565b60008060408385031215610e0257600080fd5b8235610e0d81610d47565b946020939093013593505050565b600060608284031215610e2d57600080fd5b6040516060810181811067ffffffffffffffff82111715610e5e57634e487b7160e01b600052604160045260246000fd5b6040528235610e6c81610d47565b81526020830135610e7c81610d47565b60208201526040830135610e8f81610d47565b60408201529392505050565b634e487b7160e01b600052603260045260246000fd5b600060208284031215610ec357600080fd5b8151801515811461046e57600080fd5b8181038181111561031a57634e487b7160e01b600052601160045260246000fd5b634e487b7160e01b600052603160045260246000fd5b6000825160005b81811015610f2b5760208186018101518583015201610f11565b50600092019182525091905056fec1f6fe24621ce81ec5827caf0253cadb74709b061630e6b55e8237170593200010dac8c06a04bec0b551627dad28bc00d6516b0caacd1c7b345fcdb5211334e402dd7bc7dec4dceedda775e58dd541e08a116c6c53815c0bd028192f7b626800a26469706673582212200e0dee8de6b2340c1b461a62acb44eb5d4766eb72ac9a24f089b016b287b6af464736f6c63430008180033","linkReferences":{}},"methodIdentifiers":{"DEFAULT_ADMIN_ROLE()":"a217fddf","RECEIVER_MANAGER_ROLE()":"7b5933e1","WITHDRAWER_ROLE()":"85f438c1","getRoleAdmin(bytes32)":"248a9ca3","getRoleMember(bytes32,uint256)":"9010d07c","getRoleMemberCount(bytes32)":"ca15c873","grantRole(bytes32,address)":"2f2ff15d","hasRole(bytes32,address)":"91d14854","initialize((address,address,address))":"d26b3e26","renounceRole(bytes32,address)":"36568abe","revokeRole(bytes32,address)":"d547741f","supportsInterface(bytes4)":"01ffc9a7","transfer(address,uint256)":"a9059cbb","transferERC20(address,address,uint256)":"9db5dbe4"},"id":72}